{"contracts/Vault.sol":{"Vault":{"abi":[{"inputs":[{"internalType":"address","name":"_creator","type":"address"},{"internalType":"address","name":"_owner","type":"address"},{"internalType":"string","name":"_userName","type":"string"}],"stateMutability":"nonpayable","type":"constructor"},{"anonymous":false,"inputs":[],"name":"FileCreated","type":"event"},{"anonymous":false,"inputs":[],"name":"FileDeleted","type":"event"},{"anonymous":false,"inputs":[],"name":"FileDeleted","type":"event"},{"anonymous":false,"inputs":[{"indexed":true,"internalType":"address","name":"previousOwner","type":"address"},{"indexed":true,"internalType":"address","name":"newOwner","type":"address"}],"name":"OwnershipTransferred","type":"event"},{"inputs":[{"internalType":"string","name":"name","type":"string"},{"internalType":"string","name":"fileType","type":"string"},{"internalType":"string","name":"ipfsHash","type":"string"},{"internalType":"string","name":"key","type":"string"},{"internalType":"address","name":"sharedBy","type":"address"}],"name":"addSharedFile","outputs":[],"stateMutability":"nonpayable","type":"function"},{"inputs":[{"internalType":"string","name":"name","type":"string"},{"internalType":"string","name":"fileType","type":"string"},{"internalType":"string","name":"ipfsHash","type":"string"},{"internalType":"string","name":"key","type":"string"}],"name":"createFile","outputs":[],"stateMutability":"nonpayable","type":"function"},{"inputs":[{"internalType":"string","name":"ipfsHash","type":"string"}],"name":"deleteFile","outputs":[],"stateMutability":"nonpayable","type":"function"},{"inputs":[],"name":"getAllFiles","outputs":[{"components":[{"internalType":"string","name":"_name","type":"string"},{"internalType":"string","name":"_fileType","type":"string"},{"internalType":"string","name":"_ipfsHash","type":"string"},{"internalType":"string","name":"_key","type":"string"},{"internalType":"address","name":"_sharedBy","type":"address"}],"internalType":"struct File[]","name":"","type":"tuple[]"}],"stateMutability":"view","type":"function"},{"inputs":[],"name":"getCreator","outputs":[{"internalType":"address","name":"","type":"address"}],"stateMutability":"view","type":"function"},{"inputs":[],"name":"getOwner","outputs":[{"internalType":"address","name":"","type":"address"}],"stateMutability":"view","type":"function"},{"inputs":[],"name":"getUser","outputs":[{"internalType":"string","name":"","type":"string"}],"stateMutability":"view","type":"function"},{"inputs":[{"internalType":"bytes32","name":"_hashedMessage","type":"bytes32"},{"internalType":"uint8","name":"_v","type":"uint8"},{"internalType":"bytes32","name":"_r","type":"bytes32"},{"internalType":"bytes32","name":"_s","type":"bytes32"},{"components":[{"internalType":"string","name":"_name","type":"string"},{"internalType":"string","name":"_fileType","type":"string"},{"internalType":"string","name":"_ipfsHash","type":"string"},{"internalType":"string","name":"_key","type":"string"},{"internalType":"address","name":"_sharedBy","type":"address"}],"internalType":"struct File[]","name":"_files","type":"tuple[]"}],"name":"migrateFiles","outputs":[],"stateMutability":"nonpayable","type":"function"},{"inputs":[],"name":"user","outputs":[{"internalType":"string","name":"","type":"string"}],"stateMutability":"view","type":"function"}],"evm":{"bytecode":{"linkReferences":{"contracts/utils/FileManager.sol":{"FileManager":[{"length":20,"start":3585}]}},"object":"60806040523480156200001157600080fd5b5060405162002ba938038062002ba983398181016040528101906200003791906200032a565b8282806000806101000a81548173ffffffffffffffffffffffffffffffffffffffff021916908373ffffffffffffffffffffffffffffffffffffffff16021790555081600160006101000a81548173ffffffffffffffffffffffffffffffffffffffff021916908373ffffffffffffffffffffffffffffffffffffffff1602179055508073ffffffffffffffffffffffffffffffffffffffff16600073ffffffffffffffffffffffffffffffffffffffff167f8be0079c531659141344cd1fd0a4f28419497f9722a3daafe3b4186f6b6457e060405160405180910390a350508060029081620001289190620005f0565b50505050620006d7565b6000604051905090565b600080fd5b600080fd5b600073ffffffffffffffffffffffffffffffffffffffff82169050919050565b6000620001738262000146565b9050919050565b620001858162000166565b81146200019157600080fd5b50565b600081519050620001a5816200017a565b92915050565b600080fd5b600080fd5b6000601f19601f8301169050919050565b7f4e487b7100000000000000000000000000000000000000000000000000000000600052604160045260246000fd5b6200020082620001b5565b810181811067ffffffffffffffff82111715620002225762000221620001c6565b5b80604052505050565b60006200023762000132565b9050620002458282620001f5565b919050565b600067ffffffffffffffff821115620002685762000267620001c6565b5b6200027382620001b5565b9050602081019050919050565b60005b83811015620002a057808201518184015260208101905062000283565b60008484015250505050565b6000620002c3620002bd846200024a565b6200022b565b905082815260208101848484011115620002e257620002e1620001b0565b5b620002ef84828562000280565b509392505050565b600082601f8301126200030f576200030e620001ab565b5b815162000321848260208601620002ac565b91505092915050565b6000806000606084860312156200034657620003456200013c565b5b6000620003568682870162000194565b9350506020620003698682870162000194565b925050604084015167ffffffffffffffff8111156200038d576200038c62000141565b5b6200039b86828701620002f7565b9150509250925092565b600081519050919050565b7f4e487b7100000000000000000000000000000000000000000000000000000000600052602260045260246000fd5b60006002820490506001821680620003f857607f821691505b6020821081036200040e576200040d620003b0565b5b50919050565b60008190508160005260206000209050919050565b60006020601f8301049050919050565b600082821b905092915050565b600060088302620004787fffffffffffffffffffffffffffffffffffffffffffffffffffffffffffffffff8262000439565b62000484868362000439565b95508019841693508086168417925050509392505050565b6000819050919050565b6000819050919050565b6000620004d1620004cb620004c5846200049c565b620004a6565b6200049c565b9050919050565b6000819050919050565b620004ed83620004b0565b62000505620004fc82620004d8565b84845462000446565b825550505050565b600090565b6200051c6200050d565b62000529818484620004e2565b505050565b5b8181101562000551576200054560008262000512565b6001810190506200052f565b5050565b601f821115620005a0576200056a8162000414565b620005758462000429565b8101602085101562000585578190505b6200059d620005948562000429565b8301826200052e565b50505b505050565b600082821c905092915050565b6000620005c560001984600802620005a5565b1980831691505092915050565b6000620005e08383620005b2565b9150826002028217905092915050565b620005fb82620003a5565b67ffffffffffffffff811115620006175762000616620001c6565b5b620006238254620003df565b6200063082828562000555565b600060209050601f83116001811462000668576000841562000653578287015190505b6200065f8582620005d2565b865550620006cf565b601f198416620006788662000414565b60005b82811015620006a2578489015182556001820191506020850194506020810190506200067b565b86831015620006c25784890151620006be601f891682620005b2565b8355505b6001600288020188555050505b505050505050565b6124c280620006e76000396000f3fe608060405234801561001057600080fd5b50600436106100935760003560e01c8063893d20e811610066578063893d20e81461010e578063a99100541461012c578063d590e7ef14610148578063ebd2251b14610164578063ff24b5d51461018057610093565b80630ee2cb1014610098578063384e477d146100b65780634f8632ba146100d2578063832880e7146100f0575b600080fd5b6100a061019e565b6040516100ad91906111ca565b60405180910390f35b6100d060048036038101906100cb919061136b565b6101c8565b005b6100da6102d1565b6040516100e791906114d5565b60405180910390f35b6100f861035f565b60405161010591906114d5565b60405180910390f35b6101166103f1565b60405161012391906111ca565b60405180910390f35b610146600480360381019061014191906114f7565b61041a565b005b610162600480360381019061015d9190611540565b610517565b005b61017e60048036038101906101799190611872565b610620565b005b61018861078a565b6040516101959190611aaf565b60405180910390f35b6000600160009054906101000a900473ffffffffffffffffffffffffffffffffffffffff16905090565b60008054906101000a900473ffffffffffffffffffffffffffffffffffffffff1673ffffffffffffffffffffffffffffffffffffffff163373ffffffffffffffffffffffffffffffffffffffff16148061026f5750600160009054906101000a900473ffffffffffffffffffffffffffffffffffffffff1673ffffffffffffffffffffffffffffffffffffffff163373ffffffffffffffffffffffffffffffffffffffff16145b6102ae576040517f08c379a00000000000000000000000000000000000000000000000000000000081526004016102a590611b43565b60405180910390fd5b6102ca8585858585600361079b9095949392919063ffffffff16565b5050505050565b600280546102de90611b92565b80601f016020809104026020016040519081016040528092919081815260200182805461030a90611b92565b80156103575780601f1061032c57610100808354040283529160200191610357565b820191906000526020600020905b81548152906001019060200180831161033a57829003601f168201915b505050505081565b60606002805461036e90611b92565b80601f016020809104026020016040519081016040528092919081815260200182805461039a90611b92565b80156103e75780601f106103bc576101008083540402835291602001916103e7565b820191906000526020600020905b8154815290600101906020018083116103ca57829003601f168201915b5050505050905090565b60008060009054906101000a900473ffffffffffffffffffffffffffffffffffffffff16905090565b60008054906101000a900473ffffffffffffffffffffffffffffffffffffffff1673ffffffffffffffffffffffffffffffffffffffff163373ffffffffffffffffffffffffffffffffffffffff1614806104c15750600160009054906101000a900473ffffffffffffffffffffffffffffffffffffffff1673ffffffffffffffffffffffffffffffffffffffff163373ffffffffffffffffffffffffffffffffffffffff16145b610500576040517f08c379a00000000000000000000000000000000000000000000000000000000081526004016104f790611b43565b60405180910390fd5b610514816003610a3090919063ffffffff16565b50565b60008054906101000a900473ffffffffffffffffffffffffffffffffffffffff1673ffffffffffffffffffffffffffffffffffffffff163373ffffffffffffffffffffffffffffffffffffffff1614806105be5750600160009054906101000a900473ffffffffffffffffffffffffffffffffffffffff1673ffffffffffffffffffffffffffffffffffffffff163373ffffffffffffffffffffffffffffffffffffffff16145b6105fd576040517f08c379a00000000000000000000000000000000000000000000000000000000081526004016105f490611b43565b60405180910390fd5b61061a848484846000600361079b9095949392919063ffffffff16565b50505050565b600061062e86868686610c94565b905060008054906101000a900473ffffffffffffffffffffffffffffffffffffffff1673ffffffffffffffffffffffffffffffffffffffff168173ffffffffffffffffffffffffffffffffffffffff1614806106d75750600160009054906101000a900473ffffffffffffffffffffffffffffffffffffffff1673ffffffffffffffffffffffffffffffffffffffff168173ffffffffffffffffffffffffffffffffffffffff16145b610716576040517f08c379a000000000000000000000000000000000000000000000000000000000815260040161070d90611c0f565b60405180910390fd5b600373__$e9ce89fd4f20b88844f648e5a6e7b38428$__63167392159091846040518363ffffffff1660e01b8152600401610752929190611db4565b60006040518083038186803b15801561076a57600080fd5b505af415801561077e573d6000803e3d6000fd5b50505050505050505050565b60606107966003610d57565b905090565b60006040518060a001604052808781526020018681526020018581526020018481526020018373ffffffffffffffffffffffffffffffffffffffff1681525090508087600001856040516107ef9190611e20565b908152602001604051809103902060008201518160000190816108129190611fed565b5060208201518160010190816108289190611fed565b50604082015181600201908161083e9190611fed565b5060608201518160030190816108549190611fed565b5060808201518160040160006101000a81548173ffffffffffffffffffffffffffffffffffffffff021916908373ffffffffffffffffffffffffffffffffffffffff16021790555090505060005b87600101805490508110156109c357846040516020016108c29190611e20565b604051602081830303815290604052805190602001208860010182815481106108ee576108ed6120bf565b5b906000526020600020016040516020016109089190612171565b60405160208183030381529060405280519060200120036109b657876001016001896001018054905061093b91906121b7565b8154811061094c5761094b6120bf565b5b9060005260206000200188600101828154811061096c5761096b6120bf565b5b9060005260206000200190816109829190612216565b5087600101805480610997576109966122fe565b5b6001900381819060005260206000200160006109b391906110e7565b90555b80806001019150506108a2565b5086600101849080600181540180825580915050600190039060005260206000200160009091909190915090816109fa9190611fed565b507f588744e77a27a501dbb29b4c0887bc3d9baeac962c9d12031b299889cd7e7eb360405160405180910390a150505050505050565b60008260000182604051610a449190611e20565b9081526020016040518091039020600201604051602001610a659190612171565b6040516020818303038152906040525111610ab5576040517f08c379a0000000000000000000000000000000000000000000000000000000008152600401610aac90612379565b60405180910390fd5b8160000181604051610ac79190611e20565b908152602001604051809103902060008082016000610ae691906110e7565b600182016000610af691906110e7565b600282016000610b0691906110e7565b600382016000610b1691906110e7565b6004820160006101000a81549073ffffffffffffffffffffffffffffffffffffffff0219169055505060005b8260010180549050811015610c635781604051602001610b629190611e20565b60405160208183030381529060405280519060200120836001018281548110610b8e57610b8d6120bf565b5b90600052602060002001604051602001610ba89190612171565b6040516020818303038152906040528051906020012003610c56578260010160018460010180549050610bdb91906121b7565b81548110610bec57610beb6120bf565b5b90600052602060002001836001018281548110610c0c57610c0b6120bf565b5b906000526020600020019081610c229190612216565b5082600101805480610c3757610c366122fe565b5b600190038181906000526020600020016000610c5391906110e7565b90555b8080600101915050610b42565b507f2cb62029f31e3c49468f31444e5229c1f9bc994db2905ec54efe95d4d92ce07f60405160405180910390a15050565b6000806040518060400160405280601c81526020017f19457468657265756d205369676e6564204d6573736167653a0a333200000000815250905060008187604051602001610ce4929190612401565b60405160208183030381529060405280519060200120905060018187878760405160008152602001604052604051610d1f9493929190612447565b6020604051602081039080840390855afa158015610d41573d6000803e3d6000fd5b5050506020604051035192505050949350505050565b60606000826001018054905067ffffffffffffffff811115610d7c57610d7b611214565b5b604051908082528060200260200182016040528015610db557816020015b610da2611127565b815260200190600190039081610d9a5790505b50905060005b83600101805490508110156110dd5783600001846001018281548110610de457610de36120bf565b5b90600052602060002001604051610dfb9190612171565b90815260200160405180910390206040518060a0016040529081600082018054610e2490611b92565b80601f0160208091040260200160405190810160405280929190818152602001828054610e5090611b92565b8015610e9d5780601f10610e7257610100808354040283529160200191610e9d565b820191906000526020600020905b815481529060010190602001808311610e8057829003601f168201915b50505050508152602001600182018054610eb690611b92565b80601f0160208091040260200160405190810160405280929190818152602001828054610ee290611b92565b8015610f2f5780601f10610f0457610100808354040283529160200191610f2f565b820191906000526020600020905b815481529060010190602001808311610f1257829003601f168201915b50505050508152602001600282018054610f4890611b92565b80601f0160208091040260200160405190810160405280929190818152602001828054610f7490611b92565b8015610fc15780601f10610f9657610100808354040283529160200191610fc1565b820191906000526020600020905b815481529060010190602001808311610fa457829003601f168201915b50505050508152602001600382018054610fda90611b92565b80601f016020809104026020016040519081016040528092919081815260200182805461100690611b92565b80156110535780601f1061102857610100808354040283529160200191611053565b820191906000526020600020905b81548152906001019060200180831161103657829003601f168201915b505050505081526020016004820160009054906101000a900473ffffffffffffffffffffffffffffffffffffffff1673ffffffffffffffffffffffffffffffffffffffff1673ffffffffffffffffffffffffffffffffffffffff16815250508282815181106110c5576110c46120bf565b5b60200260200101819052508080600101915050610dbb565b5080915050919050565b5080546110f390611b92565b6000825580601f106111055750611124565b601f016020900490600052602060002090810190611123919061116c565b5b50565b6040518060a0016040528060608152602001606081526020016060815260200160608152602001600073ffffffffffffffffffffffffffffffffffffffff1681525090565b5b8082111561118557600081600090555060010161116d565b5090565b600073ffffffffffffffffffffffffffffffffffffffff82169050919050565b60006111b482611189565b9050919050565b6111c4816111a9565b82525050565b60006020820190506111df60008301846111bb565b92915050565b6000604051905090565b600080fd5b600080fd5b600080fd5b600080fd5b6000601f19601f8301169050919050565b7f4e487b7100000000000000000000000000000000000000000000000000000000600052604160045260246000fd5b61124c82611203565b810181811067ffffffffffffffff8211171561126b5761126a611214565b5b80604052505050565b600061127e6111e5565b905061128a8282611243565b919050565b600067ffffffffffffffff8211156112aa576112a9611214565b5b6112b382611203565b9050602081019050919050565b82818337600083830152505050565b60006112e26112dd8461128f565b611274565b9050828152602081018484840111156112fe576112fd6111fe565b5b6113098482856112c0565b509392505050565b600082601f830112611326576113256111f9565b5b81356113368482602086016112cf565b91505092915050565b611348816111a9565b811461135357600080fd5b50565b6000813590506113658161133f565b92915050565b600080600080600060a08688031215611387576113866111ef565b5b600086013567ffffffffffffffff8111156113a5576113a46111f4565b5b6113b188828901611311565b955050602086013567ffffffffffffffff8111156113d2576113d16111f4565b5b6113de88828901611311565b945050604086013567ffffffffffffffff8111156113ff576113fe6111f4565b5b61140b88828901611311565b935050606086013567ffffffffffffffff81111561142c5761142b6111f4565b5b61143888828901611311565b925050608061144988828901611356565b9150509295509295909350565b600081519050919050565b600082825260208201905092915050565b60005b83811015611490578082015181840152602081019050611475565b60008484015250505050565b60006114a782611456565b6114b18185611461565b93506114c1818560208601611472565b6114ca81611203565b840191505092915050565b600060208201905081810360008301526114ef818461149c565b905092915050565b60006020828403121561150d5761150c6111ef565b5b600082013567ffffffffffffffff81111561152b5761152a6111f4565b5b61153784828501611311565b91505092915050565b6000806000806080858703121561155a576115596111ef565b5b600085013567ffffffffffffffff811115611578576115776111f4565b5b61158487828801611311565b945050602085013567ffffffffffffffff8111156115a5576115a46111f4565b5b6115b187828801611311565b935050604085013567ffffffffffffffff8111156115d2576115d16111f4565b5b6115de87828801611311565b925050606085013567ffffffffffffffff8111156115ff576115fe6111f4565b5b61160b87828801611311565b91505092959194509250565b6000819050919050565b61162a81611617565b811461163557600080fd5b50565b60008135905061164781611621565b92915050565b600060ff82169050919050565b6116638161164d565b811461166e57600080fd5b50565b6000813590506116808161165a565b92915050565b600067ffffffffffffffff8211156116a1576116a0611214565b5b602082029050602081019050919050565b600080fd5b600080fd5b600080fd5b600060a082840312156116d7576116d66116b7565b5b6116e160a0611274565b9050600082013567ffffffffffffffff811115611701576117006116bc565b5b61170d84828501611311565b600083015250602082013567ffffffffffffffff811115611731576117306116bc565b5b61173d84828501611311565b602083015250604082013567ffffffffffffffff811115611761576117606116bc565b5b61176d84828501611311565b604083015250606082013567ffffffffffffffff811115611791576117906116bc565b5b61179d84828501611311565b60608301525060806117b184828501611356565b60808301525092915050565b60006117d06117cb84611686565b611274565b905080838252602082019050602084028301858111156117f3576117f26116b2565b5b835b8181101561183a57803567ffffffffffffffff811115611818576118176111f9565b5b80860161182589826116c1565b855260208501945050506020810190506117f5565b5050509392505050565b600082601f830112611859576118586111f9565b5b81356118698482602086016117bd565b91505092915050565b600080600080600060a0868803121561188e5761188d6111ef565b5b600061189c88828901611638565b95505060206118ad88828901611671565b94505060406118be88828901611638565b93505060606118cf88828901611638565b925050608086013567ffffffffffffffff8111156118f0576118ef6111f4565b5b6118fc88828901611844565b9150509295509295909350565b600081519050919050565b600082825260208201905092915050565b6000819050602082019050919050565b600082825260208201905092915050565b600061195182611456565b61195b8185611935565b935061196b818560208601611472565b61197481611203565b840191505092915050565b611988816111a9565b82525050565b600060a08301600083015184820360008601526119ab8282611946565b915050602083015184820360208601526119c58282611946565b915050604083015184820360408601526119df8282611946565b915050606083015184820360608601526119f98282611946565b9150506080830151611a0e608086018261197f565b508091505092915050565b6000611a25838361198e565b905092915050565b6000602082019050919050565b6000611a4582611909565b611a4f8185611914565b935083602082028501611a6185611925565b8060005b85811015611a9d5784840389528151611a7e8582611a19565b9450611a8983611a2d565b925060208a01995050600181019050611a65565b50829750879550505050505092915050565b60006020820190508181036000830152611ac98184611a3a565b905092915050565b7f4f776e61626c65236f6e6c794f776e65724f7243726561746f723a2053454e4460008201527f45525f49535f4e4f545f4f574e45525f4f525f43524541544f52000000000000602082015250565b6000611b2d603a83611461565b9150611b3882611ad1565b604082019050919050565b60006020820190508181036000830152611b5c81611b20565b9050919050565b7f4e487b7100000000000000000000000000000000000000000000000000000000600052602260045260246000fd5b60006002820490506001821680611baa57607f821691505b602082108103611bbd57611bbc611b63565b5b50919050565b7f6e61757468000000000000000000000000000000000000000000000000000000600082015250565b6000611bf9600583611461565b9150611c0482611bc3565b602082019050919050565b60006020820190508181036000830152611c2881611bec565b9050919050565b8082525050565b600082825260208201905092915050565b600082825260208201905092915050565b6000611c6382611456565b611c6d8185611c47565b9350611c7d818560208601611472565b611c8681611203565b840191505092915050565b611c9a816111a9565b82525050565b600060a0830160008301518482036000860152611cbd8282611c58565b91505060208301518482036020860152611cd78282611c58565b91505060408301518482036040860152611cf18282611c58565b91505060608301518482036060860152611d0b8282611c58565b9150506080830151611d206080860182611c91565b508091505092915050565b6000611d378383611ca0565b905092915050565b6000611d4a82611909565b611d548185611c36565b935083602082028501611d6685611925565b8060005b85811015611da25784840389528151611d838582611d2b565b9450611d8e83611a2d565b925060208a01995050600181019050611d6a565b50829750879550505050505092915050565b6000604082019050611dc96000830185611c2f565b8181036020830152611ddb8184611d3f565b90509392505050565b600081905092915050565b6000611dfa82611456565b611e048185611de4565b9350611e14818560208601611472565b80840191505092915050565b6000611e2c8284611def565b915081905092915050565b60008190508160005260206000209050919050565b60006020601f8301049050919050565b600082821b905092915050565b600060088302611e997fffffffffffffffffffffffffffffffffffffffffffffffffffffffffffffffff82611e5c565b611ea38683611e5c565b95508019841693508086168417925050509392505050565b6000819050919050565b6000819050919050565b6000611eea611ee5611ee084611ebb565b611ec5565b611ebb565b9050919050565b6000819050919050565b611f0483611ecf565b611f18611f1082611ef1565b848454611e69565b825550505050565b600090565b611f2d611f20565b611f38818484611efb565b505050565b5b81811015611f5c57611f51600082611f25565b600181019050611f3e565b5050565b601f821115611fa157611f7281611e37565b611f7b84611e4c565b81016020851015611f8a578190505b611f9e611f9685611e4c565b830182611f3d565b50505b505050565b600082821c905092915050565b6000611fc460001984600802611fa6565b1980831691505092915050565b6000611fdd8383611fb3565b9150826002028217905092915050565b611ff682611456565b67ffffffffffffffff81111561200f5761200e611214565b5b6120198254611b92565b612024828285611f60565b600060209050601f8311600181146120575760008415612045578287015190505b61204f8582611fd1565b8655506120b7565b601f19841661206586611e37565b60005b8281101561208d57848901518255600182019150602085019450602081019050612068565b868310156120aa57848901516120a6601f891682611fb3565b8355505b6001600288020188555050505b505050505050565b7f4e487b7100000000000000000000000000000000000000000000000000000000600052603260045260246000fd5b600081546120fb81611b92565b6121058186611de4565b94506001821660008114612120576001811461213557612168565b60ff1983168652811515820286019350612168565b61213e85611e37565b60005b8381101561216057815481890152600182019150602081019050612141565b838801955050505b50505092915050565b600061217d82846120ee565b915081905092915050565b7f4e487b7100000000000000000000000000000000000000000000000000000000600052601160045260246000fd5b60006121c282611ebb565b91506121cd83611ebb565b92508282039050818111156121e5576121e4612188565b5b92915050565b6000815490506121fa81611b92565b9050919050565b60008190508160005260206000209050919050565b8181036122245750506122fc565b61222d826121eb565b67ffffffffffffffff81111561224657612245611214565b5b6122508254611b92565b61225b828285611f60565b6000601f83116001811461228a5760008415612278578287015490505b6122828582611fd1565b8655506122f5565b601f19841661229887612201565b96506122a386611e37565b60005b828110156122cb578489015482556001820191506001850194506020810190506122a6565b868310156122e857848901546122e4601f891682611fb3565b8355505b6001600288020188555050505b5050505050505b565b7f4e487b7100000000000000000000000000000000000000000000000000000000600052603160045260246000fd5b7f494f420000000000000000000000000000000000000000000000000000000000600082015250565b6000612363600383611461565b915061236e8261232d565b602082019050919050565b6000602082019050818103600083015261239281612356565b9050919050565b600081519050919050565b600081905092915050565b60006123ba82612399565b6123c481856123a4565b93506123d4818560208601611472565b80840191505092915050565b6000819050919050565b6123fb6123f682611617565b6123e0565b82525050565b600061240d82856123af565b915061241982846123ea565b6020820191508190509392505050565b61243281611617565b82525050565b6124418161164d565b82525050565b600060808201905061245c6000830187612429565b6124696020830186612438565b6124766040830185612429565b6124836060830184612429565b9594505050505056fea264697066735822122015bc3160bf952cefeb7436c3ca0e5c51a192cc60ea28400562b3d52f397e81e364736f6c63430008180033","opcodes":"PUSH1 0x80 PUSH1 0x40 MSTORE CALLVALUE DUP1 ISZERO PUSH3 0x11 JUMPI PUSH1 0x0 DUP1 REVERT JUMPDEST POP PUSH1 0x40 MLOAD PUSH3 0x2BA9 CODESIZE SUB DUP1 PUSH3 0x2BA9 DUP4 CODECOPY DUP2 DUP2 ADD PUSH1 0x40 MSTORE DUP2 ADD SWAP1 PUSH3 0x37 SWAP2 SWAP1 PUSH3 0x32A JUMP JUMPDEST DUP3 DUP3 DUP1 PUSH1 0x0 DUP1 PUSH2 0x100 EXP DUP2 SLOAD DUP2 PUSH20 0xFFFFFFFFFFFFFFFFFFFFFFFFFFFFFFFFFFFFFFFF MUL NOT AND SWAP1 DUP4 PUSH20 0xFFFFFFFFFFFFFFFFFFFFFFFFFFFFFFFFFFFFFFFF AND MUL OR SWAP1 SSTORE POP DUP2 PUSH1 0x1 PUSH1 0x0 PUSH2 0x100 EXP DUP2 SLOAD DUP2 PUSH20 0xFFFFFFFFFFFFFFFFFFFFFFFFFFFFFFFFFFFFFFFF MUL NOT AND SWAP1 DUP4 PUSH20 0xFFFFFFFFFFFFFFFFFFFFFFFFFFFFFFFFFFFFFFFF AND MUL OR SWAP1 SSTORE POP DUP1 PUSH20 0xFFFFFFFFFFFFFFFFFFFFFFFFFFFFFFFFFFFFFFFF AND PUSH1 0x0 PUSH20 0xFFFFFFFFFFFFFFFFFFFFFFFFFFFFFFFFFFFFFFFF AND PUSH32 0x8BE0079C531659141344CD1FD0A4F28419497F9722A3DAAFE3B4186F6B6457E0 PUSH1 0x40 MLOAD PUSH1 0x40 MLOAD DUP1 SWAP2 SUB SWAP1 LOG3 POP POP DUP1 PUSH1 0x2 SWAP1 DUP2 PUSH3 0x128 SWAP2 SWAP1 PUSH3 0x5F0 JUMP JUMPDEST POP POP POP POP PUSH3 0x6D7 JUMP JUMPDEST PUSH1 0x0 PUSH1 0x40 MLOAD SWAP1 POP SWAP1 JUMP JUMPDEST PUSH1 0x0 DUP1 REVERT JUMPDEST PUSH1 0x0 DUP1 REVERT JUMPDEST PUSH1 0x0 PUSH20 0xFFFFFFFFFFFFFFFFFFFFFFFFFFFFFFFFFFFFFFFF DUP3 AND SWAP1 POP SWAP2 SWAP1 POP JUMP JUMPDEST PUSH1 0x0 PUSH3 0x173 DUP3 PUSH3 0x146 JUMP JUMPDEST SWAP1 POP SWAP2 SWAP1 POP JUMP JUMPDEST PUSH3 0x185 DUP2 PUSH3 0x166 JUMP JUMPDEST DUP2 EQ PUSH3 0x191 JUMPI PUSH1 0x0 DUP1 REVERT JUMPDEST POP JUMP JUMPDEST PUSH1 0x0 DUP2 MLOAD SWAP1 POP PUSH3 0x1A5 DUP2 PUSH3 0x17A JUMP JUMPDEST SWAP3 SWAP2 POP POP JUMP JUMPDEST PUSH1 0x0 DUP1 REVERT JUMPDEST PUSH1 0x0 DUP1 REVERT JUMPDEST PUSH1 0x0 PUSH1 0x1F NOT PUSH1 0x1F DUP4 ADD AND SWAP1 POP SWAP2 SWAP1 POP JUMP JUMPDEST PUSH32 0x4E487B7100000000000000000000000000000000000000000000000000000000 PUSH1 0x0 MSTORE PUSH1 0x41 PUSH1 0x4 MSTORE PUSH1 0x24 PUSH1 0x0 REVERT JUMPDEST PUSH3 0x200 DUP3 PUSH3 0x1B5 JUMP JUMPDEST DUP2 ADD DUP2 DUP2 LT PUSH8 0xFFFFFFFFFFFFFFFF DUP3 GT OR ISZERO PUSH3 0x222 JUMPI PUSH3 0x221 PUSH3 0x1C6 JUMP JUMPDEST JUMPDEST DUP1 PUSH1 0x40 MSTORE POP POP POP JUMP JUMPDEST PUSH1 0x0 PUSH3 0x237 PUSH3 0x132 JUMP JUMPDEST SWAP1 POP PUSH3 0x245 DUP3 DUP3 PUSH3 0x1F5 JUMP JUMPDEST SWAP2 SWAP1 POP JUMP JUMPDEST PUSH1 0x0 PUSH8 0xFFFFFFFFFFFFFFFF DUP3 GT ISZERO PUSH3 0x268 JUMPI PUSH3 0x267 PUSH3 0x1C6 JUMP JUMPDEST JUMPDEST PUSH3 0x273 DUP3 PUSH3 0x1B5 JUMP JUMPDEST SWAP1 POP PUSH1 0x20 DUP2 ADD SWAP1 POP SWAP2 SWAP1 POP JUMP JUMPDEST PUSH1 0x0 JUMPDEST DUP4 DUP2 LT ISZERO PUSH3 0x2A0 JUMPI DUP1 DUP3 ADD MLOAD DUP2 DUP5 ADD MSTORE PUSH1 0x20 DUP2 ADD SWAP1 POP PUSH3 0x283 JUMP JUMPDEST PUSH1 0x0 DUP5 DUP5 ADD MSTORE POP POP POP POP JUMP JUMPDEST PUSH1 0x0 PUSH3 0x2C3 PUSH3 0x2BD DUP5 PUSH3 0x24A JUMP JUMPDEST PUSH3 0x22B JUMP JUMPDEST SWAP1 POP DUP3 DUP2 MSTORE PUSH1 0x20 DUP2 ADD DUP5 DUP5 DUP5 ADD GT ISZERO PUSH3 0x2E2 JUMPI PUSH3 0x2E1 PUSH3 0x1B0 JUMP JUMPDEST JUMPDEST PUSH3 0x2EF DUP5 DUP3 DUP6 PUSH3 0x280 JUMP JUMPDEST POP SWAP4 SWAP3 POP POP POP JUMP JUMPDEST PUSH1 0x0 DUP3 PUSH1 0x1F DUP4 ADD SLT PUSH3 0x30F JUMPI PUSH3 0x30E PUSH3 0x1AB JUMP JUMPDEST JUMPDEST DUP2 MLOAD PUSH3 0x321 DUP5 DUP3 PUSH1 0x20 DUP7 ADD PUSH3 0x2AC JUMP JUMPDEST SWAP2 POP POP SWAP3 SWAP2 POP POP JUMP JUMPDEST PUSH1 0x0 DUP1 PUSH1 0x0 PUSH1 0x60 DUP5 DUP7 SUB SLT ISZERO PUSH3 0x346 JUMPI PUSH3 0x345 PUSH3 0x13C JUMP JUMPDEST JUMPDEST PUSH1 0x0 PUSH3 0x356 DUP7 DUP3 DUP8 ADD PUSH3 0x194 JUMP JUMPDEST SWAP4 POP POP PUSH1 0x20 PUSH3 0x369 DUP7 DUP3 DUP8 ADD PUSH3 0x194 JUMP JUMPDEST SWAP3 POP POP PUSH1 0x40 DUP5 ADD MLOAD PUSH8 0xFFFFFFFFFFFFFFFF DUP2 GT ISZERO PUSH3 0x38D JUMPI PUSH3 0x38C PUSH3 0x141 JUMP JUMPDEST JUMPDEST PUSH3 0x39B DUP7 DUP3 DUP8 ADD PUSH3 0x2F7 JUMP JUMPDEST SWAP2 POP POP SWAP3 POP SWAP3 POP SWAP3 JUMP JUMPDEST PUSH1 0x0 DUP2 MLOAD SWAP1 POP SWAP2 SWAP1 POP JUMP JUMPDEST PUSH32 0x4E487B7100000000000000000000000000000000000000000000000000000000 PUSH1 0x0 MSTORE PUSH1 0x22 PUSH1 0x4 MSTORE PUSH1 0x24 PUSH1 0x0 REVERT JUMPDEST PUSH1 0x0 PUSH1 0x2 DUP3 DIV SWAP1 POP PUSH1 0x1 DUP3 AND DUP1 PUSH3 0x3F8 JUMPI PUSH1 0x7F DUP3 AND SWAP2 POP JUMPDEST PUSH1 0x20 DUP3 LT DUP2 SUB PUSH3 0x40E JUMPI PUSH3 0x40D PUSH3 0x3B0 JUMP JUMPDEST JUMPDEST POP SWAP2 SWAP1 POP JUMP JUMPDEST PUSH1 0x0 DUP2 SWAP1 POP DUP2 PUSH1 0x0 MSTORE PUSH1 0x20 PUSH1 0x0 KECCAK256 SWAP1 POP SWAP2 SWAP1 POP JUMP JUMPDEST PUSH1 0x0 PUSH1 0x20 PUSH1 0x1F DUP4 ADD DIV SWAP1 POP SWAP2 SWAP1 POP JUMP JUMPDEST PUSH1 0x0 DUP3 DUP3 SHL SWAP1 POP SWAP3 SWAP2 POP POP JUMP JUMPDEST PUSH1 0x0 PUSH1 0x8 DUP4 MUL PUSH3 0x478 PUSH32 0xFFFFFFFFFFFFFFFFFFFFFFFFFFFFFFFFFFFFFFFFFFFFFFFFFFFFFFFFFFFFFFFF DUP3 PUSH3 0x439 JUMP JUMPDEST PUSH3 0x484 DUP7 DUP4 PUSH3 0x439 JUMP JUMPDEST SWAP6 POP DUP1 NOT DUP5 AND SWAP4 POP DUP1 DUP7 AND DUP5 OR SWAP3 POP POP POP SWAP4 SWAP3 POP POP POP JUMP JUMPDEST PUSH1 0x0 DUP2 SWAP1 POP SWAP2 SWAP1 POP JUMP JUMPDEST PUSH1 0x0 DUP2 SWAP1 POP SWAP2 SWAP1 POP JUMP JUMPDEST PUSH1 0x0 PUSH3 0x4D1 PUSH3 0x4CB PUSH3 0x4C5 DUP5 PUSH3 0x49C JUMP JUMPDEST PUSH3 0x4A6 JUMP JUMPDEST PUSH3 0x49C JUMP JUMPDEST SWAP1 POP SWAP2 SWAP1 POP JUMP JUMPDEST PUSH1 0x0 DUP2 SWAP1 POP SWAP2 SWAP1 POP JUMP JUMPDEST PUSH3 0x4ED DUP4 PUSH3 0x4B0 JUMP JUMPDEST PUSH3 0x505 PUSH3 0x4FC DUP3 PUSH3 0x4D8 JUMP JUMPDEST DUP5 DUP5 SLOAD PUSH3 0x446 JUMP JUMPDEST DUP3 SSTORE POP POP POP POP JUMP JUMPDEST PUSH1 0x0 SWAP1 JUMP JUMPDEST PUSH3 0x51C PUSH3 0x50D JUMP JUMPDEST PUSH3 0x529 DUP2 DUP5 DUP5 PUSH3 0x4E2 JUMP JUMPDEST POP POP POP JUMP JUMPDEST JUMPDEST DUP2 DUP2 LT ISZERO PUSH3 0x551 JUMPI PUSH3 0x545 PUSH1 0x0 DUP3 PUSH3 0x512 JUMP JUMPDEST PUSH1 0x1 DUP2 ADD SWAP1 POP PUSH3 0x52F JUMP JUMPDEST POP POP JUMP JUMPDEST PUSH1 0x1F DUP3 GT ISZERO PUSH3 0x5A0 JUMPI PUSH3 0x56A DUP2 PUSH3 0x414 JUMP JUMPDEST PUSH3 0x575 DUP5 PUSH3 0x429 JUMP JUMPDEST DUP2 ADD PUSH1 0x20 DUP6 LT ISZERO PUSH3 0x585 JUMPI DUP2 SWAP1 POP JUMPDEST PUSH3 0x59D PUSH3 0x594 DUP6 PUSH3 0x429 JUMP JUMPDEST DUP4 ADD DUP3 PUSH3 0x52E JUMP JUMPDEST POP POP JUMPDEST POP POP POP JUMP JUMPDEST PUSH1 0x0 DUP3 DUP3 SHR SWAP1 POP SWAP3 SWAP2 POP POP JUMP JUMPDEST PUSH1 0x0 PUSH3 0x5C5 PUSH1 0x0 NOT DUP5 PUSH1 0x8 MUL PUSH3 0x5A5 JUMP JUMPDEST NOT DUP1 DUP4 AND SWAP2 POP POP SWAP3 SWAP2 POP POP JUMP JUMPDEST PUSH1 0x0 PUSH3 0x5E0 DUP4 DUP4 PUSH3 0x5B2 JUMP JUMPDEST SWAP2 POP DUP3 PUSH1 0x2 MUL DUP3 OR SWAP1 POP SWAP3 SWAP2 POP POP JUMP JUMPDEST PUSH3 0x5FB DUP3 PUSH3 0x3A5 JUMP JUMPDEST PUSH8 0xFFFFFFFFFFFFFFFF DUP2 GT ISZERO PUSH3 0x617 JUMPI PUSH3 0x616 PUSH3 0x1C6 JUMP JUMPDEST JUMPDEST PUSH3 0x623 DUP3 SLOAD PUSH3 0x3DF JUMP JUMPDEST PUSH3 0x630 DUP3 DUP3 DUP6 PUSH3 0x555 JUMP JUMPDEST PUSH1 0x0 PUSH1 0x20 SWAP1 POP PUSH1 0x1F DUP4 GT PUSH1 0x1 DUP2 EQ PUSH3 0x668 JUMPI PUSH1 0x0 DUP5 ISZERO PUSH3 0x653 JUMPI DUP3 DUP8 ADD MLOAD SWAP1 POP JUMPDEST PUSH3 0x65F DUP6 DUP3 PUSH3 0x5D2 JUMP JUMPDEST DUP7 SSTORE POP PUSH3 0x6CF JUMP JUMPDEST PUSH1 0x1F NOT DUP5 AND PUSH3 0x678 DUP7 PUSH3 0x414 JUMP JUMPDEST PUSH1 0x0 JUMPDEST DUP3 DUP2 LT ISZERO PUSH3 0x6A2 JUMPI DUP5 DUP10 ADD MLOAD DUP3 SSTORE PUSH1 0x1 DUP3 ADD SWAP2 POP PUSH1 0x20 DUP6 ADD SWAP5 POP PUSH1 0x20 DUP2 ADD SWAP1 POP PUSH3 0x67B JUMP JUMPDEST DUP7 DUP4 LT ISZERO PUSH3 0x6C2 JUMPI DUP5 DUP10 ADD MLOAD PUSH3 0x6BE PUSH1 0x1F DUP10 AND DUP3 PUSH3 0x5B2 JUMP JUMPDEST DUP4 SSTORE POP JUMPDEST PUSH1 0x1 PUSH1 0x2 DUP9 MUL ADD DUP9 SSTORE POP POP POP JUMPDEST POP POP POP POP POP POP JUMP JUMPDEST PUSH2 0x24C2 DUP1 PUSH3 0x6E7 PUSH1 0x0 CODECOPY PUSH1 0x0 RETURN INVALID PUSH1 0x80 PUSH1 0x40 MSTORE CALLVALUE DUP1 ISZERO PUSH2 0x10 JUMPI PUSH1 0x0 DUP1 REVERT JUMPDEST POP PUSH1 0x4 CALLDATASIZE LT PUSH2 0x93 JUMPI PUSH1 0x0 CALLDATALOAD PUSH1 0xE0 SHR DUP1 PUSH4 0x893D20E8 GT PUSH2 0x66 JUMPI DUP1 PUSH4 0x893D20E8 EQ PUSH2 0x10E JUMPI DUP1 PUSH4 0xA9910054 EQ PUSH2 0x12C JUMPI DUP1 PUSH4 0xD590E7EF EQ PUSH2 0x148 JUMPI DUP1 PUSH4 0xEBD2251B EQ PUSH2 0x164 JUMPI DUP1 PUSH4 0xFF24B5D5 EQ PUSH2 0x180 JUMPI PUSH2 0x93 JUMP JUMPDEST DUP1 PUSH4 0xEE2CB10 EQ PUSH2 0x98 JUMPI DUP1 PUSH4 0x384E477D EQ PUSH2 0xB6 JUMPI DUP1 PUSH4 0x4F8632BA EQ PUSH2 0xD2 JUMPI DUP1 PUSH4 0x832880E7 EQ PUSH2 0xF0 JUMPI JUMPDEST PUSH1 0x0 DUP1 REVERT JUMPDEST PUSH2 0xA0 PUSH2 0x19E JUMP JUMPDEST PUSH1 0x40 MLOAD PUSH2 0xAD SWAP2 SWAP1 PUSH2 0x11CA JUMP JUMPDEST PUSH1 0x40 MLOAD DUP1 SWAP2 SUB SWAP1 RETURN JUMPDEST PUSH2 0xD0 PUSH1 0x4 DUP1 CALLDATASIZE SUB DUP2 ADD SWAP1 PUSH2 0xCB SWAP2 SWAP1 PUSH2 0x136B JUMP JUMPDEST PUSH2 0x1C8 JUMP JUMPDEST STOP JUMPDEST PUSH2 0xDA PUSH2 0x2D1 JUMP JUMPDEST PUSH1 0x40 MLOAD PUSH2 0xE7 SWAP2 SWAP1 PUSH2 0x14D5 JUMP JUMPDEST PUSH1 0x40 MLOAD DUP1 SWAP2 SUB SWAP1 RETURN JUMPDEST PUSH2 0xF8 PUSH2 0x35F JUMP JUMPDEST PUSH1 0x40 MLOAD PUSH2 0x105 SWAP2 SWAP1 PUSH2 0x14D5 JUMP JUMPDEST PUSH1 0x40 MLOAD DUP1 SWAP2 SUB SWAP1 RETURN JUMPDEST PUSH2 0x116 PUSH2 0x3F1 JUMP JUMPDEST PUSH1 0x40 MLOAD PUSH2 0x123 SWAP2 SWAP1 PUSH2 0x11CA JUMP JUMPDEST PUSH1 0x40 MLOAD DUP1 SWAP2 SUB SWAP1 RETURN JUMPDEST PUSH2 0x146 PUSH1 0x4 DUP1 CALLDATASIZE SUB DUP2 ADD SWAP1 PUSH2 0x141 SWAP2 SWAP1 PUSH2 0x14F7 JUMP JUMPDEST PUSH2 0x41A JUMP JUMPDEST STOP JUMPDEST PUSH2 0x162 PUSH1 0x4 DUP1 CALLDATASIZE SUB DUP2 ADD SWAP1 PUSH2 0x15D SWAP2 SWAP1 PUSH2 0x1540 JUMP JUMPDEST PUSH2 0x517 JUMP JUMPDEST STOP JUMPDEST PUSH2 0x17E PUSH1 0x4 DUP1 CALLDATASIZE SUB DUP2 ADD SWAP1 PUSH2 0x179 SWAP2 SWAP1 PUSH2 0x1872 JUMP JUMPDEST PUSH2 0x620 JUMP JUMPDEST STOP JUMPDEST PUSH2 0x188 PUSH2 0x78A JUMP JUMPDEST PUSH1 0x40 MLOAD PUSH2 0x195 SWAP2 SWAP1 PUSH2 0x1AAF JUMP JUMPDEST PUSH1 0x40 MLOAD DUP1 SWAP2 SUB SWAP1 RETURN JUMPDEST PUSH1 0x0 PUSH1 0x1 PUSH1 0x0 SWAP1 SLOAD SWAP1 PUSH2 0x100 EXP SWAP1 DIV PUSH20 0xFFFFFFFFFFFFFFFFFFFFFFFFFFFFFFFFFFFFFFFF AND SWAP1 POP SWAP1 JUMP JUMPDEST PUSH1 0x0 DUP1 SLOAD SWAP1 PUSH2 0x100 EXP SWAP1 DIV PUSH20 0xFFFFFFFFFFFFFFFFFFFFFFFFFFFFFFFFFFFFFFFF AND PUSH20 0xFFFFFFFFFFFFFFFFFFFFFFFFFFFFFFFFFFFFFFFF AND CALLER PUSH20 0xFFFFFFFFFFFFFFFFFFFFFFFFFFFFFFFFFFFFFFFF AND EQ DUP1 PUSH2 0x26F JUMPI POP PUSH1 0x1 PUSH1 0x0 SWAP1 SLOAD SWAP1 PUSH2 0x100 EXP SWAP1 DIV PUSH20 0xFFFFFFFFFFFFFFFFFFFFFFFFFFFFFFFFFFFFFFFF AND PUSH20 0xFFFFFFFFFFFFFFFFFFFFFFFFFFFFFFFFFFFFFFFF AND CALLER PUSH20 0xFFFFFFFFFFFFFFFFFFFFFFFFFFFFFFFFFFFFFFFF AND EQ JUMPDEST PUSH2 0x2AE JUMPI PUSH1 0x40 MLOAD PUSH32 0x8C379A000000000000000000000000000000000000000000000000000000000 DUP2 MSTORE PUSH1 0x4 ADD PUSH2 0x2A5 SWAP1 PUSH2 0x1B43 JUMP JUMPDEST PUSH1 0x40 MLOAD DUP1 SWAP2 SUB SWAP1 REVERT JUMPDEST PUSH2 0x2CA DUP6 DUP6 DUP6 DUP6 DUP6 PUSH1 0x3 PUSH2 0x79B SWAP1 SWAP6 SWAP5 SWAP4 SWAP3 SWAP2 SWAP1 PUSH4 0xFFFFFFFF AND JUMP JUMPDEST POP POP POP POP POP JUMP JUMPDEST PUSH1 0x2 DUP1 SLOAD PUSH2 0x2DE SWAP1 PUSH2 0x1B92 JUMP JUMPDEST DUP1 PUSH1 0x1F ADD PUSH1 0x20 DUP1 SWAP2 DIV MUL PUSH1 0x20 ADD PUSH1 0x40 MLOAD SWAP1 DUP2 ADD PUSH1 0x40 MSTORE DUP1 SWAP3 SWAP2 SWAP1 DUP2 DUP2 MSTORE PUSH1 0x20 ADD DUP3 DUP1 SLOAD PUSH2 0x30A SWAP1 PUSH2 0x1B92 JUMP JUMPDEST DUP1 ISZERO PUSH2 0x357 JUMPI DUP1 PUSH1 0x1F LT PUSH2 0x32C JUMPI PUSH2 0x100 DUP1 DUP4 SLOAD DIV MUL DUP4 MSTORE SWAP2 PUSH1 0x20 ADD SWAP2 PUSH2 0x357 JUMP JUMPDEST DUP3 ADD SWAP2 SWAP1 PUSH1 0x0 MSTORE PUSH1 0x20 PUSH1 0x0 KECCAK256 SWAP1 JUMPDEST DUP2 SLOAD DUP2 MSTORE SWAP1 PUSH1 0x1 ADD SWAP1 PUSH1 0x20 ADD DUP1 DUP4 GT PUSH2 0x33A JUMPI DUP3 SWAP1 SUB PUSH1 0x1F AND DUP3 ADD SWAP2 JUMPDEST POP POP POP POP POP DUP2 JUMP JUMPDEST PUSH1 0x60 PUSH1 0x2 DUP1 SLOAD PUSH2 0x36E SWAP1 PUSH2 0x1B92 JUMP JUMPDEST DUP1 PUSH1 0x1F ADD PUSH1 0x20 DUP1 SWAP2 DIV MUL PUSH1 0x20 ADD PUSH1 0x40 MLOAD SWAP1 DUP2 ADD PUSH1 0x40 MSTORE DUP1 SWAP3 SWAP2 SWAP1 DUP2 DUP2 MSTORE PUSH1 0x20 ADD DUP3 DUP1 SLOAD PUSH2 0x39A SWAP1 PUSH2 0x1B92 JUMP JUMPDEST DUP1 ISZERO PUSH2 0x3E7 JUMPI DUP1 PUSH1 0x1F LT PUSH2 0x3BC JUMPI PUSH2 0x100 DUP1 DUP4 SLOAD DIV MUL DUP4 MSTORE SWAP2 PUSH1 0x20 ADD SWAP2 PUSH2 0x3E7 JUMP JUMPDEST DUP3 ADD SWAP2 SWAP1 PUSH1 0x0 MSTORE PUSH1 0x20 PUSH1 0x0 KECCAK256 SWAP1 JUMPDEST DUP2 SLOAD DUP2 MSTORE SWAP1 PUSH1 0x1 ADD SWAP1 PUSH1 0x20 ADD DUP1 DUP4 GT PUSH2 0x3CA JUMPI DUP3 SWAP1 SUB PUSH1 0x1F AND DUP3 ADD SWAP2 JUMPDEST POP POP POP POP POP SWAP1 POP SWAP1 JUMP JUMPDEST PUSH1 0x0 DUP1 PUSH1 0x0 SWAP1 SLOAD SWAP1 PUSH2 0x100 EXP SWAP1 DIV PUSH20 0xFFFFFFFFFFFFFFFFFFFFFFFFFFFFFFFFFFFFFFFF AND SWAP1 POP SWAP1 JUMP JUMPDEST PUSH1 0x0 DUP1 SLOAD SWAP1 PUSH2 0x100 EXP SWAP1 DIV PUSH20 0xFFFFFFFFFFFFFFFFFFFFFFFFFFFFFFFFFFFFFFFF AND PUSH20 0xFFFFFFFFFFFFFFFFFFFFFFFFFFFFFFFFFFFFFFFF AND CALLER PUSH20 0xFFFFFFFFFFFFFFFFFFFFFFFFFFFFFFFFFFFFFFFF AND EQ DUP1 PUSH2 0x4C1 JUMPI POP PUSH1 0x1 PUSH1 0x0 SWAP1 SLOAD SWAP1 PUSH2 0x100 EXP SWAP1 DIV PUSH20 0xFFFFFFFFFFFFFFFFFFFFFFFFFFFFFFFFFFFFFFFF AND PUSH20 0xFFFFFFFFFFFFFFFFFFFFFFFFFFFFFFFFFFFFFFFF AND CALLER PUSH20 0xFFFFFFFFFFFFFFFFFFFFFFFFFFFFFFFFFFFFFFFF AND EQ JUMPDEST PUSH2 0x500 JUMPI PUSH1 0x40 MLOAD PUSH32 0x8C379A000000000000000000000000000000000000000000000000000000000 DUP2 MSTORE PUSH1 0x4 ADD PUSH2 0x4F7 SWAP1 PUSH2 0x1B43 JUMP JUMPDEST PUSH1 0x40 MLOAD DUP1 SWAP2 SUB SWAP1 REVERT JUMPDEST PUSH2 0x514 DUP2 PUSH1 0x3 PUSH2 0xA30 SWAP1 SWAP2 SWAP1 PUSH4 0xFFFFFFFF AND JUMP JUMPDEST POP JUMP JUMPDEST PUSH1 0x0 DUP1 SLOAD SWAP1 PUSH2 0x100 EXP SWAP1 DIV PUSH20 0xFFFFFFFFFFFFFFFFFFFFFFFFFFFFFFFFFFFFFFFF AND PUSH20 0xFFFFFFFFFFFFFFFFFFFFFFFFFFFFFFFFFFFFFFFF AND CALLER PUSH20 0xFFFFFFFFFFFFFFFFFFFFFFFFFFFFFFFFFFFFFFFF AND EQ DUP1 PUSH2 0x5BE JUMPI POP PUSH1 0x1 PUSH1 0x0 SWAP1 SLOAD SWAP1 PUSH2 0x100 EXP SWAP1 DIV PUSH20 0xFFFFFFFFFFFFFFFFFFFFFFFFFFFFFFFFFFFFFFFF AND PUSH20 0xFFFFFFFFFFFFFFFFFFFFFFFFFFFFFFFFFFFFFFFF AND CALLER PUSH20 0xFFFFFFFFFFFFFFFFFFFFFFFFFFFFFFFFFFFFFFFF AND EQ JUMPDEST PUSH2 0x5FD JUMPI PUSH1 0x40 MLOAD PUSH32 0x8C379A000000000000000000000000000000000000000000000000000000000 DUP2 MSTORE PUSH1 0x4 ADD PUSH2 0x5F4 SWAP1 PUSH2 0x1B43 JUMP JUMPDEST PUSH1 0x40 MLOAD DUP1 SWAP2 SUB SWAP1 REVERT JUMPDEST PUSH2 0x61A DUP5 DUP5 DUP5 DUP5 PUSH1 0x0 PUSH1 0x3 PUSH2 0x79B SWAP1 SWAP6 SWAP5 SWAP4 SWAP3 SWAP2 SWAP1 PUSH4 0xFFFFFFFF AND JUMP JUMPDEST POP POP POP POP JUMP JUMPDEST PUSH1 0x0 PUSH2 0x62E DUP7 DUP7 DUP7 DUP7 PUSH2 0xC94 JUMP JUMPDEST SWAP1 POP PUSH1 0x0 DUP1 SLOAD SWAP1 PUSH2 0x100 EXP SWAP1 DIV PUSH20 0xFFFFFFFFFFFFFFFFFFFFFFFFFFFFFFFFFFFFFFFF AND PUSH20 0xFFFFFFFFFFFFFFFFFFFFFFFFFFFFFFFFFFFFFFFF AND DUP2 PUSH20 0xFFFFFFFFFFFFFFFFFFFFFFFFFFFFFFFFFFFFFFFF AND EQ DUP1 PUSH2 0x6D7 JUMPI POP PUSH1 0x1 PUSH1 0x0 SWAP1 SLOAD SWAP1 PUSH2 0x100 EXP SWAP1 DIV PUSH20 0xFFFFFFFFFFFFFFFFFFFFFFFFFFFFFFFFFFFFFFFF AND PUSH20 0xFFFFFFFFFFFFFFFFFFFFFFFFFFFFFFFFFFFFFFFF AND DUP2 PUSH20 0xFFFFFFFFFFFFFFFFFFFFFFFFFFFFFFFFFFFFFFFF AND EQ JUMPDEST PUSH2 0x716 JUMPI PUSH1 0x40 MLOAD PUSH32 0x8C379A000000000000000000000000000000000000000000000000000000000 DUP2 MSTORE PUSH1 0x4 ADD PUSH2 0x70D SWAP1 PUSH2 0x1C0F JUMP JUMPDEST PUSH1 0x40 MLOAD DUP1 SWAP2 SUB SWAP1 REVERT JUMPDEST PUSH1 0x3 PUSH20 0x0 PUSH4 0x16739215 SWAP1 SWAP2 DUP5 PUSH1 0x40 MLOAD DUP4 PUSH4 0xFFFFFFFF AND PUSH1 0xE0 SHL DUP2 MSTORE PUSH1 0x4 ADD PUSH2 0x752 SWAP3 SWAP2 SWAP1 PUSH2 0x1DB4 JUMP JUMPDEST PUSH1 0x0 PUSH1 0x40 MLOAD DUP1 DUP4 SUB DUP2 DUP7 DUP1 EXTCODESIZE ISZERO DUP1 ISZERO PUSH2 0x76A JUMPI PUSH1 0x0 DUP1 REVERT JUMPDEST POP GAS DELEGATECALL ISZERO DUP1 ISZERO PUSH2 0x77E JUMPI RETURNDATASIZE PUSH1 0x0 DUP1 RETURNDATACOPY RETURNDATASIZE PUSH1 0x0 REVERT JUMPDEST POP POP POP POP POP POP POP POP POP POP JUMP JUMPDEST PUSH1 0x60 PUSH2 0x796 PUSH1 0x3 PUSH2 0xD57 JUMP JUMPDEST SWAP1 POP SWAP1 JUMP JUMPDEST PUSH1 0x0 PUSH1 0x40 MLOAD DUP1 PUSH1 0xA0 ADD PUSH1 0x40 MSTORE DUP1 DUP8 DUP2 MSTORE PUSH1 0x20 ADD DUP7 DUP2 MSTORE PUSH1 0x20 ADD DUP6 DUP2 MSTORE PUSH1 0x20 ADD DUP5 DUP2 MSTORE PUSH1 0x20 ADD DUP4 PUSH20 0xFFFFFFFFFFFFFFFFFFFFFFFFFFFFFFFFFFFFFFFF AND DUP2 MSTORE POP SWAP1 POP DUP1 DUP8 PUSH1 0x0 ADD DUP6 PUSH1 0x40 MLOAD PUSH2 0x7EF SWAP2 SWAP1 PUSH2 0x1E20 JUMP JUMPDEST SWAP1 DUP2 MSTORE PUSH1 0x20 ADD PUSH1 0x40 MLOAD DUP1 SWAP2 SUB SWAP1 KECCAK256 PUSH1 0x0 DUP3 ADD MLOAD DUP2 PUSH1 0x0 ADD SWAP1 DUP2 PUSH2 0x812 SWAP2 SWAP1 PUSH2 0x1FED JUMP JUMPDEST POP PUSH1 0x20 DUP3 ADD MLOAD DUP2 PUSH1 0x1 ADD SWAP1 DUP2 PUSH2 0x828 SWAP2 SWAP1 PUSH2 0x1FED JUMP JUMPDEST POP PUSH1 0x40 DUP3 ADD MLOAD DUP2 PUSH1 0x2 ADD SWAP1 DUP2 PUSH2 0x83E SWAP2 SWAP1 PUSH2 0x1FED JUMP JUMPDEST POP PUSH1 0x60 DUP3 ADD MLOAD DUP2 PUSH1 0x3 ADD SWAP1 DUP2 PUSH2 0x854 SWAP2 SWAP1 PUSH2 0x1FED JUMP JUMPDEST POP PUSH1 0x80 DUP3 ADD MLOAD DUP2 PUSH1 0x4 ADD PUSH1 0x0 PUSH2 0x100 EXP DUP2 SLOAD DUP2 PUSH20 0xFFFFFFFFFFFFFFFFFFFFFFFFFFFFFFFFFFFFFFFF MUL NOT AND SWAP1 DUP4 PUSH20 0xFFFFFFFFFFFFFFFFFFFFFFFFFFFFFFFFFFFFFFFF AND MUL OR SWAP1 SSTORE POP SWAP1 POP POP PUSH1 0x0 JUMPDEST DUP8 PUSH1 0x1 ADD DUP1 SLOAD SWAP1 POP DUP2 LT ISZERO PUSH2 0x9C3 JUMPI DUP5 PUSH1 0x40 MLOAD PUSH1 0x20 ADD PUSH2 0x8C2 SWAP2 SWAP1 PUSH2 0x1E20 JUMP JUMPDEST PUSH1 0x40 MLOAD PUSH1 0x20 DUP2 DUP4 SUB SUB DUP2 MSTORE SWAP1 PUSH1 0x40 MSTORE DUP1 MLOAD SWAP1 PUSH1 0x20 ADD KECCAK256 DUP9 PUSH1 0x1 ADD DUP3 DUP2 SLOAD DUP2 LT PUSH2 0x8EE JUMPI PUSH2 0x8ED PUSH2 0x20BF JUMP JUMPDEST JUMPDEST SWAP1 PUSH1 0x0 MSTORE PUSH1 0x20 PUSH1 0x0 KECCAK256 ADD PUSH1 0x40 MLOAD PUSH1 0x20 ADD PUSH2 0x908 SWAP2 SWAP1 PUSH2 0x2171 JUMP JUMPDEST PUSH1 0x40 MLOAD PUSH1 0x20 DUP2 DUP4 SUB SUB DUP2 MSTORE SWAP1 PUSH1 0x40 MSTORE DUP1 MLOAD SWAP1 PUSH1 0x20 ADD KECCAK256 SUB PUSH2 0x9B6 JUMPI DUP8 PUSH1 0x1 ADD PUSH1 0x1 DUP10 PUSH1 0x1 ADD DUP1 SLOAD SWAP1 POP PUSH2 0x93B SWAP2 SWAP1 PUSH2 0x21B7 JUMP JUMPDEST DUP2 SLOAD DUP2 LT PUSH2 0x94C JUMPI PUSH2 0x94B PUSH2 0x20BF JUMP JUMPDEST JUMPDEST SWAP1 PUSH1 0x0 MSTORE PUSH1 0x20 PUSH1 0x0 KECCAK256 ADD DUP9 PUSH1 0x1 ADD DUP3 DUP2 SLOAD DUP2 LT PUSH2 0x96C JUMPI PUSH2 0x96B PUSH2 0x20BF JUMP JUMPDEST JUMPDEST SWAP1 PUSH1 0x0 MSTORE PUSH1 0x20 PUSH1 0x0 KECCAK256 ADD SWAP1 DUP2 PUSH2 0x982 SWAP2 SWAP1 PUSH2 0x2216 JUMP JUMPDEST POP DUP8 PUSH1 0x1 ADD DUP1 SLOAD DUP1 PUSH2 0x997 JUMPI PUSH2 0x996 PUSH2 0x22FE JUMP JUMPDEST JUMPDEST PUSH1 0x1 SWAP1 SUB DUP2 DUP2 SWAP1 PUSH1 0x0 MSTORE PUSH1 0x20 PUSH1 0x0 KECCAK256 ADD PUSH1 0x0 PUSH2 0x9B3 SWAP2 SWAP1 PUSH2 0x10E7 JUMP JUMPDEST SWAP1 SSTORE JUMPDEST DUP1 DUP1 PUSH1 0x1 ADD SWAP2 POP POP PUSH2 0x8A2 JUMP JUMPDEST POP DUP7 PUSH1 0x1 ADD DUP5 SWAP1 DUP1 PUSH1 0x1 DUP2 SLOAD ADD DUP1 DUP3 SSTORE DUP1 SWAP2 POP POP PUSH1 0x1 SWAP1 SUB SWAP1 PUSH1 0x0 MSTORE PUSH1 0x20 PUSH1 0x0 KECCAK256 ADD PUSH1 0x0 SWAP1 SWAP2 SWAP1 SWAP2 SWAP1 SWAP2 POP SWAP1 DUP2 PUSH2 0x9FA SWAP2 SWAP1 PUSH2 0x1FED JUMP JUMPDEST POP PUSH32 0x588744E77A27A501DBB29B4C0887BC3D9BAEAC962C9D12031B299889CD7E7EB3 PUSH1 0x40 MLOAD PUSH1 0x40 MLOAD DUP1 SWAP2 SUB SWAP1 LOG1 POP POP POP POP POP POP POP JUMP JUMPDEST PUSH1 0x0 DUP3 PUSH1 0x0 ADD DUP3 PUSH1 0x40 MLOAD PUSH2 0xA44 SWAP2 SWAP1 PUSH2 0x1E20 JUMP JUMPDEST SWAP1 DUP2 MSTORE PUSH1 0x20 ADD PUSH1 0x40 MLOAD DUP1 SWAP2 SUB SWAP1 KECCAK256 PUSH1 0x2 ADD PUSH1 0x40 MLOAD PUSH1 0x20 ADD PUSH2 0xA65 SWAP2 SWAP1 PUSH2 0x2171 JUMP JUMPDEST PUSH1 0x40 MLOAD PUSH1 0x20 DUP2 DUP4 SUB SUB DUP2 MSTORE SWAP1 PUSH1 0x40 MSTORE MLOAD GT PUSH2 0xAB5 JUMPI PUSH1 0x40 MLOAD PUSH32 0x8C379A000000000000000000000000000000000000000000000000000000000 DUP2 MSTORE PUSH1 0x4 ADD PUSH2 0xAAC SWAP1 PUSH2 0x2379 JUMP JUMPDEST PUSH1 0x40 MLOAD DUP1 SWAP2 SUB SWAP1 REVERT JUMPDEST DUP2 PUSH1 0x0 ADD DUP2 PUSH1 0x40 MLOAD PUSH2 0xAC7 SWAP2 SWAP1 PUSH2 0x1E20 JUMP JUMPDEST SWAP1 DUP2 MSTORE PUSH1 0x20 ADD PUSH1 0x40 MLOAD DUP1 SWAP2 SUB SWAP1 KECCAK256 PUSH1 0x0 DUP1 DUP3 ADD PUSH1 0x0 PUSH2 0xAE6 SWAP2 SWAP1 PUSH2 0x10E7 JUMP JUMPDEST PUSH1 0x1 DUP3 ADD PUSH1 0x0 PUSH2 0xAF6 SWAP2 SWAP1 PUSH2 0x10E7 JUMP JUMPDEST PUSH1 0x2 DUP3 ADD PUSH1 0x0 PUSH2 0xB06 SWAP2 SWAP1 PUSH2 0x10E7 JUMP JUMPDEST PUSH1 0x3 DUP3 ADD PUSH1 0x0 PUSH2 0xB16 SWAP2 SWAP1 PUSH2 0x10E7 JUMP JUMPDEST PUSH1 0x4 DUP3 ADD PUSH1 0x0 PUSH2 0x100 EXP DUP2 SLOAD SWAP1 PUSH20 0xFFFFFFFFFFFFFFFFFFFFFFFFFFFFFFFFFFFFFFFF MUL NOT AND SWAP1 SSTORE POP POP PUSH1 0x0 JUMPDEST DUP3 PUSH1 0x1 ADD DUP1 SLOAD SWAP1 POP DUP2 LT ISZERO PUSH2 0xC63 JUMPI DUP2 PUSH1 0x40 MLOAD PUSH1 0x20 ADD PUSH2 0xB62 SWAP2 SWAP1 PUSH2 0x1E20 JUMP JUMPDEST PUSH1 0x40 MLOAD PUSH1 0x20 DUP2 DUP4 SUB SUB DUP2 MSTORE SWAP1 PUSH1 0x40 MSTORE DUP1 MLOAD SWAP1 PUSH1 0x20 ADD KECCAK256 DUP4 PUSH1 0x1 ADD DUP3 DUP2 SLOAD DUP2 LT PUSH2 0xB8E JUMPI PUSH2 0xB8D PUSH2 0x20BF JUMP JUMPDEST JUMPDEST SWAP1 PUSH1 0x0 MSTORE PUSH1 0x20 PUSH1 0x0 KECCAK256 ADD PUSH1 0x40 MLOAD PUSH1 0x20 ADD PUSH2 0xBA8 SWAP2 SWAP1 PUSH2 0x2171 JUMP JUMPDEST PUSH1 0x40 MLOAD PUSH1 0x20 DUP2 DUP4 SUB SUB DUP2 MSTORE SWAP1 PUSH1 0x40 MSTORE DUP1 MLOAD SWAP1 PUSH1 0x20 ADD KECCAK256 SUB PUSH2 0xC56 JUMPI DUP3 PUSH1 0x1 ADD PUSH1 0x1 DUP5 PUSH1 0x1 ADD DUP1 SLOAD SWAP1 POP PUSH2 0xBDB SWAP2 SWAP1 PUSH2 0x21B7 JUMP JUMPDEST DUP2 SLOAD DUP2 LT PUSH2 0xBEC JUMPI PUSH2 0xBEB PUSH2 0x20BF JUMP JUMPDEST JUMPDEST SWAP1 PUSH1 0x0 MSTORE PUSH1 0x20 PUSH1 0x0 KECCAK256 ADD DUP4 PUSH1 0x1 ADD DUP3 DUP2 SLOAD DUP2 LT PUSH2 0xC0C JUMPI PUSH2 0xC0B PUSH2 0x20BF JUMP JUMPDEST JUMPDEST SWAP1 PUSH1 0x0 MSTORE PUSH1 0x20 PUSH1 0x0 KECCAK256 ADD SWAP1 DUP2 PUSH2 0xC22 SWAP2 SWAP1 PUSH2 0x2216 JUMP JUMPDEST POP DUP3 PUSH1 0x1 ADD DUP1 SLOAD DUP1 PUSH2 0xC37 JUMPI PUSH2 0xC36 PUSH2 0x22FE JUMP JUMPDEST JUMPDEST PUSH1 0x1 SWAP1 SUB DUP2 DUP2 SWAP1 PUSH1 0x0 MSTORE PUSH1 0x20 PUSH1 0x0 KECCAK256 ADD PUSH1 0x0 PUSH2 0xC53 SWAP2 SWAP1 PUSH2 0x10E7 JUMP JUMPDEST SWAP1 SSTORE JUMPDEST DUP1 DUP1 PUSH1 0x1 ADD SWAP2 POP POP PUSH2 0xB42 JUMP JUMPDEST POP PUSH32 0x2CB62029F31E3C49468F31444E5229C1F9BC994DB2905EC54EFE95D4D92CE07F PUSH1 0x40 MLOAD PUSH1 0x40 MLOAD DUP1 SWAP2 SUB SWAP1 LOG1 POP POP JUMP JUMPDEST PUSH1 0x0 DUP1 PUSH1 0x40 MLOAD DUP1 PUSH1 0x40 ADD PUSH1 0x40 MSTORE DUP1 PUSH1 0x1C DUP2 MSTORE PUSH1 0x20 ADD PUSH32 0x19457468657265756D205369676E6564204D6573736167653A0A333200000000 DUP2 MSTORE POP SWAP1 POP PUSH1 0x0 DUP2 DUP8 PUSH1 0x40 MLOAD PUSH1 0x20 ADD PUSH2 0xCE4 SWAP3 SWAP2 SWAP1 PUSH2 0x2401 JUMP JUMPDEST PUSH1 0x40 MLOAD PUSH1 0x20 DUP2 DUP4 SUB SUB DUP2 MSTORE SWAP1 PUSH1 0x40 MSTORE DUP1 MLOAD SWAP1 PUSH1 0x20 ADD KECCAK256 SWAP1 POP PUSH1 0x1 DUP2 DUP8 DUP8 DUP8 PUSH1 0x40 MLOAD PUSH1 0x0 DUP2 MSTORE PUSH1 0x20 ADD PUSH1 0x40 MSTORE PUSH1 0x40 MLOAD PUSH2 0xD1F SWAP5 SWAP4 SWAP3 SWAP2 SWAP1 PUSH2 0x2447 JUMP JUMPDEST PUSH1 0x20 PUSH1 0x40 MLOAD PUSH1 0x20 DUP2 SUB SWAP1 DUP1 DUP5 SUB SWAP1 DUP6 GAS STATICCALL ISZERO DUP1 ISZERO PUSH2 0xD41 JUMPI RETURNDATASIZE PUSH1 0x0 DUP1 RETURNDATACOPY RETURNDATASIZE PUSH1 0x0 REVERT JUMPDEST POP POP POP PUSH1 0x20 PUSH1 0x40 MLOAD SUB MLOAD SWAP3 POP POP POP SWAP5 SWAP4 POP POP POP POP JUMP JUMPDEST PUSH1 0x60 PUSH1 0x0 DUP3 PUSH1 0x1 ADD DUP1 SLOAD SWAP1 POP PUSH8 0xFFFFFFFFFFFFFFFF DUP2 GT ISZERO PUSH2 0xD7C JUMPI PUSH2 0xD7B PUSH2 0x1214 JUMP JUMPDEST JUMPDEST PUSH1 0x40 MLOAD SWAP1 DUP1 DUP3 MSTORE DUP1 PUSH1 0x20 MUL PUSH1 0x20 ADD DUP3 ADD PUSH1 0x40 MSTORE DUP1 ISZERO PUSH2 0xDB5 JUMPI DUP2 PUSH1 0x20 ADD JUMPDEST PUSH2 0xDA2 PUSH2 0x1127 JUMP JUMPDEST DUP2 MSTORE PUSH1 0x20 ADD SWAP1 PUSH1 0x1 SWAP1 SUB SWAP1 DUP2 PUSH2 0xD9A JUMPI SWAP1 POP JUMPDEST POP SWAP1 POP PUSH1 0x0 JUMPDEST DUP4 PUSH1 0x1 ADD DUP1 SLOAD SWAP1 POP DUP2 LT ISZERO PUSH2 0x10DD JUMPI DUP4 PUSH1 0x0 ADD DUP5 PUSH1 0x1 ADD DUP3 DUP2 SLOAD DUP2 LT PUSH2 0xDE4 JUMPI PUSH2 0xDE3 PUSH2 0x20BF JUMP JUMPDEST JUMPDEST SWAP1 PUSH1 0x0 MSTORE PUSH1 0x20 PUSH1 0x0 KECCAK256 ADD PUSH1 0x40 MLOAD PUSH2 0xDFB SWAP2 SWAP1 PUSH2 0x2171 JUMP JUMPDEST SWAP1 DUP2 MSTORE PUSH1 0x20 ADD PUSH1 0x40 MLOAD DUP1 SWAP2 SUB SWAP1 KECCAK256 PUSH1 0x40 MLOAD DUP1 PUSH1 0xA0 ADD PUSH1 0x40 MSTORE SWAP1 DUP2 PUSH1 0x0 DUP3 ADD DUP1 SLOAD PUSH2 0xE24 SWAP1 PUSH2 0x1B92 JUMP JUMPDEST DUP1 PUSH1 0x1F ADD PUSH1 0x20 DUP1 SWAP2 DIV MUL PUSH1 0x20 ADD PUSH1 0x40 MLOAD SWAP1 DUP2 ADD PUSH1 0x40 MSTORE DUP1 SWAP3 SWAP2 SWAP1 DUP2 DUP2 MSTORE PUSH1 0x20 ADD DUP3 DUP1 SLOAD PUSH2 0xE50 SWAP1 PUSH2 0x1B92 JUMP JUMPDEST DUP1 ISZERO PUSH2 0xE9D JUMPI DUP1 PUSH1 0x1F LT PUSH2 0xE72 JUMPI PUSH2 0x100 DUP1 DUP4 SLOAD DIV MUL DUP4 MSTORE SWAP2 PUSH1 0x20 ADD SWAP2 PUSH2 0xE9D JUMP JUMPDEST DUP3 ADD SWAP2 SWAP1 PUSH1 0x0 MSTORE PUSH1 0x20 PUSH1 0x0 KECCAK256 SWAP1 JUMPDEST DUP2 SLOAD DUP2 MSTORE SWAP1 PUSH1 0x1 ADD SWAP1 PUSH1 0x20 ADD DUP1 DUP4 GT PUSH2 0xE80 JUMPI DUP3 SWAP1 SUB PUSH1 0x1F AND DUP3 ADD SWAP2 JUMPDEST POP POP POP POP POP DUP2 MSTORE PUSH1 0x20 ADD PUSH1 0x1 DUP3 ADD DUP1 SLOAD PUSH2 0xEB6 SWAP1 PUSH2 0x1B92 JUMP JUMPDEST DUP1 PUSH1 0x1F ADD PUSH1 0x20 DUP1 SWAP2 DIV MUL PUSH1 0x20 ADD PUSH1 0x40 MLOAD SWAP1 DUP2 ADD PUSH1 0x40 MSTORE DUP1 SWAP3 SWAP2 SWAP1 DUP2 DUP2 MSTORE PUSH1 0x20 ADD DUP3 DUP1 SLOAD PUSH2 0xEE2 SWAP1 PUSH2 0x1B92 JUMP JUMPDEST DUP1 ISZERO PUSH2 0xF2F JUMPI DUP1 PUSH1 0x1F LT PUSH2 0xF04 JUMPI PUSH2 0x100 DUP1 DUP4 SLOAD DIV MUL DUP4 MSTORE SWAP2 PUSH1 0x20 ADD SWAP2 PUSH2 0xF2F JUMP JUMPDEST DUP3 ADD SWAP2 SWAP1 PUSH1 0x0 MSTORE PUSH1 0x20 PUSH1 0x0 KECCAK256 SWAP1 JUMPDEST DUP2 SLOAD DUP2 MSTORE SWAP1 PUSH1 0x1 ADD SWAP1 PUSH1 0x20 ADD DUP1 DUP4 GT PUSH2 0xF12 JUMPI DUP3 SWAP1 SUB PUSH1 0x1F AND DUP3 ADD SWAP2 JUMPDEST POP POP POP POP POP DUP2 MSTORE PUSH1 0x20 ADD PUSH1 0x2 DUP3 ADD DUP1 SLOAD PUSH2 0xF48 SWAP1 PUSH2 0x1B92 JUMP JUMPDEST DUP1 PUSH1 0x1F ADD PUSH1 0x20 DUP1 SWAP2 DIV MUL PUSH1 0x20 ADD PUSH1 0x40 MLOAD SWAP1 DUP2 ADD PUSH1 0x40 MSTORE DUP1 SWAP3 SWAP2 SWAP1 DUP2 DUP2 MSTORE PUSH1 0x20 ADD DUP3 DUP1 SLOAD PUSH2 0xF74 SWAP1 PUSH2 0x1B92 JUMP JUMPDEST DUP1 ISZERO PUSH2 0xFC1 JUMPI DUP1 PUSH1 0x1F LT PUSH2 0xF96 JUMPI PUSH2 0x100 DUP1 DUP4 SLOAD DIV MUL DUP4 MSTORE SWAP2 PUSH1 0x20 ADD SWAP2 PUSH2 0xFC1 JUMP JUMPDEST DUP3 ADD SWAP2 SWAP1 PUSH1 0x0 MSTORE PUSH1 0x20 PUSH1 0x0 KECCAK256 SWAP1 JUMPDEST DUP2 SLOAD DUP2 MSTORE SWAP1 PUSH1 0x1 ADD SWAP1 PUSH1 0x20 ADD DUP1 DUP4 GT PUSH2 0xFA4 JUMPI DUP3 SWAP1 SUB PUSH1 0x1F AND DUP3 ADD SWAP2 JUMPDEST POP POP POP POP POP DUP2 MSTORE PUSH1 0x20 ADD PUSH1 0x3 DUP3 ADD DUP1 SLOAD PUSH2 0xFDA SWAP1 PUSH2 0x1B92 JUMP JUMPDEST DUP1 PUSH1 0x1F ADD PUSH1 0x20 DUP1 SWAP2 DIV MUL PUSH1 0x20 ADD PUSH1 0x40 MLOAD SWAP1 DUP2 ADD PUSH1 0x40 MSTORE DUP1 SWAP3 SWAP2 SWAP1 DUP2 DUP2 MSTORE PUSH1 0x20 ADD DUP3 DUP1 SLOAD PUSH2 0x1006 SWAP1 PUSH2 0x1B92 JUMP JUMPDEST DUP1 ISZERO PUSH2 0x1053 JUMPI DUP1 PUSH1 0x1F LT PUSH2 0x1028 JUMPI PUSH2 0x100 DUP1 DUP4 SLOAD DIV MUL DUP4 MSTORE SWAP2 PUSH1 0x20 ADD SWAP2 PUSH2 0x1053 JUMP JUMPDEST DUP3 ADD SWAP2 SWAP1 PUSH1 0x0 MSTORE PUSH1 0x20 PUSH1 0x0 KECCAK256 SWAP1 JUMPDEST DUP2 SLOAD DUP2 MSTORE SWAP1 PUSH1 0x1 ADD SWAP1 PUSH1 0x20 ADD DUP1 DUP4 GT PUSH2 0x1036 JUMPI DUP3 SWAP1 SUB PUSH1 0x1F AND DUP3 ADD SWAP2 JUMPDEST POP POP POP POP POP DUP2 MSTORE PUSH1 0x20 ADD PUSH1 0x4 DUP3 ADD PUSH1 0x0 SWAP1 SLOAD SWAP1 PUSH2 0x100 EXP SWAP1 DIV PUSH20 0xFFFFFFFFFFFFFFFFFFFFFFFFFFFFFFFFFFFFFFFF AND PUSH20 0xFFFFFFFFFFFFFFFFFFFFFFFFFFFFFFFFFFFFFFFF AND PUSH20 0xFFFFFFFFFFFFFFFFFFFFFFFFFFFFFFFFFFFFFFFF AND DUP2 MSTORE POP POP DUP3 DUP3 DUP2 MLOAD DUP2 LT PUSH2 0x10C5 JUMPI PUSH2 0x10C4 PUSH2 0x20BF JUMP JUMPDEST JUMPDEST PUSH1 0x20 MUL PUSH1 0x20 ADD ADD DUP2 SWAP1 MSTORE POP DUP1 DUP1 PUSH1 0x1 ADD SWAP2 POP POP PUSH2 0xDBB JUMP JUMPDEST POP DUP1 SWAP2 POP POP SWAP2 SWAP1 POP JUMP JUMPDEST POP DUP1 SLOAD PUSH2 0x10F3 SWAP1 PUSH2 0x1B92 JUMP JUMPDEST PUSH1 0x0 DUP3 SSTORE DUP1 PUSH1 0x1F LT PUSH2 0x1105 JUMPI POP PUSH2 0x1124 JUMP JUMPDEST PUSH1 0x1F ADD PUSH1 0x20 SWAP1 DIV SWAP1 PUSH1 0x0 MSTORE PUSH1 0x20 PUSH1 0x0 KECCAK256 SWAP1 DUP2 ADD SWAP1 PUSH2 0x1123 SWAP2 SWAP1 PUSH2 0x116C JUMP JUMPDEST JUMPDEST POP JUMP JUMPDEST PUSH1 0x40 MLOAD DUP1 PUSH1 0xA0 ADD PUSH1 0x40 MSTORE DUP1 PUSH1 0x60 DUP2 MSTORE PUSH1 0x20 ADD PUSH1 0x60 DUP2 MSTORE PUSH1 0x20 ADD PUSH1 0x60 DUP2 MSTORE PUSH1 0x20 ADD PUSH1 0x60 DUP2 MSTORE PUSH1 0x20 ADD PUSH1 0x0 PUSH20 0xFFFFFFFFFFFFFFFFFFFFFFFFFFFFFFFFFFFFFFFF AND DUP2 MSTORE POP SWAP1 JUMP JUMPDEST JUMPDEST DUP1 DUP3 GT ISZERO PUSH2 0x1185 JUMPI PUSH1 0x0 DUP2 PUSH1 0x0 SWAP1 SSTORE POP PUSH1 0x1 ADD PUSH2 0x116D JUMP JUMPDEST POP SWAP1 JUMP JUMPDEST PUSH1 0x0 PUSH20 0xFFFFFFFFFFFFFFFFFFFFFFFFFFFFFFFFFFFFFFFF DUP3 AND SWAP1 POP SWAP2 SWAP1 POP JUMP JUMPDEST PUSH1 0x0 PUSH2 0x11B4 DUP3 PUSH2 0x1189 JUMP JUMPDEST SWAP1 POP SWAP2 SWAP1 POP JUMP JUMPDEST PUSH2 0x11C4 DUP2 PUSH2 0x11A9 JUMP JUMPDEST DUP3 MSTORE POP POP JUMP JUMPDEST PUSH1 0x0 PUSH1 0x20 DUP3 ADD SWAP1 POP PUSH2 0x11DF PUSH1 0x0 DUP4 ADD DUP5 PUSH2 0x11BB JUMP JUMPDEST SWAP3 SWAP2 POP POP JUMP JUMPDEST PUSH1 0x0 PUSH1 0x40 MLOAD SWAP1 POP SWAP1 JUMP JUMPDEST PUSH1 0x0 DUP1 REVERT JUMPDEST PUSH1 0x0 DUP1 REVERT JUMPDEST PUSH1 0x0 DUP1 REVERT JUMPDEST PUSH1 0x0 DUP1 REVERT JUMPDEST PUSH1 0x0 PUSH1 0x1F NOT PUSH1 0x1F DUP4 ADD AND SWAP1 POP SWAP2 SWAP1 POP JUMP JUMPDEST PUSH32 0x4E487B7100000000000000000000000000000000000000000000000000000000 PUSH1 0x0 MSTORE PUSH1 0x41 PUSH1 0x4 MSTORE PUSH1 0x24 PUSH1 0x0 REVERT JUMPDEST PUSH2 0x124C DUP3 PUSH2 0x1203 JUMP JUMPDEST DUP2 ADD DUP2 DUP2 LT PUSH8 0xFFFFFFFFFFFFFFFF DUP3 GT OR ISZERO PUSH2 0x126B JUMPI PUSH2 0x126A PUSH2 0x1214 JUMP JUMPDEST JUMPDEST DUP1 PUSH1 0x40 MSTORE POP POP POP JUMP JUMPDEST PUSH1 0x0 PUSH2 0x127E PUSH2 0x11E5 JUMP JUMPDEST SWAP1 POP PUSH2 0x128A DUP3 DUP3 PUSH2 0x1243 JUMP JUMPDEST SWAP2 SWAP1 POP JUMP JUMPDEST PUSH1 0x0 PUSH8 0xFFFFFFFFFFFFFFFF DUP3 GT ISZERO PUSH2 0x12AA JUMPI PUSH2 0x12A9 PUSH2 0x1214 JUMP JUMPDEST JUMPDEST PUSH2 0x12B3 DUP3 PUSH2 0x1203 JUMP JUMPDEST SWAP1 POP PUSH1 0x20 DUP2 ADD SWAP1 POP SWAP2 SWAP1 POP JUMP JUMPDEST DUP3 DUP2 DUP4 CALLDATACOPY PUSH1 0x0 DUP4 DUP4 ADD MSTORE POP POP POP JUMP JUMPDEST PUSH1 0x0 PUSH2 0x12E2 PUSH2 0x12DD DUP5 PUSH2 0x128F JUMP JUMPDEST PUSH2 0x1274 JUMP JUMPDEST SWAP1 POP DUP3 DUP2 MSTORE PUSH1 0x20 DUP2 ADD DUP5 DUP5 DUP5 ADD GT ISZERO PUSH2 0x12FE JUMPI PUSH2 0x12FD PUSH2 0x11FE JUMP JUMPDEST JUMPDEST PUSH2 0x1309 DUP5 DUP3 DUP6 PUSH2 0x12C0 JUMP JUMPDEST POP SWAP4 SWAP3 POP POP POP JUMP JUMPDEST PUSH1 0x0 DUP3 PUSH1 0x1F DUP4 ADD SLT PUSH2 0x1326 JUMPI PUSH2 0x1325 PUSH2 0x11F9 JUMP JUMPDEST JUMPDEST DUP2 CALLDATALOAD PUSH2 0x1336 DUP5 DUP3 PUSH1 0x20 DUP7 ADD PUSH2 0x12CF JUMP JUMPDEST SWAP2 POP POP SWAP3 SWAP2 POP POP JUMP JUMPDEST PUSH2 0x1348 DUP2 PUSH2 0x11A9 JUMP JUMPDEST DUP2 EQ PUSH2 0x1353 JUMPI PUSH1 0x0 DUP1 REVERT JUMPDEST POP JUMP JUMPDEST PUSH1 0x0 DUP2 CALLDATALOAD SWAP1 POP PUSH2 0x1365 DUP2 PUSH2 0x133F JUMP JUMPDEST SWAP3 SWAP2 POP POP JUMP JUMPDEST PUSH1 0x0 DUP1 PUSH1 0x0 DUP1 PUSH1 0x0 PUSH1 0xA0 DUP7 DUP9 SUB SLT ISZERO PUSH2 0x1387 JUMPI PUSH2 0x1386 PUSH2 0x11EF JUMP JUMPDEST JUMPDEST PUSH1 0x0 DUP7 ADD CALLDATALOAD PUSH8 0xFFFFFFFFFFFFFFFF DUP2 GT ISZERO PUSH2 0x13A5 JUMPI PUSH2 0x13A4 PUSH2 0x11F4 JUMP JUMPDEST JUMPDEST PUSH2 0x13B1 DUP9 DUP3 DUP10 ADD PUSH2 0x1311 JUMP JUMPDEST SWAP6 POP POP PUSH1 0x20 DUP7 ADD CALLDATALOAD PUSH8 0xFFFFFFFFFFFFFFFF DUP2 GT ISZERO PUSH2 0x13D2 JUMPI PUSH2 0x13D1 PUSH2 0x11F4 JUMP JUMPDEST JUMPDEST PUSH2 0x13DE DUP9 DUP3 DUP10 ADD PUSH2 0x1311 JUMP JUMPDEST SWAP5 POP POP PUSH1 0x40 DUP7 ADD CALLDATALOAD PUSH8 0xFFFFFFFFFFFFFFFF DUP2 GT ISZERO PUSH2 0x13FF JUMPI PUSH2 0x13FE PUSH2 0x11F4 JUMP JUMPDEST JUMPDEST PUSH2 0x140B DUP9 DUP3 DUP10 ADD PUSH2 0x1311 JUMP JUMPDEST SWAP4 POP POP PUSH1 0x60 DUP7 ADD CALLDATALOAD PUSH8 0xFFFFFFFFFFFFFFFF DUP2 GT ISZERO PUSH2 0x142C JUMPI PUSH2 0x142B PUSH2 0x11F4 JUMP JUMPDEST JUMPDEST PUSH2 0x1438 DUP9 DUP3 DUP10 ADD PUSH2 0x1311 JUMP JUMPDEST SWAP3 POP POP PUSH1 0x80 PUSH2 0x1449 DUP9 DUP3 DUP10 ADD PUSH2 0x1356 JUMP JUMPDEST SWAP2 POP POP SWAP3 SWAP6 POP SWAP3 SWAP6 SWAP1 SWAP4 POP JUMP JUMPDEST PUSH1 0x0 DUP2 MLOAD SWAP1 POP SWAP2 SWAP1 POP JUMP JUMPDEST PUSH1 0x0 DUP3 DUP3 MSTORE PUSH1 0x20 DUP3 ADD SWAP1 POP SWAP3 SWAP2 POP POP JUMP JUMPDEST PUSH1 0x0 JUMPDEST DUP4 DUP2 LT ISZERO PUSH2 0x1490 JUMPI DUP1 DUP3 ADD MLOAD DUP2 DUP5 ADD MSTORE PUSH1 0x20 DUP2 ADD SWAP1 POP PUSH2 0x1475 JUMP JUMPDEST PUSH1 0x0 DUP5 DUP5 ADD MSTORE POP POP POP POP JUMP JUMPDEST PUSH1 0x0 PUSH2 0x14A7 DUP3 PUSH2 0x1456 JUMP JUMPDEST PUSH2 0x14B1 DUP2 DUP6 PUSH2 0x1461 JUMP JUMPDEST SWAP4 POP PUSH2 0x14C1 DUP2 DUP6 PUSH1 0x20 DUP7 ADD PUSH2 0x1472 JUMP JUMPDEST PUSH2 0x14CA DUP2 PUSH2 0x1203 JUMP JUMPDEST DUP5 ADD SWAP2 POP POP SWAP3 SWAP2 POP POP JUMP JUMPDEST PUSH1 0x0 PUSH1 0x20 DUP3 ADD SWAP1 POP DUP2 DUP2 SUB PUSH1 0x0 DUP4 ADD MSTORE PUSH2 0x14EF DUP2 DUP5 PUSH2 0x149C JUMP JUMPDEST SWAP1 POP SWAP3 SWAP2 POP POP JUMP JUMPDEST PUSH1 0x0 PUSH1 0x20 DUP3 DUP5 SUB SLT ISZERO PUSH2 0x150D JUMPI PUSH2 0x150C PUSH2 0x11EF JUMP JUMPDEST JUMPDEST PUSH1 0x0 DUP3 ADD CALLDATALOAD PUSH8 0xFFFFFFFFFFFFFFFF DUP2 GT ISZERO PUSH2 0x152B JUMPI PUSH2 0x152A PUSH2 0x11F4 JUMP JUMPDEST JUMPDEST PUSH2 0x1537 DUP5 DUP3 DUP6 ADD PUSH2 0x1311 JUMP JUMPDEST SWAP2 POP POP SWAP3 SWAP2 POP POP JUMP JUMPDEST PUSH1 0x0 DUP1 PUSH1 0x0 DUP1 PUSH1 0x80 DUP6 DUP8 SUB SLT ISZERO PUSH2 0x155A JUMPI PUSH2 0x1559 PUSH2 0x11EF JUMP JUMPDEST JUMPDEST PUSH1 0x0 DUP6 ADD CALLDATALOAD PUSH8 0xFFFFFFFFFFFFFFFF DUP2 GT ISZERO PUSH2 0x1578 JUMPI PUSH2 0x1577 PUSH2 0x11F4 JUMP JUMPDEST JUMPDEST PUSH2 0x1584 DUP8 DUP3 DUP9 ADD PUSH2 0x1311 JUMP JUMPDEST SWAP5 POP POP PUSH1 0x20 DUP6 ADD CALLDATALOAD PUSH8 0xFFFFFFFFFFFFFFFF DUP2 GT ISZERO PUSH2 0x15A5 JUMPI PUSH2 0x15A4 PUSH2 0x11F4 JUMP JUMPDEST JUMPDEST PUSH2 0x15B1 DUP8 DUP3 DUP9 ADD PUSH2 0x1311 JUMP JUMPDEST SWAP4 POP POP PUSH1 0x40 DUP6 ADD CALLDATALOAD PUSH8 0xFFFFFFFFFFFFFFFF DUP2 GT ISZERO PUSH2 0x15D2 JUMPI PUSH2 0x15D1 PUSH2 0x11F4 JUMP JUMPDEST JUMPDEST PUSH2 0x15DE DUP8 DUP3 DUP9 ADD PUSH2 0x1311 JUMP JUMPDEST SWAP3 POP POP PUSH1 0x60 DUP6 ADD CALLDATALOAD PUSH8 0xFFFFFFFFFFFFFFFF DUP2 GT ISZERO PUSH2 0x15FF JUMPI PUSH2 0x15FE PUSH2 0x11F4 JUMP JUMPDEST JUMPDEST PUSH2 0x160B DUP8 DUP3 DUP9 ADD PUSH2 0x1311 JUMP JUMPDEST SWAP2 POP POP SWAP3 SWAP6 SWAP2 SWAP5 POP SWAP3 POP JUMP JUMPDEST PUSH1 0x0 DUP2 SWAP1 POP SWAP2 SWAP1 POP JUMP JUMPDEST PUSH2 0x162A DUP2 PUSH2 0x1617 JUMP JUMPDEST DUP2 EQ PUSH2 0x1635 JUMPI PUSH1 0x0 DUP1 REVERT JUMPDEST POP JUMP JUMPDEST PUSH1 0x0 DUP2 CALLDATALOAD SWAP1 POP PUSH2 0x1647 DUP2 PUSH2 0x1621 JUMP JUMPDEST SWAP3 SWAP2 POP POP JUMP JUMPDEST PUSH1 0x0 PUSH1 0xFF DUP3 AND SWAP1 POP SWAP2 SWAP1 POP JUMP JUMPDEST PUSH2 0x1663 DUP2 PUSH2 0x164D JUMP JUMPDEST DUP2 EQ PUSH2 0x166E JUMPI PUSH1 0x0 DUP1 REVERT JUMPDEST POP JUMP JUMPDEST PUSH1 0x0 DUP2 CALLDATALOAD SWAP1 POP PUSH2 0x1680 DUP2 PUSH2 0x165A JUMP JUMPDEST SWAP3 SWAP2 POP POP JUMP JUMPDEST PUSH1 0x0 PUSH8 0xFFFFFFFFFFFFFFFF DUP3 GT ISZERO PUSH2 0x16A1 JUMPI PUSH2 0x16A0 PUSH2 0x1214 JUMP JUMPDEST JUMPDEST PUSH1 0x20 DUP3 MUL SWAP1 POP PUSH1 0x20 DUP2 ADD SWAP1 POP SWAP2 SWAP1 POP JUMP JUMPDEST PUSH1 0x0 DUP1 REVERT JUMPDEST PUSH1 0x0 DUP1 REVERT JUMPDEST PUSH1 0x0 DUP1 REVERT JUMPDEST PUSH1 0x0 PUSH1 0xA0 DUP3 DUP5 SUB SLT ISZERO PUSH2 0x16D7 JUMPI PUSH2 0x16D6 PUSH2 0x16B7 JUMP JUMPDEST JUMPDEST PUSH2 0x16E1 PUSH1 0xA0 PUSH2 0x1274 JUMP JUMPDEST SWAP1 POP PUSH1 0x0 DUP3 ADD CALLDATALOAD PUSH8 0xFFFFFFFFFFFFFFFF DUP2 GT ISZERO PUSH2 0x1701 JUMPI PUSH2 0x1700 PUSH2 0x16BC JUMP JUMPDEST JUMPDEST PUSH2 0x170D DUP5 DUP3 DUP6 ADD PUSH2 0x1311 JUMP JUMPDEST PUSH1 0x0 DUP4 ADD MSTORE POP PUSH1 0x20 DUP3 ADD CALLDATALOAD PUSH8 0xFFFFFFFFFFFFFFFF DUP2 GT ISZERO PUSH2 0x1731 JUMPI PUSH2 0x1730 PUSH2 0x16BC JUMP JUMPDEST JUMPDEST PUSH2 0x173D DUP5 DUP3 DUP6 ADD PUSH2 0x1311 JUMP JUMPDEST PUSH1 0x20 DUP4 ADD MSTORE POP PUSH1 0x40 DUP3 ADD CALLDATALOAD PUSH8 0xFFFFFFFFFFFFFFFF DUP2 GT ISZERO PUSH2 0x1761 JUMPI PUSH2 0x1760 PUSH2 0x16BC JUMP JUMPDEST JUMPDEST PUSH2 0x176D DUP5 DUP3 DUP6 ADD PUSH2 0x1311 JUMP JUMPDEST PUSH1 0x40 DUP4 ADD MSTORE POP PUSH1 0x60 DUP3 ADD CALLDATALOAD PUSH8 0xFFFFFFFFFFFFFFFF DUP2 GT ISZERO PUSH2 0x1791 JUMPI PUSH2 0x1790 PUSH2 0x16BC JUMP JUMPDEST JUMPDEST PUSH2 0x179D DUP5 DUP3 DUP6 ADD PUSH2 0x1311 JUMP JUMPDEST PUSH1 0x60 DUP4 ADD MSTORE POP PUSH1 0x80 PUSH2 0x17B1 DUP5 DUP3 DUP6 ADD PUSH2 0x1356 JUMP JUMPDEST PUSH1 0x80 DUP4 ADD MSTORE POP SWAP3 SWAP2 POP POP JUMP JUMPDEST PUSH1 0x0 PUSH2 0x17D0 PUSH2 0x17CB DUP5 PUSH2 0x1686 JUMP JUMPDEST PUSH2 0x1274 JUMP JUMPDEST SWAP1 POP DUP1 DUP4 DUP3 MSTORE PUSH1 0x20 DUP3 ADD SWAP1 POP PUSH1 0x20 DUP5 MUL DUP4 ADD DUP6 DUP2 GT ISZERO PUSH2 0x17F3 JUMPI PUSH2 0x17F2 PUSH2 0x16B2 JUMP JUMPDEST JUMPDEST DUP4 JUMPDEST DUP2 DUP2 LT ISZERO PUSH2 0x183A JUMPI DUP1 CALLDATALOAD PUSH8 0xFFFFFFFFFFFFFFFF DUP2 GT ISZERO PUSH2 0x1818 JUMPI PUSH2 0x1817 PUSH2 0x11F9 JUMP JUMPDEST JUMPDEST DUP1 DUP7 ADD PUSH2 0x1825 DUP10 DUP3 PUSH2 0x16C1 JUMP JUMPDEST DUP6 MSTORE PUSH1 0x20 DUP6 ADD SWAP5 POP POP POP PUSH1 0x20 DUP2 ADD SWAP1 POP PUSH2 0x17F5 JUMP JUMPDEST POP POP POP SWAP4 SWAP3 POP POP POP JUMP JUMPDEST PUSH1 0x0 DUP3 PUSH1 0x1F DUP4 ADD SLT PUSH2 0x1859 JUMPI PUSH2 0x1858 PUSH2 0x11F9 JUMP JUMPDEST JUMPDEST DUP2 CALLDATALOAD PUSH2 0x1869 DUP5 DUP3 PUSH1 0x20 DUP7 ADD PUSH2 0x17BD JUMP JUMPDEST SWAP2 POP POP SWAP3 SWAP2 POP POP JUMP JUMPDEST PUSH1 0x0 DUP1 PUSH1 0x0 DUP1 PUSH1 0x0 PUSH1 0xA0 DUP7 DUP9 SUB SLT ISZERO PUSH2 0x188E JUMPI PUSH2 0x188D PUSH2 0x11EF JUMP JUMPDEST JUMPDEST PUSH1 0x0 PUSH2 0x189C DUP9 DUP3 DUP10 ADD PUSH2 0x1638 JUMP JUMPDEST SWAP6 POP POP PUSH1 0x20 PUSH2 0x18AD DUP9 DUP3 DUP10 ADD PUSH2 0x1671 JUMP JUMPDEST SWAP5 POP POP PUSH1 0x40 PUSH2 0x18BE DUP9 DUP3 DUP10 ADD PUSH2 0x1638 JUMP JUMPDEST SWAP4 POP POP PUSH1 0x60 PUSH2 0x18CF DUP9 DUP3 DUP10 ADD PUSH2 0x1638 JUMP JUMPDEST SWAP3 POP POP PUSH1 0x80 DUP7 ADD CALLDATALOAD PUSH8 0xFFFFFFFFFFFFFFFF DUP2 GT ISZERO PUSH2 0x18F0 JUMPI PUSH2 0x18EF PUSH2 0x11F4 JUMP JUMPDEST JUMPDEST PUSH2 0x18FC DUP9 DUP3 DUP10 ADD PUSH2 0x1844 JUMP JUMPDEST SWAP2 POP POP SWAP3 SWAP6 POP SWAP3 SWAP6 SWAP1 SWAP4 POP JUMP JUMPDEST PUSH1 0x0 DUP2 MLOAD SWAP1 POP SWAP2 SWAP1 POP JUMP JUMPDEST PUSH1 0x0 DUP3 DUP3 MSTORE PUSH1 0x20 DUP3 ADD SWAP1 POP SWAP3 SWAP2 POP POP JUMP JUMPDEST PUSH1 0x0 DUP2 SWAP1 POP PUSH1 0x20 DUP3 ADD SWAP1 POP SWAP2 SWAP1 POP JUMP JUMPDEST PUSH1 0x0 DUP3 DUP3 MSTORE PUSH1 0x20 DUP3 ADD SWAP1 POP SWAP3 SWAP2 POP POP JUMP JUMPDEST PUSH1 0x0 PUSH2 0x1951 DUP3 PUSH2 0x1456 JUMP JUMPDEST PUSH2 0x195B DUP2 DUP6 PUSH2 0x1935 JUMP JUMPDEST SWAP4 POP PUSH2 0x196B DUP2 DUP6 PUSH1 0x20 DUP7 ADD PUSH2 0x1472 JUMP JUMPDEST PUSH2 0x1974 DUP2 PUSH2 0x1203 JUMP JUMPDEST DUP5 ADD SWAP2 POP POP SWAP3 SWAP2 POP POP JUMP JUMPDEST PUSH2 0x1988 DUP2 PUSH2 0x11A9 JUMP JUMPDEST DUP3 MSTORE POP POP JUMP JUMPDEST PUSH1 0x0 PUSH1 0xA0 DUP4 ADD PUSH1 0x0 DUP4 ADD MLOAD DUP5 DUP3 SUB PUSH1 0x0 DUP7 ADD MSTORE PUSH2 0x19AB DUP3 DUP3 PUSH2 0x1946 JUMP JUMPDEST SWAP2 POP POP PUSH1 0x20 DUP4 ADD MLOAD DUP5 DUP3 SUB PUSH1 0x20 DUP7 ADD MSTORE PUSH2 0x19C5 DUP3 DUP3 PUSH2 0x1946 JUMP JUMPDEST SWAP2 POP POP PUSH1 0x40 DUP4 ADD MLOAD DUP5 DUP3 SUB PUSH1 0x40 DUP7 ADD MSTORE PUSH2 0x19DF DUP3 DUP3 PUSH2 0x1946 JUMP JUMPDEST SWAP2 POP POP PUSH1 0x60 DUP4 ADD MLOAD DUP5 DUP3 SUB PUSH1 0x60 DUP7 ADD MSTORE PUSH2 0x19F9 DUP3 DUP3 PUSH2 0x1946 JUMP JUMPDEST SWAP2 POP POP PUSH1 0x80 DUP4 ADD MLOAD PUSH2 0x1A0E PUSH1 0x80 DUP7 ADD DUP3 PUSH2 0x197F JUMP JUMPDEST POP DUP1 SWAP2 POP POP SWAP3 SWAP2 POP POP JUMP JUMPDEST PUSH1 0x0 PUSH2 0x1A25 DUP4 DUP4 PUSH2 0x198E JUMP JUMPDEST SWAP1 POP SWAP3 SWAP2 POP POP JUMP JUMPDEST PUSH1 0x0 PUSH1 0x20 DUP3 ADD SWAP1 POP SWAP2 SWAP1 POP JUMP JUMPDEST PUSH1 0x0 PUSH2 0x1A45 DUP3 PUSH2 0x1909 JUMP JUMPDEST PUSH2 0x1A4F DUP2 DUP6 PUSH2 0x1914 JUMP JUMPDEST SWAP4 POP DUP4 PUSH1 0x20 DUP3 MUL DUP6 ADD PUSH2 0x1A61 DUP6 PUSH2 0x1925 JUMP JUMPDEST DUP1 PUSH1 0x0 JUMPDEST DUP6 DUP2 LT ISZERO PUSH2 0x1A9D JUMPI DUP5 DUP5 SUB DUP10 MSTORE DUP2 MLOAD PUSH2 0x1A7E DUP6 DUP3 PUSH2 0x1A19 JUMP JUMPDEST SWAP5 POP PUSH2 0x1A89 DUP4 PUSH2 0x1A2D JUMP JUMPDEST SWAP3 POP PUSH1 0x20 DUP11 ADD SWAP10 POP POP PUSH1 0x1 DUP2 ADD SWAP1 POP PUSH2 0x1A65 JUMP JUMPDEST POP DUP3 SWAP8 POP DUP8 SWAP6 POP POP POP POP POP POP SWAP3 SWAP2 POP POP JUMP JUMPDEST PUSH1 0x0 PUSH1 0x20 DUP3 ADD SWAP1 POP DUP2 DUP2 SUB PUSH1 0x0 DUP4 ADD MSTORE PUSH2 0x1AC9 DUP2 DUP5 PUSH2 0x1A3A JUMP JUMPDEST SWAP1 POP SWAP3 SWAP2 POP POP JUMP JUMPDEST PUSH32 0x4F776E61626C65236F6E6C794F776E65724F7243726561746F723A2053454E44 PUSH1 0x0 DUP3 ADD MSTORE PUSH32 0x45525F49535F4E4F545F4F574E45525F4F525F43524541544F52000000000000 PUSH1 0x20 DUP3 ADD MSTORE POP JUMP JUMPDEST PUSH1 0x0 PUSH2 0x1B2D PUSH1 0x3A DUP4 PUSH2 0x1461 JUMP JUMPDEST SWAP2 POP PUSH2 0x1B38 DUP3 PUSH2 0x1AD1 JUMP JUMPDEST PUSH1 0x40 DUP3 ADD SWAP1 POP SWAP2 SWAP1 POP JUMP JUMPDEST PUSH1 0x0 PUSH1 0x20 DUP3 ADD SWAP1 POP DUP2 DUP2 SUB PUSH1 0x0 DUP4 ADD MSTORE PUSH2 0x1B5C DUP2 PUSH2 0x1B20 JUMP JUMPDEST SWAP1 POP SWAP2 SWAP1 POP JUMP JUMPDEST PUSH32 0x4E487B7100000000000000000000000000000000000000000000000000000000 PUSH1 0x0 MSTORE PUSH1 0x22 PUSH1 0x4 MSTORE PUSH1 0x24 PUSH1 0x0 REVERT JUMPDEST PUSH1 0x0 PUSH1 0x2 DUP3 DIV SWAP1 POP PUSH1 0x1 DUP3 AND DUP1 PUSH2 0x1BAA JUMPI PUSH1 0x7F DUP3 AND SWAP2 POP JUMPDEST PUSH1 0x20 DUP3 LT DUP2 SUB PUSH2 0x1BBD JUMPI PUSH2 0x1BBC PUSH2 0x1B63 JUMP JUMPDEST JUMPDEST POP SWAP2 SWAP1 POP JUMP JUMPDEST PUSH32 0x6E61757468000000000000000000000000000000000000000000000000000000 PUSH1 0x0 DUP3 ADD MSTORE POP JUMP JUMPDEST PUSH1 0x0 PUSH2 0x1BF9 PUSH1 0x5 DUP4 PUSH2 0x1461 JUMP JUMPDEST SWAP2 POP PUSH2 0x1C04 DUP3 PUSH2 0x1BC3 JUMP JUMPDEST PUSH1 0x20 DUP3 ADD SWAP1 POP SWAP2 SWAP1 POP JUMP JUMPDEST PUSH1 0x0 PUSH1 0x20 DUP3 ADD SWAP1 POP DUP2 DUP2 SUB PUSH1 0x0 DUP4 ADD MSTORE PUSH2 0x1C28 DUP2 PUSH2 0x1BEC JUMP JUMPDEST SWAP1 POP SWAP2 SWAP1 POP JUMP JUMPDEST DUP1 DUP3 MSTORE POP POP JUMP JUMPDEST PUSH1 0x0 DUP3 DUP3 MSTORE PUSH1 0x20 DUP3 ADD SWAP1 POP SWAP3 SWAP2 POP POP JUMP JUMPDEST PUSH1 0x0 DUP3 DUP3 MSTORE PUSH1 0x20 DUP3 ADD SWAP1 POP SWAP3 SWAP2 POP POP JUMP JUMPDEST PUSH1 0x0 PUSH2 0x1C63 DUP3 PUSH2 0x1456 JUMP JUMPDEST PUSH2 0x1C6D DUP2 DUP6 PUSH2 0x1C47 JUMP JUMPDEST SWAP4 POP PUSH2 0x1C7D DUP2 DUP6 PUSH1 0x20 DUP7 ADD PUSH2 0x1472 JUMP JUMPDEST PUSH2 0x1C86 DUP2 PUSH2 0x1203 JUMP JUMPDEST DUP5 ADD SWAP2 POP POP SWAP3 SWAP2 POP POP JUMP JUMPDEST PUSH2 0x1C9A DUP2 PUSH2 0x11A9 JUMP JUMPDEST DUP3 MSTORE POP POP JUMP JUMPDEST PUSH1 0x0 PUSH1 0xA0 DUP4 ADD PUSH1 0x0 DUP4 ADD MLOAD DUP5 DUP3 SUB PUSH1 0x0 DUP7 ADD MSTORE PUSH2 0x1CBD DUP3 DUP3 PUSH2 0x1C58 JUMP JUMPDEST SWAP2 POP POP PUSH1 0x20 DUP4 ADD MLOAD DUP5 DUP3 SUB PUSH1 0x20 DUP7 ADD MSTORE PUSH2 0x1CD7 DUP3 DUP3 PUSH2 0x1C58 JUMP JUMPDEST SWAP2 POP POP PUSH1 0x40 DUP4 ADD MLOAD DUP5 DUP3 SUB PUSH1 0x40 DUP7 ADD MSTORE PUSH2 0x1CF1 DUP3 DUP3 PUSH2 0x1C58 JUMP JUMPDEST SWAP2 POP POP PUSH1 0x60 DUP4 ADD MLOAD DUP5 DUP3 SUB PUSH1 0x60 DUP7 ADD MSTORE PUSH2 0x1D0B DUP3 DUP3 PUSH2 0x1C58 JUMP JUMPDEST SWAP2 POP POP PUSH1 0x80 DUP4 ADD MLOAD PUSH2 0x1D20 PUSH1 0x80 DUP7 ADD DUP3 PUSH2 0x1C91 JUMP JUMPDEST POP DUP1 SWAP2 POP POP SWAP3 SWAP2 POP POP JUMP JUMPDEST PUSH1 0x0 PUSH2 0x1D37 DUP4 DUP4 PUSH2 0x1CA0 JUMP JUMPDEST SWAP1 POP SWAP3 SWAP2 POP POP JUMP JUMPDEST PUSH1 0x0 PUSH2 0x1D4A DUP3 PUSH2 0x1909 JUMP JUMPDEST PUSH2 0x1D54 DUP2 DUP6 PUSH2 0x1C36 JUMP JUMPDEST SWAP4 POP DUP4 PUSH1 0x20 DUP3 MUL DUP6 ADD PUSH2 0x1D66 DUP6 PUSH2 0x1925 JUMP JUMPDEST DUP1 PUSH1 0x0 JUMPDEST DUP6 DUP2 LT ISZERO PUSH2 0x1DA2 JUMPI DUP5 DUP5 SUB DUP10 MSTORE DUP2 MLOAD PUSH2 0x1D83 DUP6 DUP3 PUSH2 0x1D2B JUMP JUMPDEST SWAP5 POP PUSH2 0x1D8E DUP4 PUSH2 0x1A2D JUMP JUMPDEST SWAP3 POP PUSH1 0x20 DUP11 ADD SWAP10 POP POP PUSH1 0x1 DUP2 ADD SWAP1 POP PUSH2 0x1D6A JUMP JUMPDEST POP DUP3 SWAP8 POP DUP8 SWAP6 POP POP POP POP POP POP SWAP3 SWAP2 POP POP JUMP JUMPDEST PUSH1 0x0 PUSH1 0x40 DUP3 ADD SWAP1 POP PUSH2 0x1DC9 PUSH1 0x0 DUP4 ADD DUP6 PUSH2 0x1C2F JUMP JUMPDEST DUP2 DUP2 SUB PUSH1 0x20 DUP4 ADD MSTORE PUSH2 0x1DDB DUP2 DUP5 PUSH2 0x1D3F JUMP JUMPDEST SWAP1 POP SWAP4 SWAP3 POP POP POP JUMP JUMPDEST PUSH1 0x0 DUP2 SWAP1 POP SWAP3 SWAP2 POP POP JUMP JUMPDEST PUSH1 0x0 PUSH2 0x1DFA DUP3 PUSH2 0x1456 JUMP JUMPDEST PUSH2 0x1E04 DUP2 DUP6 PUSH2 0x1DE4 JUMP JUMPDEST SWAP4 POP PUSH2 0x1E14 DUP2 DUP6 PUSH1 0x20 DUP7 ADD PUSH2 0x1472 JUMP JUMPDEST DUP1 DUP5 ADD SWAP2 POP POP SWAP3 SWAP2 POP POP JUMP JUMPDEST PUSH1 0x0 PUSH2 0x1E2C DUP3 DUP5 PUSH2 0x1DEF JUMP JUMPDEST SWAP2 POP DUP2 SWAP1 POP SWAP3 SWAP2 POP POP JUMP JUMPDEST PUSH1 0x0 DUP2 SWAP1 POP DUP2 PUSH1 0x0 MSTORE PUSH1 0x20 PUSH1 0x0 KECCAK256 SWAP1 POP SWAP2 SWAP1 POP JUMP JUMPDEST PUSH1 0x0 PUSH1 0x20 PUSH1 0x1F DUP4 ADD DIV SWAP1 POP SWAP2 SWAP1 POP JUMP JUMPDEST PUSH1 0x0 DUP3 DUP3 SHL SWAP1 POP SWAP3 SWAP2 POP POP JUMP JUMPDEST PUSH1 0x0 PUSH1 0x8 DUP4 MUL PUSH2 0x1E99 PUSH32 0xFFFFFFFFFFFFFFFFFFFFFFFFFFFFFFFFFFFFFFFFFFFFFFFFFFFFFFFFFFFFFFFF DUP3 PUSH2 0x1E5C JUMP JUMPDEST PUSH2 0x1EA3 DUP7 DUP4 PUSH2 0x1E5C JUMP JUMPDEST SWAP6 POP DUP1 NOT DUP5 AND SWAP4 POP DUP1 DUP7 AND DUP5 OR SWAP3 POP POP POP SWAP4 SWAP3 POP POP POP JUMP JUMPDEST PUSH1 0x0 DUP2 SWAP1 POP SWAP2 SWAP1 POP JUMP JUMPDEST PUSH1 0x0 DUP2 SWAP1 POP SWAP2 SWAP1 POP JUMP JUMPDEST PUSH1 0x0 PUSH2 0x1EEA PUSH2 0x1EE5 PUSH2 0x1EE0 DUP5 PUSH2 0x1EBB JUMP JUMPDEST PUSH2 0x1EC5 JUMP JUMPDEST PUSH2 0x1EBB JUMP JUMPDEST SWAP1 POP SWAP2 SWAP1 POP JUMP JUMPDEST PUSH1 0x0 DUP2 SWAP1 POP SWAP2 SWAP1 POP JUMP JUMPDEST PUSH2 0x1F04 DUP4 PUSH2 0x1ECF JUMP JUMPDEST PUSH2 0x1F18 PUSH2 0x1F10 DUP3 PUSH2 0x1EF1 JUMP JUMPDEST DUP5 DUP5 SLOAD PUSH2 0x1E69 JUMP JUMPDEST DUP3 SSTORE POP POP POP POP JUMP JUMPDEST PUSH1 0x0 SWAP1 JUMP JUMPDEST PUSH2 0x1F2D PUSH2 0x1F20 JUMP JUMPDEST PUSH2 0x1F38 DUP2 DUP5 DUP5 PUSH2 0x1EFB JUMP JUMPDEST POP POP POP JUMP JUMPDEST JUMPDEST DUP2 DUP2 LT ISZERO PUSH2 0x1F5C JUMPI PUSH2 0x1F51 PUSH1 0x0 DUP3 PUSH2 0x1F25 JUMP JUMPDEST PUSH1 0x1 DUP2 ADD SWAP1 POP PUSH2 0x1F3E JUMP JUMPDEST POP POP JUMP JUMPDEST PUSH1 0x1F DUP3 GT ISZERO PUSH2 0x1FA1 JUMPI PUSH2 0x1F72 DUP2 PUSH2 0x1E37 JUMP JUMPDEST PUSH2 0x1F7B DUP5 PUSH2 0x1E4C JUMP JUMPDEST DUP2 ADD PUSH1 0x20 DUP6 LT ISZERO PUSH2 0x1F8A JUMPI DUP2 SWAP1 POP JUMPDEST PUSH2 0x1F9E PUSH2 0x1F96 DUP6 PUSH2 0x1E4C JUMP JUMPDEST DUP4 ADD DUP3 PUSH2 0x1F3D JUMP JUMPDEST POP POP JUMPDEST POP POP POP JUMP JUMPDEST PUSH1 0x0 DUP3 DUP3 SHR SWAP1 POP SWAP3 SWAP2 POP POP JUMP JUMPDEST PUSH1 0x0 PUSH2 0x1FC4 PUSH1 0x0 NOT DUP5 PUSH1 0x8 MUL PUSH2 0x1FA6 JUMP JUMPDEST NOT DUP1 DUP4 AND SWAP2 POP POP SWAP3 SWAP2 POP POP JUMP JUMPDEST PUSH1 0x0 PUSH2 0x1FDD DUP4 DUP4 PUSH2 0x1FB3 JUMP JUMPDEST SWAP2 POP DUP3 PUSH1 0x2 MUL DUP3 OR SWAP1 POP SWAP3 SWAP2 POP POP JUMP JUMPDEST PUSH2 0x1FF6 DUP3 PUSH2 0x1456 JUMP JUMPDEST PUSH8 0xFFFFFFFFFFFFFFFF DUP2 GT ISZERO PUSH2 0x200F JUMPI PUSH2 0x200E PUSH2 0x1214 JUMP JUMPDEST JUMPDEST PUSH2 0x2019 DUP3 SLOAD PUSH2 0x1B92 JUMP JUMPDEST PUSH2 0x2024 DUP3 DUP3 DUP6 PUSH2 0x1F60 JUMP JUMPDEST PUSH1 0x0 PUSH1 0x20 SWAP1 POP PUSH1 0x1F DUP4 GT PUSH1 0x1 DUP2 EQ PUSH2 0x2057 JUMPI PUSH1 0x0 DUP5 ISZERO PUSH2 0x2045 JUMPI DUP3 DUP8 ADD MLOAD SWAP1 POP JUMPDEST PUSH2 0x204F DUP6 DUP3 PUSH2 0x1FD1 JUMP JUMPDEST DUP7 SSTORE POP PUSH2 0x20B7 JUMP JUMPDEST PUSH1 0x1F NOT DUP5 AND PUSH2 0x2065 DUP7 PUSH2 0x1E37 JUMP JUMPDEST PUSH1 0x0 JUMPDEST DUP3 DUP2 LT ISZERO PUSH2 0x208D JUMPI DUP5 DUP10 ADD MLOAD DUP3 SSTORE PUSH1 0x1 DUP3 ADD SWAP2 POP PUSH1 0x20 DUP6 ADD SWAP5 POP PUSH1 0x20 DUP2 ADD SWAP1 POP PUSH2 0x2068 JUMP JUMPDEST DUP7 DUP4 LT ISZERO PUSH2 0x20AA JUMPI DUP5 DUP10 ADD MLOAD PUSH2 0x20A6 PUSH1 0x1F DUP10 AND DUP3 PUSH2 0x1FB3 JUMP JUMPDEST DUP4 SSTORE POP JUMPDEST PUSH1 0x1 PUSH1 0x2 DUP9 MUL ADD DUP9 SSTORE POP POP POP JUMPDEST POP POP POP POP POP POP JUMP JUMPDEST PUSH32 0x4E487B7100000000000000000000000000000000000000000000000000000000 PUSH1 0x0 MSTORE PUSH1 0x32 PUSH1 0x4 MSTORE PUSH1 0x24 PUSH1 0x0 REVERT JUMPDEST PUSH1 0x0 DUP2 SLOAD PUSH2 0x20FB DUP2 PUSH2 0x1B92 JUMP JUMPDEST PUSH2 0x2105 DUP2 DUP7 PUSH2 0x1DE4 JUMP JUMPDEST SWAP5 POP PUSH1 0x1 DUP3 AND PUSH1 0x0 DUP2 EQ PUSH2 0x2120 JUMPI PUSH1 0x1 DUP2 EQ PUSH2 0x2135 JUMPI PUSH2 0x2168 JUMP JUMPDEST PUSH1 0xFF NOT DUP4 AND DUP7 MSTORE DUP2 ISZERO ISZERO DUP3 MUL DUP7 ADD SWAP4 POP PUSH2 0x2168 JUMP JUMPDEST PUSH2 0x213E DUP6 PUSH2 0x1E37 JUMP JUMPDEST PUSH1 0x0 JUMPDEST DUP4 DUP2 LT ISZERO PUSH2 0x2160 JUMPI DUP2 SLOAD DUP2 DUP10 ADD MSTORE PUSH1 0x1 DUP3 ADD SWAP2 POP PUSH1 0x20 DUP2 ADD SWAP1 POP PUSH2 0x2141 JUMP JUMPDEST DUP4 DUP9 ADD SWAP6 POP POP POP JUMPDEST POP POP POP SWAP3 SWAP2 POP POP JUMP JUMPDEST PUSH1 0x0 PUSH2 0x217D DUP3 DUP5 PUSH2 0x20EE JUMP JUMPDEST SWAP2 POP DUP2 SWAP1 POP SWAP3 SWAP2 POP POP JUMP JUMPDEST PUSH32 0x4E487B7100000000000000000000000000000000000000000000000000000000 PUSH1 0x0 MSTORE PUSH1 0x11 PUSH1 0x4 MSTORE PUSH1 0x24 PUSH1 0x0 REVERT JUMPDEST PUSH1 0x0 PUSH2 0x21C2 DUP3 PUSH2 0x1EBB JUMP JUMPDEST SWAP2 POP PUSH2 0x21CD DUP4 PUSH2 0x1EBB JUMP JUMPDEST SWAP3 POP DUP3 DUP3 SUB SWAP1 POP DUP2 DUP2 GT ISZERO PUSH2 0x21E5 JUMPI PUSH2 0x21E4 PUSH2 0x2188 JUMP JUMPDEST JUMPDEST SWAP3 SWAP2 POP POP JUMP JUMPDEST PUSH1 0x0 DUP2 SLOAD SWAP1 POP PUSH2 0x21FA DUP2 PUSH2 0x1B92 JUMP JUMPDEST SWAP1 POP SWAP2 SWAP1 POP JUMP JUMPDEST PUSH1 0x0 DUP2 SWAP1 POP DUP2 PUSH1 0x0 MSTORE PUSH1 0x20 PUSH1 0x0 KECCAK256 SWAP1 POP SWAP2 SWAP1 POP JUMP JUMPDEST DUP2 DUP2 SUB PUSH2 0x2224 JUMPI POP POP PUSH2 0x22FC JUMP JUMPDEST PUSH2 0x222D DUP3 PUSH2 0x21EB JUMP JUMPDEST PUSH8 0xFFFFFFFFFFFFFFFF DUP2 GT ISZERO PUSH2 0x2246 JUMPI PUSH2 0x2245 PUSH2 0x1214 JUMP JUMPDEST JUMPDEST PUSH2 0x2250 DUP3 SLOAD PUSH2 0x1B92 JUMP JUMPDEST PUSH2 0x225B DUP3 DUP3 DUP6 PUSH2 0x1F60 JUMP JUMPDEST PUSH1 0x0 PUSH1 0x1F DUP4 GT PUSH1 0x1 DUP2 EQ PUSH2 0x228A JUMPI PUSH1 0x0 DUP5 ISZERO PUSH2 0x2278 JUMPI DUP3 DUP8 ADD SLOAD SWAP1 POP JUMPDEST PUSH2 0x2282 DUP6 DUP3 PUSH2 0x1FD1 JUMP JUMPDEST DUP7 SSTORE POP PUSH2 0x22F5 JUMP JUMPDEST PUSH1 0x1F NOT DUP5 AND PUSH2 0x2298 DUP8 PUSH2 0x2201 JUMP JUMPDEST SWAP7 POP PUSH2 0x22A3 DUP7 PUSH2 0x1E37 JUMP JUMPDEST PUSH1 0x0 JUMPDEST DUP3 DUP2 LT ISZERO PUSH2 0x22CB JUMPI DUP5 DUP10 ADD SLOAD DUP3 SSTORE PUSH1 0x1 DUP3 ADD SWAP2 POP PUSH1 0x1 DUP6 ADD SWAP5 POP PUSH1 0x20 DUP2 ADD SWAP1 POP PUSH2 0x22A6 JUMP JUMPDEST DUP7 DUP4 LT ISZERO PUSH2 0x22E8 JUMPI DUP5 DUP10 ADD SLOAD PUSH2 0x22E4 PUSH1 0x1F DUP10 AND DUP3 PUSH2 0x1FB3 JUMP JUMPDEST DUP4 SSTORE POP JUMPDEST PUSH1 0x1 PUSH1 0x2 DUP9 MUL ADD DUP9 SSTORE POP POP POP JUMPDEST POP POP POP POP POP POP JUMPDEST JUMP JUMPDEST PUSH32 0x4E487B7100000000000000000000000000000000000000000000000000000000 PUSH1 0x0 MSTORE PUSH1 0x31 PUSH1 0x4 MSTORE PUSH1 0x24 PUSH1 0x0 REVERT JUMPDEST PUSH32 0x494F420000000000000000000000000000000000000000000000000000000000 PUSH1 0x0 DUP3 ADD MSTORE POP JUMP JUMPDEST PUSH1 0x0 PUSH2 0x2363 PUSH1 0x3 DUP4 PUSH2 0x1461 JUMP JUMPDEST SWAP2 POP PUSH2 0x236E DUP3 PUSH2 0x232D JUMP JUMPDEST PUSH1 0x20 DUP3 ADD SWAP1 POP SWAP2 SWAP1 POP JUMP JUMPDEST PUSH1 0x0 PUSH1 0x20 DUP3 ADD SWAP1 POP DUP2 DUP2 SUB PUSH1 0x0 DUP4 ADD MSTORE PUSH2 0x2392 DUP2 PUSH2 0x2356 JUMP JUMPDEST SWAP1 POP SWAP2 SWAP1 POP JUMP JUMPDEST PUSH1 0x0 DUP2 MLOAD SWAP1 POP SWAP2 SWAP1 POP JUMP JUMPDEST PUSH1 0x0 DUP2 SWAP1 POP SWAP3 SWAP2 POP POP JUMP JUMPDEST PUSH1 0x0 PUSH2 0x23BA DUP3 PUSH2 0x2399 JUMP JUMPDEST PUSH2 0x23C4 DUP2 DUP6 PUSH2 0x23A4 JUMP JUMPDEST SWAP4 POP PUSH2 0x23D4 DUP2 DUP6 PUSH1 0x20 DUP7 ADD PUSH2 0x1472 JUMP JUMPDEST DUP1 DUP5 ADD SWAP2 POP POP SWAP3 SWAP2 POP POP JUMP JUMPDEST PUSH1 0x0 DUP2 SWAP1 POP SWAP2 SWAP1 POP JUMP JUMPDEST PUSH2 0x23FB PUSH2 0x23F6 DUP3 PUSH2 0x1617 JUMP JUMPDEST PUSH2 0x23E0 JUMP JUMPDEST DUP3 MSTORE POP POP JUMP JUMPDEST PUSH1 0x0 PUSH2 0x240D DUP3 DUP6 PUSH2 0x23AF JUMP JUMPDEST SWAP2 POP PUSH2 0x2419 DUP3 DUP5 PUSH2 0x23EA JUMP JUMPDEST PUSH1 0x20 DUP3 ADD SWAP2 POP DUP2 SWAP1 POP SWAP4 SWAP3 POP POP POP JUMP JUMPDEST PUSH2 0x2432 DUP2 PUSH2 0x1617 JUMP JUMPDEST DUP3 MSTORE POP POP JUMP JUMPDEST PUSH2 0x2441 DUP2 PUSH2 0x164D JUMP JUMPDEST DUP3 MSTORE POP POP JUMP JUMPDEST PUSH1 0x0 PUSH1 0x80 DUP3 ADD SWAP1 POP PUSH2 0x245C PUSH1 0x0 DUP4 ADD DUP8 PUSH2 0x2429 JUMP JUMPDEST PUSH2 0x2469 PUSH1 0x20 DUP4 ADD DUP7 PUSH2 0x2438 JUMP JUMPDEST PUSH2 0x2476 PUSH1 0x40 DUP4 ADD DUP6 PUSH2 0x2429 JUMP JUMPDEST PUSH2 0x2483 PUSH1 0x60 DUP4 ADD DUP5 PUSH2 0x2429 JUMP JUMPDEST SWAP6 SWAP5 POP POP POP POP POP JUMP INVALID LOG2 PUSH5 0x6970667358 0x22 SLT KECCAK256 ISZERO 0xBC BALANCE PUSH1 0xBF SWAP6 0x2C 0xEF 0xEB PUSH21 0x36C3CA0E5C51A192CC60EA28400562B3D52F397E81 0xE3 PUSH5 0x736F6C6343 STOP ADDMOD XOR STOP CALLER "},"methodIdentifiers":{"addSharedFile(string,string,string,string,address)":"384e477d","createFile(string,string,string,string)":"d590e7ef","deleteFile(string)":"a9910054","getAllFiles()":"ff24b5d5","getCreator()":"0ee2cb10","getOwner()":"893d20e8","getUser()":"832880e7","migrateFiles(bytes32,uint8,bytes32,bytes32,(string,string,string,string,address)[])":"ebd2251b","user()":"4f8632ba"}}}}}