{"contracts/PeerSafeDeployer.sol":{"PeerSafeDeployer":{"abi":[{"inputs":[{"internalType":"address","name":"_deployer","type":"address"}],"stateMutability":"nonpayable","type":"constructor"},{"anonymous":false,"inputs":[{"indexed":true,"internalType":"address","name":"previousOwner","type":"address"},{"indexed":true,"internalType":"address","name":"newOwner","type":"address"}],"name":"OwnershipTransferred","type":"event"},{"inputs":[{"internalType":"bytes32","name":"_hashedMessage","type":"bytes32"},{"internalType":"uint8","name":"_v","type":"uint8"},{"internalType":"bytes32","name":"_r","type":"bytes32"},{"internalType":"bytes32","name":"_s","type":"bytes32"},{"internalType":"string","name":"_fileHash","type":"string"}],"name":"acceptShareRequest","outputs":[],"stateMutability":"nonpayable","type":"function"},{"inputs":[],"name":"adminAllVaults","outputs":[{"internalType":"address[]","name":"","type":"address[]"},{"internalType":"address[]","name":"","type":"address[]"}],"stateMutability":"view","type":"function"},{"inputs":[{"internalType":"string","name":"name","type":"string"},{"internalType":"string","name":"fileType","type":"string"},{"internalType":"string","name":"ipfsHash","type":"string"},{"internalType":"string","name":"key","type":"string"},{"internalType":"bytes32","name":"_hashedMessage","type":"bytes32"},{"internalType":"uint8","name":"_v","type":"uint8"},{"internalType":"bytes32","name":"_r","type":"bytes32"},{"internalType":"bytes32","name":"_s","type":"bytes32"}],"name":"createFile","outputs":[],"stateMutability":"nonpayable","type":"function"},{"inputs":[{"internalType":"bytes32","name":"_hashedMessage","type":"bytes32"},{"internalType":"uint8","name":"_v","type":"uint8"},{"internalType":"bytes32","name":"_r","type":"bytes32"},{"internalType":"bytes32","name":"_s","type":"bytes32"},{"internalType":"string","name":"ipfsHash","type":"string"}],"name":"deleteFile","outputs":[],"stateMutability":"nonpayable","type":"function"},{"inputs":[{"internalType":"string","name":"_userName","type":"string"},{"internalType":"bytes32","name":"_hashedMessage","type":"bytes32"},{"internalType":"uint8","name":"_v","type":"uint8"},{"internalType":"bytes32","name":"_r","type":"bytes32"},{"internalType":"bytes32","name":"_s","type":"bytes32"}],"name":"deploy","outputs":[{"internalType":"address","name":"","type":"address"}],"stateMutability":"nonpayable","type":"function"},{"inputs":[{"internalType":"bytes32","name":"_hashedMessage","type":"bytes32"},{"internalType":"uint8","name":"_v","type":"uint8"},{"internalType":"bytes32","name":"_r","type":"bytes32"},{"internalType":"bytes32","name":"_s","type":"bytes32"}],"name":"getAllFiles","outputs":[{"components":[{"internalType":"string","name":"_name","type":"string"},{"internalType":"string","name":"_fileType","type":"string"},{"internalType":"string","name":"_ipfsHash","type":"string"},{"internalType":"string","name":"_key","type":"string"},{"internalType":"address","name":"_sharedBy","type":"address"}],"internalType":"struct File[]","name":"","type":"tuple[]"}],"stateMutability":"view","type":"function"},{"inputs":[],"name":"getCreator","outputs":[{"internalType":"address","name":"","type":"address"}],"stateMutability":"view","type":"function"},{"inputs":[],"name":"getOwner","outputs":[{"internalType":"address","name":"","type":"address"}],"stateMutability":"view","type":"function"},{"inputs":[{"internalType":"address","name":"_user","type":"address"}],"name":"getPubKey","outputs":[{"internalType":"bytes","name":"","type":"bytes"}],"stateMutability":"view","type":"function"},{"inputs":[{"internalType":"bytes32","name":"_hashedMessage","type":"bytes32"},{"internalType":"uint8","name":"_v","type":"uint8"},{"internalType":"bytes32","name":"_r","type":"bytes32"},{"internalType":"bytes32","name":"_s","type":"bytes32"}],"name":"getShareRequests","outputs":[{"components":[{"internalType":"address","name":"_from","type":"address"},{"internalType":"string","name":"_fileHash","type":"string"},{"internalType":"string","name":"_keyHash","type":"string"},{"internalType":"string","name":"_name","type":"string"},{"internalType":"string","name":"_fileType","type":"string"}],"internalType":"struct ShareRequest[]","name":"","type":"tuple[]"}],"stateMutability":"view","type":"function"},{"inputs":[{"internalType":"address","name":"_vaultOwner","type":"address"}],"name":"getVault","outputs":[{"internalType":"address","name":"","type":"address"}],"stateMutability":"view","type":"function"},{"inputs":[{"internalType":"bytes32","name":"_hashedMessage","type":"bytes32"},{"internalType":"uint8","name":"_v","type":"uint8"},{"internalType":"bytes32","name":"_r","type":"bytes32"},{"internalType":"bytes32","name":"_s","type":"bytes32"},{"internalType":"string","name":"_fileHash","type":"string"}],"name":"rejectShareRequest","outputs":[],"stateMutability":"nonpayable","type":"function"},{"inputs":[{"internalType":"bytes32","name":"_hashedMessage","type":"bytes32"},{"internalType":"uint8","name":"_v","type":"uint8"},{"internalType":"bytes32","name":"_r","type":"bytes32"},{"internalType":"bytes32","name":"_s","type":"bytes32"},{"internalType":"address","name":"_to","type":"address"},{"internalType":"string","name":"_fileHash","type":"string"},{"internalType":"string","name":"_keyHash","type":"string"},{"internalType":"string","name":"_name","type":"string"},{"internalType":"string","name":"_fileType","type":"string"}],"name":"sendShareRequest","outputs":[],"stateMutability":"nonpayable","type":"function"}],"evm":{"bytecode":{"linkReferences":{},"object":"60806040523480156200001157600080fd5b5060405162005454380380620054548339818101604052810190620000379190620001c9565b3333806000806101000a81548173ffffffffffffffffffffffffffffffffffffffff021916908373ffffffffffffffffffffffffffffffffffffffff16021790555081600160006101000a81548173ffffffffffffffffffffffffffffffffffffffff021916908373ffffffffffffffffffffffffffffffffffffffff1602179055508073ffffffffffffffffffffffffffffffffffffffff16600073ffffffffffffffffffffffffffffffffffffffff167f8be0079c531659141344cd1fd0a4f28419497f9722a3daafe3b4186f6b6457e060405160405180910390a3505080600460006101000a81548173ffffffffffffffffffffffffffffffffffffffff021916908373ffffffffffffffffffffffffffffffffffffffff16021790555050620001fb565b600080fd5b600073ffffffffffffffffffffffffffffffffffffffff82169050919050565b6000620001918262000164565b9050919050565b620001a38162000184565b8114620001af57600080fd5b50565b600081519050620001c38162000198565b92915050565b600060208284031215620001e257620001e16200015f565b5b6000620001f284828501620001b2565b91505092915050565b615249806200020b6000396000f3fe608060405234801561001057600080fd5b50600436106100cf5760003560e01c8063893d20e81161008c578063d8b63c8a11610066578063d8b63c8a14610210578063e04e02831461022f578063e4f0c9161461025f578063fce9512a1461027b576100cf565b8063893d20e8146101a65780639d6944c2146101c4578063b1a81bd5146101f4576100cf565b80630eb9af38146100d45780630ee2cb1014610104578063146aa7f7146101225780632fd005c81461013e578063633072e41461016e5780636b11bc491461018a575b600080fd5b6100ee60048036038101906100e99190613808565b6102ab565b6040516100fb9190613844565b60405180910390f35b61010c61038b565b6040516101199190613844565b60405180910390f35b61013c60048036038101906101379190613a14565b6103b5565b005b61015860048036038101906101539190613aab565b6104a0565b6040516101659190613ced565b60405180910390f35b61018860048036038101906101839190613a14565b610540565b005b6101a4600480360381019061019f9190613a14565b61056e565b005b6101ae610b18565b6040516101bb9190613844565b60405180910390f35b6101de60048036038101906101d99190613d0f565b610b41565b6040516101eb9190613844565b60405180910390f35b61020e60048036038101906102099190613da6565b610d36565b005b610218610e2a565b604051610226929190613f7b565b60405180910390f35b61024960048036038101906102449190613aab565b6110b5565b60405161025691906140ff565b60405180910390f35b61027960048036038101906102749190614121565b6111ae565b005b61029560048036038101906102909190613808565b6112e8565b6040516102a291906142b0565b60405180910390f35b600080600260008473ffffffffffffffffffffffffffffffffffffffff1673ffffffffffffffffffffffffffffffffffffffff16815260200190815260200160002060000160009054906101000a900473ffffffffffffffffffffffffffffffffffffffff169050600073ffffffffffffffffffffffffffffffffffffffff168173ffffffffffffffffffffffffffffffffffffffff1603610382576040517f08c379a00000000000000000000000000000000000000000000000000000000081526004016103799061432f565b60405180910390fd5b80915050919050565b6000600160009054906101000a900473ffffffffffffffffffffffffffffffffffffffff16905090565b60006103c3868686866113bc565b90506000600260008373ffffffffffffffffffffffffffffffffffffffff1673ffffffffffffffffffffffffffffffffffffffff16815260200190815260200160002060000160009054906101000a900473ffffffffffffffffffffffffffffffffffffffff1690508073ffffffffffffffffffffffffffffffffffffffff1663a9910054846040518263ffffffff1660e01b81526004016104659190614388565b600060405180830381600087803b15801561047f57600080fd5b505af1158015610493573d6000803e3d6000fd5b5050505050505050505050565b606060006104b0868686866113bc565b9050600073ffffffffffffffffffffffffffffffffffffffff168173ffffffffffffffffffffffffffffffffffffffff1603610521576040517f08c379a0000000000000000000000000000000000000000000000000000000008152600401610518906143f6565b60405180910390fd5b61053581600561147f90919063ffffffff16565b915050949350505050565b600061054e868686866113bc565b9050610566818360056119049092919063ffffffff16565b505050505050565b600061057c868686866113bc565b9050600073ffffffffffffffffffffffffffffffffffffffff16600560000160008373ffffffffffffffffffffffffffffffffffffffff1673ffffffffffffffffffffffffffffffffffffffff168152602001908152602001600020836040516105e69190614452565b908152602001604051809103902060000160009054906101000a900473ffffffffffffffffffffffffffffffffffffffff1673ffffffffffffffffffffffffffffffffffffffff160361066e576040517f08c379a0000000000000000000000000000000000000000000000000000000008152600401610665906144b5565b60405180910390fd5b6000600260008373ffffffffffffffffffffffffffffffffffffffff1673ffffffffffffffffffffffffffffffffffffffff16815260200190815260200160002060010180546106bd90614504565b9050036106ff576040517f08c379a00000000000000000000000000000000000000000000000000000000081526004016106f6906143f6565b60405180910390fd5b6000600260008373ffffffffffffffffffffffffffffffffffffffff1673ffffffffffffffffffffffffffffffffffffffff16815260200190815260200160002060000160009054906101000a900473ffffffffffffffffffffffffffffffffffffffff1690506000600560000160008473ffffffffffffffffffffffffffffffffffffffff1673ffffffffffffffffffffffffffffffffffffffff168152602001908152602001600020846040516107b89190614452565b90815260200160405180910390206040518060a00160405290816000820160009054906101000a900473ffffffffffffffffffffffffffffffffffffffff1673ffffffffffffffffffffffffffffffffffffffff1673ffffffffffffffffffffffffffffffffffffffff16815260200160018201805461083790614504565b80601f016020809104026020016040519081016040528092919081815260200182805461086390614504565b80156108b05780601f10610885576101008083540402835291602001916108b0565b820191906000526020600020905b81548152906001019060200180831161089357829003601f168201915b505050505081526020016002820180546108c990614504565b80601f01602080910402602001604051908101604052809291908181526020018280546108f590614504565b80156109425780601f1061091757610100808354040283529160200191610942565b820191906000526020600020905b81548152906001019060200180831161092557829003601f168201915b5050505050815260200160038201805461095b90614504565b80601f016020809104026020016040519081016040528092919081815260200182805461098790614504565b80156109d45780601f106109a9576101008083540402835291602001916109d4565b820191906000526020600020905b8154815290600101906020018083116109b757829003601f168201915b505050505081526020016004820180546109ed90614504565b80601f0160208091040260200160405190810160405280929190818152602001828054610a1990614504565b8015610a665780601f10610a3b57610100808354040283529160200191610a66565b820191906000526020600020905b815481529060010190602001808311610a4957829003601f168201915b50505050508152505090508173ffffffffffffffffffffffffffffffffffffffff1663384e477d826060015183608001518460200151856040015186600001516040518663ffffffff1660e01b8152600401610ac6959493929190614535565b600060405180830381600087803b158015610ae057600080fd5b505af1158015610af4573d6000803e3d6000fd5b50505050610b0e838560056119049092919063ffffffff16565b5050505050505050565b60008060009054906101000a900473ffffffffffffffffffffffffffffffffffffffff16905090565b6000806000610b5287878787611b46565b915091506000600460009054906101000a900473ffffffffffffffffffffffffffffffffffffffff1673ffffffffffffffffffffffffffffffffffffffff1663918aaff5848b6040518363ffffffff1660e01b8152600401610bb59291906145a4565b6020604051808303816000875af1158015610bd4573d6000803e3d6000fd5b505050506040513d601f19601f82011682018060405250810190610bf891906145e9565b905060405180604001604052808273ffffffffffffffffffffffffffffffffffffffff16815260200183815250600260008573ffffffffffffffffffffffffffffffffffffffff1673ffffffffffffffffffffffffffffffffffffffff16815260200190815260200160002060008201518160000160006101000a81548173ffffffffffffffffffffffffffffffffffffffff021916908373ffffffffffffffffffffffffffffffffffffffff1602179055506020820151816001019081610cc091906147cc565b509050506003839080600181540180825580915050600190039060005260206000200160009091909190916101000a81548173ffffffffffffffffffffffffffffffffffffffff021916908373ffffffffffffffffffffffffffffffffffffffff16021790555080935050505095945050505050565b6000610d44858585856113bc565b90506000600260008373ffffffffffffffffffffffffffffffffffffffff1673ffffffffffffffffffffffffffffffffffffffff16815260200190815260200160002060000160009054906101000a900473ffffffffffffffffffffffffffffffffffffffff1690508073ffffffffffffffffffffffffffffffffffffffff1663d590e7ef8b8b8b8b6040518563ffffffff1660e01b8152600401610dec949392919061489e565b600060405180830381600087803b158015610e0657600080fd5b505af1158015610e1a573d6000803e3d6000fd5b5050505050505050505050505050565b60608060008054906101000a900473ffffffffffffffffffffffffffffffffffffffff1673ffffffffffffffffffffffffffffffffffffffff163373ffffffffffffffffffffffffffffffffffffffff161480610ed45750600160009054906101000a900473ffffffffffffffffffffffffffffffffffffffff1673ffffffffffffffffffffffffffffffffffffffff163373ffffffffffffffffffffffffffffffffffffffff16145b610f13576040517f08c379a0000000000000000000000000000000000000000000000000000000008152600401610f0a90614971565b60405180910390fd5b606060005b600380549050811015611020576002600060038381548110610f3d57610f3c614991565b5b9060005260206000200160009054906101000a900473ffffffffffffffffffffffffffffffffffffffff1673ffffffffffffffffffffffffffffffffffffffff1673ffffffffffffffffffffffffffffffffffffffff16815260200190815260200160002060000160009054906101000a900473ffffffffffffffffffffffffffffffffffffffff16828281518110610fd957610fd8614991565b5b602002602001019073ffffffffffffffffffffffffffffffffffffffff16908173ffffffffffffffffffffffffffffffffffffffff16815250508080600101915050610f18565b50600381818054806020026020016040519081016040528092919081815260200182805480156110a557602002820191906000526020600020905b8160009054906101000a900473ffffffffffffffffffffffffffffffffffffffff1673ffffffffffffffffffffffffffffffffffffffff168152602001906001019080831161105b575b5050505050915092509250509091565b606060006110c5868686866113bc565b90506000600260008373ffffffffffffffffffffffffffffffffffffffff1673ffffffffffffffffffffffffffffffffffffffff16815260200190815260200160002060000160009054906101000a900473ffffffffffffffffffffffffffffffffffffffff1690508073ffffffffffffffffffffffffffffffffffffffff1663ff24b5d56040518163ffffffff1660e01b8152600401600060405180830381865afa158015611179573d6000803e3d6000fd5b505050506040513d6000823e3d601f19601f820116820180604052508101906111a29190614c1c565b92505050949350505050565b600073ffffffffffffffffffffffffffffffffffffffff168573ffffffffffffffffffffffffffffffffffffffff160361121d576040517f08c379a0000000000000000000000000000000000000000000000000000000008152600401611214906143f6565b60405180910390fd5b6000600260008773ffffffffffffffffffffffffffffffffffffffff1673ffffffffffffffffffffffffffffffffffffffff168152602001908152602001600020600101805461126c90614504565b9050036112ae576040517f08c379a00000000000000000000000000000000000000000000000000000000081526004016112a5906143f6565b60405180910390fd5b60006112bc8a8a8a8a6113bc565b90506112dc8187878787876005611c5b909695949392919063ffffffff16565b50505050505050505050565b6060600260008373ffffffffffffffffffffffffffffffffffffffff1673ffffffffffffffffffffffffffffffffffffffff168152602001908152602001600020600101805461133790614504565b80601f016020809104026020016040519081016040528092919081815260200182805461136390614504565b80156113b05780601f10611385576101008083540402835291602001916113b0565b820191906000526020600020905b81548152906001019060200180831161139357829003601f168201915b50505050509050919050565b6000806040518060400160405280601c81526020017f19457468657265756d205369676e6564204d6573736167653a0a33320000000081525090506000818760405160200161140c929190614cc2565b604051602081830303815290604052805190602001209050600181878787604051600081526020016040526040516114479493929190614d08565b6020604051602081039080840390855afa158015611469573d6000803e3d6000fd5b5050506020604051035192505050949350505050565b606060008360010160008473ffffffffffffffffffffffffffffffffffffffff1673ffffffffffffffffffffffffffffffffffffffff1681526020019081526020016000208054905067ffffffffffffffff8111156114e1576114e06138e9565b5b60405190808252806020026020018201604052801561151a57816020015b6115076136d2565b8152602001906001900390816114ff5790505b50905060005b8460010160008573ffffffffffffffffffffffffffffffffffffffff1673ffffffffffffffffffffffffffffffffffffffff168152602001908152602001600020805490508110156118f9578460000160008573ffffffffffffffffffffffffffffffffffffffff1673ffffffffffffffffffffffffffffffffffffffff1681526020019081526020016000208560010160008673ffffffffffffffffffffffffffffffffffffffff1673ffffffffffffffffffffffffffffffffffffffff1681526020019081526020016000208281548110611600576115ff614991565b5b906000526020600020016040516116179190614de5565b90815260200160405180910390206040518060a00160405290816000820160009054906101000a900473ffffffffffffffffffffffffffffffffffffffff1673ffffffffffffffffffffffffffffffffffffffff1673ffffffffffffffffffffffffffffffffffffffff16815260200160018201805461169690614504565b80601f01602080910402602001604051908101604052809291908181526020018280546116c290614504565b801561170f5780601f106116e45761010080835404028352916020019161170f565b820191906000526020600020905b8154815290600101906020018083116116f257829003601f168201915b5050505050815260200160028201805461172890614504565b80601f016020809104026020016040519081016040528092919081815260200182805461175490614504565b80156117a15780601f10611776576101008083540402835291602001916117a1565b820191906000526020600020905b81548152906001019060200180831161178457829003601f168201915b505050505081526020016003820180546117ba90614504565b80601f01602080910402602001604051908101604052809291908181526020018280546117e690614504565b80156118335780601f1061180857610100808354040283529160200191611833565b820191906000526020600020905b81548152906001019060200180831161181657829003601f168201915b5050505050815260200160048201805461184c90614504565b80601f016020809104026020016040519081016040528092919081815260200182805461187890614504565b80156118c55780601f1061189a576101008083540402835291602001916118c5565b820191906000526020600020905b8154815290600101906020018083116118a857829003601f168201915b5050505050815250508282815181106118e1576118e0614991565b5b60200260200101819052508080600101915050611520565b508091505092915050565b8260000160008373ffffffffffffffffffffffffffffffffffffffff1673ffffffffffffffffffffffffffffffffffffffff168152602001908152602001600020816040516119539190614452565b9081526020016040518091039020600080820160006101000a81549073ffffffffffffffffffffffffffffffffffffffff02191690556001820160006119999190613717565b6002820160006119a99190613717565b6003820160006119b99190613717565b6004820160006119c99190613717565b505060005b8360010160008473ffffffffffffffffffffffffffffffffffffffff1673ffffffffffffffffffffffffffffffffffffffff16815260200190815260200160002080549050811015611b405781604051602001611a2b9190614452565b604051602081830303815290604052805190602001208460010160008573ffffffffffffffffffffffffffffffffffffffff1673ffffffffffffffffffffffffffffffffffffffff1681526020019081526020016000208281548110611a9457611a93614991565b5b90600052602060002001604051602001611aae9190614de5565b6040516020818303038152906040528051906020012003611b33578360010160008473ffffffffffffffffffffffffffffffffffffffff1673ffffffffffffffffffffffffffffffffffffffff1681526020019081526020016000208181548110611b1c57611b1b614991565b5b906000526020600020016000611b329190613717565b5b80806001019150506119ce565b50505050565b6000606060006040518060400160405280601c81526020017f19457468657265756d205369676e6564204d6573736167653a0a333200000000815250905060008188604051602001611b99929190614cc2565b604051602081830303815290604052805190602001209050600080611bd58360001c601b8b611bc89190614e2b565b8a60001c8a60001c611f09565b915091506001838a8a8a60405160008152602001604052604051611bfc9493929190614d08565b6020604051602081039080840390855afa158015611c1e573d6000803e3d6000fd5b505050602060405103518282604051602001611c3b929190614e81565b604051602081830303815290604052955095505050505094509492505050565b600073ffffffffffffffffffffffffffffffffffffffff168760000160008773ffffffffffffffffffffffffffffffffffffffff1673ffffffffffffffffffffffffffffffffffffffff16815260200190815260200160002085604051611cc29190614452565b908152602001604051809103902060000160009054906101000a900473ffffffffffffffffffffffffffffffffffffffff1673ffffffffffffffffffffffffffffffffffffffff1614611d4a576040517f08c379a0000000000000000000000000000000000000000000000000000000008152600401611d4190614ef9565b60405180910390fd5b60006040518060a001604052808873ffffffffffffffffffffffffffffffffffffffff168152602001868152602001858152602001848152602001838152509050808860000160008873ffffffffffffffffffffffffffffffffffffffff1673ffffffffffffffffffffffffffffffffffffffff16815260200190815260200160002086604051611ddb9190614452565b908152602001604051809103902060008201518160000160006101000a81548173ffffffffffffffffffffffffffffffffffffffff021916908373ffffffffffffffffffffffffffffffffffffffff1602179055506020820151816001019081611e459190614f5f565b506040820151816002019081611e5b9190614f5f565b506060820151816003019081611e719190614f5f565b506080820151816004019081611e879190614f5f565b509050508760010160008773ffffffffffffffffffffffffffffffffffffffff1673ffffffffffffffffffffffffffffffffffffffff16815260200190815260200160002085908060018154018082558091505060019003906000526020600020016000909190919091509081611efe9190614f5f565b505050505050505050565b60008060007ffffffffffffffffffffffffffffffffffffffffffffffffffffffffefffffc2f80611f3d57611f3c615031565b5b60018760ff16901c60ff167ffffffffffffffffffffffffffffffffffffffffffffffffffffffffefffffc2f611f739190615060565b860890507ffffffffffffffffffffffffffffffffffffffffffffffffffffffffefffffc2f811180611fc457507ffffffffffffffffffffffffffffffffebaaedce6af48a03bbfd25e8cd036414184115b80611fee57507ffffffffffffffffffffffffffffffffebaaedce6af48a03bbfd25e8cd036414185115b80611ff95750600084145b806120045750600085145b80612012575060018660ff16115b15612024576000809250925050612312565b6000612050867ffffffffffffffffffffffffffffffffebaaedce6af48a03bbfd25e8cd036414161231b565b905060007ffffffffffffffffffffffffffffffffffffffffffffffffffffffffefffffc2f8061208357612082615031565b5b7ffffffffffffffffffffffffffffffffffffffffffffffffffffffffefffffc2f806120b2576120b1615031565b5b60077ffffffffffffffffffffffffffffffffffffffffffffffffffffffffefffffc2f806120e3576120e2615031565b5b60008709087ffffffffffffffffffffffffffffffffffffffffffffffffffffffffefffffc2f8061211757612116615031565b5b7ffffffffffffffffffffffffffffffffffffffffffffffffffffffffefffffc2f8061214657612145615031565b5b868709860908905061219081600460017ffffffffffffffffffffffffffffffffffffffffffffffffffffffffefffffc2f61218191906150a2565b61218b91906150d6565b612407565b9050600080600160028b60ff16856121a891906150a2565b6121b291906150a2565b16146121e957817ffffffffffffffffffffffffffffffffffffffffffffffffffffffffefffffc2f6121e49190615107565b6121eb565b815b9050600080600061229b7ffffffffffffffffffffffffffffffffebaaedce6af48a03bbfd25e8cd03641418061222457612223615031565b5b8e7ffffffffffffffffffffffffffffffffebaaedce6af48a03bbfd25e8cd03641416122509190615107565b88097f79be667ef9dcbbac55a06295ce870b07029bfcdb2dce28d959f2815b16f817987f483ada7726a3c4655da4fbfc0e1108a8fd17b448a68554199c47d08ffb10d4b860016125bb565b92509250925060008060006122e47ffffffffffffffffffffffffffffffffebaaedce6af48a03bbfd25e8cd0364141806122d8576122d7615031565b5b8e8b098b8960016125bb565b9250925092506000806122fb888888888888612655565b9150915081819d509d505050505050505050505050505b94509492505050565b600080831415801561232d5750818314155b801561233a575060008214155b612379576040517f08c379a000000000000000000000000000000000000000000000000000000000815260040161237090615187565b60405180910390fd5b60008060019050600084905060005b600087146123fa57868261239c91906150d6565b90508286806123ae576123ad615031565b5b87806123bd576123bc615031565b5b858409886123cb9190615107565b860880945081955050508687826123e29190615060565b836123ed9190615107565b8098508193505050612388565b8394505050505092915050565b600080830361241957600090506125b5565b6000820361242a57600190506125b5565b60006001905060007f800000000000000000000000000000000000000000000000000000000000000090505b60008111156125af577ffffffffffffffffffffffffffffffffffffffffffffffffffffffffefffffc2f8185161515860a7ffffffffffffffffffffffffffffffffffffffffffffffffffffffffefffffc2f8485090991507ffffffffffffffffffffffffffffffffffffffffffffffffffffffffefffffc2f6002820485161515860a7ffffffffffffffffffffffffffffffffffffffffffffffffffffffffefffffc2f8485090991507ffffffffffffffffffffffffffffffffffffffffffffffffffffffffefffffc2f6004820485161515860a7ffffffffffffffffffffffffffffffffffffffffffffffffffffffffefffffc2f8485090991507ffffffffffffffffffffffffffffffffffffffffffffffffffffffffefffffc2f6008820485161515860a7ffffffffffffffffffffffffffffffffffffffffffffffffffffffffefffffc2f848509099150601081049050612456565b81925050505b92915050565b60008060008087036125d55785858592509250925061264b565b60008790506000806000600190505b6000841461263d5760006001851614612612576126058383838d8d8d612701565b8093508194508295505050505b60028461261f91906150d6565b935061262c8a8a8a61313f565b809a50819b50829c505050506125e4565b828282965096509650505050505b9450945094915050565b6000806000806000878b036126c85760007ffffffffffffffffffffffffffffffffffffffffffffffffffffffffefffffc2f8061269557612694615031565b5b888c08036126ac57600080945094505050506126f6565b6126b78b8b8b61313f565b8093508194508295505050506126e3565b6126d68b8b8b8b8b8b612701565b8093508194508295505050505b6126ee8383836135bc565b945094505050505b965096945050505050565b600080600080891480156127155750600088145b1561272857858585925092509250613133565b6000861480156127385750600085145b1561274b57888888925092509250613133565b612753613757565b7ffffffffffffffffffffffffffffffffffffffffffffffffffffffffefffffc2f8061278257612781615031565b5b8889098160006004811061279957612798614991565b5b6020020181815250507ffffffffffffffffffffffffffffffffffffffffffffffffffffffffefffffc2f806127d1576127d0615031565b5b816000600481106127e5576127e4614991565b5b6020020151890981600160048110612800576127ff614991565b5b6020020181815250507ffffffffffffffffffffffffffffffffffffffffffffffffffffffffefffffc2f8061283857612837615031565b5b8586098160026004811061284f5761284e614991565b5b6020020181815250507ffffffffffffffffffffffffffffffffffffffffffffffffffffffffefffffc2f8061288757612886615031565b5b8160026004811061289b5761289a614991565b5b60200201518609816003600481106128b6576128b5614991565b5b60200201818152505060405180608001604052807ffffffffffffffffffffffffffffffffffffffffffffffffffffffffefffffc2f806128f9576128f8615031565b5b8360026004811061290d5761290c614991565b5b60200201518d0981526020017ffffffffffffffffffffffffffffffffffffffffffffffffffffffffefffffc2f8061294857612947615031565b5b8360036004811061295c5761295b614991565b5b60200201518c0981526020017ffffffffffffffffffffffffffffffffffffffffffffffffffffffffefffffc2f8061299757612996615031565b5b836000600481106129ab576129aa614991565b5b60200201518a0981526020017ffffffffffffffffffffffffffffffffffffffffffffffffffffffffefffffc2f806129e6576129e5615031565b5b836001600481106129fa576129f9614991565b5b60200201518909815250905080600260048110612a1a57612a19614991565b5b602002015181600060048110612a3357612a32614991565b5b6020020151141580612a75575080600360048110612a5457612a53614991565b5b602002015181600160048110612a6d57612a6c614991565b5b602002015114155b612ab4576040517f08c379a0000000000000000000000000000000000000000000000000000000008152600401612aab906151f3565b60405180910390fd5b612abc613757565b7ffffffffffffffffffffffffffffffffffffffffffffffffffffffffefffffc2f80612aeb57612aea615031565b5b82600060048110612aff57612afe614991565b5b60200201517ffffffffffffffffffffffffffffffffffffffffffffffffffffffffefffffc2f612b2f9190615107565b83600260048110612b4357612b42614991565b5b60200201510881600060048110612b5d57612b5c614991565b5b6020020181815250507ffffffffffffffffffffffffffffffffffffffffffffffffffffffffefffffc2f80612b9557612b94615031565b5b82600160048110612ba957612ba8614991565b5b60200201517ffffffffffffffffffffffffffffffffffffffffffffffffffffffffefffffc2f612bd99190615107565b83600360048110612bed57612bec614991565b5b60200201510881600160048110612c0757612c06614991565b5b6020020181815250507ffffffffffffffffffffffffffffffffffffffffffffffffffffffffefffffc2f80612c3f57612c3e615031565b5b81600060048110612c5357612c52614991565b5b602002015182600060048110612c6c57612c6b614991565b5b60200201510981600260048110612c8657612c85614991565b5b6020020181815250507ffffffffffffffffffffffffffffffffffffffffffffffffffffffffefffffc2f80612cbe57612cbd615031565b5b81600060048110612cd257612cd1614991565b5b602002015182600260048110612ceb57612cea614991565b5b60200201510981600360048110612d0557612d04614991565b5b60200201818152505060007ffffffffffffffffffffffffffffffffffffffffffffffffffffffffefffffc2f80612d3f57612d3e615031565b5b82600360048110612d5357612d52614991565b5b60200201517ffffffffffffffffffffffffffffffffffffffffffffffffffffffffefffffc2f612d839190615107565b7ffffffffffffffffffffffffffffffffffffffffffffffffffffffffefffffc2f80612db257612db1615031565b5b84600160048110612dc657612dc5614991565b5b602002015185600160048110612ddf57612dde614991565b5b6020020151090890507ffffffffffffffffffffffffffffffffffffffffffffffffffffffffefffffc2f80612e1757612e16615031565b5b7ffffffffffffffffffffffffffffffffffffffffffffffffffffffffefffffc2f80612e4657612e45615031565b5b7ffffffffffffffffffffffffffffffffffffffffffffffffffffffffefffffc2f80612e7557612e74615031565b5b84600260048110612e8957612e88614991565b5b602002015186600060048110612ea257612ea1614991565b5b6020020151096002097ffffffffffffffffffffffffffffffffffffffffffffffffffffffffefffffc2f612ed69190615107565b8208905060007ffffffffffffffffffffffffffffffffffffffffffffffffffffffffefffffc2f80612f0b57612f0a615031565b5b7ffffffffffffffffffffffffffffffffffffffffffffffffffffffffefffffc2f80612f3a57612f39615031565b5b837ffffffffffffffffffffffffffffffffffffffffffffffffffffffffefffffc2f612f669190615107565b7ffffffffffffffffffffffffffffffffffffffffffffffffffffffffefffffc2f80612f9557612f94615031565b5b86600260048110612fa957612fa8614991565b5b602002015188600060048110612fc257612fc1614991565b5b6020020151090884600160048110612fdd57612fdc614991565b5b60200201510990507ffffffffffffffffffffffffffffffffffffffffffffffffffffffffefffffc2f8061301457613013615031565b5b7ffffffffffffffffffffffffffffffffffffffffffffffffffffffffefffffc2f8061304357613042615031565b5b8460036004811061305757613056614991565b5b6020020151866001600481106130705761306f614991565b5b6020020151097ffffffffffffffffffffffffffffffffffffffffffffffffffffffffefffffc2f6130a19190615107565b8208905060007ffffffffffffffffffffffffffffffffffffffffffffffffffffffffefffffc2f806130d6576130d5615031565b5b7ffffffffffffffffffffffffffffffffffffffffffffffffffffffffefffffc2f8061310557613104615031565b5b8a8e098560006004811061311c5761311b614991565b5b602002015109905082828297509750975050505050505b96509650969350505050565b6000806000808403613159578585859250925092506135b3565b60007ffffffffffffffffffffffffffffffffffffffffffffffffffffffffefffffc2f8061318a57613189615031565b5b878809905060007ffffffffffffffffffffffffffffffffffffffffffffffffffffffffefffffc2f806131c0576131bf615031565b5b878809905060007ffffffffffffffffffffffffffffffffffffffffffffffffffffffffefffffc2f806131f6576131f5615031565b5b878809905060007ffffffffffffffffffffffffffffffffffffffffffffffffffffffffefffffc2f8061322c5761322b615031565b5b7ffffffffffffffffffffffffffffffffffffffffffffffffffffffffefffffc2f8061325b5761325a615031565b5b848c09600409905060007ffffffffffffffffffffffffffffffffffffffffffffffffffffffffefffffc2f8061329457613293615031565b5b7ffffffffffffffffffffffffffffffffffffffffffffffffffffffffefffffc2f806132c3576132c2615031565b5b7ffffffffffffffffffffffffffffffffffffffffffffffffffffffffefffffc2f806132f2576132f1615031565b5b8586096000097ffffffffffffffffffffffffffffffffffffffffffffffffffffffffefffffc2f8061332757613326615031565b5b876003090890507ffffffffffffffffffffffffffffffffffffffffffffffffffffffffefffffc2f8061335d5761335c615031565b5b7ffffffffffffffffffffffffffffffffffffffffffffffffffffffffefffffc2f8061338c5761338b615031565b5b8384087ffffffffffffffffffffffffffffffffffffffffffffffffffffffffefffffc2f6133ba9190615107565b7ffffffffffffffffffffffffffffffffffffffffffffffffffffffffefffffc2f806133e9576133e8615031565b5b8384090894507ffffffffffffffffffffffffffffffffffffffffffffffffffffffffefffffc2f8061341e5761341d615031565b5b7ffffffffffffffffffffffffffffffffffffffffffffffffffffffffefffffc2f8061344d5761344c615031565b5b7ffffffffffffffffffffffffffffffffffffffffffffffffffffffffefffffc2f8061347c5761347b615031565b5b8687096008097ffffffffffffffffffffffffffffffffffffffffffffffffffffffffefffffc2f6134ad9190615107565b7ffffffffffffffffffffffffffffffffffffffffffffffffffffffffefffffc2f806134dc576134db615031565b5b7ffffffffffffffffffffffffffffffffffffffffffffffffffffffffefffffc2f8061350b5761350a615031565b5b887ffffffffffffffffffffffffffffffffffffffffffffffffffffffffefffffc2f6135379190615107565b860884090893507ffffffffffffffffffffffffffffffffffffffffffffffffffffffffefffffc2f8061356d5761356c615031565b5b7ffffffffffffffffffffffffffffffffffffffffffffffffffffffffefffffc2f8061359c5761359b615031565b5b8a8c09600209925084848497509750975050505050505b93509350939050565b60008060006135eb847ffffffffffffffffffffffffffffffffffffffffffffffffffffffffefffffc2f61231b565b905060007ffffffffffffffffffffffffffffffffffffffffffffffffffffffffefffffc2f8061361e5761361d615031565b5b828309905060007ffffffffffffffffffffffffffffffffffffffffffffffffffffffffefffffc2f8061365457613653615031565b5b828909905060007ffffffffffffffffffffffffffffffffffffffffffffffffffffffffefffffc2f8061368a57613689615031565b5b7ffffffffffffffffffffffffffffffffffffffffffffffffffffffffefffffc2f806136b9576136b8615031565b5b8486098909905081819550955050505050935093915050565b6040518060a00160405280600073ffffffffffffffffffffffffffffffffffffffff168152602001606081526020016060815260200160608152602001606081525090565b50805461372390614504565b6000825580601f106137355750613754565b601f0160209004906000526020600020908101906137539190613779565b5b50565b6040518060800160405280600490602082028036833780820191505090505090565b5b8082111561379257600081600090555060010161377a565b5090565b6000604051905090565b600080fd5b600080fd5b600073ffffffffffffffffffffffffffffffffffffffff82169050919050565b60006137d5826137aa565b9050919050565b6137e5816137ca565b81146137f057600080fd5b50565b600081359050613802816137dc565b92915050565b60006020828403121561381e5761381d6137a0565b5b600061382c848285016137f3565b91505092915050565b61383e816137ca565b82525050565b60006020820190506138596000830184613835565b92915050565b6000819050919050565b6138728161385f565b811461387d57600080fd5b50565b60008135905061388f81613869565b92915050565b600060ff82169050919050565b6138ab81613895565b81146138b657600080fd5b50565b6000813590506138c8816138a2565b92915050565b600080fd5b600080fd5b6000601f19601f8301169050919050565b7f4e487b7100000000000000000000000000000000000000000000000000000000600052604160045260246000fd5b613921826138d8565b810181811067ffffffffffffffff821117156139405761393f6138e9565b5b80604052505050565b6000613953613796565b905061395f8282613918565b919050565b600067ffffffffffffffff82111561397f5761397e6138e9565b5b613988826138d8565b9050602081019050919050565b82818337600083830152505050565b60006139b76139b284613964565b613949565b9050828152602081018484840111156139d3576139d26138d3565b5b6139de848285613995565b509392505050565b600082601f8301126139fb576139fa6138ce565b5b8135613a0b8482602086016139a4565b91505092915050565b600080600080600060a08688031215613a3057613a2f6137a0565b5b6000613a3e88828901613880565b9550506020613a4f888289016138b9565b9450506040613a6088828901613880565b9350506060613a7188828901613880565b925050608086013567ffffffffffffffff811115613a9257613a916137a5565b5b613a9e888289016139e6565b9150509295509295909350565b60008060008060808587031215613ac557613ac46137a0565b5b6000613ad387828801613880565b9450506020613ae4878288016138b9565b9350506040613af587828801613880565b9250506060613b0687828801613880565b91505092959194509250565b600081519050919050565b600082825260208201905092915050565b6000819050602082019050919050565b613b47816137ca565b82525050565b600081519050919050565b600082825260208201905092915050565b60005b83811015613b87578082015181840152602081019050613b6c565b60008484015250505050565b6000613b9e82613b4d565b613ba88185613b58565b9350613bb8818560208601613b69565b613bc1816138d8565b840191505092915050565b600060a083016000830151613be46000860182613b3e565b5060208301518482036020860152613bfc8282613b93565b91505060408301518482036040860152613c168282613b93565b91505060608301518482036060860152613c308282613b93565b91505060808301518482036080860152613c4a8282613b93565b9150508091505092915050565b6000613c638383613bcc565b905092915050565b6000602082019050919050565b6000613c8382613b12565b613c8d8185613b1d565b935083602082028501613c9f85613b2e565b8060005b85811015613cdb5784840389528151613cbc8582613c57565b9450613cc783613c6b565b925060208a01995050600181019050613ca3565b50829750879550505050505092915050565b60006020820190508181036000830152613d078184613c78565b905092915050565b600080600080600060a08688031215613d2b57613d2a6137a0565b5b600086013567ffffffffffffffff811115613d4957613d486137a5565b5b613d55888289016139e6565b9550506020613d6688828901613880565b9450506040613d77888289016138b9565b9350506060613d8888828901613880565b9250506080613d9988828901613880565b9150509295509295909350565b600080600080600080600080610100898b031215613dc757613dc66137a0565b5b600089013567ffffffffffffffff811115613de557613de46137a5565b5b613df18b828c016139e6565b985050602089013567ffffffffffffffff811115613e1257613e116137a5565b5b613e1e8b828c016139e6565b975050604089013567ffffffffffffffff811115613e3f57613e3e6137a5565b5b613e4b8b828c016139e6565b965050606089013567ffffffffffffffff811115613e6c57613e6b6137a5565b5b613e788b828c016139e6565b9550506080613e898b828c01613880565b94505060a0613e9a8b828c016138b9565b93505060c0613eab8b828c01613880565b92505060e0613ebc8b828c01613880565b9150509295985092959890939650565b600081519050919050565b600082825260208201905092915050565b6000819050602082019050919050565b6000613f048383613b3e565b60208301905092915050565b6000602082019050919050565b6000613f2882613ecc565b613f328185613ed7565b9350613f3d83613ee8565b8060005b83811015613f6e578151613f558882613ef8565b9750613f6083613f10565b925050600181019050613f41565b5085935050505092915050565b60006040820190508181036000830152613f958185613f1d565b90508181036020830152613fa98184613f1d565b90509392505050565b600081519050919050565b600082825260208201905092915050565b6000819050602082019050919050565b600060a0830160008301518482036000860152613ffb8282613b93565b915050602083015184820360208601526140158282613b93565b9150506040830151848203604086015261402f8282613b93565b915050606083015184820360608601526140498282613b93565b915050608083015161405e6080860182613b3e565b508091505092915050565b60006140758383613fde565b905092915050565b6000602082019050919050565b600061409582613fb2565b61409f8185613fbd565b9350836020820285016140b185613fce565b8060005b858110156140ed57848403895281516140ce8582614069565b94506140d98361407d565b925060208a019950506001810190506140b5565b50829750879550505050505092915050565b60006020820190508181036000830152614119818461408a565b905092915050565b60008060008060008060008060006101208a8c031215614144576141436137a0565b5b60006141528c828d01613880565b99505060206141638c828d016138b9565b98505060406141748c828d01613880565b97505060606141858c828d01613880565b96505060806141968c828d016137f3565b95505060a08a013567ffffffffffffffff8111156141b7576141b66137a5565b5b6141c38c828d016139e6565b94505060c08a013567ffffffffffffffff8111156141e4576141e36137a5565b5b6141f08c828d016139e6565b93505060e08a013567ffffffffffffffff811115614211576142106137a5565b5b61421d8c828d016139e6565b9250506101008a013567ffffffffffffffff81111561423f5761423e6137a5565b5b61424b8c828d016139e6565b9150509295985092959850929598565b600081519050919050565b600082825260208201905092915050565b60006142828261425b565b61428c8185614266565b935061429c818560208601613b69565b6142a5816138d8565b840191505092915050565b600060208201905081810360008301526142ca8184614277565b905092915050565b600082825260208201905092915050565b7f646f6573206e6f74206578697374000000000000000000000000000000000000600082015250565b6000614319600e836142d2565b9150614324826142e3565b602082019050919050565b600060208201905081810360008301526143488161430c565b9050919050565b600061435a82613b4d565b61436481856142d2565b9350614374818560208601613b69565b61437d816138d8565b840191505092915050565b600060208201905081810360008301526143a2818461434f565b905092915050565b7f4552523639310000000000000000000000000000000000000000000000000000600082015250565b60006143e06006836142d2565b91506143eb826143aa565b602082019050919050565b6000602082019050818103600083015261440f816143d3565b9050919050565b600081905092915050565b600061442c82613b4d565b6144368185614416565b9350614446818560208601613b69565b80840191505092915050565b600061445e8284614421565b915081905092915050565b7f4552523231340000000000000000000000000000000000000000000000000000600082015250565b600061449f6006836142d2565b91506144aa82614469565b602082019050919050565b600060208201905081810360008301526144ce81614492565b9050919050565b7f4e487b7100000000000000000000000000000000000000000000000000000000600052602260045260246000fd5b6000600282049050600182168061451c57607f821691505b60208210810361452f5761452e6144d5565b5b50919050565b600060a082019050818103600083015261454f818861434f565b90508181036020830152614563818761434f565b90508181036040830152614577818661434f565b9050818103606083015261458b818561434f565b905061459a6080830184613835565b9695505050505050565b60006040820190506145b96000830185613835565b81810360208301526145cb818461434f565b90509392505050565b6000815190506145e3816137dc565b92915050565b6000602082840312156145ff576145fe6137a0565b5b600061460d848285016145d4565b91505092915050565b60008190508160005260206000209050919050565b60006020601f8301049050919050565b600082821b905092915050565b6000600883026146787fffffffffffffffffffffffffffffffffffffffffffffffffffffffffffffffff8261463b565b614682868361463b565b95508019841693508086168417925050509392505050565b6000819050919050565b6000819050919050565b60006146c96146c46146bf8461469a565b6146a4565b61469a565b9050919050565b6000819050919050565b6146e3836146ae565b6146f76146ef826146d0565b848454614648565b825550505050565b600090565b61470c6146ff565b6147178184846146da565b505050565b5b8181101561473b57614730600082614704565b60018101905061471d565b5050565b601f8211156147805761475181614616565b61475a8461462b565b81016020851015614769578190505b61477d6147758561462b565b83018261471c565b50505b505050565b600082821c905092915050565b60006147a360001984600802614785565b1980831691505092915050565b60006147bc8383614792565b9150826002028217905092915050565b6147d58261425b565b67ffffffffffffffff8111156147ee576147ed6138e9565b5b6147f88254614504565b61480382828561473f565b600060209050601f8311600181146148365760008415614824578287015190505b61482e85826147b0565b865550614896565b601f19841661484486614616565b60005b8281101561486c57848901518255600182019150602085019450602081019050614847565b868310156148895784890151614885601f891682614792565b8355505b6001600288020188555050505b505050505050565b600060808201905081810360008301526148b8818761434f565b905081810360208301526148cc818661434f565b905081810360408301526148e0818561434f565b905081810360608301526148f4818461434f565b905095945050505050565b7f4f776e61626c65236f6e6c794f776e65724f7243726561746f723a2053454e4460008201527f45525f49535f4e4f545f4f574e45525f4f525f43524541544f52000000000000602082015250565b600061495b603a836142d2565b9150614966826148ff565b604082019050919050565b6000602082019050818103600083015261498a8161494e565b9050919050565b7f4e487b7100000000000000000000000000000000000000000000000000000000600052603260045260246000fd5b600067ffffffffffffffff8211156149db576149da6138e9565b5b602082029050602081019050919050565b600080fd5b600080fd5b600080fd5b6000614a0e614a0984613964565b613949565b905082815260208101848484011115614a2a57614a296138d3565b5b614a35848285613b69565b509392505050565b600082601f830112614a5257614a516138ce565b5b8151614a628482602086016149fb565b91505092915050565b600060a08284031215614a8157614a806149f1565b5b614a8b60a0613949565b9050600082015167ffffffffffffffff811115614aab57614aaa6149f6565b5b614ab784828501614a3d565b600083015250602082015167ffffffffffffffff811115614adb57614ada6149f6565b5b614ae784828501614a3d565b602083015250604082015167ffffffffffffffff811115614b0b57614b0a6149f6565b5b614b1784828501614a3d565b604083015250606082015167ffffffffffffffff811115614b3b57614b3a6149f6565b5b614b4784828501614a3d565b6060830152506080614b5b848285016145d4565b60808301525092915050565b6000614b7a614b75846149c0565b613949565b90508083825260208201905060208402830185811115614b9d57614b9c6149ec565b5b835b81811015614be457805167ffffffffffffffff811115614bc257614bc16138ce565b5b808601614bcf8982614a6b565b85526020850194505050602081019050614b9f565b5050509392505050565b600082601f830112614c0357614c026138ce565b5b8151614c13848260208601614b67565b91505092915050565b600060208284031215614c3257614c316137a0565b5b600082015167ffffffffffffffff811115614c5057614c4f6137a5565b5b614c5c84828501614bee565b91505092915050565b600081905092915050565b6000614c7b8261425b565b614c858185614c65565b9350614c95818560208601613b69565b80840191505092915050565b6000819050919050565b614cbc614cb78261385f565b614ca1565b82525050565b6000614cce8285614c70565b9150614cda8284614cab565b6020820191508190509392505050565b614cf38161385f565b82525050565b614d0281613895565b82525050565b6000608082019050614d1d6000830187614cea565b614d2a6020830186614cf9565b614d376040830185614cea565b614d446060830184614cea565b95945050505050565b60008190508160005260206000209050919050565b60008154614d6f81614504565b614d798186614416565b94506001821660008114614d945760018114614da957614ddc565b60ff1983168652811515820286019350614ddc565b614db285614d4d565b60005b83811015614dd457815481890152600182019150602081019050614db5565b838801955050505b50505092915050565b6000614df18284614d62565b915081905092915050565b7f4e487b7100000000000000000000000000000000000000000000000000000000600052601160045260246000fd5b6000614e3682613895565b9150614e4183613895565b9250828203905060ff811115614e5a57614e59614dfc565b5b92915050565b6000819050919050565b614e7b614e768261469a565b614e60565b82525050565b6000614e8d8285614e6a565b602082019150614e9d8284614e6a565b6020820191508190509392505050565b7f5352414578697374730000000000000000000000000000000000000000000000600082015250565b6000614ee36009836142d2565b9150614eee82614ead565b602082019050919050565b60006020820190508181036000830152614f1281614ed6565b9050919050565b601f821115614f5a57614f2b81614d4d565b614f348461462b565b81016020851015614f43578190505b614f57614f4f8561462b565b83018261471c565b50505b505050565b614f6882613b4d565b67ffffffffffffffff811115614f8157614f806138e9565b5b614f8b8254614504565b614f96828285614f19565b600060209050601f831160018114614fc95760008415614fb7578287015190505b614fc185826147b0565b865550615029565b601f198416614fd786614d4d565b60005b82811015614fff57848901518255600182019150602085019450602081019050614fda565b8683101561501c5784890151615018601f891682614792565b8355505b6001600288020188555050505b505050505050565b7f4e487b7100000000000000000000000000000000000000000000000000000000600052601260045260246000fd5b600061506b8261469a565b91506150768361469a565b92508282026150848161469a565b9150828204841483151761509b5761509a614dfc565b5b5092915050565b60006150ad8261469a565b91506150b88361469a565b92508282019050808211156150d0576150cf614dfc565b5b92915050565b60006150e18261469a565b91506150ec8361469a565b9250826150fc576150fb615031565b5b828204905092915050565b60006151128261469a565b915061511d8361469a565b925082820390508181111561513557615134614dfc565b5b92915050565b7f496e76616c6964206e756d626572000000000000000000000000000000000000600082015250565b6000615171600e836142d2565b915061517c8261513b565b602082019050919050565b600060208201905081810360008301526151a081615164565b9050919050565b7f557365206a6163446f75626c652066756e6374696f6e20696e73746561640000600082015250565b60006151dd601e836142d2565b91506151e8826151a7565b602082019050919050565b6000602082019050818103600083015261520c816151d0565b905091905056fea2646970667358221220d7b91a11b2e7d6531dedf2fcd523765bd58f4e49e66ec1989b4cd505ecc1f70a64736f6c63430008180033","opcodes":"PUSH1 0x80 PUSH1 0x40 MSTORE CALLVALUE DUP1 ISZERO PUSH3 0x11 JUMPI PUSH1 0x0 DUP1 REVERT JUMPDEST POP PUSH1 0x40 MLOAD PUSH3 0x5454 CODESIZE SUB DUP1 PUSH3 0x5454 DUP4 CODECOPY DUP2 DUP2 ADD PUSH1 0x40 MSTORE DUP2 ADD SWAP1 PUSH3 0x37 SWAP2 SWAP1 PUSH3 0x1C9 JUMP JUMPDEST CALLER CALLER DUP1 PUSH1 0x0 DUP1 PUSH2 0x100 EXP DUP2 SLOAD DUP2 PUSH20 0xFFFFFFFFFFFFFFFFFFFFFFFFFFFFFFFFFFFFFFFF MUL NOT AND SWAP1 DUP4 PUSH20 0xFFFFFFFFFFFFFFFFFFFFFFFFFFFFFFFFFFFFFFFF AND MUL OR SWAP1 SSTORE POP DUP2 PUSH1 0x1 PUSH1 0x0 PUSH2 0x100 EXP DUP2 SLOAD DUP2 PUSH20 0xFFFFFFFFFFFFFFFFFFFFFFFFFFFFFFFFFFFFFFFF MUL NOT AND SWAP1 DUP4 PUSH20 0xFFFFFFFFFFFFFFFFFFFFFFFFFFFFFFFFFFFFFFFF AND MUL OR SWAP1 SSTORE POP DUP1 PUSH20 0xFFFFFFFFFFFFFFFFFFFFFFFFFFFFFFFFFFFFFFFF AND PUSH1 0x0 PUSH20 0xFFFFFFFFFFFFFFFFFFFFFFFFFFFFFFFFFFFFFFFF AND PUSH32 0x8BE0079C531659141344CD1FD0A4F28419497F9722A3DAAFE3B4186F6B6457E0 PUSH1 0x40 MLOAD PUSH1 0x40 MLOAD DUP1 SWAP2 SUB SWAP1 LOG3 POP POP DUP1 PUSH1 0x4 PUSH1 0x0 PUSH2 0x100 EXP DUP2 SLOAD DUP2 PUSH20 0xFFFFFFFFFFFFFFFFFFFFFFFFFFFFFFFFFFFFFFFF MUL NOT AND SWAP1 DUP4 PUSH20 0xFFFFFFFFFFFFFFFFFFFFFFFFFFFFFFFFFFFFFFFF AND MUL OR SWAP1 SSTORE POP POP PUSH3 0x1FB JUMP JUMPDEST PUSH1 0x0 DUP1 REVERT JUMPDEST PUSH1 0x0 PUSH20 0xFFFFFFFFFFFFFFFFFFFFFFFFFFFFFFFFFFFFFFFF DUP3 AND SWAP1 POP SWAP2 SWAP1 POP JUMP JUMPDEST PUSH1 0x0 PUSH3 0x191 DUP3 PUSH3 0x164 JUMP JUMPDEST SWAP1 POP SWAP2 SWAP1 POP JUMP JUMPDEST PUSH3 0x1A3 DUP2 PUSH3 0x184 JUMP JUMPDEST DUP2 EQ PUSH3 0x1AF JUMPI PUSH1 0x0 DUP1 REVERT JUMPDEST POP JUMP JUMPDEST PUSH1 0x0 DUP2 MLOAD SWAP1 POP PUSH3 0x1C3 DUP2 PUSH3 0x198 JUMP JUMPDEST SWAP3 SWAP2 POP POP JUMP JUMPDEST PUSH1 0x0 PUSH1 0x20 DUP3 DUP5 SUB SLT ISZERO PUSH3 0x1E2 JUMPI PUSH3 0x1E1 PUSH3 0x15F JUMP JUMPDEST JUMPDEST PUSH1 0x0 PUSH3 0x1F2 DUP5 DUP3 DUP6 ADD PUSH3 0x1B2 JUMP JUMPDEST SWAP2 POP POP SWAP3 SWAP2 POP POP JUMP JUMPDEST PUSH2 0x5249 DUP1 PUSH3 0x20B PUSH1 0x0 CODECOPY PUSH1 0x0 RETURN INVALID PUSH1 0x80 PUSH1 0x40 MSTORE CALLVALUE DUP1 ISZERO PUSH2 0x10 JUMPI PUSH1 0x0 DUP1 REVERT JUMPDEST POP PUSH1 0x4 CALLDATASIZE LT PUSH2 0xCF JUMPI PUSH1 0x0 CALLDATALOAD PUSH1 0xE0 SHR DUP1 PUSH4 0x893D20E8 GT PUSH2 0x8C JUMPI DUP1 PUSH4 0xD8B63C8A GT PUSH2 0x66 JUMPI DUP1 PUSH4 0xD8B63C8A EQ PUSH2 0x210 JUMPI DUP1 PUSH4 0xE04E0283 EQ PUSH2 0x22F JUMPI DUP1 PUSH4 0xE4F0C916 EQ PUSH2 0x25F JUMPI DUP1 PUSH4 0xFCE9512A EQ PUSH2 0x27B JUMPI PUSH2 0xCF JUMP JUMPDEST DUP1 PUSH4 0x893D20E8 EQ PUSH2 0x1A6 JUMPI DUP1 PUSH4 0x9D6944C2 EQ PUSH2 0x1C4 JUMPI DUP1 PUSH4 0xB1A81BD5 EQ PUSH2 0x1F4 JUMPI PUSH2 0xCF JUMP JUMPDEST DUP1 PUSH4 0xEB9AF38 EQ PUSH2 0xD4 JUMPI DUP1 PUSH4 0xEE2CB10 EQ PUSH2 0x104 JUMPI DUP1 PUSH4 0x146AA7F7 EQ PUSH2 0x122 JUMPI DUP1 PUSH4 0x2FD005C8 EQ PUSH2 0x13E JUMPI DUP1 PUSH4 0x633072E4 EQ PUSH2 0x16E JUMPI DUP1 PUSH4 0x6B11BC49 EQ PUSH2 0x18A JUMPI JUMPDEST PUSH1 0x0 DUP1 REVERT JUMPDEST PUSH2 0xEE PUSH1 0x4 DUP1 CALLDATASIZE SUB DUP2 ADD SWAP1 PUSH2 0xE9 SWAP2 SWAP1 PUSH2 0x3808 JUMP JUMPDEST PUSH2 0x2AB JUMP JUMPDEST PUSH1 0x40 MLOAD PUSH2 0xFB SWAP2 SWAP1 PUSH2 0x3844 JUMP JUMPDEST PUSH1 0x40 MLOAD DUP1 SWAP2 SUB SWAP1 RETURN JUMPDEST PUSH2 0x10C PUSH2 0x38B JUMP JUMPDEST PUSH1 0x40 MLOAD PUSH2 0x119 SWAP2 SWAP1 PUSH2 0x3844 JUMP JUMPDEST PUSH1 0x40 MLOAD DUP1 SWAP2 SUB SWAP1 RETURN JUMPDEST PUSH2 0x13C PUSH1 0x4 DUP1 CALLDATASIZE SUB DUP2 ADD SWAP1 PUSH2 0x137 SWAP2 SWAP1 PUSH2 0x3A14 JUMP JUMPDEST PUSH2 0x3B5 JUMP JUMPDEST STOP JUMPDEST PUSH2 0x158 PUSH1 0x4 DUP1 CALLDATASIZE SUB DUP2 ADD SWAP1 PUSH2 0x153 SWAP2 SWAP1 PUSH2 0x3AAB JUMP JUMPDEST PUSH2 0x4A0 JUMP JUMPDEST PUSH1 0x40 MLOAD PUSH2 0x165 SWAP2 SWAP1 PUSH2 0x3CED JUMP JUMPDEST PUSH1 0x40 MLOAD DUP1 SWAP2 SUB SWAP1 RETURN JUMPDEST PUSH2 0x188 PUSH1 0x4 DUP1 CALLDATASIZE SUB DUP2 ADD SWAP1 PUSH2 0x183 SWAP2 SWAP1 PUSH2 0x3A14 JUMP JUMPDEST PUSH2 0x540 JUMP JUMPDEST STOP JUMPDEST PUSH2 0x1A4 PUSH1 0x4 DUP1 CALLDATASIZE SUB DUP2 ADD SWAP1 PUSH2 0x19F SWAP2 SWAP1 PUSH2 0x3A14 JUMP JUMPDEST PUSH2 0x56E JUMP JUMPDEST STOP JUMPDEST PUSH2 0x1AE PUSH2 0xB18 JUMP JUMPDEST PUSH1 0x40 MLOAD PUSH2 0x1BB SWAP2 SWAP1 PUSH2 0x3844 JUMP JUMPDEST PUSH1 0x40 MLOAD DUP1 SWAP2 SUB SWAP1 RETURN JUMPDEST PUSH2 0x1DE PUSH1 0x4 DUP1 CALLDATASIZE SUB DUP2 ADD SWAP1 PUSH2 0x1D9 SWAP2 SWAP1 PUSH2 0x3D0F JUMP JUMPDEST PUSH2 0xB41 JUMP JUMPDEST PUSH1 0x40 MLOAD PUSH2 0x1EB SWAP2 SWAP1 PUSH2 0x3844 JUMP JUMPDEST PUSH1 0x40 MLOAD DUP1 SWAP2 SUB SWAP1 RETURN JUMPDEST PUSH2 0x20E PUSH1 0x4 DUP1 CALLDATASIZE SUB DUP2 ADD SWAP1 PUSH2 0x209 SWAP2 SWAP1 PUSH2 0x3DA6 JUMP JUMPDEST PUSH2 0xD36 JUMP JUMPDEST STOP JUMPDEST PUSH2 0x218 PUSH2 0xE2A JUMP JUMPDEST PUSH1 0x40 MLOAD PUSH2 0x226 SWAP3 SWAP2 SWAP1 PUSH2 0x3F7B JUMP JUMPDEST PUSH1 0x40 MLOAD DUP1 SWAP2 SUB SWAP1 RETURN JUMPDEST PUSH2 0x249 PUSH1 0x4 DUP1 CALLDATASIZE SUB DUP2 ADD SWAP1 PUSH2 0x244 SWAP2 SWAP1 PUSH2 0x3AAB JUMP JUMPDEST PUSH2 0x10B5 JUMP JUMPDEST PUSH1 0x40 MLOAD PUSH2 0x256 SWAP2 SWAP1 PUSH2 0x40FF JUMP JUMPDEST PUSH1 0x40 MLOAD DUP1 SWAP2 SUB SWAP1 RETURN JUMPDEST PUSH2 0x279 PUSH1 0x4 DUP1 CALLDATASIZE SUB DUP2 ADD SWAP1 PUSH2 0x274 SWAP2 SWAP1 PUSH2 0x4121 JUMP JUMPDEST PUSH2 0x11AE JUMP JUMPDEST STOP JUMPDEST PUSH2 0x295 PUSH1 0x4 DUP1 CALLDATASIZE SUB DUP2 ADD SWAP1 PUSH2 0x290 SWAP2 SWAP1 PUSH2 0x3808 JUMP JUMPDEST PUSH2 0x12E8 JUMP JUMPDEST PUSH1 0x40 MLOAD PUSH2 0x2A2 SWAP2 SWAP1 PUSH2 0x42B0 JUMP JUMPDEST PUSH1 0x40 MLOAD DUP1 SWAP2 SUB SWAP1 RETURN JUMPDEST PUSH1 0x0 DUP1 PUSH1 0x2 PUSH1 0x0 DUP5 PUSH20 0xFFFFFFFFFFFFFFFFFFFFFFFFFFFFFFFFFFFFFFFF AND PUSH20 0xFFFFFFFFFFFFFFFFFFFFFFFFFFFFFFFFFFFFFFFF AND DUP2 MSTORE PUSH1 0x20 ADD SWAP1 DUP2 MSTORE PUSH1 0x20 ADD PUSH1 0x0 KECCAK256 PUSH1 0x0 ADD PUSH1 0x0 SWAP1 SLOAD SWAP1 PUSH2 0x100 EXP SWAP1 DIV PUSH20 0xFFFFFFFFFFFFFFFFFFFFFFFFFFFFFFFFFFFFFFFF AND SWAP1 POP PUSH1 0x0 PUSH20 0xFFFFFFFFFFFFFFFFFFFFFFFFFFFFFFFFFFFFFFFF AND DUP2 PUSH20 0xFFFFFFFFFFFFFFFFFFFFFFFFFFFFFFFFFFFFFFFF AND SUB PUSH2 0x382 JUMPI PUSH1 0x40 MLOAD PUSH32 0x8C379A000000000000000000000000000000000000000000000000000000000 DUP2 MSTORE PUSH1 0x4 ADD PUSH2 0x379 SWAP1 PUSH2 0x432F JUMP JUMPDEST PUSH1 0x40 MLOAD DUP1 SWAP2 SUB SWAP1 REVERT JUMPDEST DUP1 SWAP2 POP POP SWAP2 SWAP1 POP JUMP JUMPDEST PUSH1 0x0 PUSH1 0x1 PUSH1 0x0 SWAP1 SLOAD SWAP1 PUSH2 0x100 EXP SWAP1 DIV PUSH20 0xFFFFFFFFFFFFFFFFFFFFFFFFFFFFFFFFFFFFFFFF AND SWAP1 POP SWAP1 JUMP JUMPDEST PUSH1 0x0 PUSH2 0x3C3 DUP7 DUP7 DUP7 DUP7 PUSH2 0x13BC JUMP JUMPDEST SWAP1 POP PUSH1 0x0 PUSH1 0x2 PUSH1 0x0 DUP4 PUSH20 0xFFFFFFFFFFFFFFFFFFFFFFFFFFFFFFFFFFFFFFFF AND PUSH20 0xFFFFFFFFFFFFFFFFFFFFFFFFFFFFFFFFFFFFFFFF AND DUP2 MSTORE PUSH1 0x20 ADD SWAP1 DUP2 MSTORE PUSH1 0x20 ADD PUSH1 0x0 KECCAK256 PUSH1 0x0 ADD PUSH1 0x0 SWAP1 SLOAD SWAP1 PUSH2 0x100 EXP SWAP1 DIV PUSH20 0xFFFFFFFFFFFFFFFFFFFFFFFFFFFFFFFFFFFFFFFF AND SWAP1 POP DUP1 PUSH20 0xFFFFFFFFFFFFFFFFFFFFFFFFFFFFFFFFFFFFFFFF AND PUSH4 0xA9910054 DUP5 PUSH1 0x40 MLOAD DUP3 PUSH4 0xFFFFFFFF AND PUSH1 0xE0 SHL DUP2 MSTORE PUSH1 0x4 ADD PUSH2 0x465 SWAP2 SWAP1 PUSH2 0x4388 JUMP JUMPDEST PUSH1 0x0 PUSH1 0x40 MLOAD DUP1 DUP4 SUB DUP2 PUSH1 0x0 DUP8 DUP1 EXTCODESIZE ISZERO DUP1 ISZERO PUSH2 0x47F JUMPI PUSH1 0x0 DUP1 REVERT JUMPDEST POP GAS CALL ISZERO DUP1 ISZERO PUSH2 0x493 JUMPI RETURNDATASIZE PUSH1 0x0 DUP1 RETURNDATACOPY RETURNDATASIZE PUSH1 0x0 REVERT JUMPDEST POP POP POP POP POP POP POP POP POP POP POP JUMP JUMPDEST PUSH1 0x60 PUSH1 0x0 PUSH2 0x4B0 DUP7 DUP7 DUP7 DUP7 PUSH2 0x13BC JUMP JUMPDEST SWAP1 POP PUSH1 0x0 PUSH20 0xFFFFFFFFFFFFFFFFFFFFFFFFFFFFFFFFFFFFFFFF AND DUP2 PUSH20 0xFFFFFFFFFFFFFFFFFFFFFFFFFFFFFFFFFFFFFFFF AND SUB PUSH2 0x521 JUMPI PUSH1 0x40 MLOAD PUSH32 0x8C379A000000000000000000000000000000000000000000000000000000000 DUP2 MSTORE PUSH1 0x4 ADD PUSH2 0x518 SWAP1 PUSH2 0x43F6 JUMP JUMPDEST PUSH1 0x40 MLOAD DUP1 SWAP2 SUB SWAP1 REVERT JUMPDEST PUSH2 0x535 DUP2 PUSH1 0x5 PUSH2 0x147F SWAP1 SWAP2 SWAP1 PUSH4 0xFFFFFFFF AND JUMP JUMPDEST SWAP2 POP POP SWAP5 SWAP4 POP POP POP POP JUMP JUMPDEST PUSH1 0x0 PUSH2 0x54E DUP7 DUP7 DUP7 DUP7 PUSH2 0x13BC JUMP JUMPDEST SWAP1 POP PUSH2 0x566 DUP2 DUP4 PUSH1 0x5 PUSH2 0x1904 SWAP1 SWAP3 SWAP2 SWAP1 PUSH4 0xFFFFFFFF AND JUMP JUMPDEST POP POP POP POP POP POP JUMP JUMPDEST PUSH1 0x0 PUSH2 0x57C DUP7 DUP7 DUP7 DUP7 PUSH2 0x13BC JUMP JUMPDEST SWAP1 POP PUSH1 0x0 PUSH20 0xFFFFFFFFFFFFFFFFFFFFFFFFFFFFFFFFFFFFFFFF AND PUSH1 0x5 PUSH1 0x0 ADD PUSH1 0x0 DUP4 PUSH20 0xFFFFFFFFFFFFFFFFFFFFFFFFFFFFFFFFFFFFFFFF AND PUSH20 0xFFFFFFFFFFFFFFFFFFFFFFFFFFFFFFFFFFFFFFFF AND DUP2 MSTORE PUSH1 0x20 ADD SWAP1 DUP2 MSTORE PUSH1 0x20 ADD PUSH1 0x0 KECCAK256 DUP4 PUSH1 0x40 MLOAD PUSH2 0x5E6 SWAP2 SWAP1 PUSH2 0x4452 JUMP JUMPDEST SWAP1 DUP2 MSTORE PUSH1 0x20 ADD PUSH1 0x40 MLOAD DUP1 SWAP2 SUB SWAP1 KECCAK256 PUSH1 0x0 ADD PUSH1 0x0 SWAP1 SLOAD SWAP1 PUSH2 0x100 EXP SWAP1 DIV PUSH20 0xFFFFFFFFFFFFFFFFFFFFFFFFFFFFFFFFFFFFFFFF AND PUSH20 0xFFFFFFFFFFFFFFFFFFFFFFFFFFFFFFFFFFFFFFFF AND SUB PUSH2 0x66E JUMPI PUSH1 0x40 MLOAD PUSH32 0x8C379A000000000000000000000000000000000000000000000000000000000 DUP2 MSTORE PUSH1 0x4 ADD PUSH2 0x665 SWAP1 PUSH2 0x44B5 JUMP JUMPDEST PUSH1 0x40 MLOAD DUP1 SWAP2 SUB SWAP1 REVERT JUMPDEST PUSH1 0x0 PUSH1 0x2 PUSH1 0x0 DUP4 PUSH20 0xFFFFFFFFFFFFFFFFFFFFFFFFFFFFFFFFFFFFFFFF AND PUSH20 0xFFFFFFFFFFFFFFFFFFFFFFFFFFFFFFFFFFFFFFFF AND DUP2 MSTORE PUSH1 0x20 ADD SWAP1 DUP2 MSTORE PUSH1 0x20 ADD PUSH1 0x0 KECCAK256 PUSH1 0x1 ADD DUP1 SLOAD PUSH2 0x6BD SWAP1 PUSH2 0x4504 JUMP JUMPDEST SWAP1 POP SUB PUSH2 0x6FF JUMPI PUSH1 0x40 MLOAD PUSH32 0x8C379A000000000000000000000000000000000000000000000000000000000 DUP2 MSTORE PUSH1 0x4 ADD PUSH2 0x6F6 SWAP1 PUSH2 0x43F6 JUMP JUMPDEST PUSH1 0x40 MLOAD DUP1 SWAP2 SUB SWAP1 REVERT JUMPDEST PUSH1 0x0 PUSH1 0x2 PUSH1 0x0 DUP4 PUSH20 0xFFFFFFFFFFFFFFFFFFFFFFFFFFFFFFFFFFFFFFFF AND PUSH20 0xFFFFFFFFFFFFFFFFFFFFFFFFFFFFFFFFFFFFFFFF AND DUP2 MSTORE PUSH1 0x20 ADD SWAP1 DUP2 MSTORE PUSH1 0x20 ADD PUSH1 0x0 KECCAK256 PUSH1 0x0 ADD PUSH1 0x0 SWAP1 SLOAD SWAP1 PUSH2 0x100 EXP SWAP1 DIV PUSH20 0xFFFFFFFFFFFFFFFFFFFFFFFFFFFFFFFFFFFFFFFF AND SWAP1 POP PUSH1 0x0 PUSH1 0x5 PUSH1 0x0 ADD PUSH1 0x0 DUP5 PUSH20 0xFFFFFFFFFFFFFFFFFFFFFFFFFFFFFFFFFFFFFFFF AND PUSH20 0xFFFFFFFFFFFFFFFFFFFFFFFFFFFFFFFFFFFFFFFF AND DUP2 MSTORE PUSH1 0x20 ADD SWAP1 DUP2 MSTORE PUSH1 0x20 ADD PUSH1 0x0 KECCAK256 DUP5 PUSH1 0x40 MLOAD PUSH2 0x7B8 SWAP2 SWAP1 PUSH2 0x4452 JUMP JUMPDEST SWAP1 DUP2 MSTORE PUSH1 0x20 ADD PUSH1 0x40 MLOAD DUP1 SWAP2 SUB SWAP1 KECCAK256 PUSH1 0x40 MLOAD DUP1 PUSH1 0xA0 ADD PUSH1 0x40 MSTORE SWAP1 DUP2 PUSH1 0x0 DUP3 ADD PUSH1 0x0 SWAP1 SLOAD SWAP1 PUSH2 0x100 EXP SWAP1 DIV PUSH20 0xFFFFFFFFFFFFFFFFFFFFFFFFFFFFFFFFFFFFFFFF AND PUSH20 0xFFFFFFFFFFFFFFFFFFFFFFFFFFFFFFFFFFFFFFFF AND PUSH20 0xFFFFFFFFFFFFFFFFFFFFFFFFFFFFFFFFFFFFFFFF AND DUP2 MSTORE PUSH1 0x20 ADD PUSH1 0x1 DUP3 ADD DUP1 SLOAD PUSH2 0x837 SWAP1 PUSH2 0x4504 JUMP JUMPDEST DUP1 PUSH1 0x1F ADD PUSH1 0x20 DUP1 SWAP2 DIV MUL PUSH1 0x20 ADD PUSH1 0x40 MLOAD SWAP1 DUP2 ADD PUSH1 0x40 MSTORE DUP1 SWAP3 SWAP2 SWAP1 DUP2 DUP2 MSTORE PUSH1 0x20 ADD DUP3 DUP1 SLOAD PUSH2 0x863 SWAP1 PUSH2 0x4504 JUMP JUMPDEST DUP1 ISZERO PUSH2 0x8B0 JUMPI DUP1 PUSH1 0x1F LT PUSH2 0x885 JUMPI PUSH2 0x100 DUP1 DUP4 SLOAD DIV MUL DUP4 MSTORE SWAP2 PUSH1 0x20 ADD SWAP2 PUSH2 0x8B0 JUMP JUMPDEST DUP3 ADD SWAP2 SWAP1 PUSH1 0x0 MSTORE PUSH1 0x20 PUSH1 0x0 KECCAK256 SWAP1 JUMPDEST DUP2 SLOAD DUP2 MSTORE SWAP1 PUSH1 0x1 ADD SWAP1 PUSH1 0x20 ADD DUP1 DUP4 GT PUSH2 0x893 JUMPI DUP3 SWAP1 SUB PUSH1 0x1F AND DUP3 ADD SWAP2 JUMPDEST POP POP POP POP POP DUP2 MSTORE PUSH1 0x20 ADD PUSH1 0x2 DUP3 ADD DUP1 SLOAD PUSH2 0x8C9 SWAP1 PUSH2 0x4504 JUMP JUMPDEST DUP1 PUSH1 0x1F ADD PUSH1 0x20 DUP1 SWAP2 DIV MUL PUSH1 0x20 ADD PUSH1 0x40 MLOAD SWAP1 DUP2 ADD PUSH1 0x40 MSTORE DUP1 SWAP3 SWAP2 SWAP1 DUP2 DUP2 MSTORE PUSH1 0x20 ADD DUP3 DUP1 SLOAD PUSH2 0x8F5 SWAP1 PUSH2 0x4504 JUMP JUMPDEST DUP1 ISZERO PUSH2 0x942 JUMPI DUP1 PUSH1 0x1F LT PUSH2 0x917 JUMPI PUSH2 0x100 DUP1 DUP4 SLOAD DIV MUL DUP4 MSTORE SWAP2 PUSH1 0x20 ADD SWAP2 PUSH2 0x942 JUMP JUMPDEST DUP3 ADD SWAP2 SWAP1 PUSH1 0x0 MSTORE PUSH1 0x20 PUSH1 0x0 KECCAK256 SWAP1 JUMPDEST DUP2 SLOAD DUP2 MSTORE SWAP1 PUSH1 0x1 ADD SWAP1 PUSH1 0x20 ADD DUP1 DUP4 GT PUSH2 0x925 JUMPI DUP3 SWAP1 SUB PUSH1 0x1F AND DUP3 ADD SWAP2 JUMPDEST POP POP POP POP POP DUP2 MSTORE PUSH1 0x20 ADD PUSH1 0x3 DUP3 ADD DUP1 SLOAD PUSH2 0x95B SWAP1 PUSH2 0x4504 JUMP JUMPDEST DUP1 PUSH1 0x1F ADD PUSH1 0x20 DUP1 SWAP2 DIV MUL PUSH1 0x20 ADD PUSH1 0x40 MLOAD SWAP1 DUP2 ADD PUSH1 0x40 MSTORE DUP1 SWAP3 SWAP2 SWAP1 DUP2 DUP2 MSTORE PUSH1 0x20 ADD DUP3 DUP1 SLOAD PUSH2 0x987 SWAP1 PUSH2 0x4504 JUMP JUMPDEST DUP1 ISZERO PUSH2 0x9D4 JUMPI DUP1 PUSH1 0x1F LT PUSH2 0x9A9 JUMPI PUSH2 0x100 DUP1 DUP4 SLOAD DIV MUL DUP4 MSTORE SWAP2 PUSH1 0x20 ADD SWAP2 PUSH2 0x9D4 JUMP JUMPDEST DUP3 ADD SWAP2 SWAP1 PUSH1 0x0 MSTORE PUSH1 0x20 PUSH1 0x0 KECCAK256 SWAP1 JUMPDEST DUP2 SLOAD DUP2 MSTORE SWAP1 PUSH1 0x1 ADD SWAP1 PUSH1 0x20 ADD DUP1 DUP4 GT PUSH2 0x9B7 JUMPI DUP3 SWAP1 SUB PUSH1 0x1F AND DUP3 ADD SWAP2 JUMPDEST POP POP POP POP POP DUP2 MSTORE PUSH1 0x20 ADD PUSH1 0x4 DUP3 ADD DUP1 SLOAD PUSH2 0x9ED SWAP1 PUSH2 0x4504 JUMP JUMPDEST DUP1 PUSH1 0x1F ADD PUSH1 0x20 DUP1 SWAP2 DIV MUL PUSH1 0x20 ADD PUSH1 0x40 MLOAD SWAP1 DUP2 ADD PUSH1 0x40 MSTORE DUP1 SWAP3 SWAP2 SWAP1 DUP2 DUP2 MSTORE PUSH1 0x20 ADD DUP3 DUP1 SLOAD PUSH2 0xA19 SWAP1 PUSH2 0x4504 JUMP JUMPDEST DUP1 ISZERO PUSH2 0xA66 JUMPI DUP1 PUSH1 0x1F LT PUSH2 0xA3B JUMPI PUSH2 0x100 DUP1 DUP4 SLOAD DIV MUL DUP4 MSTORE SWAP2 PUSH1 0x20 ADD SWAP2 PUSH2 0xA66 JUMP JUMPDEST DUP3 ADD SWAP2 SWAP1 PUSH1 0x0 MSTORE PUSH1 0x20 PUSH1 0x0 KECCAK256 SWAP1 JUMPDEST DUP2 SLOAD DUP2 MSTORE SWAP1 PUSH1 0x1 ADD SWAP1 PUSH1 0x20 ADD DUP1 DUP4 GT PUSH2 0xA49 JUMPI DUP3 SWAP1 SUB PUSH1 0x1F AND DUP3 ADD SWAP2 JUMPDEST POP POP POP POP POP DUP2 MSTORE POP POP SWAP1 POP DUP2 PUSH20 0xFFFFFFFFFFFFFFFFFFFFFFFFFFFFFFFFFFFFFFFF AND PUSH4 0x384E477D DUP3 PUSH1 0x60 ADD MLOAD DUP4 PUSH1 0x80 ADD MLOAD DUP5 PUSH1 0x20 ADD MLOAD DUP6 PUSH1 0x40 ADD MLOAD DUP7 PUSH1 0x0 ADD MLOAD PUSH1 0x40 MLOAD DUP7 PUSH4 0xFFFFFFFF AND PUSH1 0xE0 SHL DUP2 MSTORE PUSH1 0x4 ADD PUSH2 0xAC6 SWAP6 SWAP5 SWAP4 SWAP3 SWAP2 SWAP1 PUSH2 0x4535 JUMP JUMPDEST PUSH1 0x0 PUSH1 0x40 MLOAD DUP1 DUP4 SUB DUP2 PUSH1 0x0 DUP8 DUP1 EXTCODESIZE ISZERO DUP1 ISZERO PUSH2 0xAE0 JUMPI PUSH1 0x0 DUP1 REVERT JUMPDEST POP GAS CALL ISZERO DUP1 ISZERO PUSH2 0xAF4 JUMPI RETURNDATASIZE PUSH1 0x0 DUP1 RETURNDATACOPY RETURNDATASIZE PUSH1 0x0 REVERT JUMPDEST POP POP POP POP PUSH2 0xB0E DUP4 DUP6 PUSH1 0x5 PUSH2 0x1904 SWAP1 SWAP3 SWAP2 SWAP1 PUSH4 0xFFFFFFFF AND JUMP JUMPDEST POP POP POP POP POP POP POP POP JUMP JUMPDEST PUSH1 0x0 DUP1 PUSH1 0x0 SWAP1 SLOAD SWAP1 PUSH2 0x100 EXP SWAP1 DIV PUSH20 0xFFFFFFFFFFFFFFFFFFFFFFFFFFFFFFFFFFFFFFFF AND SWAP1 POP SWAP1 JUMP JUMPDEST PUSH1 0x0 DUP1 PUSH1 0x0 PUSH2 0xB52 DUP8 DUP8 DUP8 DUP8 PUSH2 0x1B46 JUMP JUMPDEST SWAP2 POP SWAP2 POP PUSH1 0x0 PUSH1 0x4 PUSH1 0x0 SWAP1 SLOAD SWAP1 PUSH2 0x100 EXP SWAP1 DIV PUSH20 0xFFFFFFFFFFFFFFFFFFFFFFFFFFFFFFFFFFFFFFFF AND PUSH20 0xFFFFFFFFFFFFFFFFFFFFFFFFFFFFFFFFFFFFFFFF AND PUSH4 0x918AAFF5 DUP5 DUP12 PUSH1 0x40 MLOAD DUP4 PUSH4 0xFFFFFFFF AND PUSH1 0xE0 SHL DUP2 MSTORE PUSH1 0x4 ADD PUSH2 0xBB5 SWAP3 SWAP2 SWAP1 PUSH2 0x45A4 JUMP JUMPDEST PUSH1 0x20 PUSH1 0x40 MLOAD DUP1 DUP4 SUB DUP2 PUSH1 0x0 DUP8 GAS CALL ISZERO DUP1 ISZERO PUSH2 0xBD4 JUMPI RETURNDATASIZE PUSH1 0x0 DUP1 RETURNDATACOPY RETURNDATASIZE PUSH1 0x0 REVERT JUMPDEST POP POP POP POP PUSH1 0x40 MLOAD RETURNDATASIZE PUSH1 0x1F NOT PUSH1 0x1F DUP3 ADD AND DUP3 ADD DUP1 PUSH1 0x40 MSTORE POP DUP2 ADD SWAP1 PUSH2 0xBF8 SWAP2 SWAP1 PUSH2 0x45E9 JUMP JUMPDEST SWAP1 POP PUSH1 0x40 MLOAD DUP1 PUSH1 0x40 ADD PUSH1 0x40 MSTORE DUP1 DUP3 PUSH20 0xFFFFFFFFFFFFFFFFFFFFFFFFFFFFFFFFFFFFFFFF AND DUP2 MSTORE PUSH1 0x20 ADD DUP4 DUP2 MSTORE POP PUSH1 0x2 PUSH1 0x0 DUP6 PUSH20 0xFFFFFFFFFFFFFFFFFFFFFFFFFFFFFFFFFFFFFFFF AND PUSH20 0xFFFFFFFFFFFFFFFFFFFFFFFFFFFFFFFFFFFFFFFF AND DUP2 MSTORE PUSH1 0x20 ADD SWAP1 DUP2 MSTORE PUSH1 0x20 ADD PUSH1 0x0 KECCAK256 PUSH1 0x0 DUP3 ADD MLOAD DUP2 PUSH1 0x0 ADD PUSH1 0x0 PUSH2 0x100 EXP DUP2 SLOAD DUP2 PUSH20 0xFFFFFFFFFFFFFFFFFFFFFFFFFFFFFFFFFFFFFFFF MUL NOT AND SWAP1 DUP4 PUSH20 0xFFFFFFFFFFFFFFFFFFFFFFFFFFFFFFFFFFFFFFFF AND MUL OR SWAP1 SSTORE POP PUSH1 0x20 DUP3 ADD MLOAD DUP2 PUSH1 0x1 ADD SWAP1 DUP2 PUSH2 0xCC0 SWAP2 SWAP1 PUSH2 0x47CC JUMP JUMPDEST POP SWAP1 POP POP PUSH1 0x3 DUP4 SWAP1 DUP1 PUSH1 0x1 DUP2 SLOAD ADD DUP1 DUP3 SSTORE DUP1 SWAP2 POP POP PUSH1 0x1 SWAP1 SUB SWAP1 PUSH1 0x0 MSTORE PUSH1 0x20 PUSH1 0x0 KECCAK256 ADD PUSH1 0x0 SWAP1 SWAP2 SWAP1 SWAP2 SWAP1 SWAP2 PUSH2 0x100 EXP DUP2 SLOAD DUP2 PUSH20 0xFFFFFFFFFFFFFFFFFFFFFFFFFFFFFFFFFFFFFFFF MUL NOT AND SWAP1 DUP4 PUSH20 0xFFFFFFFFFFFFFFFFFFFFFFFFFFFFFFFFFFFFFFFF AND MUL OR SWAP1 SSTORE POP DUP1 SWAP4 POP POP POP POP SWAP6 SWAP5 POP POP POP POP POP JUMP JUMPDEST PUSH1 0x0 PUSH2 0xD44 DUP6 DUP6 DUP6 DUP6 PUSH2 0x13BC JUMP JUMPDEST SWAP1 POP PUSH1 0x0 PUSH1 0x2 PUSH1 0x0 DUP4 PUSH20 0xFFFFFFFFFFFFFFFFFFFFFFFFFFFFFFFFFFFFFFFF AND PUSH20 0xFFFFFFFFFFFFFFFFFFFFFFFFFFFFFFFFFFFFFFFF AND DUP2 MSTORE PUSH1 0x20 ADD SWAP1 DUP2 MSTORE PUSH1 0x20 ADD PUSH1 0x0 KECCAK256 PUSH1 0x0 ADD PUSH1 0x0 SWAP1 SLOAD SWAP1 PUSH2 0x100 EXP SWAP1 DIV PUSH20 0xFFFFFFFFFFFFFFFFFFFFFFFFFFFFFFFFFFFFFFFF AND SWAP1 POP DUP1 PUSH20 0xFFFFFFFFFFFFFFFFFFFFFFFFFFFFFFFFFFFFFFFF AND PUSH4 0xD590E7EF DUP12 DUP12 DUP12 DUP12 PUSH1 0x40 MLOAD DUP6 PUSH4 0xFFFFFFFF AND PUSH1 0xE0 SHL DUP2 MSTORE PUSH1 0x4 ADD PUSH2 0xDEC SWAP5 SWAP4 SWAP3 SWAP2 SWAP1 PUSH2 0x489E JUMP JUMPDEST PUSH1 0x0 PUSH1 0x40 MLOAD DUP1 DUP4 SUB DUP2 PUSH1 0x0 DUP8 DUP1 EXTCODESIZE ISZERO DUP1 ISZERO PUSH2 0xE06 JUMPI PUSH1 0x0 DUP1 REVERT JUMPDEST POP GAS CALL ISZERO DUP1 ISZERO PUSH2 0xE1A JUMPI RETURNDATASIZE PUSH1 0x0 DUP1 RETURNDATACOPY RETURNDATASIZE PUSH1 0x0 REVERT JUMPDEST POP POP POP POP POP POP POP POP POP POP POP POP POP POP JUMP JUMPDEST PUSH1 0x60 DUP1 PUSH1 0x0 DUP1 SLOAD SWAP1 PUSH2 0x100 EXP SWAP1 DIV PUSH20 0xFFFFFFFFFFFFFFFFFFFFFFFFFFFFFFFFFFFFFFFF AND PUSH20 0xFFFFFFFFFFFFFFFFFFFFFFFFFFFFFFFFFFFFFFFF AND CALLER PUSH20 0xFFFFFFFFFFFFFFFFFFFFFFFFFFFFFFFFFFFFFFFF AND EQ DUP1 PUSH2 0xED4 JUMPI POP PUSH1 0x1 PUSH1 0x0 SWAP1 SLOAD SWAP1 PUSH2 0x100 EXP SWAP1 DIV PUSH20 0xFFFFFFFFFFFFFFFFFFFFFFFFFFFFFFFFFFFFFFFF AND PUSH20 0xFFFFFFFFFFFFFFFFFFFFFFFFFFFFFFFFFFFFFFFF AND CALLER PUSH20 0xFFFFFFFFFFFFFFFFFFFFFFFFFFFFFFFFFFFFFFFF AND EQ JUMPDEST PUSH2 0xF13 JUMPI PUSH1 0x40 MLOAD PUSH32 0x8C379A000000000000000000000000000000000000000000000000000000000 DUP2 MSTORE PUSH1 0x4 ADD PUSH2 0xF0A SWAP1 PUSH2 0x4971 JUMP JUMPDEST PUSH1 0x40 MLOAD DUP1 SWAP2 SUB SWAP1 REVERT JUMPDEST PUSH1 0x60 PUSH1 0x0 JUMPDEST PUSH1 0x3 DUP1 SLOAD SWAP1 POP DUP2 LT ISZERO PUSH2 0x1020 JUMPI PUSH1 0x2 PUSH1 0x0 PUSH1 0x3 DUP4 DUP2 SLOAD DUP2 LT PUSH2 0xF3D JUMPI PUSH2 0xF3C PUSH2 0x4991 JUMP JUMPDEST JUMPDEST SWAP1 PUSH1 0x0 MSTORE PUSH1 0x20 PUSH1 0x0 KECCAK256 ADD PUSH1 0x0 SWAP1 SLOAD SWAP1 PUSH2 0x100 EXP SWAP1 DIV PUSH20 0xFFFFFFFFFFFFFFFFFFFFFFFFFFFFFFFFFFFFFFFF AND PUSH20 0xFFFFFFFFFFFFFFFFFFFFFFFFFFFFFFFFFFFFFFFF AND PUSH20 0xFFFFFFFFFFFFFFFFFFFFFFFFFFFFFFFFFFFFFFFF AND DUP2 MSTORE PUSH1 0x20 ADD SWAP1 DUP2 MSTORE PUSH1 0x20 ADD PUSH1 0x0 KECCAK256 PUSH1 0x0 ADD PUSH1 0x0 SWAP1 SLOAD SWAP1 PUSH2 0x100 EXP SWAP1 DIV PUSH20 0xFFFFFFFFFFFFFFFFFFFFFFFFFFFFFFFFFFFFFFFF AND DUP3 DUP3 DUP2 MLOAD DUP2 LT PUSH2 0xFD9 JUMPI PUSH2 0xFD8 PUSH2 0x4991 JUMP JUMPDEST JUMPDEST PUSH1 0x20 MUL PUSH1 0x20 ADD ADD SWAP1 PUSH20 0xFFFFFFFFFFFFFFFFFFFFFFFFFFFFFFFFFFFFFFFF AND SWAP1 DUP2 PUSH20 0xFFFFFFFFFFFFFFFFFFFFFFFFFFFFFFFFFFFFFFFF AND DUP2 MSTORE POP POP DUP1 DUP1 PUSH1 0x1 ADD SWAP2 POP POP PUSH2 0xF18 JUMP JUMPDEST POP PUSH1 0x3 DUP2 DUP2 DUP1 SLOAD DUP1 PUSH1 0x20 MUL PUSH1 0x20 ADD PUSH1 0x40 MLOAD SWAP1 DUP2 ADD PUSH1 0x40 MSTORE DUP1 SWAP3 SWAP2 SWAP1 DUP2 DUP2 MSTORE PUSH1 0x20 ADD DUP3 DUP1 SLOAD DUP1 ISZERO PUSH2 0x10A5 JUMPI PUSH1 0x20 MUL DUP3 ADD SWAP2 SWAP1 PUSH1 0x0 MSTORE PUSH1 0x20 PUSH1 0x0 KECCAK256 SWAP1 JUMPDEST DUP2 PUSH1 0x0 SWAP1 SLOAD SWAP1 PUSH2 0x100 EXP SWAP1 DIV PUSH20 0xFFFFFFFFFFFFFFFFFFFFFFFFFFFFFFFFFFFFFFFF AND PUSH20 0xFFFFFFFFFFFFFFFFFFFFFFFFFFFFFFFFFFFFFFFF AND DUP2 MSTORE PUSH1 0x20 ADD SWAP1 PUSH1 0x1 ADD SWAP1 DUP1 DUP4 GT PUSH2 0x105B JUMPI JUMPDEST POP POP POP POP POP SWAP2 POP SWAP3 POP SWAP3 POP POP SWAP1 SWAP2 JUMP JUMPDEST PUSH1 0x60 PUSH1 0x0 PUSH2 0x10C5 DUP7 DUP7 DUP7 DUP7 PUSH2 0x13BC JUMP JUMPDEST SWAP1 POP PUSH1 0x0 PUSH1 0x2 PUSH1 0x0 DUP4 PUSH20 0xFFFFFFFFFFFFFFFFFFFFFFFFFFFFFFFFFFFFFFFF AND PUSH20 0xFFFFFFFFFFFFFFFFFFFFFFFFFFFFFFFFFFFFFFFF AND DUP2 MSTORE PUSH1 0x20 ADD SWAP1 DUP2 MSTORE PUSH1 0x20 ADD PUSH1 0x0 KECCAK256 PUSH1 0x0 ADD PUSH1 0x0 SWAP1 SLOAD SWAP1 PUSH2 0x100 EXP SWAP1 DIV PUSH20 0xFFFFFFFFFFFFFFFFFFFFFFFFFFFFFFFFFFFFFFFF AND SWAP1 POP DUP1 PUSH20 0xFFFFFFFFFFFFFFFFFFFFFFFFFFFFFFFFFFFFFFFF AND PUSH4 0xFF24B5D5 PUSH1 0x40 MLOAD DUP2 PUSH4 0xFFFFFFFF AND PUSH1 0xE0 SHL DUP2 MSTORE PUSH1 0x4 ADD PUSH1 0x0 PUSH1 0x40 MLOAD DUP1 DUP4 SUB DUP2 DUP7 GAS STATICCALL ISZERO DUP1 ISZERO PUSH2 0x1179 JUMPI RETURNDATASIZE PUSH1 0x0 DUP1 RETURNDATACOPY RETURNDATASIZE PUSH1 0x0 REVERT JUMPDEST POP POP POP POP PUSH1 0x40 MLOAD RETURNDATASIZE PUSH1 0x0 DUP3 RETURNDATACOPY RETURNDATASIZE PUSH1 0x1F NOT PUSH1 0x1F DUP3 ADD AND DUP3 ADD DUP1 PUSH1 0x40 MSTORE POP DUP2 ADD SWAP1 PUSH2 0x11A2 SWAP2 SWAP1 PUSH2 0x4C1C JUMP JUMPDEST SWAP3 POP POP POP SWAP5 SWAP4 POP POP POP POP JUMP JUMPDEST PUSH1 0x0 PUSH20 0xFFFFFFFFFFFFFFFFFFFFFFFFFFFFFFFFFFFFFFFF AND DUP6 PUSH20 0xFFFFFFFFFFFFFFFFFFFFFFFFFFFFFFFFFFFFFFFF AND SUB PUSH2 0x121D JUMPI PUSH1 0x40 MLOAD PUSH32 0x8C379A000000000000000000000000000000000000000000000000000000000 DUP2 MSTORE PUSH1 0x4 ADD PUSH2 0x1214 SWAP1 PUSH2 0x43F6 JUMP JUMPDEST PUSH1 0x40 MLOAD DUP1 SWAP2 SUB SWAP1 REVERT JUMPDEST PUSH1 0x0 PUSH1 0x2 PUSH1 0x0 DUP8 PUSH20 0xFFFFFFFFFFFFFFFFFFFFFFFFFFFFFFFFFFFFFFFF AND PUSH20 0xFFFFFFFFFFFFFFFFFFFFFFFFFFFFFFFFFFFFFFFF AND DUP2 MSTORE PUSH1 0x20 ADD SWAP1 DUP2 MSTORE PUSH1 0x20 ADD PUSH1 0x0 KECCAK256 PUSH1 0x1 ADD DUP1 SLOAD PUSH2 0x126C SWAP1 PUSH2 0x4504 JUMP JUMPDEST SWAP1 POP SUB PUSH2 0x12AE JUMPI PUSH1 0x40 MLOAD PUSH32 0x8C379A000000000000000000000000000000000000000000000000000000000 DUP2 MSTORE PUSH1 0x4 ADD PUSH2 0x12A5 SWAP1 PUSH2 0x43F6 JUMP JUMPDEST PUSH1 0x40 MLOAD DUP1 SWAP2 SUB SWAP1 REVERT JUMPDEST PUSH1 0x0 PUSH2 0x12BC DUP11 DUP11 DUP11 DUP11 PUSH2 0x13BC JUMP JUMPDEST SWAP1 POP PUSH2 0x12DC DUP2 DUP8 DUP8 DUP8 DUP8 DUP8 PUSH1 0x5 PUSH2 0x1C5B SWAP1 SWAP7 SWAP6 SWAP5 SWAP4 SWAP3 SWAP2 SWAP1 PUSH4 0xFFFFFFFF AND JUMP JUMPDEST POP POP POP POP POP POP POP POP POP POP JUMP JUMPDEST PUSH1 0x60 PUSH1 0x2 PUSH1 0x0 DUP4 PUSH20 0xFFFFFFFFFFFFFFFFFFFFFFFFFFFFFFFFFFFFFFFF AND PUSH20 0xFFFFFFFFFFFFFFFFFFFFFFFFFFFFFFFFFFFFFFFF AND DUP2 MSTORE PUSH1 0x20 ADD SWAP1 DUP2 MSTORE PUSH1 0x20 ADD PUSH1 0x0 KECCAK256 PUSH1 0x1 ADD DUP1 SLOAD PUSH2 0x1337 SWAP1 PUSH2 0x4504 JUMP JUMPDEST DUP1 PUSH1 0x1F ADD PUSH1 0x20 DUP1 SWAP2 DIV MUL PUSH1 0x20 ADD PUSH1 0x40 MLOAD SWAP1 DUP2 ADD PUSH1 0x40 MSTORE DUP1 SWAP3 SWAP2 SWAP1 DUP2 DUP2 MSTORE PUSH1 0x20 ADD DUP3 DUP1 SLOAD PUSH2 0x1363 SWAP1 PUSH2 0x4504 JUMP JUMPDEST DUP1 ISZERO PUSH2 0x13B0 JUMPI DUP1 PUSH1 0x1F LT PUSH2 0x1385 JUMPI PUSH2 0x100 DUP1 DUP4 SLOAD DIV MUL DUP4 MSTORE SWAP2 PUSH1 0x20 ADD SWAP2 PUSH2 0x13B0 JUMP JUMPDEST DUP3 ADD SWAP2 SWAP1 PUSH1 0x0 MSTORE PUSH1 0x20 PUSH1 0x0 KECCAK256 SWAP1 JUMPDEST DUP2 SLOAD DUP2 MSTORE SWAP1 PUSH1 0x1 ADD SWAP1 PUSH1 0x20 ADD DUP1 DUP4 GT PUSH2 0x1393 JUMPI DUP3 SWAP1 SUB PUSH1 0x1F AND DUP3 ADD SWAP2 JUMPDEST POP POP POP POP POP SWAP1 POP SWAP2 SWAP1 POP JUMP JUMPDEST PUSH1 0x0 DUP1 PUSH1 0x40 MLOAD DUP1 PUSH1 0x40 ADD PUSH1 0x40 MSTORE DUP1 PUSH1 0x1C DUP2 MSTORE PUSH1 0x20 ADD PUSH32 0x19457468657265756D205369676E6564204D6573736167653A0A333200000000 DUP2 MSTORE POP SWAP1 POP PUSH1 0x0 DUP2 DUP8 PUSH1 0x40 MLOAD PUSH1 0x20 ADD PUSH2 0x140C SWAP3 SWAP2 SWAP1 PUSH2 0x4CC2 JUMP JUMPDEST PUSH1 0x40 MLOAD PUSH1 0x20 DUP2 DUP4 SUB SUB DUP2 MSTORE SWAP1 PUSH1 0x40 MSTORE DUP1 MLOAD SWAP1 PUSH1 0x20 ADD KECCAK256 SWAP1 POP PUSH1 0x1 DUP2 DUP8 DUP8 DUP8 PUSH1 0x40 MLOAD PUSH1 0x0 DUP2 MSTORE PUSH1 0x20 ADD PUSH1 0x40 MSTORE PUSH1 0x40 MLOAD PUSH2 0x1447 SWAP5 SWAP4 SWAP3 SWAP2 SWAP1 PUSH2 0x4D08 JUMP JUMPDEST PUSH1 0x20 PUSH1 0x40 MLOAD PUSH1 0x20 DUP2 SUB SWAP1 DUP1 DUP5 SUB SWAP1 DUP6 GAS STATICCALL ISZERO DUP1 ISZERO PUSH2 0x1469 JUMPI RETURNDATASIZE PUSH1 0x0 DUP1 RETURNDATACOPY RETURNDATASIZE PUSH1 0x0 REVERT JUMPDEST POP POP POP PUSH1 0x20 PUSH1 0x40 MLOAD SUB MLOAD SWAP3 POP POP POP SWAP5 SWAP4 POP POP POP POP JUMP JUMPDEST PUSH1 0x60 PUSH1 0x0 DUP4 PUSH1 0x1 ADD PUSH1 0x0 DUP5 PUSH20 0xFFFFFFFFFFFFFFFFFFFFFFFFFFFFFFFFFFFFFFFF AND PUSH20 0xFFFFFFFFFFFFFFFFFFFFFFFFFFFFFFFFFFFFFFFF AND DUP2 MSTORE PUSH1 0x20 ADD SWAP1 DUP2 MSTORE PUSH1 0x20 ADD PUSH1 0x0 KECCAK256 DUP1 SLOAD SWAP1 POP PUSH8 0xFFFFFFFFFFFFFFFF DUP2 GT ISZERO PUSH2 0x14E1 JUMPI PUSH2 0x14E0 PUSH2 0x38E9 JUMP JUMPDEST JUMPDEST PUSH1 0x40 MLOAD SWAP1 DUP1 DUP3 MSTORE DUP1 PUSH1 0x20 MUL PUSH1 0x20 ADD DUP3 ADD PUSH1 0x40 MSTORE DUP1 ISZERO PUSH2 0x151A JUMPI DUP2 PUSH1 0x20 ADD JUMPDEST PUSH2 0x1507 PUSH2 0x36D2 JUMP JUMPDEST DUP2 MSTORE PUSH1 0x20 ADD SWAP1 PUSH1 0x1 SWAP1 SUB SWAP1 DUP2 PUSH2 0x14FF JUMPI SWAP1 POP JUMPDEST POP SWAP1 POP PUSH1 0x0 JUMPDEST DUP5 PUSH1 0x1 ADD PUSH1 0x0 DUP6 PUSH20 0xFFFFFFFFFFFFFFFFFFFFFFFFFFFFFFFFFFFFFFFF AND PUSH20 0xFFFFFFFFFFFFFFFFFFFFFFFFFFFFFFFFFFFFFFFF AND DUP2 MSTORE PUSH1 0x20 ADD SWAP1 DUP2 MSTORE PUSH1 0x20 ADD PUSH1 0x0 KECCAK256 DUP1 SLOAD SWAP1 POP DUP2 LT ISZERO PUSH2 0x18F9 JUMPI DUP5 PUSH1 0x0 ADD PUSH1 0x0 DUP6 PUSH20 0xFFFFFFFFFFFFFFFFFFFFFFFFFFFFFFFFFFFFFFFF AND PUSH20 0xFFFFFFFFFFFFFFFFFFFFFFFFFFFFFFFFFFFFFFFF AND DUP2 MSTORE PUSH1 0x20 ADD SWAP1 DUP2 MSTORE PUSH1 0x20 ADD PUSH1 0x0 KECCAK256 DUP6 PUSH1 0x1 ADD PUSH1 0x0 DUP7 PUSH20 0xFFFFFFFFFFFFFFFFFFFFFFFFFFFFFFFFFFFFFFFF AND PUSH20 0xFFFFFFFFFFFFFFFFFFFFFFFFFFFFFFFFFFFFFFFF AND DUP2 MSTORE PUSH1 0x20 ADD SWAP1 DUP2 MSTORE PUSH1 0x20 ADD PUSH1 0x0 KECCAK256 DUP3 DUP2 SLOAD DUP2 LT PUSH2 0x1600 JUMPI PUSH2 0x15FF PUSH2 0x4991 JUMP JUMPDEST JUMPDEST SWAP1 PUSH1 0x0 MSTORE PUSH1 0x20 PUSH1 0x0 KECCAK256 ADD PUSH1 0x40 MLOAD PUSH2 0x1617 SWAP2 SWAP1 PUSH2 0x4DE5 JUMP JUMPDEST SWAP1 DUP2 MSTORE PUSH1 0x20 ADD PUSH1 0x40 MLOAD DUP1 SWAP2 SUB SWAP1 KECCAK256 PUSH1 0x40 MLOAD DUP1 PUSH1 0xA0 ADD PUSH1 0x40 MSTORE SWAP1 DUP2 PUSH1 0x0 DUP3 ADD PUSH1 0x0 SWAP1 SLOAD SWAP1 PUSH2 0x100 EXP SWAP1 DIV PUSH20 0xFFFFFFFFFFFFFFFFFFFFFFFFFFFFFFFFFFFFFFFF AND PUSH20 0xFFFFFFFFFFFFFFFFFFFFFFFFFFFFFFFFFFFFFFFF AND PUSH20 0xFFFFFFFFFFFFFFFFFFFFFFFFFFFFFFFFFFFFFFFF AND DUP2 MSTORE PUSH1 0x20 ADD PUSH1 0x1 DUP3 ADD DUP1 SLOAD PUSH2 0x1696 SWAP1 PUSH2 0x4504 JUMP JUMPDEST DUP1 PUSH1 0x1F ADD PUSH1 0x20 DUP1 SWAP2 DIV MUL PUSH1 0x20 ADD PUSH1 0x40 MLOAD SWAP1 DUP2 ADD PUSH1 0x40 MSTORE DUP1 SWAP3 SWAP2 SWAP1 DUP2 DUP2 MSTORE PUSH1 0x20 ADD DUP3 DUP1 SLOAD PUSH2 0x16C2 SWAP1 PUSH2 0x4504 JUMP JUMPDEST DUP1 ISZERO PUSH2 0x170F JUMPI DUP1 PUSH1 0x1F LT PUSH2 0x16E4 JUMPI PUSH2 0x100 DUP1 DUP4 SLOAD DIV MUL DUP4 MSTORE SWAP2 PUSH1 0x20 ADD SWAP2 PUSH2 0x170F JUMP JUMPDEST DUP3 ADD SWAP2 SWAP1 PUSH1 0x0 MSTORE PUSH1 0x20 PUSH1 0x0 KECCAK256 SWAP1 JUMPDEST DUP2 SLOAD DUP2 MSTORE SWAP1 PUSH1 0x1 ADD SWAP1 PUSH1 0x20 ADD DUP1 DUP4 GT PUSH2 0x16F2 JUMPI DUP3 SWAP1 SUB PUSH1 0x1F AND DUP3 ADD SWAP2 JUMPDEST POP POP POP POP POP DUP2 MSTORE PUSH1 0x20 ADD PUSH1 0x2 DUP3 ADD DUP1 SLOAD PUSH2 0x1728 SWAP1 PUSH2 0x4504 JUMP JUMPDEST DUP1 PUSH1 0x1F ADD PUSH1 0x20 DUP1 SWAP2 DIV MUL PUSH1 0x20 ADD PUSH1 0x40 MLOAD SWAP1 DUP2 ADD PUSH1 0x40 MSTORE DUP1 SWAP3 SWAP2 SWAP1 DUP2 DUP2 MSTORE PUSH1 0x20 ADD DUP3 DUP1 SLOAD PUSH2 0x1754 SWAP1 PUSH2 0x4504 JUMP JUMPDEST DUP1 ISZERO PUSH2 0x17A1 JUMPI DUP1 PUSH1 0x1F LT PUSH2 0x1776 JUMPI PUSH2 0x100 DUP1 DUP4 SLOAD DIV MUL DUP4 MSTORE SWAP2 PUSH1 0x20 ADD SWAP2 PUSH2 0x17A1 JUMP JUMPDEST DUP3 ADD SWAP2 SWAP1 PUSH1 0x0 MSTORE PUSH1 0x20 PUSH1 0x0 KECCAK256 SWAP1 JUMPDEST DUP2 SLOAD DUP2 MSTORE SWAP1 PUSH1 0x1 ADD SWAP1 PUSH1 0x20 ADD DUP1 DUP4 GT PUSH2 0x1784 JUMPI DUP3 SWAP1 SUB PUSH1 0x1F AND DUP3 ADD SWAP2 JUMPDEST POP POP POP POP POP DUP2 MSTORE PUSH1 0x20 ADD PUSH1 0x3 DUP3 ADD DUP1 SLOAD PUSH2 0x17BA SWAP1 PUSH2 0x4504 JUMP JUMPDEST DUP1 PUSH1 0x1F ADD PUSH1 0x20 DUP1 SWAP2 DIV MUL PUSH1 0x20 ADD PUSH1 0x40 MLOAD SWAP1 DUP2 ADD PUSH1 0x40 MSTORE DUP1 SWAP3 SWAP2 SWAP1 DUP2 DUP2 MSTORE PUSH1 0x20 ADD DUP3 DUP1 SLOAD PUSH2 0x17E6 SWAP1 PUSH2 0x4504 JUMP JUMPDEST DUP1 ISZERO PUSH2 0x1833 JUMPI DUP1 PUSH1 0x1F LT PUSH2 0x1808 JUMPI PUSH2 0x100 DUP1 DUP4 SLOAD DIV MUL DUP4 MSTORE SWAP2 PUSH1 0x20 ADD SWAP2 PUSH2 0x1833 JUMP JUMPDEST DUP3 ADD SWAP2 SWAP1 PUSH1 0x0 MSTORE PUSH1 0x20 PUSH1 0x0 KECCAK256 SWAP1 JUMPDEST DUP2 SLOAD DUP2 MSTORE SWAP1 PUSH1 0x1 ADD SWAP1 PUSH1 0x20 ADD DUP1 DUP4 GT PUSH2 0x1816 JUMPI DUP3 SWAP1 SUB PUSH1 0x1F AND DUP3 ADD SWAP2 JUMPDEST POP POP POP POP POP DUP2 MSTORE PUSH1 0x20 ADD PUSH1 0x4 DUP3 ADD DUP1 SLOAD PUSH2 0x184C SWAP1 PUSH2 0x4504 JUMP JUMPDEST DUP1 PUSH1 0x1F ADD PUSH1 0x20 DUP1 SWAP2 DIV MUL PUSH1 0x20 ADD PUSH1 0x40 MLOAD SWAP1 DUP2 ADD PUSH1 0x40 MSTORE DUP1 SWAP3 SWAP2 SWAP1 DUP2 DUP2 MSTORE PUSH1 0x20 ADD DUP3 DUP1 SLOAD PUSH2 0x1878 SWAP1 PUSH2 0x4504 JUMP JUMPDEST DUP1 ISZERO PUSH2 0x18C5 JUMPI DUP1 PUSH1 0x1F LT PUSH2 0x189A JUMPI PUSH2 0x100 DUP1 DUP4 SLOAD DIV MUL DUP4 MSTORE SWAP2 PUSH1 0x20 ADD SWAP2 PUSH2 0x18C5 JUMP JUMPDEST DUP3 ADD SWAP2 SWAP1 PUSH1 0x0 MSTORE PUSH1 0x20 PUSH1 0x0 KECCAK256 SWAP1 JUMPDEST DUP2 SLOAD DUP2 MSTORE SWAP1 PUSH1 0x1 ADD SWAP1 PUSH1 0x20 ADD DUP1 DUP4 GT PUSH2 0x18A8 JUMPI DUP3 SWAP1 SUB PUSH1 0x1F AND DUP3 ADD SWAP2 JUMPDEST POP POP POP POP POP DUP2 MSTORE POP POP DUP3 DUP3 DUP2 MLOAD DUP2 LT PUSH2 0x18E1 JUMPI PUSH2 0x18E0 PUSH2 0x4991 JUMP JUMPDEST JUMPDEST PUSH1 0x20 MUL PUSH1 0x20 ADD ADD DUP2 SWAP1 MSTORE POP DUP1 DUP1 PUSH1 0x1 ADD SWAP2 POP POP PUSH2 0x1520 JUMP JUMPDEST POP DUP1 SWAP2 POP POP SWAP3 SWAP2 POP POP JUMP JUMPDEST DUP3 PUSH1 0x0 ADD PUSH1 0x0 DUP4 PUSH20 0xFFFFFFFFFFFFFFFFFFFFFFFFFFFFFFFFFFFFFFFF AND PUSH20 0xFFFFFFFFFFFFFFFFFFFFFFFFFFFFFFFFFFFFFFFF AND DUP2 MSTORE PUSH1 0x20 ADD SWAP1 DUP2 MSTORE PUSH1 0x20 ADD PUSH1 0x0 KECCAK256 DUP2 PUSH1 0x40 MLOAD PUSH2 0x1953 SWAP2 SWAP1 PUSH2 0x4452 JUMP JUMPDEST SWAP1 DUP2 MSTORE PUSH1 0x20 ADD PUSH1 0x40 MLOAD DUP1 SWAP2 SUB SWAP1 KECCAK256 PUSH1 0x0 DUP1 DUP3 ADD PUSH1 0x0 PUSH2 0x100 EXP DUP2 SLOAD SWAP1 PUSH20 0xFFFFFFFFFFFFFFFFFFFFFFFFFFFFFFFFFFFFFFFF MUL NOT AND SWAP1 SSTORE PUSH1 0x1 DUP3 ADD PUSH1 0x0 PUSH2 0x1999 SWAP2 SWAP1 PUSH2 0x3717 JUMP JUMPDEST PUSH1 0x2 DUP3 ADD PUSH1 0x0 PUSH2 0x19A9 SWAP2 SWAP1 PUSH2 0x3717 JUMP JUMPDEST PUSH1 0x3 DUP3 ADD PUSH1 0x0 PUSH2 0x19B9 SWAP2 SWAP1 PUSH2 0x3717 JUMP JUMPDEST PUSH1 0x4 DUP3 ADD PUSH1 0x0 PUSH2 0x19C9 SWAP2 SWAP1 PUSH2 0x3717 JUMP JUMPDEST POP POP PUSH1 0x0 JUMPDEST DUP4 PUSH1 0x1 ADD PUSH1 0x0 DUP5 PUSH20 0xFFFFFFFFFFFFFFFFFFFFFFFFFFFFFFFFFFFFFFFF AND PUSH20 0xFFFFFFFFFFFFFFFFFFFFFFFFFFFFFFFFFFFFFFFF AND DUP2 MSTORE PUSH1 0x20 ADD SWAP1 DUP2 MSTORE PUSH1 0x20 ADD PUSH1 0x0 KECCAK256 DUP1 SLOAD SWAP1 POP DUP2 LT ISZERO PUSH2 0x1B40 JUMPI DUP2 PUSH1 0x40 MLOAD PUSH1 0x20 ADD PUSH2 0x1A2B SWAP2 SWAP1 PUSH2 0x4452 JUMP JUMPDEST PUSH1 0x40 MLOAD PUSH1 0x20 DUP2 DUP4 SUB SUB DUP2 MSTORE SWAP1 PUSH1 0x40 MSTORE DUP1 MLOAD SWAP1 PUSH1 0x20 ADD KECCAK256 DUP5 PUSH1 0x1 ADD PUSH1 0x0 DUP6 PUSH20 0xFFFFFFFFFFFFFFFFFFFFFFFFFFFFFFFFFFFFFFFF AND PUSH20 0xFFFFFFFFFFFFFFFFFFFFFFFFFFFFFFFFFFFFFFFF AND DUP2 MSTORE PUSH1 0x20 ADD SWAP1 DUP2 MSTORE PUSH1 0x20 ADD PUSH1 0x0 KECCAK256 DUP3 DUP2 SLOAD DUP2 LT PUSH2 0x1A94 JUMPI PUSH2 0x1A93 PUSH2 0x4991 JUMP JUMPDEST JUMPDEST SWAP1 PUSH1 0x0 MSTORE PUSH1 0x20 PUSH1 0x0 KECCAK256 ADD PUSH1 0x40 MLOAD PUSH1 0x20 ADD PUSH2 0x1AAE SWAP2 SWAP1 PUSH2 0x4DE5 JUMP JUMPDEST PUSH1 0x40 MLOAD PUSH1 0x20 DUP2 DUP4 SUB SUB DUP2 MSTORE SWAP1 PUSH1 0x40 MSTORE DUP1 MLOAD SWAP1 PUSH1 0x20 ADD KECCAK256 SUB PUSH2 0x1B33 JUMPI DUP4 PUSH1 0x1 ADD PUSH1 0x0 DUP5 PUSH20 0xFFFFFFFFFFFFFFFFFFFFFFFFFFFFFFFFFFFFFFFF AND PUSH20 0xFFFFFFFFFFFFFFFFFFFFFFFFFFFFFFFFFFFFFFFF AND DUP2 MSTORE PUSH1 0x20 ADD SWAP1 DUP2 MSTORE PUSH1 0x20 ADD PUSH1 0x0 KECCAK256 DUP2 DUP2 SLOAD DUP2 LT PUSH2 0x1B1C JUMPI PUSH2 0x1B1B PUSH2 0x4991 JUMP JUMPDEST JUMPDEST SWAP1 PUSH1 0x0 MSTORE PUSH1 0x20 PUSH1 0x0 KECCAK256 ADD PUSH1 0x0 PUSH2 0x1B32 SWAP2 SWAP1 PUSH2 0x3717 JUMP JUMPDEST JUMPDEST DUP1 DUP1 PUSH1 0x1 ADD SWAP2 POP POP PUSH2 0x19CE JUMP JUMPDEST POP POP POP POP JUMP JUMPDEST PUSH1 0x0 PUSH1 0x60 PUSH1 0x0 PUSH1 0x40 MLOAD DUP1 PUSH1 0x40 ADD PUSH1 0x40 MSTORE DUP1 PUSH1 0x1C DUP2 MSTORE PUSH1 0x20 ADD PUSH32 0x19457468657265756D205369676E6564204D6573736167653A0A333200000000 DUP2 MSTORE POP SWAP1 POP PUSH1 0x0 DUP2 DUP9 PUSH1 0x40 MLOAD PUSH1 0x20 ADD PUSH2 0x1B99 SWAP3 SWAP2 SWAP1 PUSH2 0x4CC2 JUMP JUMPDEST PUSH1 0x40 MLOAD PUSH1 0x20 DUP2 DUP4 SUB SUB DUP2 MSTORE SWAP1 PUSH1 0x40 MSTORE DUP1 MLOAD SWAP1 PUSH1 0x20 ADD KECCAK256 SWAP1 POP PUSH1 0x0 DUP1 PUSH2 0x1BD5 DUP4 PUSH1 0x0 SHR PUSH1 0x1B DUP12 PUSH2 0x1BC8 SWAP2 SWAP1 PUSH2 0x4E2B JUMP JUMPDEST DUP11 PUSH1 0x0 SHR DUP11 PUSH1 0x0 SHR PUSH2 0x1F09 JUMP JUMPDEST SWAP2 POP SWAP2 POP PUSH1 0x1 DUP4 DUP11 DUP11 DUP11 PUSH1 0x40 MLOAD PUSH1 0x0 DUP2 MSTORE PUSH1 0x20 ADD PUSH1 0x40 MSTORE PUSH1 0x40 MLOAD PUSH2 0x1BFC SWAP5 SWAP4 SWAP3 SWAP2 SWAP1 PUSH2 0x4D08 JUMP JUMPDEST PUSH1 0x20 PUSH1 0x40 MLOAD PUSH1 0x20 DUP2 SUB SWAP1 DUP1 DUP5 SUB SWAP1 DUP6 GAS STATICCALL ISZERO DUP1 ISZERO PUSH2 0x1C1E JUMPI RETURNDATASIZE PUSH1 0x0 DUP1 RETURNDATACOPY RETURNDATASIZE PUSH1 0x0 REVERT JUMPDEST POP POP POP PUSH1 0x20 PUSH1 0x40 MLOAD SUB MLOAD DUP3 DUP3 PUSH1 0x40 MLOAD PUSH1 0x20 ADD PUSH2 0x1C3B SWAP3 SWAP2 SWAP1 PUSH2 0x4E81 JUMP JUMPDEST PUSH1 0x40 MLOAD PUSH1 0x20 DUP2 DUP4 SUB SUB DUP2 MSTORE SWAP1 PUSH1 0x40 MSTORE SWAP6 POP SWAP6 POP POP POP POP POP SWAP5 POP SWAP5 SWAP3 POP POP POP JUMP JUMPDEST PUSH1 0x0 PUSH20 0xFFFFFFFFFFFFFFFFFFFFFFFFFFFFFFFFFFFFFFFF AND DUP8 PUSH1 0x0 ADD PUSH1 0x0 DUP8 PUSH20 0xFFFFFFFFFFFFFFFFFFFFFFFFFFFFFFFFFFFFFFFF AND PUSH20 0xFFFFFFFFFFFFFFFFFFFFFFFFFFFFFFFFFFFFFFFF AND DUP2 MSTORE PUSH1 0x20 ADD SWAP1 DUP2 MSTORE PUSH1 0x20 ADD PUSH1 0x0 KECCAK256 DUP6 PUSH1 0x40 MLOAD PUSH2 0x1CC2 SWAP2 SWAP1 PUSH2 0x4452 JUMP JUMPDEST SWAP1 DUP2 MSTORE PUSH1 0x20 ADD PUSH1 0x40 MLOAD DUP1 SWAP2 SUB SWAP1 KECCAK256 PUSH1 0x0 ADD PUSH1 0x0 SWAP1 SLOAD SWAP1 PUSH2 0x100 EXP SWAP1 DIV PUSH20 0xFFFFFFFFFFFFFFFFFFFFFFFFFFFFFFFFFFFFFFFF AND PUSH20 0xFFFFFFFFFFFFFFFFFFFFFFFFFFFFFFFFFFFFFFFF AND EQ PUSH2 0x1D4A JUMPI PUSH1 0x40 MLOAD PUSH32 0x8C379A000000000000000000000000000000000000000000000000000000000 DUP2 MSTORE PUSH1 0x4 ADD PUSH2 0x1D41 SWAP1 PUSH2 0x4EF9 JUMP JUMPDEST PUSH1 0x40 MLOAD DUP1 SWAP2 SUB SWAP1 REVERT JUMPDEST PUSH1 0x0 PUSH1 0x40 MLOAD DUP1 PUSH1 0xA0 ADD PUSH1 0x40 MSTORE DUP1 DUP9 PUSH20 0xFFFFFFFFFFFFFFFFFFFFFFFFFFFFFFFFFFFFFFFF AND DUP2 MSTORE PUSH1 0x20 ADD DUP7 DUP2 MSTORE PUSH1 0x20 ADD DUP6 DUP2 MSTORE PUSH1 0x20 ADD DUP5 DUP2 MSTORE PUSH1 0x20 ADD DUP4 DUP2 MSTORE POP SWAP1 POP DUP1 DUP9 PUSH1 0x0 ADD PUSH1 0x0 DUP9 PUSH20 0xFFFFFFFFFFFFFFFFFFFFFFFFFFFFFFFFFFFFFFFF AND PUSH20 0xFFFFFFFFFFFFFFFFFFFFFFFFFFFFFFFFFFFFFFFF AND DUP2 MSTORE PUSH1 0x20 ADD SWAP1 DUP2 MSTORE PUSH1 0x20 ADD PUSH1 0x0 KECCAK256 DUP7 PUSH1 0x40 MLOAD PUSH2 0x1DDB SWAP2 SWAP1 PUSH2 0x4452 JUMP JUMPDEST SWAP1 DUP2 MSTORE PUSH1 0x20 ADD PUSH1 0x40 MLOAD DUP1 SWAP2 SUB SWAP1 KECCAK256 PUSH1 0x0 DUP3 ADD MLOAD DUP2 PUSH1 0x0 ADD PUSH1 0x0 PUSH2 0x100 EXP DUP2 SLOAD DUP2 PUSH20 0xFFFFFFFFFFFFFFFFFFFFFFFFFFFFFFFFFFFFFFFF MUL NOT AND SWAP1 DUP4 PUSH20 0xFFFFFFFFFFFFFFFFFFFFFFFFFFFFFFFFFFFFFFFF AND MUL OR SWAP1 SSTORE POP PUSH1 0x20 DUP3 ADD MLOAD DUP2 PUSH1 0x1 ADD SWAP1 DUP2 PUSH2 0x1E45 SWAP2 SWAP1 PUSH2 0x4F5F JUMP JUMPDEST POP PUSH1 0x40 DUP3 ADD MLOAD DUP2 PUSH1 0x2 ADD SWAP1 DUP2 PUSH2 0x1E5B SWAP2 SWAP1 PUSH2 0x4F5F JUMP JUMPDEST POP PUSH1 0x60 DUP3 ADD MLOAD DUP2 PUSH1 0x3 ADD SWAP1 DUP2 PUSH2 0x1E71 SWAP2 SWAP1 PUSH2 0x4F5F JUMP JUMPDEST POP PUSH1 0x80 DUP3 ADD MLOAD DUP2 PUSH1 0x4 ADD SWAP1 DUP2 PUSH2 0x1E87 SWAP2 SWAP1 PUSH2 0x4F5F JUMP JUMPDEST POP SWAP1 POP POP DUP8 PUSH1 0x1 ADD PUSH1 0x0 DUP8 PUSH20 0xFFFFFFFFFFFFFFFFFFFFFFFFFFFFFFFFFFFFFFFF AND PUSH20 0xFFFFFFFFFFFFFFFFFFFFFFFFFFFFFFFFFFFFFFFF AND DUP2 MSTORE PUSH1 0x20 ADD SWAP1 DUP2 MSTORE PUSH1 0x20 ADD PUSH1 0x0 KECCAK256 DUP6 SWAP1 DUP1 PUSH1 0x1 DUP2 SLOAD ADD DUP1 DUP3 SSTORE DUP1 SWAP2 POP POP PUSH1 0x1 SWAP1 SUB SWAP1 PUSH1 0x0 MSTORE PUSH1 0x20 PUSH1 0x0 KECCAK256 ADD PUSH1 0x0 SWAP1 SWAP2 SWAP1 SWAP2 SWAP1 SWAP2 POP SWAP1 DUP2 PUSH2 0x1EFE SWAP2 SWAP1 PUSH2 0x4F5F JUMP JUMPDEST POP POP POP POP POP POP POP POP POP JUMP JUMPDEST PUSH1 0x0 DUP1 PUSH1 0x0 PUSH32 0xFFFFFFFFFFFFFFFFFFFFFFFFFFFFFFFFFFFFFFFFFFFFFFFFFFFFFFFEFFFFFC2F DUP1 PUSH2 0x1F3D JUMPI PUSH2 0x1F3C PUSH2 0x5031 JUMP JUMPDEST JUMPDEST PUSH1 0x1 DUP8 PUSH1 0xFF AND SWAP1 SHR PUSH1 0xFF AND PUSH32 0xFFFFFFFFFFFFFFFFFFFFFFFFFFFFFFFFFFFFFFFFFFFFFFFFFFFFFFFEFFFFFC2F PUSH2 0x1F73 SWAP2 SWAP1 PUSH2 0x5060 JUMP JUMPDEST DUP7 ADDMOD SWAP1 POP PUSH32 0xFFFFFFFFFFFFFFFFFFFFFFFFFFFFFFFFFFFFFFFFFFFFFFFFFFFFFFFEFFFFFC2F DUP2 GT DUP1 PUSH2 0x1FC4 JUMPI POP PUSH32 0xFFFFFFFFFFFFFFFFFFFFFFFFFFFFFFFEBAAEDCE6AF48A03BBFD25E8CD0364141 DUP5 GT JUMPDEST DUP1 PUSH2 0x1FEE JUMPI POP PUSH32 0xFFFFFFFFFFFFFFFFFFFFFFFFFFFFFFFEBAAEDCE6AF48A03BBFD25E8CD0364141 DUP6 GT JUMPDEST DUP1 PUSH2 0x1FF9 JUMPI POP PUSH1 0x0 DUP5 EQ JUMPDEST DUP1 PUSH2 0x2004 JUMPI POP PUSH1 0x0 DUP6 EQ JUMPDEST DUP1 PUSH2 0x2012 JUMPI POP PUSH1 0x1 DUP7 PUSH1 0xFF AND GT JUMPDEST ISZERO PUSH2 0x2024 JUMPI PUSH1 0x0 DUP1 SWAP3 POP SWAP3 POP POP PUSH2 0x2312 JUMP JUMPDEST PUSH1 0x0 PUSH2 0x2050 DUP7 PUSH32 0xFFFFFFFFFFFFFFFFFFFFFFFFFFFFFFFEBAAEDCE6AF48A03BBFD25E8CD0364141 PUSH2 0x231B JUMP JUMPDEST SWAP1 POP PUSH1 0x0 PUSH32 0xFFFFFFFFFFFFFFFFFFFFFFFFFFFFFFFFFFFFFFFFFFFFFFFFFFFFFFFEFFFFFC2F DUP1 PUSH2 0x2083 JUMPI PUSH2 0x2082 PUSH2 0x5031 JUMP JUMPDEST JUMPDEST PUSH32 0xFFFFFFFFFFFFFFFFFFFFFFFFFFFFFFFFFFFFFFFFFFFFFFFFFFFFFFFEFFFFFC2F DUP1 PUSH2 0x20B2 JUMPI PUSH2 0x20B1 PUSH2 0x5031 JUMP JUMPDEST JUMPDEST PUSH1 0x7 PUSH32 0xFFFFFFFFFFFFFFFFFFFFFFFFFFFFFFFFFFFFFFFFFFFFFFFFFFFFFFFEFFFFFC2F DUP1 PUSH2 0x20E3 JUMPI PUSH2 0x20E2 PUSH2 0x5031 JUMP JUMPDEST JUMPDEST PUSH1 0x0 DUP8 MULMOD ADDMOD PUSH32 0xFFFFFFFFFFFFFFFFFFFFFFFFFFFFFFFFFFFFFFFFFFFFFFFFFFFFFFFEFFFFFC2F DUP1 PUSH2 0x2117 JUMPI PUSH2 0x2116 PUSH2 0x5031 JUMP JUMPDEST JUMPDEST PUSH32 0xFFFFFFFFFFFFFFFFFFFFFFFFFFFFFFFFFFFFFFFFFFFFFFFFFFFFFFFEFFFFFC2F DUP1 PUSH2 0x2146 JUMPI PUSH2 0x2145 PUSH2 0x5031 JUMP JUMPDEST JUMPDEST DUP7 DUP8 MULMOD DUP7 MULMOD ADDMOD SWAP1 POP PUSH2 0x2190 DUP2 PUSH1 0x4 PUSH1 0x1 PUSH32 0xFFFFFFFFFFFFFFFFFFFFFFFFFFFFFFFFFFFFFFFFFFFFFFFFFFFFFFFEFFFFFC2F PUSH2 0x2181 SWAP2 SWAP1 PUSH2 0x50A2 JUMP JUMPDEST PUSH2 0x218B SWAP2 SWAP1 PUSH2 0x50D6 JUMP JUMPDEST PUSH2 0x2407 JUMP JUMPDEST SWAP1 POP PUSH1 0x0 DUP1 PUSH1 0x1 PUSH1 0x2 DUP12 PUSH1 0xFF AND DUP6 PUSH2 0x21A8 SWAP2 SWAP1 PUSH2 0x50A2 JUMP JUMPDEST PUSH2 0x21B2 SWAP2 SWAP1 PUSH2 0x50A2 JUMP JUMPDEST AND EQ PUSH2 0x21E9 JUMPI DUP2 PUSH32 0xFFFFFFFFFFFFFFFFFFFFFFFFFFFFFFFFFFFFFFFFFFFFFFFFFFFFFFFEFFFFFC2F PUSH2 0x21E4 SWAP2 SWAP1 PUSH2 0x5107 JUMP JUMPDEST PUSH2 0x21EB JUMP JUMPDEST DUP2 JUMPDEST SWAP1 POP PUSH1 0x0 DUP1 PUSH1 0x0 PUSH2 0x229B PUSH32 0xFFFFFFFFFFFFFFFFFFFFFFFFFFFFFFFEBAAEDCE6AF48A03BBFD25E8CD0364141 DUP1 PUSH2 0x2224 JUMPI PUSH2 0x2223 PUSH2 0x5031 JUMP JUMPDEST JUMPDEST DUP15 PUSH32 0xFFFFFFFFFFFFFFFFFFFFFFFFFFFFFFFEBAAEDCE6AF48A03BBFD25E8CD0364141 PUSH2 0x2250 SWAP2 SWAP1 PUSH2 0x5107 JUMP JUMPDEST DUP9 MULMOD PUSH32 0x79BE667EF9DCBBAC55A06295CE870B07029BFCDB2DCE28D959F2815B16F81798 PUSH32 0x483ADA7726A3C4655DA4FBFC0E1108A8FD17B448A68554199C47D08FFB10D4B8 PUSH1 0x1 PUSH2 0x25BB JUMP JUMPDEST SWAP3 POP SWAP3 POP SWAP3 POP PUSH1 0x0 DUP1 PUSH1 0x0 PUSH2 0x22E4 PUSH32 0xFFFFFFFFFFFFFFFFFFFFFFFFFFFFFFFEBAAEDCE6AF48A03BBFD25E8CD0364141 DUP1 PUSH2 0x22D8 JUMPI PUSH2 0x22D7 PUSH2 0x5031 JUMP JUMPDEST JUMPDEST DUP15 DUP12 MULMOD DUP12 DUP10 PUSH1 0x1 PUSH2 0x25BB JUMP JUMPDEST SWAP3 POP SWAP3 POP SWAP3 POP PUSH1 0x0 DUP1 PUSH2 0x22FB DUP9 DUP9 DUP9 DUP9 DUP9 DUP9 PUSH2 0x2655 JUMP JUMPDEST SWAP2 POP SWAP2 POP DUP2 DUP2 SWAP14 POP SWAP14 POP POP POP POP POP POP POP POP POP POP POP POP POP JUMPDEST SWAP5 POP SWAP5 SWAP3 POP POP POP JUMP JUMPDEST PUSH1 0x0 DUP1 DUP4 EQ ISZERO DUP1 ISZERO PUSH2 0x232D JUMPI POP DUP2 DUP4 EQ ISZERO JUMPDEST DUP1 ISZERO PUSH2 0x233A JUMPI POP PUSH1 0x0 DUP3 EQ ISZERO JUMPDEST PUSH2 0x2379 JUMPI PUSH1 0x40 MLOAD PUSH32 0x8C379A000000000000000000000000000000000000000000000000000000000 DUP2 MSTORE PUSH1 0x4 ADD PUSH2 0x2370 SWAP1 PUSH2 0x5187 JUMP JUMPDEST PUSH1 0x40 MLOAD DUP1 SWAP2 SUB SWAP1 REVERT JUMPDEST PUSH1 0x0 DUP1 PUSH1 0x1 SWAP1 POP PUSH1 0x0 DUP5 SWAP1 POP PUSH1 0x0 JUMPDEST PUSH1 0x0 DUP8 EQ PUSH2 0x23FA JUMPI DUP7 DUP3 PUSH2 0x239C SWAP2 SWAP1 PUSH2 0x50D6 JUMP JUMPDEST SWAP1 POP DUP3 DUP7 DUP1 PUSH2 0x23AE JUMPI PUSH2 0x23AD PUSH2 0x5031 JUMP JUMPDEST JUMPDEST DUP8 DUP1 PUSH2 0x23BD JUMPI PUSH2 0x23BC PUSH2 0x5031 JUMP JUMPDEST JUMPDEST DUP6 DUP5 MULMOD DUP9 PUSH2 0x23CB SWAP2 SWAP1 PUSH2 0x5107 JUMP JUMPDEST DUP7 ADDMOD DUP1 SWAP5 POP DUP2 SWAP6 POP POP POP DUP7 DUP8 DUP3 PUSH2 0x23E2 SWAP2 SWAP1 PUSH2 0x5060 JUMP JUMPDEST DUP4 PUSH2 0x23ED SWAP2 SWAP1 PUSH2 0x5107 JUMP JUMPDEST DUP1 SWAP9 POP DUP2 SWAP4 POP POP POP PUSH2 0x2388 JUMP JUMPDEST DUP4 SWAP5 POP POP POP POP POP SWAP3 SWAP2 POP POP JUMP JUMPDEST PUSH1 0x0 DUP1 DUP4 SUB PUSH2 0x2419 JUMPI PUSH1 0x0 SWAP1 POP PUSH2 0x25B5 JUMP JUMPDEST PUSH1 0x0 DUP3 SUB PUSH2 0x242A JUMPI PUSH1 0x1 SWAP1 POP PUSH2 0x25B5 JUMP JUMPDEST PUSH1 0x0 PUSH1 0x1 SWAP1 POP PUSH1 0x0 PUSH32 0x8000000000000000000000000000000000000000000000000000000000000000 SWAP1 POP JUMPDEST PUSH1 0x0 DUP2 GT ISZERO PUSH2 0x25AF JUMPI PUSH32 0xFFFFFFFFFFFFFFFFFFFFFFFFFFFFFFFFFFFFFFFFFFFFFFFFFFFFFFFEFFFFFC2F DUP2 DUP6 AND ISZERO ISZERO DUP7 EXP PUSH32 0xFFFFFFFFFFFFFFFFFFFFFFFFFFFFFFFFFFFFFFFFFFFFFFFFFFFFFFFEFFFFFC2F DUP5 DUP6 MULMOD MULMOD SWAP2 POP PUSH32 0xFFFFFFFFFFFFFFFFFFFFFFFFFFFFFFFFFFFFFFFFFFFFFFFFFFFFFFFEFFFFFC2F PUSH1 0x2 DUP3 DIV DUP6 AND ISZERO ISZERO DUP7 EXP PUSH32 0xFFFFFFFFFFFFFFFFFFFFFFFFFFFFFFFFFFFFFFFFFFFFFFFFFFFFFFFEFFFFFC2F DUP5 DUP6 MULMOD MULMOD SWAP2 POP PUSH32 0xFFFFFFFFFFFFFFFFFFFFFFFFFFFFFFFFFFFFFFFFFFFFFFFFFFFFFFFEFFFFFC2F PUSH1 0x4 DUP3 DIV DUP6 AND ISZERO ISZERO DUP7 EXP PUSH32 0xFFFFFFFFFFFFFFFFFFFFFFFFFFFFFFFFFFFFFFFFFFFFFFFFFFFFFFFEFFFFFC2F DUP5 DUP6 MULMOD MULMOD SWAP2 POP PUSH32 0xFFFFFFFFFFFFFFFFFFFFFFFFFFFFFFFFFFFFFFFFFFFFFFFFFFFFFFFEFFFFFC2F PUSH1 0x8 DUP3 DIV DUP6 AND ISZERO ISZERO DUP7 EXP PUSH32 0xFFFFFFFFFFFFFFFFFFFFFFFFFFFFFFFFFFFFFFFFFFFFFFFFFFFFFFFEFFFFFC2F DUP5 DUP6 MULMOD MULMOD SWAP2 POP PUSH1 0x10 DUP2 DIV SWAP1 POP PUSH2 0x2456 JUMP JUMPDEST DUP2 SWAP3 POP POP POP JUMPDEST SWAP3 SWAP2 POP POP JUMP JUMPDEST PUSH1 0x0 DUP1 PUSH1 0x0 DUP1 DUP8 SUB PUSH2 0x25D5 JUMPI DUP6 DUP6 DUP6 SWAP3 POP SWAP3 POP SWAP3 POP PUSH2 0x264B JUMP JUMPDEST PUSH1 0x0 DUP8 SWAP1 POP PUSH1 0x0 DUP1 PUSH1 0x0 PUSH1 0x1 SWAP1 POP JUMPDEST PUSH1 0x0 DUP5 EQ PUSH2 0x263D JUMPI PUSH1 0x0 PUSH1 0x1 DUP6 AND EQ PUSH2 0x2612 JUMPI PUSH2 0x2605 DUP4 DUP4 DUP4 DUP14 DUP14 DUP14 PUSH2 0x2701 JUMP JUMPDEST DUP1 SWAP4 POP DUP2 SWAP5 POP DUP3 SWAP6 POP POP POP POP JUMPDEST PUSH1 0x2 DUP5 PUSH2 0x261F SWAP2 SWAP1 PUSH2 0x50D6 JUMP JUMPDEST SWAP4 POP PUSH2 0x262C DUP11 DUP11 DUP11 PUSH2 0x313F JUMP JUMPDEST DUP1 SWAP11 POP DUP2 SWAP12 POP DUP3 SWAP13 POP POP POP POP PUSH2 0x25E4 JUMP JUMPDEST DUP3 DUP3 DUP3 SWAP7 POP SWAP7 POP SWAP7 POP POP POP POP POP JUMPDEST SWAP5 POP SWAP5 POP SWAP5 SWAP2 POP POP JUMP JUMPDEST PUSH1 0x0 DUP1 PUSH1 0x0 DUP1 PUSH1 0x0 DUP8 DUP12 SUB PUSH2 0x26C8 JUMPI PUSH1 0x0 PUSH32 0xFFFFFFFFFFFFFFFFFFFFFFFFFFFFFFFFFFFFFFFFFFFFFFFFFFFFFFFEFFFFFC2F DUP1 PUSH2 0x2695 JUMPI PUSH2 0x2694 PUSH2 0x5031 JUMP JUMPDEST JUMPDEST DUP9 DUP13 ADDMOD SUB PUSH2 0x26AC JUMPI PUSH1 0x0 DUP1 SWAP5 POP SWAP5 POP POP POP POP PUSH2 0x26F6 JUMP JUMPDEST PUSH2 0x26B7 DUP12 DUP12 DUP12 PUSH2 0x313F JUMP JUMPDEST DUP1 SWAP4 POP DUP2 SWAP5 POP DUP3 SWAP6 POP POP POP POP PUSH2 0x26E3 JUMP JUMPDEST PUSH2 0x26D6 DUP12 DUP12 DUP12 DUP12 DUP12 DUP12 PUSH2 0x2701 JUMP JUMPDEST DUP1 SWAP4 POP DUP2 SWAP5 POP DUP3 SWAP6 POP POP POP POP JUMPDEST PUSH2 0x26EE DUP4 DUP4 DUP4 PUSH2 0x35BC JUMP JUMPDEST SWAP5 POP SWAP5 POP POP POP POP JUMPDEST SWAP7 POP SWAP7 SWAP5 POP POP POP POP POP JUMP JUMPDEST PUSH1 0x0 DUP1 PUSH1 0x0 DUP1 DUP10 EQ DUP1 ISZERO PUSH2 0x2715 JUMPI POP PUSH1 0x0 DUP9 EQ JUMPDEST ISZERO PUSH2 0x2728 JUMPI DUP6 DUP6 DUP6 SWAP3 POP SWAP3 POP SWAP3 POP PUSH2 0x3133 JUMP JUMPDEST PUSH1 0x0 DUP7 EQ DUP1 ISZERO PUSH2 0x2738 JUMPI POP PUSH1 0x0 DUP6 EQ JUMPDEST ISZERO PUSH2 0x274B JUMPI DUP9 DUP9 DUP9 SWAP3 POP SWAP3 POP SWAP3 POP PUSH2 0x3133 JUMP JUMPDEST PUSH2 0x2753 PUSH2 0x3757 JUMP JUMPDEST PUSH32 0xFFFFFFFFFFFFFFFFFFFFFFFFFFFFFFFFFFFFFFFFFFFFFFFFFFFFFFFEFFFFFC2F DUP1 PUSH2 0x2782 JUMPI PUSH2 0x2781 PUSH2 0x5031 JUMP JUMPDEST JUMPDEST DUP9 DUP10 MULMOD DUP2 PUSH1 0x0 PUSH1 0x4 DUP2 LT PUSH2 0x2799 JUMPI PUSH2 0x2798 PUSH2 0x4991 JUMP JUMPDEST JUMPDEST PUSH1 0x20 MUL ADD DUP2 DUP2 MSTORE POP POP PUSH32 0xFFFFFFFFFFFFFFFFFFFFFFFFFFFFFFFFFFFFFFFFFFFFFFFFFFFFFFFEFFFFFC2F DUP1 PUSH2 0x27D1 JUMPI PUSH2 0x27D0 PUSH2 0x5031 JUMP JUMPDEST JUMPDEST DUP2 PUSH1 0x0 PUSH1 0x4 DUP2 LT PUSH2 0x27E5 JUMPI PUSH2 0x27E4 PUSH2 0x4991 JUMP JUMPDEST JUMPDEST PUSH1 0x20 MUL ADD MLOAD DUP10 MULMOD DUP2 PUSH1 0x1 PUSH1 0x4 DUP2 LT PUSH2 0x2800 JUMPI PUSH2 0x27FF PUSH2 0x4991 JUMP JUMPDEST JUMPDEST PUSH1 0x20 MUL ADD DUP2 DUP2 MSTORE POP POP PUSH32 0xFFFFFFFFFFFFFFFFFFFFFFFFFFFFFFFFFFFFFFFFFFFFFFFFFFFFFFFEFFFFFC2F DUP1 PUSH2 0x2838 JUMPI PUSH2 0x2837 PUSH2 0x5031 JUMP JUMPDEST JUMPDEST DUP6 DUP7 MULMOD DUP2 PUSH1 0x2 PUSH1 0x4 DUP2 LT PUSH2 0x284F JUMPI PUSH2 0x284E PUSH2 0x4991 JUMP JUMPDEST JUMPDEST PUSH1 0x20 MUL ADD DUP2 DUP2 MSTORE POP POP PUSH32 0xFFFFFFFFFFFFFFFFFFFFFFFFFFFFFFFFFFFFFFFFFFFFFFFFFFFFFFFEFFFFFC2F DUP1 PUSH2 0x2887 JUMPI PUSH2 0x2886 PUSH2 0x5031 JUMP JUMPDEST JUMPDEST DUP2 PUSH1 0x2 PUSH1 0x4 DUP2 LT PUSH2 0x289B JUMPI PUSH2 0x289A PUSH2 0x4991 JUMP JUMPDEST JUMPDEST PUSH1 0x20 MUL ADD MLOAD DUP7 MULMOD DUP2 PUSH1 0x3 PUSH1 0x4 DUP2 LT PUSH2 0x28B6 JUMPI PUSH2 0x28B5 PUSH2 0x4991 JUMP JUMPDEST JUMPDEST PUSH1 0x20 MUL ADD DUP2 DUP2 MSTORE POP POP PUSH1 0x40 MLOAD DUP1 PUSH1 0x80 ADD PUSH1 0x40 MSTORE DUP1 PUSH32 0xFFFFFFFFFFFFFFFFFFFFFFFFFFFFFFFFFFFFFFFFFFFFFFFFFFFFFFFEFFFFFC2F DUP1 PUSH2 0x28F9 JUMPI PUSH2 0x28F8 PUSH2 0x5031 JUMP JUMPDEST JUMPDEST DUP4 PUSH1 0x2 PUSH1 0x4 DUP2 LT PUSH2 0x290D JUMPI PUSH2 0x290C PUSH2 0x4991 JUMP JUMPDEST JUMPDEST PUSH1 0x20 MUL ADD MLOAD DUP14 MULMOD DUP2 MSTORE PUSH1 0x20 ADD PUSH32 0xFFFFFFFFFFFFFFFFFFFFFFFFFFFFFFFFFFFFFFFFFFFFFFFFFFFFFFFEFFFFFC2F DUP1 PUSH2 0x2948 JUMPI PUSH2 0x2947 PUSH2 0x5031 JUMP JUMPDEST JUMPDEST DUP4 PUSH1 0x3 PUSH1 0x4 DUP2 LT PUSH2 0x295C JUMPI PUSH2 0x295B PUSH2 0x4991 JUMP JUMPDEST JUMPDEST PUSH1 0x20 MUL ADD MLOAD DUP13 MULMOD DUP2 MSTORE PUSH1 0x20 ADD PUSH32 0xFFFFFFFFFFFFFFFFFFFFFFFFFFFFFFFFFFFFFFFFFFFFFFFFFFFFFFFEFFFFFC2F DUP1 PUSH2 0x2997 JUMPI PUSH2 0x2996 PUSH2 0x5031 JUMP JUMPDEST JUMPDEST DUP4 PUSH1 0x0 PUSH1 0x4 DUP2 LT PUSH2 0x29AB JUMPI PUSH2 0x29AA PUSH2 0x4991 JUMP JUMPDEST JUMPDEST PUSH1 0x20 MUL ADD MLOAD DUP11 MULMOD DUP2 MSTORE PUSH1 0x20 ADD PUSH32 0xFFFFFFFFFFFFFFFFFFFFFFFFFFFFFFFFFFFFFFFFFFFFFFFFFFFFFFFEFFFFFC2F DUP1 PUSH2 0x29E6 JUMPI PUSH2 0x29E5 PUSH2 0x5031 JUMP JUMPDEST JUMPDEST DUP4 PUSH1 0x1 PUSH1 0x4 DUP2 LT PUSH2 0x29FA JUMPI PUSH2 0x29F9 PUSH2 0x4991 JUMP JUMPDEST JUMPDEST PUSH1 0x20 MUL ADD MLOAD DUP10 MULMOD DUP2 MSTORE POP SWAP1 POP DUP1 PUSH1 0x2 PUSH1 0x4 DUP2 LT PUSH2 0x2A1A JUMPI PUSH2 0x2A19 PUSH2 0x4991 JUMP JUMPDEST JUMPDEST PUSH1 0x20 MUL ADD MLOAD DUP2 PUSH1 0x0 PUSH1 0x4 DUP2 LT PUSH2 0x2A33 JUMPI PUSH2 0x2A32 PUSH2 0x4991 JUMP JUMPDEST JUMPDEST PUSH1 0x20 MUL ADD MLOAD EQ ISZERO DUP1 PUSH2 0x2A75 JUMPI POP DUP1 PUSH1 0x3 PUSH1 0x4 DUP2 LT PUSH2 0x2A54 JUMPI PUSH2 0x2A53 PUSH2 0x4991 JUMP JUMPDEST JUMPDEST PUSH1 0x20 MUL ADD MLOAD DUP2 PUSH1 0x1 PUSH1 0x4 DUP2 LT PUSH2 0x2A6D JUMPI PUSH2 0x2A6C PUSH2 0x4991 JUMP JUMPDEST JUMPDEST PUSH1 0x20 MUL ADD MLOAD EQ ISZERO JUMPDEST PUSH2 0x2AB4 JUMPI PUSH1 0x40 MLOAD PUSH32 0x8C379A000000000000000000000000000000000000000000000000000000000 DUP2 MSTORE PUSH1 0x4 ADD PUSH2 0x2AAB SWAP1 PUSH2 0x51F3 JUMP JUMPDEST PUSH1 0x40 MLOAD DUP1 SWAP2 SUB SWAP1 REVERT JUMPDEST PUSH2 0x2ABC PUSH2 0x3757 JUMP JUMPDEST PUSH32 0xFFFFFFFFFFFFFFFFFFFFFFFFFFFFFFFFFFFFFFFFFFFFFFFFFFFFFFFEFFFFFC2F DUP1 PUSH2 0x2AEB JUMPI PUSH2 0x2AEA PUSH2 0x5031 JUMP JUMPDEST JUMPDEST DUP3 PUSH1 0x0 PUSH1 0x4 DUP2 LT PUSH2 0x2AFF JUMPI PUSH2 0x2AFE PUSH2 0x4991 JUMP JUMPDEST JUMPDEST PUSH1 0x20 MUL ADD MLOAD PUSH32 0xFFFFFFFFFFFFFFFFFFFFFFFFFFFFFFFFFFFFFFFFFFFFFFFFFFFFFFFEFFFFFC2F PUSH2 0x2B2F SWAP2 SWAP1 PUSH2 0x5107 JUMP JUMPDEST DUP4 PUSH1 0x2 PUSH1 0x4 DUP2 LT PUSH2 0x2B43 JUMPI PUSH2 0x2B42 PUSH2 0x4991 JUMP JUMPDEST JUMPDEST PUSH1 0x20 MUL ADD MLOAD ADDMOD DUP2 PUSH1 0x0 PUSH1 0x4 DUP2 LT PUSH2 0x2B5D JUMPI PUSH2 0x2B5C PUSH2 0x4991 JUMP JUMPDEST JUMPDEST PUSH1 0x20 MUL ADD DUP2 DUP2 MSTORE POP POP PUSH32 0xFFFFFFFFFFFFFFFFFFFFFFFFFFFFFFFFFFFFFFFFFFFFFFFFFFFFFFFEFFFFFC2F DUP1 PUSH2 0x2B95 JUMPI PUSH2 0x2B94 PUSH2 0x5031 JUMP JUMPDEST JUMPDEST DUP3 PUSH1 0x1 PUSH1 0x4 DUP2 LT PUSH2 0x2BA9 JUMPI PUSH2 0x2BA8 PUSH2 0x4991 JUMP JUMPDEST JUMPDEST PUSH1 0x20 MUL ADD MLOAD PUSH32 0xFFFFFFFFFFFFFFFFFFFFFFFFFFFFFFFFFFFFFFFFFFFFFFFFFFFFFFFEFFFFFC2F PUSH2 0x2BD9 SWAP2 SWAP1 PUSH2 0x5107 JUMP JUMPDEST DUP4 PUSH1 0x3 PUSH1 0x4 DUP2 LT PUSH2 0x2BED JUMPI PUSH2 0x2BEC PUSH2 0x4991 JUMP JUMPDEST JUMPDEST PUSH1 0x20 MUL ADD MLOAD ADDMOD DUP2 PUSH1 0x1 PUSH1 0x4 DUP2 LT PUSH2 0x2C07 JUMPI PUSH2 0x2C06 PUSH2 0x4991 JUMP JUMPDEST JUMPDEST PUSH1 0x20 MUL ADD DUP2 DUP2 MSTORE POP POP PUSH32 0xFFFFFFFFFFFFFFFFFFFFFFFFFFFFFFFFFFFFFFFFFFFFFFFFFFFFFFFEFFFFFC2F DUP1 PUSH2 0x2C3F JUMPI PUSH2 0x2C3E PUSH2 0x5031 JUMP JUMPDEST JUMPDEST DUP2 PUSH1 0x0 PUSH1 0x4 DUP2 LT PUSH2 0x2C53 JUMPI PUSH2 0x2C52 PUSH2 0x4991 JUMP JUMPDEST JUMPDEST PUSH1 0x20 MUL ADD MLOAD DUP3 PUSH1 0x0 PUSH1 0x4 DUP2 LT PUSH2 0x2C6C JUMPI PUSH2 0x2C6B PUSH2 0x4991 JUMP JUMPDEST JUMPDEST PUSH1 0x20 MUL ADD MLOAD MULMOD DUP2 PUSH1 0x2 PUSH1 0x4 DUP2 LT PUSH2 0x2C86 JUMPI PUSH2 0x2C85 PUSH2 0x4991 JUMP JUMPDEST JUMPDEST PUSH1 0x20 MUL ADD DUP2 DUP2 MSTORE POP POP PUSH32 0xFFFFFFFFFFFFFFFFFFFFFFFFFFFFFFFFFFFFFFFFFFFFFFFFFFFFFFFEFFFFFC2F DUP1 PUSH2 0x2CBE JUMPI PUSH2 0x2CBD PUSH2 0x5031 JUMP JUMPDEST JUMPDEST DUP2 PUSH1 0x0 PUSH1 0x4 DUP2 LT PUSH2 0x2CD2 JUMPI PUSH2 0x2CD1 PUSH2 0x4991 JUMP JUMPDEST JUMPDEST PUSH1 0x20 MUL ADD MLOAD DUP3 PUSH1 0x2 PUSH1 0x4 DUP2 LT PUSH2 0x2CEB JUMPI PUSH2 0x2CEA PUSH2 0x4991 JUMP JUMPDEST JUMPDEST PUSH1 0x20 MUL ADD MLOAD MULMOD DUP2 PUSH1 0x3 PUSH1 0x4 DUP2 LT PUSH2 0x2D05 JUMPI PUSH2 0x2D04 PUSH2 0x4991 JUMP JUMPDEST JUMPDEST PUSH1 0x20 MUL ADD DUP2 DUP2 MSTORE POP POP PUSH1 0x0 PUSH32 0xFFFFFFFFFFFFFFFFFFFFFFFFFFFFFFFFFFFFFFFFFFFFFFFFFFFFFFFEFFFFFC2F DUP1 PUSH2 0x2D3F JUMPI PUSH2 0x2D3E PUSH2 0x5031 JUMP JUMPDEST JUMPDEST DUP3 PUSH1 0x3 PUSH1 0x4 DUP2 LT PUSH2 0x2D53 JUMPI PUSH2 0x2D52 PUSH2 0x4991 JUMP JUMPDEST JUMPDEST PUSH1 0x20 MUL ADD MLOAD PUSH32 0xFFFFFFFFFFFFFFFFFFFFFFFFFFFFFFFFFFFFFFFFFFFFFFFFFFFFFFFEFFFFFC2F PUSH2 0x2D83 SWAP2 SWAP1 PUSH2 0x5107 JUMP JUMPDEST PUSH32 0xFFFFFFFFFFFFFFFFFFFFFFFFFFFFFFFFFFFFFFFFFFFFFFFFFFFFFFFEFFFFFC2F DUP1 PUSH2 0x2DB2 JUMPI PUSH2 0x2DB1 PUSH2 0x5031 JUMP JUMPDEST JUMPDEST DUP5 PUSH1 0x1 PUSH1 0x4 DUP2 LT PUSH2 0x2DC6 JUMPI PUSH2 0x2DC5 PUSH2 0x4991 JUMP JUMPDEST JUMPDEST PUSH1 0x20 MUL ADD MLOAD DUP6 PUSH1 0x1 PUSH1 0x4 DUP2 LT PUSH2 0x2DDF JUMPI PUSH2 0x2DDE PUSH2 0x4991 JUMP JUMPDEST JUMPDEST PUSH1 0x20 MUL ADD MLOAD MULMOD ADDMOD SWAP1 POP PUSH32 0xFFFFFFFFFFFFFFFFFFFFFFFFFFFFFFFFFFFFFFFFFFFFFFFFFFFFFFFEFFFFFC2F DUP1 PUSH2 0x2E17 JUMPI PUSH2 0x2E16 PUSH2 0x5031 JUMP JUMPDEST JUMPDEST PUSH32 0xFFFFFFFFFFFFFFFFFFFFFFFFFFFFFFFFFFFFFFFFFFFFFFFFFFFFFFFEFFFFFC2F DUP1 PUSH2 0x2E46 JUMPI PUSH2 0x2E45 PUSH2 0x5031 JUMP JUMPDEST JUMPDEST PUSH32 0xFFFFFFFFFFFFFFFFFFFFFFFFFFFFFFFFFFFFFFFFFFFFFFFFFFFFFFFEFFFFFC2F DUP1 PUSH2 0x2E75 JUMPI PUSH2 0x2E74 PUSH2 0x5031 JUMP JUMPDEST JUMPDEST DUP5 PUSH1 0x2 PUSH1 0x4 DUP2 LT PUSH2 0x2E89 JUMPI PUSH2 0x2E88 PUSH2 0x4991 JUMP JUMPDEST JUMPDEST PUSH1 0x20 MUL ADD MLOAD DUP7 PUSH1 0x0 PUSH1 0x4 DUP2 LT PUSH2 0x2EA2 JUMPI PUSH2 0x2EA1 PUSH2 0x4991 JUMP JUMPDEST JUMPDEST PUSH1 0x20 MUL ADD MLOAD MULMOD PUSH1 0x2 MULMOD PUSH32 0xFFFFFFFFFFFFFFFFFFFFFFFFFFFFFFFFFFFFFFFFFFFFFFFFFFFFFFFEFFFFFC2F PUSH2 0x2ED6 SWAP2 SWAP1 PUSH2 0x5107 JUMP JUMPDEST DUP3 ADDMOD SWAP1 POP PUSH1 0x0 PUSH32 0xFFFFFFFFFFFFFFFFFFFFFFFFFFFFFFFFFFFFFFFFFFFFFFFFFFFFFFFEFFFFFC2F DUP1 PUSH2 0x2F0B JUMPI PUSH2 0x2F0A PUSH2 0x5031 JUMP JUMPDEST JUMPDEST PUSH32 0xFFFFFFFFFFFFFFFFFFFFFFFFFFFFFFFFFFFFFFFFFFFFFFFFFFFFFFFEFFFFFC2F DUP1 PUSH2 0x2F3A JUMPI PUSH2 0x2F39 PUSH2 0x5031 JUMP JUMPDEST JUMPDEST DUP4 PUSH32 0xFFFFFFFFFFFFFFFFFFFFFFFFFFFFFFFFFFFFFFFFFFFFFFFFFFFFFFFEFFFFFC2F PUSH2 0x2F66 SWAP2 SWAP1 PUSH2 0x5107 JUMP JUMPDEST PUSH32 0xFFFFFFFFFFFFFFFFFFFFFFFFFFFFFFFFFFFFFFFFFFFFFFFFFFFFFFFEFFFFFC2F DUP1 PUSH2 0x2F95 JUMPI PUSH2 0x2F94 PUSH2 0x5031 JUMP JUMPDEST JUMPDEST DUP7 PUSH1 0x2 PUSH1 0x4 DUP2 LT PUSH2 0x2FA9 JUMPI PUSH2 0x2FA8 PUSH2 0x4991 JUMP JUMPDEST JUMPDEST PUSH1 0x20 MUL ADD MLOAD DUP9 PUSH1 0x0 PUSH1 0x4 DUP2 LT PUSH2 0x2FC2 JUMPI PUSH2 0x2FC1 PUSH2 0x4991 JUMP JUMPDEST JUMPDEST PUSH1 0x20 MUL ADD MLOAD MULMOD ADDMOD DUP5 PUSH1 0x1 PUSH1 0x4 DUP2 LT PUSH2 0x2FDD JUMPI PUSH2 0x2FDC PUSH2 0x4991 JUMP JUMPDEST JUMPDEST PUSH1 0x20 MUL ADD MLOAD MULMOD SWAP1 POP PUSH32 0xFFFFFFFFFFFFFFFFFFFFFFFFFFFFFFFFFFFFFFFFFFFFFFFFFFFFFFFEFFFFFC2F DUP1 PUSH2 0x3014 JUMPI PUSH2 0x3013 PUSH2 0x5031 JUMP JUMPDEST JUMPDEST PUSH32 0xFFFFFFFFFFFFFFFFFFFFFFFFFFFFFFFFFFFFFFFFFFFFFFFFFFFFFFFEFFFFFC2F DUP1 PUSH2 0x3043 JUMPI PUSH2 0x3042 PUSH2 0x5031 JUMP JUMPDEST JUMPDEST DUP5 PUSH1 0x3 PUSH1 0x4 DUP2 LT PUSH2 0x3057 JUMPI PUSH2 0x3056 PUSH2 0x4991 JUMP JUMPDEST JUMPDEST PUSH1 0x20 MUL ADD MLOAD DUP7 PUSH1 0x1 PUSH1 0x4 DUP2 LT PUSH2 0x3070 JUMPI PUSH2 0x306F PUSH2 0x4991 JUMP JUMPDEST JUMPDEST PUSH1 0x20 MUL ADD MLOAD MULMOD PUSH32 0xFFFFFFFFFFFFFFFFFFFFFFFFFFFFFFFFFFFFFFFFFFFFFFFFFFFFFFFEFFFFFC2F PUSH2 0x30A1 SWAP2 SWAP1 PUSH2 0x5107 JUMP JUMPDEST DUP3 ADDMOD SWAP1 POP PUSH1 0x0 PUSH32 0xFFFFFFFFFFFFFFFFFFFFFFFFFFFFFFFFFFFFFFFFFFFFFFFFFFFFFFFEFFFFFC2F DUP1 PUSH2 0x30D6 JUMPI PUSH2 0x30D5 PUSH2 0x5031 JUMP JUMPDEST JUMPDEST PUSH32 0xFFFFFFFFFFFFFFFFFFFFFFFFFFFFFFFFFFFFFFFFFFFFFFFFFFFFFFFEFFFFFC2F DUP1 PUSH2 0x3105 JUMPI PUSH2 0x3104 PUSH2 0x5031 JUMP JUMPDEST JUMPDEST DUP11 DUP15 MULMOD DUP6 PUSH1 0x0 PUSH1 0x4 DUP2 LT PUSH2 0x311C JUMPI PUSH2 0x311B PUSH2 0x4991 JUMP JUMPDEST JUMPDEST PUSH1 0x20 MUL ADD MLOAD MULMOD SWAP1 POP DUP3 DUP3 DUP3 SWAP8 POP SWAP8 POP SWAP8 POP POP POP POP POP POP JUMPDEST SWAP7 POP SWAP7 POP SWAP7 SWAP4 POP POP POP POP JUMP JUMPDEST PUSH1 0x0 DUP1 PUSH1 0x0 DUP1 DUP5 SUB PUSH2 0x3159 JUMPI DUP6 DUP6 DUP6 SWAP3 POP SWAP3 POP SWAP3 POP PUSH2 0x35B3 JUMP JUMPDEST PUSH1 0x0 PUSH32 0xFFFFFFFFFFFFFFFFFFFFFFFFFFFFFFFFFFFFFFFFFFFFFFFFFFFFFFFEFFFFFC2F DUP1 PUSH2 0x318A JUMPI PUSH2 0x3189 PUSH2 0x5031 JUMP JUMPDEST JUMPDEST DUP8 DUP9 MULMOD SWAP1 POP PUSH1 0x0 PUSH32 0xFFFFFFFFFFFFFFFFFFFFFFFFFFFFFFFFFFFFFFFFFFFFFFFFFFFFFFFEFFFFFC2F DUP1 PUSH2 0x31C0 JUMPI PUSH2 0x31BF PUSH2 0x5031 JUMP JUMPDEST JUMPDEST DUP8 DUP9 MULMOD SWAP1 POP PUSH1 0x0 PUSH32 0xFFFFFFFFFFFFFFFFFFFFFFFFFFFFFFFFFFFFFFFFFFFFFFFFFFFFFFFEFFFFFC2F DUP1 PUSH2 0x31F6 JUMPI PUSH2 0x31F5 PUSH2 0x5031 JUMP JUMPDEST JUMPDEST DUP8 DUP9 MULMOD SWAP1 POP PUSH1 0x0 PUSH32 0xFFFFFFFFFFFFFFFFFFFFFFFFFFFFFFFFFFFFFFFFFFFFFFFFFFFFFFFEFFFFFC2F DUP1 PUSH2 0x322C JUMPI PUSH2 0x322B PUSH2 0x5031 JUMP JUMPDEST JUMPDEST PUSH32 0xFFFFFFFFFFFFFFFFFFFFFFFFFFFFFFFFFFFFFFFFFFFFFFFFFFFFFFFEFFFFFC2F DUP1 PUSH2 0x325B JUMPI PUSH2 0x325A PUSH2 0x5031 JUMP JUMPDEST JUMPDEST DUP5 DUP13 MULMOD PUSH1 0x4 MULMOD SWAP1 POP PUSH1 0x0 PUSH32 0xFFFFFFFFFFFFFFFFFFFFFFFFFFFFFFFFFFFFFFFFFFFFFFFFFFFFFFFEFFFFFC2F DUP1 PUSH2 0x3294 JUMPI PUSH2 0x3293 PUSH2 0x5031 JUMP JUMPDEST JUMPDEST PUSH32 0xFFFFFFFFFFFFFFFFFFFFFFFFFFFFFFFFFFFFFFFFFFFFFFFFFFFFFFFEFFFFFC2F DUP1 PUSH2 0x32C3 JUMPI PUSH2 0x32C2 PUSH2 0x5031 JUMP JUMPDEST JUMPDEST PUSH32 0xFFFFFFFFFFFFFFFFFFFFFFFFFFFFFFFFFFFFFFFFFFFFFFFFFFFFFFFEFFFFFC2F DUP1 PUSH2 0x32F2 JUMPI PUSH2 0x32F1 PUSH2 0x5031 JUMP JUMPDEST JUMPDEST DUP6 DUP7 MULMOD PUSH1 0x0 MULMOD PUSH32 0xFFFFFFFFFFFFFFFFFFFFFFFFFFFFFFFFFFFFFFFFFFFFFFFFFFFFFFFEFFFFFC2F DUP1 PUSH2 0x3327 JUMPI PUSH2 0x3326 PUSH2 0x5031 JUMP JUMPDEST JUMPDEST DUP8 PUSH1 0x3 MULMOD ADDMOD SWAP1 POP PUSH32 0xFFFFFFFFFFFFFFFFFFFFFFFFFFFFFFFFFFFFFFFFFFFFFFFFFFFFFFFEFFFFFC2F DUP1 PUSH2 0x335D JUMPI PUSH2 0x335C PUSH2 0x5031 JUMP JUMPDEST JUMPDEST PUSH32 0xFFFFFFFFFFFFFFFFFFFFFFFFFFFFFFFFFFFFFFFFFFFFFFFFFFFFFFFEFFFFFC2F DUP1 PUSH2 0x338C JUMPI PUSH2 0x338B PUSH2 0x5031 JUMP JUMPDEST JUMPDEST DUP4 DUP5 ADDMOD PUSH32 0xFFFFFFFFFFFFFFFFFFFFFFFFFFFFFFFFFFFFFFFFFFFFFFFFFFFFFFFEFFFFFC2F PUSH2 0x33BA SWAP2 SWAP1 PUSH2 0x5107 JUMP JUMPDEST PUSH32 0xFFFFFFFFFFFFFFFFFFFFFFFFFFFFFFFFFFFFFFFFFFFFFFFFFFFFFFFEFFFFFC2F DUP1 PUSH2 0x33E9 JUMPI PUSH2 0x33E8 PUSH2 0x5031 JUMP JUMPDEST JUMPDEST DUP4 DUP5 MULMOD ADDMOD SWAP5 POP PUSH32 0xFFFFFFFFFFFFFFFFFFFFFFFFFFFFFFFFFFFFFFFFFFFFFFFFFFFFFFFEFFFFFC2F DUP1 PUSH2 0x341E JUMPI PUSH2 0x341D PUSH2 0x5031 JUMP JUMPDEST JUMPDEST PUSH32 0xFFFFFFFFFFFFFFFFFFFFFFFFFFFFFFFFFFFFFFFFFFFFFFFFFFFFFFFEFFFFFC2F DUP1 PUSH2 0x344D JUMPI PUSH2 0x344C PUSH2 0x5031 JUMP JUMPDEST JUMPDEST PUSH32 0xFFFFFFFFFFFFFFFFFFFFFFFFFFFFFFFFFFFFFFFFFFFFFFFFFFFFFFFEFFFFFC2F DUP1 PUSH2 0x347C JUMPI PUSH2 0x347B PUSH2 0x5031 JUMP JUMPDEST JUMPDEST DUP7 DUP8 MULMOD PUSH1 0x8 MULMOD PUSH32 0xFFFFFFFFFFFFFFFFFFFFFFFFFFFFFFFFFFFFFFFFFFFFFFFFFFFFFFFEFFFFFC2F PUSH2 0x34AD SWAP2 SWAP1 PUSH2 0x5107 JUMP JUMPDEST PUSH32 0xFFFFFFFFFFFFFFFFFFFFFFFFFFFFFFFFFFFFFFFFFFFFFFFFFFFFFFFEFFFFFC2F DUP1 PUSH2 0x34DC JUMPI PUSH2 0x34DB PUSH2 0x5031 JUMP JUMPDEST JUMPDEST PUSH32 0xFFFFFFFFFFFFFFFFFFFFFFFFFFFFFFFFFFFFFFFFFFFFFFFFFFFFFFFEFFFFFC2F DUP1 PUSH2 0x350B JUMPI PUSH2 0x350A PUSH2 0x5031 JUMP JUMPDEST JUMPDEST DUP9 PUSH32 0xFFFFFFFFFFFFFFFFFFFFFFFFFFFFFFFFFFFFFFFFFFFFFFFFFFFFFFFEFFFFFC2F PUSH2 0x3537 SWAP2 SWAP1 PUSH2 0x5107 JUMP JUMPDEST DUP7 ADDMOD DUP5 MULMOD ADDMOD SWAP4 POP PUSH32 0xFFFFFFFFFFFFFFFFFFFFFFFFFFFFFFFFFFFFFFFFFFFFFFFFFFFFFFFEFFFFFC2F DUP1 PUSH2 0x356D JUMPI PUSH2 0x356C PUSH2 0x5031 JUMP JUMPDEST JUMPDEST PUSH32 0xFFFFFFFFFFFFFFFFFFFFFFFFFFFFFFFFFFFFFFFFFFFFFFFFFFFFFFFEFFFFFC2F DUP1 PUSH2 0x359C JUMPI PUSH2 0x359B PUSH2 0x5031 JUMP JUMPDEST JUMPDEST DUP11 DUP13 MULMOD PUSH1 0x2 MULMOD SWAP3 POP DUP5 DUP5 DUP5 SWAP8 POP SWAP8 POP SWAP8 POP POP POP POP POP POP JUMPDEST SWAP4 POP SWAP4 POP SWAP4 SWAP1 POP JUMP JUMPDEST PUSH1 0x0 DUP1 PUSH1 0x0 PUSH2 0x35EB DUP5 PUSH32 0xFFFFFFFFFFFFFFFFFFFFFFFFFFFFFFFFFFFFFFFFFFFFFFFFFFFFFFFEFFFFFC2F PUSH2 0x231B JUMP JUMPDEST SWAP1 POP PUSH1 0x0 PUSH32 0xFFFFFFFFFFFFFFFFFFFFFFFFFFFFFFFFFFFFFFFFFFFFFFFFFFFFFFFEFFFFFC2F DUP1 PUSH2 0x361E JUMPI PUSH2 0x361D PUSH2 0x5031 JUMP JUMPDEST JUMPDEST DUP3 DUP4 MULMOD SWAP1 POP PUSH1 0x0 PUSH32 0xFFFFFFFFFFFFFFFFFFFFFFFFFFFFFFFFFFFFFFFFFFFFFFFFFFFFFFFEFFFFFC2F DUP1 PUSH2 0x3654 JUMPI PUSH2 0x3653 PUSH2 0x5031 JUMP JUMPDEST JUMPDEST DUP3 DUP10 MULMOD SWAP1 POP PUSH1 0x0 PUSH32 0xFFFFFFFFFFFFFFFFFFFFFFFFFFFFFFFFFFFFFFFFFFFFFFFFFFFFFFFEFFFFFC2F DUP1 PUSH2 0x368A JUMPI PUSH2 0x3689 PUSH2 0x5031 JUMP JUMPDEST JUMPDEST PUSH32 0xFFFFFFFFFFFFFFFFFFFFFFFFFFFFFFFFFFFFFFFFFFFFFFFFFFFFFFFEFFFFFC2F DUP1 PUSH2 0x36B9 JUMPI PUSH2 0x36B8 PUSH2 0x5031 JUMP JUMPDEST JUMPDEST DUP5 DUP7 MULMOD DUP10 MULMOD SWAP1 POP DUP2 DUP2 SWAP6 POP SWAP6 POP POP POP POP POP SWAP4 POP SWAP4 SWAP2 POP POP JUMP JUMPDEST PUSH1 0x40 MLOAD DUP1 PUSH1 0xA0 ADD PUSH1 0x40 MSTORE DUP1 PUSH1 0x0 PUSH20 0xFFFFFFFFFFFFFFFFFFFFFFFFFFFFFFFFFFFFFFFF AND DUP2 MSTORE PUSH1 0x20 ADD PUSH1 0x60 DUP2 MSTORE PUSH1 0x20 ADD PUSH1 0x60 DUP2 MSTORE PUSH1 0x20 ADD PUSH1 0x60 DUP2 MSTORE PUSH1 0x20 ADD PUSH1 0x60 DUP2 MSTORE POP SWAP1 JUMP JUMPDEST POP DUP1 SLOAD PUSH2 0x3723 SWAP1 PUSH2 0x4504 JUMP JUMPDEST PUSH1 0x0 DUP3 SSTORE DUP1 PUSH1 0x1F LT PUSH2 0x3735 JUMPI POP PUSH2 0x3754 JUMP JUMPDEST PUSH1 0x1F ADD PUSH1 0x20 SWAP1 DIV SWAP1 PUSH1 0x0 MSTORE PUSH1 0x20 PUSH1 0x0 KECCAK256 SWAP1 DUP2 ADD SWAP1 PUSH2 0x3753 SWAP2 SWAP1 PUSH2 0x3779 JUMP JUMPDEST JUMPDEST POP JUMP JUMPDEST PUSH1 0x40 MLOAD DUP1 PUSH1 0x80 ADD PUSH1 0x40 MSTORE DUP1 PUSH1 0x4 SWAP1 PUSH1 0x20 DUP3 MUL DUP1 CALLDATASIZE DUP4 CALLDATACOPY DUP1 DUP3 ADD SWAP2 POP POP SWAP1 POP POP SWAP1 JUMP JUMPDEST JUMPDEST DUP1 DUP3 GT ISZERO PUSH2 0x3792 JUMPI PUSH1 0x0 DUP2 PUSH1 0x0 SWAP1 SSTORE POP PUSH1 0x1 ADD PUSH2 0x377A JUMP JUMPDEST POP SWAP1 JUMP JUMPDEST PUSH1 0x0 PUSH1 0x40 MLOAD SWAP1 POP SWAP1 JUMP JUMPDEST PUSH1 0x0 DUP1 REVERT JUMPDEST PUSH1 0x0 DUP1 REVERT JUMPDEST PUSH1 0x0 PUSH20 0xFFFFFFFFFFFFFFFFFFFFFFFFFFFFFFFFFFFFFFFF DUP3 AND SWAP1 POP SWAP2 SWAP1 POP JUMP JUMPDEST PUSH1 0x0 PUSH2 0x37D5 DUP3 PUSH2 0x37AA JUMP JUMPDEST SWAP1 POP SWAP2 SWAP1 POP JUMP JUMPDEST PUSH2 0x37E5 DUP2 PUSH2 0x37CA JUMP JUMPDEST DUP2 EQ PUSH2 0x37F0 JUMPI PUSH1 0x0 DUP1 REVERT JUMPDEST POP JUMP JUMPDEST PUSH1 0x0 DUP2 CALLDATALOAD SWAP1 POP PUSH2 0x3802 DUP2 PUSH2 0x37DC JUMP JUMPDEST SWAP3 SWAP2 POP POP JUMP JUMPDEST PUSH1 0x0 PUSH1 0x20 DUP3 DUP5 SUB SLT ISZERO PUSH2 0x381E JUMPI PUSH2 0x381D PUSH2 0x37A0 JUMP JUMPDEST JUMPDEST PUSH1 0x0 PUSH2 0x382C DUP5 DUP3 DUP6 ADD PUSH2 0x37F3 JUMP JUMPDEST SWAP2 POP POP SWAP3 SWAP2 POP POP JUMP JUMPDEST PUSH2 0x383E DUP2 PUSH2 0x37CA JUMP JUMPDEST DUP3 MSTORE POP POP JUMP JUMPDEST PUSH1 0x0 PUSH1 0x20 DUP3 ADD SWAP1 POP PUSH2 0x3859 PUSH1 0x0 DUP4 ADD DUP5 PUSH2 0x3835 JUMP JUMPDEST SWAP3 SWAP2 POP POP JUMP JUMPDEST PUSH1 0x0 DUP2 SWAP1 POP SWAP2 SWAP1 POP JUMP JUMPDEST PUSH2 0x3872 DUP2 PUSH2 0x385F JUMP JUMPDEST DUP2 EQ PUSH2 0x387D JUMPI PUSH1 0x0 DUP1 REVERT JUMPDEST POP JUMP JUMPDEST PUSH1 0x0 DUP2 CALLDATALOAD SWAP1 POP PUSH2 0x388F DUP2 PUSH2 0x3869 JUMP JUMPDEST SWAP3 SWAP2 POP POP JUMP JUMPDEST PUSH1 0x0 PUSH1 0xFF DUP3 AND SWAP1 POP SWAP2 SWAP1 POP JUMP JUMPDEST PUSH2 0x38AB DUP2 PUSH2 0x3895 JUMP JUMPDEST DUP2 EQ PUSH2 0x38B6 JUMPI PUSH1 0x0 DUP1 REVERT JUMPDEST POP JUMP JUMPDEST PUSH1 0x0 DUP2 CALLDATALOAD SWAP1 POP PUSH2 0x38C8 DUP2 PUSH2 0x38A2 JUMP JUMPDEST SWAP3 SWAP2 POP POP JUMP JUMPDEST PUSH1 0x0 DUP1 REVERT JUMPDEST PUSH1 0x0 DUP1 REVERT JUMPDEST PUSH1 0x0 PUSH1 0x1F NOT PUSH1 0x1F DUP4 ADD AND SWAP1 POP SWAP2 SWAP1 POP JUMP JUMPDEST PUSH32 0x4E487B7100000000000000000000000000000000000000000000000000000000 PUSH1 0x0 MSTORE PUSH1 0x41 PUSH1 0x4 MSTORE PUSH1 0x24 PUSH1 0x0 REVERT JUMPDEST PUSH2 0x3921 DUP3 PUSH2 0x38D8 JUMP JUMPDEST DUP2 ADD DUP2 DUP2 LT PUSH8 0xFFFFFFFFFFFFFFFF DUP3 GT OR ISZERO PUSH2 0x3940 JUMPI PUSH2 0x393F PUSH2 0x38E9 JUMP JUMPDEST JUMPDEST DUP1 PUSH1 0x40 MSTORE POP POP POP JUMP JUMPDEST PUSH1 0x0 PUSH2 0x3953 PUSH2 0x3796 JUMP JUMPDEST SWAP1 POP PUSH2 0x395F DUP3 DUP3 PUSH2 0x3918 JUMP JUMPDEST SWAP2 SWAP1 POP JUMP JUMPDEST PUSH1 0x0 PUSH8 0xFFFFFFFFFFFFFFFF DUP3 GT ISZERO PUSH2 0x397F JUMPI PUSH2 0x397E PUSH2 0x38E9 JUMP JUMPDEST JUMPDEST PUSH2 0x3988 DUP3 PUSH2 0x38D8 JUMP JUMPDEST SWAP1 POP PUSH1 0x20 DUP2 ADD SWAP1 POP SWAP2 SWAP1 POP JUMP JUMPDEST DUP3 DUP2 DUP4 CALLDATACOPY PUSH1 0x0 DUP4 DUP4 ADD MSTORE POP POP POP JUMP JUMPDEST PUSH1 0x0 PUSH2 0x39B7 PUSH2 0x39B2 DUP5 PUSH2 0x3964 JUMP JUMPDEST PUSH2 0x3949 JUMP JUMPDEST SWAP1 POP DUP3 DUP2 MSTORE PUSH1 0x20 DUP2 ADD DUP5 DUP5 DUP5 ADD GT ISZERO PUSH2 0x39D3 JUMPI PUSH2 0x39D2 PUSH2 0x38D3 JUMP JUMPDEST JUMPDEST PUSH2 0x39DE DUP5 DUP3 DUP6 PUSH2 0x3995 JUMP JUMPDEST POP SWAP4 SWAP3 POP POP POP JUMP JUMPDEST PUSH1 0x0 DUP3 PUSH1 0x1F DUP4 ADD SLT PUSH2 0x39FB JUMPI PUSH2 0x39FA PUSH2 0x38CE JUMP JUMPDEST JUMPDEST DUP2 CALLDATALOAD PUSH2 0x3A0B DUP5 DUP3 PUSH1 0x20 DUP7 ADD PUSH2 0x39A4 JUMP JUMPDEST SWAP2 POP POP SWAP3 SWAP2 POP POP JUMP JUMPDEST PUSH1 0x0 DUP1 PUSH1 0x0 DUP1 PUSH1 0x0 PUSH1 0xA0 DUP7 DUP9 SUB SLT ISZERO PUSH2 0x3A30 JUMPI PUSH2 0x3A2F PUSH2 0x37A0 JUMP JUMPDEST JUMPDEST PUSH1 0x0 PUSH2 0x3A3E DUP9 DUP3 DUP10 ADD PUSH2 0x3880 JUMP JUMPDEST SWAP6 POP POP PUSH1 0x20 PUSH2 0x3A4F DUP9 DUP3 DUP10 ADD PUSH2 0x38B9 JUMP JUMPDEST SWAP5 POP POP PUSH1 0x40 PUSH2 0x3A60 DUP9 DUP3 DUP10 ADD PUSH2 0x3880 JUMP JUMPDEST SWAP4 POP POP PUSH1 0x60 PUSH2 0x3A71 DUP9 DUP3 DUP10 ADD PUSH2 0x3880 JUMP JUMPDEST SWAP3 POP POP PUSH1 0x80 DUP7 ADD CALLDATALOAD PUSH8 0xFFFFFFFFFFFFFFFF DUP2 GT ISZERO PUSH2 0x3A92 JUMPI PUSH2 0x3A91 PUSH2 0x37A5 JUMP JUMPDEST JUMPDEST PUSH2 0x3A9E DUP9 DUP3 DUP10 ADD PUSH2 0x39E6 JUMP JUMPDEST SWAP2 POP POP SWAP3 SWAP6 POP SWAP3 SWAP6 SWAP1 SWAP4 POP JUMP JUMPDEST PUSH1 0x0 DUP1 PUSH1 0x0 DUP1 PUSH1 0x80 DUP6 DUP8 SUB SLT ISZERO PUSH2 0x3AC5 JUMPI PUSH2 0x3AC4 PUSH2 0x37A0 JUMP JUMPDEST JUMPDEST PUSH1 0x0 PUSH2 0x3AD3 DUP8 DUP3 DUP9 ADD PUSH2 0x3880 JUMP JUMPDEST SWAP5 POP POP PUSH1 0x20 PUSH2 0x3AE4 DUP8 DUP3 DUP9 ADD PUSH2 0x38B9 JUMP JUMPDEST SWAP4 POP POP PUSH1 0x40 PUSH2 0x3AF5 DUP8 DUP3 DUP9 ADD PUSH2 0x3880 JUMP JUMPDEST SWAP3 POP POP PUSH1 0x60 PUSH2 0x3B06 DUP8 DUP3 DUP9 ADD PUSH2 0x3880 JUMP JUMPDEST SWAP2 POP POP SWAP3 SWAP6 SWAP2 SWAP5 POP SWAP3 POP JUMP JUMPDEST PUSH1 0x0 DUP2 MLOAD SWAP1 POP SWAP2 SWAP1 POP JUMP JUMPDEST PUSH1 0x0 DUP3 DUP3 MSTORE PUSH1 0x20 DUP3 ADD SWAP1 POP SWAP3 SWAP2 POP POP JUMP JUMPDEST PUSH1 0x0 DUP2 SWAP1 POP PUSH1 0x20 DUP3 ADD SWAP1 POP SWAP2 SWAP1 POP JUMP JUMPDEST PUSH2 0x3B47 DUP2 PUSH2 0x37CA JUMP JUMPDEST DUP3 MSTORE POP POP JUMP JUMPDEST PUSH1 0x0 DUP2 MLOAD SWAP1 POP SWAP2 SWAP1 POP JUMP JUMPDEST PUSH1 0x0 DUP3 DUP3 MSTORE PUSH1 0x20 DUP3 ADD SWAP1 POP SWAP3 SWAP2 POP POP JUMP JUMPDEST PUSH1 0x0 JUMPDEST DUP4 DUP2 LT ISZERO PUSH2 0x3B87 JUMPI DUP1 DUP3 ADD MLOAD DUP2 DUP5 ADD MSTORE PUSH1 0x20 DUP2 ADD SWAP1 POP PUSH2 0x3B6C JUMP JUMPDEST PUSH1 0x0 DUP5 DUP5 ADD MSTORE POP POP POP POP JUMP JUMPDEST PUSH1 0x0 PUSH2 0x3B9E DUP3 PUSH2 0x3B4D JUMP JUMPDEST PUSH2 0x3BA8 DUP2 DUP6 PUSH2 0x3B58 JUMP JUMPDEST SWAP4 POP PUSH2 0x3BB8 DUP2 DUP6 PUSH1 0x20 DUP7 ADD PUSH2 0x3B69 JUMP JUMPDEST PUSH2 0x3BC1 DUP2 PUSH2 0x38D8 JUMP JUMPDEST DUP5 ADD SWAP2 POP POP SWAP3 SWAP2 POP POP JUMP JUMPDEST PUSH1 0x0 PUSH1 0xA0 DUP4 ADD PUSH1 0x0 DUP4 ADD MLOAD PUSH2 0x3BE4 PUSH1 0x0 DUP7 ADD DUP3 PUSH2 0x3B3E JUMP JUMPDEST POP PUSH1 0x20 DUP4 ADD MLOAD DUP5 DUP3 SUB PUSH1 0x20 DUP7 ADD MSTORE PUSH2 0x3BFC DUP3 DUP3 PUSH2 0x3B93 JUMP JUMPDEST SWAP2 POP POP PUSH1 0x40 DUP4 ADD MLOAD DUP5 DUP3 SUB PUSH1 0x40 DUP7 ADD MSTORE PUSH2 0x3C16 DUP3 DUP3 PUSH2 0x3B93 JUMP JUMPDEST SWAP2 POP POP PUSH1 0x60 DUP4 ADD MLOAD DUP5 DUP3 SUB PUSH1 0x60 DUP7 ADD MSTORE PUSH2 0x3C30 DUP3 DUP3 PUSH2 0x3B93 JUMP JUMPDEST SWAP2 POP POP PUSH1 0x80 DUP4 ADD MLOAD DUP5 DUP3 SUB PUSH1 0x80 DUP7 ADD MSTORE PUSH2 0x3C4A DUP3 DUP3 PUSH2 0x3B93 JUMP JUMPDEST SWAP2 POP POP DUP1 SWAP2 POP POP SWAP3 SWAP2 POP POP JUMP JUMPDEST PUSH1 0x0 PUSH2 0x3C63 DUP4 DUP4 PUSH2 0x3BCC JUMP JUMPDEST SWAP1 POP SWAP3 SWAP2 POP POP JUMP JUMPDEST PUSH1 0x0 PUSH1 0x20 DUP3 ADD SWAP1 POP SWAP2 SWAP1 POP JUMP JUMPDEST PUSH1 0x0 PUSH2 0x3C83 DUP3 PUSH2 0x3B12 JUMP JUMPDEST PUSH2 0x3C8D DUP2 DUP6 PUSH2 0x3B1D JUMP JUMPDEST SWAP4 POP DUP4 PUSH1 0x20 DUP3 MUL DUP6 ADD PUSH2 0x3C9F DUP6 PUSH2 0x3B2E JUMP JUMPDEST DUP1 PUSH1 0x0 JUMPDEST DUP6 DUP2 LT ISZERO PUSH2 0x3CDB JUMPI DUP5 DUP5 SUB DUP10 MSTORE DUP2 MLOAD PUSH2 0x3CBC DUP6 DUP3 PUSH2 0x3C57 JUMP JUMPDEST SWAP5 POP PUSH2 0x3CC7 DUP4 PUSH2 0x3C6B JUMP JUMPDEST SWAP3 POP PUSH1 0x20 DUP11 ADD SWAP10 POP POP PUSH1 0x1 DUP2 ADD SWAP1 POP PUSH2 0x3CA3 JUMP JUMPDEST POP DUP3 SWAP8 POP DUP8 SWAP6 POP POP POP POP POP POP SWAP3 SWAP2 POP POP JUMP JUMPDEST PUSH1 0x0 PUSH1 0x20 DUP3 ADD SWAP1 POP DUP2 DUP2 SUB PUSH1 0x0 DUP4 ADD MSTORE PUSH2 0x3D07 DUP2 DUP5 PUSH2 0x3C78 JUMP JUMPDEST SWAP1 POP SWAP3 SWAP2 POP POP JUMP JUMPDEST PUSH1 0x0 DUP1 PUSH1 0x0 DUP1 PUSH1 0x0 PUSH1 0xA0 DUP7 DUP9 SUB SLT ISZERO PUSH2 0x3D2B JUMPI PUSH2 0x3D2A PUSH2 0x37A0 JUMP JUMPDEST JUMPDEST PUSH1 0x0 DUP7 ADD CALLDATALOAD PUSH8 0xFFFFFFFFFFFFFFFF DUP2 GT ISZERO PUSH2 0x3D49 JUMPI PUSH2 0x3D48 PUSH2 0x37A5 JUMP JUMPDEST JUMPDEST PUSH2 0x3D55 DUP9 DUP3 DUP10 ADD PUSH2 0x39E6 JUMP JUMPDEST SWAP6 POP POP PUSH1 0x20 PUSH2 0x3D66 DUP9 DUP3 DUP10 ADD PUSH2 0x3880 JUMP JUMPDEST SWAP5 POP POP PUSH1 0x40 PUSH2 0x3D77 DUP9 DUP3 DUP10 ADD PUSH2 0x38B9 JUMP JUMPDEST SWAP4 POP POP PUSH1 0x60 PUSH2 0x3D88 DUP9 DUP3 DUP10 ADD PUSH2 0x3880 JUMP JUMPDEST SWAP3 POP POP PUSH1 0x80 PUSH2 0x3D99 DUP9 DUP3 DUP10 ADD PUSH2 0x3880 JUMP JUMPDEST SWAP2 POP POP SWAP3 SWAP6 POP SWAP3 SWAP6 SWAP1 SWAP4 POP JUMP JUMPDEST PUSH1 0x0 DUP1 PUSH1 0x0 DUP1 PUSH1 0x0 DUP1 PUSH1 0x0 DUP1 PUSH2 0x100 DUP10 DUP12 SUB SLT ISZERO PUSH2 0x3DC7 JUMPI PUSH2 0x3DC6 PUSH2 0x37A0 JUMP JUMPDEST JUMPDEST PUSH1 0x0 DUP10 ADD CALLDATALOAD PUSH8 0xFFFFFFFFFFFFFFFF DUP2 GT ISZERO PUSH2 0x3DE5 JUMPI PUSH2 0x3DE4 PUSH2 0x37A5 JUMP JUMPDEST JUMPDEST PUSH2 0x3DF1 DUP12 DUP3 DUP13 ADD PUSH2 0x39E6 JUMP JUMPDEST SWAP9 POP POP PUSH1 0x20 DUP10 ADD CALLDATALOAD PUSH8 0xFFFFFFFFFFFFFFFF DUP2 GT ISZERO PUSH2 0x3E12 JUMPI PUSH2 0x3E11 PUSH2 0x37A5 JUMP JUMPDEST JUMPDEST PUSH2 0x3E1E DUP12 DUP3 DUP13 ADD PUSH2 0x39E6 JUMP JUMPDEST SWAP8 POP POP PUSH1 0x40 DUP10 ADD CALLDATALOAD PUSH8 0xFFFFFFFFFFFFFFFF DUP2 GT ISZERO PUSH2 0x3E3F JUMPI PUSH2 0x3E3E PUSH2 0x37A5 JUMP JUMPDEST JUMPDEST PUSH2 0x3E4B DUP12 DUP3 DUP13 ADD PUSH2 0x39E6 JUMP JUMPDEST SWAP7 POP POP PUSH1 0x60 DUP10 ADD CALLDATALOAD PUSH8 0xFFFFFFFFFFFFFFFF DUP2 GT ISZERO PUSH2 0x3E6C JUMPI PUSH2 0x3E6B PUSH2 0x37A5 JUMP JUMPDEST JUMPDEST PUSH2 0x3E78 DUP12 DUP3 DUP13 ADD PUSH2 0x39E6 JUMP JUMPDEST SWAP6 POP POP PUSH1 0x80 PUSH2 0x3E89 DUP12 DUP3 DUP13 ADD PUSH2 0x3880 JUMP JUMPDEST SWAP5 POP POP PUSH1 0xA0 PUSH2 0x3E9A DUP12 DUP3 DUP13 ADD PUSH2 0x38B9 JUMP JUMPDEST SWAP4 POP POP PUSH1 0xC0 PUSH2 0x3EAB DUP12 DUP3 DUP13 ADD PUSH2 0x3880 JUMP JUMPDEST SWAP3 POP POP PUSH1 0xE0 PUSH2 0x3EBC DUP12 DUP3 DUP13 ADD PUSH2 0x3880 JUMP JUMPDEST SWAP2 POP POP SWAP3 SWAP6 SWAP9 POP SWAP3 SWAP6 SWAP9 SWAP1 SWAP4 SWAP7 POP JUMP JUMPDEST PUSH1 0x0 DUP2 MLOAD SWAP1 POP SWAP2 SWAP1 POP JUMP JUMPDEST PUSH1 0x0 DUP3 DUP3 MSTORE PUSH1 0x20 DUP3 ADD SWAP1 POP SWAP3 SWAP2 POP POP JUMP JUMPDEST PUSH1 0x0 DUP2 SWAP1 POP PUSH1 0x20 DUP3 ADD SWAP1 POP SWAP2 SWAP1 POP JUMP JUMPDEST PUSH1 0x0 PUSH2 0x3F04 DUP4 DUP4 PUSH2 0x3B3E JUMP JUMPDEST PUSH1 0x20 DUP4 ADD SWAP1 POP SWAP3 SWAP2 POP POP JUMP JUMPDEST PUSH1 0x0 PUSH1 0x20 DUP3 ADD SWAP1 POP SWAP2 SWAP1 POP JUMP JUMPDEST PUSH1 0x0 PUSH2 0x3F28 DUP3 PUSH2 0x3ECC JUMP JUMPDEST PUSH2 0x3F32 DUP2 DUP6 PUSH2 0x3ED7 JUMP JUMPDEST SWAP4 POP PUSH2 0x3F3D DUP4 PUSH2 0x3EE8 JUMP JUMPDEST DUP1 PUSH1 0x0 JUMPDEST DUP4 DUP2 LT ISZERO PUSH2 0x3F6E JUMPI DUP2 MLOAD PUSH2 0x3F55 DUP9 DUP3 PUSH2 0x3EF8 JUMP JUMPDEST SWAP8 POP PUSH2 0x3F60 DUP4 PUSH2 0x3F10 JUMP JUMPDEST SWAP3 POP POP PUSH1 0x1 DUP2 ADD SWAP1 POP PUSH2 0x3F41 JUMP JUMPDEST POP DUP6 SWAP4 POP POP POP POP SWAP3 SWAP2 POP POP JUMP JUMPDEST PUSH1 0x0 PUSH1 0x40 DUP3 ADD SWAP1 POP DUP2 DUP2 SUB PUSH1 0x0 DUP4 ADD MSTORE PUSH2 0x3F95 DUP2 DUP6 PUSH2 0x3F1D JUMP JUMPDEST SWAP1 POP DUP2 DUP2 SUB PUSH1 0x20 DUP4 ADD MSTORE PUSH2 0x3FA9 DUP2 DUP5 PUSH2 0x3F1D JUMP JUMPDEST SWAP1 POP SWAP4 SWAP3 POP POP POP JUMP JUMPDEST PUSH1 0x0 DUP2 MLOAD SWAP1 POP SWAP2 SWAP1 POP JUMP JUMPDEST PUSH1 0x0 DUP3 DUP3 MSTORE PUSH1 0x20 DUP3 ADD SWAP1 POP SWAP3 SWAP2 POP POP JUMP JUMPDEST PUSH1 0x0 DUP2 SWAP1 POP PUSH1 0x20 DUP3 ADD SWAP1 POP SWAP2 SWAP1 POP JUMP JUMPDEST PUSH1 0x0 PUSH1 0xA0 DUP4 ADD PUSH1 0x0 DUP4 ADD MLOAD DUP5 DUP3 SUB PUSH1 0x0 DUP7 ADD MSTORE PUSH2 0x3FFB DUP3 DUP3 PUSH2 0x3B93 JUMP JUMPDEST SWAP2 POP POP PUSH1 0x20 DUP4 ADD MLOAD DUP5 DUP3 SUB PUSH1 0x20 DUP7 ADD MSTORE PUSH2 0x4015 DUP3 DUP3 PUSH2 0x3B93 JUMP JUMPDEST SWAP2 POP POP PUSH1 0x40 DUP4 ADD MLOAD DUP5 DUP3 SUB PUSH1 0x40 DUP7 ADD MSTORE PUSH2 0x402F DUP3 DUP3 PUSH2 0x3B93 JUMP JUMPDEST SWAP2 POP POP PUSH1 0x60 DUP4 ADD MLOAD DUP5 DUP3 SUB PUSH1 0x60 DUP7 ADD MSTORE PUSH2 0x4049 DUP3 DUP3 PUSH2 0x3B93 JUMP JUMPDEST SWAP2 POP POP PUSH1 0x80 DUP4 ADD MLOAD PUSH2 0x405E PUSH1 0x80 DUP7 ADD DUP3 PUSH2 0x3B3E JUMP JUMPDEST POP DUP1 SWAP2 POP POP SWAP3 SWAP2 POP POP JUMP JUMPDEST PUSH1 0x0 PUSH2 0x4075 DUP4 DUP4 PUSH2 0x3FDE JUMP JUMPDEST SWAP1 POP SWAP3 SWAP2 POP POP JUMP JUMPDEST PUSH1 0x0 PUSH1 0x20 DUP3 ADD SWAP1 POP SWAP2 SWAP1 POP JUMP JUMPDEST PUSH1 0x0 PUSH2 0x4095 DUP3 PUSH2 0x3FB2 JUMP JUMPDEST PUSH2 0x409F DUP2 DUP6 PUSH2 0x3FBD JUMP JUMPDEST SWAP4 POP DUP4 PUSH1 0x20 DUP3 MUL DUP6 ADD PUSH2 0x40B1 DUP6 PUSH2 0x3FCE JUMP JUMPDEST DUP1 PUSH1 0x0 JUMPDEST DUP6 DUP2 LT ISZERO PUSH2 0x40ED JUMPI DUP5 DUP5 SUB DUP10 MSTORE DUP2 MLOAD PUSH2 0x40CE DUP6 DUP3 PUSH2 0x4069 JUMP JUMPDEST SWAP5 POP PUSH2 0x40D9 DUP4 PUSH2 0x407D JUMP JUMPDEST SWAP3 POP PUSH1 0x20 DUP11 ADD SWAP10 POP POP PUSH1 0x1 DUP2 ADD SWAP1 POP PUSH2 0x40B5 JUMP JUMPDEST POP DUP3 SWAP8 POP DUP8 SWAP6 POP POP POP POP POP POP SWAP3 SWAP2 POP POP JUMP JUMPDEST PUSH1 0x0 PUSH1 0x20 DUP3 ADD SWAP1 POP DUP2 DUP2 SUB PUSH1 0x0 DUP4 ADD MSTORE PUSH2 0x4119 DUP2 DUP5 PUSH2 0x408A JUMP JUMPDEST SWAP1 POP SWAP3 SWAP2 POP POP JUMP JUMPDEST PUSH1 0x0 DUP1 PUSH1 0x0 DUP1 PUSH1 0x0 DUP1 PUSH1 0x0 DUP1 PUSH1 0x0 PUSH2 0x120 DUP11 DUP13 SUB SLT ISZERO PUSH2 0x4144 JUMPI PUSH2 0x4143 PUSH2 0x37A0 JUMP JUMPDEST JUMPDEST PUSH1 0x0 PUSH2 0x4152 DUP13 DUP3 DUP14 ADD PUSH2 0x3880 JUMP JUMPDEST SWAP10 POP POP PUSH1 0x20 PUSH2 0x4163 DUP13 DUP3 DUP14 ADD PUSH2 0x38B9 JUMP JUMPDEST SWAP9 POP POP PUSH1 0x40 PUSH2 0x4174 DUP13 DUP3 DUP14 ADD PUSH2 0x3880 JUMP JUMPDEST SWAP8 POP POP PUSH1 0x60 PUSH2 0x4185 DUP13 DUP3 DUP14 ADD PUSH2 0x3880 JUMP JUMPDEST SWAP7 POP POP PUSH1 0x80 PUSH2 0x4196 DUP13 DUP3 DUP14 ADD PUSH2 0x37F3 JUMP JUMPDEST SWAP6 POP POP PUSH1 0xA0 DUP11 ADD CALLDATALOAD PUSH8 0xFFFFFFFFFFFFFFFF DUP2 GT ISZERO PUSH2 0x41B7 JUMPI PUSH2 0x41B6 PUSH2 0x37A5 JUMP JUMPDEST JUMPDEST PUSH2 0x41C3 DUP13 DUP3 DUP14 ADD PUSH2 0x39E6 JUMP JUMPDEST SWAP5 POP POP PUSH1 0xC0 DUP11 ADD CALLDATALOAD PUSH8 0xFFFFFFFFFFFFFFFF DUP2 GT ISZERO PUSH2 0x41E4 JUMPI PUSH2 0x41E3 PUSH2 0x37A5 JUMP JUMPDEST JUMPDEST PUSH2 0x41F0 DUP13 DUP3 DUP14 ADD PUSH2 0x39E6 JUMP JUMPDEST SWAP4 POP POP PUSH1 0xE0 DUP11 ADD CALLDATALOAD PUSH8 0xFFFFFFFFFFFFFFFF DUP2 GT ISZERO PUSH2 0x4211 JUMPI PUSH2 0x4210 PUSH2 0x37A5 JUMP JUMPDEST JUMPDEST PUSH2 0x421D DUP13 DUP3 DUP14 ADD PUSH2 0x39E6 JUMP JUMPDEST SWAP3 POP POP PUSH2 0x100 DUP11 ADD CALLDATALOAD PUSH8 0xFFFFFFFFFFFFFFFF DUP2 GT ISZERO PUSH2 0x423F JUMPI PUSH2 0x423E PUSH2 0x37A5 JUMP JUMPDEST JUMPDEST PUSH2 0x424B DUP13 DUP3 DUP14 ADD PUSH2 0x39E6 JUMP JUMPDEST SWAP2 POP POP SWAP3 SWAP6 SWAP9 POP SWAP3 SWAP6 SWAP9 POP SWAP3 SWAP6 SWAP9 JUMP JUMPDEST PUSH1 0x0 DUP2 MLOAD SWAP1 POP SWAP2 SWAP1 POP JUMP JUMPDEST PUSH1 0x0 DUP3 DUP3 MSTORE PUSH1 0x20 DUP3 ADD SWAP1 POP SWAP3 SWAP2 POP POP JUMP JUMPDEST PUSH1 0x0 PUSH2 0x4282 DUP3 PUSH2 0x425B JUMP JUMPDEST PUSH2 0x428C DUP2 DUP6 PUSH2 0x4266 JUMP JUMPDEST SWAP4 POP PUSH2 0x429C DUP2 DUP6 PUSH1 0x20 DUP7 ADD PUSH2 0x3B69 JUMP JUMPDEST PUSH2 0x42A5 DUP2 PUSH2 0x38D8 JUMP JUMPDEST DUP5 ADD SWAP2 POP POP SWAP3 SWAP2 POP POP JUMP JUMPDEST PUSH1 0x0 PUSH1 0x20 DUP3 ADD SWAP1 POP DUP2 DUP2 SUB PUSH1 0x0 DUP4 ADD MSTORE PUSH2 0x42CA DUP2 DUP5 PUSH2 0x4277 JUMP JUMPDEST SWAP1 POP SWAP3 SWAP2 POP POP JUMP JUMPDEST PUSH1 0x0 DUP3 DUP3 MSTORE PUSH1 0x20 DUP3 ADD SWAP1 POP SWAP3 SWAP2 POP POP JUMP JUMPDEST PUSH32 0x646F6573206E6F74206578697374000000000000000000000000000000000000 PUSH1 0x0 DUP3 ADD MSTORE POP JUMP JUMPDEST PUSH1 0x0 PUSH2 0x4319 PUSH1 0xE DUP4 PUSH2 0x42D2 JUMP JUMPDEST SWAP2 POP PUSH2 0x4324 DUP3 PUSH2 0x42E3 JUMP JUMPDEST PUSH1 0x20 DUP3 ADD SWAP1 POP SWAP2 SWAP1 POP JUMP JUMPDEST PUSH1 0x0 PUSH1 0x20 DUP3 ADD SWAP1 POP DUP2 DUP2 SUB PUSH1 0x0 DUP4 ADD MSTORE PUSH2 0x4348 DUP2 PUSH2 0x430C JUMP JUMPDEST SWAP1 POP SWAP2 SWAP1 POP JUMP JUMPDEST PUSH1 0x0 PUSH2 0x435A DUP3 PUSH2 0x3B4D JUMP JUMPDEST PUSH2 0x4364 DUP2 DUP6 PUSH2 0x42D2 JUMP JUMPDEST SWAP4 POP PUSH2 0x4374 DUP2 DUP6 PUSH1 0x20 DUP7 ADD PUSH2 0x3B69 JUMP JUMPDEST PUSH2 0x437D DUP2 PUSH2 0x38D8 JUMP JUMPDEST DUP5 ADD SWAP2 POP POP SWAP3 SWAP2 POP POP JUMP JUMPDEST PUSH1 0x0 PUSH1 0x20 DUP3 ADD SWAP1 POP DUP2 DUP2 SUB PUSH1 0x0 DUP4 ADD MSTORE PUSH2 0x43A2 DUP2 DUP5 PUSH2 0x434F JUMP JUMPDEST SWAP1 POP SWAP3 SWAP2 POP POP JUMP JUMPDEST PUSH32 0x4552523639310000000000000000000000000000000000000000000000000000 PUSH1 0x0 DUP3 ADD MSTORE POP JUMP JUMPDEST PUSH1 0x0 PUSH2 0x43E0 PUSH1 0x6 DUP4 PUSH2 0x42D2 JUMP JUMPDEST SWAP2 POP PUSH2 0x43EB DUP3 PUSH2 0x43AA JUMP JUMPDEST PUSH1 0x20 DUP3 ADD SWAP1 POP SWAP2 SWAP1 POP JUMP JUMPDEST PUSH1 0x0 PUSH1 0x20 DUP3 ADD SWAP1 POP DUP2 DUP2 SUB PUSH1 0x0 DUP4 ADD MSTORE PUSH2 0x440F DUP2 PUSH2 0x43D3 JUMP JUMPDEST SWAP1 POP SWAP2 SWAP1 POP JUMP JUMPDEST PUSH1 0x0 DUP2 SWAP1 POP SWAP3 SWAP2 POP POP JUMP JUMPDEST PUSH1 0x0 PUSH2 0x442C DUP3 PUSH2 0x3B4D JUMP JUMPDEST PUSH2 0x4436 DUP2 DUP6 PUSH2 0x4416 JUMP JUMPDEST SWAP4 POP PUSH2 0x4446 DUP2 DUP6 PUSH1 0x20 DUP7 ADD PUSH2 0x3B69 JUMP JUMPDEST DUP1 DUP5 ADD SWAP2 POP POP SWAP3 SWAP2 POP POP JUMP JUMPDEST PUSH1 0x0 PUSH2 0x445E DUP3 DUP5 PUSH2 0x4421 JUMP JUMPDEST SWAP2 POP DUP2 SWAP1 POP SWAP3 SWAP2 POP POP JUMP JUMPDEST PUSH32 0x4552523231340000000000000000000000000000000000000000000000000000 PUSH1 0x0 DUP3 ADD MSTORE POP JUMP JUMPDEST PUSH1 0x0 PUSH2 0x449F PUSH1 0x6 DUP4 PUSH2 0x42D2 JUMP JUMPDEST SWAP2 POP PUSH2 0x44AA DUP3 PUSH2 0x4469 JUMP JUMPDEST PUSH1 0x20 DUP3 ADD SWAP1 POP SWAP2 SWAP1 POP JUMP JUMPDEST PUSH1 0x0 PUSH1 0x20 DUP3 ADD SWAP1 POP DUP2 DUP2 SUB PUSH1 0x0 DUP4 ADD MSTORE PUSH2 0x44CE DUP2 PUSH2 0x4492 JUMP JUMPDEST SWAP1 POP SWAP2 SWAP1 POP JUMP JUMPDEST PUSH32 0x4E487B7100000000000000000000000000000000000000000000000000000000 PUSH1 0x0 MSTORE PUSH1 0x22 PUSH1 0x4 MSTORE PUSH1 0x24 PUSH1 0x0 REVERT JUMPDEST PUSH1 0x0 PUSH1 0x2 DUP3 DIV SWAP1 POP PUSH1 0x1 DUP3 AND DUP1 PUSH2 0x451C JUMPI PUSH1 0x7F DUP3 AND SWAP2 POP JUMPDEST PUSH1 0x20 DUP3 LT DUP2 SUB PUSH2 0x452F JUMPI PUSH2 0x452E PUSH2 0x44D5 JUMP JUMPDEST JUMPDEST POP SWAP2 SWAP1 POP JUMP JUMPDEST PUSH1 0x0 PUSH1 0xA0 DUP3 ADD SWAP1 POP DUP2 DUP2 SUB PUSH1 0x0 DUP4 ADD MSTORE PUSH2 0x454F DUP2 DUP9 PUSH2 0x434F JUMP JUMPDEST SWAP1 POP DUP2 DUP2 SUB PUSH1 0x20 DUP4 ADD MSTORE PUSH2 0x4563 DUP2 DUP8 PUSH2 0x434F JUMP JUMPDEST SWAP1 POP DUP2 DUP2 SUB PUSH1 0x40 DUP4 ADD MSTORE PUSH2 0x4577 DUP2 DUP7 PUSH2 0x434F JUMP JUMPDEST SWAP1 POP DUP2 DUP2 SUB PUSH1 0x60 DUP4 ADD MSTORE PUSH2 0x458B DUP2 DUP6 PUSH2 0x434F JUMP JUMPDEST SWAP1 POP PUSH2 0x459A PUSH1 0x80 DUP4 ADD DUP5 PUSH2 0x3835 JUMP JUMPDEST SWAP7 SWAP6 POP POP POP POP POP POP JUMP JUMPDEST PUSH1 0x0 PUSH1 0x40 DUP3 ADD SWAP1 POP PUSH2 0x45B9 PUSH1 0x0 DUP4 ADD DUP6 PUSH2 0x3835 JUMP JUMPDEST DUP2 DUP2 SUB PUSH1 0x20 DUP4 ADD MSTORE PUSH2 0x45CB DUP2 DUP5 PUSH2 0x434F JUMP JUMPDEST SWAP1 POP SWAP4 SWAP3 POP POP POP JUMP JUMPDEST PUSH1 0x0 DUP2 MLOAD SWAP1 POP PUSH2 0x45E3 DUP2 PUSH2 0x37DC JUMP JUMPDEST SWAP3 SWAP2 POP POP JUMP JUMPDEST PUSH1 0x0 PUSH1 0x20 DUP3 DUP5 SUB SLT ISZERO PUSH2 0x45FF JUMPI PUSH2 0x45FE PUSH2 0x37A0 JUMP JUMPDEST JUMPDEST PUSH1 0x0 PUSH2 0x460D DUP5 DUP3 DUP6 ADD PUSH2 0x45D4 JUMP JUMPDEST SWAP2 POP POP SWAP3 SWAP2 POP POP JUMP JUMPDEST PUSH1 0x0 DUP2 SWAP1 POP DUP2 PUSH1 0x0 MSTORE PUSH1 0x20 PUSH1 0x0 KECCAK256 SWAP1 POP SWAP2 SWAP1 POP JUMP JUMPDEST PUSH1 0x0 PUSH1 0x20 PUSH1 0x1F DUP4 ADD DIV SWAP1 POP SWAP2 SWAP1 POP JUMP JUMPDEST PUSH1 0x0 DUP3 DUP3 SHL SWAP1 POP SWAP3 SWAP2 POP POP JUMP JUMPDEST PUSH1 0x0 PUSH1 0x8 DUP4 MUL PUSH2 0x4678 PUSH32 0xFFFFFFFFFFFFFFFFFFFFFFFFFFFFFFFFFFFFFFFFFFFFFFFFFFFFFFFFFFFFFFFF DUP3 PUSH2 0x463B JUMP JUMPDEST PUSH2 0x4682 DUP7 DUP4 PUSH2 0x463B JUMP JUMPDEST SWAP6 POP DUP1 NOT DUP5 AND SWAP4 POP DUP1 DUP7 AND DUP5 OR SWAP3 POP POP POP SWAP4 SWAP3 POP POP POP JUMP JUMPDEST PUSH1 0x0 DUP2 SWAP1 POP SWAP2 SWAP1 POP JUMP JUMPDEST PUSH1 0x0 DUP2 SWAP1 POP SWAP2 SWAP1 POP JUMP JUMPDEST PUSH1 0x0 PUSH2 0x46C9 PUSH2 0x46C4 PUSH2 0x46BF DUP5 PUSH2 0x469A JUMP JUMPDEST PUSH2 0x46A4 JUMP JUMPDEST PUSH2 0x469A JUMP JUMPDEST SWAP1 POP SWAP2 SWAP1 POP JUMP JUMPDEST PUSH1 0x0 DUP2 SWAP1 POP SWAP2 SWAP1 POP JUMP JUMPDEST PUSH2 0x46E3 DUP4 PUSH2 0x46AE JUMP JUMPDEST PUSH2 0x46F7 PUSH2 0x46EF DUP3 PUSH2 0x46D0 JUMP JUMPDEST DUP5 DUP5 SLOAD PUSH2 0x4648 JUMP JUMPDEST DUP3 SSTORE POP POP POP POP JUMP JUMPDEST PUSH1 0x0 SWAP1 JUMP JUMPDEST PUSH2 0x470C PUSH2 0x46FF JUMP JUMPDEST PUSH2 0x4717 DUP2 DUP5 DUP5 PUSH2 0x46DA JUMP JUMPDEST POP POP POP JUMP JUMPDEST JUMPDEST DUP2 DUP2 LT ISZERO PUSH2 0x473B JUMPI PUSH2 0x4730 PUSH1 0x0 DUP3 PUSH2 0x4704 JUMP JUMPDEST PUSH1 0x1 DUP2 ADD SWAP1 POP PUSH2 0x471D JUMP JUMPDEST POP POP JUMP JUMPDEST PUSH1 0x1F DUP3 GT ISZERO PUSH2 0x4780 JUMPI PUSH2 0x4751 DUP2 PUSH2 0x4616 JUMP JUMPDEST PUSH2 0x475A DUP5 PUSH2 0x462B JUMP JUMPDEST DUP2 ADD PUSH1 0x20 DUP6 LT ISZERO PUSH2 0x4769 JUMPI DUP2 SWAP1 POP JUMPDEST PUSH2 0x477D PUSH2 0x4775 DUP6 PUSH2 0x462B JUMP JUMPDEST DUP4 ADD DUP3 PUSH2 0x471C JUMP JUMPDEST POP POP JUMPDEST POP POP POP JUMP JUMPDEST PUSH1 0x0 DUP3 DUP3 SHR SWAP1 POP SWAP3 SWAP2 POP POP JUMP JUMPDEST PUSH1 0x0 PUSH2 0x47A3 PUSH1 0x0 NOT DUP5 PUSH1 0x8 MUL PUSH2 0x4785 JUMP JUMPDEST NOT DUP1 DUP4 AND SWAP2 POP POP SWAP3 SWAP2 POP POP JUMP JUMPDEST PUSH1 0x0 PUSH2 0x47BC DUP4 DUP4 PUSH2 0x4792 JUMP JUMPDEST SWAP2 POP DUP3 PUSH1 0x2 MUL DUP3 OR SWAP1 POP SWAP3 SWAP2 POP POP JUMP JUMPDEST PUSH2 0x47D5 DUP3 PUSH2 0x425B JUMP JUMPDEST PUSH8 0xFFFFFFFFFFFFFFFF DUP2 GT ISZERO PUSH2 0x47EE JUMPI PUSH2 0x47ED PUSH2 0x38E9 JUMP JUMPDEST JUMPDEST PUSH2 0x47F8 DUP3 SLOAD PUSH2 0x4504 JUMP JUMPDEST PUSH2 0x4803 DUP3 DUP3 DUP6 PUSH2 0x473F JUMP JUMPDEST PUSH1 0x0 PUSH1 0x20 SWAP1 POP PUSH1 0x1F DUP4 GT PUSH1 0x1 DUP2 EQ PUSH2 0x4836 JUMPI PUSH1 0x0 DUP5 ISZERO PUSH2 0x4824 JUMPI DUP3 DUP8 ADD MLOAD SWAP1 POP JUMPDEST PUSH2 0x482E DUP6 DUP3 PUSH2 0x47B0 JUMP JUMPDEST DUP7 SSTORE POP PUSH2 0x4896 JUMP JUMPDEST PUSH1 0x1F NOT DUP5 AND PUSH2 0x4844 DUP7 PUSH2 0x4616 JUMP JUMPDEST PUSH1 0x0 JUMPDEST DUP3 DUP2 LT ISZERO PUSH2 0x486C JUMPI DUP5 DUP10 ADD MLOAD DUP3 SSTORE PUSH1 0x1 DUP3 ADD SWAP2 POP PUSH1 0x20 DUP6 ADD SWAP5 POP PUSH1 0x20 DUP2 ADD SWAP1 POP PUSH2 0x4847 JUMP JUMPDEST DUP7 DUP4 LT ISZERO PUSH2 0x4889 JUMPI DUP5 DUP10 ADD MLOAD PUSH2 0x4885 PUSH1 0x1F DUP10 AND DUP3 PUSH2 0x4792 JUMP JUMPDEST DUP4 SSTORE POP JUMPDEST PUSH1 0x1 PUSH1 0x2 DUP9 MUL ADD DUP9 SSTORE POP POP POP JUMPDEST POP POP POP POP POP POP JUMP JUMPDEST PUSH1 0x0 PUSH1 0x80 DUP3 ADD SWAP1 POP DUP2 DUP2 SUB PUSH1 0x0 DUP4 ADD MSTORE PUSH2 0x48B8 DUP2 DUP8 PUSH2 0x434F JUMP JUMPDEST SWAP1 POP DUP2 DUP2 SUB PUSH1 0x20 DUP4 ADD MSTORE PUSH2 0x48CC DUP2 DUP7 PUSH2 0x434F JUMP JUMPDEST SWAP1 POP DUP2 DUP2 SUB PUSH1 0x40 DUP4 ADD MSTORE PUSH2 0x48E0 DUP2 DUP6 PUSH2 0x434F JUMP JUMPDEST SWAP1 POP DUP2 DUP2 SUB PUSH1 0x60 DUP4 ADD MSTORE PUSH2 0x48F4 DUP2 DUP5 PUSH2 0x434F JUMP JUMPDEST SWAP1 POP SWAP6 SWAP5 POP POP POP POP POP JUMP JUMPDEST PUSH32 0x4F776E61626C65236F6E6C794F776E65724F7243726561746F723A2053454E44 PUSH1 0x0 DUP3 ADD MSTORE PUSH32 0x45525F49535F4E4F545F4F574E45525F4F525F43524541544F52000000000000 PUSH1 0x20 DUP3 ADD MSTORE POP JUMP JUMPDEST PUSH1 0x0 PUSH2 0x495B PUSH1 0x3A DUP4 PUSH2 0x42D2 JUMP JUMPDEST SWAP2 POP PUSH2 0x4966 DUP3 PUSH2 0x48FF JUMP JUMPDEST PUSH1 0x40 DUP3 ADD SWAP1 POP SWAP2 SWAP1 POP JUMP JUMPDEST PUSH1 0x0 PUSH1 0x20 DUP3 ADD SWAP1 POP DUP2 DUP2 SUB PUSH1 0x0 DUP4 ADD MSTORE PUSH2 0x498A DUP2 PUSH2 0x494E JUMP JUMPDEST SWAP1 POP SWAP2 SWAP1 POP JUMP JUMPDEST PUSH32 0x4E487B7100000000000000000000000000000000000000000000000000000000 PUSH1 0x0 MSTORE PUSH1 0x32 PUSH1 0x4 MSTORE PUSH1 0x24 PUSH1 0x0 REVERT JUMPDEST PUSH1 0x0 PUSH8 0xFFFFFFFFFFFFFFFF DUP3 GT ISZERO PUSH2 0x49DB JUMPI PUSH2 0x49DA PUSH2 0x38E9 JUMP JUMPDEST JUMPDEST PUSH1 0x20 DUP3 MUL SWAP1 POP PUSH1 0x20 DUP2 ADD SWAP1 POP SWAP2 SWAP1 POP JUMP JUMPDEST PUSH1 0x0 DUP1 REVERT JUMPDEST PUSH1 0x0 DUP1 REVERT JUMPDEST PUSH1 0x0 DUP1 REVERT JUMPDEST PUSH1 0x0 PUSH2 0x4A0E PUSH2 0x4A09 DUP5 PUSH2 0x3964 JUMP JUMPDEST PUSH2 0x3949 JUMP JUMPDEST SWAP1 POP DUP3 DUP2 MSTORE PUSH1 0x20 DUP2 ADD DUP5 DUP5 DUP5 ADD GT ISZERO PUSH2 0x4A2A JUMPI PUSH2 0x4A29 PUSH2 0x38D3 JUMP JUMPDEST JUMPDEST PUSH2 0x4A35 DUP5 DUP3 DUP6 PUSH2 0x3B69 JUMP JUMPDEST POP SWAP4 SWAP3 POP POP POP JUMP JUMPDEST PUSH1 0x0 DUP3 PUSH1 0x1F DUP4 ADD SLT PUSH2 0x4A52 JUMPI PUSH2 0x4A51 PUSH2 0x38CE JUMP JUMPDEST JUMPDEST DUP2 MLOAD PUSH2 0x4A62 DUP5 DUP3 PUSH1 0x20 DUP7 ADD PUSH2 0x49FB JUMP JUMPDEST SWAP2 POP POP SWAP3 SWAP2 POP POP JUMP JUMPDEST PUSH1 0x0 PUSH1 0xA0 DUP3 DUP5 SUB SLT ISZERO PUSH2 0x4A81 JUMPI PUSH2 0x4A80 PUSH2 0x49F1 JUMP JUMPDEST JUMPDEST PUSH2 0x4A8B PUSH1 0xA0 PUSH2 0x3949 JUMP JUMPDEST SWAP1 POP PUSH1 0x0 DUP3 ADD MLOAD PUSH8 0xFFFFFFFFFFFFFFFF DUP2 GT ISZERO PUSH2 0x4AAB JUMPI PUSH2 0x4AAA PUSH2 0x49F6 JUMP JUMPDEST JUMPDEST PUSH2 0x4AB7 DUP5 DUP3 DUP6 ADD PUSH2 0x4A3D JUMP JUMPDEST PUSH1 0x0 DUP4 ADD MSTORE POP PUSH1 0x20 DUP3 ADD MLOAD PUSH8 0xFFFFFFFFFFFFFFFF DUP2 GT ISZERO PUSH2 0x4ADB JUMPI PUSH2 0x4ADA PUSH2 0x49F6 JUMP JUMPDEST JUMPDEST PUSH2 0x4AE7 DUP5 DUP3 DUP6 ADD PUSH2 0x4A3D JUMP JUMPDEST PUSH1 0x20 DUP4 ADD MSTORE POP PUSH1 0x40 DUP3 ADD MLOAD PUSH8 0xFFFFFFFFFFFFFFFF DUP2 GT ISZERO PUSH2 0x4B0B JUMPI PUSH2 0x4B0A PUSH2 0x49F6 JUMP JUMPDEST JUMPDEST PUSH2 0x4B17 DUP5 DUP3 DUP6 ADD PUSH2 0x4A3D JUMP JUMPDEST PUSH1 0x40 DUP4 ADD MSTORE POP PUSH1 0x60 DUP3 ADD MLOAD PUSH8 0xFFFFFFFFFFFFFFFF DUP2 GT ISZERO PUSH2 0x4B3B JUMPI PUSH2 0x4B3A PUSH2 0x49F6 JUMP JUMPDEST JUMPDEST PUSH2 0x4B47 DUP5 DUP3 DUP6 ADD PUSH2 0x4A3D JUMP JUMPDEST PUSH1 0x60 DUP4 ADD MSTORE POP PUSH1 0x80 PUSH2 0x4B5B DUP5 DUP3 DUP6 ADD PUSH2 0x45D4 JUMP JUMPDEST PUSH1 0x80 DUP4 ADD MSTORE POP SWAP3 SWAP2 POP POP JUMP JUMPDEST PUSH1 0x0 PUSH2 0x4B7A PUSH2 0x4B75 DUP5 PUSH2 0x49C0 JUMP JUMPDEST PUSH2 0x3949 JUMP JUMPDEST SWAP1 POP DUP1 DUP4 DUP3 MSTORE PUSH1 0x20 DUP3 ADD SWAP1 POP PUSH1 0x20 DUP5 MUL DUP4 ADD DUP6 DUP2 GT ISZERO PUSH2 0x4B9D JUMPI PUSH2 0x4B9C PUSH2 0x49EC JUMP JUMPDEST JUMPDEST DUP4 JUMPDEST DUP2 DUP2 LT ISZERO PUSH2 0x4BE4 JUMPI DUP1 MLOAD PUSH8 0xFFFFFFFFFFFFFFFF DUP2 GT ISZERO PUSH2 0x4BC2 JUMPI PUSH2 0x4BC1 PUSH2 0x38CE JUMP JUMPDEST JUMPDEST DUP1 DUP7 ADD PUSH2 0x4BCF DUP10 DUP3 PUSH2 0x4A6B JUMP JUMPDEST DUP6 MSTORE PUSH1 0x20 DUP6 ADD SWAP5 POP POP POP PUSH1 0x20 DUP2 ADD SWAP1 POP PUSH2 0x4B9F JUMP JUMPDEST POP POP POP SWAP4 SWAP3 POP POP POP JUMP JUMPDEST PUSH1 0x0 DUP3 PUSH1 0x1F DUP4 ADD SLT PUSH2 0x4C03 JUMPI PUSH2 0x4C02 PUSH2 0x38CE JUMP JUMPDEST JUMPDEST DUP2 MLOAD PUSH2 0x4C13 DUP5 DUP3 PUSH1 0x20 DUP7 ADD PUSH2 0x4B67 JUMP JUMPDEST SWAP2 POP POP SWAP3 SWAP2 POP POP JUMP JUMPDEST PUSH1 0x0 PUSH1 0x20 DUP3 DUP5 SUB SLT ISZERO PUSH2 0x4C32 JUMPI PUSH2 0x4C31 PUSH2 0x37A0 JUMP JUMPDEST JUMPDEST PUSH1 0x0 DUP3 ADD MLOAD PUSH8 0xFFFFFFFFFFFFFFFF DUP2 GT ISZERO PUSH2 0x4C50 JUMPI PUSH2 0x4C4F PUSH2 0x37A5 JUMP JUMPDEST JUMPDEST PUSH2 0x4C5C DUP5 DUP3 DUP6 ADD PUSH2 0x4BEE JUMP JUMPDEST SWAP2 POP POP SWAP3 SWAP2 POP POP JUMP JUMPDEST PUSH1 0x0 DUP2 SWAP1 POP SWAP3 SWAP2 POP POP JUMP JUMPDEST PUSH1 0x0 PUSH2 0x4C7B DUP3 PUSH2 0x425B JUMP JUMPDEST PUSH2 0x4C85 DUP2 DUP6 PUSH2 0x4C65 JUMP JUMPDEST SWAP4 POP PUSH2 0x4C95 DUP2 DUP6 PUSH1 0x20 DUP7 ADD PUSH2 0x3B69 JUMP JUMPDEST DUP1 DUP5 ADD SWAP2 POP POP SWAP3 SWAP2 POP POP JUMP JUMPDEST PUSH1 0x0 DUP2 SWAP1 POP SWAP2 SWAP1 POP JUMP JUMPDEST PUSH2 0x4CBC PUSH2 0x4CB7 DUP3 PUSH2 0x385F JUMP JUMPDEST PUSH2 0x4CA1 JUMP JUMPDEST DUP3 MSTORE POP POP JUMP JUMPDEST PUSH1 0x0 PUSH2 0x4CCE DUP3 DUP6 PUSH2 0x4C70 JUMP JUMPDEST SWAP2 POP PUSH2 0x4CDA DUP3 DUP5 PUSH2 0x4CAB JUMP JUMPDEST PUSH1 0x20 DUP3 ADD SWAP2 POP DUP2 SWAP1 POP SWAP4 SWAP3 POP POP POP JUMP JUMPDEST PUSH2 0x4CF3 DUP2 PUSH2 0x385F JUMP JUMPDEST DUP3 MSTORE POP POP JUMP JUMPDEST PUSH2 0x4D02 DUP2 PUSH2 0x3895 JUMP JUMPDEST DUP3 MSTORE POP POP JUMP JUMPDEST PUSH1 0x0 PUSH1 0x80 DUP3 ADD SWAP1 POP PUSH2 0x4D1D PUSH1 0x0 DUP4 ADD DUP8 PUSH2 0x4CEA JUMP JUMPDEST PUSH2 0x4D2A PUSH1 0x20 DUP4 ADD DUP7 PUSH2 0x4CF9 JUMP JUMPDEST PUSH2 0x4D37 PUSH1 0x40 DUP4 ADD DUP6 PUSH2 0x4CEA JUMP JUMPDEST PUSH2 0x4D44 PUSH1 0x60 DUP4 ADD DUP5 PUSH2 0x4CEA JUMP JUMPDEST SWAP6 SWAP5 POP POP POP POP POP JUMP JUMPDEST PUSH1 0x0 DUP2 SWAP1 POP DUP2 PUSH1 0x0 MSTORE PUSH1 0x20 PUSH1 0x0 KECCAK256 SWAP1 POP SWAP2 SWAP1 POP JUMP JUMPDEST PUSH1 0x0 DUP2 SLOAD PUSH2 0x4D6F DUP2 PUSH2 0x4504 JUMP JUMPDEST PUSH2 0x4D79 DUP2 DUP7 PUSH2 0x4416 JUMP JUMPDEST SWAP5 POP PUSH1 0x1 DUP3 AND PUSH1 0x0 DUP2 EQ PUSH2 0x4D94 JUMPI PUSH1 0x1 DUP2 EQ PUSH2 0x4DA9 JUMPI PUSH2 0x4DDC JUMP JUMPDEST PUSH1 0xFF NOT DUP4 AND DUP7 MSTORE DUP2 ISZERO ISZERO DUP3 MUL DUP7 ADD SWAP4 POP PUSH2 0x4DDC JUMP JUMPDEST PUSH2 0x4DB2 DUP6 PUSH2 0x4D4D JUMP JUMPDEST PUSH1 0x0 JUMPDEST DUP4 DUP2 LT ISZERO PUSH2 0x4DD4 JUMPI DUP2 SLOAD DUP2 DUP10 ADD MSTORE PUSH1 0x1 DUP3 ADD SWAP2 POP PUSH1 0x20 DUP2 ADD SWAP1 POP PUSH2 0x4DB5 JUMP JUMPDEST DUP4 DUP9 ADD SWAP6 POP POP POP JUMPDEST POP POP POP SWAP3 SWAP2 POP POP JUMP JUMPDEST PUSH1 0x0 PUSH2 0x4DF1 DUP3 DUP5 PUSH2 0x4D62 JUMP JUMPDEST SWAP2 POP DUP2 SWAP1 POP SWAP3 SWAP2 POP POP JUMP JUMPDEST PUSH32 0x4E487B7100000000000000000000000000000000000000000000000000000000 PUSH1 0x0 MSTORE PUSH1 0x11 PUSH1 0x4 MSTORE PUSH1 0x24 PUSH1 0x0 REVERT JUMPDEST PUSH1 0x0 PUSH2 0x4E36 DUP3 PUSH2 0x3895 JUMP JUMPDEST SWAP2 POP PUSH2 0x4E41 DUP4 PUSH2 0x3895 JUMP JUMPDEST SWAP3 POP DUP3 DUP3 SUB SWAP1 POP PUSH1 0xFF DUP2 GT ISZERO PUSH2 0x4E5A JUMPI PUSH2 0x4E59 PUSH2 0x4DFC JUMP JUMPDEST JUMPDEST SWAP3 SWAP2 POP POP JUMP JUMPDEST PUSH1 0x0 DUP2 SWAP1 POP SWAP2 SWAP1 POP JUMP JUMPDEST PUSH2 0x4E7B PUSH2 0x4E76 DUP3 PUSH2 0x469A JUMP JUMPDEST PUSH2 0x4E60 JUMP JUMPDEST DUP3 MSTORE POP POP JUMP JUMPDEST PUSH1 0x0 PUSH2 0x4E8D DUP3 DUP6 PUSH2 0x4E6A JUMP JUMPDEST PUSH1 0x20 DUP3 ADD SWAP2 POP PUSH2 0x4E9D DUP3 DUP5 PUSH2 0x4E6A JUMP JUMPDEST PUSH1 0x20 DUP3 ADD SWAP2 POP DUP2 SWAP1 POP SWAP4 SWAP3 POP POP POP JUMP JUMPDEST PUSH32 0x5352414578697374730000000000000000000000000000000000000000000000 PUSH1 0x0 DUP3 ADD MSTORE POP JUMP JUMPDEST PUSH1 0x0 PUSH2 0x4EE3 PUSH1 0x9 DUP4 PUSH2 0x42D2 JUMP JUMPDEST SWAP2 POP PUSH2 0x4EEE DUP3 PUSH2 0x4EAD JUMP JUMPDEST PUSH1 0x20 DUP3 ADD SWAP1 POP SWAP2 SWAP1 POP JUMP JUMPDEST PUSH1 0x0 PUSH1 0x20 DUP3 ADD SWAP1 POP DUP2 DUP2 SUB PUSH1 0x0 DUP4 ADD MSTORE PUSH2 0x4F12 DUP2 PUSH2 0x4ED6 JUMP JUMPDEST SWAP1 POP SWAP2 SWAP1 POP JUMP JUMPDEST PUSH1 0x1F DUP3 GT ISZERO PUSH2 0x4F5A JUMPI PUSH2 0x4F2B DUP2 PUSH2 0x4D4D JUMP JUMPDEST PUSH2 0x4F34 DUP5 PUSH2 0x462B JUMP JUMPDEST DUP2 ADD PUSH1 0x20 DUP6 LT ISZERO PUSH2 0x4F43 JUMPI DUP2 SWAP1 POP JUMPDEST PUSH2 0x4F57 PUSH2 0x4F4F DUP6 PUSH2 0x462B JUMP JUMPDEST DUP4 ADD DUP3 PUSH2 0x471C JUMP JUMPDEST POP POP JUMPDEST POP POP POP JUMP JUMPDEST PUSH2 0x4F68 DUP3 PUSH2 0x3B4D JUMP JUMPDEST PUSH8 0xFFFFFFFFFFFFFFFF DUP2 GT ISZERO PUSH2 0x4F81 JUMPI PUSH2 0x4F80 PUSH2 0x38E9 JUMP JUMPDEST JUMPDEST PUSH2 0x4F8B DUP3 SLOAD PUSH2 0x4504 JUMP JUMPDEST PUSH2 0x4F96 DUP3 DUP3 DUP6 PUSH2 0x4F19 JUMP JUMPDEST PUSH1 0x0 PUSH1 0x20 SWAP1 POP PUSH1 0x1F DUP4 GT PUSH1 0x1 DUP2 EQ PUSH2 0x4FC9 JUMPI PUSH1 0x0 DUP5 ISZERO PUSH2 0x4FB7 JUMPI DUP3 DUP8 ADD MLOAD SWAP1 POP JUMPDEST PUSH2 0x4FC1 DUP6 DUP3 PUSH2 0x47B0 JUMP JUMPDEST DUP7 SSTORE POP PUSH2 0x5029 JUMP JUMPDEST PUSH1 0x1F NOT DUP5 AND PUSH2 0x4FD7 DUP7 PUSH2 0x4D4D JUMP JUMPDEST PUSH1 0x0 JUMPDEST DUP3 DUP2 LT ISZERO PUSH2 0x4FFF JUMPI DUP5 DUP10 ADD MLOAD DUP3 SSTORE PUSH1 0x1 DUP3 ADD SWAP2 POP PUSH1 0x20 DUP6 ADD SWAP5 POP PUSH1 0x20 DUP2 ADD SWAP1 POP PUSH2 0x4FDA JUMP JUMPDEST DUP7 DUP4 LT ISZERO PUSH2 0x501C JUMPI DUP5 DUP10 ADD MLOAD PUSH2 0x5018 PUSH1 0x1F DUP10 AND DUP3 PUSH2 0x4792 JUMP JUMPDEST DUP4 SSTORE POP JUMPDEST PUSH1 0x1 PUSH1 0x2 DUP9 MUL ADD DUP9 SSTORE POP POP POP JUMPDEST POP POP POP POP POP POP JUMP JUMPDEST PUSH32 0x4E487B7100000000000000000000000000000000000000000000000000000000 PUSH1 0x0 MSTORE PUSH1 0x12 PUSH1 0x4 MSTORE PUSH1 0x24 PUSH1 0x0 REVERT JUMPDEST PUSH1 0x0 PUSH2 0x506B DUP3 PUSH2 0x469A JUMP JUMPDEST SWAP2 POP PUSH2 0x5076 DUP4 PUSH2 0x469A JUMP JUMPDEST SWAP3 POP DUP3 DUP3 MUL PUSH2 0x5084 DUP2 PUSH2 0x469A JUMP JUMPDEST SWAP2 POP DUP3 DUP3 DIV DUP5 EQ DUP4 ISZERO OR PUSH2 0x509B JUMPI PUSH2 0x509A PUSH2 0x4DFC JUMP JUMPDEST JUMPDEST POP SWAP3 SWAP2 POP POP JUMP JUMPDEST PUSH1 0x0 PUSH2 0x50AD DUP3 PUSH2 0x469A JUMP JUMPDEST SWAP2 POP PUSH2 0x50B8 DUP4 PUSH2 0x469A JUMP JUMPDEST SWAP3 POP DUP3 DUP3 ADD SWAP1 POP DUP1 DUP3 GT ISZERO PUSH2 0x50D0 JUMPI PUSH2 0x50CF PUSH2 0x4DFC JUMP JUMPDEST JUMPDEST SWAP3 SWAP2 POP POP JUMP JUMPDEST PUSH1 0x0 PUSH2 0x50E1 DUP3 PUSH2 0x469A JUMP JUMPDEST SWAP2 POP PUSH2 0x50EC DUP4 PUSH2 0x469A JUMP JUMPDEST SWAP3 POP DUP3 PUSH2 0x50FC JUMPI PUSH2 0x50FB PUSH2 0x5031 JUMP JUMPDEST JUMPDEST DUP3 DUP3 DIV SWAP1 POP SWAP3 SWAP2 POP POP JUMP JUMPDEST PUSH1 0x0 PUSH2 0x5112 DUP3 PUSH2 0x469A JUMP JUMPDEST SWAP2 POP PUSH2 0x511D DUP4 PUSH2 0x469A JUMP JUMPDEST SWAP3 POP DUP3 DUP3 SUB SWAP1 POP DUP2 DUP2 GT ISZERO PUSH2 0x5135 JUMPI PUSH2 0x5134 PUSH2 0x4DFC JUMP JUMPDEST JUMPDEST SWAP3 SWAP2 POP POP JUMP JUMPDEST PUSH32 0x496E76616C6964206E756D626572000000000000000000000000000000000000 PUSH1 0x0 DUP3 ADD MSTORE POP JUMP JUMPDEST PUSH1 0x0 PUSH2 0x5171 PUSH1 0xE DUP4 PUSH2 0x42D2 JUMP JUMPDEST SWAP2 POP PUSH2 0x517C DUP3 PUSH2 0x513B JUMP JUMPDEST PUSH1 0x20 DUP3 ADD SWAP1 POP SWAP2 SWAP1 POP JUMP JUMPDEST PUSH1 0x0 PUSH1 0x20 DUP3 ADD SWAP1 POP DUP2 DUP2 SUB PUSH1 0x0 DUP4 ADD MSTORE PUSH2 0x51A0 DUP2 PUSH2 0x5164 JUMP JUMPDEST SWAP1 POP SWAP2 SWAP1 POP JUMP JUMPDEST PUSH32 0x557365206A6163446F75626C652066756E6374696F6E20696E73746561640000 PUSH1 0x0 DUP3 ADD MSTORE POP JUMP JUMPDEST PUSH1 0x0 PUSH2 0x51DD PUSH1 0x1E DUP4 PUSH2 0x42D2 JUMP JUMPDEST SWAP2 POP PUSH2 0x51E8 DUP3 PUSH2 0x51A7 JUMP JUMPDEST PUSH1 0x20 DUP3 ADD SWAP1 POP SWAP2 SWAP1 POP JUMP JUMPDEST PUSH1 0x0 PUSH1 0x20 DUP3 ADD SWAP1 POP DUP2 DUP2 SUB PUSH1 0x0 DUP4 ADD MSTORE PUSH2 0x520C DUP2 PUSH2 0x51D0 JUMP JUMPDEST SWAP1 POP SWAP2 SWAP1 POP JUMP INVALID LOG2 PUSH5 0x6970667358 0x22 SLT KECCAK256 0xD7 0xB9 BYTE GT 0xB2 0xE7 0xD6 MSTORE8 SAR 0xED CALLCODE 0xFC 0xD5 0x23 PUSH23 0x5BD58F4E49E66EC1989B4CD505ECC1F70A64736F6C6343 STOP ADDMOD XOR STOP CALLER "},"methodIdentifiers":{"acceptShareRequest(bytes32,uint8,bytes32,bytes32,string)":"6b11bc49","adminAllVaults()":"d8b63c8a","createFile(string,string,string,string,bytes32,uint8,bytes32,bytes32)":"b1a81bd5","deleteFile(bytes32,uint8,bytes32,bytes32,string)":"146aa7f7","deploy(string,bytes32,uint8,bytes32,bytes32)":"9d6944c2","getAllFiles(bytes32,uint8,bytes32,bytes32)":"e04e0283","getCreator()":"0ee2cb10","getOwner()":"893d20e8","getPubKey(address)":"fce9512a","getShareRequests(bytes32,uint8,bytes32,bytes32)":"2fd005c8","getVault(address)":"0eb9af38","rejectShareRequest(bytes32,uint8,bytes32,bytes32,string)":"633072e4","sendShareRequest(bytes32,uint8,bytes32,bytes32,address,string,string,string,string)":"e4f0c916"}}}}}