{"contracts/utils/SECP256K1.sol":{"SECP256K1":{"abi":[{"inputs":[{"internalType":"uint256","name":"digest","type":"uint256"},{"internalType":"uint8","name":"v","type":"uint8"},{"internalType":"uint256","name":"r","type":"uint256"},{"internalType":"uint256","name":"s","type":"uint256"}],"name":"recover","outputs":[{"internalType":"uint256","name":"","type":"uint256"},{"internalType":"uint256","name":"","type":"uint256"}],"stateMutability":"pure","type":"function"}],"evm":{"bytecode":{"linkReferences":{},"object":"611bf0610053600b82828239805160001a607314610046577f4e487b7100000000000000000000000000000000000000000000000000000000600052600060045260246000fd5b30600052607381538281f3fe73000000000000000000000000000000000000000030146080604052600436106100355760003560e01c80634828f4a21461003a575b600080fd5b610054600480360381019061004f91906118ca565b61006b565b604051610062929190611940565b60405180910390f35b60008060007ffffffffffffffffffffffffffffffffffffffffffffffffffffffffefffffc2f8061009f5761009e611969565b5b60018760ff16901c60ff167ffffffffffffffffffffffffffffffffffffffffffffffffffffffffefffffc2f6100d591906119c7565b860890507ffffffffffffffffffffffffffffffffffffffffffffffffffffffffefffffc2f81118061012657507ffffffffffffffffffffffffffffffffebaaedce6af48a03bbfd25e8cd036414184115b8061015057507ffffffffffffffffffffffffffffffffebaaedce6af48a03bbfd25e8cd036414185115b8061015b5750600084145b806101665750600085145b80610174575060018660ff16115b15610186576000809250925050610474565b60006101b2867ffffffffffffffffffffffffffffffffebaaedce6af48a03bbfd25e8cd036414161047d565b905060007ffffffffffffffffffffffffffffffffffffffffffffffffffffffffefffffc2f806101e5576101e4611969565b5b7ffffffffffffffffffffffffffffffffffffffffffffffffffffffffefffffc2f8061021457610213611969565b5b60077ffffffffffffffffffffffffffffffffffffffffffffffffffffffffefffffc2f8061024557610244611969565b5b60008709087ffffffffffffffffffffffffffffffffffffffffffffffffffffffffefffffc2f8061027957610278611969565b5b7ffffffffffffffffffffffffffffffffffffffffffffffffffffffffefffffc2f806102a8576102a7611969565b5b86870986090890506102f281600460017ffffffffffffffffffffffffffffffffffffffffffffffffffffffffefffffc2f6102e39190611a09565b6102ed9190611a3d565b610569565b9050600080600160028b60ff168561030a9190611a09565b6103149190611a09565b161461034b57817ffffffffffffffffffffffffffffffffffffffffffffffffffffffffefffffc2f6103469190611a6e565b61034d565b815b905060008060006103fd7ffffffffffffffffffffffffffffffffebaaedce6af48a03bbfd25e8cd03641418061038657610385611969565b5b8e7ffffffffffffffffffffffffffffffffebaaedce6af48a03bbfd25e8cd03641416103b29190611a6e565b88097f79be667ef9dcbbac55a06295ce870b07029bfcdb2dce28d959f2815b16f817987f483ada7726a3c4655da4fbfc0e1108a8fd17b448a68554199c47d08ffb10d4b8600161071d565b92509250925060008060006104467ffffffffffffffffffffffffffffffffebaaedce6af48a03bbfd25e8cd03641418061043a57610439611969565b5b8e8b098b89600161071d565b92509250925060008061045d8888888888886107b7565b9150915081819d509d505050505050505050505050505b94509492505050565b600080831415801561048f5750818314155b801561049c575060008214155b6104db576040517f08c379a00000000000000000000000000000000000000000000000000000000081526004016104d290611aff565b60405180910390fd5b60008060019050600084905060005b6000871461055c5786826104fe9190611a3d565b90508286806105105761050f611969565b5b878061051f5761051e611969565b5b8584098861052d9190611a6e565b8608809450819550505086878261054491906119c7565b8361054f9190611a6e565b80985081935050506104ea565b8394505050505092915050565b600080830361057b5760009050610717565b6000820361058c5760019050610717565b60006001905060007f800000000000000000000000000000000000000000000000000000000000000090505b6000811115610711577ffffffffffffffffffffffffffffffffffffffffffffffffffffffffefffffc2f8185161515860a7ffffffffffffffffffffffffffffffffffffffffffffffffffffffffefffffc2f8485090991507ffffffffffffffffffffffffffffffffffffffffffffffffffffffffefffffc2f6002820485161515860a7ffffffffffffffffffffffffffffffffffffffffffffffffffffffffefffffc2f8485090991507ffffffffffffffffffffffffffffffffffffffffffffffffffffffffefffffc2f6004820485161515860a7ffffffffffffffffffffffffffffffffffffffffffffffffffffffffefffffc2f8485090991507ffffffffffffffffffffffffffffffffffffffffffffffffffffffffefffffc2f6008820485161515860a7ffffffffffffffffffffffffffffffffffffffffffffffffffffffffefffffc2f8485090991506010810490506105b8565b81925050505b92915050565b6000806000808703610737578585859250925092506107ad565b60008790506000806000600190505b6000841461079f5760006001851614610774576107678383838d8d8d610863565b8093508194508295505050505b6002846107819190611a3d565b935061078e8a8a8a6112a1565b809a50819b50829c50505050610746565b828282965096509650505050505b9450945094915050565b6000806000806000878b0361082a5760007ffffffffffffffffffffffffffffffffffffffffffffffffffffffffefffffc2f806107f7576107f6611969565b5b888c080361080e5760008094509450505050610858565b6108198b8b8b6112a1565b809350819450829550505050610845565b6108388b8b8b8b8b8b610863565b8093508194508295505050505b61085083838361171e565b945094505050505b965096945050505050565b600080600080891480156108775750600088145b1561088a57858585925092509250611295565b60008614801561089a5750600085145b156108ad57888888925092509250611295565b6108b5611834565b7ffffffffffffffffffffffffffffffffffffffffffffffffffffffffefffffc2f806108e4576108e3611969565b5b888909816000600481106108fb576108fa611b1f565b5b6020020181815250507ffffffffffffffffffffffffffffffffffffffffffffffffffffffffefffffc2f8061093357610932611969565b5b8160006004811061094757610946611b1f565b5b602002015189098160016004811061096257610961611b1f565b5b6020020181815250507ffffffffffffffffffffffffffffffffffffffffffffffffffffffffefffffc2f8061099a57610999611969565b5b858609816002600481106109b1576109b0611b1f565b5b6020020181815250507ffffffffffffffffffffffffffffffffffffffffffffffffffffffffefffffc2f806109e9576109e8611969565b5b816002600481106109fd576109fc611b1f565b5b6020020151860981600360048110610a1857610a17611b1f565b5b60200201818152505060405180608001604052807ffffffffffffffffffffffffffffffffffffffffffffffffffffffffefffffc2f80610a5b57610a5a611969565b5b83600260048110610a6f57610a6e611b1f565b5b60200201518d0981526020017ffffffffffffffffffffffffffffffffffffffffffffffffffffffffefffffc2f80610aaa57610aa9611969565b5b83600360048110610abe57610abd611b1f565b5b60200201518c0981526020017ffffffffffffffffffffffffffffffffffffffffffffffffffffffffefffffc2f80610af957610af8611969565b5b83600060048110610b0d57610b0c611b1f565b5b60200201518a0981526020017ffffffffffffffffffffffffffffffffffffffffffffffffffffffffefffffc2f80610b4857610b47611969565b5b83600160048110610b5c57610b5b611b1f565b5b60200201518909815250905080600260048110610b7c57610b7b611b1f565b5b602002015181600060048110610b9557610b94611b1f565b5b6020020151141580610bd7575080600360048110610bb657610bb5611b1f565b5b602002015181600160048110610bcf57610bce611b1f565b5b602002015114155b610c16576040517f08c379a0000000000000000000000000000000000000000000000000000000008152600401610c0d90611b9a565b60405180910390fd5b610c1e611834565b7ffffffffffffffffffffffffffffffffffffffffffffffffffffffffefffffc2f80610c4d57610c4c611969565b5b82600060048110610c6157610c60611b1f565b5b60200201517ffffffffffffffffffffffffffffffffffffffffffffffffffffffffefffffc2f610c919190611a6e565b83600260048110610ca557610ca4611b1f565b5b60200201510881600060048110610cbf57610cbe611b1f565b5b6020020181815250507ffffffffffffffffffffffffffffffffffffffffffffffffffffffffefffffc2f80610cf757610cf6611969565b5b82600160048110610d0b57610d0a611b1f565b5b60200201517ffffffffffffffffffffffffffffffffffffffffffffffffffffffffefffffc2f610d3b9190611a6e565b83600360048110610d4f57610d4e611b1f565b5b60200201510881600160048110610d6957610d68611b1f565b5b6020020181815250507ffffffffffffffffffffffffffffffffffffffffffffffffffffffffefffffc2f80610da157610da0611969565b5b81600060048110610db557610db4611b1f565b5b602002015182600060048110610dce57610dcd611b1f565b5b60200201510981600260048110610de857610de7611b1f565b5b6020020181815250507ffffffffffffffffffffffffffffffffffffffffffffffffffffffffefffffc2f80610e2057610e1f611969565b5b81600060048110610e3457610e33611b1f565b5b602002015182600260048110610e4d57610e4c611b1f565b5b60200201510981600360048110610e6757610e66611b1f565b5b60200201818152505060007ffffffffffffffffffffffffffffffffffffffffffffffffffffffffefffffc2f80610ea157610ea0611969565b5b82600360048110610eb557610eb4611b1f565b5b60200201517ffffffffffffffffffffffffffffffffffffffffffffffffffffffffefffffc2f610ee59190611a6e565b7ffffffffffffffffffffffffffffffffffffffffffffffffffffffffefffffc2f80610f1457610f13611969565b5b84600160048110610f2857610f27611b1f565b5b602002015185600160048110610f4157610f40611b1f565b5b6020020151090890507ffffffffffffffffffffffffffffffffffffffffffffffffffffffffefffffc2f80610f7957610f78611969565b5b7ffffffffffffffffffffffffffffffffffffffffffffffffffffffffefffffc2f80610fa857610fa7611969565b5b7ffffffffffffffffffffffffffffffffffffffffffffffffffffffffefffffc2f80610fd757610fd6611969565b5b84600260048110610feb57610fea611b1f565b5b60200201518660006004811061100457611003611b1f565b5b6020020151096002097ffffffffffffffffffffffffffffffffffffffffffffffffffffffffefffffc2f6110389190611a6e565b8208905060007ffffffffffffffffffffffffffffffffffffffffffffffffffffffffefffffc2f8061106d5761106c611969565b5b7ffffffffffffffffffffffffffffffffffffffffffffffffffffffffefffffc2f8061109c5761109b611969565b5b837ffffffffffffffffffffffffffffffffffffffffffffffffffffffffefffffc2f6110c89190611a6e565b7ffffffffffffffffffffffffffffffffffffffffffffffffffffffffefffffc2f806110f7576110f6611969565b5b8660026004811061110b5761110a611b1f565b5b60200201518860006004811061112457611123611b1f565b5b602002015109088460016004811061113f5761113e611b1f565b5b60200201510990507ffffffffffffffffffffffffffffffffffffffffffffffffffffffffefffffc2f8061117657611175611969565b5b7ffffffffffffffffffffffffffffffffffffffffffffffffffffffffefffffc2f806111a5576111a4611969565b5b846003600481106111b9576111b8611b1f565b5b6020020151866001600481106111d2576111d1611b1f565b5b6020020151097ffffffffffffffffffffffffffffffffffffffffffffffffffffffffefffffc2f6112039190611a6e565b8208905060007ffffffffffffffffffffffffffffffffffffffffffffffffffffffffefffffc2f8061123857611237611969565b5b7ffffffffffffffffffffffffffffffffffffffffffffffffffffffffefffffc2f8061126757611266611969565b5b8a8e098560006004811061127e5761127d611b1f565b5b602002015109905082828297509750975050505050505b96509650969350505050565b60008060008084036112bb57858585925092509250611715565b60007ffffffffffffffffffffffffffffffffffffffffffffffffffffffffefffffc2f806112ec576112eb611969565b5b878809905060007ffffffffffffffffffffffffffffffffffffffffffffffffffffffffefffffc2f8061132257611321611969565b5b878809905060007ffffffffffffffffffffffffffffffffffffffffffffffffffffffffefffffc2f8061135857611357611969565b5b878809905060007ffffffffffffffffffffffffffffffffffffffffffffffffffffffffefffffc2f8061138e5761138d611969565b5b7ffffffffffffffffffffffffffffffffffffffffffffffffffffffffefffffc2f806113bd576113bc611969565b5b848c09600409905060007ffffffffffffffffffffffffffffffffffffffffffffffffffffffffefffffc2f806113f6576113f5611969565b5b7ffffffffffffffffffffffffffffffffffffffffffffffffffffffffefffffc2f8061142557611424611969565b5b7ffffffffffffffffffffffffffffffffffffffffffffffffffffffffefffffc2f8061145457611453611969565b5b8586096000097ffffffffffffffffffffffffffffffffffffffffffffffffffffffffefffffc2f8061148957611488611969565b5b876003090890507ffffffffffffffffffffffffffffffffffffffffffffffffffffffffefffffc2f806114bf576114be611969565b5b7ffffffffffffffffffffffffffffffffffffffffffffffffffffffffefffffc2f806114ee576114ed611969565b5b8384087ffffffffffffffffffffffffffffffffffffffffffffffffffffffffefffffc2f61151c9190611a6e565b7ffffffffffffffffffffffffffffffffffffffffffffffffffffffffefffffc2f8061154b5761154a611969565b5b8384090894507ffffffffffffffffffffffffffffffffffffffffffffffffffffffffefffffc2f806115805761157f611969565b5b7ffffffffffffffffffffffffffffffffffffffffffffffffffffffffefffffc2f806115af576115ae611969565b5b7ffffffffffffffffffffffffffffffffffffffffffffffffffffffffefffffc2f806115de576115dd611969565b5b8687096008097ffffffffffffffffffffffffffffffffffffffffffffffffffffffffefffffc2f61160f9190611a6e565b7ffffffffffffffffffffffffffffffffffffffffffffffffffffffffefffffc2f8061163e5761163d611969565b5b7ffffffffffffffffffffffffffffffffffffffffffffffffffffffffefffffc2f8061166d5761166c611969565b5b887ffffffffffffffffffffffffffffffffffffffffffffffffffffffffefffffc2f6116999190611a6e565b860884090893507ffffffffffffffffffffffffffffffffffffffffffffffffffffffffefffffc2f806116cf576116ce611969565b5b7ffffffffffffffffffffffffffffffffffffffffffffffffffffffffefffffc2f806116fe576116fd611969565b5b8a8c09600209925084848497509750975050505050505b93509350939050565b600080600061174d847ffffffffffffffffffffffffffffffffffffffffffffffffffffffffefffffc2f61047d565b905060007ffffffffffffffffffffffffffffffffffffffffffffffffffffffffefffffc2f806117805761177f611969565b5b828309905060007ffffffffffffffffffffffffffffffffffffffffffffffffffffffffefffffc2f806117b6576117b5611969565b5b828909905060007ffffffffffffffffffffffffffffffffffffffffffffffffffffffffefffffc2f806117ec576117eb611969565b5b7ffffffffffffffffffffffffffffffffffffffffffffffffffffffffefffffc2f8061181b5761181a611969565b5b8486098909905081819550955050505050935093915050565b6040518060800160405280600490602082028036833780820191505090505090565b600080fd5b6000819050919050565b61186e8161185b565b811461187957600080fd5b50565b60008135905061188b81611865565b92915050565b600060ff82169050919050565b6118a781611891565b81146118b257600080fd5b50565b6000813590506118c48161189e565b92915050565b600080600080608085870312156118e4576118e3611856565b5b60006118f28782880161187c565b9450506020611903878288016118b5565b93505060406119148782880161187c565b92505060606119258782880161187c565b91505092959194509250565b61193a8161185b565b82525050565b60006040820190506119556000830185611931565b6119626020830184611931565b9392505050565b7f4e487b7100000000000000000000000000000000000000000000000000000000600052601260045260246000fd5b7f4e487b7100000000000000000000000000000000000000000000000000000000600052601160045260246000fd5b60006119d28261185b565b91506119dd8361185b565b92508282026119eb8161185b565b91508282048414831517611a0257611a01611998565b5b5092915050565b6000611a148261185b565b9150611a1f8361185b565b9250828201905080821115611a3757611a36611998565b5b92915050565b6000611a488261185b565b9150611a538361185b565b925082611a6357611a62611969565b5b828204905092915050565b6000611a798261185b565b9150611a848361185b565b9250828203905081811115611a9c57611a9b611998565b5b92915050565b600082825260208201905092915050565b7f496e76616c6964206e756d626572000000000000000000000000000000000000600082015250565b6000611ae9600e83611aa2565b9150611af482611ab3565b602082019050919050565b60006020820190508181036000830152611b1881611adc565b9050919050565b7f4e487b7100000000000000000000000000000000000000000000000000000000600052603260045260246000fd5b7f557365206a6163446f75626c652066756e6374696f6e20696e73746561640000600082015250565b6000611b84601e83611aa2565b9150611b8f82611b4e565b602082019050919050565b60006020820190508181036000830152611bb381611b77565b905091905056fea2646970667358221220a091bc0f011fad588e4ee9cf31e5817aff3596ac631f28c7108c5c709145cf3564736f6c63430008180033","opcodes":"PUSH2 0x1BF0 PUSH2 0x53 PUSH1 0xB DUP3 DUP3 DUP3 CODECOPY DUP1 MLOAD PUSH1 0x0 BYTE PUSH1 0x73 EQ PUSH2 0x46 JUMPI PUSH32 0x4E487B7100000000000000000000000000000000000000000000000000000000 PUSH1 0x0 MSTORE PUSH1 0x0 PUSH1 0x4 MSTORE PUSH1 0x24 PUSH1 0x0 REVERT JUMPDEST ADDRESS PUSH1 0x0 MSTORE PUSH1 0x73 DUP2 MSTORE8 DUP3 DUP2 RETURN INVALID PUSH20 0x0 ADDRESS EQ PUSH1 0x80 PUSH1 0x40 MSTORE PUSH1 0x4 CALLDATASIZE LT PUSH2 0x35 JUMPI PUSH1 0x0 CALLDATALOAD PUSH1 0xE0 SHR DUP1 PUSH4 0x4828F4A2 EQ PUSH2 0x3A JUMPI JUMPDEST PUSH1 0x0 DUP1 REVERT JUMPDEST PUSH2 0x54 PUSH1 0x4 DUP1 CALLDATASIZE SUB DUP2 ADD SWAP1 PUSH2 0x4F SWAP2 SWAP1 PUSH2 0x18CA JUMP JUMPDEST PUSH2 0x6B JUMP JUMPDEST PUSH1 0x40 MLOAD PUSH2 0x62 SWAP3 SWAP2 SWAP1 PUSH2 0x1940 JUMP JUMPDEST PUSH1 0x40 MLOAD DUP1 SWAP2 SUB SWAP1 RETURN JUMPDEST PUSH1 0x0 DUP1 PUSH1 0x0 PUSH32 0xFFFFFFFFFFFFFFFFFFFFFFFFFFFFFFFFFFFFFFFFFFFFFFFFFFFFFFFEFFFFFC2F DUP1 PUSH2 0x9F JUMPI PUSH2 0x9E PUSH2 0x1969 JUMP JUMPDEST JUMPDEST PUSH1 0x1 DUP8 PUSH1 0xFF AND SWAP1 SHR PUSH1 0xFF AND PUSH32 0xFFFFFFFFFFFFFFFFFFFFFFFFFFFFFFFFFFFFFFFFFFFFFFFFFFFFFFFEFFFFFC2F PUSH2 0xD5 SWAP2 SWAP1 PUSH2 0x19C7 JUMP JUMPDEST DUP7 ADDMOD SWAP1 POP PUSH32 0xFFFFFFFFFFFFFFFFFFFFFFFFFFFFFFFFFFFFFFFFFFFFFFFFFFFFFFFEFFFFFC2F DUP2 GT DUP1 PUSH2 0x126 JUMPI POP PUSH32 0xFFFFFFFFFFFFFFFFFFFFFFFFFFFFFFFEBAAEDCE6AF48A03BBFD25E8CD0364141 DUP5 GT JUMPDEST DUP1 PUSH2 0x150 JUMPI POP PUSH32 0xFFFFFFFFFFFFFFFFFFFFFFFFFFFFFFFEBAAEDCE6AF48A03BBFD25E8CD0364141 DUP6 GT JUMPDEST DUP1 PUSH2 0x15B JUMPI POP PUSH1 0x0 DUP5 EQ JUMPDEST DUP1 PUSH2 0x166 JUMPI POP PUSH1 0x0 DUP6 EQ JUMPDEST DUP1 PUSH2 0x174 JUMPI POP PUSH1 0x1 DUP7 PUSH1 0xFF AND GT JUMPDEST ISZERO PUSH2 0x186 JUMPI PUSH1 0x0 DUP1 SWAP3 POP SWAP3 POP POP PUSH2 0x474 JUMP JUMPDEST PUSH1 0x0 PUSH2 0x1B2 DUP7 PUSH32 0xFFFFFFFFFFFFFFFFFFFFFFFFFFFFFFFEBAAEDCE6AF48A03BBFD25E8CD0364141 PUSH2 0x47D JUMP JUMPDEST SWAP1 POP PUSH1 0x0 PUSH32 0xFFFFFFFFFFFFFFFFFFFFFFFFFFFFFFFFFFFFFFFFFFFFFFFFFFFFFFFEFFFFFC2F DUP1 PUSH2 0x1E5 JUMPI PUSH2 0x1E4 PUSH2 0x1969 JUMP JUMPDEST JUMPDEST PUSH32 0xFFFFFFFFFFFFFFFFFFFFFFFFFFFFFFFFFFFFFFFFFFFFFFFFFFFFFFFEFFFFFC2F DUP1 PUSH2 0x214 JUMPI PUSH2 0x213 PUSH2 0x1969 JUMP JUMPDEST JUMPDEST PUSH1 0x7 PUSH32 0xFFFFFFFFFFFFFFFFFFFFFFFFFFFFFFFFFFFFFFFFFFFFFFFFFFFFFFFEFFFFFC2F DUP1 PUSH2 0x245 JUMPI PUSH2 0x244 PUSH2 0x1969 JUMP JUMPDEST JUMPDEST PUSH1 0x0 DUP8 MULMOD ADDMOD PUSH32 0xFFFFFFFFFFFFFFFFFFFFFFFFFFFFFFFFFFFFFFFFFFFFFFFFFFFFFFFEFFFFFC2F DUP1 PUSH2 0x279 JUMPI PUSH2 0x278 PUSH2 0x1969 JUMP JUMPDEST JUMPDEST PUSH32 0xFFFFFFFFFFFFFFFFFFFFFFFFFFFFFFFFFFFFFFFFFFFFFFFFFFFFFFFEFFFFFC2F DUP1 PUSH2 0x2A8 JUMPI PUSH2 0x2A7 PUSH2 0x1969 JUMP JUMPDEST JUMPDEST DUP7 DUP8 MULMOD DUP7 MULMOD ADDMOD SWAP1 POP PUSH2 0x2F2 DUP2 PUSH1 0x4 PUSH1 0x1 PUSH32 0xFFFFFFFFFFFFFFFFFFFFFFFFFFFFFFFFFFFFFFFFFFFFFFFFFFFFFFFEFFFFFC2F PUSH2 0x2E3 SWAP2 SWAP1 PUSH2 0x1A09 JUMP JUMPDEST PUSH2 0x2ED SWAP2 SWAP1 PUSH2 0x1A3D JUMP JUMPDEST PUSH2 0x569 JUMP JUMPDEST SWAP1 POP PUSH1 0x0 DUP1 PUSH1 0x1 PUSH1 0x2 DUP12 PUSH1 0xFF AND DUP6 PUSH2 0x30A SWAP2 SWAP1 PUSH2 0x1A09 JUMP JUMPDEST PUSH2 0x314 SWAP2 SWAP1 PUSH2 0x1A09 JUMP JUMPDEST AND EQ PUSH2 0x34B JUMPI DUP2 PUSH32 0xFFFFFFFFFFFFFFFFFFFFFFFFFFFFFFFFFFFFFFFFFFFFFFFFFFFFFFFEFFFFFC2F PUSH2 0x346 SWAP2 SWAP1 PUSH2 0x1A6E JUMP JUMPDEST PUSH2 0x34D JUMP JUMPDEST DUP2 JUMPDEST SWAP1 POP PUSH1 0x0 DUP1 PUSH1 0x0 PUSH2 0x3FD PUSH32 0xFFFFFFFFFFFFFFFFFFFFFFFFFFFFFFFEBAAEDCE6AF48A03BBFD25E8CD0364141 DUP1 PUSH2 0x386 JUMPI PUSH2 0x385 PUSH2 0x1969 JUMP JUMPDEST JUMPDEST DUP15 PUSH32 0xFFFFFFFFFFFFFFFFFFFFFFFFFFFFFFFEBAAEDCE6AF48A03BBFD25E8CD0364141 PUSH2 0x3B2 SWAP2 SWAP1 PUSH2 0x1A6E JUMP JUMPDEST DUP9 MULMOD PUSH32 0x79BE667EF9DCBBAC55A06295CE870B07029BFCDB2DCE28D959F2815B16F81798 PUSH32 0x483ADA7726A3C4655DA4FBFC0E1108A8FD17B448A68554199C47D08FFB10D4B8 PUSH1 0x1 PUSH2 0x71D JUMP JUMPDEST SWAP3 POP SWAP3 POP SWAP3 POP PUSH1 0x0 DUP1 PUSH1 0x0 PUSH2 0x446 PUSH32 0xFFFFFFFFFFFFFFFFFFFFFFFFFFFFFFFEBAAEDCE6AF48A03BBFD25E8CD0364141 DUP1 PUSH2 0x43A JUMPI PUSH2 0x439 PUSH2 0x1969 JUMP JUMPDEST JUMPDEST DUP15 DUP12 MULMOD DUP12 DUP10 PUSH1 0x1 PUSH2 0x71D JUMP JUMPDEST SWAP3 POP SWAP3 POP SWAP3 POP PUSH1 0x0 DUP1 PUSH2 0x45D DUP9 DUP9 DUP9 DUP9 DUP9 DUP9 PUSH2 0x7B7 JUMP JUMPDEST SWAP2 POP SWAP2 POP DUP2 DUP2 SWAP14 POP SWAP14 POP POP POP POP POP POP POP POP POP POP POP POP POP JUMPDEST SWAP5 POP SWAP5 SWAP3 POP POP POP JUMP JUMPDEST PUSH1 0x0 DUP1 DUP4 EQ ISZERO DUP1 ISZERO PUSH2 0x48F JUMPI POP DUP2 DUP4 EQ ISZERO JUMPDEST DUP1 ISZERO PUSH2 0x49C JUMPI POP PUSH1 0x0 DUP3 EQ ISZERO JUMPDEST PUSH2 0x4DB JUMPI PUSH1 0x40 MLOAD PUSH32 0x8C379A000000000000000000000000000000000000000000000000000000000 DUP2 MSTORE PUSH1 0x4 ADD PUSH2 0x4D2 SWAP1 PUSH2 0x1AFF JUMP JUMPDEST PUSH1 0x40 MLOAD DUP1 SWAP2 SUB SWAP1 REVERT JUMPDEST PUSH1 0x0 DUP1 PUSH1 0x1 SWAP1 POP PUSH1 0x0 DUP5 SWAP1 POP PUSH1 0x0 JUMPDEST PUSH1 0x0 DUP8 EQ PUSH2 0x55C JUMPI DUP7 DUP3 PUSH2 0x4FE SWAP2 SWAP1 PUSH2 0x1A3D JUMP JUMPDEST SWAP1 POP DUP3 DUP7 DUP1 PUSH2 0x510 JUMPI PUSH2 0x50F PUSH2 0x1969 JUMP JUMPDEST JUMPDEST DUP8 DUP1 PUSH2 0x51F JUMPI PUSH2 0x51E PUSH2 0x1969 JUMP JUMPDEST JUMPDEST DUP6 DUP5 MULMOD DUP9 PUSH2 0x52D SWAP2 SWAP1 PUSH2 0x1A6E JUMP JUMPDEST DUP7 ADDMOD DUP1 SWAP5 POP DUP2 SWAP6 POP POP POP DUP7 DUP8 DUP3 PUSH2 0x544 SWAP2 SWAP1 PUSH2 0x19C7 JUMP JUMPDEST DUP4 PUSH2 0x54F SWAP2 SWAP1 PUSH2 0x1A6E JUMP JUMPDEST DUP1 SWAP9 POP DUP2 SWAP4 POP POP POP PUSH2 0x4EA JUMP JUMPDEST DUP4 SWAP5 POP POP POP POP POP SWAP3 SWAP2 POP POP JUMP JUMPDEST PUSH1 0x0 DUP1 DUP4 SUB PUSH2 0x57B JUMPI PUSH1 0x0 SWAP1 POP PUSH2 0x717 JUMP JUMPDEST PUSH1 0x0 DUP3 SUB PUSH2 0x58C JUMPI PUSH1 0x1 SWAP1 POP PUSH2 0x717 JUMP JUMPDEST PUSH1 0x0 PUSH1 0x1 SWAP1 POP PUSH1 0x0 PUSH32 0x8000000000000000000000000000000000000000000000000000000000000000 SWAP1 POP JUMPDEST PUSH1 0x0 DUP2 GT ISZERO PUSH2 0x711 JUMPI PUSH32 0xFFFFFFFFFFFFFFFFFFFFFFFFFFFFFFFFFFFFFFFFFFFFFFFFFFFFFFFEFFFFFC2F DUP2 DUP6 AND ISZERO ISZERO DUP7 EXP PUSH32 0xFFFFFFFFFFFFFFFFFFFFFFFFFFFFFFFFFFFFFFFFFFFFFFFFFFFFFFFEFFFFFC2F DUP5 DUP6 MULMOD MULMOD SWAP2 POP PUSH32 0xFFFFFFFFFFFFFFFFFFFFFFFFFFFFFFFFFFFFFFFFFFFFFFFFFFFFFFFEFFFFFC2F PUSH1 0x2 DUP3 DIV DUP6 AND ISZERO ISZERO DUP7 EXP PUSH32 0xFFFFFFFFFFFFFFFFFFFFFFFFFFFFFFFFFFFFFFFFFFFFFFFFFFFFFFFEFFFFFC2F DUP5 DUP6 MULMOD MULMOD SWAP2 POP PUSH32 0xFFFFFFFFFFFFFFFFFFFFFFFFFFFFFFFFFFFFFFFFFFFFFFFFFFFFFFFEFFFFFC2F PUSH1 0x4 DUP3 DIV DUP6 AND ISZERO ISZERO DUP7 EXP PUSH32 0xFFFFFFFFFFFFFFFFFFFFFFFFFFFFFFFFFFFFFFFFFFFFFFFFFFFFFFFEFFFFFC2F DUP5 DUP6 MULMOD MULMOD SWAP2 POP PUSH32 0xFFFFFFFFFFFFFFFFFFFFFFFFFFFFFFFFFFFFFFFFFFFFFFFFFFFFFFFEFFFFFC2F PUSH1 0x8 DUP3 DIV DUP6 AND ISZERO ISZERO DUP7 EXP PUSH32 0xFFFFFFFFFFFFFFFFFFFFFFFFFFFFFFFFFFFFFFFFFFFFFFFFFFFFFFFEFFFFFC2F DUP5 DUP6 MULMOD MULMOD SWAP2 POP PUSH1 0x10 DUP2 DIV SWAP1 POP PUSH2 0x5B8 JUMP JUMPDEST DUP2 SWAP3 POP POP POP JUMPDEST SWAP3 SWAP2 POP POP JUMP JUMPDEST PUSH1 0x0 DUP1 PUSH1 0x0 DUP1 DUP8 SUB PUSH2 0x737 JUMPI DUP6 DUP6 DUP6 SWAP3 POP SWAP3 POP SWAP3 POP PUSH2 0x7AD JUMP JUMPDEST PUSH1 0x0 DUP8 SWAP1 POP PUSH1 0x0 DUP1 PUSH1 0x0 PUSH1 0x1 SWAP1 POP JUMPDEST PUSH1 0x0 DUP5 EQ PUSH2 0x79F JUMPI PUSH1 0x0 PUSH1 0x1 DUP6 AND EQ PUSH2 0x774 JUMPI PUSH2 0x767 DUP4 DUP4 DUP4 DUP14 DUP14 DUP14 PUSH2 0x863 JUMP JUMPDEST DUP1 SWAP4 POP DUP2 SWAP5 POP DUP3 SWAP6 POP POP POP POP JUMPDEST PUSH1 0x2 DUP5 PUSH2 0x781 SWAP2 SWAP1 PUSH2 0x1A3D JUMP JUMPDEST SWAP4 POP PUSH2 0x78E DUP11 DUP11 DUP11 PUSH2 0x12A1 JUMP JUMPDEST DUP1 SWAP11 POP DUP2 SWAP12 POP DUP3 SWAP13 POP POP POP POP PUSH2 0x746 JUMP JUMPDEST DUP3 DUP3 DUP3 SWAP7 POP SWAP7 POP SWAP7 POP POP POP POP POP JUMPDEST SWAP5 POP SWAP5 POP SWAP5 SWAP2 POP POP JUMP JUMPDEST PUSH1 0x0 DUP1 PUSH1 0x0 DUP1 PUSH1 0x0 DUP8 DUP12 SUB PUSH2 0x82A JUMPI PUSH1 0x0 PUSH32 0xFFFFFFFFFFFFFFFFFFFFFFFFFFFFFFFFFFFFFFFFFFFFFFFFFFFFFFFEFFFFFC2F DUP1 PUSH2 0x7F7 JUMPI PUSH2 0x7F6 PUSH2 0x1969 JUMP JUMPDEST JUMPDEST DUP9 DUP13 ADDMOD SUB PUSH2 0x80E JUMPI PUSH1 0x0 DUP1 SWAP5 POP SWAP5 POP POP POP POP PUSH2 0x858 JUMP JUMPDEST PUSH2 0x819 DUP12 DUP12 DUP12 PUSH2 0x12A1 JUMP JUMPDEST DUP1 SWAP4 POP DUP2 SWAP5 POP DUP3 SWAP6 POP POP POP POP PUSH2 0x845 JUMP JUMPDEST PUSH2 0x838 DUP12 DUP12 DUP12 DUP12 DUP12 DUP12 PUSH2 0x863 JUMP JUMPDEST DUP1 SWAP4 POP DUP2 SWAP5 POP DUP3 SWAP6 POP POP POP POP JUMPDEST PUSH2 0x850 DUP4 DUP4 DUP4 PUSH2 0x171E JUMP JUMPDEST SWAP5 POP SWAP5 POP POP POP POP JUMPDEST SWAP7 POP SWAP7 SWAP5 POP POP POP POP POP JUMP JUMPDEST PUSH1 0x0 DUP1 PUSH1 0x0 DUP1 DUP10 EQ DUP1 ISZERO PUSH2 0x877 JUMPI POP PUSH1 0x0 DUP9 EQ JUMPDEST ISZERO PUSH2 0x88A JUMPI DUP6 DUP6 DUP6 SWAP3 POP SWAP3 POP SWAP3 POP PUSH2 0x1295 JUMP JUMPDEST PUSH1 0x0 DUP7 EQ DUP1 ISZERO PUSH2 0x89A JUMPI POP PUSH1 0x0 DUP6 EQ JUMPDEST ISZERO PUSH2 0x8AD JUMPI DUP9 DUP9 DUP9 SWAP3 POP SWAP3 POP SWAP3 POP PUSH2 0x1295 JUMP JUMPDEST PUSH2 0x8B5 PUSH2 0x1834 JUMP JUMPDEST PUSH32 0xFFFFFFFFFFFFFFFFFFFFFFFFFFFFFFFFFFFFFFFFFFFFFFFFFFFFFFFEFFFFFC2F DUP1 PUSH2 0x8E4 JUMPI PUSH2 0x8E3 PUSH2 0x1969 JUMP JUMPDEST JUMPDEST DUP9 DUP10 MULMOD DUP2 PUSH1 0x0 PUSH1 0x4 DUP2 LT PUSH2 0x8FB JUMPI PUSH2 0x8FA PUSH2 0x1B1F JUMP JUMPDEST JUMPDEST PUSH1 0x20 MUL ADD DUP2 DUP2 MSTORE POP POP PUSH32 0xFFFFFFFFFFFFFFFFFFFFFFFFFFFFFFFFFFFFFFFFFFFFFFFFFFFFFFFEFFFFFC2F DUP1 PUSH2 0x933 JUMPI PUSH2 0x932 PUSH2 0x1969 JUMP JUMPDEST JUMPDEST DUP2 PUSH1 0x0 PUSH1 0x4 DUP2 LT PUSH2 0x947 JUMPI PUSH2 0x946 PUSH2 0x1B1F JUMP JUMPDEST JUMPDEST PUSH1 0x20 MUL ADD MLOAD DUP10 MULMOD DUP2 PUSH1 0x1 PUSH1 0x4 DUP2 LT PUSH2 0x962 JUMPI PUSH2 0x961 PUSH2 0x1B1F JUMP JUMPDEST JUMPDEST PUSH1 0x20 MUL ADD DUP2 DUP2 MSTORE POP POP PUSH32 0xFFFFFFFFFFFFFFFFFFFFFFFFFFFFFFFFFFFFFFFFFFFFFFFFFFFFFFFEFFFFFC2F DUP1 PUSH2 0x99A JUMPI PUSH2 0x999 PUSH2 0x1969 JUMP JUMPDEST JUMPDEST DUP6 DUP7 MULMOD DUP2 PUSH1 0x2 PUSH1 0x4 DUP2 LT PUSH2 0x9B1 JUMPI PUSH2 0x9B0 PUSH2 0x1B1F JUMP JUMPDEST JUMPDEST PUSH1 0x20 MUL ADD DUP2 DUP2 MSTORE POP POP PUSH32 0xFFFFFFFFFFFFFFFFFFFFFFFFFFFFFFFFFFFFFFFFFFFFFFFFFFFFFFFEFFFFFC2F DUP1 PUSH2 0x9E9 JUMPI PUSH2 0x9E8 PUSH2 0x1969 JUMP JUMPDEST JUMPDEST DUP2 PUSH1 0x2 PUSH1 0x4 DUP2 LT PUSH2 0x9FD JUMPI PUSH2 0x9FC PUSH2 0x1B1F JUMP JUMPDEST JUMPDEST PUSH1 0x20 MUL ADD MLOAD DUP7 MULMOD DUP2 PUSH1 0x3 PUSH1 0x4 DUP2 LT PUSH2 0xA18 JUMPI PUSH2 0xA17 PUSH2 0x1B1F JUMP JUMPDEST JUMPDEST PUSH1 0x20 MUL ADD DUP2 DUP2 MSTORE POP POP PUSH1 0x40 MLOAD DUP1 PUSH1 0x80 ADD PUSH1 0x40 MSTORE DUP1 PUSH32 0xFFFFFFFFFFFFFFFFFFFFFFFFFFFFFFFFFFFFFFFFFFFFFFFFFFFFFFFEFFFFFC2F DUP1 PUSH2 0xA5B JUMPI PUSH2 0xA5A PUSH2 0x1969 JUMP JUMPDEST JUMPDEST DUP4 PUSH1 0x2 PUSH1 0x4 DUP2 LT PUSH2 0xA6F JUMPI PUSH2 0xA6E PUSH2 0x1B1F JUMP JUMPDEST JUMPDEST PUSH1 0x20 MUL ADD MLOAD DUP14 MULMOD DUP2 MSTORE PUSH1 0x20 ADD PUSH32 0xFFFFFFFFFFFFFFFFFFFFFFFFFFFFFFFFFFFFFFFFFFFFFFFFFFFFFFFEFFFFFC2F DUP1 PUSH2 0xAAA JUMPI PUSH2 0xAA9 PUSH2 0x1969 JUMP JUMPDEST JUMPDEST DUP4 PUSH1 0x3 PUSH1 0x4 DUP2 LT PUSH2 0xABE JUMPI PUSH2 0xABD PUSH2 0x1B1F JUMP JUMPDEST JUMPDEST PUSH1 0x20 MUL ADD MLOAD DUP13 MULMOD DUP2 MSTORE PUSH1 0x20 ADD PUSH32 0xFFFFFFFFFFFFFFFFFFFFFFFFFFFFFFFFFFFFFFFFFFFFFFFFFFFFFFFEFFFFFC2F DUP1 PUSH2 0xAF9 JUMPI PUSH2 0xAF8 PUSH2 0x1969 JUMP JUMPDEST JUMPDEST DUP4 PUSH1 0x0 PUSH1 0x4 DUP2 LT PUSH2 0xB0D JUMPI PUSH2 0xB0C PUSH2 0x1B1F JUMP JUMPDEST JUMPDEST PUSH1 0x20 MUL ADD MLOAD DUP11 MULMOD DUP2 MSTORE PUSH1 0x20 ADD PUSH32 0xFFFFFFFFFFFFFFFFFFFFFFFFFFFFFFFFFFFFFFFFFFFFFFFFFFFFFFFEFFFFFC2F DUP1 PUSH2 0xB48 JUMPI PUSH2 0xB47 PUSH2 0x1969 JUMP JUMPDEST JUMPDEST DUP4 PUSH1 0x1 PUSH1 0x4 DUP2 LT PUSH2 0xB5C JUMPI PUSH2 0xB5B PUSH2 0x1B1F JUMP JUMPDEST JUMPDEST PUSH1 0x20 MUL ADD MLOAD DUP10 MULMOD DUP2 MSTORE POP SWAP1 POP DUP1 PUSH1 0x2 PUSH1 0x4 DUP2 LT PUSH2 0xB7C JUMPI PUSH2 0xB7B PUSH2 0x1B1F JUMP JUMPDEST JUMPDEST PUSH1 0x20 MUL ADD MLOAD DUP2 PUSH1 0x0 PUSH1 0x4 DUP2 LT PUSH2 0xB95 JUMPI PUSH2 0xB94 PUSH2 0x1B1F JUMP JUMPDEST JUMPDEST PUSH1 0x20 MUL ADD MLOAD EQ ISZERO DUP1 PUSH2 0xBD7 JUMPI POP DUP1 PUSH1 0x3 PUSH1 0x4 DUP2 LT PUSH2 0xBB6 JUMPI PUSH2 0xBB5 PUSH2 0x1B1F JUMP JUMPDEST JUMPDEST PUSH1 0x20 MUL ADD MLOAD DUP2 PUSH1 0x1 PUSH1 0x4 DUP2 LT PUSH2 0xBCF JUMPI PUSH2 0xBCE PUSH2 0x1B1F JUMP JUMPDEST JUMPDEST PUSH1 0x20 MUL ADD MLOAD EQ ISZERO JUMPDEST PUSH2 0xC16 JUMPI PUSH1 0x40 MLOAD PUSH32 0x8C379A000000000000000000000000000000000000000000000000000000000 DUP2 MSTORE PUSH1 0x4 ADD PUSH2 0xC0D SWAP1 PUSH2 0x1B9A JUMP JUMPDEST PUSH1 0x40 MLOAD DUP1 SWAP2 SUB SWAP1 REVERT JUMPDEST PUSH2 0xC1E PUSH2 0x1834 JUMP JUMPDEST PUSH32 0xFFFFFFFFFFFFFFFFFFFFFFFFFFFFFFFFFFFFFFFFFFFFFFFFFFFFFFFEFFFFFC2F DUP1 PUSH2 0xC4D JUMPI PUSH2 0xC4C PUSH2 0x1969 JUMP JUMPDEST JUMPDEST DUP3 PUSH1 0x0 PUSH1 0x4 DUP2 LT PUSH2 0xC61 JUMPI PUSH2 0xC60 PUSH2 0x1B1F JUMP JUMPDEST JUMPDEST PUSH1 0x20 MUL ADD MLOAD PUSH32 0xFFFFFFFFFFFFFFFFFFFFFFFFFFFFFFFFFFFFFFFFFFFFFFFFFFFFFFFEFFFFFC2F PUSH2 0xC91 SWAP2 SWAP1 PUSH2 0x1A6E JUMP JUMPDEST DUP4 PUSH1 0x2 PUSH1 0x4 DUP2 LT PUSH2 0xCA5 JUMPI PUSH2 0xCA4 PUSH2 0x1B1F JUMP JUMPDEST JUMPDEST PUSH1 0x20 MUL ADD MLOAD ADDMOD DUP2 PUSH1 0x0 PUSH1 0x4 DUP2 LT PUSH2 0xCBF JUMPI PUSH2 0xCBE PUSH2 0x1B1F JUMP JUMPDEST JUMPDEST PUSH1 0x20 MUL ADD DUP2 DUP2 MSTORE POP POP PUSH32 0xFFFFFFFFFFFFFFFFFFFFFFFFFFFFFFFFFFFFFFFFFFFFFFFFFFFFFFFEFFFFFC2F DUP1 PUSH2 0xCF7 JUMPI PUSH2 0xCF6 PUSH2 0x1969 JUMP JUMPDEST JUMPDEST DUP3 PUSH1 0x1 PUSH1 0x4 DUP2 LT PUSH2 0xD0B JUMPI PUSH2 0xD0A PUSH2 0x1B1F JUMP JUMPDEST JUMPDEST PUSH1 0x20 MUL ADD MLOAD PUSH32 0xFFFFFFFFFFFFFFFFFFFFFFFFFFFFFFFFFFFFFFFFFFFFFFFFFFFFFFFEFFFFFC2F PUSH2 0xD3B SWAP2 SWAP1 PUSH2 0x1A6E JUMP JUMPDEST DUP4 PUSH1 0x3 PUSH1 0x4 DUP2 LT PUSH2 0xD4F JUMPI PUSH2 0xD4E PUSH2 0x1B1F JUMP JUMPDEST JUMPDEST PUSH1 0x20 MUL ADD MLOAD ADDMOD DUP2 PUSH1 0x1 PUSH1 0x4 DUP2 LT PUSH2 0xD69 JUMPI PUSH2 0xD68 PUSH2 0x1B1F JUMP JUMPDEST JUMPDEST PUSH1 0x20 MUL ADD DUP2 DUP2 MSTORE POP POP PUSH32 0xFFFFFFFFFFFFFFFFFFFFFFFFFFFFFFFFFFFFFFFFFFFFFFFFFFFFFFFEFFFFFC2F DUP1 PUSH2 0xDA1 JUMPI PUSH2 0xDA0 PUSH2 0x1969 JUMP JUMPDEST JUMPDEST DUP2 PUSH1 0x0 PUSH1 0x4 DUP2 LT PUSH2 0xDB5 JUMPI PUSH2 0xDB4 PUSH2 0x1B1F JUMP JUMPDEST JUMPDEST PUSH1 0x20 MUL ADD MLOAD DUP3 PUSH1 0x0 PUSH1 0x4 DUP2 LT PUSH2 0xDCE JUMPI PUSH2 0xDCD PUSH2 0x1B1F JUMP JUMPDEST JUMPDEST PUSH1 0x20 MUL ADD MLOAD MULMOD DUP2 PUSH1 0x2 PUSH1 0x4 DUP2 LT PUSH2 0xDE8 JUMPI PUSH2 0xDE7 PUSH2 0x1B1F JUMP JUMPDEST JUMPDEST PUSH1 0x20 MUL ADD DUP2 DUP2 MSTORE POP POP PUSH32 0xFFFFFFFFFFFFFFFFFFFFFFFFFFFFFFFFFFFFFFFFFFFFFFFFFFFFFFFEFFFFFC2F DUP1 PUSH2 0xE20 JUMPI PUSH2 0xE1F PUSH2 0x1969 JUMP JUMPDEST JUMPDEST DUP2 PUSH1 0x0 PUSH1 0x4 DUP2 LT PUSH2 0xE34 JUMPI PUSH2 0xE33 PUSH2 0x1B1F JUMP JUMPDEST JUMPDEST PUSH1 0x20 MUL ADD MLOAD DUP3 PUSH1 0x2 PUSH1 0x4 DUP2 LT PUSH2 0xE4D JUMPI PUSH2 0xE4C PUSH2 0x1B1F JUMP JUMPDEST JUMPDEST PUSH1 0x20 MUL ADD MLOAD MULMOD DUP2 PUSH1 0x3 PUSH1 0x4 DUP2 LT PUSH2 0xE67 JUMPI PUSH2 0xE66 PUSH2 0x1B1F JUMP JUMPDEST JUMPDEST PUSH1 0x20 MUL ADD DUP2 DUP2 MSTORE POP POP PUSH1 0x0 PUSH32 0xFFFFFFFFFFFFFFFFFFFFFFFFFFFFFFFFFFFFFFFFFFFFFFFFFFFFFFFEFFFFFC2F DUP1 PUSH2 0xEA1 JUMPI PUSH2 0xEA0 PUSH2 0x1969 JUMP JUMPDEST JUMPDEST DUP3 PUSH1 0x3 PUSH1 0x4 DUP2 LT PUSH2 0xEB5 JUMPI PUSH2 0xEB4 PUSH2 0x1B1F JUMP JUMPDEST JUMPDEST PUSH1 0x20 MUL ADD MLOAD PUSH32 0xFFFFFFFFFFFFFFFFFFFFFFFFFFFFFFFFFFFFFFFFFFFFFFFFFFFFFFFEFFFFFC2F PUSH2 0xEE5 SWAP2 SWAP1 PUSH2 0x1A6E JUMP JUMPDEST PUSH32 0xFFFFFFFFFFFFFFFFFFFFFFFFFFFFFFFFFFFFFFFFFFFFFFFFFFFFFFFEFFFFFC2F DUP1 PUSH2 0xF14 JUMPI PUSH2 0xF13 PUSH2 0x1969 JUMP JUMPDEST JUMPDEST DUP5 PUSH1 0x1 PUSH1 0x4 DUP2 LT PUSH2 0xF28 JUMPI PUSH2 0xF27 PUSH2 0x1B1F JUMP JUMPDEST JUMPDEST PUSH1 0x20 MUL ADD MLOAD DUP6 PUSH1 0x1 PUSH1 0x4 DUP2 LT PUSH2 0xF41 JUMPI PUSH2 0xF40 PUSH2 0x1B1F JUMP JUMPDEST JUMPDEST PUSH1 0x20 MUL ADD MLOAD MULMOD ADDMOD SWAP1 POP PUSH32 0xFFFFFFFFFFFFFFFFFFFFFFFFFFFFFFFFFFFFFFFFFFFFFFFFFFFFFFFEFFFFFC2F DUP1 PUSH2 0xF79 JUMPI PUSH2 0xF78 PUSH2 0x1969 JUMP JUMPDEST JUMPDEST PUSH32 0xFFFFFFFFFFFFFFFFFFFFFFFFFFFFFFFFFFFFFFFFFFFFFFFFFFFFFFFEFFFFFC2F DUP1 PUSH2 0xFA8 JUMPI PUSH2 0xFA7 PUSH2 0x1969 JUMP JUMPDEST JUMPDEST PUSH32 0xFFFFFFFFFFFFFFFFFFFFFFFFFFFFFFFFFFFFFFFFFFFFFFFFFFFFFFFEFFFFFC2F DUP1 PUSH2 0xFD7 JUMPI PUSH2 0xFD6 PUSH2 0x1969 JUMP JUMPDEST JUMPDEST DUP5 PUSH1 0x2 PUSH1 0x4 DUP2 LT PUSH2 0xFEB JUMPI PUSH2 0xFEA PUSH2 0x1B1F JUMP JUMPDEST JUMPDEST PUSH1 0x20 MUL ADD MLOAD DUP7 PUSH1 0x0 PUSH1 0x4 DUP2 LT PUSH2 0x1004 JUMPI PUSH2 0x1003 PUSH2 0x1B1F JUMP JUMPDEST JUMPDEST PUSH1 0x20 MUL ADD MLOAD MULMOD PUSH1 0x2 MULMOD PUSH32 0xFFFFFFFFFFFFFFFFFFFFFFFFFFFFFFFFFFFFFFFFFFFFFFFFFFFFFFFEFFFFFC2F PUSH2 0x1038 SWAP2 SWAP1 PUSH2 0x1A6E JUMP JUMPDEST DUP3 ADDMOD SWAP1 POP PUSH1 0x0 PUSH32 0xFFFFFFFFFFFFFFFFFFFFFFFFFFFFFFFFFFFFFFFFFFFFFFFFFFFFFFFEFFFFFC2F DUP1 PUSH2 0x106D JUMPI PUSH2 0x106C PUSH2 0x1969 JUMP JUMPDEST JUMPDEST PUSH32 0xFFFFFFFFFFFFFFFFFFFFFFFFFFFFFFFFFFFFFFFFFFFFFFFFFFFFFFFEFFFFFC2F DUP1 PUSH2 0x109C JUMPI PUSH2 0x109B PUSH2 0x1969 JUMP JUMPDEST JUMPDEST DUP4 PUSH32 0xFFFFFFFFFFFFFFFFFFFFFFFFFFFFFFFFFFFFFFFFFFFFFFFFFFFFFFFEFFFFFC2F PUSH2 0x10C8 SWAP2 SWAP1 PUSH2 0x1A6E JUMP JUMPDEST PUSH32 0xFFFFFFFFFFFFFFFFFFFFFFFFFFFFFFFFFFFFFFFFFFFFFFFFFFFFFFFEFFFFFC2F DUP1 PUSH2 0x10F7 JUMPI PUSH2 0x10F6 PUSH2 0x1969 JUMP JUMPDEST JUMPDEST DUP7 PUSH1 0x2 PUSH1 0x4 DUP2 LT PUSH2 0x110B JUMPI PUSH2 0x110A PUSH2 0x1B1F JUMP JUMPDEST JUMPDEST PUSH1 0x20 MUL ADD MLOAD DUP9 PUSH1 0x0 PUSH1 0x4 DUP2 LT PUSH2 0x1124 JUMPI PUSH2 0x1123 PUSH2 0x1B1F JUMP JUMPDEST JUMPDEST PUSH1 0x20 MUL ADD MLOAD MULMOD ADDMOD DUP5 PUSH1 0x1 PUSH1 0x4 DUP2 LT PUSH2 0x113F JUMPI PUSH2 0x113E PUSH2 0x1B1F JUMP JUMPDEST JUMPDEST PUSH1 0x20 MUL ADD MLOAD MULMOD SWAP1 POP PUSH32 0xFFFFFFFFFFFFFFFFFFFFFFFFFFFFFFFFFFFFFFFFFFFFFFFFFFFFFFFEFFFFFC2F DUP1 PUSH2 0x1176 JUMPI PUSH2 0x1175 PUSH2 0x1969 JUMP JUMPDEST JUMPDEST PUSH32 0xFFFFFFFFFFFFFFFFFFFFFFFFFFFFFFFFFFFFFFFFFFFFFFFFFFFFFFFEFFFFFC2F DUP1 PUSH2 0x11A5 JUMPI PUSH2 0x11A4 PUSH2 0x1969 JUMP JUMPDEST JUMPDEST DUP5 PUSH1 0x3 PUSH1 0x4 DUP2 LT PUSH2 0x11B9 JUMPI PUSH2 0x11B8 PUSH2 0x1B1F JUMP JUMPDEST JUMPDEST PUSH1 0x20 MUL ADD MLOAD DUP7 PUSH1 0x1 PUSH1 0x4 DUP2 LT PUSH2 0x11D2 JUMPI PUSH2 0x11D1 PUSH2 0x1B1F JUMP JUMPDEST JUMPDEST PUSH1 0x20 MUL ADD MLOAD MULMOD PUSH32 0xFFFFFFFFFFFFFFFFFFFFFFFFFFFFFFFFFFFFFFFFFFFFFFFFFFFFFFFEFFFFFC2F PUSH2 0x1203 SWAP2 SWAP1 PUSH2 0x1A6E JUMP JUMPDEST DUP3 ADDMOD SWAP1 POP PUSH1 0x0 PUSH32 0xFFFFFFFFFFFFFFFFFFFFFFFFFFFFFFFFFFFFFFFFFFFFFFFFFFFFFFFEFFFFFC2F DUP1 PUSH2 0x1238 JUMPI PUSH2 0x1237 PUSH2 0x1969 JUMP JUMPDEST JUMPDEST PUSH32 0xFFFFFFFFFFFFFFFFFFFFFFFFFFFFFFFFFFFFFFFFFFFFFFFFFFFFFFFEFFFFFC2F DUP1 PUSH2 0x1267 JUMPI PUSH2 0x1266 PUSH2 0x1969 JUMP JUMPDEST JUMPDEST DUP11 DUP15 MULMOD DUP6 PUSH1 0x0 PUSH1 0x4 DUP2 LT PUSH2 0x127E JUMPI PUSH2 0x127D PUSH2 0x1B1F JUMP JUMPDEST JUMPDEST PUSH1 0x20 MUL ADD MLOAD MULMOD SWAP1 POP DUP3 DUP3 DUP3 SWAP8 POP SWAP8 POP SWAP8 POP POP POP POP POP POP JUMPDEST SWAP7 POP SWAP7 POP SWAP7 SWAP4 POP POP POP POP JUMP JUMPDEST PUSH1 0x0 DUP1 PUSH1 0x0 DUP1 DUP5 SUB PUSH2 0x12BB JUMPI DUP6 DUP6 DUP6 SWAP3 POP SWAP3 POP SWAP3 POP PUSH2 0x1715 JUMP JUMPDEST PUSH1 0x0 PUSH32 0xFFFFFFFFFFFFFFFFFFFFFFFFFFFFFFFFFFFFFFFFFFFFFFFFFFFFFFFEFFFFFC2F DUP1 PUSH2 0x12EC JUMPI PUSH2 0x12EB PUSH2 0x1969 JUMP JUMPDEST JUMPDEST DUP8 DUP9 MULMOD SWAP1 POP PUSH1 0x0 PUSH32 0xFFFFFFFFFFFFFFFFFFFFFFFFFFFFFFFFFFFFFFFFFFFFFFFFFFFFFFFEFFFFFC2F DUP1 PUSH2 0x1322 JUMPI PUSH2 0x1321 PUSH2 0x1969 JUMP JUMPDEST JUMPDEST DUP8 DUP9 MULMOD SWAP1 POP PUSH1 0x0 PUSH32 0xFFFFFFFFFFFFFFFFFFFFFFFFFFFFFFFFFFFFFFFFFFFFFFFFFFFFFFFEFFFFFC2F DUP1 PUSH2 0x1358 JUMPI PUSH2 0x1357 PUSH2 0x1969 JUMP JUMPDEST JUMPDEST DUP8 DUP9 MULMOD SWAP1 POP PUSH1 0x0 PUSH32 0xFFFFFFFFFFFFFFFFFFFFFFFFFFFFFFFFFFFFFFFFFFFFFFFFFFFFFFFEFFFFFC2F DUP1 PUSH2 0x138E JUMPI PUSH2 0x138D PUSH2 0x1969 JUMP JUMPDEST JUMPDEST PUSH32 0xFFFFFFFFFFFFFFFFFFFFFFFFFFFFFFFFFFFFFFFFFFFFFFFFFFFFFFFEFFFFFC2F DUP1 PUSH2 0x13BD JUMPI PUSH2 0x13BC PUSH2 0x1969 JUMP JUMPDEST JUMPDEST DUP5 DUP13 MULMOD PUSH1 0x4 MULMOD SWAP1 POP PUSH1 0x0 PUSH32 0xFFFFFFFFFFFFFFFFFFFFFFFFFFFFFFFFFFFFFFFFFFFFFFFFFFFFFFFEFFFFFC2F DUP1 PUSH2 0x13F6 JUMPI PUSH2 0x13F5 PUSH2 0x1969 JUMP JUMPDEST JUMPDEST PUSH32 0xFFFFFFFFFFFFFFFFFFFFFFFFFFFFFFFFFFFFFFFFFFFFFFFFFFFFFFFEFFFFFC2F DUP1 PUSH2 0x1425 JUMPI PUSH2 0x1424 PUSH2 0x1969 JUMP JUMPDEST JUMPDEST PUSH32 0xFFFFFFFFFFFFFFFFFFFFFFFFFFFFFFFFFFFFFFFFFFFFFFFFFFFFFFFEFFFFFC2F DUP1 PUSH2 0x1454 JUMPI PUSH2 0x1453 PUSH2 0x1969 JUMP JUMPDEST JUMPDEST DUP6 DUP7 MULMOD PUSH1 0x0 MULMOD PUSH32 0xFFFFFFFFFFFFFFFFFFFFFFFFFFFFFFFFFFFFFFFFFFFFFFFFFFFFFFFEFFFFFC2F DUP1 PUSH2 0x1489 JUMPI PUSH2 0x1488 PUSH2 0x1969 JUMP JUMPDEST JUMPDEST DUP8 PUSH1 0x3 MULMOD ADDMOD SWAP1 POP PUSH32 0xFFFFFFFFFFFFFFFFFFFFFFFFFFFFFFFFFFFFFFFFFFFFFFFFFFFFFFFEFFFFFC2F DUP1 PUSH2 0x14BF JUMPI PUSH2 0x14BE PUSH2 0x1969 JUMP JUMPDEST JUMPDEST PUSH32 0xFFFFFFFFFFFFFFFFFFFFFFFFFFFFFFFFFFFFFFFFFFFFFFFFFFFFFFFEFFFFFC2F DUP1 PUSH2 0x14EE JUMPI PUSH2 0x14ED PUSH2 0x1969 JUMP JUMPDEST JUMPDEST DUP4 DUP5 ADDMOD PUSH32 0xFFFFFFFFFFFFFFFFFFFFFFFFFFFFFFFFFFFFFFFFFFFFFFFFFFFFFFFEFFFFFC2F PUSH2 0x151C SWAP2 SWAP1 PUSH2 0x1A6E JUMP JUMPDEST PUSH32 0xFFFFFFFFFFFFFFFFFFFFFFFFFFFFFFFFFFFFFFFFFFFFFFFFFFFFFFFEFFFFFC2F DUP1 PUSH2 0x154B JUMPI PUSH2 0x154A PUSH2 0x1969 JUMP JUMPDEST JUMPDEST DUP4 DUP5 MULMOD ADDMOD SWAP5 POP PUSH32 0xFFFFFFFFFFFFFFFFFFFFFFFFFFFFFFFFFFFFFFFFFFFFFFFFFFFFFFFEFFFFFC2F DUP1 PUSH2 0x1580 JUMPI PUSH2 0x157F PUSH2 0x1969 JUMP JUMPDEST JUMPDEST PUSH32 0xFFFFFFFFFFFFFFFFFFFFFFFFFFFFFFFFFFFFFFFFFFFFFFFFFFFFFFFEFFFFFC2F DUP1 PUSH2 0x15AF JUMPI PUSH2 0x15AE PUSH2 0x1969 JUMP JUMPDEST JUMPDEST PUSH32 0xFFFFFFFFFFFFFFFFFFFFFFFFFFFFFFFFFFFFFFFFFFFFFFFFFFFFFFFEFFFFFC2F DUP1 PUSH2 0x15DE JUMPI PUSH2 0x15DD PUSH2 0x1969 JUMP JUMPDEST JUMPDEST DUP7 DUP8 MULMOD PUSH1 0x8 MULMOD PUSH32 0xFFFFFFFFFFFFFFFFFFFFFFFFFFFFFFFFFFFFFFFFFFFFFFFFFFFFFFFEFFFFFC2F PUSH2 0x160F SWAP2 SWAP1 PUSH2 0x1A6E JUMP JUMPDEST PUSH32 0xFFFFFFFFFFFFFFFFFFFFFFFFFFFFFFFFFFFFFFFFFFFFFFFFFFFFFFFEFFFFFC2F DUP1 PUSH2 0x163E JUMPI PUSH2 0x163D PUSH2 0x1969 JUMP JUMPDEST JUMPDEST PUSH32 0xFFFFFFFFFFFFFFFFFFFFFFFFFFFFFFFFFFFFFFFFFFFFFFFFFFFFFFFEFFFFFC2F DUP1 PUSH2 0x166D JUMPI PUSH2 0x166C PUSH2 0x1969 JUMP JUMPDEST JUMPDEST DUP9 PUSH32 0xFFFFFFFFFFFFFFFFFFFFFFFFFFFFFFFFFFFFFFFFFFFFFFFFFFFFFFFEFFFFFC2F PUSH2 0x1699 SWAP2 SWAP1 PUSH2 0x1A6E JUMP JUMPDEST DUP7 ADDMOD DUP5 MULMOD ADDMOD SWAP4 POP PUSH32 0xFFFFFFFFFFFFFFFFFFFFFFFFFFFFFFFFFFFFFFFFFFFFFFFFFFFFFFFEFFFFFC2F DUP1 PUSH2 0x16CF JUMPI PUSH2 0x16CE PUSH2 0x1969 JUMP JUMPDEST JUMPDEST PUSH32 0xFFFFFFFFFFFFFFFFFFFFFFFFFFFFFFFFFFFFFFFFFFFFFFFFFFFFFFFEFFFFFC2F DUP1 PUSH2 0x16FE JUMPI PUSH2 0x16FD PUSH2 0x1969 JUMP JUMPDEST JUMPDEST DUP11 DUP13 MULMOD PUSH1 0x2 MULMOD SWAP3 POP DUP5 DUP5 DUP5 SWAP8 POP SWAP8 POP SWAP8 POP POP POP POP POP POP JUMPDEST SWAP4 POP SWAP4 POP SWAP4 SWAP1 POP JUMP JUMPDEST PUSH1 0x0 DUP1 PUSH1 0x0 PUSH2 0x174D DUP5 PUSH32 0xFFFFFFFFFFFFFFFFFFFFFFFFFFFFFFFFFFFFFFFFFFFFFFFFFFFFFFFEFFFFFC2F PUSH2 0x47D JUMP JUMPDEST SWAP1 POP PUSH1 0x0 PUSH32 0xFFFFFFFFFFFFFFFFFFFFFFFFFFFFFFFFFFFFFFFFFFFFFFFFFFFFFFFEFFFFFC2F DUP1 PUSH2 0x1780 JUMPI PUSH2 0x177F PUSH2 0x1969 JUMP JUMPDEST JUMPDEST DUP3 DUP4 MULMOD SWAP1 POP PUSH1 0x0 PUSH32 0xFFFFFFFFFFFFFFFFFFFFFFFFFFFFFFFFFFFFFFFFFFFFFFFFFFFFFFFEFFFFFC2F DUP1 PUSH2 0x17B6 JUMPI PUSH2 0x17B5 PUSH2 0x1969 JUMP JUMPDEST JUMPDEST DUP3 DUP10 MULMOD SWAP1 POP PUSH1 0x0 PUSH32 0xFFFFFFFFFFFFFFFFFFFFFFFFFFFFFFFFFFFFFFFFFFFFFFFFFFFFFFFEFFFFFC2F DUP1 PUSH2 0x17EC JUMPI PUSH2 0x17EB PUSH2 0x1969 JUMP JUMPDEST JUMPDEST PUSH32 0xFFFFFFFFFFFFFFFFFFFFFFFFFFFFFFFFFFFFFFFFFFFFFFFFFFFFFFFEFFFFFC2F DUP1 PUSH2 0x181B JUMPI PUSH2 0x181A PUSH2 0x1969 JUMP JUMPDEST JUMPDEST DUP5 DUP7 MULMOD DUP10 MULMOD SWAP1 POP DUP2 DUP2 SWAP6 POP SWAP6 POP POP POP POP POP SWAP4 POP SWAP4 SWAP2 POP POP JUMP JUMPDEST PUSH1 0x40 MLOAD DUP1 PUSH1 0x80 ADD PUSH1 0x40 MSTORE DUP1 PUSH1 0x4 SWAP1 PUSH1 0x20 DUP3 MUL DUP1 CALLDATASIZE DUP4 CALLDATACOPY DUP1 DUP3 ADD SWAP2 POP POP SWAP1 POP POP SWAP1 JUMP JUMPDEST PUSH1 0x0 DUP1 REVERT JUMPDEST PUSH1 0x0 DUP2 SWAP1 POP SWAP2 SWAP1 POP JUMP JUMPDEST PUSH2 0x186E DUP2 PUSH2 0x185B JUMP JUMPDEST DUP2 EQ PUSH2 0x1879 JUMPI PUSH1 0x0 DUP1 REVERT JUMPDEST POP JUMP JUMPDEST PUSH1 0x0 DUP2 CALLDATALOAD SWAP1 POP PUSH2 0x188B DUP2 PUSH2 0x1865 JUMP JUMPDEST SWAP3 SWAP2 POP POP JUMP JUMPDEST PUSH1 0x0 PUSH1 0xFF DUP3 AND SWAP1 POP SWAP2 SWAP1 POP JUMP JUMPDEST PUSH2 0x18A7 DUP2 PUSH2 0x1891 JUMP JUMPDEST DUP2 EQ PUSH2 0x18B2 JUMPI PUSH1 0x0 DUP1 REVERT JUMPDEST POP JUMP JUMPDEST PUSH1 0x0 DUP2 CALLDATALOAD SWAP1 POP PUSH2 0x18C4 DUP2 PUSH2 0x189E JUMP JUMPDEST SWAP3 SWAP2 POP POP JUMP JUMPDEST PUSH1 0x0 DUP1 PUSH1 0x0 DUP1 PUSH1 0x80 DUP6 DUP8 SUB SLT ISZERO PUSH2 0x18E4 JUMPI PUSH2 0x18E3 PUSH2 0x1856 JUMP JUMPDEST JUMPDEST PUSH1 0x0 PUSH2 0x18F2 DUP8 DUP3 DUP9 ADD PUSH2 0x187C JUMP JUMPDEST SWAP5 POP POP PUSH1 0x20 PUSH2 0x1903 DUP8 DUP3 DUP9 ADD PUSH2 0x18B5 JUMP JUMPDEST SWAP4 POP POP PUSH1 0x40 PUSH2 0x1914 DUP8 DUP3 DUP9 ADD PUSH2 0x187C JUMP JUMPDEST SWAP3 POP POP PUSH1 0x60 PUSH2 0x1925 DUP8 DUP3 DUP9 ADD PUSH2 0x187C JUMP JUMPDEST SWAP2 POP POP SWAP3 SWAP6 SWAP2 SWAP5 POP SWAP3 POP JUMP JUMPDEST PUSH2 0x193A DUP2 PUSH2 0x185B JUMP JUMPDEST DUP3 MSTORE POP POP JUMP JUMPDEST PUSH1 0x0 PUSH1 0x40 DUP3 ADD SWAP1 POP PUSH2 0x1955 PUSH1 0x0 DUP4 ADD DUP6 PUSH2 0x1931 JUMP JUMPDEST PUSH2 0x1962 PUSH1 0x20 DUP4 ADD DUP5 PUSH2 0x1931 JUMP JUMPDEST SWAP4 SWAP3 POP POP POP JUMP JUMPDEST PUSH32 0x4E487B7100000000000000000000000000000000000000000000000000000000 PUSH1 0x0 MSTORE PUSH1 0x12 PUSH1 0x4 MSTORE PUSH1 0x24 PUSH1 0x0 REVERT JUMPDEST PUSH32 0x4E487B7100000000000000000000000000000000000000000000000000000000 PUSH1 0x0 MSTORE PUSH1 0x11 PUSH1 0x4 MSTORE PUSH1 0x24 PUSH1 0x0 REVERT JUMPDEST PUSH1 0x0 PUSH2 0x19D2 DUP3 PUSH2 0x185B JUMP JUMPDEST SWAP2 POP PUSH2 0x19DD DUP4 PUSH2 0x185B JUMP JUMPDEST SWAP3 POP DUP3 DUP3 MUL PUSH2 0x19EB DUP2 PUSH2 0x185B JUMP JUMPDEST SWAP2 POP DUP3 DUP3 DIV DUP5 EQ DUP4 ISZERO OR PUSH2 0x1A02 JUMPI PUSH2 0x1A01 PUSH2 0x1998 JUMP JUMPDEST JUMPDEST POP SWAP3 SWAP2 POP POP JUMP JUMPDEST PUSH1 0x0 PUSH2 0x1A14 DUP3 PUSH2 0x185B JUMP JUMPDEST SWAP2 POP PUSH2 0x1A1F DUP4 PUSH2 0x185B JUMP JUMPDEST SWAP3 POP DUP3 DUP3 ADD SWAP1 POP DUP1 DUP3 GT ISZERO PUSH2 0x1A37 JUMPI PUSH2 0x1A36 PUSH2 0x1998 JUMP JUMPDEST JUMPDEST SWAP3 SWAP2 POP POP JUMP JUMPDEST PUSH1 0x0 PUSH2 0x1A48 DUP3 PUSH2 0x185B JUMP JUMPDEST SWAP2 POP PUSH2 0x1A53 DUP4 PUSH2 0x185B JUMP JUMPDEST SWAP3 POP DUP3 PUSH2 0x1A63 JUMPI PUSH2 0x1A62 PUSH2 0x1969 JUMP JUMPDEST JUMPDEST DUP3 DUP3 DIV SWAP1 POP SWAP3 SWAP2 POP POP JUMP JUMPDEST PUSH1 0x0 PUSH2 0x1A79 DUP3 PUSH2 0x185B JUMP JUMPDEST SWAP2 POP PUSH2 0x1A84 DUP4 PUSH2 0x185B JUMP JUMPDEST SWAP3 POP DUP3 DUP3 SUB SWAP1 POP DUP2 DUP2 GT ISZERO PUSH2 0x1A9C JUMPI PUSH2 0x1A9B PUSH2 0x1998 JUMP JUMPDEST JUMPDEST SWAP3 SWAP2 POP POP JUMP JUMPDEST PUSH1 0x0 DUP3 DUP3 MSTORE PUSH1 0x20 DUP3 ADD SWAP1 POP SWAP3 SWAP2 POP POP JUMP JUMPDEST PUSH32 0x496E76616C6964206E756D626572000000000000000000000000000000000000 PUSH1 0x0 DUP3 ADD MSTORE POP JUMP JUMPDEST PUSH1 0x0 PUSH2 0x1AE9 PUSH1 0xE DUP4 PUSH2 0x1AA2 JUMP JUMPDEST SWAP2 POP PUSH2 0x1AF4 DUP3 PUSH2 0x1AB3 JUMP JUMPDEST PUSH1 0x20 DUP3 ADD SWAP1 POP SWAP2 SWAP1 POP JUMP JUMPDEST PUSH1 0x0 PUSH1 0x20 DUP3 ADD SWAP1 POP DUP2 DUP2 SUB PUSH1 0x0 DUP4 ADD MSTORE PUSH2 0x1B18 DUP2 PUSH2 0x1ADC JUMP JUMPDEST SWAP1 POP SWAP2 SWAP1 POP JUMP JUMPDEST PUSH32 0x4E487B7100000000000000000000000000000000000000000000000000000000 PUSH1 0x0 MSTORE PUSH1 0x32 PUSH1 0x4 MSTORE PUSH1 0x24 PUSH1 0x0 REVERT JUMPDEST PUSH32 0x557365206A6163446F75626C652066756E6374696F6E20696E73746561640000 PUSH1 0x0 DUP3 ADD MSTORE POP JUMP JUMPDEST PUSH1 0x0 PUSH2 0x1B84 PUSH1 0x1E DUP4 PUSH2 0x1AA2 JUMP JUMPDEST SWAP2 POP PUSH2 0x1B8F DUP3 PUSH2 0x1B4E JUMP JUMPDEST PUSH1 0x20 DUP3 ADD SWAP1 POP SWAP2 SWAP1 POP JUMP JUMPDEST PUSH1 0x0 PUSH1 0x20 DUP3 ADD SWAP1 POP DUP2 DUP2 SUB PUSH1 0x0 DUP4 ADD MSTORE PUSH2 0x1BB3 DUP2 PUSH2 0x1B77 JUMP JUMPDEST SWAP1 POP SWAP2 SWAP1 POP JUMP INVALID LOG2 PUSH5 0x6970667358 0x22 SLT KECCAK256 LOG0 SWAP2 0xBC 0xF ADD 0x1F 0xAD PC DUP15 0x4E 0xE9 0xCF BALANCE 0xE5 DUP2 PUSH27 0xFF3596AC631F28C7108C5C709145CF3564736F6C63430008180033 "},"methodIdentifiers":{"recover(uint256,uint8,uint256,uint256)":"4828f4a2"}}}}}