{"contracts/PeerSafeDeployer.sol":{"PeerSafeDeployer":{"abi":[{"inputs":[{"internalType":"address","name":"_deployer","type":"address"}],"stateMutability":"nonpayable","type":"constructor"},{"anonymous":false,"inputs":[{"indexed":true,"internalType":"address","name":"previousOwner","type":"address"},{"indexed":true,"internalType":"address","name":"newOwner","type":"address"}],"name":"OwnershipTransferred","type":"event"},{"inputs":[{"internalType":"bytes32","name":"_hashedMessage","type":"bytes32"},{"internalType":"uint8","name":"_v","type":"uint8"},{"internalType":"bytes32","name":"_r","type":"bytes32"},{"internalType":"bytes32","name":"_s","type":"bytes32"},{"internalType":"string","name":"_fileHash","type":"string"}],"name":"acceptShareRequest","outputs":[],"stateMutability":"nonpayable","type":"function"},{"inputs":[],"name":"adminAllVaults","outputs":[{"internalType":"address[]","name":"","type":"address[]"},{"internalType":"address[]","name":"","type":"address[]"}],"stateMutability":"view","type":"function"},{"inputs":[{"internalType":"string","name":"name","type":"string"},{"internalType":"string","name":"fileType","type":"string"},{"internalType":"string","name":"ipfsHash","type":"string"},{"internalType":"string","name":"key","type":"string"},{"internalType":"bytes32","name":"_hashedMessage","type":"bytes32"},{"internalType":"uint8","name":"_v","type":"uint8"},{"internalType":"bytes32","name":"_r","type":"bytes32"},{"internalType":"bytes32","name":"_s","type":"bytes32"}],"name":"createFile","outputs":[],"stateMutability":"nonpayable","type":"function"},{"inputs":[{"internalType":"bytes32","name":"_hashedMessage","type":"bytes32"},{"internalType":"uint8","name":"_v","type":"uint8"},{"internalType":"bytes32","name":"_r","type":"bytes32"},{"internalType":"bytes32","name":"_s","type":"bytes32"},{"internalType":"string","name":"ipfsHash","type":"string"}],"name":"deleteFile","outputs":[],"stateMutability":"nonpayable","type":"function"},{"inputs":[{"internalType":"string","name":"_userName","type":"string"},{"internalType":"bytes","name":"pubKey","type":"bytes"}],"name":"deploy","outputs":[{"internalType":"address","name":"","type":"address"}],"stateMutability":"nonpayable","type":"function"},{"inputs":[{"internalType":"bytes32","name":"_hashedMessage","type":"bytes32"},{"internalType":"uint8","name":"_v","type":"uint8"},{"internalType":"bytes32","name":"_r","type":"bytes32"},{"internalType":"bytes32","name":"_s","type":"bytes32"}],"name":"getAllFiles","outputs":[{"components":[{"internalType":"string","name":"_name","type":"string"},{"internalType":"string","name":"_fileType","type":"string"},{"internalType":"string","name":"_ipfsHash","type":"string"},{"internalType":"string","name":"_key","type":"string"},{"internalType":"address","name":"_sharedBy","type":"address"}],"internalType":"struct File[]","name":"","type":"tuple[]"}],"stateMutability":"view","type":"function"},{"inputs":[],"name":"getCreator","outputs":[{"internalType":"address","name":"","type":"address"}],"stateMutability":"view","type":"function"},{"inputs":[],"name":"getOwner","outputs":[{"internalType":"address","name":"","type":"address"}],"stateMutability":"view","type":"function"},{"inputs":[{"internalType":"address","name":"_user","type":"address"}],"name":"getPubKey","outputs":[{"internalType":"bytes","name":"","type":"bytes"}],"stateMutability":"view","type":"function"},{"inputs":[{"internalType":"bytes32","name":"_hashedMessage","type":"bytes32"},{"internalType":"uint8","name":"_v","type":"uint8"},{"internalType":"bytes32","name":"_r","type":"bytes32"},{"internalType":"bytes32","name":"_s","type":"bytes32"}],"name":"getShareRequests","outputs":[{"components":[{"internalType":"address","name":"_from","type":"address"},{"internalType":"string","name":"_fileHash","type":"string"},{"internalType":"string","name":"_keyHash","type":"string"},{"internalType":"string","name":"_name","type":"string"},{"internalType":"string","name":"_fileType","type":"string"}],"internalType":"struct ShareRequest[]","name":"","type":"tuple[]"}],"stateMutability":"view","type":"function"},{"inputs":[{"internalType":"address","name":"_vaultOwner","type":"address"}],"name":"getVault","outputs":[{"internalType":"address","name":"","type":"address"}],"stateMutability":"view","type":"function"},{"inputs":[{"internalType":"bytes32","name":"_hashedMessage","type":"bytes32"},{"internalType":"uint8","name":"_v","type":"uint8"},{"internalType":"bytes32","name":"_r","type":"bytes32"},{"internalType":"bytes32","name":"_s","type":"bytes32"},{"internalType":"string","name":"_fileHash","type":"string"}],"name":"rejectShareRequest","outputs":[],"stateMutability":"nonpayable","type":"function"},{"inputs":[{"internalType":"string","name":"_userName","type":"string"},{"internalType":"bytes32","name":"_hashedMessage","type":"bytes32"},{"internalType":"uint8","name":"_v","type":"uint8"},{"internalType":"bytes32","name":"_r","type":"bytes32"},{"internalType":"bytes32","name":"_s","type":"bytes32"},{"internalType":"bytes","name":"pubKey","type":"bytes"}],"name":"relayDeploy","outputs":[{"internalType":"address","name":"","type":"address"}],"stateMutability":"nonpayable","type":"function"},{"inputs":[{"internalType":"bytes32","name":"_hashedMessage","type":"bytes32"},{"internalType":"uint8","name":"_v","type":"uint8"},{"internalType":"bytes32","name":"_r","type":"bytes32"},{"internalType":"bytes32","name":"_s","type":"bytes32"},{"internalType":"address","name":"_to","type":"address"},{"internalType":"string","name":"_fileHash","type":"string"},{"internalType":"string","name":"_keyHash","type":"string"},{"internalType":"string","name":"_name","type":"string"},{"internalType":"string","name":"_fileType","type":"string"}],"name":"sendShareRequest","outputs":[],"stateMutability":"nonpayable","type":"function"}],"evm":{"bytecode":{"linkReferences":{},"object":"60806040523480156200001157600080fd5b50604051620057bf380380620057bf8339818101604052810190620000379190620001c9565b3333806000806101000a81548173ffffffffffffffffffffffffffffffffffffffff021916908373ffffffffffffffffffffffffffffffffffffffff16021790555081600160006101000a81548173ffffffffffffffffffffffffffffffffffffffff021916908373ffffffffffffffffffffffffffffffffffffffff1602179055508073ffffffffffffffffffffffffffffffffffffffff16600073ffffffffffffffffffffffffffffffffffffffff167f8be0079c531659141344cd1fd0a4f28419497f9722a3daafe3b4186f6b6457e060405160405180910390a3505080600460006101000a81548173ffffffffffffffffffffffffffffffffffffffff021916908373ffffffffffffffffffffffffffffffffffffffff16021790555050620001fb565b600080fd5b600073ffffffffffffffffffffffffffffffffffffffff82169050919050565b6000620001918262000164565b9050919050565b620001a38162000184565b8114620001af57600080fd5b50565b600081519050620001c38162000198565b92915050565b600060208284031215620001e257620001e16200015f565b5b6000620001f284828501620001b2565b91505092915050565b6155b4806200020b6000396000f3fe608060405234801561001057600080fd5b50600436106100ea5760003560e01c8063b1a81bd51161008c578063e04e028311610066578063e04e02831461024a578063e3e390121461027a578063e4f0c916146102aa578063fce9512a146102c6576100ea565b8063b1a81bd5146101df578063be3397e9146101fb578063d8b63c8a1461022b576100ea565b80632fd005c8116100c85780632fd005c814610159578063633072e4146101895780636b11bc49146101a5578063893d20e8146101c1576100ea565b80630eb9af38146100ef5780630ee2cb101461011f578063146aa7f71461013d575b600080fd5b61010960048036038101906101049190613a2c565b6102f6565b6040516101169190613a68565b60405180910390f35b6101276103d6565b6040516101349190613a68565b60405180910390f35b61015760048036038101906101529190613c38565b610400565b005b610173600480360381019061016e9190613ccf565b6104eb565b6040516101809190613f11565b60405180910390f35b6101a3600480360381019061019e9190613c38565b61058b565b005b6101bf60048036038101906101ba9190613c38565b6105b9565b005b6101c9610b63565b6040516101d69190613a68565b60405180910390f35b6101f960048036038101906101f49190613f33565b610b8c565b005b610215600480360381019061021091906140fa565b610c80565b6040516102229190613a68565b60405180910390f35b610233610e5c565b604051610241929190614221565b60405180910390f35b610264600480360381019061025f9190613ccf565b6110e7565b60405161027191906143a5565b60405180910390f35b610294600480360381019061028f91906143c7565b6111e0565b6040516102a19190613a68565b60405180910390f35b6102c460048036038101906102bf919061448c565b6113d2565b005b6102e060048036038101906102db9190613a2c565b61150c565b6040516102ed919061461b565b60405180910390f35b600080600260008473ffffffffffffffffffffffffffffffffffffffff1673ffffffffffffffffffffffffffffffffffffffff16815260200190815260200160002060000160009054906101000a900473ffffffffffffffffffffffffffffffffffffffff169050600073ffffffffffffffffffffffffffffffffffffffff168173ffffffffffffffffffffffffffffffffffffffff16036103cd576040517f08c379a00000000000000000000000000000000000000000000000000000000081526004016103c49061469a565b60405180910390fd5b80915050919050565b6000600160009054906101000a900473ffffffffffffffffffffffffffffffffffffffff16905090565b600061040e868686866115e0565b90506000600260008373ffffffffffffffffffffffffffffffffffffffff1673ffffffffffffffffffffffffffffffffffffffff16815260200190815260200160002060000160009054906101000a900473ffffffffffffffffffffffffffffffffffffffff1690508073ffffffffffffffffffffffffffffffffffffffff1663a9910054846040518263ffffffff1660e01b81526004016104b091906146f3565b600060405180830381600087803b1580156104ca57600080fd5b505af11580156104de573d6000803e3d6000fd5b5050505050505050505050565b606060006104fb868686866115e0565b9050600073ffffffffffffffffffffffffffffffffffffffff168173ffffffffffffffffffffffffffffffffffffffff160361056c576040517f08c379a000000000000000000000000000000000000000000000000000000000815260040161056390614761565b60405180910390fd5b6105808160056116a390919063ffffffff16565b915050949350505050565b6000610599868686866115e0565b90506105b181836005611b289092919063ffffffff16565b505050505050565b60006105c7868686866115e0565b9050600073ffffffffffffffffffffffffffffffffffffffff16600560000160008373ffffffffffffffffffffffffffffffffffffffff1673ffffffffffffffffffffffffffffffffffffffff1681526020019081526020016000208360405161063191906147bd565b908152602001604051809103902060000160009054906101000a900473ffffffffffffffffffffffffffffffffffffffff1673ffffffffffffffffffffffffffffffffffffffff16036106b9576040517f08c379a00000000000000000000000000000000000000000000000000000000081526004016106b090614820565b60405180910390fd5b6000600260008373ffffffffffffffffffffffffffffffffffffffff1673ffffffffffffffffffffffffffffffffffffffff16815260200190815260200160002060010180546107089061486f565b90500361074a576040517f08c379a000000000000000000000000000000000000000000000000000000000815260040161074190614761565b60405180910390fd5b6000600260008373ffffffffffffffffffffffffffffffffffffffff1673ffffffffffffffffffffffffffffffffffffffff16815260200190815260200160002060000160009054906101000a900473ffffffffffffffffffffffffffffffffffffffff1690506000600560000160008473ffffffffffffffffffffffffffffffffffffffff1673ffffffffffffffffffffffffffffffffffffffff1681526020019081526020016000208460405161080391906147bd565b90815260200160405180910390206040518060a00160405290816000820160009054906101000a900473ffffffffffffffffffffffffffffffffffffffff1673ffffffffffffffffffffffffffffffffffffffff1673ffffffffffffffffffffffffffffffffffffffff1681526020016001820180546108829061486f565b80601f01602080910402602001604051908101604052809291908181526020018280546108ae9061486f565b80156108fb5780601f106108d0576101008083540402835291602001916108fb565b820191906000526020600020905b8154815290600101906020018083116108de57829003601f168201915b505050505081526020016002820180546109149061486f565b80601f01602080910402602001604051908101604052809291908181526020018280546109409061486f565b801561098d5780601f106109625761010080835404028352916020019161098d565b820191906000526020600020905b81548152906001019060200180831161097057829003601f168201915b505050505081526020016003820180546109a69061486f565b80601f01602080910402602001604051908101604052809291908181526020018280546109d29061486f565b8015610a1f5780601f106109f457610100808354040283529160200191610a1f565b820191906000526020600020905b815481529060010190602001808311610a0257829003601f168201915b50505050508152602001600482018054610a389061486f565b80601f0160208091040260200160405190810160405280929190818152602001828054610a649061486f565b8015610ab15780601f10610a8657610100808354040283529160200191610ab1565b820191906000526020600020905b815481529060010190602001808311610a9457829003601f168201915b50505050508152505090508173ffffffffffffffffffffffffffffffffffffffff1663384e477d826060015183608001518460200151856040015186600001516040518663ffffffff1660e01b8152600401610b119594939291906148a0565b600060405180830381600087803b158015610b2b57600080fd5b505af1158015610b3f573d6000803e3d6000fd5b50505050610b5983856005611b289092919063ffffffff16565b5050505050505050565b60008060009054906101000a900473ffffffffffffffffffffffffffffffffffffffff16905090565b6000610b9a858585856115e0565b90506000600260008373ffffffffffffffffffffffffffffffffffffffff1673ffffffffffffffffffffffffffffffffffffffff16815260200190815260200160002060000160009054906101000a900473ffffffffffffffffffffffffffffffffffffffff1690508073ffffffffffffffffffffffffffffffffffffffff1663d590e7ef8b8b8b8b6040518563ffffffff1660e01b8152600401610c42949392919061490f565b600060405180830381600087803b158015610c5c57600080fd5b505af1158015610c70573d6000803e3d6000fd5b5050505050505050505050505050565b600080600460009054906101000a900473ffffffffffffffffffffffffffffffffffffffff1673ffffffffffffffffffffffffffffffffffffffff1663918aaff533866040518363ffffffff1660e01b8152600401610ce0929190614970565b6020604051808303816000875af1158015610cff573d6000803e3d6000fd5b505050506040513d601f19601f82011682018060405250810190610d2391906149b5565b905060405180604001604052808273ffffffffffffffffffffffffffffffffffffffff16815260200184815250600260003373ffffffffffffffffffffffffffffffffffffffff1673ffffffffffffffffffffffffffffffffffffffff16815260200190815260200160002060008201518160000160006101000a81548173ffffffffffffffffffffffffffffffffffffffff021916908373ffffffffffffffffffffffffffffffffffffffff1602179055506020820151816001019081610deb9190614b98565b509050506003339080600181540180825580915050600190039060005260206000200160009091909190916101000a81548173ffffffffffffffffffffffffffffffffffffffff021916908373ffffffffffffffffffffffffffffffffffffffff1602179055508091505092915050565b60608060008054906101000a900473ffffffffffffffffffffffffffffffffffffffff1673ffffffffffffffffffffffffffffffffffffffff163373ffffffffffffffffffffffffffffffffffffffff161480610f065750600160009054906101000a900473ffffffffffffffffffffffffffffffffffffffff1673ffffffffffffffffffffffffffffffffffffffff163373ffffffffffffffffffffffffffffffffffffffff16145b610f45576040517f08c379a0000000000000000000000000000000000000000000000000000000008152600401610f3c90614cdc565b60405180910390fd5b606060005b600380549050811015611052576002600060038381548110610f6f57610f6e614cfc565b5b9060005260206000200160009054906101000a900473ffffffffffffffffffffffffffffffffffffffff1673ffffffffffffffffffffffffffffffffffffffff1673ffffffffffffffffffffffffffffffffffffffff16815260200190815260200160002060000160009054906101000a900473ffffffffffffffffffffffffffffffffffffffff1682828151811061100b5761100a614cfc565b5b602002602001019073ffffffffffffffffffffffffffffffffffffffff16908173ffffffffffffffffffffffffffffffffffffffff16815250508080600101915050610f4a565b50600381818054806020026020016040519081016040528092919081815260200182805480156110d757602002820191906000526020600020905b8160009054906101000a900473ffffffffffffffffffffffffffffffffffffffff1673ffffffffffffffffffffffffffffffffffffffff168152602001906001019080831161108d575b5050505050915092509250509091565b606060006110f7868686866115e0565b90506000600260008373ffffffffffffffffffffffffffffffffffffffff1673ffffffffffffffffffffffffffffffffffffffff16815260200190815260200160002060000160009054906101000a900473ffffffffffffffffffffffffffffffffffffffff1690508073ffffffffffffffffffffffffffffffffffffffff1663ff24b5d56040518163ffffffff1660e01b8152600401600060405180830381865afa1580156111ab573d6000803e3d6000fd5b505050506040513d6000823e3d601f19601f820116820180604052508101906111d49190614f87565b92505050949350505050565b6000806111ef87878787611d6a565b5090506000600460009054906101000a900473ffffffffffffffffffffffffffffffffffffffff1673ffffffffffffffffffffffffffffffffffffffff1663918aaff5838b6040518363ffffffff1660e01b8152600401611251929190614970565b6020604051808303816000875af1158015611270573d6000803e3d6000fd5b505050506040513d601f19601f8201168201806040525081019061129491906149b5565b905060405180604001604052808273ffffffffffffffffffffffffffffffffffffffff16815260200185815250600260008473ffffffffffffffffffffffffffffffffffffffff1673ffffffffffffffffffffffffffffffffffffffff16815260200190815260200160002060008201518160000160006101000a81548173ffffffffffffffffffffffffffffffffffffffff021916908373ffffffffffffffffffffffffffffffffffffffff160217905550602082015181600101908161135c9190614b98565b509050506003829080600181540180825580915050600190039060005260206000200160009091909190916101000a81548173ffffffffffffffffffffffffffffffffffffffff021916908373ffffffffffffffffffffffffffffffffffffffff16021790555080925050509695505050505050565b600073ffffffffffffffffffffffffffffffffffffffff168573ffffffffffffffffffffffffffffffffffffffff1603611441576040517f08c379a000000000000000000000000000000000000000000000000000000000815260040161143890614761565b60405180910390fd5b6000600260008773ffffffffffffffffffffffffffffffffffffffff1673ffffffffffffffffffffffffffffffffffffffff16815260200190815260200160002060010180546114909061486f565b9050036114d2576040517f08c379a00000000000000000000000000000000000000000000000000000000081526004016114c990614761565b60405180910390fd5b60006114e08a8a8a8a6115e0565b90506115008187878787876005611e7f909695949392919063ffffffff16565b50505050505050505050565b6060600260008373ffffffffffffffffffffffffffffffffffffffff1673ffffffffffffffffffffffffffffffffffffffff168152602001908152602001600020600101805461155b9061486f565b80601f01602080910402602001604051908101604052809291908181526020018280546115879061486f565b80156115d45780601f106115a9576101008083540402835291602001916115d4565b820191906000526020600020905b8154815290600101906020018083116115b757829003601f168201915b50505050509050919050565b6000806040518060400160405280601c81526020017f19457468657265756d205369676e6564204d6573736167653a0a33320000000081525090506000818760405160200161163092919061502d565b6040516020818303038152906040528051906020012090506001818787876040516000815260200160405260405161166b9493929190615073565b6020604051602081039080840390855afa15801561168d573d6000803e3d6000fd5b5050506020604051035192505050949350505050565b606060008360010160008473ffffffffffffffffffffffffffffffffffffffff1673ffffffffffffffffffffffffffffffffffffffff1681526020019081526020016000208054905067ffffffffffffffff81111561170557611704613b0d565b5b60405190808252806020026020018201604052801561173e57816020015b61172b6138f6565b8152602001906001900390816117235790505b50905060005b8460010160008573ffffffffffffffffffffffffffffffffffffffff1673ffffffffffffffffffffffffffffffffffffffff16815260200190815260200160002080549050811015611b1d578460000160008573ffffffffffffffffffffffffffffffffffffffff1673ffffffffffffffffffffffffffffffffffffffff1681526020019081526020016000208560010160008673ffffffffffffffffffffffffffffffffffffffff1673ffffffffffffffffffffffffffffffffffffffff168152602001908152602001600020828154811061182457611823614cfc565b5b9060005260206000200160405161183b9190615150565b90815260200160405180910390206040518060a00160405290816000820160009054906101000a900473ffffffffffffffffffffffffffffffffffffffff1673ffffffffffffffffffffffffffffffffffffffff1673ffffffffffffffffffffffffffffffffffffffff1681526020016001820180546118ba9061486f565b80601f01602080910402602001604051908101604052809291908181526020018280546118e69061486f565b80156119335780601f1061190857610100808354040283529160200191611933565b820191906000526020600020905b81548152906001019060200180831161191657829003601f168201915b5050505050815260200160028201805461194c9061486f565b80601f01602080910402602001604051908101604052809291908181526020018280546119789061486f565b80156119c55780601f1061199a576101008083540402835291602001916119c5565b820191906000526020600020905b8154815290600101906020018083116119a857829003601f168201915b505050505081526020016003820180546119de9061486f565b80601f0160208091040260200160405190810160405280929190818152602001828054611a0a9061486f565b8015611a575780601f10611a2c57610100808354040283529160200191611a57565b820191906000526020600020905b815481529060010190602001808311611a3a57829003601f168201915b50505050508152602001600482018054611a709061486f565b80601f0160208091040260200160405190810160405280929190818152602001828054611a9c9061486f565b8015611ae95780601f10611abe57610100808354040283529160200191611ae9565b820191906000526020600020905b815481529060010190602001808311611acc57829003601f168201915b505050505081525050828281518110611b0557611b04614cfc565b5b60200260200101819052508080600101915050611744565b508091505092915050565b8260000160008373ffffffffffffffffffffffffffffffffffffffff1673ffffffffffffffffffffffffffffffffffffffff16815260200190815260200160002081604051611b7791906147bd565b9081526020016040518091039020600080820160006101000a81549073ffffffffffffffffffffffffffffffffffffffff0219169055600182016000611bbd919061393b565b600282016000611bcd919061393b565b600382016000611bdd919061393b565b600482016000611bed919061393b565b505060005b8360010160008473ffffffffffffffffffffffffffffffffffffffff1673ffffffffffffffffffffffffffffffffffffffff16815260200190815260200160002080549050811015611d645781604051602001611c4f91906147bd565b604051602081830303815290604052805190602001208460010160008573ffffffffffffffffffffffffffffffffffffffff1673ffffffffffffffffffffffffffffffffffffffff1681526020019081526020016000208281548110611cb857611cb7614cfc565b5b90600052602060002001604051602001611cd29190615150565b6040516020818303038152906040528051906020012003611d57578360010160008473ffffffffffffffffffffffffffffffffffffffff1673ffffffffffffffffffffffffffffffffffffffff1681526020019081526020016000208181548110611d4057611d3f614cfc565b5b906000526020600020016000611d56919061393b565b5b8080600101915050611bf2565b50505050565b6000606060006040518060400160405280601c81526020017f19457468657265756d205369676e6564204d6573736167653a0a333200000000815250905060008188604051602001611dbd92919061502d565b604051602081830303815290604052805190602001209050600080611df98360001c601b8b611dec9190615196565b8a60001c8a60001c61212d565b915091506001838a8a8a60405160008152602001604052604051611e209493929190615073565b6020604051602081039080840390855afa158015611e42573d6000803e3d6000fd5b505050602060405103518282604051602001611e5f9291906151ec565b604051602081830303815290604052955095505050505094509492505050565b600073ffffffffffffffffffffffffffffffffffffffff168760000160008773ffffffffffffffffffffffffffffffffffffffff1673ffffffffffffffffffffffffffffffffffffffff16815260200190815260200160002085604051611ee691906147bd565b908152602001604051809103902060000160009054906101000a900473ffffffffffffffffffffffffffffffffffffffff1673ffffffffffffffffffffffffffffffffffffffff1614611f6e576040517f08c379a0000000000000000000000000000000000000000000000000000000008152600401611f6590615264565b60405180910390fd5b60006040518060a001604052808873ffffffffffffffffffffffffffffffffffffffff168152602001868152602001858152602001848152602001838152509050808860000160008873ffffffffffffffffffffffffffffffffffffffff1673ffffffffffffffffffffffffffffffffffffffff16815260200190815260200160002086604051611fff91906147bd565b908152602001604051809103902060008201518160000160006101000a81548173ffffffffffffffffffffffffffffffffffffffff021916908373ffffffffffffffffffffffffffffffffffffffff160217905550602082015181600101908161206991906152ca565b50604082015181600201908161207f91906152ca565b50606082015181600301908161209591906152ca565b5060808201518160040190816120ab91906152ca565b509050508760010160008773ffffffffffffffffffffffffffffffffffffffff1673ffffffffffffffffffffffffffffffffffffffff1681526020019081526020016000208590806001815401808255809150506001900390600052602060002001600090919091909150908161212291906152ca565b505050505050505050565b60008060007ffffffffffffffffffffffffffffffffffffffffffffffffffffffffefffffc2f806121615761216061539c565b5b60018760ff16901c60ff167ffffffffffffffffffffffffffffffffffffffffffffffffffffffffefffffc2f61219791906153cb565b860890507ffffffffffffffffffffffffffffffffffffffffffffffffffffffffefffffc2f8111806121e857507ffffffffffffffffffffffffffffffffebaaedce6af48a03bbfd25e8cd036414184115b8061221257507ffffffffffffffffffffffffffffffffebaaedce6af48a03bbfd25e8cd036414185115b8061221d5750600084145b806122285750600085145b80612236575060018660ff16115b15612248576000809250925050612536565b6000612274867ffffffffffffffffffffffffffffffffebaaedce6af48a03bbfd25e8cd036414161253f565b905060007ffffffffffffffffffffffffffffffffffffffffffffffffffffffffefffffc2f806122a7576122a661539c565b5b7ffffffffffffffffffffffffffffffffffffffffffffffffffffffffefffffc2f806122d6576122d561539c565b5b60077ffffffffffffffffffffffffffffffffffffffffffffffffffffffffefffffc2f806123075761230661539c565b5b60008709087ffffffffffffffffffffffffffffffffffffffffffffffffffffffffefffffc2f8061233b5761233a61539c565b5b7ffffffffffffffffffffffffffffffffffffffffffffffffffffffffefffffc2f8061236a5761236961539c565b5b86870986090890506123b481600460017ffffffffffffffffffffffffffffffffffffffffffffffffffffffffefffffc2f6123a5919061540d565b6123af9190615441565b61262b565b9050600080600160028b60ff16856123cc919061540d565b6123d6919061540d565b161461240d57817ffffffffffffffffffffffffffffffffffffffffffffffffffffffffefffffc2f6124089190615472565b61240f565b815b905060008060006124bf7ffffffffffffffffffffffffffffffffebaaedce6af48a03bbfd25e8cd0364141806124485761244761539c565b5b8e7ffffffffffffffffffffffffffffffffebaaedce6af48a03bbfd25e8cd03641416124749190615472565b88097f79be667ef9dcbbac55a06295ce870b07029bfcdb2dce28d959f2815b16f817987f483ada7726a3c4655da4fbfc0e1108a8fd17b448a68554199c47d08ffb10d4b860016127df565b92509250925060008060006125087ffffffffffffffffffffffffffffffffebaaedce6af48a03bbfd25e8cd0364141806124fc576124fb61539c565b5b8e8b098b8960016127df565b92509250925060008061251f888888888888612879565b9150915081819d509d505050505050505050505050505b94509492505050565b60008083141580156125515750818314155b801561255e575060008214155b61259d576040517f08c379a0000000000000000000000000000000000000000000000000000000008152600401612594906154f2565b60405180910390fd5b60008060019050600084905060005b6000871461261e5786826125c09190615441565b90508286806125d2576125d161539c565b5b87806125e1576125e061539c565b5b858409886125ef9190615472565b8608809450819550505086878261260691906153cb565b836126119190615472565b80985081935050506125ac565b8394505050505092915050565b600080830361263d57600090506127d9565b6000820361264e57600190506127d9565b60006001905060007f800000000000000000000000000000000000000000000000000000000000000090505b60008111156127d3577ffffffffffffffffffffffffffffffffffffffffffffffffffffffffefffffc2f8185161515860a7ffffffffffffffffffffffffffffffffffffffffffffffffffffffffefffffc2f8485090991507ffffffffffffffffffffffffffffffffffffffffffffffffffffffffefffffc2f6002820485161515860a7ffffffffffffffffffffffffffffffffffffffffffffffffffffffffefffffc2f8485090991507ffffffffffffffffffffffffffffffffffffffffffffffffffffffffefffffc2f6004820485161515860a7ffffffffffffffffffffffffffffffffffffffffffffffffffffffffefffffc2f8485090991507ffffffffffffffffffffffffffffffffffffffffffffffffffffffffefffffc2f6008820485161515860a7ffffffffffffffffffffffffffffffffffffffffffffffffffffffffefffffc2f84850909915060108104905061267a565b81925050505b92915050565b60008060008087036127f95785858592509250925061286f565b60008790506000806000600190505b600084146128615760006001851614612836576128298383838d8d8d612925565b8093508194508295505050505b6002846128439190615441565b93506128508a8a8a613363565b809a50819b50829c50505050612808565b828282965096509650505050505b9450945094915050565b6000806000806000878b036128ec5760007ffffffffffffffffffffffffffffffffffffffffffffffffffffffffefffffc2f806128b9576128b861539c565b5b888c08036128d0576000809450945050505061291a565b6128db8b8b8b613363565b809350819450829550505050612907565b6128fa8b8b8b8b8b8b612925565b8093508194508295505050505b6129128383836137e0565b945094505050505b965096945050505050565b600080600080891480156129395750600088145b1561294c57858585925092509250613357565b60008614801561295c5750600085145b1561296f57888888925092509250613357565b61297761397b565b7ffffffffffffffffffffffffffffffffffffffffffffffffffffffffefffffc2f806129a6576129a561539c565b5b888909816000600481106129bd576129bc614cfc565b5b6020020181815250507ffffffffffffffffffffffffffffffffffffffffffffffffffffffffefffffc2f806129f5576129f461539c565b5b81600060048110612a0957612a08614cfc565b5b6020020151890981600160048110612a2457612a23614cfc565b5b6020020181815250507ffffffffffffffffffffffffffffffffffffffffffffffffffffffffefffffc2f80612a5c57612a5b61539c565b5b85860981600260048110612a7357612a72614cfc565b5b6020020181815250507ffffffffffffffffffffffffffffffffffffffffffffffffffffffffefffffc2f80612aab57612aaa61539c565b5b81600260048110612abf57612abe614cfc565b5b6020020151860981600360048110612ada57612ad9614cfc565b5b60200201818152505060405180608001604052807ffffffffffffffffffffffffffffffffffffffffffffffffffffffffefffffc2f80612b1d57612b1c61539c565b5b83600260048110612b3157612b30614cfc565b5b60200201518d0981526020017ffffffffffffffffffffffffffffffffffffffffffffffffffffffffefffffc2f80612b6c57612b6b61539c565b5b83600360048110612b8057612b7f614cfc565b5b60200201518c0981526020017ffffffffffffffffffffffffffffffffffffffffffffffffffffffffefffffc2f80612bbb57612bba61539c565b5b83600060048110612bcf57612bce614cfc565b5b60200201518a0981526020017ffffffffffffffffffffffffffffffffffffffffffffffffffffffffefffffc2f80612c0a57612c0961539c565b5b83600160048110612c1e57612c1d614cfc565b5b60200201518909815250905080600260048110612c3e57612c3d614cfc565b5b602002015181600060048110612c5757612c56614cfc565b5b6020020151141580612c99575080600360048110612c7857612c77614cfc565b5b602002015181600160048110612c9157612c90614cfc565b5b602002015114155b612cd8576040517f08c379a0000000000000000000000000000000000000000000000000000000008152600401612ccf9061555e565b60405180910390fd5b612ce061397b565b7ffffffffffffffffffffffffffffffffffffffffffffffffffffffffefffffc2f80612d0f57612d0e61539c565b5b82600060048110612d2357612d22614cfc565b5b60200201517ffffffffffffffffffffffffffffffffffffffffffffffffffffffffefffffc2f612d539190615472565b83600260048110612d6757612d66614cfc565b5b60200201510881600060048110612d8157612d80614cfc565b5b6020020181815250507ffffffffffffffffffffffffffffffffffffffffffffffffffffffffefffffc2f80612db957612db861539c565b5b82600160048110612dcd57612dcc614cfc565b5b60200201517ffffffffffffffffffffffffffffffffffffffffffffffffffffffffefffffc2f612dfd9190615472565b83600360048110612e1157612e10614cfc565b5b60200201510881600160048110612e2b57612e2a614cfc565b5b6020020181815250507ffffffffffffffffffffffffffffffffffffffffffffffffffffffffefffffc2f80612e6357612e6261539c565b5b81600060048110612e7757612e76614cfc565b5b602002015182600060048110612e9057612e8f614cfc565b5b60200201510981600260048110612eaa57612ea9614cfc565b5b6020020181815250507ffffffffffffffffffffffffffffffffffffffffffffffffffffffffefffffc2f80612ee257612ee161539c565b5b81600060048110612ef657612ef5614cfc565b5b602002015182600260048110612f0f57612f0e614cfc565b5b60200201510981600360048110612f2957612f28614cfc565b5b60200201818152505060007ffffffffffffffffffffffffffffffffffffffffffffffffffffffffefffffc2f80612f6357612f6261539c565b5b82600360048110612f7757612f76614cfc565b5b60200201517ffffffffffffffffffffffffffffffffffffffffffffffffffffffffefffffc2f612fa79190615472565b7ffffffffffffffffffffffffffffffffffffffffffffffffffffffffefffffc2f80612fd657612fd561539c565b5b84600160048110612fea57612fe9614cfc565b5b60200201518560016004811061300357613002614cfc565b5b6020020151090890507ffffffffffffffffffffffffffffffffffffffffffffffffffffffffefffffc2f8061303b5761303a61539c565b5b7ffffffffffffffffffffffffffffffffffffffffffffffffffffffffefffffc2f8061306a5761306961539c565b5b7ffffffffffffffffffffffffffffffffffffffffffffffffffffffffefffffc2f806130995761309861539c565b5b846002600481106130ad576130ac614cfc565b5b6020020151866000600481106130c6576130c5614cfc565b5b6020020151096002097ffffffffffffffffffffffffffffffffffffffffffffffffffffffffefffffc2f6130fa9190615472565b8208905060007ffffffffffffffffffffffffffffffffffffffffffffffffffffffffefffffc2f8061312f5761312e61539c565b5b7ffffffffffffffffffffffffffffffffffffffffffffffffffffffffefffffc2f8061315e5761315d61539c565b5b837ffffffffffffffffffffffffffffffffffffffffffffffffffffffffefffffc2f61318a9190615472565b7ffffffffffffffffffffffffffffffffffffffffffffffffffffffffefffffc2f806131b9576131b861539c565b5b866002600481106131cd576131cc614cfc565b5b6020020151886000600481106131e6576131e5614cfc565b5b602002015109088460016004811061320157613200614cfc565b5b60200201510990507ffffffffffffffffffffffffffffffffffffffffffffffffffffffffefffffc2f806132385761323761539c565b5b7ffffffffffffffffffffffffffffffffffffffffffffffffffffffffefffffc2f806132675761326661539c565b5b8460036004811061327b5761327a614cfc565b5b60200201518660016004811061329457613293614cfc565b5b6020020151097ffffffffffffffffffffffffffffffffffffffffffffffffffffffffefffffc2f6132c59190615472565b8208905060007ffffffffffffffffffffffffffffffffffffffffffffffffffffffffefffffc2f806132fa576132f961539c565b5b7ffffffffffffffffffffffffffffffffffffffffffffffffffffffffefffffc2f806133295761332861539c565b5b8a8e09856000600481106133405761333f614cfc565b5b602002015109905082828297509750975050505050505b96509650969350505050565b600080600080840361337d578585859250925092506137d7565b60007ffffffffffffffffffffffffffffffffffffffffffffffffffffffffefffffc2f806133ae576133ad61539c565b5b878809905060007ffffffffffffffffffffffffffffffffffffffffffffffffffffffffefffffc2f806133e4576133e361539c565b5b878809905060007ffffffffffffffffffffffffffffffffffffffffffffffffffffffffefffffc2f8061341a5761341961539c565b5b878809905060007ffffffffffffffffffffffffffffffffffffffffffffffffffffffffefffffc2f806134505761344f61539c565b5b7ffffffffffffffffffffffffffffffffffffffffffffffffffffffffefffffc2f8061347f5761347e61539c565b5b848c09600409905060007ffffffffffffffffffffffffffffffffffffffffffffffffffffffffefffffc2f806134b8576134b761539c565b5b7ffffffffffffffffffffffffffffffffffffffffffffffffffffffffefffffc2f806134e7576134e661539c565b5b7ffffffffffffffffffffffffffffffffffffffffffffffffffffffffefffffc2f806135165761351561539c565b5b8586096000097ffffffffffffffffffffffffffffffffffffffffffffffffffffffffefffffc2f8061354b5761354a61539c565b5b876003090890507ffffffffffffffffffffffffffffffffffffffffffffffffffffffffefffffc2f806135815761358061539c565b5b7ffffffffffffffffffffffffffffffffffffffffffffffffffffffffefffffc2f806135b0576135af61539c565b5b8384087ffffffffffffffffffffffffffffffffffffffffffffffffffffffffefffffc2f6135de9190615472565b7ffffffffffffffffffffffffffffffffffffffffffffffffffffffffefffffc2f8061360d5761360c61539c565b5b8384090894507ffffffffffffffffffffffffffffffffffffffffffffffffffffffffefffffc2f806136425761364161539c565b5b7ffffffffffffffffffffffffffffffffffffffffffffffffffffffffefffffc2f806136715761367061539c565b5b7ffffffffffffffffffffffffffffffffffffffffffffffffffffffffefffffc2f806136a05761369f61539c565b5b8687096008097ffffffffffffffffffffffffffffffffffffffffffffffffffffffffefffffc2f6136d19190615472565b7ffffffffffffffffffffffffffffffffffffffffffffffffffffffffefffffc2f80613700576136ff61539c565b5b7ffffffffffffffffffffffffffffffffffffffffffffffffffffffffefffffc2f8061372f5761372e61539c565b5b887ffffffffffffffffffffffffffffffffffffffffffffffffffffffffefffffc2f61375b9190615472565b860884090893507ffffffffffffffffffffffffffffffffffffffffffffffffffffffffefffffc2f806137915761379061539c565b5b7ffffffffffffffffffffffffffffffffffffffffffffffffffffffffefffffc2f806137c0576137bf61539c565b5b8a8c09600209925084848497509750975050505050505b93509350939050565b600080600061380f847ffffffffffffffffffffffffffffffffffffffffffffffffffffffffefffffc2f61253f565b905060007ffffffffffffffffffffffffffffffffffffffffffffffffffffffffefffffc2f806138425761384161539c565b5b828309905060007ffffffffffffffffffffffffffffffffffffffffffffffffffffffffefffffc2f806138785761387761539c565b5b828909905060007ffffffffffffffffffffffffffffffffffffffffffffffffffffffffefffffc2f806138ae576138ad61539c565b5b7ffffffffffffffffffffffffffffffffffffffffffffffffffffffffefffffc2f806138dd576138dc61539c565b5b8486098909905081819550955050505050935093915050565b6040518060a00160405280600073ffffffffffffffffffffffffffffffffffffffff168152602001606081526020016060815260200160608152602001606081525090565b5080546139479061486f565b6000825580601f106139595750613978565b601f016020900490600052602060002090810190613977919061399d565b5b50565b6040518060800160405280600490602082028036833780820191505090505090565b5b808211156139b657600081600090555060010161399e565b5090565b6000604051905090565b600080fd5b600080fd5b600073ffffffffffffffffffffffffffffffffffffffff82169050919050565b60006139f9826139ce565b9050919050565b613a09816139ee565b8114613a1457600080fd5b50565b600081359050613a2681613a00565b92915050565b600060208284031215613a4257613a416139c4565b5b6000613a5084828501613a17565b91505092915050565b613a62816139ee565b82525050565b6000602082019050613a7d6000830184613a59565b92915050565b6000819050919050565b613a9681613a83565b8114613aa157600080fd5b50565b600081359050613ab381613a8d565b92915050565b600060ff82169050919050565b613acf81613ab9565b8114613ada57600080fd5b50565b600081359050613aec81613ac6565b92915050565b600080fd5b600080fd5b6000601f19601f8301169050919050565b7f4e487b7100000000000000000000000000000000000000000000000000000000600052604160045260246000fd5b613b4582613afc565b810181811067ffffffffffffffff82111715613b6457613b63613b0d565b5b80604052505050565b6000613b776139ba565b9050613b838282613b3c565b919050565b600067ffffffffffffffff821115613ba357613ba2613b0d565b5b613bac82613afc565b9050602081019050919050565b82818337600083830152505050565b6000613bdb613bd684613b88565b613b6d565b905082815260208101848484011115613bf757613bf6613af7565b5b613c02848285613bb9565b509392505050565b600082601f830112613c1f57613c1e613af2565b5b8135613c2f848260208601613bc8565b91505092915050565b600080600080600060a08688031215613c5457613c536139c4565b5b6000613c6288828901613aa4565b9550506020613c7388828901613add565b9450506040613c8488828901613aa4565b9350506060613c9588828901613aa4565b925050608086013567ffffffffffffffff811115613cb657613cb56139c9565b5b613cc288828901613c0a565b9150509295509295909350565b60008060008060808587031215613ce957613ce86139c4565b5b6000613cf787828801613aa4565b9450506020613d0887828801613add565b9350506040613d1987828801613aa4565b9250506060613d2a87828801613aa4565b91505092959194509250565b600081519050919050565b600082825260208201905092915050565b6000819050602082019050919050565b613d6b816139ee565b82525050565b600081519050919050565b600082825260208201905092915050565b60005b83811015613dab578082015181840152602081019050613d90565b60008484015250505050565b6000613dc282613d71565b613dcc8185613d7c565b9350613ddc818560208601613d8d565b613de581613afc565b840191505092915050565b600060a083016000830151613e086000860182613d62565b5060208301518482036020860152613e208282613db7565b91505060408301518482036040860152613e3a8282613db7565b91505060608301518482036060860152613e548282613db7565b91505060808301518482036080860152613e6e8282613db7565b9150508091505092915050565b6000613e878383613df0565b905092915050565b6000602082019050919050565b6000613ea782613d36565b613eb18185613d41565b935083602082028501613ec385613d52565b8060005b85811015613eff5784840389528151613ee08582613e7b565b9450613eeb83613e8f565b925060208a01995050600181019050613ec7565b50829750879550505050505092915050565b60006020820190508181036000830152613f2b8184613e9c565b905092915050565b600080600080600080600080610100898b031215613f5457613f536139c4565b5b600089013567ffffffffffffffff811115613f7257613f716139c9565b5b613f7e8b828c01613c0a565b985050602089013567ffffffffffffffff811115613f9f57613f9e6139c9565b5b613fab8b828c01613c0a565b975050604089013567ffffffffffffffff811115613fcc57613fcb6139c9565b5b613fd88b828c01613c0a565b965050606089013567ffffffffffffffff811115613ff957613ff86139c9565b5b6140058b828c01613c0a565b95505060806140168b828c01613aa4565b94505060a06140278b828c01613add565b93505060c06140388b828c01613aa4565b92505060e06140498b828c01613aa4565b9150509295985092959890939650565b600067ffffffffffffffff82111561407457614073613b0d565b5b61407d82613afc565b9050602081019050919050565b600061409d61409884614059565b613b6d565b9050828152602081018484840111156140b9576140b8613af7565b5b6140c4848285613bb9565b509392505050565b600082601f8301126140e1576140e0613af2565b5b81356140f184826020860161408a565b91505092915050565b60008060408385031215614111576141106139c4565b5b600083013567ffffffffffffffff81111561412f5761412e6139c9565b5b61413b85828601613c0a565b925050602083013567ffffffffffffffff81111561415c5761415b6139c9565b5b614168858286016140cc565b9150509250929050565b600081519050919050565b600082825260208201905092915050565b6000819050602082019050919050565b60006141aa8383613d62565b60208301905092915050565b6000602082019050919050565b60006141ce82614172565b6141d8818561417d565b93506141e38361418e565b8060005b838110156142145781516141fb888261419e565b9750614206836141b6565b9250506001810190506141e7565b5085935050505092915050565b6000604082019050818103600083015261423b81856141c3565b9050818103602083015261424f81846141c3565b90509392505050565b600081519050919050565b600082825260208201905092915050565b6000819050602082019050919050565b600060a08301600083015184820360008601526142a18282613db7565b915050602083015184820360208601526142bb8282613db7565b915050604083015184820360408601526142d58282613db7565b915050606083015184820360608601526142ef8282613db7565b91505060808301516143046080860182613d62565b508091505092915050565b600061431b8383614284565b905092915050565b6000602082019050919050565b600061433b82614258565b6143458185614263565b93508360208202850161435785614274565b8060005b858110156143935784840389528151614374858261430f565b945061437f83614323565b925060208a0199505060018101905061435b565b50829750879550505050505092915050565b600060208201905081810360008301526143bf8184614330565b905092915050565b60008060008060008060c087890312156143e4576143e36139c4565b5b600087013567ffffffffffffffff811115614402576144016139c9565b5b61440e89828a01613c0a565b965050602061441f89828a01613aa4565b955050604061443089828a01613add565b945050606061444189828a01613aa4565b935050608061445289828a01613aa4565b92505060a087013567ffffffffffffffff811115614473576144726139c9565b5b61447f89828a016140cc565b9150509295509295509295565b60008060008060008060008060006101208a8c0312156144af576144ae6139c4565b5b60006144bd8c828d01613aa4565b99505060206144ce8c828d01613add565b98505060406144df8c828d01613aa4565b97505060606144f08c828d01613aa4565b96505060806145018c828d01613a17565b95505060a08a013567ffffffffffffffff811115614522576145216139c9565b5b61452e8c828d01613c0a565b94505060c08a013567ffffffffffffffff81111561454f5761454e6139c9565b5b61455b8c828d01613c0a565b93505060e08a013567ffffffffffffffff81111561457c5761457b6139c9565b5b6145888c828d01613c0a565b9250506101008a013567ffffffffffffffff8111156145aa576145a96139c9565b5b6145b68c828d01613c0a565b9150509295985092959850929598565b600081519050919050565b600082825260208201905092915050565b60006145ed826145c6565b6145f781856145d1565b9350614607818560208601613d8d565b61461081613afc565b840191505092915050565b6000602082019050818103600083015261463581846145e2565b905092915050565b600082825260208201905092915050565b7f646f6573206e6f74206578697374000000000000000000000000000000000000600082015250565b6000614684600e8361463d565b915061468f8261464e565b602082019050919050565b600060208201905081810360008301526146b381614677565b9050919050565b60006146c582613d71565b6146cf818561463d565b93506146df818560208601613d8d565b6146e881613afc565b840191505092915050565b6000602082019050818103600083015261470d81846146ba565b905092915050565b7f4552523639310000000000000000000000000000000000000000000000000000600082015250565b600061474b60068361463d565b915061475682614715565b602082019050919050565b6000602082019050818103600083015261477a8161473e565b9050919050565b600081905092915050565b600061479782613d71565b6147a18185614781565b93506147b1818560208601613d8d565b80840191505092915050565b60006147c9828461478c565b915081905092915050565b7f4552523231340000000000000000000000000000000000000000000000000000600082015250565b600061480a60068361463d565b9150614815826147d4565b602082019050919050565b60006020820190508181036000830152614839816147fd565b9050919050565b7f4e487b7100000000000000000000000000000000000000000000000000000000600052602260045260246000fd5b6000600282049050600182168061488757607f821691505b60208210810361489a57614899614840565b5b50919050565b600060a08201905081810360008301526148ba81886146ba565b905081810360208301526148ce81876146ba565b905081810360408301526148e281866146ba565b905081810360608301526148f681856146ba565b90506149056080830184613a59565b9695505050505050565b6000608082019050818103600083015261492981876146ba565b9050818103602083015261493d81866146ba565b9050818103604083015261495181856146ba565b9050818103606083015261496581846146ba565b905095945050505050565b60006040820190506149856000830185613a59565b818103602083015261499781846146ba565b90509392505050565b6000815190506149af81613a00565b92915050565b6000602082840312156149cb576149ca6139c4565b5b60006149d9848285016149a0565b91505092915050565b60008190508160005260206000209050919050565b60006020601f8301049050919050565b600082821b905092915050565b600060088302614a447fffffffffffffffffffffffffffffffffffffffffffffffffffffffffffffffff82614a07565b614a4e8683614a07565b95508019841693508086168417925050509392505050565b6000819050919050565b6000819050919050565b6000614a95614a90614a8b84614a66565b614a70565b614a66565b9050919050565b6000819050919050565b614aaf83614a7a565b614ac3614abb82614a9c565b848454614a14565b825550505050565b600090565b614ad8614acb565b614ae3818484614aa6565b505050565b5b81811015614b0757614afc600082614ad0565b600181019050614ae9565b5050565b601f821115614b4c57614b1d816149e2565b614b26846149f7565b81016020851015614b35578190505b614b49614b41856149f7565b830182614ae8565b50505b505050565b600082821c905092915050565b6000614b6f60001984600802614b51565b1980831691505092915050565b6000614b888383614b5e565b9150826002028217905092915050565b614ba1826145c6565b67ffffffffffffffff811115614bba57614bb9613b0d565b5b614bc4825461486f565b614bcf828285614b0b565b600060209050601f831160018114614c025760008415614bf0578287015190505b614bfa8582614b7c565b865550614c62565b601f198416614c10866149e2565b60005b82811015614c3857848901518255600182019150602085019450602081019050614c13565b86831015614c555784890151614c51601f891682614b5e565b8355505b6001600288020188555050505b505050505050565b7f4f776e61626c65236f6e6c794f776e65724f7243726561746f723a2053454e4460008201527f45525f49535f4e4f545f4f574e45525f4f525f43524541544f52000000000000602082015250565b6000614cc6603a8361463d565b9150614cd182614c6a565b604082019050919050565b60006020820190508181036000830152614cf581614cb9565b9050919050565b7f4e487b7100000000000000000000000000000000000000000000000000000000600052603260045260246000fd5b600067ffffffffffffffff821115614d4657614d45613b0d565b5b602082029050602081019050919050565b600080fd5b600080fd5b600080fd5b6000614d79614d7484613b88565b613b6d565b905082815260208101848484011115614d9557614d94613af7565b5b614da0848285613d8d565b509392505050565b600082601f830112614dbd57614dbc613af2565b5b8151614dcd848260208601614d66565b91505092915050565b600060a08284031215614dec57614deb614d5c565b5b614df660a0613b6d565b9050600082015167ffffffffffffffff811115614e1657614e15614d61565b5b614e2284828501614da8565b600083015250602082015167ffffffffffffffff811115614e4657614e45614d61565b5b614e5284828501614da8565b602083015250604082015167ffffffffffffffff811115614e7657614e75614d61565b5b614e8284828501614da8565b604083015250606082015167ffffffffffffffff811115614ea657614ea5614d61565b5b614eb284828501614da8565b6060830152506080614ec6848285016149a0565b60808301525092915050565b6000614ee5614ee084614d2b565b613b6d565b90508083825260208201905060208402830185811115614f0857614f07614d57565b5b835b81811015614f4f57805167ffffffffffffffff811115614f2d57614f2c613af2565b5b808601614f3a8982614dd6565b85526020850194505050602081019050614f0a565b5050509392505050565b600082601f830112614f6e57614f6d613af2565b5b8151614f7e848260208601614ed2565b91505092915050565b600060208284031215614f9d57614f9c6139c4565b5b600082015167ffffffffffffffff811115614fbb57614fba6139c9565b5b614fc784828501614f59565b91505092915050565b600081905092915050565b6000614fe6826145c6565b614ff08185614fd0565b9350615000818560208601613d8d565b80840191505092915050565b6000819050919050565b61502761502282613a83565b61500c565b82525050565b60006150398285614fdb565b91506150458284615016565b6020820191508190509392505050565b61505e81613a83565b82525050565b61506d81613ab9565b82525050565b60006080820190506150886000830187615055565b6150956020830186615064565b6150a26040830185615055565b6150af6060830184615055565b95945050505050565b60008190508160005260206000209050919050565b600081546150da8161486f565b6150e48186614781565b945060018216600081146150ff576001811461511457615147565b60ff1983168652811515820286019350615147565b61511d856150b8565b60005b8381101561513f57815481890152600182019150602081019050615120565b838801955050505b50505092915050565b600061515c82846150cd565b915081905092915050565b7f4e487b7100000000000000000000000000000000000000000000000000000000600052601160045260246000fd5b60006151a182613ab9565b91506151ac83613ab9565b9250828203905060ff8111156151c5576151c4615167565b5b92915050565b6000819050919050565b6151e66151e182614a66565b6151cb565b82525050565b60006151f882856151d5565b60208201915061520882846151d5565b6020820191508190509392505050565b7f5352414578697374730000000000000000000000000000000000000000000000600082015250565b600061524e60098361463d565b915061525982615218565b602082019050919050565b6000602082019050818103600083015261527d81615241565b9050919050565b601f8211156152c557615296816150b8565b61529f846149f7565b810160208510156152ae578190505b6152c26152ba856149f7565b830182614ae8565b50505b505050565b6152d382613d71565b67ffffffffffffffff8111156152ec576152eb613b0d565b5b6152f6825461486f565b615301828285615284565b600060209050601f8311600181146153345760008415615322578287015190505b61532c8582614b7c565b865550615394565b601f198416615342866150b8565b60005b8281101561536a57848901518255600182019150602085019450602081019050615345565b868310156153875784890151615383601f891682614b5e565b8355505b6001600288020188555050505b505050505050565b7f4e487b7100000000000000000000000000000000000000000000000000000000600052601260045260246000fd5b60006153d682614a66565b91506153e183614a66565b92508282026153ef81614a66565b9150828204841483151761540657615405615167565b5b5092915050565b600061541882614a66565b915061542383614a66565b925082820190508082111561543b5761543a615167565b5b92915050565b600061544c82614a66565b915061545783614a66565b9250826154675761546661539c565b5b828204905092915050565b600061547d82614a66565b915061548883614a66565b92508282039050818111156154a05761549f615167565b5b92915050565b7f496e76616c6964206e756d626572000000000000000000000000000000000000600082015250565b60006154dc600e8361463d565b91506154e7826154a6565b602082019050919050565b6000602082019050818103600083015261550b816154cf565b9050919050565b7f557365206a6163446f75626c652066756e6374696f6e20696e73746561640000600082015250565b6000615548601e8361463d565b915061555382615512565b602082019050919050565b600060208201905081810360008301526155778161553b565b905091905056fea2646970667358221220c9f1c2868a5c3164b4547fccbfa0d5a3c63c68f6147559dbb8f8e4188871cdb064736f6c63430008180033","opcodes":"PUSH1 0x80 PUSH1 0x40 MSTORE CALLVALUE DUP1 ISZERO PUSH3 0x11 JUMPI PUSH1 0x0 DUP1 REVERT JUMPDEST POP PUSH1 0x40 MLOAD PUSH3 0x57BF CODESIZE SUB DUP1 PUSH3 0x57BF DUP4 CODECOPY DUP2 DUP2 ADD PUSH1 0x40 MSTORE DUP2 ADD SWAP1 PUSH3 0x37 SWAP2 SWAP1 PUSH3 0x1C9 JUMP JUMPDEST CALLER CALLER DUP1 PUSH1 0x0 DUP1 PUSH2 0x100 EXP DUP2 SLOAD DUP2 PUSH20 0xFFFFFFFFFFFFFFFFFFFFFFFFFFFFFFFFFFFFFFFF MUL NOT AND SWAP1 DUP4 PUSH20 0xFFFFFFFFFFFFFFFFFFFFFFFFFFFFFFFFFFFFFFFF AND MUL OR SWAP1 SSTORE POP DUP2 PUSH1 0x1 PUSH1 0x0 PUSH2 0x100 EXP DUP2 SLOAD DUP2 PUSH20 0xFFFFFFFFFFFFFFFFFFFFFFFFFFFFFFFFFFFFFFFF MUL NOT AND SWAP1 DUP4 PUSH20 0xFFFFFFFFFFFFFFFFFFFFFFFFFFFFFFFFFFFFFFFF AND MUL OR SWAP1 SSTORE POP DUP1 PUSH20 0xFFFFFFFFFFFFFFFFFFFFFFFFFFFFFFFFFFFFFFFF AND PUSH1 0x0 PUSH20 0xFFFFFFFFFFFFFFFFFFFFFFFFFFFFFFFFFFFFFFFF AND PUSH32 0x8BE0079C531659141344CD1FD0A4F28419497F9722A3DAAFE3B4186F6B6457E0 PUSH1 0x40 MLOAD PUSH1 0x40 MLOAD DUP1 SWAP2 SUB SWAP1 LOG3 POP POP DUP1 PUSH1 0x4 PUSH1 0x0 PUSH2 0x100 EXP DUP2 SLOAD DUP2 PUSH20 0xFFFFFFFFFFFFFFFFFFFFFFFFFFFFFFFFFFFFFFFF MUL NOT AND SWAP1 DUP4 PUSH20 0xFFFFFFFFFFFFFFFFFFFFFFFFFFFFFFFFFFFFFFFF AND MUL OR SWAP1 SSTORE POP POP PUSH3 0x1FB JUMP JUMPDEST PUSH1 0x0 DUP1 REVERT JUMPDEST PUSH1 0x0 PUSH20 0xFFFFFFFFFFFFFFFFFFFFFFFFFFFFFFFFFFFFFFFF DUP3 AND SWAP1 POP SWAP2 SWAP1 POP JUMP JUMPDEST PUSH1 0x0 PUSH3 0x191 DUP3 PUSH3 0x164 JUMP JUMPDEST SWAP1 POP SWAP2 SWAP1 POP JUMP JUMPDEST PUSH3 0x1A3 DUP2 PUSH3 0x184 JUMP JUMPDEST DUP2 EQ PUSH3 0x1AF JUMPI PUSH1 0x0 DUP1 REVERT JUMPDEST POP JUMP JUMPDEST PUSH1 0x0 DUP2 MLOAD SWAP1 POP PUSH3 0x1C3 DUP2 PUSH3 0x198 JUMP JUMPDEST SWAP3 SWAP2 POP POP JUMP JUMPDEST PUSH1 0x0 PUSH1 0x20 DUP3 DUP5 SUB SLT ISZERO PUSH3 0x1E2 JUMPI PUSH3 0x1E1 PUSH3 0x15F JUMP JUMPDEST JUMPDEST PUSH1 0x0 PUSH3 0x1F2 DUP5 DUP3 DUP6 ADD PUSH3 0x1B2 JUMP JUMPDEST SWAP2 POP POP SWAP3 SWAP2 POP POP JUMP JUMPDEST PUSH2 0x55B4 DUP1 PUSH3 0x20B PUSH1 0x0 CODECOPY PUSH1 0x0 RETURN INVALID PUSH1 0x80 PUSH1 0x40 MSTORE CALLVALUE DUP1 ISZERO PUSH2 0x10 JUMPI PUSH1 0x0 DUP1 REVERT JUMPDEST POP PUSH1 0x4 CALLDATASIZE LT PUSH2 0xEA JUMPI PUSH1 0x0 CALLDATALOAD PUSH1 0xE0 SHR DUP1 PUSH4 0xB1A81BD5 GT PUSH2 0x8C JUMPI DUP1 PUSH4 0xE04E0283 GT PUSH2 0x66 JUMPI DUP1 PUSH4 0xE04E0283 EQ PUSH2 0x24A JUMPI DUP1 PUSH4 0xE3E39012 EQ PUSH2 0x27A JUMPI DUP1 PUSH4 0xE4F0C916 EQ PUSH2 0x2AA JUMPI DUP1 PUSH4 0xFCE9512A EQ PUSH2 0x2C6 JUMPI PUSH2 0xEA JUMP JUMPDEST DUP1 PUSH4 0xB1A81BD5 EQ PUSH2 0x1DF JUMPI DUP1 PUSH4 0xBE3397E9 EQ PUSH2 0x1FB JUMPI DUP1 PUSH4 0xD8B63C8A EQ PUSH2 0x22B JUMPI PUSH2 0xEA JUMP JUMPDEST DUP1 PUSH4 0x2FD005C8 GT PUSH2 0xC8 JUMPI DUP1 PUSH4 0x2FD005C8 EQ PUSH2 0x159 JUMPI DUP1 PUSH4 0x633072E4 EQ PUSH2 0x189 JUMPI DUP1 PUSH4 0x6B11BC49 EQ PUSH2 0x1A5 JUMPI DUP1 PUSH4 0x893D20E8 EQ PUSH2 0x1C1 JUMPI PUSH2 0xEA JUMP JUMPDEST DUP1 PUSH4 0xEB9AF38 EQ PUSH2 0xEF JUMPI DUP1 PUSH4 0xEE2CB10 EQ PUSH2 0x11F JUMPI DUP1 PUSH4 0x146AA7F7 EQ PUSH2 0x13D JUMPI JUMPDEST PUSH1 0x0 DUP1 REVERT JUMPDEST PUSH2 0x109 PUSH1 0x4 DUP1 CALLDATASIZE SUB DUP2 ADD SWAP1 PUSH2 0x104 SWAP2 SWAP1 PUSH2 0x3A2C JUMP JUMPDEST PUSH2 0x2F6 JUMP JUMPDEST PUSH1 0x40 MLOAD PUSH2 0x116 SWAP2 SWAP1 PUSH2 0x3A68 JUMP JUMPDEST PUSH1 0x40 MLOAD DUP1 SWAP2 SUB SWAP1 RETURN JUMPDEST PUSH2 0x127 PUSH2 0x3D6 JUMP JUMPDEST PUSH1 0x40 MLOAD PUSH2 0x134 SWAP2 SWAP1 PUSH2 0x3A68 JUMP JUMPDEST PUSH1 0x40 MLOAD DUP1 SWAP2 SUB SWAP1 RETURN JUMPDEST PUSH2 0x157 PUSH1 0x4 DUP1 CALLDATASIZE SUB DUP2 ADD SWAP1 PUSH2 0x152 SWAP2 SWAP1 PUSH2 0x3C38 JUMP JUMPDEST PUSH2 0x400 JUMP JUMPDEST STOP JUMPDEST PUSH2 0x173 PUSH1 0x4 DUP1 CALLDATASIZE SUB DUP2 ADD SWAP1 PUSH2 0x16E SWAP2 SWAP1 PUSH2 0x3CCF JUMP JUMPDEST PUSH2 0x4EB JUMP JUMPDEST PUSH1 0x40 MLOAD PUSH2 0x180 SWAP2 SWAP1 PUSH2 0x3F11 JUMP JUMPDEST PUSH1 0x40 MLOAD DUP1 SWAP2 SUB SWAP1 RETURN JUMPDEST PUSH2 0x1A3 PUSH1 0x4 DUP1 CALLDATASIZE SUB DUP2 ADD SWAP1 PUSH2 0x19E SWAP2 SWAP1 PUSH2 0x3C38 JUMP JUMPDEST PUSH2 0x58B JUMP JUMPDEST STOP JUMPDEST PUSH2 0x1BF PUSH1 0x4 DUP1 CALLDATASIZE SUB DUP2 ADD SWAP1 PUSH2 0x1BA SWAP2 SWAP1 PUSH2 0x3C38 JUMP JUMPDEST PUSH2 0x5B9 JUMP JUMPDEST STOP JUMPDEST PUSH2 0x1C9 PUSH2 0xB63 JUMP JUMPDEST PUSH1 0x40 MLOAD PUSH2 0x1D6 SWAP2 SWAP1 PUSH2 0x3A68 JUMP JUMPDEST PUSH1 0x40 MLOAD DUP1 SWAP2 SUB SWAP1 RETURN JUMPDEST PUSH2 0x1F9 PUSH1 0x4 DUP1 CALLDATASIZE SUB DUP2 ADD SWAP1 PUSH2 0x1F4 SWAP2 SWAP1 PUSH2 0x3F33 JUMP JUMPDEST PUSH2 0xB8C JUMP JUMPDEST STOP JUMPDEST PUSH2 0x215 PUSH1 0x4 DUP1 CALLDATASIZE SUB DUP2 ADD SWAP1 PUSH2 0x210 SWAP2 SWAP1 PUSH2 0x40FA JUMP JUMPDEST PUSH2 0xC80 JUMP JUMPDEST PUSH1 0x40 MLOAD PUSH2 0x222 SWAP2 SWAP1 PUSH2 0x3A68 JUMP JUMPDEST PUSH1 0x40 MLOAD DUP1 SWAP2 SUB SWAP1 RETURN JUMPDEST PUSH2 0x233 PUSH2 0xE5C JUMP JUMPDEST PUSH1 0x40 MLOAD PUSH2 0x241 SWAP3 SWAP2 SWAP1 PUSH2 0x4221 JUMP JUMPDEST PUSH1 0x40 MLOAD DUP1 SWAP2 SUB SWAP1 RETURN JUMPDEST PUSH2 0x264 PUSH1 0x4 DUP1 CALLDATASIZE SUB DUP2 ADD SWAP1 PUSH2 0x25F SWAP2 SWAP1 PUSH2 0x3CCF JUMP JUMPDEST PUSH2 0x10E7 JUMP JUMPDEST PUSH1 0x40 MLOAD PUSH2 0x271 SWAP2 SWAP1 PUSH2 0x43A5 JUMP JUMPDEST PUSH1 0x40 MLOAD DUP1 SWAP2 SUB SWAP1 RETURN JUMPDEST PUSH2 0x294 PUSH1 0x4 DUP1 CALLDATASIZE SUB DUP2 ADD SWAP1 PUSH2 0x28F SWAP2 SWAP1 PUSH2 0x43C7 JUMP JUMPDEST PUSH2 0x11E0 JUMP JUMPDEST PUSH1 0x40 MLOAD PUSH2 0x2A1 SWAP2 SWAP1 PUSH2 0x3A68 JUMP JUMPDEST PUSH1 0x40 MLOAD DUP1 SWAP2 SUB SWAP1 RETURN JUMPDEST PUSH2 0x2C4 PUSH1 0x4 DUP1 CALLDATASIZE SUB DUP2 ADD SWAP1 PUSH2 0x2BF SWAP2 SWAP1 PUSH2 0x448C JUMP JUMPDEST PUSH2 0x13D2 JUMP JUMPDEST STOP JUMPDEST PUSH2 0x2E0 PUSH1 0x4 DUP1 CALLDATASIZE SUB DUP2 ADD SWAP1 PUSH2 0x2DB SWAP2 SWAP1 PUSH2 0x3A2C JUMP JUMPDEST PUSH2 0x150C JUMP JUMPDEST PUSH1 0x40 MLOAD PUSH2 0x2ED SWAP2 SWAP1 PUSH2 0x461B JUMP JUMPDEST PUSH1 0x40 MLOAD DUP1 SWAP2 SUB SWAP1 RETURN JUMPDEST PUSH1 0x0 DUP1 PUSH1 0x2 PUSH1 0x0 DUP5 PUSH20 0xFFFFFFFFFFFFFFFFFFFFFFFFFFFFFFFFFFFFFFFF AND PUSH20 0xFFFFFFFFFFFFFFFFFFFFFFFFFFFFFFFFFFFFFFFF AND DUP2 MSTORE PUSH1 0x20 ADD SWAP1 DUP2 MSTORE PUSH1 0x20 ADD PUSH1 0x0 KECCAK256 PUSH1 0x0 ADD PUSH1 0x0 SWAP1 SLOAD SWAP1 PUSH2 0x100 EXP SWAP1 DIV PUSH20 0xFFFFFFFFFFFFFFFFFFFFFFFFFFFFFFFFFFFFFFFF AND SWAP1 POP PUSH1 0x0 PUSH20 0xFFFFFFFFFFFFFFFFFFFFFFFFFFFFFFFFFFFFFFFF AND DUP2 PUSH20 0xFFFFFFFFFFFFFFFFFFFFFFFFFFFFFFFFFFFFFFFF AND SUB PUSH2 0x3CD JUMPI PUSH1 0x40 MLOAD PUSH32 0x8C379A000000000000000000000000000000000000000000000000000000000 DUP2 MSTORE PUSH1 0x4 ADD PUSH2 0x3C4 SWAP1 PUSH2 0x469A JUMP JUMPDEST PUSH1 0x40 MLOAD DUP1 SWAP2 SUB SWAP1 REVERT JUMPDEST DUP1 SWAP2 POP POP SWAP2 SWAP1 POP JUMP JUMPDEST PUSH1 0x0 PUSH1 0x1 PUSH1 0x0 SWAP1 SLOAD SWAP1 PUSH2 0x100 EXP SWAP1 DIV PUSH20 0xFFFFFFFFFFFFFFFFFFFFFFFFFFFFFFFFFFFFFFFF AND SWAP1 POP SWAP1 JUMP JUMPDEST PUSH1 0x0 PUSH2 0x40E DUP7 DUP7 DUP7 DUP7 PUSH2 0x15E0 JUMP JUMPDEST SWAP1 POP PUSH1 0x0 PUSH1 0x2 PUSH1 0x0 DUP4 PUSH20 0xFFFFFFFFFFFFFFFFFFFFFFFFFFFFFFFFFFFFFFFF AND PUSH20 0xFFFFFFFFFFFFFFFFFFFFFFFFFFFFFFFFFFFFFFFF AND DUP2 MSTORE PUSH1 0x20 ADD SWAP1 DUP2 MSTORE PUSH1 0x20 ADD PUSH1 0x0 KECCAK256 PUSH1 0x0 ADD PUSH1 0x0 SWAP1 SLOAD SWAP1 PUSH2 0x100 EXP SWAP1 DIV PUSH20 0xFFFFFFFFFFFFFFFFFFFFFFFFFFFFFFFFFFFFFFFF AND SWAP1 POP DUP1 PUSH20 0xFFFFFFFFFFFFFFFFFFFFFFFFFFFFFFFFFFFFFFFF AND PUSH4 0xA9910054 DUP5 PUSH1 0x40 MLOAD DUP3 PUSH4 0xFFFFFFFF AND PUSH1 0xE0 SHL DUP2 MSTORE PUSH1 0x4 ADD PUSH2 0x4B0 SWAP2 SWAP1 PUSH2 0x46F3 JUMP JUMPDEST PUSH1 0x0 PUSH1 0x40 MLOAD DUP1 DUP4 SUB DUP2 PUSH1 0x0 DUP8 DUP1 EXTCODESIZE ISZERO DUP1 ISZERO PUSH2 0x4CA JUMPI PUSH1 0x0 DUP1 REVERT JUMPDEST POP GAS CALL ISZERO DUP1 ISZERO PUSH2 0x4DE JUMPI RETURNDATASIZE PUSH1 0x0 DUP1 RETURNDATACOPY RETURNDATASIZE PUSH1 0x0 REVERT JUMPDEST POP POP POP POP POP POP POP POP POP POP POP JUMP JUMPDEST PUSH1 0x60 PUSH1 0x0 PUSH2 0x4FB DUP7 DUP7 DUP7 DUP7 PUSH2 0x15E0 JUMP JUMPDEST SWAP1 POP PUSH1 0x0 PUSH20 0xFFFFFFFFFFFFFFFFFFFFFFFFFFFFFFFFFFFFFFFF AND DUP2 PUSH20 0xFFFFFFFFFFFFFFFFFFFFFFFFFFFFFFFFFFFFFFFF AND SUB PUSH2 0x56C JUMPI PUSH1 0x40 MLOAD PUSH32 0x8C379A000000000000000000000000000000000000000000000000000000000 DUP2 MSTORE PUSH1 0x4 ADD PUSH2 0x563 SWAP1 PUSH2 0x4761 JUMP JUMPDEST PUSH1 0x40 MLOAD DUP1 SWAP2 SUB SWAP1 REVERT JUMPDEST PUSH2 0x580 DUP2 PUSH1 0x5 PUSH2 0x16A3 SWAP1 SWAP2 SWAP1 PUSH4 0xFFFFFFFF AND JUMP JUMPDEST SWAP2 POP POP SWAP5 SWAP4 POP POP POP POP JUMP JUMPDEST PUSH1 0x0 PUSH2 0x599 DUP7 DUP7 DUP7 DUP7 PUSH2 0x15E0 JUMP JUMPDEST SWAP1 POP PUSH2 0x5B1 DUP2 DUP4 PUSH1 0x5 PUSH2 0x1B28 SWAP1 SWAP3 SWAP2 SWAP1 PUSH4 0xFFFFFFFF AND JUMP JUMPDEST POP POP POP POP POP POP JUMP JUMPDEST PUSH1 0x0 PUSH2 0x5C7 DUP7 DUP7 DUP7 DUP7 PUSH2 0x15E0 JUMP JUMPDEST SWAP1 POP PUSH1 0x0 PUSH20 0xFFFFFFFFFFFFFFFFFFFFFFFFFFFFFFFFFFFFFFFF AND PUSH1 0x5 PUSH1 0x0 ADD PUSH1 0x0 DUP4 PUSH20 0xFFFFFFFFFFFFFFFFFFFFFFFFFFFFFFFFFFFFFFFF AND PUSH20 0xFFFFFFFFFFFFFFFFFFFFFFFFFFFFFFFFFFFFFFFF AND DUP2 MSTORE PUSH1 0x20 ADD SWAP1 DUP2 MSTORE PUSH1 0x20 ADD PUSH1 0x0 KECCAK256 DUP4 PUSH1 0x40 MLOAD PUSH2 0x631 SWAP2 SWAP1 PUSH2 0x47BD JUMP JUMPDEST SWAP1 DUP2 MSTORE PUSH1 0x20 ADD PUSH1 0x40 MLOAD DUP1 SWAP2 SUB SWAP1 KECCAK256 PUSH1 0x0 ADD PUSH1 0x0 SWAP1 SLOAD SWAP1 PUSH2 0x100 EXP SWAP1 DIV PUSH20 0xFFFFFFFFFFFFFFFFFFFFFFFFFFFFFFFFFFFFFFFF AND PUSH20 0xFFFFFFFFFFFFFFFFFFFFFFFFFFFFFFFFFFFFFFFF AND SUB PUSH2 0x6B9 JUMPI PUSH1 0x40 MLOAD PUSH32 0x8C379A000000000000000000000000000000000000000000000000000000000 DUP2 MSTORE PUSH1 0x4 ADD PUSH2 0x6B0 SWAP1 PUSH2 0x4820 JUMP JUMPDEST PUSH1 0x40 MLOAD DUP1 SWAP2 SUB SWAP1 REVERT JUMPDEST PUSH1 0x0 PUSH1 0x2 PUSH1 0x0 DUP4 PUSH20 0xFFFFFFFFFFFFFFFFFFFFFFFFFFFFFFFFFFFFFFFF AND PUSH20 0xFFFFFFFFFFFFFFFFFFFFFFFFFFFFFFFFFFFFFFFF AND DUP2 MSTORE PUSH1 0x20 ADD SWAP1 DUP2 MSTORE PUSH1 0x20 ADD PUSH1 0x0 KECCAK256 PUSH1 0x1 ADD DUP1 SLOAD PUSH2 0x708 SWAP1 PUSH2 0x486F JUMP JUMPDEST SWAP1 POP SUB PUSH2 0x74A JUMPI PUSH1 0x40 MLOAD PUSH32 0x8C379A000000000000000000000000000000000000000000000000000000000 DUP2 MSTORE PUSH1 0x4 ADD PUSH2 0x741 SWAP1 PUSH2 0x4761 JUMP JUMPDEST PUSH1 0x40 MLOAD DUP1 SWAP2 SUB SWAP1 REVERT JUMPDEST PUSH1 0x0 PUSH1 0x2 PUSH1 0x0 DUP4 PUSH20 0xFFFFFFFFFFFFFFFFFFFFFFFFFFFFFFFFFFFFFFFF AND PUSH20 0xFFFFFFFFFFFFFFFFFFFFFFFFFFFFFFFFFFFFFFFF AND DUP2 MSTORE PUSH1 0x20 ADD SWAP1 DUP2 MSTORE PUSH1 0x20 ADD PUSH1 0x0 KECCAK256 PUSH1 0x0 ADD PUSH1 0x0 SWAP1 SLOAD SWAP1 PUSH2 0x100 EXP SWAP1 DIV PUSH20 0xFFFFFFFFFFFFFFFFFFFFFFFFFFFFFFFFFFFFFFFF AND SWAP1 POP PUSH1 0x0 PUSH1 0x5 PUSH1 0x0 ADD PUSH1 0x0 DUP5 PUSH20 0xFFFFFFFFFFFFFFFFFFFFFFFFFFFFFFFFFFFFFFFF AND PUSH20 0xFFFFFFFFFFFFFFFFFFFFFFFFFFFFFFFFFFFFFFFF AND DUP2 MSTORE PUSH1 0x20 ADD SWAP1 DUP2 MSTORE PUSH1 0x20 ADD PUSH1 0x0 KECCAK256 DUP5 PUSH1 0x40 MLOAD PUSH2 0x803 SWAP2 SWAP1 PUSH2 0x47BD JUMP JUMPDEST SWAP1 DUP2 MSTORE PUSH1 0x20 ADD PUSH1 0x40 MLOAD DUP1 SWAP2 SUB SWAP1 KECCAK256 PUSH1 0x40 MLOAD DUP1 PUSH1 0xA0 ADD PUSH1 0x40 MSTORE SWAP1 DUP2 PUSH1 0x0 DUP3 ADD PUSH1 0x0 SWAP1 SLOAD SWAP1 PUSH2 0x100 EXP SWAP1 DIV PUSH20 0xFFFFFFFFFFFFFFFFFFFFFFFFFFFFFFFFFFFFFFFF AND PUSH20 0xFFFFFFFFFFFFFFFFFFFFFFFFFFFFFFFFFFFFFFFF AND PUSH20 0xFFFFFFFFFFFFFFFFFFFFFFFFFFFFFFFFFFFFFFFF AND DUP2 MSTORE PUSH1 0x20 ADD PUSH1 0x1 DUP3 ADD DUP1 SLOAD PUSH2 0x882 SWAP1 PUSH2 0x486F JUMP JUMPDEST DUP1 PUSH1 0x1F ADD PUSH1 0x20 DUP1 SWAP2 DIV MUL PUSH1 0x20 ADD PUSH1 0x40 MLOAD SWAP1 DUP2 ADD PUSH1 0x40 MSTORE DUP1 SWAP3 SWAP2 SWAP1 DUP2 DUP2 MSTORE PUSH1 0x20 ADD DUP3 DUP1 SLOAD PUSH2 0x8AE SWAP1 PUSH2 0x486F JUMP JUMPDEST DUP1 ISZERO PUSH2 0x8FB JUMPI DUP1 PUSH1 0x1F LT PUSH2 0x8D0 JUMPI PUSH2 0x100 DUP1 DUP4 SLOAD DIV MUL DUP4 MSTORE SWAP2 PUSH1 0x20 ADD SWAP2 PUSH2 0x8FB JUMP JUMPDEST DUP3 ADD SWAP2 SWAP1 PUSH1 0x0 MSTORE PUSH1 0x20 PUSH1 0x0 KECCAK256 SWAP1 JUMPDEST DUP2 SLOAD DUP2 MSTORE SWAP1 PUSH1 0x1 ADD SWAP1 PUSH1 0x20 ADD DUP1 DUP4 GT PUSH2 0x8DE JUMPI DUP3 SWAP1 SUB PUSH1 0x1F AND DUP3 ADD SWAP2 JUMPDEST POP POP POP POP POP DUP2 MSTORE PUSH1 0x20 ADD PUSH1 0x2 DUP3 ADD DUP1 SLOAD PUSH2 0x914 SWAP1 PUSH2 0x486F JUMP JUMPDEST DUP1 PUSH1 0x1F ADD PUSH1 0x20 DUP1 SWAP2 DIV MUL PUSH1 0x20 ADD PUSH1 0x40 MLOAD SWAP1 DUP2 ADD PUSH1 0x40 MSTORE DUP1 SWAP3 SWAP2 SWAP1 DUP2 DUP2 MSTORE PUSH1 0x20 ADD DUP3 DUP1 SLOAD PUSH2 0x940 SWAP1 PUSH2 0x486F JUMP JUMPDEST DUP1 ISZERO PUSH2 0x98D JUMPI DUP1 PUSH1 0x1F LT PUSH2 0x962 JUMPI PUSH2 0x100 DUP1 DUP4 SLOAD DIV MUL DUP4 MSTORE SWAP2 PUSH1 0x20 ADD SWAP2 PUSH2 0x98D JUMP JUMPDEST DUP3 ADD SWAP2 SWAP1 PUSH1 0x0 MSTORE PUSH1 0x20 PUSH1 0x0 KECCAK256 SWAP1 JUMPDEST DUP2 SLOAD DUP2 MSTORE SWAP1 PUSH1 0x1 ADD SWAP1 PUSH1 0x20 ADD DUP1 DUP4 GT PUSH2 0x970 JUMPI DUP3 SWAP1 SUB PUSH1 0x1F AND DUP3 ADD SWAP2 JUMPDEST POP POP POP POP POP DUP2 MSTORE PUSH1 0x20 ADD PUSH1 0x3 DUP3 ADD DUP1 SLOAD PUSH2 0x9A6 SWAP1 PUSH2 0x486F JUMP JUMPDEST DUP1 PUSH1 0x1F ADD PUSH1 0x20 DUP1 SWAP2 DIV MUL PUSH1 0x20 ADD PUSH1 0x40 MLOAD SWAP1 DUP2 ADD PUSH1 0x40 MSTORE DUP1 SWAP3 SWAP2 SWAP1 DUP2 DUP2 MSTORE PUSH1 0x20 ADD DUP3 DUP1 SLOAD PUSH2 0x9D2 SWAP1 PUSH2 0x486F JUMP JUMPDEST DUP1 ISZERO PUSH2 0xA1F JUMPI DUP1 PUSH1 0x1F LT PUSH2 0x9F4 JUMPI PUSH2 0x100 DUP1 DUP4 SLOAD DIV MUL DUP4 MSTORE SWAP2 PUSH1 0x20 ADD SWAP2 PUSH2 0xA1F JUMP JUMPDEST DUP3 ADD SWAP2 SWAP1 PUSH1 0x0 MSTORE PUSH1 0x20 PUSH1 0x0 KECCAK256 SWAP1 JUMPDEST DUP2 SLOAD DUP2 MSTORE SWAP1 PUSH1 0x1 ADD SWAP1 PUSH1 0x20 ADD DUP1 DUP4 GT PUSH2 0xA02 JUMPI DUP3 SWAP1 SUB PUSH1 0x1F AND DUP3 ADD SWAP2 JUMPDEST POP POP POP POP POP DUP2 MSTORE PUSH1 0x20 ADD PUSH1 0x4 DUP3 ADD DUP1 SLOAD PUSH2 0xA38 SWAP1 PUSH2 0x486F JUMP JUMPDEST DUP1 PUSH1 0x1F ADD PUSH1 0x20 DUP1 SWAP2 DIV MUL PUSH1 0x20 ADD PUSH1 0x40 MLOAD SWAP1 DUP2 ADD PUSH1 0x40 MSTORE DUP1 SWAP3 SWAP2 SWAP1 DUP2 DUP2 MSTORE PUSH1 0x20 ADD DUP3 DUP1 SLOAD PUSH2 0xA64 SWAP1 PUSH2 0x486F JUMP JUMPDEST DUP1 ISZERO PUSH2 0xAB1 JUMPI DUP1 PUSH1 0x1F LT PUSH2 0xA86 JUMPI PUSH2 0x100 DUP1 DUP4 SLOAD DIV MUL DUP4 MSTORE SWAP2 PUSH1 0x20 ADD SWAP2 PUSH2 0xAB1 JUMP JUMPDEST DUP3 ADD SWAP2 SWAP1 PUSH1 0x0 MSTORE PUSH1 0x20 PUSH1 0x0 KECCAK256 SWAP1 JUMPDEST DUP2 SLOAD DUP2 MSTORE SWAP1 PUSH1 0x1 ADD SWAP1 PUSH1 0x20 ADD DUP1 DUP4 GT PUSH2 0xA94 JUMPI DUP3 SWAP1 SUB PUSH1 0x1F AND DUP3 ADD SWAP2 JUMPDEST POP POP POP POP POP DUP2 MSTORE POP POP SWAP1 POP DUP2 PUSH20 0xFFFFFFFFFFFFFFFFFFFFFFFFFFFFFFFFFFFFFFFF AND PUSH4 0x384E477D DUP3 PUSH1 0x60 ADD MLOAD DUP4 PUSH1 0x80 ADD MLOAD DUP5 PUSH1 0x20 ADD MLOAD DUP6 PUSH1 0x40 ADD MLOAD DUP7 PUSH1 0x0 ADD MLOAD PUSH1 0x40 MLOAD DUP7 PUSH4 0xFFFFFFFF AND PUSH1 0xE0 SHL DUP2 MSTORE PUSH1 0x4 ADD PUSH2 0xB11 SWAP6 SWAP5 SWAP4 SWAP3 SWAP2 SWAP1 PUSH2 0x48A0 JUMP JUMPDEST PUSH1 0x0 PUSH1 0x40 MLOAD DUP1 DUP4 SUB DUP2 PUSH1 0x0 DUP8 DUP1 EXTCODESIZE ISZERO DUP1 ISZERO PUSH2 0xB2B JUMPI PUSH1 0x0 DUP1 REVERT JUMPDEST POP GAS CALL ISZERO DUP1 ISZERO PUSH2 0xB3F JUMPI RETURNDATASIZE PUSH1 0x0 DUP1 RETURNDATACOPY RETURNDATASIZE PUSH1 0x0 REVERT JUMPDEST POP POP POP POP PUSH2 0xB59 DUP4 DUP6 PUSH1 0x5 PUSH2 0x1B28 SWAP1 SWAP3 SWAP2 SWAP1 PUSH4 0xFFFFFFFF AND JUMP JUMPDEST POP POP POP POP POP POP POP POP JUMP JUMPDEST PUSH1 0x0 DUP1 PUSH1 0x0 SWAP1 SLOAD SWAP1 PUSH2 0x100 EXP SWAP1 DIV PUSH20 0xFFFFFFFFFFFFFFFFFFFFFFFFFFFFFFFFFFFFFFFF AND SWAP1 POP SWAP1 JUMP JUMPDEST PUSH1 0x0 PUSH2 0xB9A DUP6 DUP6 DUP6 DUP6 PUSH2 0x15E0 JUMP JUMPDEST SWAP1 POP PUSH1 0x0 PUSH1 0x2 PUSH1 0x0 DUP4 PUSH20 0xFFFFFFFFFFFFFFFFFFFFFFFFFFFFFFFFFFFFFFFF AND PUSH20 0xFFFFFFFFFFFFFFFFFFFFFFFFFFFFFFFFFFFFFFFF AND DUP2 MSTORE PUSH1 0x20 ADD SWAP1 DUP2 MSTORE PUSH1 0x20 ADD PUSH1 0x0 KECCAK256 PUSH1 0x0 ADD PUSH1 0x0 SWAP1 SLOAD SWAP1 PUSH2 0x100 EXP SWAP1 DIV PUSH20 0xFFFFFFFFFFFFFFFFFFFFFFFFFFFFFFFFFFFFFFFF AND SWAP1 POP DUP1 PUSH20 0xFFFFFFFFFFFFFFFFFFFFFFFFFFFFFFFFFFFFFFFF AND PUSH4 0xD590E7EF DUP12 DUP12 DUP12 DUP12 PUSH1 0x40 MLOAD DUP6 PUSH4 0xFFFFFFFF AND PUSH1 0xE0 SHL DUP2 MSTORE PUSH1 0x4 ADD PUSH2 0xC42 SWAP5 SWAP4 SWAP3 SWAP2 SWAP1 PUSH2 0x490F JUMP JUMPDEST PUSH1 0x0 PUSH1 0x40 MLOAD DUP1 DUP4 SUB DUP2 PUSH1 0x0 DUP8 DUP1 EXTCODESIZE ISZERO DUP1 ISZERO PUSH2 0xC5C JUMPI PUSH1 0x0 DUP1 REVERT JUMPDEST POP GAS CALL ISZERO DUP1 ISZERO PUSH2 0xC70 JUMPI RETURNDATASIZE PUSH1 0x0 DUP1 RETURNDATACOPY RETURNDATASIZE PUSH1 0x0 REVERT JUMPDEST POP POP POP POP POP POP POP POP POP POP POP POP POP POP JUMP JUMPDEST PUSH1 0x0 DUP1 PUSH1 0x4 PUSH1 0x0 SWAP1 SLOAD SWAP1 PUSH2 0x100 EXP SWAP1 DIV PUSH20 0xFFFFFFFFFFFFFFFFFFFFFFFFFFFFFFFFFFFFFFFF AND PUSH20 0xFFFFFFFFFFFFFFFFFFFFFFFFFFFFFFFFFFFFFFFF AND PUSH4 0x918AAFF5 CALLER DUP7 PUSH1 0x40 MLOAD DUP4 PUSH4 0xFFFFFFFF AND PUSH1 0xE0 SHL DUP2 MSTORE PUSH1 0x4 ADD PUSH2 0xCE0 SWAP3 SWAP2 SWAP1 PUSH2 0x4970 JUMP JUMPDEST PUSH1 0x20 PUSH1 0x40 MLOAD DUP1 DUP4 SUB DUP2 PUSH1 0x0 DUP8 GAS CALL ISZERO DUP1 ISZERO PUSH2 0xCFF JUMPI RETURNDATASIZE PUSH1 0x0 DUP1 RETURNDATACOPY RETURNDATASIZE PUSH1 0x0 REVERT JUMPDEST POP POP POP POP PUSH1 0x40 MLOAD RETURNDATASIZE PUSH1 0x1F NOT PUSH1 0x1F DUP3 ADD AND DUP3 ADD DUP1 PUSH1 0x40 MSTORE POP DUP2 ADD SWAP1 PUSH2 0xD23 SWAP2 SWAP1 PUSH2 0x49B5 JUMP JUMPDEST SWAP1 POP PUSH1 0x40 MLOAD DUP1 PUSH1 0x40 ADD PUSH1 0x40 MSTORE DUP1 DUP3 PUSH20 0xFFFFFFFFFFFFFFFFFFFFFFFFFFFFFFFFFFFFFFFF AND DUP2 MSTORE PUSH1 0x20 ADD DUP5 DUP2 MSTORE POP PUSH1 0x2 PUSH1 0x0 CALLER PUSH20 0xFFFFFFFFFFFFFFFFFFFFFFFFFFFFFFFFFFFFFFFF AND PUSH20 0xFFFFFFFFFFFFFFFFFFFFFFFFFFFFFFFFFFFFFFFF AND DUP2 MSTORE PUSH1 0x20 ADD SWAP1 DUP2 MSTORE PUSH1 0x20 ADD PUSH1 0x0 KECCAK256 PUSH1 0x0 DUP3 ADD MLOAD DUP2 PUSH1 0x0 ADD PUSH1 0x0 PUSH2 0x100 EXP DUP2 SLOAD DUP2 PUSH20 0xFFFFFFFFFFFFFFFFFFFFFFFFFFFFFFFFFFFFFFFF MUL NOT AND SWAP1 DUP4 PUSH20 0xFFFFFFFFFFFFFFFFFFFFFFFFFFFFFFFFFFFFFFFF AND MUL OR SWAP1 SSTORE POP PUSH1 0x20 DUP3 ADD MLOAD DUP2 PUSH1 0x1 ADD SWAP1 DUP2 PUSH2 0xDEB SWAP2 SWAP1 PUSH2 0x4B98 JUMP JUMPDEST POP SWAP1 POP POP PUSH1 0x3 CALLER SWAP1 DUP1 PUSH1 0x1 DUP2 SLOAD ADD DUP1 DUP3 SSTORE DUP1 SWAP2 POP POP PUSH1 0x1 SWAP1 SUB SWAP1 PUSH1 0x0 MSTORE PUSH1 0x20 PUSH1 0x0 KECCAK256 ADD PUSH1 0x0 SWAP1 SWAP2 SWAP1 SWAP2 SWAP1 SWAP2 PUSH2 0x100 EXP DUP2 SLOAD DUP2 PUSH20 0xFFFFFFFFFFFFFFFFFFFFFFFFFFFFFFFFFFFFFFFF MUL NOT AND SWAP1 DUP4 PUSH20 0xFFFFFFFFFFFFFFFFFFFFFFFFFFFFFFFFFFFFFFFF AND MUL OR SWAP1 SSTORE POP DUP1 SWAP2 POP POP SWAP3 SWAP2 POP POP JUMP JUMPDEST PUSH1 0x60 DUP1 PUSH1 0x0 DUP1 SLOAD SWAP1 PUSH2 0x100 EXP SWAP1 DIV PUSH20 0xFFFFFFFFFFFFFFFFFFFFFFFFFFFFFFFFFFFFFFFF AND PUSH20 0xFFFFFFFFFFFFFFFFFFFFFFFFFFFFFFFFFFFFFFFF AND CALLER PUSH20 0xFFFFFFFFFFFFFFFFFFFFFFFFFFFFFFFFFFFFFFFF AND EQ DUP1 PUSH2 0xF06 JUMPI POP PUSH1 0x1 PUSH1 0x0 SWAP1 SLOAD SWAP1 PUSH2 0x100 EXP SWAP1 DIV PUSH20 0xFFFFFFFFFFFFFFFFFFFFFFFFFFFFFFFFFFFFFFFF AND PUSH20 0xFFFFFFFFFFFFFFFFFFFFFFFFFFFFFFFFFFFFFFFF AND CALLER PUSH20 0xFFFFFFFFFFFFFFFFFFFFFFFFFFFFFFFFFFFFFFFF AND EQ JUMPDEST PUSH2 0xF45 JUMPI PUSH1 0x40 MLOAD PUSH32 0x8C379A000000000000000000000000000000000000000000000000000000000 DUP2 MSTORE PUSH1 0x4 ADD PUSH2 0xF3C SWAP1 PUSH2 0x4CDC JUMP JUMPDEST PUSH1 0x40 MLOAD DUP1 SWAP2 SUB SWAP1 REVERT JUMPDEST PUSH1 0x60 PUSH1 0x0 JUMPDEST PUSH1 0x3 DUP1 SLOAD SWAP1 POP DUP2 LT ISZERO PUSH2 0x1052 JUMPI PUSH1 0x2 PUSH1 0x0 PUSH1 0x3 DUP4 DUP2 SLOAD DUP2 LT PUSH2 0xF6F JUMPI PUSH2 0xF6E PUSH2 0x4CFC JUMP JUMPDEST JUMPDEST SWAP1 PUSH1 0x0 MSTORE PUSH1 0x20 PUSH1 0x0 KECCAK256 ADD PUSH1 0x0 SWAP1 SLOAD SWAP1 PUSH2 0x100 EXP SWAP1 DIV PUSH20 0xFFFFFFFFFFFFFFFFFFFFFFFFFFFFFFFFFFFFFFFF AND PUSH20 0xFFFFFFFFFFFFFFFFFFFFFFFFFFFFFFFFFFFFFFFF AND PUSH20 0xFFFFFFFFFFFFFFFFFFFFFFFFFFFFFFFFFFFFFFFF AND DUP2 MSTORE PUSH1 0x20 ADD SWAP1 DUP2 MSTORE PUSH1 0x20 ADD PUSH1 0x0 KECCAK256 PUSH1 0x0 ADD PUSH1 0x0 SWAP1 SLOAD SWAP1 PUSH2 0x100 EXP SWAP1 DIV PUSH20 0xFFFFFFFFFFFFFFFFFFFFFFFFFFFFFFFFFFFFFFFF AND DUP3 DUP3 DUP2 MLOAD DUP2 LT PUSH2 0x100B JUMPI PUSH2 0x100A PUSH2 0x4CFC JUMP JUMPDEST JUMPDEST PUSH1 0x20 MUL PUSH1 0x20 ADD ADD SWAP1 PUSH20 0xFFFFFFFFFFFFFFFFFFFFFFFFFFFFFFFFFFFFFFFF AND SWAP1 DUP2 PUSH20 0xFFFFFFFFFFFFFFFFFFFFFFFFFFFFFFFFFFFFFFFF AND DUP2 MSTORE POP POP DUP1 DUP1 PUSH1 0x1 ADD SWAP2 POP POP PUSH2 0xF4A JUMP JUMPDEST POP PUSH1 0x3 DUP2 DUP2 DUP1 SLOAD DUP1 PUSH1 0x20 MUL PUSH1 0x20 ADD PUSH1 0x40 MLOAD SWAP1 DUP2 ADD PUSH1 0x40 MSTORE DUP1 SWAP3 SWAP2 SWAP1 DUP2 DUP2 MSTORE PUSH1 0x20 ADD DUP3 DUP1 SLOAD DUP1 ISZERO PUSH2 0x10D7 JUMPI PUSH1 0x20 MUL DUP3 ADD SWAP2 SWAP1 PUSH1 0x0 MSTORE PUSH1 0x20 PUSH1 0x0 KECCAK256 SWAP1 JUMPDEST DUP2 PUSH1 0x0 SWAP1 SLOAD SWAP1 PUSH2 0x100 EXP SWAP1 DIV PUSH20 0xFFFFFFFFFFFFFFFFFFFFFFFFFFFFFFFFFFFFFFFF AND PUSH20 0xFFFFFFFFFFFFFFFFFFFFFFFFFFFFFFFFFFFFFFFF AND DUP2 MSTORE PUSH1 0x20 ADD SWAP1 PUSH1 0x1 ADD SWAP1 DUP1 DUP4 GT PUSH2 0x108D JUMPI JUMPDEST POP POP POP POP POP SWAP2 POP SWAP3 POP SWAP3 POP POP SWAP1 SWAP2 JUMP JUMPDEST PUSH1 0x60 PUSH1 0x0 PUSH2 0x10F7 DUP7 DUP7 DUP7 DUP7 PUSH2 0x15E0 JUMP JUMPDEST SWAP1 POP PUSH1 0x0 PUSH1 0x2 PUSH1 0x0 DUP4 PUSH20 0xFFFFFFFFFFFFFFFFFFFFFFFFFFFFFFFFFFFFFFFF AND PUSH20 0xFFFFFFFFFFFFFFFFFFFFFFFFFFFFFFFFFFFFFFFF AND DUP2 MSTORE PUSH1 0x20 ADD SWAP1 DUP2 MSTORE PUSH1 0x20 ADD PUSH1 0x0 KECCAK256 PUSH1 0x0 ADD PUSH1 0x0 SWAP1 SLOAD SWAP1 PUSH2 0x100 EXP SWAP1 DIV PUSH20 0xFFFFFFFFFFFFFFFFFFFFFFFFFFFFFFFFFFFFFFFF AND SWAP1 POP DUP1 PUSH20 0xFFFFFFFFFFFFFFFFFFFFFFFFFFFFFFFFFFFFFFFF AND PUSH4 0xFF24B5D5 PUSH1 0x40 MLOAD DUP2 PUSH4 0xFFFFFFFF AND PUSH1 0xE0 SHL DUP2 MSTORE PUSH1 0x4 ADD PUSH1 0x0 PUSH1 0x40 MLOAD DUP1 DUP4 SUB DUP2 DUP7 GAS STATICCALL ISZERO DUP1 ISZERO PUSH2 0x11AB JUMPI RETURNDATASIZE PUSH1 0x0 DUP1 RETURNDATACOPY RETURNDATASIZE PUSH1 0x0 REVERT JUMPDEST POP POP POP POP PUSH1 0x40 MLOAD RETURNDATASIZE PUSH1 0x0 DUP3 RETURNDATACOPY RETURNDATASIZE PUSH1 0x1F NOT PUSH1 0x1F DUP3 ADD AND DUP3 ADD DUP1 PUSH1 0x40 MSTORE POP DUP2 ADD SWAP1 PUSH2 0x11D4 SWAP2 SWAP1 PUSH2 0x4F87 JUMP JUMPDEST SWAP3 POP POP POP SWAP5 SWAP4 POP POP POP POP JUMP JUMPDEST PUSH1 0x0 DUP1 PUSH2 0x11EF DUP8 DUP8 DUP8 DUP8 PUSH2 0x1D6A JUMP JUMPDEST POP SWAP1 POP PUSH1 0x0 PUSH1 0x4 PUSH1 0x0 SWAP1 SLOAD SWAP1 PUSH2 0x100 EXP SWAP1 DIV PUSH20 0xFFFFFFFFFFFFFFFFFFFFFFFFFFFFFFFFFFFFFFFF AND PUSH20 0xFFFFFFFFFFFFFFFFFFFFFFFFFFFFFFFFFFFFFFFF AND PUSH4 0x918AAFF5 DUP4 DUP12 PUSH1 0x40 MLOAD DUP4 PUSH4 0xFFFFFFFF AND PUSH1 0xE0 SHL DUP2 MSTORE PUSH1 0x4 ADD PUSH2 0x1251 SWAP3 SWAP2 SWAP1 PUSH2 0x4970 JUMP JUMPDEST PUSH1 0x20 PUSH1 0x40 MLOAD DUP1 DUP4 SUB DUP2 PUSH1 0x0 DUP8 GAS CALL ISZERO DUP1 ISZERO PUSH2 0x1270 JUMPI RETURNDATASIZE PUSH1 0x0 DUP1 RETURNDATACOPY RETURNDATASIZE PUSH1 0x0 REVERT JUMPDEST POP POP POP POP PUSH1 0x40 MLOAD RETURNDATASIZE PUSH1 0x1F NOT PUSH1 0x1F DUP3 ADD AND DUP3 ADD DUP1 PUSH1 0x40 MSTORE POP DUP2 ADD SWAP1 PUSH2 0x1294 SWAP2 SWAP1 PUSH2 0x49B5 JUMP JUMPDEST SWAP1 POP PUSH1 0x40 MLOAD DUP1 PUSH1 0x40 ADD PUSH1 0x40 MSTORE DUP1 DUP3 PUSH20 0xFFFFFFFFFFFFFFFFFFFFFFFFFFFFFFFFFFFFFFFF AND DUP2 MSTORE PUSH1 0x20 ADD DUP6 DUP2 MSTORE POP PUSH1 0x2 PUSH1 0x0 DUP5 PUSH20 0xFFFFFFFFFFFFFFFFFFFFFFFFFFFFFFFFFFFFFFFF AND PUSH20 0xFFFFFFFFFFFFFFFFFFFFFFFFFFFFFFFFFFFFFFFF AND DUP2 MSTORE PUSH1 0x20 ADD SWAP1 DUP2 MSTORE PUSH1 0x20 ADD PUSH1 0x0 KECCAK256 PUSH1 0x0 DUP3 ADD MLOAD DUP2 PUSH1 0x0 ADD PUSH1 0x0 PUSH2 0x100 EXP DUP2 SLOAD DUP2 PUSH20 0xFFFFFFFFFFFFFFFFFFFFFFFFFFFFFFFFFFFFFFFF MUL NOT AND SWAP1 DUP4 PUSH20 0xFFFFFFFFFFFFFFFFFFFFFFFFFFFFFFFFFFFFFFFF AND MUL OR SWAP1 SSTORE POP PUSH1 0x20 DUP3 ADD MLOAD DUP2 PUSH1 0x1 ADD SWAP1 DUP2 PUSH2 0x135C SWAP2 SWAP1 PUSH2 0x4B98 JUMP JUMPDEST POP SWAP1 POP POP PUSH1 0x3 DUP3 SWAP1 DUP1 PUSH1 0x1 DUP2 SLOAD ADD DUP1 DUP3 SSTORE DUP1 SWAP2 POP POP PUSH1 0x1 SWAP1 SUB SWAP1 PUSH1 0x0 MSTORE PUSH1 0x20 PUSH1 0x0 KECCAK256 ADD PUSH1 0x0 SWAP1 SWAP2 SWAP1 SWAP2 SWAP1 SWAP2 PUSH2 0x100 EXP DUP2 SLOAD DUP2 PUSH20 0xFFFFFFFFFFFFFFFFFFFFFFFFFFFFFFFFFFFFFFFF MUL NOT AND SWAP1 DUP4 PUSH20 0xFFFFFFFFFFFFFFFFFFFFFFFFFFFFFFFFFFFFFFFF AND MUL OR SWAP1 SSTORE POP DUP1 SWAP3 POP POP POP SWAP7 SWAP6 POP POP POP POP POP POP JUMP JUMPDEST PUSH1 0x0 PUSH20 0xFFFFFFFFFFFFFFFFFFFFFFFFFFFFFFFFFFFFFFFF AND DUP6 PUSH20 0xFFFFFFFFFFFFFFFFFFFFFFFFFFFFFFFFFFFFFFFF AND SUB PUSH2 0x1441 JUMPI PUSH1 0x40 MLOAD PUSH32 0x8C379A000000000000000000000000000000000000000000000000000000000 DUP2 MSTORE PUSH1 0x4 ADD PUSH2 0x1438 SWAP1 PUSH2 0x4761 JUMP JUMPDEST PUSH1 0x40 MLOAD DUP1 SWAP2 SUB SWAP1 REVERT JUMPDEST PUSH1 0x0 PUSH1 0x2 PUSH1 0x0 DUP8 PUSH20 0xFFFFFFFFFFFFFFFFFFFFFFFFFFFFFFFFFFFFFFFF AND PUSH20 0xFFFFFFFFFFFFFFFFFFFFFFFFFFFFFFFFFFFFFFFF AND DUP2 MSTORE PUSH1 0x20 ADD SWAP1 DUP2 MSTORE PUSH1 0x20 ADD PUSH1 0x0 KECCAK256 PUSH1 0x1 ADD DUP1 SLOAD PUSH2 0x1490 SWAP1 PUSH2 0x486F JUMP JUMPDEST SWAP1 POP SUB PUSH2 0x14D2 JUMPI PUSH1 0x40 MLOAD PUSH32 0x8C379A000000000000000000000000000000000000000000000000000000000 DUP2 MSTORE PUSH1 0x4 ADD PUSH2 0x14C9 SWAP1 PUSH2 0x4761 JUMP JUMPDEST PUSH1 0x40 MLOAD DUP1 SWAP2 SUB SWAP1 REVERT JUMPDEST PUSH1 0x0 PUSH2 0x14E0 DUP11 DUP11 DUP11 DUP11 PUSH2 0x15E0 JUMP JUMPDEST SWAP1 POP PUSH2 0x1500 DUP2 DUP8 DUP8 DUP8 DUP8 DUP8 PUSH1 0x5 PUSH2 0x1E7F SWAP1 SWAP7 SWAP6 SWAP5 SWAP4 SWAP3 SWAP2 SWAP1 PUSH4 0xFFFFFFFF AND JUMP JUMPDEST POP POP POP POP POP POP POP POP POP POP JUMP JUMPDEST PUSH1 0x60 PUSH1 0x2 PUSH1 0x0 DUP4 PUSH20 0xFFFFFFFFFFFFFFFFFFFFFFFFFFFFFFFFFFFFFFFF AND PUSH20 0xFFFFFFFFFFFFFFFFFFFFFFFFFFFFFFFFFFFFFFFF AND DUP2 MSTORE PUSH1 0x20 ADD SWAP1 DUP2 MSTORE PUSH1 0x20 ADD PUSH1 0x0 KECCAK256 PUSH1 0x1 ADD DUP1 SLOAD PUSH2 0x155B SWAP1 PUSH2 0x486F JUMP JUMPDEST DUP1 PUSH1 0x1F ADD PUSH1 0x20 DUP1 SWAP2 DIV MUL PUSH1 0x20 ADD PUSH1 0x40 MLOAD SWAP1 DUP2 ADD PUSH1 0x40 MSTORE DUP1 SWAP3 SWAP2 SWAP1 DUP2 DUP2 MSTORE PUSH1 0x20 ADD DUP3 DUP1 SLOAD PUSH2 0x1587 SWAP1 PUSH2 0x486F JUMP JUMPDEST DUP1 ISZERO PUSH2 0x15D4 JUMPI DUP1 PUSH1 0x1F LT PUSH2 0x15A9 JUMPI PUSH2 0x100 DUP1 DUP4 SLOAD DIV MUL DUP4 MSTORE SWAP2 PUSH1 0x20 ADD SWAP2 PUSH2 0x15D4 JUMP JUMPDEST DUP3 ADD SWAP2 SWAP1 PUSH1 0x0 MSTORE PUSH1 0x20 PUSH1 0x0 KECCAK256 SWAP1 JUMPDEST DUP2 SLOAD DUP2 MSTORE SWAP1 PUSH1 0x1 ADD SWAP1 PUSH1 0x20 ADD DUP1 DUP4 GT PUSH2 0x15B7 JUMPI DUP3 SWAP1 SUB PUSH1 0x1F AND DUP3 ADD SWAP2 JUMPDEST POP POP POP POP POP SWAP1 POP SWAP2 SWAP1 POP JUMP JUMPDEST PUSH1 0x0 DUP1 PUSH1 0x40 MLOAD DUP1 PUSH1 0x40 ADD PUSH1 0x40 MSTORE DUP1 PUSH1 0x1C DUP2 MSTORE PUSH1 0x20 ADD PUSH32 0x19457468657265756D205369676E6564204D6573736167653A0A333200000000 DUP2 MSTORE POP SWAP1 POP PUSH1 0x0 DUP2 DUP8 PUSH1 0x40 MLOAD PUSH1 0x20 ADD PUSH2 0x1630 SWAP3 SWAP2 SWAP1 PUSH2 0x502D JUMP JUMPDEST PUSH1 0x40 MLOAD PUSH1 0x20 DUP2 DUP4 SUB SUB DUP2 MSTORE SWAP1 PUSH1 0x40 MSTORE DUP1 MLOAD SWAP1 PUSH1 0x20 ADD KECCAK256 SWAP1 POP PUSH1 0x1 DUP2 DUP8 DUP8 DUP8 PUSH1 0x40 MLOAD PUSH1 0x0 DUP2 MSTORE PUSH1 0x20 ADD PUSH1 0x40 MSTORE PUSH1 0x40 MLOAD PUSH2 0x166B SWAP5 SWAP4 SWAP3 SWAP2 SWAP1 PUSH2 0x5073 JUMP JUMPDEST PUSH1 0x20 PUSH1 0x40 MLOAD PUSH1 0x20 DUP2 SUB SWAP1 DUP1 DUP5 SUB SWAP1 DUP6 GAS STATICCALL ISZERO DUP1 ISZERO PUSH2 0x168D JUMPI RETURNDATASIZE PUSH1 0x0 DUP1 RETURNDATACOPY RETURNDATASIZE PUSH1 0x0 REVERT JUMPDEST POP POP POP PUSH1 0x20 PUSH1 0x40 MLOAD SUB MLOAD SWAP3 POP POP POP SWAP5 SWAP4 POP POP POP POP JUMP JUMPDEST PUSH1 0x60 PUSH1 0x0 DUP4 PUSH1 0x1 ADD PUSH1 0x0 DUP5 PUSH20 0xFFFFFFFFFFFFFFFFFFFFFFFFFFFFFFFFFFFFFFFF AND PUSH20 0xFFFFFFFFFFFFFFFFFFFFFFFFFFFFFFFFFFFFFFFF AND DUP2 MSTORE PUSH1 0x20 ADD SWAP1 DUP2 MSTORE PUSH1 0x20 ADD PUSH1 0x0 KECCAK256 DUP1 SLOAD SWAP1 POP PUSH8 0xFFFFFFFFFFFFFFFF DUP2 GT ISZERO PUSH2 0x1705 JUMPI PUSH2 0x1704 PUSH2 0x3B0D JUMP JUMPDEST JUMPDEST PUSH1 0x40 MLOAD SWAP1 DUP1 DUP3 MSTORE DUP1 PUSH1 0x20 MUL PUSH1 0x20 ADD DUP3 ADD PUSH1 0x40 MSTORE DUP1 ISZERO PUSH2 0x173E JUMPI DUP2 PUSH1 0x20 ADD JUMPDEST PUSH2 0x172B PUSH2 0x38F6 JUMP JUMPDEST DUP2 MSTORE PUSH1 0x20 ADD SWAP1 PUSH1 0x1 SWAP1 SUB SWAP1 DUP2 PUSH2 0x1723 JUMPI SWAP1 POP JUMPDEST POP SWAP1 POP PUSH1 0x0 JUMPDEST DUP5 PUSH1 0x1 ADD PUSH1 0x0 DUP6 PUSH20 0xFFFFFFFFFFFFFFFFFFFFFFFFFFFFFFFFFFFFFFFF AND PUSH20 0xFFFFFFFFFFFFFFFFFFFFFFFFFFFFFFFFFFFFFFFF AND DUP2 MSTORE PUSH1 0x20 ADD SWAP1 DUP2 MSTORE PUSH1 0x20 ADD PUSH1 0x0 KECCAK256 DUP1 SLOAD SWAP1 POP DUP2 LT ISZERO PUSH2 0x1B1D JUMPI DUP5 PUSH1 0x0 ADD PUSH1 0x0 DUP6 PUSH20 0xFFFFFFFFFFFFFFFFFFFFFFFFFFFFFFFFFFFFFFFF AND PUSH20 0xFFFFFFFFFFFFFFFFFFFFFFFFFFFFFFFFFFFFFFFF AND DUP2 MSTORE PUSH1 0x20 ADD SWAP1 DUP2 MSTORE PUSH1 0x20 ADD PUSH1 0x0 KECCAK256 DUP6 PUSH1 0x1 ADD PUSH1 0x0 DUP7 PUSH20 0xFFFFFFFFFFFFFFFFFFFFFFFFFFFFFFFFFFFFFFFF AND PUSH20 0xFFFFFFFFFFFFFFFFFFFFFFFFFFFFFFFFFFFFFFFF AND DUP2 MSTORE PUSH1 0x20 ADD SWAP1 DUP2 MSTORE PUSH1 0x20 ADD PUSH1 0x0 KECCAK256 DUP3 DUP2 SLOAD DUP2 LT PUSH2 0x1824 JUMPI PUSH2 0x1823 PUSH2 0x4CFC JUMP JUMPDEST JUMPDEST SWAP1 PUSH1 0x0 MSTORE PUSH1 0x20 PUSH1 0x0 KECCAK256 ADD PUSH1 0x40 MLOAD PUSH2 0x183B SWAP2 SWAP1 PUSH2 0x5150 JUMP JUMPDEST SWAP1 DUP2 MSTORE PUSH1 0x20 ADD PUSH1 0x40 MLOAD DUP1 SWAP2 SUB SWAP1 KECCAK256 PUSH1 0x40 MLOAD DUP1 PUSH1 0xA0 ADD PUSH1 0x40 MSTORE SWAP1 DUP2 PUSH1 0x0 DUP3 ADD PUSH1 0x0 SWAP1 SLOAD SWAP1 PUSH2 0x100 EXP SWAP1 DIV PUSH20 0xFFFFFFFFFFFFFFFFFFFFFFFFFFFFFFFFFFFFFFFF AND PUSH20 0xFFFFFFFFFFFFFFFFFFFFFFFFFFFFFFFFFFFFFFFF AND PUSH20 0xFFFFFFFFFFFFFFFFFFFFFFFFFFFFFFFFFFFFFFFF AND DUP2 MSTORE PUSH1 0x20 ADD PUSH1 0x1 DUP3 ADD DUP1 SLOAD PUSH2 0x18BA SWAP1 PUSH2 0x486F JUMP JUMPDEST DUP1 PUSH1 0x1F ADD PUSH1 0x20 DUP1 SWAP2 DIV MUL PUSH1 0x20 ADD PUSH1 0x40 MLOAD SWAP1 DUP2 ADD PUSH1 0x40 MSTORE DUP1 SWAP3 SWAP2 SWAP1 DUP2 DUP2 MSTORE PUSH1 0x20 ADD DUP3 DUP1 SLOAD PUSH2 0x18E6 SWAP1 PUSH2 0x486F JUMP JUMPDEST DUP1 ISZERO PUSH2 0x1933 JUMPI DUP1 PUSH1 0x1F LT PUSH2 0x1908 JUMPI PUSH2 0x100 DUP1 DUP4 SLOAD DIV MUL DUP4 MSTORE SWAP2 PUSH1 0x20 ADD SWAP2 PUSH2 0x1933 JUMP JUMPDEST DUP3 ADD SWAP2 SWAP1 PUSH1 0x0 MSTORE PUSH1 0x20 PUSH1 0x0 KECCAK256 SWAP1 JUMPDEST DUP2 SLOAD DUP2 MSTORE SWAP1 PUSH1 0x1 ADD SWAP1 PUSH1 0x20 ADD DUP1 DUP4 GT PUSH2 0x1916 JUMPI DUP3 SWAP1 SUB PUSH1 0x1F AND DUP3 ADD SWAP2 JUMPDEST POP POP POP POP POP DUP2 MSTORE PUSH1 0x20 ADD PUSH1 0x2 DUP3 ADD DUP1 SLOAD PUSH2 0x194C SWAP1 PUSH2 0x486F JUMP JUMPDEST DUP1 PUSH1 0x1F ADD PUSH1 0x20 DUP1 SWAP2 DIV MUL PUSH1 0x20 ADD PUSH1 0x40 MLOAD SWAP1 DUP2 ADD PUSH1 0x40 MSTORE DUP1 SWAP3 SWAP2 SWAP1 DUP2 DUP2 MSTORE PUSH1 0x20 ADD DUP3 DUP1 SLOAD PUSH2 0x1978 SWAP1 PUSH2 0x486F JUMP JUMPDEST DUP1 ISZERO PUSH2 0x19C5 JUMPI DUP1 PUSH1 0x1F LT PUSH2 0x199A JUMPI PUSH2 0x100 DUP1 DUP4 SLOAD DIV MUL DUP4 MSTORE SWAP2 PUSH1 0x20 ADD SWAP2 PUSH2 0x19C5 JUMP JUMPDEST DUP3 ADD SWAP2 SWAP1 PUSH1 0x0 MSTORE PUSH1 0x20 PUSH1 0x0 KECCAK256 SWAP1 JUMPDEST DUP2 SLOAD DUP2 MSTORE SWAP1 PUSH1 0x1 ADD SWAP1 PUSH1 0x20 ADD DUP1 DUP4 GT PUSH2 0x19A8 JUMPI DUP3 SWAP1 SUB PUSH1 0x1F AND DUP3 ADD SWAP2 JUMPDEST POP POP POP POP POP DUP2 MSTORE PUSH1 0x20 ADD PUSH1 0x3 DUP3 ADD DUP1 SLOAD PUSH2 0x19DE SWAP1 PUSH2 0x486F JUMP JUMPDEST DUP1 PUSH1 0x1F ADD PUSH1 0x20 DUP1 SWAP2 DIV MUL PUSH1 0x20 ADD PUSH1 0x40 MLOAD SWAP1 DUP2 ADD PUSH1 0x40 MSTORE DUP1 SWAP3 SWAP2 SWAP1 DUP2 DUP2 MSTORE PUSH1 0x20 ADD DUP3 DUP1 SLOAD PUSH2 0x1A0A SWAP1 PUSH2 0x486F JUMP JUMPDEST DUP1 ISZERO PUSH2 0x1A57 JUMPI DUP1 PUSH1 0x1F LT PUSH2 0x1A2C JUMPI PUSH2 0x100 DUP1 DUP4 SLOAD DIV MUL DUP4 MSTORE SWAP2 PUSH1 0x20 ADD SWAP2 PUSH2 0x1A57 JUMP JUMPDEST DUP3 ADD SWAP2 SWAP1 PUSH1 0x0 MSTORE PUSH1 0x20 PUSH1 0x0 KECCAK256 SWAP1 JUMPDEST DUP2 SLOAD DUP2 MSTORE SWAP1 PUSH1 0x1 ADD SWAP1 PUSH1 0x20 ADD DUP1 DUP4 GT PUSH2 0x1A3A JUMPI DUP3 SWAP1 SUB PUSH1 0x1F AND DUP3 ADD SWAP2 JUMPDEST POP POP POP POP POP DUP2 MSTORE PUSH1 0x20 ADD PUSH1 0x4 DUP3 ADD DUP1 SLOAD PUSH2 0x1A70 SWAP1 PUSH2 0x486F JUMP JUMPDEST DUP1 PUSH1 0x1F ADD PUSH1 0x20 DUP1 SWAP2 DIV MUL PUSH1 0x20 ADD PUSH1 0x40 MLOAD SWAP1 DUP2 ADD PUSH1 0x40 MSTORE DUP1 SWAP3 SWAP2 SWAP1 DUP2 DUP2 MSTORE PUSH1 0x20 ADD DUP3 DUP1 SLOAD PUSH2 0x1A9C SWAP1 PUSH2 0x486F JUMP JUMPDEST DUP1 ISZERO PUSH2 0x1AE9 JUMPI DUP1 PUSH1 0x1F LT PUSH2 0x1ABE JUMPI PUSH2 0x100 DUP1 DUP4 SLOAD DIV MUL DUP4 MSTORE SWAP2 PUSH1 0x20 ADD SWAP2 PUSH2 0x1AE9 JUMP JUMPDEST DUP3 ADD SWAP2 SWAP1 PUSH1 0x0 MSTORE PUSH1 0x20 PUSH1 0x0 KECCAK256 SWAP1 JUMPDEST DUP2 SLOAD DUP2 MSTORE SWAP1 PUSH1 0x1 ADD SWAP1 PUSH1 0x20 ADD DUP1 DUP4 GT PUSH2 0x1ACC JUMPI DUP3 SWAP1 SUB PUSH1 0x1F AND DUP3 ADD SWAP2 JUMPDEST POP POP POP POP POP DUP2 MSTORE POP POP DUP3 DUP3 DUP2 MLOAD DUP2 LT PUSH2 0x1B05 JUMPI PUSH2 0x1B04 PUSH2 0x4CFC JUMP JUMPDEST JUMPDEST PUSH1 0x20 MUL PUSH1 0x20 ADD ADD DUP2 SWAP1 MSTORE POP DUP1 DUP1 PUSH1 0x1 ADD SWAP2 POP POP PUSH2 0x1744 JUMP JUMPDEST POP DUP1 SWAP2 POP POP SWAP3 SWAP2 POP POP JUMP JUMPDEST DUP3 PUSH1 0x0 ADD PUSH1 0x0 DUP4 PUSH20 0xFFFFFFFFFFFFFFFFFFFFFFFFFFFFFFFFFFFFFFFF AND PUSH20 0xFFFFFFFFFFFFFFFFFFFFFFFFFFFFFFFFFFFFFFFF AND DUP2 MSTORE PUSH1 0x20 ADD SWAP1 DUP2 MSTORE PUSH1 0x20 ADD PUSH1 0x0 KECCAK256 DUP2 PUSH1 0x40 MLOAD PUSH2 0x1B77 SWAP2 SWAP1 PUSH2 0x47BD JUMP JUMPDEST SWAP1 DUP2 MSTORE PUSH1 0x20 ADD PUSH1 0x40 MLOAD DUP1 SWAP2 SUB SWAP1 KECCAK256 PUSH1 0x0 DUP1 DUP3 ADD PUSH1 0x0 PUSH2 0x100 EXP DUP2 SLOAD SWAP1 PUSH20 0xFFFFFFFFFFFFFFFFFFFFFFFFFFFFFFFFFFFFFFFF MUL NOT AND SWAP1 SSTORE PUSH1 0x1 DUP3 ADD PUSH1 0x0 PUSH2 0x1BBD SWAP2 SWAP1 PUSH2 0x393B JUMP JUMPDEST PUSH1 0x2 DUP3 ADD PUSH1 0x0 PUSH2 0x1BCD SWAP2 SWAP1 PUSH2 0x393B JUMP JUMPDEST PUSH1 0x3 DUP3 ADD PUSH1 0x0 PUSH2 0x1BDD SWAP2 SWAP1 PUSH2 0x393B JUMP JUMPDEST PUSH1 0x4 DUP3 ADD PUSH1 0x0 PUSH2 0x1BED SWAP2 SWAP1 PUSH2 0x393B JUMP JUMPDEST POP POP PUSH1 0x0 JUMPDEST DUP4 PUSH1 0x1 ADD PUSH1 0x0 DUP5 PUSH20 0xFFFFFFFFFFFFFFFFFFFFFFFFFFFFFFFFFFFFFFFF AND PUSH20 0xFFFFFFFFFFFFFFFFFFFFFFFFFFFFFFFFFFFFFFFF AND DUP2 MSTORE PUSH1 0x20 ADD SWAP1 DUP2 MSTORE PUSH1 0x20 ADD PUSH1 0x0 KECCAK256 DUP1 SLOAD SWAP1 POP DUP2 LT ISZERO PUSH2 0x1D64 JUMPI DUP2 PUSH1 0x40 MLOAD PUSH1 0x20 ADD PUSH2 0x1C4F SWAP2 SWAP1 PUSH2 0x47BD JUMP JUMPDEST PUSH1 0x40 MLOAD PUSH1 0x20 DUP2 DUP4 SUB SUB DUP2 MSTORE SWAP1 PUSH1 0x40 MSTORE DUP1 MLOAD SWAP1 PUSH1 0x20 ADD KECCAK256 DUP5 PUSH1 0x1 ADD PUSH1 0x0 DUP6 PUSH20 0xFFFFFFFFFFFFFFFFFFFFFFFFFFFFFFFFFFFFFFFF AND PUSH20 0xFFFFFFFFFFFFFFFFFFFFFFFFFFFFFFFFFFFFFFFF AND DUP2 MSTORE PUSH1 0x20 ADD SWAP1 DUP2 MSTORE PUSH1 0x20 ADD PUSH1 0x0 KECCAK256 DUP3 DUP2 SLOAD DUP2 LT PUSH2 0x1CB8 JUMPI PUSH2 0x1CB7 PUSH2 0x4CFC JUMP JUMPDEST JUMPDEST SWAP1 PUSH1 0x0 MSTORE PUSH1 0x20 PUSH1 0x0 KECCAK256 ADD PUSH1 0x40 MLOAD PUSH1 0x20 ADD PUSH2 0x1CD2 SWAP2 SWAP1 PUSH2 0x5150 JUMP JUMPDEST PUSH1 0x40 MLOAD PUSH1 0x20 DUP2 DUP4 SUB SUB DUP2 MSTORE SWAP1 PUSH1 0x40 MSTORE DUP1 MLOAD SWAP1 PUSH1 0x20 ADD KECCAK256 SUB PUSH2 0x1D57 JUMPI DUP4 PUSH1 0x1 ADD PUSH1 0x0 DUP5 PUSH20 0xFFFFFFFFFFFFFFFFFFFFFFFFFFFFFFFFFFFFFFFF AND PUSH20 0xFFFFFFFFFFFFFFFFFFFFFFFFFFFFFFFFFFFFFFFF AND DUP2 MSTORE PUSH1 0x20 ADD SWAP1 DUP2 MSTORE PUSH1 0x20 ADD PUSH1 0x0 KECCAK256 DUP2 DUP2 SLOAD DUP2 LT PUSH2 0x1D40 JUMPI PUSH2 0x1D3F PUSH2 0x4CFC JUMP JUMPDEST JUMPDEST SWAP1 PUSH1 0x0 MSTORE PUSH1 0x20 PUSH1 0x0 KECCAK256 ADD PUSH1 0x0 PUSH2 0x1D56 SWAP2 SWAP1 PUSH2 0x393B JUMP JUMPDEST JUMPDEST DUP1 DUP1 PUSH1 0x1 ADD SWAP2 POP POP PUSH2 0x1BF2 JUMP JUMPDEST POP POP POP POP JUMP JUMPDEST PUSH1 0x0 PUSH1 0x60 PUSH1 0x0 PUSH1 0x40 MLOAD DUP1 PUSH1 0x40 ADD PUSH1 0x40 MSTORE DUP1 PUSH1 0x1C DUP2 MSTORE PUSH1 0x20 ADD PUSH32 0x19457468657265756D205369676E6564204D6573736167653A0A333200000000 DUP2 MSTORE POP SWAP1 POP PUSH1 0x0 DUP2 DUP9 PUSH1 0x40 MLOAD PUSH1 0x20 ADD PUSH2 0x1DBD SWAP3 SWAP2 SWAP1 PUSH2 0x502D JUMP JUMPDEST PUSH1 0x40 MLOAD PUSH1 0x20 DUP2 DUP4 SUB SUB DUP2 MSTORE SWAP1 PUSH1 0x40 MSTORE DUP1 MLOAD SWAP1 PUSH1 0x20 ADD KECCAK256 SWAP1 POP PUSH1 0x0 DUP1 PUSH2 0x1DF9 DUP4 PUSH1 0x0 SHR PUSH1 0x1B DUP12 PUSH2 0x1DEC SWAP2 SWAP1 PUSH2 0x5196 JUMP JUMPDEST DUP11 PUSH1 0x0 SHR DUP11 PUSH1 0x0 SHR PUSH2 0x212D JUMP JUMPDEST SWAP2 POP SWAP2 POP PUSH1 0x1 DUP4 DUP11 DUP11 DUP11 PUSH1 0x40 MLOAD PUSH1 0x0 DUP2 MSTORE PUSH1 0x20 ADD PUSH1 0x40 MSTORE PUSH1 0x40 MLOAD PUSH2 0x1E20 SWAP5 SWAP4 SWAP3 SWAP2 SWAP1 PUSH2 0x5073 JUMP JUMPDEST PUSH1 0x20 PUSH1 0x40 MLOAD PUSH1 0x20 DUP2 SUB SWAP1 DUP1 DUP5 SUB SWAP1 DUP6 GAS STATICCALL ISZERO DUP1 ISZERO PUSH2 0x1E42 JUMPI RETURNDATASIZE PUSH1 0x0 DUP1 RETURNDATACOPY RETURNDATASIZE PUSH1 0x0 REVERT JUMPDEST POP POP POP PUSH1 0x20 PUSH1 0x40 MLOAD SUB MLOAD DUP3 DUP3 PUSH1 0x40 MLOAD PUSH1 0x20 ADD PUSH2 0x1E5F SWAP3 SWAP2 SWAP1 PUSH2 0x51EC JUMP JUMPDEST PUSH1 0x40 MLOAD PUSH1 0x20 DUP2 DUP4 SUB SUB DUP2 MSTORE SWAP1 PUSH1 0x40 MSTORE SWAP6 POP SWAP6 POP POP POP POP POP SWAP5 POP SWAP5 SWAP3 POP POP POP JUMP JUMPDEST PUSH1 0x0 PUSH20 0xFFFFFFFFFFFFFFFFFFFFFFFFFFFFFFFFFFFFFFFF AND DUP8 PUSH1 0x0 ADD PUSH1 0x0 DUP8 PUSH20 0xFFFFFFFFFFFFFFFFFFFFFFFFFFFFFFFFFFFFFFFF AND PUSH20 0xFFFFFFFFFFFFFFFFFFFFFFFFFFFFFFFFFFFFFFFF AND DUP2 MSTORE PUSH1 0x20 ADD SWAP1 DUP2 MSTORE PUSH1 0x20 ADD PUSH1 0x0 KECCAK256 DUP6 PUSH1 0x40 MLOAD PUSH2 0x1EE6 SWAP2 SWAP1 PUSH2 0x47BD JUMP JUMPDEST SWAP1 DUP2 MSTORE PUSH1 0x20 ADD PUSH1 0x40 MLOAD DUP1 SWAP2 SUB SWAP1 KECCAK256 PUSH1 0x0 ADD PUSH1 0x0 SWAP1 SLOAD SWAP1 PUSH2 0x100 EXP SWAP1 DIV PUSH20 0xFFFFFFFFFFFFFFFFFFFFFFFFFFFFFFFFFFFFFFFF AND PUSH20 0xFFFFFFFFFFFFFFFFFFFFFFFFFFFFFFFFFFFFFFFF AND EQ PUSH2 0x1F6E JUMPI PUSH1 0x40 MLOAD PUSH32 0x8C379A000000000000000000000000000000000000000000000000000000000 DUP2 MSTORE PUSH1 0x4 ADD PUSH2 0x1F65 SWAP1 PUSH2 0x5264 JUMP JUMPDEST PUSH1 0x40 MLOAD DUP1 SWAP2 SUB SWAP1 REVERT JUMPDEST PUSH1 0x0 PUSH1 0x40 MLOAD DUP1 PUSH1 0xA0 ADD PUSH1 0x40 MSTORE DUP1 DUP9 PUSH20 0xFFFFFFFFFFFFFFFFFFFFFFFFFFFFFFFFFFFFFFFF AND DUP2 MSTORE PUSH1 0x20 ADD DUP7 DUP2 MSTORE PUSH1 0x20 ADD DUP6 DUP2 MSTORE PUSH1 0x20 ADD DUP5 DUP2 MSTORE PUSH1 0x20 ADD DUP4 DUP2 MSTORE POP SWAP1 POP DUP1 DUP9 PUSH1 0x0 ADD PUSH1 0x0 DUP9 PUSH20 0xFFFFFFFFFFFFFFFFFFFFFFFFFFFFFFFFFFFFFFFF AND PUSH20 0xFFFFFFFFFFFFFFFFFFFFFFFFFFFFFFFFFFFFFFFF AND DUP2 MSTORE PUSH1 0x20 ADD SWAP1 DUP2 MSTORE PUSH1 0x20 ADD PUSH1 0x0 KECCAK256 DUP7 PUSH1 0x40 MLOAD PUSH2 0x1FFF SWAP2 SWAP1 PUSH2 0x47BD JUMP JUMPDEST SWAP1 DUP2 MSTORE PUSH1 0x20 ADD PUSH1 0x40 MLOAD DUP1 SWAP2 SUB SWAP1 KECCAK256 PUSH1 0x0 DUP3 ADD MLOAD DUP2 PUSH1 0x0 ADD PUSH1 0x0 PUSH2 0x100 EXP DUP2 SLOAD DUP2 PUSH20 0xFFFFFFFFFFFFFFFFFFFFFFFFFFFFFFFFFFFFFFFF MUL NOT AND SWAP1 DUP4 PUSH20 0xFFFFFFFFFFFFFFFFFFFFFFFFFFFFFFFFFFFFFFFF AND MUL OR SWAP1 SSTORE POP PUSH1 0x20 DUP3 ADD MLOAD DUP2 PUSH1 0x1 ADD SWAP1 DUP2 PUSH2 0x2069 SWAP2 SWAP1 PUSH2 0x52CA JUMP JUMPDEST POP PUSH1 0x40 DUP3 ADD MLOAD DUP2 PUSH1 0x2 ADD SWAP1 DUP2 PUSH2 0x207F SWAP2 SWAP1 PUSH2 0x52CA JUMP JUMPDEST POP PUSH1 0x60 DUP3 ADD MLOAD DUP2 PUSH1 0x3 ADD SWAP1 DUP2 PUSH2 0x2095 SWAP2 SWAP1 PUSH2 0x52CA JUMP JUMPDEST POP PUSH1 0x80 DUP3 ADD MLOAD DUP2 PUSH1 0x4 ADD SWAP1 DUP2 PUSH2 0x20AB SWAP2 SWAP1 PUSH2 0x52CA JUMP JUMPDEST POP SWAP1 POP POP DUP8 PUSH1 0x1 ADD PUSH1 0x0 DUP8 PUSH20 0xFFFFFFFFFFFFFFFFFFFFFFFFFFFFFFFFFFFFFFFF AND PUSH20 0xFFFFFFFFFFFFFFFFFFFFFFFFFFFFFFFFFFFFFFFF AND DUP2 MSTORE PUSH1 0x20 ADD SWAP1 DUP2 MSTORE PUSH1 0x20 ADD PUSH1 0x0 KECCAK256 DUP6 SWAP1 DUP1 PUSH1 0x1 DUP2 SLOAD ADD DUP1 DUP3 SSTORE DUP1 SWAP2 POP POP PUSH1 0x1 SWAP1 SUB SWAP1 PUSH1 0x0 MSTORE PUSH1 0x20 PUSH1 0x0 KECCAK256 ADD PUSH1 0x0 SWAP1 SWAP2 SWAP1 SWAP2 SWAP1 SWAP2 POP SWAP1 DUP2 PUSH2 0x2122 SWAP2 SWAP1 PUSH2 0x52CA JUMP JUMPDEST POP POP POP POP POP POP POP POP POP JUMP JUMPDEST PUSH1 0x0 DUP1 PUSH1 0x0 PUSH32 0xFFFFFFFFFFFFFFFFFFFFFFFFFFFFFFFFFFFFFFFFFFFFFFFFFFFFFFFEFFFFFC2F DUP1 PUSH2 0x2161 JUMPI PUSH2 0x2160 PUSH2 0x539C JUMP JUMPDEST JUMPDEST PUSH1 0x1 DUP8 PUSH1 0xFF AND SWAP1 SHR PUSH1 0xFF AND PUSH32 0xFFFFFFFFFFFFFFFFFFFFFFFFFFFFFFFFFFFFFFFFFFFFFFFFFFFFFFFEFFFFFC2F PUSH2 0x2197 SWAP2 SWAP1 PUSH2 0x53CB JUMP JUMPDEST DUP7 ADDMOD SWAP1 POP PUSH32 0xFFFFFFFFFFFFFFFFFFFFFFFFFFFFFFFFFFFFFFFFFFFFFFFFFFFFFFFEFFFFFC2F DUP2 GT DUP1 PUSH2 0x21E8 JUMPI POP PUSH32 0xFFFFFFFFFFFFFFFFFFFFFFFFFFFFFFFEBAAEDCE6AF48A03BBFD25E8CD0364141 DUP5 GT JUMPDEST DUP1 PUSH2 0x2212 JUMPI POP PUSH32 0xFFFFFFFFFFFFFFFFFFFFFFFFFFFFFFFEBAAEDCE6AF48A03BBFD25E8CD0364141 DUP6 GT JUMPDEST DUP1 PUSH2 0x221D JUMPI POP PUSH1 0x0 DUP5 EQ JUMPDEST DUP1 PUSH2 0x2228 JUMPI POP PUSH1 0x0 DUP6 EQ JUMPDEST DUP1 PUSH2 0x2236 JUMPI POP PUSH1 0x1 DUP7 PUSH1 0xFF AND GT JUMPDEST ISZERO PUSH2 0x2248 JUMPI PUSH1 0x0 DUP1 SWAP3 POP SWAP3 POP POP PUSH2 0x2536 JUMP JUMPDEST PUSH1 0x0 PUSH2 0x2274 DUP7 PUSH32 0xFFFFFFFFFFFFFFFFFFFFFFFFFFFFFFFEBAAEDCE6AF48A03BBFD25E8CD0364141 PUSH2 0x253F JUMP JUMPDEST SWAP1 POP PUSH1 0x0 PUSH32 0xFFFFFFFFFFFFFFFFFFFFFFFFFFFFFFFFFFFFFFFFFFFFFFFFFFFFFFFEFFFFFC2F DUP1 PUSH2 0x22A7 JUMPI PUSH2 0x22A6 PUSH2 0x539C JUMP JUMPDEST JUMPDEST PUSH32 0xFFFFFFFFFFFFFFFFFFFFFFFFFFFFFFFFFFFFFFFFFFFFFFFFFFFFFFFEFFFFFC2F DUP1 PUSH2 0x22D6 JUMPI PUSH2 0x22D5 PUSH2 0x539C JUMP JUMPDEST JUMPDEST PUSH1 0x7 PUSH32 0xFFFFFFFFFFFFFFFFFFFFFFFFFFFFFFFFFFFFFFFFFFFFFFFFFFFFFFFEFFFFFC2F DUP1 PUSH2 0x2307 JUMPI PUSH2 0x2306 PUSH2 0x539C JUMP JUMPDEST JUMPDEST PUSH1 0x0 DUP8 MULMOD ADDMOD PUSH32 0xFFFFFFFFFFFFFFFFFFFFFFFFFFFFFFFFFFFFFFFFFFFFFFFFFFFFFFFEFFFFFC2F DUP1 PUSH2 0x233B JUMPI PUSH2 0x233A PUSH2 0x539C JUMP JUMPDEST JUMPDEST PUSH32 0xFFFFFFFFFFFFFFFFFFFFFFFFFFFFFFFFFFFFFFFFFFFFFFFFFFFFFFFEFFFFFC2F DUP1 PUSH2 0x236A JUMPI PUSH2 0x2369 PUSH2 0x539C JUMP JUMPDEST JUMPDEST DUP7 DUP8 MULMOD DUP7 MULMOD ADDMOD SWAP1 POP PUSH2 0x23B4 DUP2 PUSH1 0x4 PUSH1 0x1 PUSH32 0xFFFFFFFFFFFFFFFFFFFFFFFFFFFFFFFFFFFFFFFFFFFFFFFFFFFFFFFEFFFFFC2F PUSH2 0x23A5 SWAP2 SWAP1 PUSH2 0x540D JUMP JUMPDEST PUSH2 0x23AF SWAP2 SWAP1 PUSH2 0x5441 JUMP JUMPDEST PUSH2 0x262B JUMP JUMPDEST SWAP1 POP PUSH1 0x0 DUP1 PUSH1 0x1 PUSH1 0x2 DUP12 PUSH1 0xFF AND DUP6 PUSH2 0x23CC SWAP2 SWAP1 PUSH2 0x540D JUMP JUMPDEST PUSH2 0x23D6 SWAP2 SWAP1 PUSH2 0x540D JUMP JUMPDEST AND EQ PUSH2 0x240D JUMPI DUP2 PUSH32 0xFFFFFFFFFFFFFFFFFFFFFFFFFFFFFFFFFFFFFFFFFFFFFFFFFFFFFFFEFFFFFC2F PUSH2 0x2408 SWAP2 SWAP1 PUSH2 0x5472 JUMP JUMPDEST PUSH2 0x240F JUMP JUMPDEST DUP2 JUMPDEST SWAP1 POP PUSH1 0x0 DUP1 PUSH1 0x0 PUSH2 0x24BF PUSH32 0xFFFFFFFFFFFFFFFFFFFFFFFFFFFFFFFEBAAEDCE6AF48A03BBFD25E8CD0364141 DUP1 PUSH2 0x2448 JUMPI PUSH2 0x2447 PUSH2 0x539C JUMP JUMPDEST JUMPDEST DUP15 PUSH32 0xFFFFFFFFFFFFFFFFFFFFFFFFFFFFFFFEBAAEDCE6AF48A03BBFD25E8CD0364141 PUSH2 0x2474 SWAP2 SWAP1 PUSH2 0x5472 JUMP JUMPDEST DUP9 MULMOD PUSH32 0x79BE667EF9DCBBAC55A06295CE870B07029BFCDB2DCE28D959F2815B16F81798 PUSH32 0x483ADA7726A3C4655DA4FBFC0E1108A8FD17B448A68554199C47D08FFB10D4B8 PUSH1 0x1 PUSH2 0x27DF JUMP JUMPDEST SWAP3 POP SWAP3 POP SWAP3 POP PUSH1 0x0 DUP1 PUSH1 0x0 PUSH2 0x2508 PUSH32 0xFFFFFFFFFFFFFFFFFFFFFFFFFFFFFFFEBAAEDCE6AF48A03BBFD25E8CD0364141 DUP1 PUSH2 0x24FC JUMPI PUSH2 0x24FB PUSH2 0x539C JUMP JUMPDEST JUMPDEST DUP15 DUP12 MULMOD DUP12 DUP10 PUSH1 0x1 PUSH2 0x27DF JUMP JUMPDEST SWAP3 POP SWAP3 POP SWAP3 POP PUSH1 0x0 DUP1 PUSH2 0x251F DUP9 DUP9 DUP9 DUP9 DUP9 DUP9 PUSH2 0x2879 JUMP JUMPDEST SWAP2 POP SWAP2 POP DUP2 DUP2 SWAP14 POP SWAP14 POP POP POP POP POP POP POP POP POP POP POP POP POP JUMPDEST SWAP5 POP SWAP5 SWAP3 POP POP POP JUMP JUMPDEST PUSH1 0x0 DUP1 DUP4 EQ ISZERO DUP1 ISZERO PUSH2 0x2551 JUMPI POP DUP2 DUP4 EQ ISZERO JUMPDEST DUP1 ISZERO PUSH2 0x255E JUMPI POP PUSH1 0x0 DUP3 EQ ISZERO JUMPDEST PUSH2 0x259D JUMPI PUSH1 0x40 MLOAD PUSH32 0x8C379A000000000000000000000000000000000000000000000000000000000 DUP2 MSTORE PUSH1 0x4 ADD PUSH2 0x2594 SWAP1 PUSH2 0x54F2 JUMP JUMPDEST PUSH1 0x40 MLOAD DUP1 SWAP2 SUB SWAP1 REVERT JUMPDEST PUSH1 0x0 DUP1 PUSH1 0x1 SWAP1 POP PUSH1 0x0 DUP5 SWAP1 POP PUSH1 0x0 JUMPDEST PUSH1 0x0 DUP8 EQ PUSH2 0x261E JUMPI DUP7 DUP3 PUSH2 0x25C0 SWAP2 SWAP1 PUSH2 0x5441 JUMP JUMPDEST SWAP1 POP DUP3 DUP7 DUP1 PUSH2 0x25D2 JUMPI PUSH2 0x25D1 PUSH2 0x539C JUMP JUMPDEST JUMPDEST DUP8 DUP1 PUSH2 0x25E1 JUMPI PUSH2 0x25E0 PUSH2 0x539C JUMP JUMPDEST JUMPDEST DUP6 DUP5 MULMOD DUP9 PUSH2 0x25EF SWAP2 SWAP1 PUSH2 0x5472 JUMP JUMPDEST DUP7 ADDMOD DUP1 SWAP5 POP DUP2 SWAP6 POP POP POP DUP7 DUP8 DUP3 PUSH2 0x2606 SWAP2 SWAP1 PUSH2 0x53CB JUMP JUMPDEST DUP4 PUSH2 0x2611 SWAP2 SWAP1 PUSH2 0x5472 JUMP JUMPDEST DUP1 SWAP9 POP DUP2 SWAP4 POP POP POP PUSH2 0x25AC JUMP JUMPDEST DUP4 SWAP5 POP POP POP POP POP SWAP3 SWAP2 POP POP JUMP JUMPDEST PUSH1 0x0 DUP1 DUP4 SUB PUSH2 0x263D JUMPI PUSH1 0x0 SWAP1 POP PUSH2 0x27D9 JUMP JUMPDEST PUSH1 0x0 DUP3 SUB PUSH2 0x264E JUMPI PUSH1 0x1 SWAP1 POP PUSH2 0x27D9 JUMP JUMPDEST PUSH1 0x0 PUSH1 0x1 SWAP1 POP PUSH1 0x0 PUSH32 0x8000000000000000000000000000000000000000000000000000000000000000 SWAP1 POP JUMPDEST PUSH1 0x0 DUP2 GT ISZERO PUSH2 0x27D3 JUMPI PUSH32 0xFFFFFFFFFFFFFFFFFFFFFFFFFFFFFFFFFFFFFFFFFFFFFFFFFFFFFFFEFFFFFC2F DUP2 DUP6 AND ISZERO ISZERO DUP7 EXP PUSH32 0xFFFFFFFFFFFFFFFFFFFFFFFFFFFFFFFFFFFFFFFFFFFFFFFFFFFFFFFEFFFFFC2F DUP5 DUP6 MULMOD MULMOD SWAP2 POP PUSH32 0xFFFFFFFFFFFFFFFFFFFFFFFFFFFFFFFFFFFFFFFFFFFFFFFFFFFFFFFEFFFFFC2F PUSH1 0x2 DUP3 DIV DUP6 AND ISZERO ISZERO DUP7 EXP PUSH32 0xFFFFFFFFFFFFFFFFFFFFFFFFFFFFFFFFFFFFFFFFFFFFFFFFFFFFFFFEFFFFFC2F DUP5 DUP6 MULMOD MULMOD SWAP2 POP PUSH32 0xFFFFFFFFFFFFFFFFFFFFFFFFFFFFFFFFFFFFFFFFFFFFFFFFFFFFFFFEFFFFFC2F PUSH1 0x4 DUP3 DIV DUP6 AND ISZERO ISZERO DUP7 EXP PUSH32 0xFFFFFFFFFFFFFFFFFFFFFFFFFFFFFFFFFFFFFFFFFFFFFFFFFFFFFFFEFFFFFC2F DUP5 DUP6 MULMOD MULMOD SWAP2 POP PUSH32 0xFFFFFFFFFFFFFFFFFFFFFFFFFFFFFFFFFFFFFFFFFFFFFFFFFFFFFFFEFFFFFC2F PUSH1 0x8 DUP3 DIV DUP6 AND ISZERO ISZERO DUP7 EXP PUSH32 0xFFFFFFFFFFFFFFFFFFFFFFFFFFFFFFFFFFFFFFFFFFFFFFFFFFFFFFFEFFFFFC2F DUP5 DUP6 MULMOD MULMOD SWAP2 POP PUSH1 0x10 DUP2 DIV SWAP1 POP PUSH2 0x267A JUMP JUMPDEST DUP2 SWAP3 POP POP POP JUMPDEST SWAP3 SWAP2 POP POP JUMP JUMPDEST PUSH1 0x0 DUP1 PUSH1 0x0 DUP1 DUP8 SUB PUSH2 0x27F9 JUMPI DUP6 DUP6 DUP6 SWAP3 POP SWAP3 POP SWAP3 POP PUSH2 0x286F JUMP JUMPDEST PUSH1 0x0 DUP8 SWAP1 POP PUSH1 0x0 DUP1 PUSH1 0x0 PUSH1 0x1 SWAP1 POP JUMPDEST PUSH1 0x0 DUP5 EQ PUSH2 0x2861 JUMPI PUSH1 0x0 PUSH1 0x1 DUP6 AND EQ PUSH2 0x2836 JUMPI PUSH2 0x2829 DUP4 DUP4 DUP4 DUP14 DUP14 DUP14 PUSH2 0x2925 JUMP JUMPDEST DUP1 SWAP4 POP DUP2 SWAP5 POP DUP3 SWAP6 POP POP POP POP JUMPDEST PUSH1 0x2 DUP5 PUSH2 0x2843 SWAP2 SWAP1 PUSH2 0x5441 JUMP JUMPDEST SWAP4 POP PUSH2 0x2850 DUP11 DUP11 DUP11 PUSH2 0x3363 JUMP JUMPDEST DUP1 SWAP11 POP DUP2 SWAP12 POP DUP3 SWAP13 POP POP POP POP PUSH2 0x2808 JUMP JUMPDEST DUP3 DUP3 DUP3 SWAP7 POP SWAP7 POP SWAP7 POP POP POP POP POP JUMPDEST SWAP5 POP SWAP5 POP SWAP5 SWAP2 POP POP JUMP JUMPDEST PUSH1 0x0 DUP1 PUSH1 0x0 DUP1 PUSH1 0x0 DUP8 DUP12 SUB PUSH2 0x28EC JUMPI PUSH1 0x0 PUSH32 0xFFFFFFFFFFFFFFFFFFFFFFFFFFFFFFFFFFFFFFFFFFFFFFFFFFFFFFFEFFFFFC2F DUP1 PUSH2 0x28B9 JUMPI PUSH2 0x28B8 PUSH2 0x539C JUMP JUMPDEST JUMPDEST DUP9 DUP13 ADDMOD SUB PUSH2 0x28D0 JUMPI PUSH1 0x0 DUP1 SWAP5 POP SWAP5 POP POP POP POP PUSH2 0x291A JUMP JUMPDEST PUSH2 0x28DB DUP12 DUP12 DUP12 PUSH2 0x3363 JUMP JUMPDEST DUP1 SWAP4 POP DUP2 SWAP5 POP DUP3 SWAP6 POP POP POP POP PUSH2 0x2907 JUMP JUMPDEST PUSH2 0x28FA DUP12 DUP12 DUP12 DUP12 DUP12 DUP12 PUSH2 0x2925 JUMP JUMPDEST DUP1 SWAP4 POP DUP2 SWAP5 POP DUP3 SWAP6 POP POP POP POP JUMPDEST PUSH2 0x2912 DUP4 DUP4 DUP4 PUSH2 0x37E0 JUMP JUMPDEST SWAP5 POP SWAP5 POP POP POP POP JUMPDEST SWAP7 POP SWAP7 SWAP5 POP POP POP POP POP JUMP JUMPDEST PUSH1 0x0 DUP1 PUSH1 0x0 DUP1 DUP10 EQ DUP1 ISZERO PUSH2 0x2939 JUMPI POP PUSH1 0x0 DUP9 EQ JUMPDEST ISZERO PUSH2 0x294C JUMPI DUP6 DUP6 DUP6 SWAP3 POP SWAP3 POP SWAP3 POP PUSH2 0x3357 JUMP JUMPDEST PUSH1 0x0 DUP7 EQ DUP1 ISZERO PUSH2 0x295C JUMPI POP PUSH1 0x0 DUP6 EQ JUMPDEST ISZERO PUSH2 0x296F JUMPI DUP9 DUP9 DUP9 SWAP3 POP SWAP3 POP SWAP3 POP PUSH2 0x3357 JUMP JUMPDEST PUSH2 0x2977 PUSH2 0x397B JUMP JUMPDEST PUSH32 0xFFFFFFFFFFFFFFFFFFFFFFFFFFFFFFFFFFFFFFFFFFFFFFFFFFFFFFFEFFFFFC2F DUP1 PUSH2 0x29A6 JUMPI PUSH2 0x29A5 PUSH2 0x539C JUMP JUMPDEST JUMPDEST DUP9 DUP10 MULMOD DUP2 PUSH1 0x0 PUSH1 0x4 DUP2 LT PUSH2 0x29BD JUMPI PUSH2 0x29BC PUSH2 0x4CFC JUMP JUMPDEST JUMPDEST PUSH1 0x20 MUL ADD DUP2 DUP2 MSTORE POP POP PUSH32 0xFFFFFFFFFFFFFFFFFFFFFFFFFFFFFFFFFFFFFFFFFFFFFFFFFFFFFFFEFFFFFC2F DUP1 PUSH2 0x29F5 JUMPI PUSH2 0x29F4 PUSH2 0x539C JUMP JUMPDEST JUMPDEST DUP2 PUSH1 0x0 PUSH1 0x4 DUP2 LT PUSH2 0x2A09 JUMPI PUSH2 0x2A08 PUSH2 0x4CFC JUMP JUMPDEST JUMPDEST PUSH1 0x20 MUL ADD MLOAD DUP10 MULMOD DUP2 PUSH1 0x1 PUSH1 0x4 DUP2 LT PUSH2 0x2A24 JUMPI PUSH2 0x2A23 PUSH2 0x4CFC JUMP JUMPDEST JUMPDEST PUSH1 0x20 MUL ADD DUP2 DUP2 MSTORE POP POP PUSH32 0xFFFFFFFFFFFFFFFFFFFFFFFFFFFFFFFFFFFFFFFFFFFFFFFFFFFFFFFEFFFFFC2F DUP1 PUSH2 0x2A5C JUMPI PUSH2 0x2A5B PUSH2 0x539C JUMP JUMPDEST JUMPDEST DUP6 DUP7 MULMOD DUP2 PUSH1 0x2 PUSH1 0x4 DUP2 LT PUSH2 0x2A73 JUMPI PUSH2 0x2A72 PUSH2 0x4CFC JUMP JUMPDEST JUMPDEST PUSH1 0x20 MUL ADD DUP2 DUP2 MSTORE POP POP PUSH32 0xFFFFFFFFFFFFFFFFFFFFFFFFFFFFFFFFFFFFFFFFFFFFFFFFFFFFFFFEFFFFFC2F DUP1 PUSH2 0x2AAB JUMPI PUSH2 0x2AAA PUSH2 0x539C JUMP JUMPDEST JUMPDEST DUP2 PUSH1 0x2 PUSH1 0x4 DUP2 LT PUSH2 0x2ABF JUMPI PUSH2 0x2ABE PUSH2 0x4CFC JUMP JUMPDEST JUMPDEST PUSH1 0x20 MUL ADD MLOAD DUP7 MULMOD DUP2 PUSH1 0x3 PUSH1 0x4 DUP2 LT PUSH2 0x2ADA JUMPI PUSH2 0x2AD9 PUSH2 0x4CFC JUMP JUMPDEST JUMPDEST PUSH1 0x20 MUL ADD DUP2 DUP2 MSTORE POP POP PUSH1 0x40 MLOAD DUP1 PUSH1 0x80 ADD PUSH1 0x40 MSTORE DUP1 PUSH32 0xFFFFFFFFFFFFFFFFFFFFFFFFFFFFFFFFFFFFFFFFFFFFFFFFFFFFFFFEFFFFFC2F DUP1 PUSH2 0x2B1D JUMPI PUSH2 0x2B1C PUSH2 0x539C JUMP JUMPDEST JUMPDEST DUP4 PUSH1 0x2 PUSH1 0x4 DUP2 LT PUSH2 0x2B31 JUMPI PUSH2 0x2B30 PUSH2 0x4CFC JUMP JUMPDEST JUMPDEST PUSH1 0x20 MUL ADD MLOAD DUP14 MULMOD DUP2 MSTORE PUSH1 0x20 ADD PUSH32 0xFFFFFFFFFFFFFFFFFFFFFFFFFFFFFFFFFFFFFFFFFFFFFFFFFFFFFFFEFFFFFC2F DUP1 PUSH2 0x2B6C JUMPI PUSH2 0x2B6B PUSH2 0x539C JUMP JUMPDEST JUMPDEST DUP4 PUSH1 0x3 PUSH1 0x4 DUP2 LT PUSH2 0x2B80 JUMPI PUSH2 0x2B7F PUSH2 0x4CFC JUMP JUMPDEST JUMPDEST PUSH1 0x20 MUL ADD MLOAD DUP13 MULMOD DUP2 MSTORE PUSH1 0x20 ADD PUSH32 0xFFFFFFFFFFFFFFFFFFFFFFFFFFFFFFFFFFFFFFFFFFFFFFFFFFFFFFFEFFFFFC2F DUP1 PUSH2 0x2BBB JUMPI PUSH2 0x2BBA PUSH2 0x539C JUMP JUMPDEST JUMPDEST DUP4 PUSH1 0x0 PUSH1 0x4 DUP2 LT PUSH2 0x2BCF JUMPI PUSH2 0x2BCE PUSH2 0x4CFC JUMP JUMPDEST JUMPDEST PUSH1 0x20 MUL ADD MLOAD DUP11 MULMOD DUP2 MSTORE PUSH1 0x20 ADD PUSH32 0xFFFFFFFFFFFFFFFFFFFFFFFFFFFFFFFFFFFFFFFFFFFFFFFFFFFFFFFEFFFFFC2F DUP1 PUSH2 0x2C0A JUMPI PUSH2 0x2C09 PUSH2 0x539C JUMP JUMPDEST JUMPDEST DUP4 PUSH1 0x1 PUSH1 0x4 DUP2 LT PUSH2 0x2C1E JUMPI PUSH2 0x2C1D PUSH2 0x4CFC JUMP JUMPDEST JUMPDEST PUSH1 0x20 MUL ADD MLOAD DUP10 MULMOD DUP2 MSTORE POP SWAP1 POP DUP1 PUSH1 0x2 PUSH1 0x4 DUP2 LT PUSH2 0x2C3E JUMPI PUSH2 0x2C3D PUSH2 0x4CFC JUMP JUMPDEST JUMPDEST PUSH1 0x20 MUL ADD MLOAD DUP2 PUSH1 0x0 PUSH1 0x4 DUP2 LT PUSH2 0x2C57 JUMPI PUSH2 0x2C56 PUSH2 0x4CFC JUMP JUMPDEST JUMPDEST PUSH1 0x20 MUL ADD MLOAD EQ ISZERO DUP1 PUSH2 0x2C99 JUMPI POP DUP1 PUSH1 0x3 PUSH1 0x4 DUP2 LT PUSH2 0x2C78 JUMPI PUSH2 0x2C77 PUSH2 0x4CFC JUMP JUMPDEST JUMPDEST PUSH1 0x20 MUL ADD MLOAD DUP2 PUSH1 0x1 PUSH1 0x4 DUP2 LT PUSH2 0x2C91 JUMPI PUSH2 0x2C90 PUSH2 0x4CFC JUMP JUMPDEST JUMPDEST PUSH1 0x20 MUL ADD MLOAD EQ ISZERO JUMPDEST PUSH2 0x2CD8 JUMPI PUSH1 0x40 MLOAD PUSH32 0x8C379A000000000000000000000000000000000000000000000000000000000 DUP2 MSTORE PUSH1 0x4 ADD PUSH2 0x2CCF SWAP1 PUSH2 0x555E JUMP JUMPDEST PUSH1 0x40 MLOAD DUP1 SWAP2 SUB SWAP1 REVERT JUMPDEST PUSH2 0x2CE0 PUSH2 0x397B JUMP JUMPDEST PUSH32 0xFFFFFFFFFFFFFFFFFFFFFFFFFFFFFFFFFFFFFFFFFFFFFFFFFFFFFFFEFFFFFC2F DUP1 PUSH2 0x2D0F JUMPI PUSH2 0x2D0E PUSH2 0x539C JUMP JUMPDEST JUMPDEST DUP3 PUSH1 0x0 PUSH1 0x4 DUP2 LT PUSH2 0x2D23 JUMPI PUSH2 0x2D22 PUSH2 0x4CFC JUMP JUMPDEST JUMPDEST PUSH1 0x20 MUL ADD MLOAD PUSH32 0xFFFFFFFFFFFFFFFFFFFFFFFFFFFFFFFFFFFFFFFFFFFFFFFFFFFFFFFEFFFFFC2F PUSH2 0x2D53 SWAP2 SWAP1 PUSH2 0x5472 JUMP JUMPDEST DUP4 PUSH1 0x2 PUSH1 0x4 DUP2 LT PUSH2 0x2D67 JUMPI PUSH2 0x2D66 PUSH2 0x4CFC JUMP JUMPDEST JUMPDEST PUSH1 0x20 MUL ADD MLOAD ADDMOD DUP2 PUSH1 0x0 PUSH1 0x4 DUP2 LT PUSH2 0x2D81 JUMPI PUSH2 0x2D80 PUSH2 0x4CFC JUMP JUMPDEST JUMPDEST PUSH1 0x20 MUL ADD DUP2 DUP2 MSTORE POP POP PUSH32 0xFFFFFFFFFFFFFFFFFFFFFFFFFFFFFFFFFFFFFFFFFFFFFFFFFFFFFFFEFFFFFC2F DUP1 PUSH2 0x2DB9 JUMPI PUSH2 0x2DB8 PUSH2 0x539C JUMP JUMPDEST JUMPDEST DUP3 PUSH1 0x1 PUSH1 0x4 DUP2 LT PUSH2 0x2DCD JUMPI PUSH2 0x2DCC PUSH2 0x4CFC JUMP JUMPDEST JUMPDEST PUSH1 0x20 MUL ADD MLOAD PUSH32 0xFFFFFFFFFFFFFFFFFFFFFFFFFFFFFFFFFFFFFFFFFFFFFFFFFFFFFFFEFFFFFC2F PUSH2 0x2DFD SWAP2 SWAP1 PUSH2 0x5472 JUMP JUMPDEST DUP4 PUSH1 0x3 PUSH1 0x4 DUP2 LT PUSH2 0x2E11 JUMPI PUSH2 0x2E10 PUSH2 0x4CFC JUMP JUMPDEST JUMPDEST PUSH1 0x20 MUL ADD MLOAD ADDMOD DUP2 PUSH1 0x1 PUSH1 0x4 DUP2 LT PUSH2 0x2E2B JUMPI PUSH2 0x2E2A PUSH2 0x4CFC JUMP JUMPDEST JUMPDEST PUSH1 0x20 MUL ADD DUP2 DUP2 MSTORE POP POP PUSH32 0xFFFFFFFFFFFFFFFFFFFFFFFFFFFFFFFFFFFFFFFFFFFFFFFFFFFFFFFEFFFFFC2F DUP1 PUSH2 0x2E63 JUMPI PUSH2 0x2E62 PUSH2 0x539C JUMP JUMPDEST JUMPDEST DUP2 PUSH1 0x0 PUSH1 0x4 DUP2 LT PUSH2 0x2E77 JUMPI PUSH2 0x2E76 PUSH2 0x4CFC JUMP JUMPDEST JUMPDEST PUSH1 0x20 MUL ADD MLOAD DUP3 PUSH1 0x0 PUSH1 0x4 DUP2 LT PUSH2 0x2E90 JUMPI PUSH2 0x2E8F PUSH2 0x4CFC JUMP JUMPDEST JUMPDEST PUSH1 0x20 MUL ADD MLOAD MULMOD DUP2 PUSH1 0x2 PUSH1 0x4 DUP2 LT PUSH2 0x2EAA JUMPI PUSH2 0x2EA9 PUSH2 0x4CFC JUMP JUMPDEST JUMPDEST PUSH1 0x20 MUL ADD DUP2 DUP2 MSTORE POP POP PUSH32 0xFFFFFFFFFFFFFFFFFFFFFFFFFFFFFFFFFFFFFFFFFFFFFFFFFFFFFFFEFFFFFC2F DUP1 PUSH2 0x2EE2 JUMPI PUSH2 0x2EE1 PUSH2 0x539C JUMP JUMPDEST JUMPDEST DUP2 PUSH1 0x0 PUSH1 0x4 DUP2 LT PUSH2 0x2EF6 JUMPI PUSH2 0x2EF5 PUSH2 0x4CFC JUMP JUMPDEST JUMPDEST PUSH1 0x20 MUL ADD MLOAD DUP3 PUSH1 0x2 PUSH1 0x4 DUP2 LT PUSH2 0x2F0F JUMPI PUSH2 0x2F0E PUSH2 0x4CFC JUMP JUMPDEST JUMPDEST PUSH1 0x20 MUL ADD MLOAD MULMOD DUP2 PUSH1 0x3 PUSH1 0x4 DUP2 LT PUSH2 0x2F29 JUMPI PUSH2 0x2F28 PUSH2 0x4CFC JUMP JUMPDEST JUMPDEST PUSH1 0x20 MUL ADD DUP2 DUP2 MSTORE POP POP PUSH1 0x0 PUSH32 0xFFFFFFFFFFFFFFFFFFFFFFFFFFFFFFFFFFFFFFFFFFFFFFFFFFFFFFFEFFFFFC2F DUP1 PUSH2 0x2F63 JUMPI PUSH2 0x2F62 PUSH2 0x539C JUMP JUMPDEST JUMPDEST DUP3 PUSH1 0x3 PUSH1 0x4 DUP2 LT PUSH2 0x2F77 JUMPI PUSH2 0x2F76 PUSH2 0x4CFC JUMP JUMPDEST JUMPDEST PUSH1 0x20 MUL ADD MLOAD PUSH32 0xFFFFFFFFFFFFFFFFFFFFFFFFFFFFFFFFFFFFFFFFFFFFFFFFFFFFFFFEFFFFFC2F PUSH2 0x2FA7 SWAP2 SWAP1 PUSH2 0x5472 JUMP JUMPDEST PUSH32 0xFFFFFFFFFFFFFFFFFFFFFFFFFFFFFFFFFFFFFFFFFFFFFFFFFFFFFFFEFFFFFC2F DUP1 PUSH2 0x2FD6 JUMPI PUSH2 0x2FD5 PUSH2 0x539C JUMP JUMPDEST JUMPDEST DUP5 PUSH1 0x1 PUSH1 0x4 DUP2 LT PUSH2 0x2FEA JUMPI PUSH2 0x2FE9 PUSH2 0x4CFC JUMP JUMPDEST JUMPDEST PUSH1 0x20 MUL ADD MLOAD DUP6 PUSH1 0x1 PUSH1 0x4 DUP2 LT PUSH2 0x3003 JUMPI PUSH2 0x3002 PUSH2 0x4CFC JUMP JUMPDEST JUMPDEST PUSH1 0x20 MUL ADD MLOAD MULMOD ADDMOD SWAP1 POP PUSH32 0xFFFFFFFFFFFFFFFFFFFFFFFFFFFFFFFFFFFFFFFFFFFFFFFFFFFFFFFEFFFFFC2F DUP1 PUSH2 0x303B JUMPI PUSH2 0x303A PUSH2 0x539C JUMP JUMPDEST JUMPDEST PUSH32 0xFFFFFFFFFFFFFFFFFFFFFFFFFFFFFFFFFFFFFFFFFFFFFFFFFFFFFFFEFFFFFC2F DUP1 PUSH2 0x306A JUMPI PUSH2 0x3069 PUSH2 0x539C JUMP JUMPDEST JUMPDEST PUSH32 0xFFFFFFFFFFFFFFFFFFFFFFFFFFFFFFFFFFFFFFFFFFFFFFFFFFFFFFFEFFFFFC2F DUP1 PUSH2 0x3099 JUMPI PUSH2 0x3098 PUSH2 0x539C JUMP JUMPDEST JUMPDEST DUP5 PUSH1 0x2 PUSH1 0x4 DUP2 LT PUSH2 0x30AD JUMPI PUSH2 0x30AC PUSH2 0x4CFC JUMP JUMPDEST JUMPDEST PUSH1 0x20 MUL ADD MLOAD DUP7 PUSH1 0x0 PUSH1 0x4 DUP2 LT PUSH2 0x30C6 JUMPI PUSH2 0x30C5 PUSH2 0x4CFC JUMP JUMPDEST JUMPDEST PUSH1 0x20 MUL ADD MLOAD MULMOD PUSH1 0x2 MULMOD PUSH32 0xFFFFFFFFFFFFFFFFFFFFFFFFFFFFFFFFFFFFFFFFFFFFFFFFFFFFFFFEFFFFFC2F PUSH2 0x30FA SWAP2 SWAP1 PUSH2 0x5472 JUMP JUMPDEST DUP3 ADDMOD SWAP1 POP PUSH1 0x0 PUSH32 0xFFFFFFFFFFFFFFFFFFFFFFFFFFFFFFFFFFFFFFFFFFFFFFFFFFFFFFFEFFFFFC2F DUP1 PUSH2 0x312F JUMPI PUSH2 0x312E PUSH2 0x539C JUMP JUMPDEST JUMPDEST PUSH32 0xFFFFFFFFFFFFFFFFFFFFFFFFFFFFFFFFFFFFFFFFFFFFFFFFFFFFFFFEFFFFFC2F DUP1 PUSH2 0x315E JUMPI PUSH2 0x315D PUSH2 0x539C JUMP JUMPDEST JUMPDEST DUP4 PUSH32 0xFFFFFFFFFFFFFFFFFFFFFFFFFFFFFFFFFFFFFFFFFFFFFFFFFFFFFFFEFFFFFC2F PUSH2 0x318A SWAP2 SWAP1 PUSH2 0x5472 JUMP JUMPDEST PUSH32 0xFFFFFFFFFFFFFFFFFFFFFFFFFFFFFFFFFFFFFFFFFFFFFFFFFFFFFFFEFFFFFC2F DUP1 PUSH2 0x31B9 JUMPI PUSH2 0x31B8 PUSH2 0x539C JUMP JUMPDEST JUMPDEST DUP7 PUSH1 0x2 PUSH1 0x4 DUP2 LT PUSH2 0x31CD JUMPI PUSH2 0x31CC PUSH2 0x4CFC JUMP JUMPDEST JUMPDEST PUSH1 0x20 MUL ADD MLOAD DUP9 PUSH1 0x0 PUSH1 0x4 DUP2 LT PUSH2 0x31E6 JUMPI PUSH2 0x31E5 PUSH2 0x4CFC JUMP JUMPDEST JUMPDEST PUSH1 0x20 MUL ADD MLOAD MULMOD ADDMOD DUP5 PUSH1 0x1 PUSH1 0x4 DUP2 LT PUSH2 0x3201 JUMPI PUSH2 0x3200 PUSH2 0x4CFC JUMP JUMPDEST JUMPDEST PUSH1 0x20 MUL ADD MLOAD MULMOD SWAP1 POP PUSH32 0xFFFFFFFFFFFFFFFFFFFFFFFFFFFFFFFFFFFFFFFFFFFFFFFFFFFFFFFEFFFFFC2F DUP1 PUSH2 0x3238 JUMPI PUSH2 0x3237 PUSH2 0x539C JUMP JUMPDEST JUMPDEST PUSH32 0xFFFFFFFFFFFFFFFFFFFFFFFFFFFFFFFFFFFFFFFFFFFFFFFFFFFFFFFEFFFFFC2F DUP1 PUSH2 0x3267 JUMPI PUSH2 0x3266 PUSH2 0x539C JUMP JUMPDEST JUMPDEST DUP5 PUSH1 0x3 PUSH1 0x4 DUP2 LT PUSH2 0x327B JUMPI PUSH2 0x327A PUSH2 0x4CFC JUMP JUMPDEST JUMPDEST PUSH1 0x20 MUL ADD MLOAD DUP7 PUSH1 0x1 PUSH1 0x4 DUP2 LT PUSH2 0x3294 JUMPI PUSH2 0x3293 PUSH2 0x4CFC JUMP JUMPDEST JUMPDEST PUSH1 0x20 MUL ADD MLOAD MULMOD PUSH32 0xFFFFFFFFFFFFFFFFFFFFFFFFFFFFFFFFFFFFFFFFFFFFFFFFFFFFFFFEFFFFFC2F PUSH2 0x32C5 SWAP2 SWAP1 PUSH2 0x5472 JUMP JUMPDEST DUP3 ADDMOD SWAP1 POP PUSH1 0x0 PUSH32 0xFFFFFFFFFFFFFFFFFFFFFFFFFFFFFFFFFFFFFFFFFFFFFFFFFFFFFFFEFFFFFC2F DUP1 PUSH2 0x32FA JUMPI PUSH2 0x32F9 PUSH2 0x539C JUMP JUMPDEST JUMPDEST PUSH32 0xFFFFFFFFFFFFFFFFFFFFFFFFFFFFFFFFFFFFFFFFFFFFFFFFFFFFFFFEFFFFFC2F DUP1 PUSH2 0x3329 JUMPI PUSH2 0x3328 PUSH2 0x539C JUMP JUMPDEST JUMPDEST DUP11 DUP15 MULMOD DUP6 PUSH1 0x0 PUSH1 0x4 DUP2 LT PUSH2 0x3340 JUMPI PUSH2 0x333F PUSH2 0x4CFC JUMP JUMPDEST JUMPDEST PUSH1 0x20 MUL ADD MLOAD MULMOD SWAP1 POP DUP3 DUP3 DUP3 SWAP8 POP SWAP8 POP SWAP8 POP POP POP POP POP POP JUMPDEST SWAP7 POP SWAP7 POP SWAP7 SWAP4 POP POP POP POP JUMP JUMPDEST PUSH1 0x0 DUP1 PUSH1 0x0 DUP1 DUP5 SUB PUSH2 0x337D JUMPI DUP6 DUP6 DUP6 SWAP3 POP SWAP3 POP SWAP3 POP PUSH2 0x37D7 JUMP JUMPDEST PUSH1 0x0 PUSH32 0xFFFFFFFFFFFFFFFFFFFFFFFFFFFFFFFFFFFFFFFFFFFFFFFFFFFFFFFEFFFFFC2F DUP1 PUSH2 0x33AE JUMPI PUSH2 0x33AD PUSH2 0x539C JUMP JUMPDEST JUMPDEST DUP8 DUP9 MULMOD SWAP1 POP PUSH1 0x0 PUSH32 0xFFFFFFFFFFFFFFFFFFFFFFFFFFFFFFFFFFFFFFFFFFFFFFFFFFFFFFFEFFFFFC2F DUP1 PUSH2 0x33E4 JUMPI PUSH2 0x33E3 PUSH2 0x539C JUMP JUMPDEST JUMPDEST DUP8 DUP9 MULMOD SWAP1 POP PUSH1 0x0 PUSH32 0xFFFFFFFFFFFFFFFFFFFFFFFFFFFFFFFFFFFFFFFFFFFFFFFFFFFFFFFEFFFFFC2F DUP1 PUSH2 0x341A JUMPI PUSH2 0x3419 PUSH2 0x539C JUMP JUMPDEST JUMPDEST DUP8 DUP9 MULMOD SWAP1 POP PUSH1 0x0 PUSH32 0xFFFFFFFFFFFFFFFFFFFFFFFFFFFFFFFFFFFFFFFFFFFFFFFFFFFFFFFEFFFFFC2F DUP1 PUSH2 0x3450 JUMPI PUSH2 0x344F PUSH2 0x539C JUMP JUMPDEST JUMPDEST PUSH32 0xFFFFFFFFFFFFFFFFFFFFFFFFFFFFFFFFFFFFFFFFFFFFFFFFFFFFFFFEFFFFFC2F DUP1 PUSH2 0x347F JUMPI PUSH2 0x347E PUSH2 0x539C JUMP JUMPDEST JUMPDEST DUP5 DUP13 MULMOD PUSH1 0x4 MULMOD SWAP1 POP PUSH1 0x0 PUSH32 0xFFFFFFFFFFFFFFFFFFFFFFFFFFFFFFFFFFFFFFFFFFFFFFFFFFFFFFFEFFFFFC2F DUP1 PUSH2 0x34B8 JUMPI PUSH2 0x34B7 PUSH2 0x539C JUMP JUMPDEST JUMPDEST PUSH32 0xFFFFFFFFFFFFFFFFFFFFFFFFFFFFFFFFFFFFFFFFFFFFFFFFFFFFFFFEFFFFFC2F DUP1 PUSH2 0x34E7 JUMPI PUSH2 0x34E6 PUSH2 0x539C JUMP JUMPDEST JUMPDEST PUSH32 0xFFFFFFFFFFFFFFFFFFFFFFFFFFFFFFFFFFFFFFFFFFFFFFFFFFFFFFFEFFFFFC2F DUP1 PUSH2 0x3516 JUMPI PUSH2 0x3515 PUSH2 0x539C JUMP JUMPDEST JUMPDEST DUP6 DUP7 MULMOD PUSH1 0x0 MULMOD PUSH32 0xFFFFFFFFFFFFFFFFFFFFFFFFFFFFFFFFFFFFFFFFFFFFFFFFFFFFFFFEFFFFFC2F DUP1 PUSH2 0x354B JUMPI PUSH2 0x354A PUSH2 0x539C JUMP JUMPDEST JUMPDEST DUP8 PUSH1 0x3 MULMOD ADDMOD SWAP1 POP PUSH32 0xFFFFFFFFFFFFFFFFFFFFFFFFFFFFFFFFFFFFFFFFFFFFFFFFFFFFFFFEFFFFFC2F DUP1 PUSH2 0x3581 JUMPI PUSH2 0x3580 PUSH2 0x539C JUMP JUMPDEST JUMPDEST PUSH32 0xFFFFFFFFFFFFFFFFFFFFFFFFFFFFFFFFFFFFFFFFFFFFFFFFFFFFFFFEFFFFFC2F DUP1 PUSH2 0x35B0 JUMPI PUSH2 0x35AF PUSH2 0x539C JUMP JUMPDEST JUMPDEST DUP4 DUP5 ADDMOD PUSH32 0xFFFFFFFFFFFFFFFFFFFFFFFFFFFFFFFFFFFFFFFFFFFFFFFFFFFFFFFEFFFFFC2F PUSH2 0x35DE SWAP2 SWAP1 PUSH2 0x5472 JUMP JUMPDEST PUSH32 0xFFFFFFFFFFFFFFFFFFFFFFFFFFFFFFFFFFFFFFFFFFFFFFFFFFFFFFFEFFFFFC2F DUP1 PUSH2 0x360D JUMPI PUSH2 0x360C PUSH2 0x539C JUMP JUMPDEST JUMPDEST DUP4 DUP5 MULMOD ADDMOD SWAP5 POP PUSH32 0xFFFFFFFFFFFFFFFFFFFFFFFFFFFFFFFFFFFFFFFFFFFFFFFFFFFFFFFEFFFFFC2F DUP1 PUSH2 0x3642 JUMPI PUSH2 0x3641 PUSH2 0x539C JUMP JUMPDEST JUMPDEST PUSH32 0xFFFFFFFFFFFFFFFFFFFFFFFFFFFFFFFFFFFFFFFFFFFFFFFFFFFFFFFEFFFFFC2F DUP1 PUSH2 0x3671 JUMPI PUSH2 0x3670 PUSH2 0x539C JUMP JUMPDEST JUMPDEST PUSH32 0xFFFFFFFFFFFFFFFFFFFFFFFFFFFFFFFFFFFFFFFFFFFFFFFFFFFFFFFEFFFFFC2F DUP1 PUSH2 0x36A0 JUMPI PUSH2 0x369F PUSH2 0x539C JUMP JUMPDEST JUMPDEST DUP7 DUP8 MULMOD PUSH1 0x8 MULMOD PUSH32 0xFFFFFFFFFFFFFFFFFFFFFFFFFFFFFFFFFFFFFFFFFFFFFFFFFFFFFFFEFFFFFC2F PUSH2 0x36D1 SWAP2 SWAP1 PUSH2 0x5472 JUMP JUMPDEST PUSH32 0xFFFFFFFFFFFFFFFFFFFFFFFFFFFFFFFFFFFFFFFFFFFFFFFFFFFFFFFEFFFFFC2F DUP1 PUSH2 0x3700 JUMPI PUSH2 0x36FF PUSH2 0x539C JUMP JUMPDEST JUMPDEST PUSH32 0xFFFFFFFFFFFFFFFFFFFFFFFFFFFFFFFFFFFFFFFFFFFFFFFFFFFFFFFEFFFFFC2F DUP1 PUSH2 0x372F JUMPI PUSH2 0x372E PUSH2 0x539C JUMP JUMPDEST JUMPDEST DUP9 PUSH32 0xFFFFFFFFFFFFFFFFFFFFFFFFFFFFFFFFFFFFFFFFFFFFFFFFFFFFFFFEFFFFFC2F PUSH2 0x375B SWAP2 SWAP1 PUSH2 0x5472 JUMP JUMPDEST DUP7 ADDMOD DUP5 MULMOD ADDMOD SWAP4 POP PUSH32 0xFFFFFFFFFFFFFFFFFFFFFFFFFFFFFFFFFFFFFFFFFFFFFFFFFFFFFFFEFFFFFC2F DUP1 PUSH2 0x3791 JUMPI PUSH2 0x3790 PUSH2 0x539C JUMP JUMPDEST JUMPDEST PUSH32 0xFFFFFFFFFFFFFFFFFFFFFFFFFFFFFFFFFFFFFFFFFFFFFFFFFFFFFFFEFFFFFC2F DUP1 PUSH2 0x37C0 JUMPI PUSH2 0x37BF PUSH2 0x539C JUMP JUMPDEST JUMPDEST DUP11 DUP13 MULMOD PUSH1 0x2 MULMOD SWAP3 POP DUP5 DUP5 DUP5 SWAP8 POP SWAP8 POP SWAP8 POP POP POP POP POP POP JUMPDEST SWAP4 POP SWAP4 POP SWAP4 SWAP1 POP JUMP JUMPDEST PUSH1 0x0 DUP1 PUSH1 0x0 PUSH2 0x380F DUP5 PUSH32 0xFFFFFFFFFFFFFFFFFFFFFFFFFFFFFFFFFFFFFFFFFFFFFFFFFFFFFFFEFFFFFC2F PUSH2 0x253F JUMP JUMPDEST SWAP1 POP PUSH1 0x0 PUSH32 0xFFFFFFFFFFFFFFFFFFFFFFFFFFFFFFFFFFFFFFFFFFFFFFFFFFFFFFFEFFFFFC2F DUP1 PUSH2 0x3842 JUMPI PUSH2 0x3841 PUSH2 0x539C JUMP JUMPDEST JUMPDEST DUP3 DUP4 MULMOD SWAP1 POP PUSH1 0x0 PUSH32 0xFFFFFFFFFFFFFFFFFFFFFFFFFFFFFFFFFFFFFFFFFFFFFFFFFFFFFFFEFFFFFC2F DUP1 PUSH2 0x3878 JUMPI PUSH2 0x3877 PUSH2 0x539C JUMP JUMPDEST JUMPDEST DUP3 DUP10 MULMOD SWAP1 POP PUSH1 0x0 PUSH32 0xFFFFFFFFFFFFFFFFFFFFFFFFFFFFFFFFFFFFFFFFFFFFFFFFFFFFFFFEFFFFFC2F DUP1 PUSH2 0x38AE JUMPI PUSH2 0x38AD PUSH2 0x539C JUMP JUMPDEST JUMPDEST PUSH32 0xFFFFFFFFFFFFFFFFFFFFFFFFFFFFFFFFFFFFFFFFFFFFFFFFFFFFFFFEFFFFFC2F DUP1 PUSH2 0x38DD JUMPI PUSH2 0x38DC PUSH2 0x539C JUMP JUMPDEST JUMPDEST DUP5 DUP7 MULMOD DUP10 MULMOD SWAP1 POP DUP2 DUP2 SWAP6 POP SWAP6 POP POP POP POP POP SWAP4 POP SWAP4 SWAP2 POP POP JUMP JUMPDEST PUSH1 0x40 MLOAD DUP1 PUSH1 0xA0 ADD PUSH1 0x40 MSTORE DUP1 PUSH1 0x0 PUSH20 0xFFFFFFFFFFFFFFFFFFFFFFFFFFFFFFFFFFFFFFFF AND DUP2 MSTORE PUSH1 0x20 ADD PUSH1 0x60 DUP2 MSTORE PUSH1 0x20 ADD PUSH1 0x60 DUP2 MSTORE PUSH1 0x20 ADD PUSH1 0x60 DUP2 MSTORE PUSH1 0x20 ADD PUSH1 0x60 DUP2 MSTORE POP SWAP1 JUMP JUMPDEST POP DUP1 SLOAD PUSH2 0x3947 SWAP1 PUSH2 0x486F JUMP JUMPDEST PUSH1 0x0 DUP3 SSTORE DUP1 PUSH1 0x1F LT PUSH2 0x3959 JUMPI POP PUSH2 0x3978 JUMP JUMPDEST PUSH1 0x1F ADD PUSH1 0x20 SWAP1 DIV SWAP1 PUSH1 0x0 MSTORE PUSH1 0x20 PUSH1 0x0 KECCAK256 SWAP1 DUP2 ADD SWAP1 PUSH2 0x3977 SWAP2 SWAP1 PUSH2 0x399D JUMP JUMPDEST JUMPDEST POP JUMP JUMPDEST PUSH1 0x40 MLOAD DUP1 PUSH1 0x80 ADD PUSH1 0x40 MSTORE DUP1 PUSH1 0x4 SWAP1 PUSH1 0x20 DUP3 MUL DUP1 CALLDATASIZE DUP4 CALLDATACOPY DUP1 DUP3 ADD SWAP2 POP POP SWAP1 POP POP SWAP1 JUMP JUMPDEST JUMPDEST DUP1 DUP3 GT ISZERO PUSH2 0x39B6 JUMPI PUSH1 0x0 DUP2 PUSH1 0x0 SWAP1 SSTORE POP PUSH1 0x1 ADD PUSH2 0x399E JUMP JUMPDEST POP SWAP1 JUMP JUMPDEST PUSH1 0x0 PUSH1 0x40 MLOAD SWAP1 POP SWAP1 JUMP JUMPDEST PUSH1 0x0 DUP1 REVERT JUMPDEST PUSH1 0x0 DUP1 REVERT JUMPDEST PUSH1 0x0 PUSH20 0xFFFFFFFFFFFFFFFFFFFFFFFFFFFFFFFFFFFFFFFF DUP3 AND SWAP1 POP SWAP2 SWAP1 POP JUMP JUMPDEST PUSH1 0x0 PUSH2 0x39F9 DUP3 PUSH2 0x39CE JUMP JUMPDEST SWAP1 POP SWAP2 SWAP1 POP JUMP JUMPDEST PUSH2 0x3A09 DUP2 PUSH2 0x39EE JUMP JUMPDEST DUP2 EQ PUSH2 0x3A14 JUMPI PUSH1 0x0 DUP1 REVERT JUMPDEST POP JUMP JUMPDEST PUSH1 0x0 DUP2 CALLDATALOAD SWAP1 POP PUSH2 0x3A26 DUP2 PUSH2 0x3A00 JUMP JUMPDEST SWAP3 SWAP2 POP POP JUMP JUMPDEST PUSH1 0x0 PUSH1 0x20 DUP3 DUP5 SUB SLT ISZERO PUSH2 0x3A42 JUMPI PUSH2 0x3A41 PUSH2 0x39C4 JUMP JUMPDEST JUMPDEST PUSH1 0x0 PUSH2 0x3A50 DUP5 DUP3 DUP6 ADD PUSH2 0x3A17 JUMP JUMPDEST SWAP2 POP POP SWAP3 SWAP2 POP POP JUMP JUMPDEST PUSH2 0x3A62 DUP2 PUSH2 0x39EE JUMP JUMPDEST DUP3 MSTORE POP POP JUMP JUMPDEST PUSH1 0x0 PUSH1 0x20 DUP3 ADD SWAP1 POP PUSH2 0x3A7D PUSH1 0x0 DUP4 ADD DUP5 PUSH2 0x3A59 JUMP JUMPDEST SWAP3 SWAP2 POP POP JUMP JUMPDEST PUSH1 0x0 DUP2 SWAP1 POP SWAP2 SWAP1 POP JUMP JUMPDEST PUSH2 0x3A96 DUP2 PUSH2 0x3A83 JUMP JUMPDEST DUP2 EQ PUSH2 0x3AA1 JUMPI PUSH1 0x0 DUP1 REVERT JUMPDEST POP JUMP JUMPDEST PUSH1 0x0 DUP2 CALLDATALOAD SWAP1 POP PUSH2 0x3AB3 DUP2 PUSH2 0x3A8D JUMP JUMPDEST SWAP3 SWAP2 POP POP JUMP JUMPDEST PUSH1 0x0 PUSH1 0xFF DUP3 AND SWAP1 POP SWAP2 SWAP1 POP JUMP JUMPDEST PUSH2 0x3ACF DUP2 PUSH2 0x3AB9 JUMP JUMPDEST DUP2 EQ PUSH2 0x3ADA JUMPI PUSH1 0x0 DUP1 REVERT JUMPDEST POP JUMP JUMPDEST PUSH1 0x0 DUP2 CALLDATALOAD SWAP1 POP PUSH2 0x3AEC DUP2 PUSH2 0x3AC6 JUMP JUMPDEST SWAP3 SWAP2 POP POP JUMP JUMPDEST PUSH1 0x0 DUP1 REVERT JUMPDEST PUSH1 0x0 DUP1 REVERT JUMPDEST PUSH1 0x0 PUSH1 0x1F NOT PUSH1 0x1F DUP4 ADD AND SWAP1 POP SWAP2 SWAP1 POP JUMP JUMPDEST PUSH32 0x4E487B7100000000000000000000000000000000000000000000000000000000 PUSH1 0x0 MSTORE PUSH1 0x41 PUSH1 0x4 MSTORE PUSH1 0x24 PUSH1 0x0 REVERT JUMPDEST PUSH2 0x3B45 DUP3 PUSH2 0x3AFC JUMP JUMPDEST DUP2 ADD DUP2 DUP2 LT PUSH8 0xFFFFFFFFFFFFFFFF DUP3 GT OR ISZERO PUSH2 0x3B64 JUMPI PUSH2 0x3B63 PUSH2 0x3B0D JUMP JUMPDEST JUMPDEST DUP1 PUSH1 0x40 MSTORE POP POP POP JUMP JUMPDEST PUSH1 0x0 PUSH2 0x3B77 PUSH2 0x39BA JUMP JUMPDEST SWAP1 POP PUSH2 0x3B83 DUP3 DUP3 PUSH2 0x3B3C JUMP JUMPDEST SWAP2 SWAP1 POP JUMP JUMPDEST PUSH1 0x0 PUSH8 0xFFFFFFFFFFFFFFFF DUP3 GT ISZERO PUSH2 0x3BA3 JUMPI PUSH2 0x3BA2 PUSH2 0x3B0D JUMP JUMPDEST JUMPDEST PUSH2 0x3BAC DUP3 PUSH2 0x3AFC JUMP JUMPDEST SWAP1 POP PUSH1 0x20 DUP2 ADD SWAP1 POP SWAP2 SWAP1 POP JUMP JUMPDEST DUP3 DUP2 DUP4 CALLDATACOPY PUSH1 0x0 DUP4 DUP4 ADD MSTORE POP POP POP JUMP JUMPDEST PUSH1 0x0 PUSH2 0x3BDB PUSH2 0x3BD6 DUP5 PUSH2 0x3B88 JUMP JUMPDEST PUSH2 0x3B6D JUMP JUMPDEST SWAP1 POP DUP3 DUP2 MSTORE PUSH1 0x20 DUP2 ADD DUP5 DUP5 DUP5 ADD GT ISZERO PUSH2 0x3BF7 JUMPI PUSH2 0x3BF6 PUSH2 0x3AF7 JUMP JUMPDEST JUMPDEST PUSH2 0x3C02 DUP5 DUP3 DUP6 PUSH2 0x3BB9 JUMP JUMPDEST POP SWAP4 SWAP3 POP POP POP JUMP JUMPDEST PUSH1 0x0 DUP3 PUSH1 0x1F DUP4 ADD SLT PUSH2 0x3C1F JUMPI PUSH2 0x3C1E PUSH2 0x3AF2 JUMP JUMPDEST JUMPDEST DUP2 CALLDATALOAD PUSH2 0x3C2F DUP5 DUP3 PUSH1 0x20 DUP7 ADD PUSH2 0x3BC8 JUMP JUMPDEST SWAP2 POP POP SWAP3 SWAP2 POP POP JUMP JUMPDEST PUSH1 0x0 DUP1 PUSH1 0x0 DUP1 PUSH1 0x0 PUSH1 0xA0 DUP7 DUP9 SUB SLT ISZERO PUSH2 0x3C54 JUMPI PUSH2 0x3C53 PUSH2 0x39C4 JUMP JUMPDEST JUMPDEST PUSH1 0x0 PUSH2 0x3C62 DUP9 DUP3 DUP10 ADD PUSH2 0x3AA4 JUMP JUMPDEST SWAP6 POP POP PUSH1 0x20 PUSH2 0x3C73 DUP9 DUP3 DUP10 ADD PUSH2 0x3ADD JUMP JUMPDEST SWAP5 POP POP PUSH1 0x40 PUSH2 0x3C84 DUP9 DUP3 DUP10 ADD PUSH2 0x3AA4 JUMP JUMPDEST SWAP4 POP POP PUSH1 0x60 PUSH2 0x3C95 DUP9 DUP3 DUP10 ADD PUSH2 0x3AA4 JUMP JUMPDEST SWAP3 POP POP PUSH1 0x80 DUP7 ADD CALLDATALOAD PUSH8 0xFFFFFFFFFFFFFFFF DUP2 GT ISZERO PUSH2 0x3CB6 JUMPI PUSH2 0x3CB5 PUSH2 0x39C9 JUMP JUMPDEST JUMPDEST PUSH2 0x3CC2 DUP9 DUP3 DUP10 ADD PUSH2 0x3C0A JUMP JUMPDEST SWAP2 POP POP SWAP3 SWAP6 POP SWAP3 SWAP6 SWAP1 SWAP4 POP JUMP JUMPDEST PUSH1 0x0 DUP1 PUSH1 0x0 DUP1 PUSH1 0x80 DUP6 DUP8 SUB SLT ISZERO PUSH2 0x3CE9 JUMPI PUSH2 0x3CE8 PUSH2 0x39C4 JUMP JUMPDEST JUMPDEST PUSH1 0x0 PUSH2 0x3CF7 DUP8 DUP3 DUP9 ADD PUSH2 0x3AA4 JUMP JUMPDEST SWAP5 POP POP PUSH1 0x20 PUSH2 0x3D08 DUP8 DUP3 DUP9 ADD PUSH2 0x3ADD JUMP JUMPDEST SWAP4 POP POP PUSH1 0x40 PUSH2 0x3D19 DUP8 DUP3 DUP9 ADD PUSH2 0x3AA4 JUMP JUMPDEST SWAP3 POP POP PUSH1 0x60 PUSH2 0x3D2A DUP8 DUP3 DUP9 ADD PUSH2 0x3AA4 JUMP JUMPDEST SWAP2 POP POP SWAP3 SWAP6 SWAP2 SWAP5 POP SWAP3 POP JUMP JUMPDEST PUSH1 0x0 DUP2 MLOAD SWAP1 POP SWAP2 SWAP1 POP JUMP JUMPDEST PUSH1 0x0 DUP3 DUP3 MSTORE PUSH1 0x20 DUP3 ADD SWAP1 POP SWAP3 SWAP2 POP POP JUMP JUMPDEST PUSH1 0x0 DUP2 SWAP1 POP PUSH1 0x20 DUP3 ADD SWAP1 POP SWAP2 SWAP1 POP JUMP JUMPDEST PUSH2 0x3D6B DUP2 PUSH2 0x39EE JUMP JUMPDEST DUP3 MSTORE POP POP JUMP JUMPDEST PUSH1 0x0 DUP2 MLOAD SWAP1 POP SWAP2 SWAP1 POP JUMP JUMPDEST PUSH1 0x0 DUP3 DUP3 MSTORE PUSH1 0x20 DUP3 ADD SWAP1 POP SWAP3 SWAP2 POP POP JUMP JUMPDEST PUSH1 0x0 JUMPDEST DUP4 DUP2 LT ISZERO PUSH2 0x3DAB JUMPI DUP1 DUP3 ADD MLOAD DUP2 DUP5 ADD MSTORE PUSH1 0x20 DUP2 ADD SWAP1 POP PUSH2 0x3D90 JUMP JUMPDEST PUSH1 0x0 DUP5 DUP5 ADD MSTORE POP POP POP POP JUMP JUMPDEST PUSH1 0x0 PUSH2 0x3DC2 DUP3 PUSH2 0x3D71 JUMP JUMPDEST PUSH2 0x3DCC DUP2 DUP6 PUSH2 0x3D7C JUMP JUMPDEST SWAP4 POP PUSH2 0x3DDC DUP2 DUP6 PUSH1 0x20 DUP7 ADD PUSH2 0x3D8D JUMP JUMPDEST PUSH2 0x3DE5 DUP2 PUSH2 0x3AFC JUMP JUMPDEST DUP5 ADD SWAP2 POP POP SWAP3 SWAP2 POP POP JUMP JUMPDEST PUSH1 0x0 PUSH1 0xA0 DUP4 ADD PUSH1 0x0 DUP4 ADD MLOAD PUSH2 0x3E08 PUSH1 0x0 DUP7 ADD DUP3 PUSH2 0x3D62 JUMP JUMPDEST POP PUSH1 0x20 DUP4 ADD MLOAD DUP5 DUP3 SUB PUSH1 0x20 DUP7 ADD MSTORE PUSH2 0x3E20 DUP3 DUP3 PUSH2 0x3DB7 JUMP JUMPDEST SWAP2 POP POP PUSH1 0x40 DUP4 ADD MLOAD DUP5 DUP3 SUB PUSH1 0x40 DUP7 ADD MSTORE PUSH2 0x3E3A DUP3 DUP3 PUSH2 0x3DB7 JUMP JUMPDEST SWAP2 POP POP PUSH1 0x60 DUP4 ADD MLOAD DUP5 DUP3 SUB PUSH1 0x60 DUP7 ADD MSTORE PUSH2 0x3E54 DUP3 DUP3 PUSH2 0x3DB7 JUMP JUMPDEST SWAP2 POP POP PUSH1 0x80 DUP4 ADD MLOAD DUP5 DUP3 SUB PUSH1 0x80 DUP7 ADD MSTORE PUSH2 0x3E6E DUP3 DUP3 PUSH2 0x3DB7 JUMP JUMPDEST SWAP2 POP POP DUP1 SWAP2 POP POP SWAP3 SWAP2 POP POP JUMP JUMPDEST PUSH1 0x0 PUSH2 0x3E87 DUP4 DUP4 PUSH2 0x3DF0 JUMP JUMPDEST SWAP1 POP SWAP3 SWAP2 POP POP JUMP JUMPDEST PUSH1 0x0 PUSH1 0x20 DUP3 ADD SWAP1 POP SWAP2 SWAP1 POP JUMP JUMPDEST PUSH1 0x0 PUSH2 0x3EA7 DUP3 PUSH2 0x3D36 JUMP JUMPDEST PUSH2 0x3EB1 DUP2 DUP6 PUSH2 0x3D41 JUMP JUMPDEST SWAP4 POP DUP4 PUSH1 0x20 DUP3 MUL DUP6 ADD PUSH2 0x3EC3 DUP6 PUSH2 0x3D52 JUMP JUMPDEST DUP1 PUSH1 0x0 JUMPDEST DUP6 DUP2 LT ISZERO PUSH2 0x3EFF JUMPI DUP5 DUP5 SUB DUP10 MSTORE DUP2 MLOAD PUSH2 0x3EE0 DUP6 DUP3 PUSH2 0x3E7B JUMP JUMPDEST SWAP5 POP PUSH2 0x3EEB DUP4 PUSH2 0x3E8F JUMP JUMPDEST SWAP3 POP PUSH1 0x20 DUP11 ADD SWAP10 POP POP PUSH1 0x1 DUP2 ADD SWAP1 POP PUSH2 0x3EC7 JUMP JUMPDEST POP DUP3 SWAP8 POP DUP8 SWAP6 POP POP POP POP POP POP SWAP3 SWAP2 POP POP JUMP JUMPDEST PUSH1 0x0 PUSH1 0x20 DUP3 ADD SWAP1 POP DUP2 DUP2 SUB PUSH1 0x0 DUP4 ADD MSTORE PUSH2 0x3F2B DUP2 DUP5 PUSH2 0x3E9C JUMP JUMPDEST SWAP1 POP SWAP3 SWAP2 POP POP JUMP JUMPDEST PUSH1 0x0 DUP1 PUSH1 0x0 DUP1 PUSH1 0x0 DUP1 PUSH1 0x0 DUP1 PUSH2 0x100 DUP10 DUP12 SUB SLT ISZERO PUSH2 0x3F54 JUMPI PUSH2 0x3F53 PUSH2 0x39C4 JUMP JUMPDEST JUMPDEST PUSH1 0x0 DUP10 ADD CALLDATALOAD PUSH8 0xFFFFFFFFFFFFFFFF DUP2 GT ISZERO PUSH2 0x3F72 JUMPI PUSH2 0x3F71 PUSH2 0x39C9 JUMP JUMPDEST JUMPDEST PUSH2 0x3F7E DUP12 DUP3 DUP13 ADD PUSH2 0x3C0A JUMP JUMPDEST SWAP9 POP POP PUSH1 0x20 DUP10 ADD CALLDATALOAD PUSH8 0xFFFFFFFFFFFFFFFF DUP2 GT ISZERO PUSH2 0x3F9F JUMPI PUSH2 0x3F9E PUSH2 0x39C9 JUMP JUMPDEST JUMPDEST PUSH2 0x3FAB DUP12 DUP3 DUP13 ADD PUSH2 0x3C0A JUMP JUMPDEST SWAP8 POP POP PUSH1 0x40 DUP10 ADD CALLDATALOAD PUSH8 0xFFFFFFFFFFFFFFFF DUP2 GT ISZERO PUSH2 0x3FCC JUMPI PUSH2 0x3FCB PUSH2 0x39C9 JUMP JUMPDEST JUMPDEST PUSH2 0x3FD8 DUP12 DUP3 DUP13 ADD PUSH2 0x3C0A JUMP JUMPDEST SWAP7 POP POP PUSH1 0x60 DUP10 ADD CALLDATALOAD PUSH8 0xFFFFFFFFFFFFFFFF DUP2 GT ISZERO PUSH2 0x3FF9 JUMPI PUSH2 0x3FF8 PUSH2 0x39C9 JUMP JUMPDEST JUMPDEST PUSH2 0x4005 DUP12 DUP3 DUP13 ADD PUSH2 0x3C0A JUMP JUMPDEST SWAP6 POP POP PUSH1 0x80 PUSH2 0x4016 DUP12 DUP3 DUP13 ADD PUSH2 0x3AA4 JUMP JUMPDEST SWAP5 POP POP PUSH1 0xA0 PUSH2 0x4027 DUP12 DUP3 DUP13 ADD PUSH2 0x3ADD JUMP JUMPDEST SWAP4 POP POP PUSH1 0xC0 PUSH2 0x4038 DUP12 DUP3 DUP13 ADD PUSH2 0x3AA4 JUMP JUMPDEST SWAP3 POP POP PUSH1 0xE0 PUSH2 0x4049 DUP12 DUP3 DUP13 ADD PUSH2 0x3AA4 JUMP JUMPDEST SWAP2 POP POP SWAP3 SWAP6 SWAP9 POP SWAP3 SWAP6 SWAP9 SWAP1 SWAP4 SWAP7 POP JUMP JUMPDEST PUSH1 0x0 PUSH8 0xFFFFFFFFFFFFFFFF DUP3 GT ISZERO PUSH2 0x4074 JUMPI PUSH2 0x4073 PUSH2 0x3B0D JUMP JUMPDEST JUMPDEST PUSH2 0x407D DUP3 PUSH2 0x3AFC JUMP JUMPDEST SWAP1 POP PUSH1 0x20 DUP2 ADD SWAP1 POP SWAP2 SWAP1 POP JUMP JUMPDEST PUSH1 0x0 PUSH2 0x409D PUSH2 0x4098 DUP5 PUSH2 0x4059 JUMP JUMPDEST PUSH2 0x3B6D JUMP JUMPDEST SWAP1 POP DUP3 DUP2 MSTORE PUSH1 0x20 DUP2 ADD DUP5 DUP5 DUP5 ADD GT ISZERO PUSH2 0x40B9 JUMPI PUSH2 0x40B8 PUSH2 0x3AF7 JUMP JUMPDEST JUMPDEST PUSH2 0x40C4 DUP5 DUP3 DUP6 PUSH2 0x3BB9 JUMP JUMPDEST POP SWAP4 SWAP3 POP POP POP JUMP JUMPDEST PUSH1 0x0 DUP3 PUSH1 0x1F DUP4 ADD SLT PUSH2 0x40E1 JUMPI PUSH2 0x40E0 PUSH2 0x3AF2 JUMP JUMPDEST JUMPDEST DUP2 CALLDATALOAD PUSH2 0x40F1 DUP5 DUP3 PUSH1 0x20 DUP7 ADD PUSH2 0x408A JUMP JUMPDEST SWAP2 POP POP SWAP3 SWAP2 POP POP JUMP JUMPDEST PUSH1 0x0 DUP1 PUSH1 0x40 DUP4 DUP6 SUB SLT ISZERO PUSH2 0x4111 JUMPI PUSH2 0x4110 PUSH2 0x39C4 JUMP JUMPDEST JUMPDEST PUSH1 0x0 DUP4 ADD CALLDATALOAD PUSH8 0xFFFFFFFFFFFFFFFF DUP2 GT ISZERO PUSH2 0x412F JUMPI PUSH2 0x412E PUSH2 0x39C9 JUMP JUMPDEST JUMPDEST PUSH2 0x413B DUP6 DUP3 DUP7 ADD PUSH2 0x3C0A JUMP JUMPDEST SWAP3 POP POP PUSH1 0x20 DUP4 ADD CALLDATALOAD PUSH8 0xFFFFFFFFFFFFFFFF DUP2 GT ISZERO PUSH2 0x415C JUMPI PUSH2 0x415B PUSH2 0x39C9 JUMP JUMPDEST JUMPDEST PUSH2 0x4168 DUP6 DUP3 DUP7 ADD PUSH2 0x40CC JUMP JUMPDEST SWAP2 POP POP SWAP3 POP SWAP3 SWAP1 POP JUMP JUMPDEST PUSH1 0x0 DUP2 MLOAD SWAP1 POP SWAP2 SWAP1 POP JUMP JUMPDEST PUSH1 0x0 DUP3 DUP3 MSTORE PUSH1 0x20 DUP3 ADD SWAP1 POP SWAP3 SWAP2 POP POP JUMP JUMPDEST PUSH1 0x0 DUP2 SWAP1 POP PUSH1 0x20 DUP3 ADD SWAP1 POP SWAP2 SWAP1 POP JUMP JUMPDEST PUSH1 0x0 PUSH2 0x41AA DUP4 DUP4 PUSH2 0x3D62 JUMP JUMPDEST PUSH1 0x20 DUP4 ADD SWAP1 POP SWAP3 SWAP2 POP POP JUMP JUMPDEST PUSH1 0x0 PUSH1 0x20 DUP3 ADD SWAP1 POP SWAP2 SWAP1 POP JUMP JUMPDEST PUSH1 0x0 PUSH2 0x41CE DUP3 PUSH2 0x4172 JUMP JUMPDEST PUSH2 0x41D8 DUP2 DUP6 PUSH2 0x417D JUMP JUMPDEST SWAP4 POP PUSH2 0x41E3 DUP4 PUSH2 0x418E JUMP JUMPDEST DUP1 PUSH1 0x0 JUMPDEST DUP4 DUP2 LT ISZERO PUSH2 0x4214 JUMPI DUP2 MLOAD PUSH2 0x41FB DUP9 DUP3 PUSH2 0x419E JUMP JUMPDEST SWAP8 POP PUSH2 0x4206 DUP4 PUSH2 0x41B6 JUMP JUMPDEST SWAP3 POP POP PUSH1 0x1 DUP2 ADD SWAP1 POP PUSH2 0x41E7 JUMP JUMPDEST POP DUP6 SWAP4 POP POP POP POP SWAP3 SWAP2 POP POP JUMP JUMPDEST PUSH1 0x0 PUSH1 0x40 DUP3 ADD SWAP1 POP DUP2 DUP2 SUB PUSH1 0x0 DUP4 ADD MSTORE PUSH2 0x423B DUP2 DUP6 PUSH2 0x41C3 JUMP JUMPDEST SWAP1 POP DUP2 DUP2 SUB PUSH1 0x20 DUP4 ADD MSTORE PUSH2 0x424F DUP2 DUP5 PUSH2 0x41C3 JUMP JUMPDEST SWAP1 POP SWAP4 SWAP3 POP POP POP JUMP JUMPDEST PUSH1 0x0 DUP2 MLOAD SWAP1 POP SWAP2 SWAP1 POP JUMP JUMPDEST PUSH1 0x0 DUP3 DUP3 MSTORE PUSH1 0x20 DUP3 ADD SWAP1 POP SWAP3 SWAP2 POP POP JUMP JUMPDEST PUSH1 0x0 DUP2 SWAP1 POP PUSH1 0x20 DUP3 ADD SWAP1 POP SWAP2 SWAP1 POP JUMP JUMPDEST PUSH1 0x0 PUSH1 0xA0 DUP4 ADD PUSH1 0x0 DUP4 ADD MLOAD DUP5 DUP3 SUB PUSH1 0x0 DUP7 ADD MSTORE PUSH2 0x42A1 DUP3 DUP3 PUSH2 0x3DB7 JUMP JUMPDEST SWAP2 POP POP PUSH1 0x20 DUP4 ADD MLOAD DUP5 DUP3 SUB PUSH1 0x20 DUP7 ADD MSTORE PUSH2 0x42BB DUP3 DUP3 PUSH2 0x3DB7 JUMP JUMPDEST SWAP2 POP POP PUSH1 0x40 DUP4 ADD MLOAD DUP5 DUP3 SUB PUSH1 0x40 DUP7 ADD MSTORE PUSH2 0x42D5 DUP3 DUP3 PUSH2 0x3DB7 JUMP JUMPDEST SWAP2 POP POP PUSH1 0x60 DUP4 ADD MLOAD DUP5 DUP3 SUB PUSH1 0x60 DUP7 ADD MSTORE PUSH2 0x42EF DUP3 DUP3 PUSH2 0x3DB7 JUMP JUMPDEST SWAP2 POP POP PUSH1 0x80 DUP4 ADD MLOAD PUSH2 0x4304 PUSH1 0x80 DUP7 ADD DUP3 PUSH2 0x3D62 JUMP JUMPDEST POP DUP1 SWAP2 POP POP SWAP3 SWAP2 POP POP JUMP JUMPDEST PUSH1 0x0 PUSH2 0x431B DUP4 DUP4 PUSH2 0x4284 JUMP JUMPDEST SWAP1 POP SWAP3 SWAP2 POP POP JUMP JUMPDEST PUSH1 0x0 PUSH1 0x20 DUP3 ADD SWAP1 POP SWAP2 SWAP1 POP JUMP JUMPDEST PUSH1 0x0 PUSH2 0x433B DUP3 PUSH2 0x4258 JUMP JUMPDEST PUSH2 0x4345 DUP2 DUP6 PUSH2 0x4263 JUMP JUMPDEST SWAP4 POP DUP4 PUSH1 0x20 DUP3 MUL DUP6 ADD PUSH2 0x4357 DUP6 PUSH2 0x4274 JUMP JUMPDEST DUP1 PUSH1 0x0 JUMPDEST DUP6 DUP2 LT ISZERO PUSH2 0x4393 JUMPI DUP5 DUP5 SUB DUP10 MSTORE DUP2 MLOAD PUSH2 0x4374 DUP6 DUP3 PUSH2 0x430F JUMP JUMPDEST SWAP5 POP PUSH2 0x437F DUP4 PUSH2 0x4323 JUMP JUMPDEST SWAP3 POP PUSH1 0x20 DUP11 ADD SWAP10 POP POP PUSH1 0x1 DUP2 ADD SWAP1 POP PUSH2 0x435B JUMP JUMPDEST POP DUP3 SWAP8 POP DUP8 SWAP6 POP POP POP POP POP POP SWAP3 SWAP2 POP POP JUMP JUMPDEST PUSH1 0x0 PUSH1 0x20 DUP3 ADD SWAP1 POP DUP2 DUP2 SUB PUSH1 0x0 DUP4 ADD MSTORE PUSH2 0x43BF DUP2 DUP5 PUSH2 0x4330 JUMP JUMPDEST SWAP1 POP SWAP3 SWAP2 POP POP JUMP JUMPDEST PUSH1 0x0 DUP1 PUSH1 0x0 DUP1 PUSH1 0x0 DUP1 PUSH1 0xC0 DUP8 DUP10 SUB SLT ISZERO PUSH2 0x43E4 JUMPI PUSH2 0x43E3 PUSH2 0x39C4 JUMP JUMPDEST JUMPDEST PUSH1 0x0 DUP8 ADD CALLDATALOAD PUSH8 0xFFFFFFFFFFFFFFFF DUP2 GT ISZERO PUSH2 0x4402 JUMPI PUSH2 0x4401 PUSH2 0x39C9 JUMP JUMPDEST JUMPDEST PUSH2 0x440E DUP10 DUP3 DUP11 ADD PUSH2 0x3C0A JUMP JUMPDEST SWAP7 POP POP PUSH1 0x20 PUSH2 0x441F DUP10 DUP3 DUP11 ADD PUSH2 0x3AA4 JUMP JUMPDEST SWAP6 POP POP PUSH1 0x40 PUSH2 0x4430 DUP10 DUP3 DUP11 ADD PUSH2 0x3ADD JUMP JUMPDEST SWAP5 POP POP PUSH1 0x60 PUSH2 0x4441 DUP10 DUP3 DUP11 ADD PUSH2 0x3AA4 JUMP JUMPDEST SWAP4 POP POP PUSH1 0x80 PUSH2 0x4452 DUP10 DUP3 DUP11 ADD PUSH2 0x3AA4 JUMP JUMPDEST SWAP3 POP POP PUSH1 0xA0 DUP8 ADD CALLDATALOAD PUSH8 0xFFFFFFFFFFFFFFFF DUP2 GT ISZERO PUSH2 0x4473 JUMPI PUSH2 0x4472 PUSH2 0x39C9 JUMP JUMPDEST JUMPDEST PUSH2 0x447F DUP10 DUP3 DUP11 ADD PUSH2 0x40CC JUMP JUMPDEST SWAP2 POP POP SWAP3 SWAP6 POP SWAP3 SWAP6 POP SWAP3 SWAP6 JUMP JUMPDEST PUSH1 0x0 DUP1 PUSH1 0x0 DUP1 PUSH1 0x0 DUP1 PUSH1 0x0 DUP1 PUSH1 0x0 PUSH2 0x120 DUP11 DUP13 SUB SLT ISZERO PUSH2 0x44AF JUMPI PUSH2 0x44AE PUSH2 0x39C4 JUMP JUMPDEST JUMPDEST PUSH1 0x0 PUSH2 0x44BD DUP13 DUP3 DUP14 ADD PUSH2 0x3AA4 JUMP JUMPDEST SWAP10 POP POP PUSH1 0x20 PUSH2 0x44CE DUP13 DUP3 DUP14 ADD PUSH2 0x3ADD JUMP JUMPDEST SWAP9 POP POP PUSH1 0x40 PUSH2 0x44DF DUP13 DUP3 DUP14 ADD PUSH2 0x3AA4 JUMP JUMPDEST SWAP8 POP POP PUSH1 0x60 PUSH2 0x44F0 DUP13 DUP3 DUP14 ADD PUSH2 0x3AA4 JUMP JUMPDEST SWAP7 POP POP PUSH1 0x80 PUSH2 0x4501 DUP13 DUP3 DUP14 ADD PUSH2 0x3A17 JUMP JUMPDEST SWAP6 POP POP PUSH1 0xA0 DUP11 ADD CALLDATALOAD PUSH8 0xFFFFFFFFFFFFFFFF DUP2 GT ISZERO PUSH2 0x4522 JUMPI PUSH2 0x4521 PUSH2 0x39C9 JUMP JUMPDEST JUMPDEST PUSH2 0x452E DUP13 DUP3 DUP14 ADD PUSH2 0x3C0A JUMP JUMPDEST SWAP5 POP POP PUSH1 0xC0 DUP11 ADD CALLDATALOAD PUSH8 0xFFFFFFFFFFFFFFFF DUP2 GT ISZERO PUSH2 0x454F JUMPI PUSH2 0x454E PUSH2 0x39C9 JUMP JUMPDEST JUMPDEST PUSH2 0x455B DUP13 DUP3 DUP14 ADD PUSH2 0x3C0A JUMP JUMPDEST SWAP4 POP POP PUSH1 0xE0 DUP11 ADD CALLDATALOAD PUSH8 0xFFFFFFFFFFFFFFFF DUP2 GT ISZERO PUSH2 0x457C JUMPI PUSH2 0x457B PUSH2 0x39C9 JUMP JUMPDEST JUMPDEST PUSH2 0x4588 DUP13 DUP3 DUP14 ADD PUSH2 0x3C0A JUMP JUMPDEST SWAP3 POP POP PUSH2 0x100 DUP11 ADD CALLDATALOAD PUSH8 0xFFFFFFFFFFFFFFFF DUP2 GT ISZERO PUSH2 0x45AA JUMPI PUSH2 0x45A9 PUSH2 0x39C9 JUMP JUMPDEST JUMPDEST PUSH2 0x45B6 DUP13 DUP3 DUP14 ADD PUSH2 0x3C0A JUMP JUMPDEST SWAP2 POP POP SWAP3 SWAP6 SWAP9 POP SWAP3 SWAP6 SWAP9 POP SWAP3 SWAP6 SWAP9 JUMP JUMPDEST PUSH1 0x0 DUP2 MLOAD SWAP1 POP SWAP2 SWAP1 POP JUMP JUMPDEST PUSH1 0x0 DUP3 DUP3 MSTORE PUSH1 0x20 DUP3 ADD SWAP1 POP SWAP3 SWAP2 POP POP JUMP JUMPDEST PUSH1 0x0 PUSH2 0x45ED DUP3 PUSH2 0x45C6 JUMP JUMPDEST PUSH2 0x45F7 DUP2 DUP6 PUSH2 0x45D1 JUMP JUMPDEST SWAP4 POP PUSH2 0x4607 DUP2 DUP6 PUSH1 0x20 DUP7 ADD PUSH2 0x3D8D JUMP JUMPDEST PUSH2 0x4610 DUP2 PUSH2 0x3AFC JUMP JUMPDEST DUP5 ADD SWAP2 POP POP SWAP3 SWAP2 POP POP JUMP JUMPDEST PUSH1 0x0 PUSH1 0x20 DUP3 ADD SWAP1 POP DUP2 DUP2 SUB PUSH1 0x0 DUP4 ADD MSTORE PUSH2 0x4635 DUP2 DUP5 PUSH2 0x45E2 JUMP JUMPDEST SWAP1 POP SWAP3 SWAP2 POP POP JUMP JUMPDEST PUSH1 0x0 DUP3 DUP3 MSTORE PUSH1 0x20 DUP3 ADD SWAP1 POP SWAP3 SWAP2 POP POP JUMP JUMPDEST PUSH32 0x646F6573206E6F74206578697374000000000000000000000000000000000000 PUSH1 0x0 DUP3 ADD MSTORE POP JUMP JUMPDEST PUSH1 0x0 PUSH2 0x4684 PUSH1 0xE DUP4 PUSH2 0x463D JUMP JUMPDEST SWAP2 POP PUSH2 0x468F DUP3 PUSH2 0x464E JUMP JUMPDEST PUSH1 0x20 DUP3 ADD SWAP1 POP SWAP2 SWAP1 POP JUMP JUMPDEST PUSH1 0x0 PUSH1 0x20 DUP3 ADD SWAP1 POP DUP2 DUP2 SUB PUSH1 0x0 DUP4 ADD MSTORE PUSH2 0x46B3 DUP2 PUSH2 0x4677 JUMP JUMPDEST SWAP1 POP SWAP2 SWAP1 POP JUMP JUMPDEST PUSH1 0x0 PUSH2 0x46C5 DUP3 PUSH2 0x3D71 JUMP JUMPDEST PUSH2 0x46CF DUP2 DUP6 PUSH2 0x463D JUMP JUMPDEST SWAP4 POP PUSH2 0x46DF DUP2 DUP6 PUSH1 0x20 DUP7 ADD PUSH2 0x3D8D JUMP JUMPDEST PUSH2 0x46E8 DUP2 PUSH2 0x3AFC JUMP JUMPDEST DUP5 ADD SWAP2 POP POP SWAP3 SWAP2 POP POP JUMP JUMPDEST PUSH1 0x0 PUSH1 0x20 DUP3 ADD SWAP1 POP DUP2 DUP2 SUB PUSH1 0x0 DUP4 ADD MSTORE PUSH2 0x470D DUP2 DUP5 PUSH2 0x46BA JUMP JUMPDEST SWAP1 POP SWAP3 SWAP2 POP POP JUMP JUMPDEST PUSH32 0x4552523639310000000000000000000000000000000000000000000000000000 PUSH1 0x0 DUP3 ADD MSTORE POP JUMP JUMPDEST PUSH1 0x0 PUSH2 0x474B PUSH1 0x6 DUP4 PUSH2 0x463D JUMP JUMPDEST SWAP2 POP PUSH2 0x4756 DUP3 PUSH2 0x4715 JUMP JUMPDEST PUSH1 0x20 DUP3 ADD SWAP1 POP SWAP2 SWAP1 POP JUMP JUMPDEST PUSH1 0x0 PUSH1 0x20 DUP3 ADD SWAP1 POP DUP2 DUP2 SUB PUSH1 0x0 DUP4 ADD MSTORE PUSH2 0x477A DUP2 PUSH2 0x473E JUMP JUMPDEST SWAP1 POP SWAP2 SWAP1 POP JUMP JUMPDEST PUSH1 0x0 DUP2 SWAP1 POP SWAP3 SWAP2 POP POP JUMP JUMPDEST PUSH1 0x0 PUSH2 0x4797 DUP3 PUSH2 0x3D71 JUMP JUMPDEST PUSH2 0x47A1 DUP2 DUP6 PUSH2 0x4781 JUMP JUMPDEST SWAP4 POP PUSH2 0x47B1 DUP2 DUP6 PUSH1 0x20 DUP7 ADD PUSH2 0x3D8D JUMP JUMPDEST DUP1 DUP5 ADD SWAP2 POP POP SWAP3 SWAP2 POP POP JUMP JUMPDEST PUSH1 0x0 PUSH2 0x47C9 DUP3 DUP5 PUSH2 0x478C JUMP JUMPDEST SWAP2 POP DUP2 SWAP1 POP SWAP3 SWAP2 POP POP JUMP JUMPDEST PUSH32 0x4552523231340000000000000000000000000000000000000000000000000000 PUSH1 0x0 DUP3 ADD MSTORE POP JUMP JUMPDEST PUSH1 0x0 PUSH2 0x480A PUSH1 0x6 DUP4 PUSH2 0x463D JUMP JUMPDEST SWAP2 POP PUSH2 0x4815 DUP3 PUSH2 0x47D4 JUMP JUMPDEST PUSH1 0x20 DUP3 ADD SWAP1 POP SWAP2 SWAP1 POP JUMP JUMPDEST PUSH1 0x0 PUSH1 0x20 DUP3 ADD SWAP1 POP DUP2 DUP2 SUB PUSH1 0x0 DUP4 ADD MSTORE PUSH2 0x4839 DUP2 PUSH2 0x47FD JUMP JUMPDEST SWAP1 POP SWAP2 SWAP1 POP JUMP JUMPDEST PUSH32 0x4E487B7100000000000000000000000000000000000000000000000000000000 PUSH1 0x0 MSTORE PUSH1 0x22 PUSH1 0x4 MSTORE PUSH1 0x24 PUSH1 0x0 REVERT JUMPDEST PUSH1 0x0 PUSH1 0x2 DUP3 DIV SWAP1 POP PUSH1 0x1 DUP3 AND DUP1 PUSH2 0x4887 JUMPI PUSH1 0x7F DUP3 AND SWAP2 POP JUMPDEST PUSH1 0x20 DUP3 LT DUP2 SUB PUSH2 0x489A JUMPI PUSH2 0x4899 PUSH2 0x4840 JUMP JUMPDEST JUMPDEST POP SWAP2 SWAP1 POP JUMP JUMPDEST PUSH1 0x0 PUSH1 0xA0 DUP3 ADD SWAP1 POP DUP2 DUP2 SUB PUSH1 0x0 DUP4 ADD MSTORE PUSH2 0x48BA DUP2 DUP9 PUSH2 0x46BA JUMP JUMPDEST SWAP1 POP DUP2 DUP2 SUB PUSH1 0x20 DUP4 ADD MSTORE PUSH2 0x48CE DUP2 DUP8 PUSH2 0x46BA JUMP JUMPDEST SWAP1 POP DUP2 DUP2 SUB PUSH1 0x40 DUP4 ADD MSTORE PUSH2 0x48E2 DUP2 DUP7 PUSH2 0x46BA JUMP JUMPDEST SWAP1 POP DUP2 DUP2 SUB PUSH1 0x60 DUP4 ADD MSTORE PUSH2 0x48F6 DUP2 DUP6 PUSH2 0x46BA JUMP JUMPDEST SWAP1 POP PUSH2 0x4905 PUSH1 0x80 DUP4 ADD DUP5 PUSH2 0x3A59 JUMP JUMPDEST SWAP7 SWAP6 POP POP POP POP POP POP JUMP JUMPDEST PUSH1 0x0 PUSH1 0x80 DUP3 ADD SWAP1 POP DUP2 DUP2 SUB PUSH1 0x0 DUP4 ADD MSTORE PUSH2 0x4929 DUP2 DUP8 PUSH2 0x46BA JUMP JUMPDEST SWAP1 POP DUP2 DUP2 SUB PUSH1 0x20 DUP4 ADD MSTORE PUSH2 0x493D DUP2 DUP7 PUSH2 0x46BA JUMP JUMPDEST SWAP1 POP DUP2 DUP2 SUB PUSH1 0x40 DUP4 ADD MSTORE PUSH2 0x4951 DUP2 DUP6 PUSH2 0x46BA JUMP JUMPDEST SWAP1 POP DUP2 DUP2 SUB PUSH1 0x60 DUP4 ADD MSTORE PUSH2 0x4965 DUP2 DUP5 PUSH2 0x46BA JUMP JUMPDEST SWAP1 POP SWAP6 SWAP5 POP POP POP POP POP JUMP JUMPDEST PUSH1 0x0 PUSH1 0x40 DUP3 ADD SWAP1 POP PUSH2 0x4985 PUSH1 0x0 DUP4 ADD DUP6 PUSH2 0x3A59 JUMP JUMPDEST DUP2 DUP2 SUB PUSH1 0x20 DUP4 ADD MSTORE PUSH2 0x4997 DUP2 DUP5 PUSH2 0x46BA JUMP JUMPDEST SWAP1 POP SWAP4 SWAP3 POP POP POP JUMP JUMPDEST PUSH1 0x0 DUP2 MLOAD SWAP1 POP PUSH2 0x49AF DUP2 PUSH2 0x3A00 JUMP JUMPDEST SWAP3 SWAP2 POP POP JUMP JUMPDEST PUSH1 0x0 PUSH1 0x20 DUP3 DUP5 SUB SLT ISZERO PUSH2 0x49CB JUMPI PUSH2 0x49CA PUSH2 0x39C4 JUMP JUMPDEST JUMPDEST PUSH1 0x0 PUSH2 0x49D9 DUP5 DUP3 DUP6 ADD PUSH2 0x49A0 JUMP JUMPDEST SWAP2 POP POP SWAP3 SWAP2 POP POP JUMP JUMPDEST PUSH1 0x0 DUP2 SWAP1 POP DUP2 PUSH1 0x0 MSTORE PUSH1 0x20 PUSH1 0x0 KECCAK256 SWAP1 POP SWAP2 SWAP1 POP JUMP JUMPDEST PUSH1 0x0 PUSH1 0x20 PUSH1 0x1F DUP4 ADD DIV SWAP1 POP SWAP2 SWAP1 POP JUMP JUMPDEST PUSH1 0x0 DUP3 DUP3 SHL SWAP1 POP SWAP3 SWAP2 POP POP JUMP JUMPDEST PUSH1 0x0 PUSH1 0x8 DUP4 MUL PUSH2 0x4A44 PUSH32 0xFFFFFFFFFFFFFFFFFFFFFFFFFFFFFFFFFFFFFFFFFFFFFFFFFFFFFFFFFFFFFFFF DUP3 PUSH2 0x4A07 JUMP JUMPDEST PUSH2 0x4A4E DUP7 DUP4 PUSH2 0x4A07 JUMP JUMPDEST SWAP6 POP DUP1 NOT DUP5 AND SWAP4 POP DUP1 DUP7 AND DUP5 OR SWAP3 POP POP POP SWAP4 SWAP3 POP POP POP JUMP JUMPDEST PUSH1 0x0 DUP2 SWAP1 POP SWAP2 SWAP1 POP JUMP JUMPDEST PUSH1 0x0 DUP2 SWAP1 POP SWAP2 SWAP1 POP JUMP JUMPDEST PUSH1 0x0 PUSH2 0x4A95 PUSH2 0x4A90 PUSH2 0x4A8B DUP5 PUSH2 0x4A66 JUMP JUMPDEST PUSH2 0x4A70 JUMP JUMPDEST PUSH2 0x4A66 JUMP JUMPDEST SWAP1 POP SWAP2 SWAP1 POP JUMP JUMPDEST PUSH1 0x0 DUP2 SWAP1 POP SWAP2 SWAP1 POP JUMP JUMPDEST PUSH2 0x4AAF DUP4 PUSH2 0x4A7A JUMP JUMPDEST PUSH2 0x4AC3 PUSH2 0x4ABB DUP3 PUSH2 0x4A9C JUMP JUMPDEST DUP5 DUP5 SLOAD PUSH2 0x4A14 JUMP JUMPDEST DUP3 SSTORE POP POP POP POP JUMP JUMPDEST PUSH1 0x0 SWAP1 JUMP JUMPDEST PUSH2 0x4AD8 PUSH2 0x4ACB JUMP JUMPDEST PUSH2 0x4AE3 DUP2 DUP5 DUP5 PUSH2 0x4AA6 JUMP JUMPDEST POP POP POP JUMP JUMPDEST JUMPDEST DUP2 DUP2 LT ISZERO PUSH2 0x4B07 JUMPI PUSH2 0x4AFC PUSH1 0x0 DUP3 PUSH2 0x4AD0 JUMP JUMPDEST PUSH1 0x1 DUP2 ADD SWAP1 POP PUSH2 0x4AE9 JUMP JUMPDEST POP POP JUMP JUMPDEST PUSH1 0x1F DUP3 GT ISZERO PUSH2 0x4B4C JUMPI PUSH2 0x4B1D DUP2 PUSH2 0x49E2 JUMP JUMPDEST PUSH2 0x4B26 DUP5 PUSH2 0x49F7 JUMP JUMPDEST DUP2 ADD PUSH1 0x20 DUP6 LT ISZERO PUSH2 0x4B35 JUMPI DUP2 SWAP1 POP JUMPDEST PUSH2 0x4B49 PUSH2 0x4B41 DUP6 PUSH2 0x49F7 JUMP JUMPDEST DUP4 ADD DUP3 PUSH2 0x4AE8 JUMP JUMPDEST POP POP JUMPDEST POP POP POP JUMP JUMPDEST PUSH1 0x0 DUP3 DUP3 SHR SWAP1 POP SWAP3 SWAP2 POP POP JUMP JUMPDEST PUSH1 0x0 PUSH2 0x4B6F PUSH1 0x0 NOT DUP5 PUSH1 0x8 MUL PUSH2 0x4B51 JUMP JUMPDEST NOT DUP1 DUP4 AND SWAP2 POP POP SWAP3 SWAP2 POP POP JUMP JUMPDEST PUSH1 0x0 PUSH2 0x4B88 DUP4 DUP4 PUSH2 0x4B5E JUMP JUMPDEST SWAP2 POP DUP3 PUSH1 0x2 MUL DUP3 OR SWAP1 POP SWAP3 SWAP2 POP POP JUMP JUMPDEST PUSH2 0x4BA1 DUP3 PUSH2 0x45C6 JUMP JUMPDEST PUSH8 0xFFFFFFFFFFFFFFFF DUP2 GT ISZERO PUSH2 0x4BBA JUMPI PUSH2 0x4BB9 PUSH2 0x3B0D JUMP JUMPDEST JUMPDEST PUSH2 0x4BC4 DUP3 SLOAD PUSH2 0x486F JUMP JUMPDEST PUSH2 0x4BCF DUP3 DUP3 DUP6 PUSH2 0x4B0B JUMP JUMPDEST PUSH1 0x0 PUSH1 0x20 SWAP1 POP PUSH1 0x1F DUP4 GT PUSH1 0x1 DUP2 EQ PUSH2 0x4C02 JUMPI PUSH1 0x0 DUP5 ISZERO PUSH2 0x4BF0 JUMPI DUP3 DUP8 ADD MLOAD SWAP1 POP JUMPDEST PUSH2 0x4BFA DUP6 DUP3 PUSH2 0x4B7C JUMP JUMPDEST DUP7 SSTORE POP PUSH2 0x4C62 JUMP JUMPDEST PUSH1 0x1F NOT DUP5 AND PUSH2 0x4C10 DUP7 PUSH2 0x49E2 JUMP JUMPDEST PUSH1 0x0 JUMPDEST DUP3 DUP2 LT ISZERO PUSH2 0x4C38 JUMPI DUP5 DUP10 ADD MLOAD DUP3 SSTORE PUSH1 0x1 DUP3 ADD SWAP2 POP PUSH1 0x20 DUP6 ADD SWAP5 POP PUSH1 0x20 DUP2 ADD SWAP1 POP PUSH2 0x4C13 JUMP JUMPDEST DUP7 DUP4 LT ISZERO PUSH2 0x4C55 JUMPI DUP5 DUP10 ADD MLOAD PUSH2 0x4C51 PUSH1 0x1F DUP10 AND DUP3 PUSH2 0x4B5E JUMP JUMPDEST DUP4 SSTORE POP JUMPDEST PUSH1 0x1 PUSH1 0x2 DUP9 MUL ADD DUP9 SSTORE POP POP POP JUMPDEST POP POP POP POP POP POP JUMP JUMPDEST PUSH32 0x4F776E61626C65236F6E6C794F776E65724F7243726561746F723A2053454E44 PUSH1 0x0 DUP3 ADD MSTORE PUSH32 0x45525F49535F4E4F545F4F574E45525F4F525F43524541544F52000000000000 PUSH1 0x20 DUP3 ADD MSTORE POP JUMP JUMPDEST PUSH1 0x0 PUSH2 0x4CC6 PUSH1 0x3A DUP4 PUSH2 0x463D JUMP JUMPDEST SWAP2 POP PUSH2 0x4CD1 DUP3 PUSH2 0x4C6A JUMP JUMPDEST PUSH1 0x40 DUP3 ADD SWAP1 POP SWAP2 SWAP1 POP JUMP JUMPDEST PUSH1 0x0 PUSH1 0x20 DUP3 ADD SWAP1 POP DUP2 DUP2 SUB PUSH1 0x0 DUP4 ADD MSTORE PUSH2 0x4CF5 DUP2 PUSH2 0x4CB9 JUMP JUMPDEST SWAP1 POP SWAP2 SWAP1 POP JUMP JUMPDEST PUSH32 0x4E487B7100000000000000000000000000000000000000000000000000000000 PUSH1 0x0 MSTORE PUSH1 0x32 PUSH1 0x4 MSTORE PUSH1 0x24 PUSH1 0x0 REVERT JUMPDEST PUSH1 0x0 PUSH8 0xFFFFFFFFFFFFFFFF DUP3 GT ISZERO PUSH2 0x4D46 JUMPI PUSH2 0x4D45 PUSH2 0x3B0D JUMP JUMPDEST JUMPDEST PUSH1 0x20 DUP3 MUL SWAP1 POP PUSH1 0x20 DUP2 ADD SWAP1 POP SWAP2 SWAP1 POP JUMP JUMPDEST PUSH1 0x0 DUP1 REVERT JUMPDEST PUSH1 0x0 DUP1 REVERT JUMPDEST PUSH1 0x0 DUP1 REVERT JUMPDEST PUSH1 0x0 PUSH2 0x4D79 PUSH2 0x4D74 DUP5 PUSH2 0x3B88 JUMP JUMPDEST PUSH2 0x3B6D JUMP JUMPDEST SWAP1 POP DUP3 DUP2 MSTORE PUSH1 0x20 DUP2 ADD DUP5 DUP5 DUP5 ADD GT ISZERO PUSH2 0x4D95 JUMPI PUSH2 0x4D94 PUSH2 0x3AF7 JUMP JUMPDEST JUMPDEST PUSH2 0x4DA0 DUP5 DUP3 DUP6 PUSH2 0x3D8D JUMP JUMPDEST POP SWAP4 SWAP3 POP POP POP JUMP JUMPDEST PUSH1 0x0 DUP3 PUSH1 0x1F DUP4 ADD SLT PUSH2 0x4DBD JUMPI PUSH2 0x4DBC PUSH2 0x3AF2 JUMP JUMPDEST JUMPDEST DUP2 MLOAD PUSH2 0x4DCD DUP5 DUP3 PUSH1 0x20 DUP7 ADD PUSH2 0x4D66 JUMP JUMPDEST SWAP2 POP POP SWAP3 SWAP2 POP POP JUMP JUMPDEST PUSH1 0x0 PUSH1 0xA0 DUP3 DUP5 SUB SLT ISZERO PUSH2 0x4DEC JUMPI PUSH2 0x4DEB PUSH2 0x4D5C JUMP JUMPDEST JUMPDEST PUSH2 0x4DF6 PUSH1 0xA0 PUSH2 0x3B6D JUMP JUMPDEST SWAP1 POP PUSH1 0x0 DUP3 ADD MLOAD PUSH8 0xFFFFFFFFFFFFFFFF DUP2 GT ISZERO PUSH2 0x4E16 JUMPI PUSH2 0x4E15 PUSH2 0x4D61 JUMP JUMPDEST JUMPDEST PUSH2 0x4E22 DUP5 DUP3 DUP6 ADD PUSH2 0x4DA8 JUMP JUMPDEST PUSH1 0x0 DUP4 ADD MSTORE POP PUSH1 0x20 DUP3 ADD MLOAD PUSH8 0xFFFFFFFFFFFFFFFF DUP2 GT ISZERO PUSH2 0x4E46 JUMPI PUSH2 0x4E45 PUSH2 0x4D61 JUMP JUMPDEST JUMPDEST PUSH2 0x4E52 DUP5 DUP3 DUP6 ADD PUSH2 0x4DA8 JUMP JUMPDEST PUSH1 0x20 DUP4 ADD MSTORE POP PUSH1 0x40 DUP3 ADD MLOAD PUSH8 0xFFFFFFFFFFFFFFFF DUP2 GT ISZERO PUSH2 0x4E76 JUMPI PUSH2 0x4E75 PUSH2 0x4D61 JUMP JUMPDEST JUMPDEST PUSH2 0x4E82 DUP5 DUP3 DUP6 ADD PUSH2 0x4DA8 JUMP JUMPDEST PUSH1 0x40 DUP4 ADD MSTORE POP PUSH1 0x60 DUP3 ADD MLOAD PUSH8 0xFFFFFFFFFFFFFFFF DUP2 GT ISZERO PUSH2 0x4EA6 JUMPI PUSH2 0x4EA5 PUSH2 0x4D61 JUMP JUMPDEST JUMPDEST PUSH2 0x4EB2 DUP5 DUP3 DUP6 ADD PUSH2 0x4DA8 JUMP JUMPDEST PUSH1 0x60 DUP4 ADD MSTORE POP PUSH1 0x80 PUSH2 0x4EC6 DUP5 DUP3 DUP6 ADD PUSH2 0x49A0 JUMP JUMPDEST PUSH1 0x80 DUP4 ADD MSTORE POP SWAP3 SWAP2 POP POP JUMP JUMPDEST PUSH1 0x0 PUSH2 0x4EE5 PUSH2 0x4EE0 DUP5 PUSH2 0x4D2B JUMP JUMPDEST PUSH2 0x3B6D JUMP JUMPDEST SWAP1 POP DUP1 DUP4 DUP3 MSTORE PUSH1 0x20 DUP3 ADD SWAP1 POP PUSH1 0x20 DUP5 MUL DUP4 ADD DUP6 DUP2 GT ISZERO PUSH2 0x4F08 JUMPI PUSH2 0x4F07 PUSH2 0x4D57 JUMP JUMPDEST JUMPDEST DUP4 JUMPDEST DUP2 DUP2 LT ISZERO PUSH2 0x4F4F JUMPI DUP1 MLOAD PUSH8 0xFFFFFFFFFFFFFFFF DUP2 GT ISZERO PUSH2 0x4F2D JUMPI PUSH2 0x4F2C PUSH2 0x3AF2 JUMP JUMPDEST JUMPDEST DUP1 DUP7 ADD PUSH2 0x4F3A DUP10 DUP3 PUSH2 0x4DD6 JUMP JUMPDEST DUP6 MSTORE PUSH1 0x20 DUP6 ADD SWAP5 POP POP POP PUSH1 0x20 DUP2 ADD SWAP1 POP PUSH2 0x4F0A JUMP JUMPDEST POP POP POP SWAP4 SWAP3 POP POP POP JUMP JUMPDEST PUSH1 0x0 DUP3 PUSH1 0x1F DUP4 ADD SLT PUSH2 0x4F6E JUMPI PUSH2 0x4F6D PUSH2 0x3AF2 JUMP JUMPDEST JUMPDEST DUP2 MLOAD PUSH2 0x4F7E DUP5 DUP3 PUSH1 0x20 DUP7 ADD PUSH2 0x4ED2 JUMP JUMPDEST SWAP2 POP POP SWAP3 SWAP2 POP POP JUMP JUMPDEST PUSH1 0x0 PUSH1 0x20 DUP3 DUP5 SUB SLT ISZERO PUSH2 0x4F9D JUMPI PUSH2 0x4F9C PUSH2 0x39C4 JUMP JUMPDEST JUMPDEST PUSH1 0x0 DUP3 ADD MLOAD PUSH8 0xFFFFFFFFFFFFFFFF DUP2 GT ISZERO PUSH2 0x4FBB JUMPI PUSH2 0x4FBA PUSH2 0x39C9 JUMP JUMPDEST JUMPDEST PUSH2 0x4FC7 DUP5 DUP3 DUP6 ADD PUSH2 0x4F59 JUMP JUMPDEST SWAP2 POP POP SWAP3 SWAP2 POP POP JUMP JUMPDEST PUSH1 0x0 DUP2 SWAP1 POP SWAP3 SWAP2 POP POP JUMP JUMPDEST PUSH1 0x0 PUSH2 0x4FE6 DUP3 PUSH2 0x45C6 JUMP JUMPDEST PUSH2 0x4FF0 DUP2 DUP6 PUSH2 0x4FD0 JUMP JUMPDEST SWAP4 POP PUSH2 0x5000 DUP2 DUP6 PUSH1 0x20 DUP7 ADD PUSH2 0x3D8D JUMP JUMPDEST DUP1 DUP5 ADD SWAP2 POP POP SWAP3 SWAP2 POP POP JUMP JUMPDEST PUSH1 0x0 DUP2 SWAP1 POP SWAP2 SWAP1 POP JUMP JUMPDEST PUSH2 0x5027 PUSH2 0x5022 DUP3 PUSH2 0x3A83 JUMP JUMPDEST PUSH2 0x500C JUMP JUMPDEST DUP3 MSTORE POP POP JUMP JUMPDEST PUSH1 0x0 PUSH2 0x5039 DUP3 DUP6 PUSH2 0x4FDB JUMP JUMPDEST SWAP2 POP PUSH2 0x5045 DUP3 DUP5 PUSH2 0x5016 JUMP JUMPDEST PUSH1 0x20 DUP3 ADD SWAP2 POP DUP2 SWAP1 POP SWAP4 SWAP3 POP POP POP JUMP JUMPDEST PUSH2 0x505E DUP2 PUSH2 0x3A83 JUMP JUMPDEST DUP3 MSTORE POP POP JUMP JUMPDEST PUSH2 0x506D DUP2 PUSH2 0x3AB9 JUMP JUMPDEST DUP3 MSTORE POP POP JUMP JUMPDEST PUSH1 0x0 PUSH1 0x80 DUP3 ADD SWAP1 POP PUSH2 0x5088 PUSH1 0x0 DUP4 ADD DUP8 PUSH2 0x5055 JUMP JUMPDEST PUSH2 0x5095 PUSH1 0x20 DUP4 ADD DUP7 PUSH2 0x5064 JUMP JUMPDEST PUSH2 0x50A2 PUSH1 0x40 DUP4 ADD DUP6 PUSH2 0x5055 JUMP JUMPDEST PUSH2 0x50AF PUSH1 0x60 DUP4 ADD DUP5 PUSH2 0x5055 JUMP JUMPDEST SWAP6 SWAP5 POP POP POP POP POP JUMP JUMPDEST PUSH1 0x0 DUP2 SWAP1 POP DUP2 PUSH1 0x0 MSTORE PUSH1 0x20 PUSH1 0x0 KECCAK256 SWAP1 POP SWAP2 SWAP1 POP JUMP JUMPDEST PUSH1 0x0 DUP2 SLOAD PUSH2 0x50DA DUP2 PUSH2 0x486F JUMP JUMPDEST PUSH2 0x50E4 DUP2 DUP7 PUSH2 0x4781 JUMP JUMPDEST SWAP5 POP PUSH1 0x1 DUP3 AND PUSH1 0x0 DUP2 EQ PUSH2 0x50FF JUMPI PUSH1 0x1 DUP2 EQ PUSH2 0x5114 JUMPI PUSH2 0x5147 JUMP JUMPDEST PUSH1 0xFF NOT DUP4 AND DUP7 MSTORE DUP2 ISZERO ISZERO DUP3 MUL DUP7 ADD SWAP4 POP PUSH2 0x5147 JUMP JUMPDEST PUSH2 0x511D DUP6 PUSH2 0x50B8 JUMP JUMPDEST PUSH1 0x0 JUMPDEST DUP4 DUP2 LT ISZERO PUSH2 0x513F JUMPI DUP2 SLOAD DUP2 DUP10 ADD MSTORE PUSH1 0x1 DUP3 ADD SWAP2 POP PUSH1 0x20 DUP2 ADD SWAP1 POP PUSH2 0x5120 JUMP JUMPDEST DUP4 DUP9 ADD SWAP6 POP POP POP JUMPDEST POP POP POP SWAP3 SWAP2 POP POP JUMP JUMPDEST PUSH1 0x0 PUSH2 0x515C DUP3 DUP5 PUSH2 0x50CD JUMP JUMPDEST SWAP2 POP DUP2 SWAP1 POP SWAP3 SWAP2 POP POP JUMP JUMPDEST PUSH32 0x4E487B7100000000000000000000000000000000000000000000000000000000 PUSH1 0x0 MSTORE PUSH1 0x11 PUSH1 0x4 MSTORE PUSH1 0x24 PUSH1 0x0 REVERT JUMPDEST PUSH1 0x0 PUSH2 0x51A1 DUP3 PUSH2 0x3AB9 JUMP JUMPDEST SWAP2 POP PUSH2 0x51AC DUP4 PUSH2 0x3AB9 JUMP JUMPDEST SWAP3 POP DUP3 DUP3 SUB SWAP1 POP PUSH1 0xFF DUP2 GT ISZERO PUSH2 0x51C5 JUMPI PUSH2 0x51C4 PUSH2 0x5167 JUMP JUMPDEST JUMPDEST SWAP3 SWAP2 POP POP JUMP JUMPDEST PUSH1 0x0 DUP2 SWAP1 POP SWAP2 SWAP1 POP JUMP JUMPDEST PUSH2 0x51E6 PUSH2 0x51E1 DUP3 PUSH2 0x4A66 JUMP JUMPDEST PUSH2 0x51CB JUMP JUMPDEST DUP3 MSTORE POP POP JUMP JUMPDEST PUSH1 0x0 PUSH2 0x51F8 DUP3 DUP6 PUSH2 0x51D5 JUMP JUMPDEST PUSH1 0x20 DUP3 ADD SWAP2 POP PUSH2 0x5208 DUP3 DUP5 PUSH2 0x51D5 JUMP JUMPDEST PUSH1 0x20 DUP3 ADD SWAP2 POP DUP2 SWAP1 POP SWAP4 SWAP3 POP POP POP JUMP JUMPDEST PUSH32 0x5352414578697374730000000000000000000000000000000000000000000000 PUSH1 0x0 DUP3 ADD MSTORE POP JUMP JUMPDEST PUSH1 0x0 PUSH2 0x524E PUSH1 0x9 DUP4 PUSH2 0x463D JUMP JUMPDEST SWAP2 POP PUSH2 0x5259 DUP3 PUSH2 0x5218 JUMP JUMPDEST PUSH1 0x20 DUP3 ADD SWAP1 POP SWAP2 SWAP1 POP JUMP JUMPDEST PUSH1 0x0 PUSH1 0x20 DUP3 ADD SWAP1 POP DUP2 DUP2 SUB PUSH1 0x0 DUP4 ADD MSTORE PUSH2 0x527D DUP2 PUSH2 0x5241 JUMP JUMPDEST SWAP1 POP SWAP2 SWAP1 POP JUMP JUMPDEST PUSH1 0x1F DUP3 GT ISZERO PUSH2 0x52C5 JUMPI PUSH2 0x5296 DUP2 PUSH2 0x50B8 JUMP JUMPDEST PUSH2 0x529F DUP5 PUSH2 0x49F7 JUMP JUMPDEST DUP2 ADD PUSH1 0x20 DUP6 LT ISZERO PUSH2 0x52AE JUMPI DUP2 SWAP1 POP JUMPDEST PUSH2 0x52C2 PUSH2 0x52BA DUP6 PUSH2 0x49F7 JUMP JUMPDEST DUP4 ADD DUP3 PUSH2 0x4AE8 JUMP JUMPDEST POP POP JUMPDEST POP POP POP JUMP JUMPDEST PUSH2 0x52D3 DUP3 PUSH2 0x3D71 JUMP JUMPDEST PUSH8 0xFFFFFFFFFFFFFFFF DUP2 GT ISZERO PUSH2 0x52EC JUMPI PUSH2 0x52EB PUSH2 0x3B0D JUMP JUMPDEST JUMPDEST PUSH2 0x52F6 DUP3 SLOAD PUSH2 0x486F JUMP JUMPDEST PUSH2 0x5301 DUP3 DUP3 DUP6 PUSH2 0x5284 JUMP JUMPDEST PUSH1 0x0 PUSH1 0x20 SWAP1 POP PUSH1 0x1F DUP4 GT PUSH1 0x1 DUP2 EQ PUSH2 0x5334 JUMPI PUSH1 0x0 DUP5 ISZERO PUSH2 0x5322 JUMPI DUP3 DUP8 ADD MLOAD SWAP1 POP JUMPDEST PUSH2 0x532C DUP6 DUP3 PUSH2 0x4B7C JUMP JUMPDEST DUP7 SSTORE POP PUSH2 0x5394 JUMP JUMPDEST PUSH1 0x1F NOT DUP5 AND PUSH2 0x5342 DUP7 PUSH2 0x50B8 JUMP JUMPDEST PUSH1 0x0 JUMPDEST DUP3 DUP2 LT ISZERO PUSH2 0x536A JUMPI DUP5 DUP10 ADD MLOAD DUP3 SSTORE PUSH1 0x1 DUP3 ADD SWAP2 POP PUSH1 0x20 DUP6 ADD SWAP5 POP PUSH1 0x20 DUP2 ADD SWAP1 POP PUSH2 0x5345 JUMP JUMPDEST DUP7 DUP4 LT ISZERO PUSH2 0x5387 JUMPI DUP5 DUP10 ADD MLOAD PUSH2 0x5383 PUSH1 0x1F DUP10 AND DUP3 PUSH2 0x4B5E JUMP JUMPDEST DUP4 SSTORE POP JUMPDEST PUSH1 0x1 PUSH1 0x2 DUP9 MUL ADD DUP9 SSTORE POP POP POP JUMPDEST POP POP POP POP POP POP JUMP JUMPDEST PUSH32 0x4E487B7100000000000000000000000000000000000000000000000000000000 PUSH1 0x0 MSTORE PUSH1 0x12 PUSH1 0x4 MSTORE PUSH1 0x24 PUSH1 0x0 REVERT JUMPDEST PUSH1 0x0 PUSH2 0x53D6 DUP3 PUSH2 0x4A66 JUMP JUMPDEST SWAP2 POP PUSH2 0x53E1 DUP4 PUSH2 0x4A66 JUMP JUMPDEST SWAP3 POP DUP3 DUP3 MUL PUSH2 0x53EF DUP2 PUSH2 0x4A66 JUMP JUMPDEST SWAP2 POP DUP3 DUP3 DIV DUP5 EQ DUP4 ISZERO OR PUSH2 0x5406 JUMPI PUSH2 0x5405 PUSH2 0x5167 JUMP JUMPDEST JUMPDEST POP SWAP3 SWAP2 POP POP JUMP JUMPDEST PUSH1 0x0 PUSH2 0x5418 DUP3 PUSH2 0x4A66 JUMP JUMPDEST SWAP2 POP PUSH2 0x5423 DUP4 PUSH2 0x4A66 JUMP JUMPDEST SWAP3 POP DUP3 DUP3 ADD SWAP1 POP DUP1 DUP3 GT ISZERO PUSH2 0x543B JUMPI PUSH2 0x543A PUSH2 0x5167 JUMP JUMPDEST JUMPDEST SWAP3 SWAP2 POP POP JUMP JUMPDEST PUSH1 0x0 PUSH2 0x544C DUP3 PUSH2 0x4A66 JUMP JUMPDEST SWAP2 POP PUSH2 0x5457 DUP4 PUSH2 0x4A66 JUMP JUMPDEST SWAP3 POP DUP3 PUSH2 0x5467 JUMPI PUSH2 0x5466 PUSH2 0x539C JUMP JUMPDEST JUMPDEST DUP3 DUP3 DIV SWAP1 POP SWAP3 SWAP2 POP POP JUMP JUMPDEST PUSH1 0x0 PUSH2 0x547D DUP3 PUSH2 0x4A66 JUMP JUMPDEST SWAP2 POP PUSH2 0x5488 DUP4 PUSH2 0x4A66 JUMP JUMPDEST SWAP3 POP DUP3 DUP3 SUB SWAP1 POP DUP2 DUP2 GT ISZERO PUSH2 0x54A0 JUMPI PUSH2 0x549F PUSH2 0x5167 JUMP JUMPDEST JUMPDEST SWAP3 SWAP2 POP POP JUMP JUMPDEST PUSH32 0x496E76616C6964206E756D626572000000000000000000000000000000000000 PUSH1 0x0 DUP3 ADD MSTORE POP JUMP JUMPDEST PUSH1 0x0 PUSH2 0x54DC PUSH1 0xE DUP4 PUSH2 0x463D JUMP JUMPDEST SWAP2 POP PUSH2 0x54E7 DUP3 PUSH2 0x54A6 JUMP JUMPDEST PUSH1 0x20 DUP3 ADD SWAP1 POP SWAP2 SWAP1 POP JUMP JUMPDEST PUSH1 0x0 PUSH1 0x20 DUP3 ADD SWAP1 POP DUP2 DUP2 SUB PUSH1 0x0 DUP4 ADD MSTORE PUSH2 0x550B DUP2 PUSH2 0x54CF JUMP JUMPDEST SWAP1 POP SWAP2 SWAP1 POP JUMP JUMPDEST PUSH32 0x557365206A6163446F75626C652066756E6374696F6E20696E73746561640000 PUSH1 0x0 DUP3 ADD MSTORE POP JUMP JUMPDEST PUSH1 0x0 PUSH2 0x5548 PUSH1 0x1E DUP4 PUSH2 0x463D JUMP JUMPDEST SWAP2 POP PUSH2 0x5553 DUP3 PUSH2 0x5512 JUMP JUMPDEST PUSH1 0x20 DUP3 ADD SWAP1 POP SWAP2 SWAP1 POP JUMP JUMPDEST PUSH1 0x0 PUSH1 0x20 DUP3 ADD SWAP1 POP DUP2 DUP2 SUB PUSH1 0x0 DUP4 ADD MSTORE PUSH2 0x5577 DUP2 PUSH2 0x553B JUMP JUMPDEST SWAP1 POP SWAP2 SWAP1 POP JUMP INVALID LOG2 PUSH5 0x6970667358 0x22 SLT KECCAK256 0xC9 CALL 0xC2 DUP7 DUP11 TLOAD BALANCE PUSH5 0xB4547FCCBF LOG0 0xD5 LOG3 0xC6 EXTCODECOPY PUSH9 0xF6147559DBB8F8E418 DUP9 PUSH18 0xCDB064736F6C634300081800330000000000 "},"methodIdentifiers":{"acceptShareRequest(bytes32,uint8,bytes32,bytes32,string)":"6b11bc49","adminAllVaults()":"d8b63c8a","createFile(string,string,string,string,bytes32,uint8,bytes32,bytes32)":"b1a81bd5","deleteFile(bytes32,uint8,bytes32,bytes32,string)":"146aa7f7","deploy(string,bytes)":"be3397e9","getAllFiles(bytes32,uint8,bytes32,bytes32)":"e04e0283","getCreator()":"0ee2cb10","getOwner()":"893d20e8","getPubKey(address)":"fce9512a","getShareRequests(bytes32,uint8,bytes32,bytes32)":"2fd005c8","getVault(address)":"0eb9af38","rejectShareRequest(bytes32,uint8,bytes32,bytes32,string)":"633072e4","relayDeploy(string,bytes32,uint8,bytes32,bytes32,bytes)":"e3e39012","sendShareRequest(bytes32,uint8,bytes32,bytes32,address,string,string,string,string)":"e4f0c916"}}}}}