{
  "_format": "hh-sol-artifact-1",
  "contractName": "PeerSafeDeployer",
  "sourceName": "contracts/PeerSafeDeployer.sol",
  "abi": [
    {
      "inputs": [
        {
          "internalType": "address",
          "name": "_deployer",
          "type": "address"
        }
      ],
      "stateMutability": "nonpayable",
      "type": "constructor"
    },
    {
      "anonymous": false,
      "inputs": [
        {
          "indexed": true,
          "internalType": "address",
          "name": "previousOwner",
          "type": "address"
        },
        {
          "indexed": true,
          "internalType": "address",
          "name": "newOwner",
          "type": "address"
        }
      ],
      "name": "OwnershipTransferred",
      "type": "event"
    },
    {
      "inputs": [
        {
          "internalType": "bytes32",
          "name": "_hashedMessage",
          "type": "bytes32"
        },
        {
          "internalType": "uint8",
          "name": "_v",
          "type": "uint8"
        },
        {
          "internalType": "bytes32",
          "name": "_r",
          "type": "bytes32"
        },
        {
          "internalType": "bytes32",
          "name": "_s",
          "type": "bytes32"
        },
        {
          "internalType": "string",
          "name": "_fileHash",
          "type": "string"
        }
      ],
      "name": "acceptShareRequest",
      "outputs": [],
      "stateMutability": "nonpayable",
      "type": "function"
    },
    {
      "inputs": [],
      "name": "adminAllVaults",
      "outputs": [
        {
          "internalType": "address[]",
          "name": "",
          "type": "address[]"
        },
        {
          "internalType": "address[]",
          "name": "",
          "type": "address[]"
        }
      ],
      "stateMutability": "view",
      "type": "function"
    },
    {
      "inputs": [
        {
          "internalType": "string",
          "name": "name",
          "type": "string"
        },
        {
          "internalType": "string",
          "name": "fileType",
          "type": "string"
        },
        {
          "internalType": "string",
          "name": "ipfsHash",
          "type": "string"
        },
        {
          "internalType": "string",
          "name": "key",
          "type": "string"
        },
        {
          "internalType": "bytes32",
          "name": "_hashedMessage",
          "type": "bytes32"
        },
        {
          "internalType": "uint8",
          "name": "_v",
          "type": "uint8"
        },
        {
          "internalType": "bytes32",
          "name": "_r",
          "type": "bytes32"
        },
        {
          "internalType": "bytes32",
          "name": "_s",
          "type": "bytes32"
        }
      ],
      "name": "createFile",
      "outputs": [],
      "stateMutability": "nonpayable",
      "type": "function"
    },
    {
      "inputs": [
        {
          "internalType": "bytes32",
          "name": "_hashedMessage",
          "type": "bytes32"
        },
        {
          "internalType": "uint8",
          "name": "_v",
          "type": "uint8"
        },
        {
          "internalType": "bytes32",
          "name": "_r",
          "type": "bytes32"
        },
        {
          "internalType": "bytes32",
          "name": "_s",
          "type": "bytes32"
        },
        {
          "internalType": "string",
          "name": "ipfsHash",
          "type": "string"
        }
      ],
      "name": "deleteFile",
      "outputs": [],
      "stateMutability": "nonpayable",
      "type": "function"
    },
    {
      "inputs": [
        {
          "internalType": "string",
          "name": "_userName",
          "type": "string"
        },
        {
          "internalType": "bytes",
          "name": "pubKey",
          "type": "bytes"
        }
      ],
      "name": "deploy",
      "outputs": [
        {
          "internalType": "address",
          "name": "",
          "type": "address"
        }
      ],
      "stateMutability": "nonpayable",
      "type": "function"
    },
    {
      "inputs": [
        {
          "internalType": "bytes32",
          "name": "_hashedMessage",
          "type": "bytes32"
        },
        {
          "internalType": "uint8",
          "name": "_v",
          "type": "uint8"
        },
        {
          "internalType": "bytes32",
          "name": "_r",
          "type": "bytes32"
        },
        {
          "internalType": "bytes32",
          "name": "_s",
          "type": "bytes32"
        }
      ],
      "name": "getAllFiles",
      "outputs": [
        {
          "components": [
            {
              "internalType": "string",
              "name": "_name",
              "type": "string"
            },
            {
              "internalType": "string",
              "name": "_fileType",
              "type": "string"
            },
            {
              "internalType": "string",
              "name": "_ipfsHash",
              "type": "string"
            },
            {
              "internalType": "string",
              "name": "_key",
              "type": "string"
            },
            {
              "internalType": "address",
              "name": "_sharedBy",
              "type": "address"
            }
          ],
          "internalType": "struct File[]",
          "name": "",
          "type": "tuple[]"
        }
      ],
      "stateMutability": "view",
      "type": "function"
    },
    {
      "inputs": [],
      "name": "getCreator",
      "outputs": [
        {
          "internalType": "address",
          "name": "",
          "type": "address"
        }
      ],
      "stateMutability": "view",
      "type": "function"
    },
    {
      "inputs": [],
      "name": "getOwner",
      "outputs": [
        {
          "internalType": "address",
          "name": "",
          "type": "address"
        }
      ],
      "stateMutability": "view",
      "type": "function"
    },
    {
      "inputs": [
        {
          "internalType": "address",
          "name": "_user",
          "type": "address"
        }
      ],
      "name": "getPubKey",
      "outputs": [
        {
          "internalType": "bytes",
          "name": "",
          "type": "bytes"
        }
      ],
      "stateMutability": "view",
      "type": "function"
    },
    {
      "inputs": [
        {
          "internalType": "bytes32",
          "name": "_hashedMessage",
          "type": "bytes32"
        },
        {
          "internalType": "uint8",
          "name": "_v",
          "type": "uint8"
        },
        {
          "internalType": "bytes32",
          "name": "_r",
          "type": "bytes32"
        },
        {
          "internalType": "bytes32",
          "name": "_s",
          "type": "bytes32"
        }
      ],
      "name": "getShareRequests",
      "outputs": [
        {
          "components": [
            {
              "internalType": "address",
              "name": "_from",
              "type": "address"
            },
            {
              "internalType": "string",
              "name": "_fileHash",
              "type": "string"
            },
            {
              "internalType": "string",
              "name": "_keyHash",
              "type": "string"
            },
            {
              "internalType": "string",
              "name": "_name",
              "type": "string"
            },
            {
              "internalType": "string",
              "name": "_fileType",
              "type": "string"
            }
          ],
          "internalType": "struct ShareRequest[]",
          "name": "",
          "type": "tuple[]"
        }
      ],
      "stateMutability": "view",
      "type": "function"
    },
    {
      "inputs": [
        {
          "internalType": "address",
          "name": "_vaultOwner",
          "type": "address"
        }
      ],
      "name": "getVault",
      "outputs": [
        {
          "internalType": "address",
          "name": "",
          "type": "address"
        }
      ],
      "stateMutability": "view",
      "type": "function"
    },
    {
      "inputs": [
        {
          "internalType": "bytes32",
          "name": "_hashedMessage",
          "type": "bytes32"
        },
        {
          "internalType": "uint8",
          "name": "_v",
          "type": "uint8"
        },
        {
          "internalType": "bytes32",
          "name": "_r",
          "type": "bytes32"
        },
        {
          "internalType": "bytes32",
          "name": "_s",
          "type": "bytes32"
        },
        {
          "internalType": "string",
          "name": "_fileHash",
          "type": "string"
        }
      ],
      "name": "rejectShareRequest",
      "outputs": [],
      "stateMutability": "nonpayable",
      "type": "function"
    },
    {
      "inputs": [
        {
          "internalType": "string",
          "name": "_userName",
          "type": "string"
        },
        {
          "internalType": "bytes32",
          "name": "_hashedMessage",
          "type": "bytes32"
        },
        {
          "internalType": "uint8",
          "name": "_v",
          "type": "uint8"
        },
        {
          "internalType": "bytes32",
          "name": "_r",
          "type": "bytes32"
        },
        {
          "internalType": "bytes32",
          "name": "_s",
          "type": "bytes32"
        },
        {
          "internalType": "bytes",
          "name": "pubKey",
          "type": "bytes"
        }
      ],
      "name": "relayDeploy",
      "outputs": [
        {
          "internalType": "address",
          "name": "",
          "type": "address"
        }
      ],
      "stateMutability": "nonpayable",
      "type": "function"
    },
    {
      "inputs": [
        {
          "internalType": "bytes32",
          "name": "_hashedMessage",
          "type": "bytes32"
        },
        {
          "internalType": "uint8",
          "name": "_v",
          "type": "uint8"
        },
        {
          "internalType": "bytes32",
          "name": "_r",
          "type": "bytes32"
        },
        {
          "internalType": "bytes32",
          "name": "_s",
          "type": "bytes32"
        },
        {
          "internalType": "address",
          "name": "_to",
          "type": "address"
        },
        {
          "internalType": "string",
          "name": "_fileHash",
          "type": "string"
        },
        {
          "internalType": "string",
          "name": "_keyHash",
          "type": "string"
        },
        {
          "internalType": "string",
          "name": "_name",
          "type": "string"
        },
        {
          "internalType": "string",
          "name": "_fileType",
          "type": "string"
        }
      ],
      "name": "sendShareRequest",
      "outputs": [],
      "stateMutability": "nonpayable",
      "type": "function"
    }
  ],
  "bytecode": "0x60806040523480156200001157600080fd5b50604051620057bf380380620057bf8339818101604052810190620000379190620001c9565b3333806000806101000a81548173ffffffffffffffffffffffffffffffffffffffff021916908373ffffffffffffffffffffffffffffffffffffffff16021790555081600160006101000a81548173ffffffffffffffffffffffffffffffffffffffff021916908373ffffffffffffffffffffffffffffffffffffffff1602179055508073ffffffffffffffffffffffffffffffffffffffff16600073ffffffffffffffffffffffffffffffffffffffff167f8be0079c531659141344cd1fd0a4f28419497f9722a3daafe3b4186f6b6457e060405160405180910390a3505080600460006101000a81548173ffffffffffffffffffffffffffffffffffffffff021916908373ffffffffffffffffffffffffffffffffffffffff16021790555050620001fb565b600080fd5b600073ffffffffffffffffffffffffffffffffffffffff82169050919050565b6000620001918262000164565b9050919050565b620001a38162000184565b8114620001af57600080fd5b50565b600081519050620001c38162000198565b92915050565b600060208284031215620001e257620001e16200015f565b5b6000620001f284828501620001b2565b91505092915050565b6155b4806200020b6000396000f3fe608060405234801561001057600080fd5b50600436106100ea5760003560e01c8063b1a81bd51161008c578063e04e028311610066578063e04e02831461024a578063e3e390121461027a578063e4f0c916146102aa578063fce9512a146102c6576100ea565b8063b1a81bd5146101df578063be3397e9146101fb578063d8b63c8a1461022b576100ea565b80632fd005c8116100c85780632fd005c814610159578063633072e4146101895780636b11bc49146101a5578063893d20e8146101c1576100ea565b80630eb9af38146100ef5780630ee2cb101461011f578063146aa7f71461013d575b600080fd5b61010960048036038101906101049190613a2c565b6102f6565b6040516101169190613a68565b60405180910390f35b6101276103d6565b6040516101349190613a68565b60405180910390f35b61015760048036038101906101529190613c38565b610400565b005b610173600480360381019061016e9190613ccf565b6104eb565b6040516101809190613f11565b60405180910390f35b6101a3600480360381019061019e9190613c38565b61058b565b005b6101bf60048036038101906101ba9190613c38565b6105b9565b005b6101c9610b63565b6040516101d69190613a68565b60405180910390f35b6101f960048036038101906101f49190613f33565b610b8c565b005b610215600480360381019061021091906140fa565b610c80565b6040516102229190613a68565b60405180910390f35b610233610e5c565b604051610241929190614221565b60405180910390f35b610264600480360381019061025f9190613ccf565b6110e7565b60405161027191906143a5565b60405180910390f35b610294600480360381019061028f91906143c7565b6111e0565b6040516102a19190613a68565b60405180910390f35b6102c460048036038101906102bf919061448c565b6113d2565b005b6102e060048036038101906102db9190613a2c565b61150c565b6040516102ed919061461b565b60405180910390f35b600080600260008473ffffffffffffffffffffffffffffffffffffffff1673ffffffffffffffffffffffffffffffffffffffff16815260200190815260200160002060000160009054906101000a900473ffffffffffffffffffffffffffffffffffffffff169050600073ffffffffffffffffffffffffffffffffffffffff168173ffffffffffffffffffffffffffffffffffffffff16036103cd576040517f08c379a00000000000000000000000000000000000000000000000000000000081526004016103c49061469a565b60405180910390fd5b80915050919050565b6000600160009054906101000a900473ffffffffffffffffffffffffffffffffffffffff16905090565b600061040e868686866115e0565b90506000600260008373ffffffffffffffffffffffffffffffffffffffff1673ffffffffffffffffffffffffffffffffffffffff16815260200190815260200160002060000160009054906101000a900473ffffffffffffffffffffffffffffffffffffffff1690508073ffffffffffffffffffffffffffffffffffffffff1663a9910054846040518263ffffffff1660e01b81526004016104b091906146f3565b600060405180830381600087803b1580156104ca57600080fd5b505af11580156104de573d6000803e3d6000fd5b5050505050505050505050565b606060006104fb868686866115e0565b9050600073ffffffffffffffffffffffffffffffffffffffff168173ffffffffffffffffffffffffffffffffffffffff160361056c576040517f08c379a000000000000000000000000000000000000000000000000000000000815260040161056390614761565b60405180910390fd5b6105808160056116a390919063ffffffff16565b915050949350505050565b6000610599868686866115e0565b90506105b181836005611b289092919063ffffffff16565b505050505050565b60006105c7868686866115e0565b9050600073ffffffffffffffffffffffffffffffffffffffff16600560000160008373ffffffffffffffffffffffffffffffffffffffff1673ffffffffffffffffffffffffffffffffffffffff1681526020019081526020016000208360405161063191906147bd565b908152602001604051809103902060000160009054906101000a900473ffffffffffffffffffffffffffffffffffffffff1673ffffffffffffffffffffffffffffffffffffffff16036106b9576040517f08c379a00000000000000000000000000000000000000000000000000000000081526004016106b090614820565b60405180910390fd5b6000600260008373ffffffffffffffffffffffffffffffffffffffff1673ffffffffffffffffffffffffffffffffffffffff16815260200190815260200160002060010180546107089061486f565b90500361074a576040517f08c379a000000000000000000000000000000000000000000000000000000000815260040161074190614761565b60405180910390fd5b6000600260008373ffffffffffffffffffffffffffffffffffffffff1673ffffffffffffffffffffffffffffffffffffffff16815260200190815260200160002060000160009054906101000a900473ffffffffffffffffffffffffffffffffffffffff1690506000600560000160008473ffffffffffffffffffffffffffffffffffffffff1673ffffffffffffffffffffffffffffffffffffffff1681526020019081526020016000208460405161080391906147bd565b90815260200160405180910390206040518060a00160405290816000820160009054906101000a900473ffffffffffffffffffffffffffffffffffffffff1673ffffffffffffffffffffffffffffffffffffffff1673ffffffffffffffffffffffffffffffffffffffff1681526020016001820180546108829061486f565b80601f01602080910402602001604051908101604052809291908181526020018280546108ae9061486f565b80156108fb5780601f106108d0576101008083540402835291602001916108fb565b820191906000526020600020905b8154815290600101906020018083116108de57829003601f168201915b505050505081526020016002820180546109149061486f565b80601f01602080910402602001604051908101604052809291908181526020018280546109409061486f565b801561098d5780601f106109625761010080835404028352916020019161098d565b820191906000526020600020905b81548152906001019060200180831161097057829003601f168201915b505050505081526020016003820180546109a69061486f565b80601f01602080910402602001604051908101604052809291908181526020018280546109d29061486f565b8015610a1f5780601f106109f457610100808354040283529160200191610a1f565b820191906000526020600020905b815481529060010190602001808311610a0257829003601f168201915b50505050508152602001600482018054610a389061486f565b80601f0160208091040260200160405190810160405280929190818152602001828054610a649061486f565b8015610ab15780601f10610a8657610100808354040283529160200191610ab1565b820191906000526020600020905b815481529060010190602001808311610a9457829003601f168201915b50505050508152505090508173ffffffffffffffffffffffffffffffffffffffff1663384e477d826060015183608001518460200151856040015186600001516040518663ffffffff1660e01b8152600401610b119594939291906148a0565b600060405180830381600087803b158015610b2b57600080fd5b505af1158015610b3f573d6000803e3d6000fd5b50505050610b5983856005611b289092919063ffffffff16565b5050505050505050565b60008060009054906101000a900473ffffffffffffffffffffffffffffffffffffffff16905090565b6000610b9a858585856115e0565b90506000600260008373ffffffffffffffffffffffffffffffffffffffff1673ffffffffffffffffffffffffffffffffffffffff16815260200190815260200160002060000160009054906101000a900473ffffffffffffffffffffffffffffffffffffffff1690508073ffffffffffffffffffffffffffffffffffffffff1663d590e7ef8b8b8b8b6040518563ffffffff1660e01b8152600401610c42949392919061490f565b600060405180830381600087803b158015610c5c57600080fd5b505af1158015610c70573d6000803e3d6000fd5b5050505050505050505050505050565b600080600460009054906101000a900473ffffffffffffffffffffffffffffffffffffffff1673ffffffffffffffffffffffffffffffffffffffff1663918aaff533866040518363ffffffff1660e01b8152600401610ce0929190614970565b6020604051808303816000875af1158015610cff573d6000803e3d6000fd5b505050506040513d601f19601f82011682018060405250810190610d2391906149b5565b905060405180604001604052808273ffffffffffffffffffffffffffffffffffffffff16815260200184815250600260003373ffffffffffffffffffffffffffffffffffffffff1673ffffffffffffffffffffffffffffffffffffffff16815260200190815260200160002060008201518160000160006101000a81548173ffffffffffffffffffffffffffffffffffffffff021916908373ffffffffffffffffffffffffffffffffffffffff1602179055506020820151816001019081610deb9190614b98565b509050506003339080600181540180825580915050600190039060005260206000200160009091909190916101000a81548173ffffffffffffffffffffffffffffffffffffffff021916908373ffffffffffffffffffffffffffffffffffffffff1602179055508091505092915050565b60608060008054906101000a900473ffffffffffffffffffffffffffffffffffffffff1673ffffffffffffffffffffffffffffffffffffffff163373ffffffffffffffffffffffffffffffffffffffff161480610f065750600160009054906101000a900473ffffffffffffffffffffffffffffffffffffffff1673ffffffffffffffffffffffffffffffffffffffff163373ffffffffffffffffffffffffffffffffffffffff16145b610f45576040517f08c379a0000000000000000000000000000000000000000000000000000000008152600401610f3c90614cdc565b60405180910390fd5b606060005b600380549050811015611052576002600060038381548110610f6f57610f6e614cfc565b5b9060005260206000200160009054906101000a900473ffffffffffffffffffffffffffffffffffffffff1673ffffffffffffffffffffffffffffffffffffffff1673ffffffffffffffffffffffffffffffffffffffff16815260200190815260200160002060000160009054906101000a900473ffffffffffffffffffffffffffffffffffffffff1682828151811061100b5761100a614cfc565b5b602002602001019073ffffffffffffffffffffffffffffffffffffffff16908173ffffffffffffffffffffffffffffffffffffffff16815250508080600101915050610f4a565b50600381818054806020026020016040519081016040528092919081815260200182805480156110d757602002820191906000526020600020905b8160009054906101000a900473ffffffffffffffffffffffffffffffffffffffff1673ffffffffffffffffffffffffffffffffffffffff168152602001906001019080831161108d575b5050505050915092509250509091565b606060006110f7868686866115e0565b90506000600260008373ffffffffffffffffffffffffffffffffffffffff1673ffffffffffffffffffffffffffffffffffffffff16815260200190815260200160002060000160009054906101000a900473ffffffffffffffffffffffffffffffffffffffff1690508073ffffffffffffffffffffffffffffffffffffffff1663ff24b5d56040518163ffffffff1660e01b8152600401600060405180830381865afa1580156111ab573d6000803e3d6000fd5b505050506040513d6000823e3d601f19601f820116820180604052508101906111d49190614f87565b92505050949350505050565b6000806111ef87878787611d6a565b5090506000600460009054906101000a900473ffffffffffffffffffffffffffffffffffffffff1673ffffffffffffffffffffffffffffffffffffffff1663918aaff5838b6040518363ffffffff1660e01b8152600401611251929190614970565b6020604051808303816000875af1158015611270573d6000803e3d6000fd5b505050506040513d601f19601f8201168201806040525081019061129491906149b5565b905060405180604001604052808273ffffffffffffffffffffffffffffffffffffffff16815260200185815250600260008473ffffffffffffffffffffffffffffffffffffffff1673ffffffffffffffffffffffffffffffffffffffff16815260200190815260200160002060008201518160000160006101000a81548173ffffffffffffffffffffffffffffffffffffffff021916908373ffffffffffffffffffffffffffffffffffffffff160217905550602082015181600101908161135c9190614b98565b509050506003829080600181540180825580915050600190039060005260206000200160009091909190916101000a81548173ffffffffffffffffffffffffffffffffffffffff021916908373ffffffffffffffffffffffffffffffffffffffff16021790555080925050509695505050505050565b600073ffffffffffffffffffffffffffffffffffffffff168573ffffffffffffffffffffffffffffffffffffffff1603611441576040517f08c379a000000000000000000000000000000000000000000000000000000000815260040161143890614761565b60405180910390fd5b6000600260008773ffffffffffffffffffffffffffffffffffffffff1673ffffffffffffffffffffffffffffffffffffffff16815260200190815260200160002060010180546114909061486f565b9050036114d2576040517f08c379a00000000000000000000000000000000000000000000000000000000081526004016114c990614761565b60405180910390fd5b60006114e08a8a8a8a6115e0565b90506115008187878787876005611e7f909695949392919063ffffffff16565b50505050505050505050565b6060600260008373ffffffffffffffffffffffffffffffffffffffff1673ffffffffffffffffffffffffffffffffffffffff168152602001908152602001600020600101805461155b9061486f565b80601f01602080910402602001604051908101604052809291908181526020018280546115879061486f565b80156115d45780601f106115a9576101008083540402835291602001916115d4565b820191906000526020600020905b8154815290600101906020018083116115b757829003601f168201915b50505050509050919050565b6000806040518060400160405280601c81526020017f19457468657265756d205369676e6564204d6573736167653a0a33320000000081525090506000818760405160200161163092919061502d565b6040516020818303038152906040528051906020012090506001818787876040516000815260200160405260405161166b9493929190615073565b6020604051602081039080840390855afa15801561168d573d6000803e3d6000fd5b5050506020604051035192505050949350505050565b606060008360010160008473ffffffffffffffffffffffffffffffffffffffff1673ffffffffffffffffffffffffffffffffffffffff1681526020019081526020016000208054905067ffffffffffffffff81111561170557611704613b0d565b5b60405190808252806020026020018201604052801561173e57816020015b61172b6138f6565b8152602001906001900390816117235790505b50905060005b8460010160008573ffffffffffffffffffffffffffffffffffffffff1673ffffffffffffffffffffffffffffffffffffffff16815260200190815260200160002080549050811015611b1d578460000160008573ffffffffffffffffffffffffffffffffffffffff1673ffffffffffffffffffffffffffffffffffffffff1681526020019081526020016000208560010160008673ffffffffffffffffffffffffffffffffffffffff1673ffffffffffffffffffffffffffffffffffffffff168152602001908152602001600020828154811061182457611823614cfc565b5b9060005260206000200160405161183b9190615150565b90815260200160405180910390206040518060a00160405290816000820160009054906101000a900473ffffffffffffffffffffffffffffffffffffffff1673ffffffffffffffffffffffffffffffffffffffff1673ffffffffffffffffffffffffffffffffffffffff1681526020016001820180546118ba9061486f565b80601f01602080910402602001604051908101604052809291908181526020018280546118e69061486f565b80156119335780601f1061190857610100808354040283529160200191611933565b820191906000526020600020905b81548152906001019060200180831161191657829003601f168201915b5050505050815260200160028201805461194c9061486f565b80601f01602080910402602001604051908101604052809291908181526020018280546119789061486f565b80156119c55780601f1061199a576101008083540402835291602001916119c5565b820191906000526020600020905b8154815290600101906020018083116119a857829003601f168201915b505050505081526020016003820180546119de9061486f565b80601f0160208091040260200160405190810160405280929190818152602001828054611a0a9061486f565b8015611a575780601f10611a2c57610100808354040283529160200191611a57565b820191906000526020600020905b815481529060010190602001808311611a3a57829003601f168201915b50505050508152602001600482018054611a709061486f565b80601f0160208091040260200160405190810160405280929190818152602001828054611a9c9061486f565b8015611ae95780601f10611abe57610100808354040283529160200191611ae9565b820191906000526020600020905b815481529060010190602001808311611acc57829003601f168201915b505050505081525050828281518110611b0557611b04614cfc565b5b60200260200101819052508080600101915050611744565b508091505092915050565b8260000160008373ffffffffffffffffffffffffffffffffffffffff1673ffffffffffffffffffffffffffffffffffffffff16815260200190815260200160002081604051611b7791906147bd565b9081526020016040518091039020600080820160006101000a81549073ffffffffffffffffffffffffffffffffffffffff0219169055600182016000611bbd919061393b565b600282016000611bcd919061393b565b600382016000611bdd919061393b565b600482016000611bed919061393b565b505060005b8360010160008473ffffffffffffffffffffffffffffffffffffffff1673ffffffffffffffffffffffffffffffffffffffff16815260200190815260200160002080549050811015611d645781604051602001611c4f91906147bd565b604051602081830303815290604052805190602001208460010160008573ffffffffffffffffffffffffffffffffffffffff1673ffffffffffffffffffffffffffffffffffffffff1681526020019081526020016000208281548110611cb857611cb7614cfc565b5b90600052602060002001604051602001611cd29190615150565b6040516020818303038152906040528051906020012003611d57578360010160008473ffffffffffffffffffffffffffffffffffffffff1673ffffffffffffffffffffffffffffffffffffffff1681526020019081526020016000208181548110611d4057611d3f614cfc565b5b906000526020600020016000611d56919061393b565b5b8080600101915050611bf2565b50505050565b6000606060006040518060400160405280601c81526020017f19457468657265756d205369676e6564204d6573736167653a0a333200000000815250905060008188604051602001611dbd92919061502d565b604051602081830303815290604052805190602001209050600080611df98360001c601b8b611dec9190615196565b8a60001c8a60001c61212d565b915091506001838a8a8a60405160008152602001604052604051611e209493929190615073565b6020604051602081039080840390855afa158015611e42573d6000803e3d6000fd5b505050602060405103518282604051602001611e5f9291906151ec565b604051602081830303815290604052955095505050505094509492505050565b600073ffffffffffffffffffffffffffffffffffffffff168760000160008773ffffffffffffffffffffffffffffffffffffffff1673ffffffffffffffffffffffffffffffffffffffff16815260200190815260200160002085604051611ee691906147bd565b908152602001604051809103902060000160009054906101000a900473ffffffffffffffffffffffffffffffffffffffff1673ffffffffffffffffffffffffffffffffffffffff1614611f6e576040517f08c379a0000000000000000000000000000000000000000000000000000000008152600401611f6590615264565b60405180910390fd5b60006040518060a001604052808873ffffffffffffffffffffffffffffffffffffffff168152602001868152602001858152602001848152602001838152509050808860000160008873ffffffffffffffffffffffffffffffffffffffff1673ffffffffffffffffffffffffffffffffffffffff16815260200190815260200160002086604051611fff91906147bd565b908152602001604051809103902060008201518160000160006101000a81548173ffffffffffffffffffffffffffffffffffffffff021916908373ffffffffffffffffffffffffffffffffffffffff160217905550602082015181600101908161206991906152ca565b50604082015181600201908161207f91906152ca565b50606082015181600301908161209591906152ca565b5060808201518160040190816120ab91906152ca565b509050508760010160008773ffffffffffffffffffffffffffffffffffffffff1673ffffffffffffffffffffffffffffffffffffffff1681526020019081526020016000208590806001815401808255809150506001900390600052602060002001600090919091909150908161212291906152ca565b505050505050505050565b60008060007ffffffffffffffffffffffffffffffffffffffffffffffffffffffffefffffc2f806121615761216061539c565b5b60018760ff16901c60ff167ffffffffffffffffffffffffffffffffffffffffffffffffffffffffefffffc2f61219791906153cb565b860890507ffffffffffffffffffffffffffffffffffffffffffffffffffffffffefffffc2f8111806121e857507ffffffffffffffffffffffffffffffffebaaedce6af48a03bbfd25e8cd036414184115b8061221257507ffffffffffffffffffffffffffffffffebaaedce6af48a03bbfd25e8cd036414185115b8061221d5750600084145b806122285750600085145b80612236575060018660ff16115b15612248576000809250925050612536565b6000612274867ffffffffffffffffffffffffffffffffebaaedce6af48a03bbfd25e8cd036414161253f565b905060007ffffffffffffffffffffffffffffffffffffffffffffffffffffffffefffffc2f806122a7576122a661539c565b5b7ffffffffffffffffffffffffffffffffffffffffffffffffffffffffefffffc2f806122d6576122d561539c565b5b60077ffffffffffffffffffffffffffffffffffffffffffffffffffffffffefffffc2f806123075761230661539c565b5b60008709087ffffffffffffffffffffffffffffffffffffffffffffffffffffffffefffffc2f8061233b5761233a61539c565b5b7ffffffffffffffffffffffffffffffffffffffffffffffffffffffffefffffc2f8061236a5761236961539c565b5b86870986090890506123b481600460017ffffffffffffffffffffffffffffffffffffffffffffffffffffffffefffffc2f6123a5919061540d565b6123af9190615441565b61262b565b9050600080600160028b60ff16856123cc919061540d565b6123d6919061540d565b161461240d57817ffffffffffffffffffffffffffffffffffffffffffffffffffffffffefffffc2f6124089190615472565b61240f565b815b905060008060006124bf7ffffffffffffffffffffffffffffffffebaaedce6af48a03bbfd25e8cd0364141806124485761244761539c565b5b8e7ffffffffffffffffffffffffffffffffebaaedce6af48a03bbfd25e8cd03641416124749190615472565b88097f79be667ef9dcbbac55a06295ce870b07029bfcdb2dce28d959f2815b16f817987f483ada7726a3c4655da4fbfc0e1108a8fd17b448a68554199c47d08ffb10d4b860016127df565b92509250925060008060006125087ffffffffffffffffffffffffffffffffebaaedce6af48a03bbfd25e8cd0364141806124fc576124fb61539c565b5b8e8b098b8960016127df565b92509250925060008061251f888888888888612879565b9150915081819d509d505050505050505050505050505b94509492505050565b60008083141580156125515750818314155b801561255e575060008214155b61259d576040517f08c379a0000000000000000000000000000000000000000000000000000000008152600401612594906154f2565b60405180910390fd5b60008060019050600084905060005b6000871461261e5786826125c09190615441565b90508286806125d2576125d161539c565b5b87806125e1576125e061539c565b5b858409886125ef9190615472565b8608809450819550505086878261260691906153cb565b836126119190615472565b80985081935050506125ac565b8394505050505092915050565b600080830361263d57600090506127d9565b6000820361264e57600190506127d9565b60006001905060007f800000000000000000000000000000000000000000000000000000000000000090505b60008111156127d3577ffffffffffffffffffffffffffffffffffffffffffffffffffffffffefffffc2f8185161515860a7ffffffffffffffffffffffffffffffffffffffffffffffffffffffffefffffc2f8485090991507ffffffffffffffffffffffffffffffffffffffffffffffffffffffffefffffc2f6002820485161515860a7ffffffffffffffffffffffffffffffffffffffffffffffffffffffffefffffc2f8485090991507ffffffffffffffffffffffffffffffffffffffffffffffffffffffffefffffc2f6004820485161515860a7ffffffffffffffffffffffffffffffffffffffffffffffffffffffffefffffc2f8485090991507ffffffffffffffffffffffffffffffffffffffffffffffffffffffffefffffc2f6008820485161515860a7ffffffffffffffffffffffffffffffffffffffffffffffffffffffffefffffc2f84850909915060108104905061267a565b81925050505b92915050565b60008060008087036127f95785858592509250925061286f565b60008790506000806000600190505b600084146128615760006001851614612836576128298383838d8d8d612925565b8093508194508295505050505b6002846128439190615441565b93506128508a8a8a613363565b809a50819b50829c50505050612808565b828282965096509650505050505b9450945094915050565b6000806000806000878b036128ec5760007ffffffffffffffffffffffffffffffffffffffffffffffffffffffffefffffc2f806128b9576128b861539c565b5b888c08036128d0576000809450945050505061291a565b6128db8b8b8b613363565b809350819450829550505050612907565b6128fa8b8b8b8b8b8b612925565b8093508194508295505050505b6129128383836137e0565b945094505050505b965096945050505050565b600080600080891480156129395750600088145b1561294c57858585925092509250613357565b60008614801561295c5750600085145b1561296f57888888925092509250613357565b61297761397b565b7ffffffffffffffffffffffffffffffffffffffffffffffffffffffffefffffc2f806129a6576129a561539c565b5b888909816000600481106129bd576129bc614cfc565b5b6020020181815250507ffffffffffffffffffffffffffffffffffffffffffffffffffffffffefffffc2f806129f5576129f461539c565b5b81600060048110612a0957612a08614cfc565b5b6020020151890981600160048110612a2457612a23614cfc565b5b6020020181815250507ffffffffffffffffffffffffffffffffffffffffffffffffffffffffefffffc2f80612a5c57612a5b61539c565b5b85860981600260048110612a7357612a72614cfc565b5b6020020181815250507ffffffffffffffffffffffffffffffffffffffffffffffffffffffffefffffc2f80612aab57612aaa61539c565b5b81600260048110612abf57612abe614cfc565b5b6020020151860981600360048110612ada57612ad9614cfc565b5b60200201818152505060405180608001604052807ffffffffffffffffffffffffffffffffffffffffffffffffffffffffefffffc2f80612b1d57612b1c61539c565b5b83600260048110612b3157612b30614cfc565b5b60200201518d0981526020017ffffffffffffffffffffffffffffffffffffffffffffffffffffffffefffffc2f80612b6c57612b6b61539c565b5b83600360048110612b8057612b7f614cfc565b5b60200201518c0981526020017ffffffffffffffffffffffffffffffffffffffffffffffffffffffffefffffc2f80612bbb57612bba61539c565b5b83600060048110612bcf57612bce614cfc565b5b60200201518a0981526020017ffffffffffffffffffffffffffffffffffffffffffffffffffffffffefffffc2f80612c0a57612c0961539c565b5b83600160048110612c1e57612c1d614cfc565b5b60200201518909815250905080600260048110612c3e57612c3d614cfc565b5b602002015181600060048110612c5757612c56614cfc565b5b6020020151141580612c99575080600360048110612c7857612c77614cfc565b5b602002015181600160048110612c9157612c90614cfc565b5b602002015114155b612cd8576040517f08c379a0000000000000000000000000000000000000000000000000000000008152600401612ccf9061555e565b60405180910390fd5b612ce061397b565b7ffffffffffffffffffffffffffffffffffffffffffffffffffffffffefffffc2f80612d0f57612d0e61539c565b5b82600060048110612d2357612d22614cfc565b5b60200201517ffffffffffffffffffffffffffffffffffffffffffffffffffffffffefffffc2f612d539190615472565b83600260048110612d6757612d66614cfc565b5b60200201510881600060048110612d8157612d80614cfc565b5b6020020181815250507ffffffffffffffffffffffffffffffffffffffffffffffffffffffffefffffc2f80612db957612db861539c565b5b82600160048110612dcd57612dcc614cfc565b5b60200201517ffffffffffffffffffffffffffffffffffffffffffffffffffffffffefffffc2f612dfd9190615472565b83600360048110612e1157612e10614cfc565b5b60200201510881600160048110612e2b57612e2a614cfc565b5b6020020181815250507ffffffffffffffffffffffffffffffffffffffffffffffffffffffffefffffc2f80612e6357612e6261539c565b5b81600060048110612e7757612e76614cfc565b5b602002015182600060048110612e9057612e8f614cfc565b5b60200201510981600260048110612eaa57612ea9614cfc565b5b6020020181815250507ffffffffffffffffffffffffffffffffffffffffffffffffffffffffefffffc2f80612ee257612ee161539c565b5b81600060048110612ef657612ef5614cfc565b5b602002015182600260048110612f0f57612f0e614cfc565b5b60200201510981600360048110612f2957612f28614cfc565b5b60200201818152505060007ffffffffffffffffffffffffffffffffffffffffffffffffffffffffefffffc2f80612f6357612f6261539c565b5b82600360048110612f7757612f76614cfc565b5b60200201517ffffffffffffffffffffffffffffffffffffffffffffffffffffffffefffffc2f612fa79190615472565b7ffffffffffffffffffffffffffffffffffffffffffffffffffffffffefffffc2f80612fd657612fd561539c565b5b84600160048110612fea57612fe9614cfc565b5b60200201518560016004811061300357613002614cfc565b5b6020020151090890507ffffffffffffffffffffffffffffffffffffffffffffffffffffffffefffffc2f8061303b5761303a61539c565b5b7ffffffffffffffffffffffffffffffffffffffffffffffffffffffffefffffc2f8061306a5761306961539c565b5b7ffffffffffffffffffffffffffffffffffffffffffffffffffffffffefffffc2f806130995761309861539c565b5b846002600481106130ad576130ac614cfc565b5b6020020151866000600481106130c6576130c5614cfc565b5b6020020151096002097ffffffffffffffffffffffffffffffffffffffffffffffffffffffffefffffc2f6130fa9190615472565b8208905060007ffffffffffffffffffffffffffffffffffffffffffffffffffffffffefffffc2f8061312f5761312e61539c565b5b7ffffffffffffffffffffffffffffffffffffffffffffffffffffffffefffffc2f8061315e5761315d61539c565b5b837ffffffffffffffffffffffffffffffffffffffffffffffffffffffffefffffc2f61318a9190615472565b7ffffffffffffffffffffffffffffffffffffffffffffffffffffffffefffffc2f806131b9576131b861539c565b5b866002600481106131cd576131cc614cfc565b5b6020020151886000600481106131e6576131e5614cfc565b5b602002015109088460016004811061320157613200614cfc565b5b60200201510990507ffffffffffffffffffffffffffffffffffffffffffffffffffffffffefffffc2f806132385761323761539c565b5b7ffffffffffffffffffffffffffffffffffffffffffffffffffffffffefffffc2f806132675761326661539c565b5b8460036004811061327b5761327a614cfc565b5b60200201518660016004811061329457613293614cfc565b5b6020020151097ffffffffffffffffffffffffffffffffffffffffffffffffffffffffefffffc2f6132c59190615472565b8208905060007ffffffffffffffffffffffffffffffffffffffffffffffffffffffffefffffc2f806132fa576132f961539c565b5b7ffffffffffffffffffffffffffffffffffffffffffffffffffffffffefffffc2f806133295761332861539c565b5b8a8e09856000600481106133405761333f614cfc565b5b602002015109905082828297509750975050505050505b96509650969350505050565b600080600080840361337d578585859250925092506137d7565b60007ffffffffffffffffffffffffffffffffffffffffffffffffffffffffefffffc2f806133ae576133ad61539c565b5b878809905060007ffffffffffffffffffffffffffffffffffffffffffffffffffffffffefffffc2f806133e4576133e361539c565b5b878809905060007ffffffffffffffffffffffffffffffffffffffffffffffffffffffffefffffc2f8061341a5761341961539c565b5b878809905060007ffffffffffffffffffffffffffffffffffffffffffffffffffffffffefffffc2f806134505761344f61539c565b5b7ffffffffffffffffffffffffffffffffffffffffffffffffffffffffefffffc2f8061347f5761347e61539c565b5b848c09600409905060007ffffffffffffffffffffffffffffffffffffffffffffffffffffffffefffffc2f806134b8576134b761539c565b5b7ffffffffffffffffffffffffffffffffffffffffffffffffffffffffefffffc2f806134e7576134e661539c565b5b7ffffffffffffffffffffffffffffffffffffffffffffffffffffffffefffffc2f806135165761351561539c565b5b8586096000097ffffffffffffffffffffffffffffffffffffffffffffffffffffffffefffffc2f8061354b5761354a61539c565b5b876003090890507ffffffffffffffffffffffffffffffffffffffffffffffffffffffffefffffc2f806135815761358061539c565b5b7ffffffffffffffffffffffffffffffffffffffffffffffffffffffffefffffc2f806135b0576135af61539c565b5b8384087ffffffffffffffffffffffffffffffffffffffffffffffffffffffffefffffc2f6135de9190615472565b7ffffffffffffffffffffffffffffffffffffffffffffffffffffffffefffffc2f8061360d5761360c61539c565b5b8384090894507ffffffffffffffffffffffffffffffffffffffffffffffffffffffffefffffc2f806136425761364161539c565b5b7ffffffffffffffffffffffffffffffffffffffffffffffffffffffffefffffc2f806136715761367061539c565b5b7ffffffffffffffffffffffffffffffffffffffffffffffffffffffffefffffc2f806136a05761369f61539c565b5b8687096008097ffffffffffffffffffffffffffffffffffffffffffffffffffffffffefffffc2f6136d19190615472565b7ffffffffffffffffffffffffffffffffffffffffffffffffffffffffefffffc2f80613700576136ff61539c565b5b7ffffffffffffffffffffffffffffffffffffffffffffffffffffffffefffffc2f8061372f5761372e61539c565b5b887ffffffffffffffffffffffffffffffffffffffffffffffffffffffffefffffc2f61375b9190615472565b860884090893507ffffffffffffffffffffffffffffffffffffffffffffffffffffffffefffffc2f806137915761379061539c565b5b7ffffffffffffffffffffffffffffffffffffffffffffffffffffffffefffffc2f806137c0576137bf61539c565b5b8a8c09600209925084848497509750975050505050505b93509350939050565b600080600061380f847ffffffffffffffffffffffffffffffffffffffffffffffffffffffffefffffc2f61253f565b905060007ffffffffffffffffffffffffffffffffffffffffffffffffffffffffefffffc2f806138425761384161539c565b5b828309905060007ffffffffffffffffffffffffffffffffffffffffffffffffffffffffefffffc2f806138785761387761539c565b5b828909905060007ffffffffffffffffffffffffffffffffffffffffffffffffffffffffefffffc2f806138ae576138ad61539c565b5b7ffffffffffffffffffffffffffffffffffffffffffffffffffffffffefffffc2f806138dd576138dc61539c565b5b8486098909905081819550955050505050935093915050565b6040518060a00160405280600073ffffffffffffffffffffffffffffffffffffffff168152602001606081526020016060815260200160608152602001606081525090565b5080546139479061486f565b6000825580601f106139595750613978565b601f016020900490600052602060002090810190613977919061399d565b5b50565b6040518060800160405280600490602082028036833780820191505090505090565b5b808211156139b657600081600090555060010161399e565b5090565b6000604051905090565b600080fd5b600080fd5b600073ffffffffffffffffffffffffffffffffffffffff82169050919050565b60006139f9826139ce565b9050919050565b613a09816139ee565b8114613a1457600080fd5b50565b600081359050613a2681613a00565b92915050565b600060208284031215613a4257613a416139c4565b5b6000613a5084828501613a17565b91505092915050565b613a62816139ee565b82525050565b6000602082019050613a7d6000830184613a59565b92915050565b6000819050919050565b613a9681613a83565b8114613aa157600080fd5b50565b600081359050613ab381613a8d565b92915050565b600060ff82169050919050565b613acf81613ab9565b8114613ada57600080fd5b50565b600081359050613aec81613ac6565b92915050565b600080fd5b600080fd5b6000601f19601f8301169050919050565b7f4e487b7100000000000000000000000000000000000000000000000000000000600052604160045260246000fd5b613b4582613afc565b810181811067ffffffffffffffff82111715613b6457613b63613b0d565b5b80604052505050565b6000613b776139ba565b9050613b838282613b3c565b919050565b600067ffffffffffffffff821115613ba357613ba2613b0d565b5b613bac82613afc565b9050602081019050919050565b82818337600083830152505050565b6000613bdb613bd684613b88565b613b6d565b905082815260208101848484011115613bf757613bf6613af7565b5b613c02848285613bb9565b509392505050565b600082601f830112613c1f57613c1e613af2565b5b8135613c2f848260208601613bc8565b91505092915050565b600080600080600060a08688031215613c5457613c536139c4565b5b6000613c6288828901613aa4565b9550506020613c7388828901613add565b9450506040613c8488828901613aa4565b9350506060613c9588828901613aa4565b925050608086013567ffffffffffffffff811115613cb657613cb56139c9565b5b613cc288828901613c0a565b9150509295509295909350565b60008060008060808587031215613ce957613ce86139c4565b5b6000613cf787828801613aa4565b9450506020613d0887828801613add565b9350506040613d1987828801613aa4565b9250506060613d2a87828801613aa4565b91505092959194509250565b600081519050919050565b600082825260208201905092915050565b6000819050602082019050919050565b613d6b816139ee565b82525050565b600081519050919050565b600082825260208201905092915050565b60005b83811015613dab578082015181840152602081019050613d90565b60008484015250505050565b6000613dc282613d71565b613dcc8185613d7c565b9350613ddc818560208601613d8d565b613de581613afc565b840191505092915050565b600060a083016000830151613e086000860182613d62565b5060208301518482036020860152613e208282613db7565b91505060408301518482036040860152613e3a8282613db7565b91505060608301518482036060860152613e548282613db7565b91505060808301518482036080860152613e6e8282613db7565b9150508091505092915050565b6000613e878383613df0565b905092915050565b6000602082019050919050565b6000613ea782613d36565b613eb18185613d41565b935083602082028501613ec385613d52565b8060005b85811015613eff5784840389528151613ee08582613e7b565b9450613eeb83613e8f565b925060208a01995050600181019050613ec7565b50829750879550505050505092915050565b60006020820190508181036000830152613f2b8184613e9c565b905092915050565b600080600080600080600080610100898b031215613f5457613f536139c4565b5b600089013567ffffffffffffffff811115613f7257613f716139c9565b5b613f7e8b828c01613c0a565b985050602089013567ffffffffffffffff811115613f9f57613f9e6139c9565b5b613fab8b828c01613c0a565b975050604089013567ffffffffffffffff811115613fcc57613fcb6139c9565b5b613fd88b828c01613c0a565b965050606089013567ffffffffffffffff811115613ff957613ff86139c9565b5b6140058b828c01613c0a565b95505060806140168b828c01613aa4565b94505060a06140278b828c01613add565b93505060c06140388b828c01613aa4565b92505060e06140498b828c01613aa4565b9150509295985092959890939650565b600067ffffffffffffffff82111561407457614073613b0d565b5b61407d82613afc565b9050602081019050919050565b600061409d61409884614059565b613b6d565b9050828152602081018484840111156140b9576140b8613af7565b5b6140c4848285613bb9565b509392505050565b600082601f8301126140e1576140e0613af2565b5b81356140f184826020860161408a565b91505092915050565b60008060408385031215614111576141106139c4565b5b600083013567ffffffffffffffff81111561412f5761412e6139c9565b5b61413b85828601613c0a565b925050602083013567ffffffffffffffff81111561415c5761415b6139c9565b5b614168858286016140cc565b9150509250929050565b600081519050919050565b600082825260208201905092915050565b6000819050602082019050919050565b60006141aa8383613d62565b60208301905092915050565b6000602082019050919050565b60006141ce82614172565b6141d8818561417d565b93506141e38361418e565b8060005b838110156142145781516141fb888261419e565b9750614206836141b6565b9250506001810190506141e7565b5085935050505092915050565b6000604082019050818103600083015261423b81856141c3565b9050818103602083015261424f81846141c3565b90509392505050565b600081519050919050565b600082825260208201905092915050565b6000819050602082019050919050565b600060a08301600083015184820360008601526142a18282613db7565b915050602083015184820360208601526142bb8282613db7565b915050604083015184820360408601526142d58282613db7565b915050606083015184820360608601526142ef8282613db7565b91505060808301516143046080860182613d62565b508091505092915050565b600061431b8383614284565b905092915050565b6000602082019050919050565b600061433b82614258565b6143458185614263565b93508360208202850161435785614274565b8060005b858110156143935784840389528151614374858261430f565b945061437f83614323565b925060208a0199505060018101905061435b565b50829750879550505050505092915050565b600060208201905081810360008301526143bf8184614330565b905092915050565b60008060008060008060c087890312156143e4576143e36139c4565b5b600087013567ffffffffffffffff811115614402576144016139c9565b5b61440e89828a01613c0a565b965050602061441f89828a01613aa4565b955050604061443089828a01613add565b945050606061444189828a01613aa4565b935050608061445289828a01613aa4565b92505060a087013567ffffffffffffffff811115614473576144726139c9565b5b61447f89828a016140cc565b9150509295509295509295565b60008060008060008060008060006101208a8c0312156144af576144ae6139c4565b5b60006144bd8c828d01613aa4565b99505060206144ce8c828d01613add565b98505060406144df8c828d01613aa4565b97505060606144f08c828d01613aa4565b96505060806145018c828d01613a17565b95505060a08a013567ffffffffffffffff811115614522576145216139c9565b5b61452e8c828d01613c0a565b94505060c08a013567ffffffffffffffff81111561454f5761454e6139c9565b5b61455b8c828d01613c0a565b93505060e08a013567ffffffffffffffff81111561457c5761457b6139c9565b5b6145888c828d01613c0a565b9250506101008a013567ffffffffffffffff8111156145aa576145a96139c9565b5b6145b68c828d01613c0a565b9150509295985092959850929598565b600081519050919050565b600082825260208201905092915050565b60006145ed826145c6565b6145f781856145d1565b9350614607818560208601613d8d565b61461081613afc565b840191505092915050565b6000602082019050818103600083015261463581846145e2565b905092915050565b600082825260208201905092915050565b7f646f6573206e6f74206578697374000000000000000000000000000000000000600082015250565b6000614684600e8361463d565b915061468f8261464e565b602082019050919050565b600060208201905081810360008301526146b381614677565b9050919050565b60006146c582613d71565b6146cf818561463d565b93506146df818560208601613d8d565b6146e881613afc565b840191505092915050565b6000602082019050818103600083015261470d81846146ba565b905092915050565b7f4552523639310000000000000000000000000000000000000000000000000000600082015250565b600061474b60068361463d565b915061475682614715565b602082019050919050565b6000602082019050818103600083015261477a8161473e565b9050919050565b600081905092915050565b600061479782613d71565b6147a18185614781565b93506147b1818560208601613d8d565b80840191505092915050565b60006147c9828461478c565b915081905092915050565b7f4552523231340000000000000000000000000000000000000000000000000000600082015250565b600061480a60068361463d565b9150614815826147d4565b602082019050919050565b60006020820190508181036000830152614839816147fd565b9050919050565b7f4e487b7100000000000000000000000000000000000000000000000000000000600052602260045260246000fd5b6000600282049050600182168061488757607f821691505b60208210810361489a57614899614840565b5b50919050565b600060a08201905081810360008301526148ba81886146ba565b905081810360208301526148ce81876146ba565b905081810360408301526148e281866146ba565b905081810360608301526148f681856146ba565b90506149056080830184613a59565b9695505050505050565b6000608082019050818103600083015261492981876146ba565b9050818103602083015261493d81866146ba565b9050818103604083015261495181856146ba565b9050818103606083015261496581846146ba565b905095945050505050565b60006040820190506149856000830185613a59565b818103602083015261499781846146ba565b90509392505050565b6000815190506149af81613a00565b92915050565b6000602082840312156149cb576149ca6139c4565b5b60006149d9848285016149a0565b91505092915050565b60008190508160005260206000209050919050565b60006020601f8301049050919050565b600082821b905092915050565b600060088302614a447fffffffffffffffffffffffffffffffffffffffffffffffffffffffffffffffff82614a07565b614a4e8683614a07565b95508019841693508086168417925050509392505050565b6000819050919050565b6000819050919050565b6000614a95614a90614a8b84614a66565b614a70565b614a66565b9050919050565b6000819050919050565b614aaf83614a7a565b614ac3614abb82614a9c565b848454614a14565b825550505050565b600090565b614ad8614acb565b614ae3818484614aa6565b505050565b5b81811015614b0757614afc600082614ad0565b600181019050614ae9565b5050565b601f821115614b4c57614b1d816149e2565b614b26846149f7565b81016020851015614b35578190505b614b49614b41856149f7565b830182614ae8565b50505b505050565b600082821c905092915050565b6000614b6f60001984600802614b51565b1980831691505092915050565b6000614b888383614b5e565b9150826002028217905092915050565b614ba1826145c6565b67ffffffffffffffff811115614bba57614bb9613b0d565b5b614bc4825461486f565b614bcf828285614b0b565b600060209050601f831160018114614c025760008415614bf0578287015190505b614bfa8582614b7c565b865550614c62565b601f198416614c10866149e2565b60005b82811015614c3857848901518255600182019150602085019450602081019050614c13565b86831015614c555784890151614c51601f891682614b5e565b8355505b6001600288020188555050505b505050505050565b7f4f776e61626c65236f6e6c794f776e65724f7243726561746f723a2053454e4460008201527f45525f49535f4e4f545f4f574e45525f4f525f43524541544f52000000000000602082015250565b6000614cc6603a8361463d565b9150614cd182614c6a565b604082019050919050565b60006020820190508181036000830152614cf581614cb9565b9050919050565b7f4e487b7100000000000000000000000000000000000000000000000000000000600052603260045260246000fd5b600067ffffffffffffffff821115614d4657614d45613b0d565b5b602082029050602081019050919050565b600080fd5b600080fd5b600080fd5b6000614d79614d7484613b88565b613b6d565b905082815260208101848484011115614d9557614d94613af7565b5b614da0848285613d8d565b509392505050565b600082601f830112614dbd57614dbc613af2565b5b8151614dcd848260208601614d66565b91505092915050565b600060a08284031215614dec57614deb614d5c565b5b614df660a0613b6d565b9050600082015167ffffffffffffffff811115614e1657614e15614d61565b5b614e2284828501614da8565b600083015250602082015167ffffffffffffffff811115614e4657614e45614d61565b5b614e5284828501614da8565b602083015250604082015167ffffffffffffffff811115614e7657614e75614d61565b5b614e8284828501614da8565b604083015250606082015167ffffffffffffffff811115614ea657614ea5614d61565b5b614eb284828501614da8565b6060830152506080614ec6848285016149a0565b60808301525092915050565b6000614ee5614ee084614d2b565b613b6d565b90508083825260208201905060208402830185811115614f0857614f07614d57565b5b835b81811015614f4f57805167ffffffffffffffff811115614f2d57614f2c613af2565b5b808601614f3a8982614dd6565b85526020850194505050602081019050614f0a565b5050509392505050565b600082601f830112614f6e57614f6d613af2565b5b8151614f7e848260208601614ed2565b91505092915050565b600060208284031215614f9d57614f9c6139c4565b5b600082015167ffffffffffffffff811115614fbb57614fba6139c9565b5b614fc784828501614f59565b91505092915050565b600081905092915050565b6000614fe6826145c6565b614ff08185614fd0565b9350615000818560208601613d8d565b80840191505092915050565b6000819050919050565b61502761502282613a83565b61500c565b82525050565b60006150398285614fdb565b91506150458284615016565b6020820191508190509392505050565b61505e81613a83565b82525050565b61506d81613ab9565b82525050565b60006080820190506150886000830187615055565b6150956020830186615064565b6150a26040830185615055565b6150af6060830184615055565b95945050505050565b60008190508160005260206000209050919050565b600081546150da8161486f565b6150e48186614781565b945060018216600081146150ff576001811461511457615147565b60ff1983168652811515820286019350615147565b61511d856150b8565b60005b8381101561513f57815481890152600182019150602081019050615120565b838801955050505b50505092915050565b600061515c82846150cd565b915081905092915050565b7f4e487b7100000000000000000000000000000000000000000000000000000000600052601160045260246000fd5b60006151a182613ab9565b91506151ac83613ab9565b9250828203905060ff8111156151c5576151c4615167565b5b92915050565b6000819050919050565b6151e66151e182614a66565b6151cb565b82525050565b60006151f882856151d5565b60208201915061520882846151d5565b6020820191508190509392505050565b7f5352414578697374730000000000000000000000000000000000000000000000600082015250565b600061524e60098361463d565b915061525982615218565b602082019050919050565b6000602082019050818103600083015261527d81615241565b9050919050565b601f8211156152c557615296816150b8565b61529f846149f7565b810160208510156152ae578190505b6152c26152ba856149f7565b830182614ae8565b50505b505050565b6152d382613d71565b67ffffffffffffffff8111156152ec576152eb613b0d565b5b6152f6825461486f565b615301828285615284565b600060209050601f8311600181146153345760008415615322578287015190505b61532c8582614b7c565b865550615394565b601f198416615342866150b8565b60005b8281101561536a57848901518255600182019150602085019450602081019050615345565b868310156153875784890151615383601f891682614b5e565b8355505b6001600288020188555050505b505050505050565b7f4e487b7100000000000000000000000000000000000000000000000000000000600052601260045260246000fd5b60006153d682614a66565b91506153e183614a66565b92508282026153ef81614a66565b9150828204841483151761540657615405615167565b5b5092915050565b600061541882614a66565b915061542383614a66565b925082820190508082111561543b5761543a615167565b5b92915050565b600061544c82614a66565b915061545783614a66565b9250826154675761546661539c565b5b828204905092915050565b600061547d82614a66565b915061548883614a66565b92508282039050818111156154a05761549f615167565b5b92915050565b7f496e76616c6964206e756d626572000000000000000000000000000000000000600082015250565b60006154dc600e8361463d565b91506154e7826154a6565b602082019050919050565b6000602082019050818103600083015261550b816154cf565b9050919050565b7f557365206a6163446f75626c652066756e6374696f6e20696e73746561640000600082015250565b6000615548601e8361463d565b915061555382615512565b602082019050919050565b600060208201905081810360008301526155778161553b565b905091905056fea2646970667358221220c9f1c2868a5c3164b4547fccbfa0d5a3c63c68f6147559dbb8f8e4188871cdb064736f6c63430008180033",
  "linkReferences": {},
  "deployedLinkReferences": {}
}