{
  "contractName": "PeerSafeDeployer",
  "abi": [
    {
      "inputs": [],
      "stateMutability": "nonpayable",
      "type": "constructor"
    },
    {
      "anonymous": false,
      "inputs": [
        {
          "indexed": true,
          "internalType": "address",
          "name": "previousOwner",
          "type": "address"
        },
        {
          "indexed": true,
          "internalType": "address",
          "name": "newOwner",
          "type": "address"
        }
      ],
      "name": "OwnershipTransferred",
      "type": "event"
    },
    {
      "inputs": [],
      "name": "getCreator",
      "outputs": [
        {
          "internalType": "address",
          "name": "",
          "type": "address"
        }
      ],
      "stateMutability": "view",
      "type": "function",
      "constant": true
    },
    {
      "inputs": [],
      "name": "getOwner",
      "outputs": [
        {
          "internalType": "address",
          "name": "",
          "type": "address"
        }
      ],
      "stateMutability": "view",
      "type": "function",
      "constant": true
    },
    {
      "inputs": [
        {
          "internalType": "address",
          "name": "_vaultOwner",
          "type": "address"
        }
      ],
      "name": "getVault",
      "outputs": [
        {
          "internalType": "address",
          "name": "",
          "type": "address"
        }
      ],
      "stateMutability": "view",
      "type": "function",
      "constant": true
    },
    {
      "inputs": [
        {
          "internalType": "string",
          "name": "_userName",
          "type": "string"
        },
        {
          "internalType": "bytes32",
          "name": "_hashedMessage",
          "type": "bytes32"
        },
        {
          "internalType": "uint8",
          "name": "_v",
          "type": "uint8"
        },
        {
          "internalType": "bytes32",
          "name": "_r",
          "type": "bytes32"
        },
        {
          "internalType": "bytes32",
          "name": "_s",
          "type": "bytes32"
        }
      ],
      "name": "deploy",
      "outputs": [
        {
          "internalType": "address",
          "name": "",
          "type": "address"
        }
      ],
      "stateMutability": "nonpayable",
      "type": "function"
    },
    {
      "inputs": [
        {
          "internalType": "string",
          "name": "name",
          "type": "string"
        },
        {
          "internalType": "string",
          "name": "fileType",
          "type": "string"
        },
        {
          "internalType": "string",
          "name": "ipfsHash",
          "type": "string"
        },
        {
          "internalType": "string",
          "name": "key",
          "type": "string"
        },
        {
          "internalType": "bytes32",
          "name": "_hashedMessage",
          "type": "bytes32"
        },
        {
          "internalType": "uint8",
          "name": "_v",
          "type": "uint8"
        },
        {
          "internalType": "bytes32",
          "name": "_r",
          "type": "bytes32"
        },
        {
          "internalType": "bytes32",
          "name": "_s",
          "type": "bytes32"
        }
      ],
      "name": "createFile",
      "outputs": [],
      "stateMutability": "nonpayable",
      "type": "function"
    },
    {
      "inputs": [
        {
          "internalType": "bytes32",
          "name": "_hashedMessage",
          "type": "bytes32"
        },
        {
          "internalType": "uint8",
          "name": "_v",
          "type": "uint8"
        },
        {
          "internalType": "bytes32",
          "name": "_r",
          "type": "bytes32"
        },
        {
          "internalType": "bytes32",
          "name": "_s",
          "type": "bytes32"
        }
      ],
      "name": "getAllFiles",
      "outputs": [
        {
          "components": [
            {
              "internalType": "string",
              "name": "_name",
              "type": "string"
            },
            {
              "internalType": "string",
              "name": "_fileType",
              "type": "string"
            },
            {
              "internalType": "string",
              "name": "_ipfsHash",
              "type": "string"
            },
            {
              "internalType": "string",
              "name": "_key",
              "type": "string"
            }
          ],
          "internalType": "struct File[]",
          "name": "",
          "type": "tuple[]"
        }
      ],
      "stateMutability": "view",
      "type": "function",
      "constant": true
    },
    {
      "inputs": [
        {
          "internalType": "bytes32",
          "name": "_hashedMessage",
          "type": "bytes32"
        },
        {
          "internalType": "uint8",
          "name": "_v",
          "type": "uint8"
        },
        {
          "internalType": "bytes32",
          "name": "_r",
          "type": "bytes32"
        },
        {
          "internalType": "bytes32",
          "name": "_s",
          "type": "bytes32"
        },
        {
          "internalType": "uint256",
          "name": "index",
          "type": "uint256"
        }
      ],
      "name": "deleteFile",
      "outputs": [],
      "stateMutability": "nonpayable",
      "type": "function"
    },
    {
      "inputs": [],
      "name": "adminAllVaults",
      "outputs": [
        {
          "internalType": "address[]",
          "name": "",
          "type": "address[]"
        },
        {
          "internalType": "contract Vault[]",
          "name": "",
          "type": "address[]"
        }
      ],
      "stateMutability": "view",
      "type": "function",
      "constant": true
    },
    {
      "inputs": [
        {
          "internalType": "bytes32",
          "name": "_hashedMessage",
          "type": "bytes32"
        },
        {
          "internalType": "uint8",
          "name": "_v",
          "type": "uint8"
        },
        {
          "internalType": "bytes32",
          "name": "_r",
          "type": "bytes32"
        },
        {
          "internalType": "bytes32",
          "name": "_s",
          "type": "bytes32"
        },
        {
          "internalType": "address[]",
          "name": "_users",
          "type": "address[]"
        },
        {
          "internalType": "address[]",
          "name": "_oldVaults",
          "type": "address[]"
        }
      ],
      "name": "adminMigrate",
      "outputs": [],
      "stateMutability": "nonpayable",
      "type": "function"
    }
  ],
  "bytecode": "0x608060405234801561001057600080fd5b503333806000806101000a81548173ffffffffffffffffffffffffffffffffffffffff021916908373ffffffffffffffffffffffffffffffffffffffff16021790555081600160006101000a81548173ffffffffffffffffffffffffffffffffffffffff021916908373ffffffffffffffffffffffffffffffffffffffff1602179055508073ffffffffffffffffffffffffffffffffffffffff16600073ffffffffffffffffffffffffffffffffffffffff167f8be0079c531659141344cd1fd0a4f28419497f9722a3daafe3b4186f6b6457e060405160405180910390a35050613ee2806101006000396000f3fe60806040523480156200001157600080fd5b5060043610620000a05760003560e01c8063b1a81bd5116200006f578063b1a81bd51462000155578063c04721971462000175578063d8b63c8a1462000195578063e04e028314620001b8578063fe3f401014620001ee57620000a0565b80630eb9af3814620000a55780630ee2cb1014620000db578063893d20e814620000fd5780639d6944c2146200011f575b600080fd5b620000c36004803603810190620000bd9190620012c6565b6200020e565b604051620000d2919062001b65565b60405180910390f35b620000e5620002ef565b604051620000f4919062001b65565b60405180910390f35b6200010762000319565b60405162000116919062001b65565b60405180910390f35b6200013d600480360381019062000137919062001532565b62000342565b6040516200014c919062001b65565b60405180910390f35b6200017360048036038101906200016d9190620015cd565b62000441565b005b6200019360048036038101906200018d91906200146b565b62000538565b005b6200019f62000626565b604051620001af92919062001bb6565b60405180910390f35b620001d66004803603810190620001d0919062001337565b6200090c565b604051620001e5919062001bf1565b60405180910390f35b6200020c6004803603810190620002069190620013a3565b62000a17565b005b600080600260008473ffffffffffffffffffffffffffffffffffffffff1673ffffffffffffffffffffffffffffffffffffffff16815260200190815260200160002060009054906101000a900473ffffffffffffffffffffffffffffffffffffffff169050600073ffffffffffffffffffffffffffffffffffffffff168173ffffffffffffffffffffffffffffffffffffffff161415620002e6576040517f08c379a0000000000000000000000000000000000000000000000000000000008152600401620002dd9062001d2f565b60405180910390fd5b80915050919050565b6000600160009054906101000a900473ffffffffffffffffffffffffffffffffffffffff16905090565b60008060009054906101000a900473ffffffffffffffffffffffffffffffffffffffff16905090565b600080620003538686868662000e99565b905060008060009054906101000a900473ffffffffffffffffffffffffffffffffffffffff1688604051620003889062000f61565b6200039592919062001b82565b604051809103906000f080158015620003b2573d6000803e3d6000fd5b50905080600260008473ffffffffffffffffffffffffffffffffffffffff1673ffffffffffffffffffffffffffffffffffffffff16815260200190815260200160002060006101000a81548173ffffffffffffffffffffffffffffffffffffffff021916908373ffffffffffffffffffffffffffffffffffffffff160217905550809250505095945050505050565b6000620004518585858562000e99565b90506000600260008373ffffffffffffffffffffffffffffffffffffffff1673ffffffffffffffffffffffffffffffffffffffff16815260200190815260200160002060009054906101000a900473ffffffffffffffffffffffffffffffffffffffff1690508073ffffffffffffffffffffffffffffffffffffffff1663d590e7ef8b8b8b8b6040518563ffffffff1660e01b8152600401620004f8949392919062001cc6565b600060405180830381600087803b1580156200051357600080fd5b505af115801562000528573d6000803e3d6000fd5b5050505050505050505050505050565b6000620005488686868662000e99565b90506000600260008373ffffffffffffffffffffffffffffffffffffffff1673ffffffffffffffffffffffffffffffffffffffff16815260200190815260200160002060009054906101000a900473ffffffffffffffffffffffffffffffffffffffff1690508073ffffffffffffffffffffffffffffffffffffffff1663c5b42006846040518263ffffffff1660e01b8152600401620005e9919062001d95565b600060405180830381600087803b1580156200060457600080fd5b505af115801562000619573d6000803e3d6000fd5b5050505050505050505050565b60608060008054906101000a900473ffffffffffffffffffffffffffffffffffffffff1673ffffffffffffffffffffffffffffffffffffffff163373ffffffffffffffffffffffffffffffffffffffff161480620006d15750600160009054906101000a900473ffffffffffffffffffffffffffffffffffffffff1673ffffffffffffffffffffffffffffffffffffffff163373ffffffffffffffffffffffffffffffffffffffff16145b62000713576040517f08c379a00000000000000000000000000000000000000000000000000000000081526004016200070a9062001d51565b60405180910390fd5b606060005b6003805490508110156200087557600260006003838154811062000765577f4e487b7100000000000000000000000000000000000000000000000000000000600052603260045260246000fd5b9060005260206000200160009054906101000a900473ffffffffffffffffffffffffffffffffffffffff1673ffffffffffffffffffffffffffffffffffffffff1673ffffffffffffffffffffffffffffffffffffffff16815260200190815260200160002060009054906101000a900473ffffffffffffffffffffffffffffffffffffffff1682828151811062000825577f4e487b7100000000000000000000000000000000000000000000000000000000600052603260045260246000fd5b602002602001019073ffffffffffffffffffffffffffffffffffffffff16908173ffffffffffffffffffffffffffffffffffffffff168152505080806200086c9062002016565b91505062000718565b5060038181805480602002602001604051908101604052809291908181526020018280548015620008fc57602002820191906000526020600020905b8160009054906101000a900473ffffffffffffffffffffffffffffffffffffffff1673ffffffffffffffffffffffffffffffffffffffff1681526020019060010190808311620008b1575b5050505050915092509250509091565b606060006200091e8686868662000e99565b90506000600260008373ffffffffffffffffffffffffffffffffffffffff1673ffffffffffffffffffffffffffffffffffffffff16815260200190815260200160002060009054906101000a900473ffffffffffffffffffffffffffffffffffffffff1690508073ffffffffffffffffffffffffffffffffffffffff1663ff24b5d56040518163ffffffff1660e01b815260040160006040518083038186803b158015620009cb57600080fd5b505afa158015620009e0573d6000803e3d6000fd5b505050506040513d6000823e3d601f19601f8201168201806040525081019062000a0b9190620012f2565b92505050949350505050565b60008054906101000a900473ffffffffffffffffffffffffffffffffffffffff1673ffffffffffffffffffffffffffffffffffffffff163373ffffffffffffffffffffffffffffffffffffffff16148062000abf5750600160009054906101000a900473ffffffffffffffffffffffffffffffffffffffff1673ffffffffffffffffffffffffffffffffffffffff163373ffffffffffffffffffffffffffffffffffffffff16145b62000b01576040517f08c379a000000000000000000000000000000000000000000000000000000000815260040162000af89062001d51565b60405180910390fd5b805182511462000b48576040517f08c379a000000000000000000000000000000000000000000000000000000000815260040162000b3f9062001d73565b60405180910390fd5b60005b825181101562000e905760008060009054906101000a900473ffffffffffffffffffffffffffffffffffffffff1683838151811062000bb3577f4e487b7100000000000000000000000000000000000000000000000000000000600052603260045260246000fd5b602002602001015173ffffffffffffffffffffffffffffffffffffffff16634f8632ba6040518163ffffffff1660e01b815260040160006040518083038186803b15801562000c0157600080fd5b505afa15801562000c16573d6000803e3d6000fd5b505050506040513d6000823e3d601f19601f8201168201806040525081019062000c419190620014ed565b60405162000c4f9062000f61565b62000c5c92919062001b82565b604051809103906000f08015801562000c79573d6000803e3d6000fd5b509050806002600086858151811062000cbb577f4e487b7100000000000000000000000000000000000000000000000000000000600052603260045260246000fd5b602002602001015173ffffffffffffffffffffffffffffffffffffffff1673ffffffffffffffffffffffffffffffffffffffff16815260200190815260200160002060006101000a81548173ffffffffffffffffffffffffffffffffffffffff021916908373ffffffffffffffffffffffffffffffffffffffff1602179055508073ffffffffffffffffffffffffffffffffffffffff16631dd09eb08989898988888151811062000d95577f4e487b7100000000000000000000000000000000000000000000000000000000600052603260045260246000fd5b602002602001015173ffffffffffffffffffffffffffffffffffffffff1663ff24b5d56040518163ffffffff1660e01b815260040160006040518083038186803b15801562000de357600080fd5b505afa15801562000df8573d6000803e3d6000fd5b505050506040513d6000823e3d601f19601f8201168201806040525081019062000e239190620012f2565b6040518663ffffffff1660e01b815260040162000e4595949392919062001c62565b600060405180830381600087803b15801562000e6057600080fd5b505af115801562000e75573d6000803e3d6000fd5b5050505050808062000e879062002016565b91505062000b4b565b50505050505050565b6000806040518060400160405280601c81526020017f19457468657265756d205369676e6564204d6573736167653a0a33320000000081525090506000818760405160200162000eeb92919062001b39565b6040516020818303038152906040528051906020012090506001818787876040516000815260200160405260405162000f28949392919062001c15565b6020604051602081039080840390855afa15801562000f4b573d6000803e3d6000fd5b5050506020604051035192505050949350505050565b611d67806200214683390190565b600062000f8662000f808462001de6565b62001db2565b9050808382526020820190508285602086028201111562000fa657600080fd5b60005b8581101562000fda578162000fbf8882620010d3565b84526020840193506020830192505060018101905062000fa9565b5050509392505050565b600062000ffb62000ff58462001e15565b62001db2565b9050808382526020820190508260005b858110156200103f5781518501620010248882620011b5565b8452602084019350602083019250506001810190506200100b565b5050509392505050565b6000620010606200105a8462001e44565b62001db2565b9050828152602081018484840111156200107957600080fd5b6200108684828562001fd1565b509392505050565b6000620010a56200109f8462001e44565b62001db2565b905082815260208101848484011115620010be57600080fd5b620010cb84828562001fe0565b509392505050565b600081359050620010e481620020dd565b92915050565b600082601f830112620010fc57600080fd5b81356200110e84826020860162000f6f565b91505092915050565b600082601f8301126200112957600080fd5b81516200113b84826020860162000fe4565b91505092915050565b6000813590506200115581620020f7565b92915050565b600082601f8301126200116d57600080fd5b81356200117f84826020860162001049565b91505092915050565b600082601f8301126200119a57600080fd5b8151620011ac8482602086016200108e565b91505092915050565b600060808284031215620011c857600080fd5b620011d4608062001db2565b9050600082015167ffffffffffffffff811115620011f157600080fd5b620011ff8482850162001188565b600083015250602082015167ffffffffffffffff8111156200122057600080fd5b6200122e8482850162001188565b602083015250604082015167ffffffffffffffff8111156200124f57600080fd5b6200125d8482850162001188565b604083015250606082015167ffffffffffffffff8111156200127e57600080fd5b6200128c8482850162001188565b60608301525092915050565b600081359050620012a98162002111565b92915050565b600081359050620012c0816200212b565b92915050565b600060208284031215620012d957600080fd5b6000620012e984828501620010d3565b91505092915050565b6000602082840312156200130557600080fd5b600082015167ffffffffffffffff8111156200132057600080fd5b6200132e8482850162001117565b91505092915050565b600080600080608085870312156200134e57600080fd5b60006200135e8782880162001144565b94505060206200137187828801620012af565b9350506040620013848782880162001144565b9250506060620013978782880162001144565b91505092959194509250565b60008060008060008060c08789031215620013bd57600080fd5b6000620013cd89828a0162001144565b9650506020620013e089828a01620012af565b9550506040620013f389828a0162001144565b94505060606200140689828a0162001144565b935050608087013567ffffffffffffffff8111156200142457600080fd5b6200143289828a01620010ea565b92505060a087013567ffffffffffffffff8111156200145057600080fd5b6200145e89828a01620010ea565b9150509295509295509295565b600080600080600060a086880312156200148457600080fd5b6000620014948882890162001144565b9550506020620014a788828901620012af565b9450506040620014ba8882890162001144565b9350506060620014cd8882890162001144565b9250506080620014e08882890162001298565b9150509295509295909350565b6000602082840312156200150057600080fd5b600082015167ffffffffffffffff8111156200151b57600080fd5b620015298482850162001188565b91505092915050565b600080600080600060a086880312156200154b57600080fd5b600086013567ffffffffffffffff8111156200156657600080fd5b62001574888289016200115b565b9550506020620015878882890162001144565b94505060406200159a88828901620012af565b9350506060620015ad8882890162001144565b9250506080620015c08882890162001144565b9150509295509295909350565b600080600080600080600080610100898b031215620015eb57600080fd5b600089013567ffffffffffffffff8111156200160657600080fd5b620016148b828c016200115b565b985050602089013567ffffffffffffffff8111156200163257600080fd5b620016408b828c016200115b565b975050604089013567ffffffffffffffff8111156200165e57600080fd5b6200166c8b828c016200115b565b965050606089013567ffffffffffffffff8111156200168a57600080fd5b620016988b828c016200115b565b9550506080620016ab8b828c0162001144565b94505060a0620016be8b828c01620012af565b93505060c0620016d18b828c0162001144565b92505060e0620016e48b828c0162001144565b9150509295985092959890939650565b60006200170283836200173e565b60208301905092915050565b60006200171c838362001918565b60208301905092915050565b600062001736838362001a97565b905092915050565b620017498162001f54565b82525050565b6200175a8162001f54565b82525050565b60006200176d8262001ea7565b62001779818562001f05565b9350620017868362001e77565b8060005b83811015620017bd578151620017a18882620016f4565b9750620017ae8362001ede565b9250506001810190506200178a565b5085935050505092915050565b6000620017d78262001eb2565b620017e3818562001f05565b9350620017f08362001e87565b8060005b83811015620018275781516200180b88826200170e565b9750620018188362001eeb565b925050600181019050620017f4565b5085935050505092915050565b6000620018418262001ebd565b6200184d818562001f16565b935083602082028501620018618562001e97565b8060005b85811015620018a3578484038952815162001881858262001728565b94506200188e8362001ef8565b925060208a0199505060018101905062001865565b50829750879550505050505092915050565b620018c08162001f68565b82525050565b620018db620018d58262001f68565b62002064565b82525050565b6000620018ee8262001ec8565b620018fa818562001f27565b93506200190c81856020860162001fe0565b80840191505092915050565b620019238162001fa9565b82525050565b6000620019368262001ed3565b62001942818562001f32565b93506200195481856020860162001fe0565b6200195f81620020cc565b840191505092915050565b6000620019778262001ed3565b62001983818562001f43565b93506200199581856020860162001fe0565b620019a081620020cc565b840191505092915050565b6000620019ba600e8362001f43565b91507f646f6573206e6f742065786973740000000000000000000000000000000000006000830152602082019050919050565b6000620019fc603a8362001f43565b91507f4f776e61626c65236f6e6c794f776e65724f7243726561746f723a2053454e4460008301527f45525f49535f4e4f545f4f574e45525f4f525f43524541544f520000000000006020830152604082019050919050565b600062001a6460168362001f43565b91507f6c656e6774682073686f756c6420626520657175616c000000000000000000006000830152602082019050919050565b6000608083016000830151848203600086015262001ab6828262001929565b9150506020830151848203602086015262001ad2828262001929565b9150506040830151848203604086015262001aee828262001929565b9150506060830151848203606086015262001b0a828262001929565b9150508091505092915050565b62001b228162001f92565b82525050565b62001b338162001f9c565b82525050565b600062001b478285620018e1565b915062001b558284620018c6565b6020820191508190509392505050565b600060208201905062001b7c60008301846200174f565b92915050565b600060408201905062001b9960008301856200174f565b818103602083015262001bad81846200196a565b90509392505050565b6000604082019050818103600083015262001bd2818562001760565b9050818103602083015262001be88184620017ca565b90509392505050565b6000602082019050818103600083015262001c0d818462001834565b905092915050565b600060808201905062001c2c6000830187620018b5565b62001c3b602083018662001b28565b62001c4a6040830185620018b5565b62001c596060830184620018b5565b95945050505050565b600060a08201905062001c796000830188620018b5565b62001c88602083018762001b28565b62001c976040830186620018b5565b62001ca66060830185620018b5565b818103608083015262001cba818462001834565b90509695505050505050565b6000608082019050818103600083015262001ce281876200196a565b9050818103602083015262001cf881866200196a565b9050818103604083015262001d0e81856200196a565b9050818103606083015262001d2481846200196a565b905095945050505050565b6000602082019050818103600083015262001d4a81620019ab565b9050919050565b6000602082019050818103600083015262001d6c81620019ed565b9050919050565b6000602082019050818103600083015262001d8e8162001a55565b9050919050565b600060208201905062001dac600083018462001b17565b92915050565b6000604051905081810181811067ffffffffffffffff8211171562001ddc5762001ddb6200209d565b5b8060405250919050565b600067ffffffffffffffff82111562001e045762001e036200209d565b5b602082029050602081019050919050565b600067ffffffffffffffff82111562001e335762001e326200209d565b5b602082029050602081019050919050565b600067ffffffffffffffff82111562001e625762001e616200209d565b5b601f19601f8301169050602081019050919050565b6000819050602082019050919050565b6000819050602082019050919050565b6000819050602082019050919050565b600081519050919050565b600081519050919050565b600081519050919050565b600081519050919050565b600081519050919050565b6000602082019050919050565b6000602082019050919050565b6000602082019050919050565b600082825260208201905092915050565b600082825260208201905092915050565b600081905092915050565b600082825260208201905092915050565b600082825260208201905092915050565b600062001f618262001f72565b9050919050565b6000819050919050565b600073ffffffffffffffffffffffffffffffffffffffff82169050919050565b6000819050919050565b600060ff82169050919050565b600062001fb68262001fbd565b9050919050565b600062001fca8262001f72565b9050919050565b82818337600083830152505050565b60005b838110156200200057808201518184015260208101905062001fe3565b8381111562002010576000848401525b50505050565b6000620020238262001f92565b91507fffffffffffffffffffffffffffffffffffffffffffffffffffffffffffffffff8214156200205957620020586200206e565b5b600182019050919050565b6000819050919050565b7f4e487b7100000000000000000000000000000000000000000000000000000000600052601160045260246000fd5b7f4e487b7100000000000000000000000000000000000000000000000000000000600052604160045260246000fd5b6000601f19601f8301169050919050565b620020e88162001f54565b8114620020f457600080fd5b50565b620021028162001f68565b81146200210e57600080fd5b50565b6200211c8162001f92565b81146200212857600080fd5b50565b620021368162001f9c565b81146200214257600080fd5b5056fe60806040523480156200001157600080fd5b5060405162001d6738038062001d67833981810160405281019062000037919062000271565b3382806000806101000a81548173ffffffffffffffffffffffffffffffffffffffff021916908373ffffffffffffffffffffffffffffffffffffffff16021790555081600160006101000a81548173ffffffffffffffffffffffffffffffffffffffff021916908373ffffffffffffffffffffffffffffffffffffffff1602179055508073ffffffffffffffffffffffffffffffffffffffff16600073ffffffffffffffffffffffffffffffffffffffff167f8be0079c531659141344cd1fd0a4f28419497f9722a3daafe3b4186f6b6457e060405160405180910390a3505080600290805190602001906200012f92919062000138565b5050506200044a565b82805462000146906200039c565b90600052602060002090601f0160209004810192826200016a5760008555620001b6565b82601f106200018557805160ff1916838001178555620001b6565b82800160010185558215620001b6579182015b82811115620001b557825182559160200191906001019062000198565b5b509050620001c59190620001c9565b5090565b5b80821115620001e4576000816000905550600101620001ca565b5090565b6000620001ff620001f984620002ff565b620002cb565b9050828152602081018484840111156200021857600080fd5b6200022584828562000366565b509392505050565b6000815190506200023e8162000430565b92915050565b600082601f8301126200025657600080fd5b815162000268848260208601620001e8565b91505092915050565b600080604083850312156200028557600080fd5b600062000295858286016200022d565b925050602083015167ffffffffffffffff811115620002b357600080fd5b620002c18582860162000244565b9150509250929050565b6000604051905081810181811067ffffffffffffffff82111715620002f557620002f462000401565b5b8060405250919050565b600067ffffffffffffffff8211156200031d576200031c62000401565b5b601f19601f8301169050602081019050919050565b60006200033f8262000346565b9050919050565b600073ffffffffffffffffffffffffffffffffffffffff82169050919050565b60005b838110156200038657808201518184015260208101905062000369565b8381111562000396576000848401525b50505050565b60006002820490506001821680620003b557607f821691505b60208210811415620003cc57620003cb620003d2565b5b50919050565b7f4e487b7100000000000000000000000000000000000000000000000000000000600052602260045260246000fd5b7f4e487b7100000000000000000000000000000000000000000000000000000000600052604160045260246000fd5b6200043b8162000332565b81146200044757600080fd5b50565b61190d806200045a6000396000f3fe608060405234801561001057600080fd5b506004361061007d5760003560e01c8063893d20e81161005b578063893d20e8146100da578063c5b42006146100f8578063d590e7ef14610114578063ff24b5d5146101305761007d565b80630ee2cb10146100825780631dd09eb0146100a05780634f8632ba146100bc575b600080fd5b61008a61014e565b6040516100979190611499565b60405180910390f35b6100ba60048036038101906100b59190611028565b610178565b005b6100c46103a4565b6040516100d1919061151b565b60405180910390f35b6100e2610432565b6040516100ef9190611499565b60405180910390f35b610112600480360381019061010d919061117a565b61045b565b005b61012e600480360381019061012991906110b7565b61076c565b005b61013861094c565b60405161014591906114b4565b60405180910390f35b6000600160009054906101000a900473ffffffffffffffffffffffffffffffffffffffff16905090565b600061018686868686610bf3565b905060008054906101000a900473ffffffffffffffffffffffffffffffffffffffff1673ffffffffffffffffffffffffffffffffffffffff168173ffffffffffffffffffffffffffffffffffffffff16148061022f5750600160009054906101000a900473ffffffffffffffffffffffffffffffffffffffff1673ffffffffffffffffffffffffffffffffffffffff168173ffffffffffffffffffffffffffffffffffffffff16145b61026e576040517f08c379a00000000000000000000000000000000000000000000000000000000081526004016102659061155d565b60405180910390fd5b60005b825181101561036f5760038382815181106102b5577f4e487b7100000000000000000000000000000000000000000000000000000000600052603260045260246000fd5b602002602001015190806001815401808255809150506001900390600052602060002090600402016000909190919091506000820151816000019080519060200190610302929190610cb6565b50602082015181600101908051906020019061031f929190610cb6565b50604082015181600201908051906020019061033c929190610cb6565b506060820151816003019080519060200190610359929190610cb6565b5050508080610367906117a1565b915050610271565b507f3a5d018c361f6b1d438d4861a2e1c553569f4037c740503810b84019d700cdae60405160405180910390a1505050505050565b600280546103b19061176f565b80601f01602080910402602001604051908101604052809291908181526020018280546103dd9061176f565b801561042a5780601f106103ff5761010080835404028352916020019161042a565b820191906000526020600020905b81548152906001019060200180831161040d57829003601f168201915b505050505081565b60008060009054906101000a900473ffffffffffffffffffffffffffffffffffffffff16905090565b60008054906101000a900473ffffffffffffffffffffffffffffffffffffffff1673ffffffffffffffffffffffffffffffffffffffff163373ffffffffffffffffffffffffffffffffffffffff1614806105025750600160009054906101000a900473ffffffffffffffffffffffffffffffffffffffff1673ffffffffffffffffffffffffffffffffffffffff163373ffffffffffffffffffffffffffffffffffffffff16145b610541576040517f08c379a00000000000000000000000000000000000000000000000000000000081526004016105389061153d565b60405180910390fd5b6003805490508110610588576040517f08c379a000000000000000000000000000000000000000000000000000000000815260040161057f9061157d565b60405180910390fd5b6003600160038054905061059c91906116a6565b815481106105d3577f4e487b7100000000000000000000000000000000000000000000000000000000600052603260045260246000fd5b90600052602060002090600402016003828154811061061b577f4e487b7100000000000000000000000000000000000000000000000000000000600052603260045260246000fd5b9060005260206000209060040201600082018160000190805461063d9061176f565b610648929190610d3c565b50600182018160010190805461065d9061176f565b610668929190610d3c565b50600282018160020190805461067d9061176f565b610688929190610d3c565b50600382018160030190805461069d9061176f565b6106a8929190610d3c565b5090505060038054806106e4577f4e487b7100000000000000000000000000000000000000000000000000000000600052603160045260246000fd5b6001900381819060005260206000209060040201600080820160006107099190610dc9565b6001820160006107199190610dc9565b6002820160006107299190610dc9565b6003820160006107399190610dc9565b505090557f2cb62029f31e3c49468f31444e5229c1f9bc994db2905ec54efe95d4d92ce07f60405160405180910390a150565b60008054906101000a900473ffffffffffffffffffffffffffffffffffffffff1673ffffffffffffffffffffffffffffffffffffffff163373ffffffffffffffffffffffffffffffffffffffff1614806108135750600160009054906101000a900473ffffffffffffffffffffffffffffffffffffffff1673ffffffffffffffffffffffffffffffffffffffff163373ffffffffffffffffffffffffffffffffffffffff16145b610852576040517f08c379a00000000000000000000000000000000000000000000000000000000081526004016108499061153d565b60405180910390fd5b60006040518060800160405280868152602001858152602001848152602001838152509050600381908060018154018082558091505060019003906000526020600020906004020160009091909190915060008201518160000190805190602001906108bf929190610cb6565b5060208201518160010190805190602001906108dc929190610cb6565b5060408201518160020190805190602001906108f9929190610cb6565b506060820151816003019080519060200190610916929190610cb6565b5050507f588744e77a27a501dbb29b4c0887bc3d9baeac962c9d12031b299889cd7e7eb360405160405180910390a15050505050565b60606003805480602002602001604051908101604052809291908181526020016000905b82821015610bea57838290600052602060002090600402016040518060800160405290816000820180546109a39061176f565b80601f01602080910402602001604051908101604052809291908181526020018280546109cf9061176f565b8015610a1c5780601f106109f157610100808354040283529160200191610a1c565b820191906000526020600020905b8154815290600101906020018083116109ff57829003601f168201915b50505050508152602001600182018054610a359061176f565b80601f0160208091040260200160405190810160405280929190818152602001828054610a619061176f565b8015610aae5780601f10610a8357610100808354040283529160200191610aae565b820191906000526020600020905b815481529060010190602001808311610a9157829003601f168201915b50505050508152602001600282018054610ac79061176f565b80601f0160208091040260200160405190810160405280929190818152602001828054610af39061176f565b8015610b405780601f10610b1557610100808354040283529160200191610b40565b820191906000526020600020905b815481529060010190602001808311610b2357829003601f168201915b50505050508152602001600382018054610b599061176f565b80601f0160208091040260200160405190810160405280929190818152602001828054610b859061176f565b8015610bd25780601f10610ba757610100808354040283529160200191610bd2565b820191906000526020600020905b815481529060010190602001808311610bb557829003601f168201915b50505050508152505081526020019060010190610970565b50505050905090565b6000806040518060400160405280601c81526020017f19457468657265756d205369676e6564204d6573736167653a0a333200000000815250905060008187604051602001610c43929190611471565b60405160208183030381529060405280519060200120905060018187878760405160008152602001604052604051610c7e94939291906114d6565b6020604051602081039080840390855afa158015610ca0573d6000803e3d6000fd5b5050506020604051035192505050949350505050565b828054610cc29061176f565b90600052602060002090601f016020900481019282610ce45760008555610d2b565b82601f10610cfd57805160ff1916838001178555610d2b565b82800160010185558215610d2b579182015b82811115610d2a578251825591602001919060010190610d0f565b5b509050610d389190610e09565b5090565b828054610d489061176f565b90600052602060002090601f016020900481019282610d6a5760008555610db8565b82601f10610d7b5780548555610db8565b82800160010185558215610db857600052602060002091601f016020900482015b82811115610db7578254825591600101919060010190610d9c565b5b509050610dc59190610e09565b5090565b508054610dd59061176f565b6000825580601f10610de75750610e06565b601f016020900490600052602060002090810190610e059190610e09565b5b50565b5b80821115610e22576000816000905550600101610e0a565b5090565b6000610e39610e34846115ce565b61159d565b9050808382526020820190508260005b85811015610e795781358501610e5f8882610f2a565b845260208401935060208301925050600181019050610e49565b5050509392505050565b6000610e96610e91846115fa565b61159d565b905082815260208101848484011115610eae57600080fd5b610eb984828561172d565b509392505050565b600082601f830112610ed257600080fd5b8135610ee2848260208601610e26565b91505092915050565b600081359050610efa81611892565b92915050565b600082601f830112610f1157600080fd5b8135610f21848260208601610e83565b91505092915050565b600060808284031215610f3c57600080fd5b610f46608061159d565b9050600082013567ffffffffffffffff811115610f6257600080fd5b610f6e84828501610f00565b600083015250602082013567ffffffffffffffff811115610f8e57600080fd5b610f9a84828501610f00565b602083015250604082013567ffffffffffffffff811115610fba57600080fd5b610fc684828501610f00565b604083015250606082013567ffffffffffffffff811115610fe657600080fd5b610ff284828501610f00565b60608301525092915050565b60008135905061100d816118a9565b92915050565b600081359050611022816118c0565b92915050565b600080600080600060a0868803121561104057600080fd5b600061104e88828901610eeb565b955050602061105f88828901611013565b945050604061107088828901610eeb565b935050606061108188828901610eeb565b925050608086013567ffffffffffffffff81111561109e57600080fd5b6110aa88828901610ec1565b9150509295509295909350565b600080600080608085870312156110cd57600080fd5b600085013567ffffffffffffffff8111156110e757600080fd5b6110f387828801610f00565b945050602085013567ffffffffffffffff81111561111057600080fd5b61111c87828801610f00565b935050604085013567ffffffffffffffff81111561113957600080fd5b61114587828801610f00565b925050606085013567ffffffffffffffff81111561116257600080fd5b61116e87828801610f00565b91505092959194509250565b60006020828403121561118c57600080fd5b600061119a84828501610ffe565b91505092915050565b60006111af83836113ea565b905092915050565b6111c0816116da565b82525050565b60006111d18261163a565b6111db8185611668565b9350836020820285016111ed8561162a565b8060005b85811015611229578484038952815161120a85826111a3565b94506112158361165b565b925060208a019950506001810190506111f1565b50829750879550505050505092915050565b611244816116ec565b82525050565b61125b611256826116ec565b6117ea565b82525050565b600061126c82611645565b6112768185611679565b935061128681856020860161173c565b80840191505092915050565b600061129d82611650565b6112a78185611684565b93506112b781856020860161173c565b6112c081611881565b840191505092915050565b60006112d682611650565b6112e08185611695565b93506112f081856020860161173c565b6112f981611881565b840191505092915050565b6000611311603a83611695565b91507f4f776e61626c65236f6e6c794f776e65724f7243726561746f723a2053454e4460008301527f45525f49535f4e4f545f4f574e45525f4f525f43524541544f520000000000006020830152604082019050919050565b6000611377601983611695565b91507f6e656974686572206f776e6572206e6f722063726561746f72000000000000006000830152602082019050919050565b60006113b7601383611695565b91507f696e646578206f7574206f6620626f756e6473000000000000000000000000006000830152602082019050919050565b600060808301600083015184820360008601526114078282611292565b915050602083015184820360208601526114218282611292565b9150506040830151848203604086015261143b8282611292565b915050606083015184820360608601526114558282611292565b9150508091505092915050565b61146b81611720565b82525050565b600061147d8285611261565b9150611489828461124a565b6020820191508190509392505050565b60006020820190506114ae60008301846111b7565b92915050565b600060208201905081810360008301526114ce81846111c6565b905092915050565b60006080820190506114eb600083018761123b565b6114f86020830186611462565b611505604083018561123b565b611512606083018461123b565b95945050505050565b6000602082019050818103600083015261153581846112cb565b905092915050565b6000602082019050818103600083015261155681611304565b9050919050565b600060208201905081810360008301526115768161136a565b9050919050565b60006020820190508181036000830152611596816113aa565b9050919050565b6000604051905081810181811067ffffffffffffffff821117156115c4576115c3611852565b5b8060405250919050565b600067ffffffffffffffff8211156115e9576115e8611852565b5b602082029050602081019050919050565b600067ffffffffffffffff82111561161557611614611852565b5b601f19601f8301169050602081019050919050565b6000819050602082019050919050565b600081519050919050565b600081519050919050565b600081519050919050565b6000602082019050919050565b600082825260208201905092915050565b600081905092915050565b600082825260208201905092915050565b600082825260208201905092915050565b60006116b182611716565b91506116bc83611716565b9250828210156116cf576116ce6117f4565b5b828203905092915050565b60006116e5826116f6565b9050919050565b6000819050919050565b600073ffffffffffffffffffffffffffffffffffffffff82169050919050565b6000819050919050565b600060ff82169050919050565b82818337600083830152505050565b60005b8381101561175a57808201518184015260208101905061173f565b83811115611769576000848401525b50505050565b6000600282049050600182168061178757607f821691505b6020821081141561179b5761179a611823565b5b50919050565b60006117ac82611716565b91507fffffffffffffffffffffffffffffffffffffffffffffffffffffffffffffffff8214156117df576117de6117f4565b5b600182019050919050565b6000819050919050565b7f4e487b7100000000000000000000000000000000000000000000000000000000600052601160045260246000fd5b7f4e487b7100000000000000000000000000000000000000000000000000000000600052602260045260246000fd5b7f4e487b7100000000000000000000000000000000000000000000000000000000600052604160045260246000fd5b6000601f19601f8301169050919050565b61189b816116ec565b81146118a657600080fd5b50565b6118b281611716565b81146118bd57600080fd5b50565b6118c981611720565b81146118d457600080fd5b5056fea26469706673582212205b95861b2881cf4e23240847a2f273a314c6ae7fb3742da4e3cb87ddde0cd7c664736f6c63430008000033a2646970667358221220fe233081b2bf0b0903d6f5e8391e8758f628481493faa5b784613240a707c8c864736f6c63430008000033",
  "immutableReferences": {},
  "source": "// SPDX-License-Identifier: MIT\npragma solidity ^0.8.0;\npragma experimental ABIEncoderV2;\n\nimport \"./utils/Ownable.sol\";\nimport \"./Vault.sol\";\nimport \"./utils/SigUtils.sol\";\n\ncontract PeerSafeDeployer is Ownable {\n    mapping(address => Vault) vaults;\n    address[] keys;\n\n    constructor () Ownable(msg.sender, msg.sender) {}\n\n    function getVault(address _vaultOwner) external view returns(address) {\n        Vault _v = vaults[_vaultOwner];\n        // if (_v.getOwner() == _vaultOwner) {\n        require(address(_v) != address(0), \"does not exist\");\n        return address(_v);\n        // }\n        // revert(\"ERR691: vault doesn't exist\");\n    }\n\n    function deploy(string memory _userName, bytes32 _hashedMessage, uint8 _v, bytes32 _r, bytes32 _s) external returns(address) {\n        address signer = SigUtils.recoverSigner(_hashedMessage, _v, _r, _s);\n        Vault _vault = new Vault(owner, _userName);\n        vaults[signer] = _vault;\n        return address(_vault);\n    }\n\n    function createFile(string memory name, string memory fileType, string memory ipfsHash, string memory key, bytes32 _hashedMessage, uint8 _v, bytes32 _r, bytes32 _s) external {\n        address signer = SigUtils.recoverSigner(_hashedMessage, _v, _r, _s);\n        Vault _vault = vaults[signer];\n        _vault.createFile(name, fileType, ipfsHash, key);\n    }\n\n    function getAllFiles(bytes32 _hashedMessage, uint8 _v, bytes32 _r, bytes32 _s) external view returns(File[] memory) {\n        address signer = SigUtils.recoverSigner(_hashedMessage, _v, _r, _s);\n        Vault _vault = vaults[signer];\n        return _vault.getAllFiles();\n    }\n\n    function deleteFile(bytes32 _hashedMessage, uint8 _v, bytes32 _r, bytes32 _s, uint256 index) external {\n        address signer = SigUtils.recoverSigner(_hashedMessage, _v, _r, _s);\n        Vault _vault = vaults[signer];\n        return _vault.deleteFile(index);\n    }\n\n    function adminAllVaults() external view onlyOwnerOrCreator returns(address[] memory, Vault[] memory) {\n        Vault[] memory _vaults;\n\n        for (uint i = 0; i < keys.length; i++) {\n            _vaults[i] = (vaults[keys[i]]);\n        }\n\n        return (keys, _vaults);\n    }\n\n    function adminMigrate(bytes32 _hashedMessage, uint8 _v, bytes32 _r, bytes32 _s, address[] memory _users, address[] memory _oldVaults) external onlyOwnerOrCreator{\n        require(_users.length == _oldVaults.length, 'length should be equal');\n\n        for (uint i = 0; i < _users.length; i++) {\n            Vault _newVault = new Vault(owner, Vault(_oldVaults[i]).user());\n            vaults[_users[i]] = _newVault;\n            _newVault.migrateFiles(_hashedMessage, _v, _r, _s, Vault(_oldVaults[i]).getAllFiles());\n        }\n    }\n}",
  "sourcePath": "/Users/shubhaankar/github.com/peer-safe/contracts/contracts/PeerSafeDeployer.sol",
  "compiler": {
    "name": "solc",
    "version": "0.8.0+commit.c7dfd78e.Emscripten.clang"
  },
  "schemaVersion": "3.4.14",
  "updatedAt": "2023-06-11T06:44:39.113Z",
  "networkType": "ethereum",
  "devdoc": {
    "kind": "dev",
    "methods": {},
    "version": 1
  },
  "userdoc": {
    "kind": "user",
    "methods": {},
    "version": 1
  }
}