{
  "contractName": "PeerSafeDeployer",
  "abi": [
    {
      "inputs": [
        {
          "internalType": "address",
          "name": "_deployer",
          "type": "address"
        }
      ],
      "stateMutability": "nonpayable",
      "type": "constructor"
    },
    {
      "anonymous": false,
      "inputs": [
        {
          "indexed": true,
          "internalType": "address",
          "name": "previousOwner",
          "type": "address"
        },
        {
          "indexed": true,
          "internalType": "address",
          "name": "newOwner",
          "type": "address"
        }
      ],
      "name": "OwnershipTransferred",
      "type": "event"
    },
    {
      "inputs": [],
      "name": "getCreator",
      "outputs": [
        {
          "internalType": "address",
          "name": "",
          "type": "address"
        }
      ],
      "stateMutability": "view",
      "type": "function",
      "constant": true
    },
    {
      "inputs": [],
      "name": "getOwner",
      "outputs": [
        {
          "internalType": "address",
          "name": "",
          "type": "address"
        }
      ],
      "stateMutability": "view",
      "type": "function",
      "constant": true
    },
    {
      "inputs": [
        {
          "internalType": "address",
          "name": "_vaultOwner",
          "type": "address"
        }
      ],
      "name": "getVault",
      "outputs": [
        {
          "internalType": "address",
          "name": "",
          "type": "address"
        }
      ],
      "stateMutability": "view",
      "type": "function",
      "constant": true
    },
    {
      "inputs": [
        {
          "internalType": "string",
          "name": "_userName",
          "type": "string"
        },
        {
          "internalType": "bytes32",
          "name": "_hashedMessage",
          "type": "bytes32"
        },
        {
          "internalType": "uint8",
          "name": "_v",
          "type": "uint8"
        },
        {
          "internalType": "bytes32",
          "name": "_r",
          "type": "bytes32"
        },
        {
          "internalType": "bytes32",
          "name": "_s",
          "type": "bytes32"
        }
      ],
      "name": "deploy",
      "outputs": [
        {
          "internalType": "address",
          "name": "",
          "type": "address"
        }
      ],
      "stateMutability": "nonpayable",
      "type": "function"
    },
    {
      "inputs": [
        {
          "internalType": "string",
          "name": "name",
          "type": "string"
        },
        {
          "internalType": "string",
          "name": "fileType",
          "type": "string"
        },
        {
          "internalType": "string",
          "name": "ipfsHash",
          "type": "string"
        },
        {
          "internalType": "string",
          "name": "key",
          "type": "string"
        },
        {
          "internalType": "bytes32",
          "name": "_hashedMessage",
          "type": "bytes32"
        },
        {
          "internalType": "uint8",
          "name": "_v",
          "type": "uint8"
        },
        {
          "internalType": "bytes32",
          "name": "_r",
          "type": "bytes32"
        },
        {
          "internalType": "bytes32",
          "name": "_s",
          "type": "bytes32"
        }
      ],
      "name": "createFile",
      "outputs": [],
      "stateMutability": "nonpayable",
      "type": "function"
    },
    {
      "inputs": [
        {
          "internalType": "bytes32",
          "name": "_hashedMessage",
          "type": "bytes32"
        },
        {
          "internalType": "uint8",
          "name": "_v",
          "type": "uint8"
        },
        {
          "internalType": "bytes32",
          "name": "_r",
          "type": "bytes32"
        },
        {
          "internalType": "bytes32",
          "name": "_s",
          "type": "bytes32"
        }
      ],
      "name": "getAllFiles",
      "outputs": [
        {
          "components": [
            {
              "internalType": "string",
              "name": "_name",
              "type": "string"
            },
            {
              "internalType": "string",
              "name": "_fileType",
              "type": "string"
            },
            {
              "internalType": "string",
              "name": "_ipfsHash",
              "type": "string"
            },
            {
              "internalType": "string",
              "name": "_key",
              "type": "string"
            }
          ],
          "internalType": "struct File[]",
          "name": "",
          "type": "tuple[]"
        }
      ],
      "stateMutability": "view",
      "type": "function",
      "constant": true
    },
    {
      "inputs": [
        {
          "internalType": "bytes32",
          "name": "_hashedMessage",
          "type": "bytes32"
        },
        {
          "internalType": "uint8",
          "name": "_v",
          "type": "uint8"
        },
        {
          "internalType": "bytes32",
          "name": "_r",
          "type": "bytes32"
        },
        {
          "internalType": "bytes32",
          "name": "_s",
          "type": "bytes32"
        },
        {
          "internalType": "string",
          "name": "ipfsHash",
          "type": "string"
        }
      ],
      "name": "deleteFile",
      "outputs": [],
      "stateMutability": "nonpayable",
      "type": "function"
    },
    {
      "inputs": [
        {
          "internalType": "address",
          "name": "_user",
          "type": "address"
        }
      ],
      "name": "getPubKey",
      "outputs": [
        {
          "internalType": "bytes",
          "name": "",
          "type": "bytes"
        }
      ],
      "stateMutability": "view",
      "type": "function",
      "constant": true
    },
    {
      "inputs": [
        {
          "internalType": "bytes32",
          "name": "_hashedMessage",
          "type": "bytes32"
        },
        {
          "internalType": "uint8",
          "name": "_v",
          "type": "uint8"
        },
        {
          "internalType": "bytes32",
          "name": "_r",
          "type": "bytes32"
        },
        {
          "internalType": "bytes32",
          "name": "_s",
          "type": "bytes32"
        },
        {
          "internalType": "address",
          "name": "_to",
          "type": "address"
        },
        {
          "internalType": "string",
          "name": "_fileHash",
          "type": "string"
        },
        {
          "internalType": "string",
          "name": "_keyHash",
          "type": "string"
        },
        {
          "internalType": "string",
          "name": "_name",
          "type": "string"
        },
        {
          "internalType": "string",
          "name": "_fileType",
          "type": "string"
        }
      ],
      "name": "sendShareRequest",
      "outputs": [],
      "stateMutability": "nonpayable",
      "type": "function"
    },
    {
      "inputs": [],
      "name": "getShareRequests",
      "outputs": [
        {
          "components": [
            {
              "internalType": "address",
              "name": "_from",
              "type": "address"
            },
            {
              "internalType": "string",
              "name": "_fileHash",
              "type": "string"
            },
            {
              "internalType": "string",
              "name": "_keyHash",
              "type": "string"
            },
            {
              "internalType": "string",
              "name": "_name",
              "type": "string"
            },
            {
              "internalType": "string",
              "name": "_fileType",
              "type": "string"
            }
          ],
          "internalType": "struct ShareRequest[]",
          "name": "",
          "type": "tuple[]"
        }
      ],
      "stateMutability": "view",
      "type": "function",
      "constant": true
    },
    {
      "inputs": [
        {
          "internalType": "bytes32",
          "name": "_hashedMessage",
          "type": "bytes32"
        },
        {
          "internalType": "uint8",
          "name": "_v",
          "type": "uint8"
        },
        {
          "internalType": "bytes32",
          "name": "_r",
          "type": "bytes32"
        },
        {
          "internalType": "bytes32",
          "name": "_s",
          "type": "bytes32"
        },
        {
          "internalType": "string",
          "name": "_fileHash",
          "type": "string"
        }
      ],
      "name": "acceptShareRequest",
      "outputs": [],
      "stateMutability": "nonpayable",
      "type": "function"
    },
    {
      "inputs": [
        {
          "internalType": "bytes32",
          "name": "_hashedMessage",
          "type": "bytes32"
        },
        {
          "internalType": "uint8",
          "name": "_v",
          "type": "uint8"
        },
        {
          "internalType": "bytes32",
          "name": "_r",
          "type": "bytes32"
        },
        {
          "internalType": "bytes32",
          "name": "_s",
          "type": "bytes32"
        },
        {
          "internalType": "string",
          "name": "_fileHash",
          "type": "string"
        }
      ],
      "name": "rejectShareRequest",
      "outputs": [],
      "stateMutability": "nonpayable",
      "type": "function"
    },
    {
      "inputs": [],
      "name": "adminAllVaults",
      "outputs": [
        {
          "internalType": "address[]",
          "name": "",
          "type": "address[]"
        },
        {
          "internalType": "address[]",
          "name": "",
          "type": "address[]"
        }
      ],
      "stateMutability": "view",
      "type": "function",
      "constant": true
    }
  ],
  "bytecode": "0x60806040523480156200001157600080fd5b5060405162005f2938038062005f29833981810160405281019062000037919062000176565b3333806000806101000a81548173ffffffffffffffffffffffffffffffffffffffff021916908373ffffffffffffffffffffffffffffffffffffffff16021790555081600160006101000a81548173ffffffffffffffffffffffffffffffffffffffff021916908373ffffffffffffffffffffffffffffffffffffffff1602179055508073ffffffffffffffffffffffffffffffffffffffff16600073ffffffffffffffffffffffffffffffffffffffff167f8be0079c531659141344cd1fd0a4f28419497f9722a3daafe3b4186f6b6457e060405160405180910390a3505080600460006101000a81548173ffffffffffffffffffffffffffffffffffffffff021916908373ffffffffffffffffffffffffffffffffffffffff16021790555050620001f0565b6000815190506200017081620001d6565b92915050565b6000602082840312156200018957600080fd5b600062000199848285016200015f565b91505092915050565b6000620001af82620001b6565b9050919050565b600073ffffffffffffffffffffffffffffffffffffffff82169050919050565b620001e181620001a2565b8114620001ed57600080fd5b50565b615d2980620002006000396000f3fe608060405234801561001057600080fd5b50600436106100cf5760003560e01c8063893d20e81161008c578063d8b63c8a11610066578063d8b63c8a146101fe578063e04e02831461021d578063e4f0c9161461024d578063fce9512a14610269576100cf565b8063893d20e8146101945780639d6944c2146101b2578063b1a81bd5146101e2576100cf565b80630eb9af38146100d45780630ee2cb1014610104578063146aa7f714610122578063633072e41461013e5780636b11bc491461015a5780636e07636714610176575b600080fd5b6100ee60048036038101906100e99190614a03565b610299565b6040516100fb9190615538565b60405180910390f35b61010c61037a565b6040516101199190615538565b60405180910390f35b61013c60048036038101906101379190614c1f565b6103a4565b005b61015860048036038101906101539190614c1f565b61048f565b005b610174600480360381019061016f9190614c1f565b6104bd565b005b61017e610a63565b60405161018b91906155dc565b60405180910390f35b61019c610a74565b6040516101a99190615538565b60405180910390f35b6101cc60048036038101906101c79190614cae565b610a9d565b6040516101d99190615538565b60405180910390f35b6101fc60048036038101906101f79190614d3d565b610ca8565b005b610206610d9c565b604051610214929190615583565b60405180910390f35b61023760048036038101906102329190614a96565b611079565b60405161024491906155ba565b60405180910390f35b61026760048036038101906102629190614af9565b611181565b005b610283600480360381019061027e9190614a03565b6112bd565b6040516102909190615643565b60405180910390f35b600080600260008473ffffffffffffffffffffffffffffffffffffffff1673ffffffffffffffffffffffffffffffffffffffff16815260200190815260200160002060000160009054906101000a900473ffffffffffffffffffffffffffffffffffffffff169050600073ffffffffffffffffffffffffffffffffffffffff168173ffffffffffffffffffffffffffffffffffffffff161415610371576040517f08c379a0000000000000000000000000000000000000000000000000000000008152600401610368906156e8565b60405180910390fd5b80915050919050565b6000600160009054906101000a900473ffffffffffffffffffffffffffffffffffffffff16905090565b60006103b286868686611391565b90506000600260008373ffffffffffffffffffffffffffffffffffffffff1673ffffffffffffffffffffffffffffffffffffffff16815260200190815260200160002060000160009054906101000a900473ffffffffffffffffffffffffffffffffffffffff1690508073ffffffffffffffffffffffffffffffffffffffff1663a9910054846040518263ffffffff1660e01b81526004016104549190615665565b600060405180830381600087803b15801561046e57600080fd5b505af1158015610482573d6000803e3d6000fd5b5050505050505050505050565b600061049d86868686611391565b90506104b5818360056114549092919063ffffffff16565b505050505050565b60006104cb86868686611391565b9050600073ffffffffffffffffffffffffffffffffffffffff16600560000160008373ffffffffffffffffffffffffffffffffffffffff1673ffffffffffffffffffffffffffffffffffffffff1681526020019081526020016000208360405161053591906154de565b908152602001604051809103902060000160009054906101000a900473ffffffffffffffffffffffffffffffffffffffff1673ffffffffffffffffffffffffffffffffffffffff1614156105be576040517f08c379a00000000000000000000000000000000000000000000000000000000081526004016105b590615788565b60405180910390fd5b6000600260008373ffffffffffffffffffffffffffffffffffffffff1673ffffffffffffffffffffffffffffffffffffffff168152602001908152602001600020600101805461060d90615b52565b90501415610650576040517f08c379a000000000000000000000000000000000000000000000000000000000815260040161064790615708565b60405180910390fd5b6000600260008373ffffffffffffffffffffffffffffffffffffffff1673ffffffffffffffffffffffffffffffffffffffff16815260200190815260200160002060000160009054906101000a900473ffffffffffffffffffffffffffffffffffffffff1690506000600560000160008473ffffffffffffffffffffffffffffffffffffffff1673ffffffffffffffffffffffffffffffffffffffff1681526020019081526020016000208460405161070991906154de565b90815260200160405180910390206040518060a00160405290816000820160009054906101000a900473ffffffffffffffffffffffffffffffffffffffff1673ffffffffffffffffffffffffffffffffffffffff1673ffffffffffffffffffffffffffffffffffffffff16815260200160018201805461078890615b52565b80601f01602080910402602001604051908101604052809291908181526020018280546107b490615b52565b80156108015780601f106107d657610100808354040283529160200191610801565b820191906000526020600020905b8154815290600101906020018083116107e457829003601f168201915b5050505050815260200160028201805461081a90615b52565b80601f016020809104026020016040519081016040528092919081815260200182805461084690615b52565b80156108935780601f1061086857610100808354040283529160200191610893565b820191906000526020600020905b81548152906001019060200180831161087657829003601f168201915b505050505081526020016003820180546108ac90615b52565b80601f01602080910402602001604051908101604052809291908181526020018280546108d890615b52565b80156109255780601f106108fa57610100808354040283529160200191610925565b820191906000526020600020905b81548152906001019060200180831161090857829003601f168201915b5050505050815260200160048201805461093e90615b52565b80601f016020809104026020016040519081016040528092919081815260200182805461096a90615b52565b80156109b75780601f1061098c576101008083540402835291602001916109b7565b820191906000526020600020905b81548152906001019060200180831161099a57829003601f168201915b50505050508152505090508173ffffffffffffffffffffffffffffffffffffffff1663d590e7ef82606001518360800151846020015185604001516040518563ffffffff1660e01b8152600401610a119493929190615687565b600060405180830381600087803b158015610a2b57600080fd5b505af1158015610a3f573d6000803e3d6000fd5b50505050610a59838560056114549092919063ffffffff16565b5050505050505050565b6060610a6f60056116e9565b905090565b60008060009054906101000a900473ffffffffffffffffffffffffffffffffffffffff16905090565b6000806000610aae87878787611be5565b915091506000600460009054906101000a900473ffffffffffffffffffffffffffffffffffffffff1673ffffffffffffffffffffffffffffffffffffffff1663918aaff5848b6040518363ffffffff1660e01b8152600401610b11929190615553565b602060405180830381600087803b158015610b2b57600080fd5b505af1158015610b3f573d6000803e3d6000fd5b505050506040513d601f19601f82011682018060405250810190610b639190614a2c565b905060405180604001604052808273ffffffffffffffffffffffffffffffffffffffff16815260200183815250600260008573ffffffffffffffffffffffffffffffffffffffff1673ffffffffffffffffffffffffffffffffffffffff16815260200190815260200160002060008201518160000160006101000a81548173ffffffffffffffffffffffffffffffffffffffff021916908373ffffffffffffffffffffffffffffffffffffffff1602179055506020820151816001019080519060200190610c329291906145b4565b509050506003839080600181540180825580915050600190039060005260206000200160009091909190916101000a81548173ffffffffffffffffffffffffffffffffffffffff021916908373ffffffffffffffffffffffffffffffffffffffff16021790555080935050505095945050505050565b6000610cb685858585611391565b90506000600260008373ffffffffffffffffffffffffffffffffffffffff1673ffffffffffffffffffffffffffffffffffffffff16815260200190815260200160002060000160009054906101000a900473ffffffffffffffffffffffffffffffffffffffff1690508073ffffffffffffffffffffffffffffffffffffffff1663d590e7ef8b8b8b8b6040518563ffffffff1660e01b8152600401610d5e9493929190615687565b600060405180830381600087803b158015610d7857600080fd5b505af1158015610d8c573d6000803e3d6000fd5b5050505050505050505050505050565b60608060008054906101000a900473ffffffffffffffffffffffffffffffffffffffff1673ffffffffffffffffffffffffffffffffffffffff163373ffffffffffffffffffffffffffffffffffffffff161480610e465750600160009054906101000a900473ffffffffffffffffffffffffffffffffffffffff1673ffffffffffffffffffffffffffffffffffffffff163373ffffffffffffffffffffffffffffffffffffffff16145b610e85576040517f08c379a0000000000000000000000000000000000000000000000000000000008152600401610e7c90615728565b60405180910390fd5b606060005b600380549050811015610fe4576002600060038381548110610ed5577f4e487b7100000000000000000000000000000000000000000000000000000000600052603260045260246000fd5b9060005260206000200160009054906101000a900473ffffffffffffffffffffffffffffffffffffffff1673ffffffffffffffffffffffffffffffffffffffff1673ffffffffffffffffffffffffffffffffffffffff16815260200190815260200160002060000160009054906101000a900473ffffffffffffffffffffffffffffffffffffffff16828281518110610f97577f4e487b7100000000000000000000000000000000000000000000000000000000600052603260045260246000fd5b602002602001019073ffffffffffffffffffffffffffffffffffffffff16908173ffffffffffffffffffffffffffffffffffffffff16815250508080610fdc90615b84565b915050610e8a565b506003818180548060200260200160405190810160405280929190818152602001828054801561106957602002820191906000526020600020905b8160009054906101000a900473ffffffffffffffffffffffffffffffffffffffff1673ffffffffffffffffffffffffffffffffffffffff168152602001906001019080831161101f575b5050505050915092509250509091565b6060600061108986868686611391565b90506000600260008373ffffffffffffffffffffffffffffffffffffffff1673ffffffffffffffffffffffffffffffffffffffff16815260200190815260200160002060000160009054906101000a900473ffffffffffffffffffffffffffffffffffffffff1690508073ffffffffffffffffffffffffffffffffffffffff1663ff24b5d56040518163ffffffff1660e01b815260040160006040518083038186803b15801561113857600080fd5b505afa15801561114c573d6000803e3d6000fd5b505050506040513d6000823e3d601f19601f820116820180604052508101906111759190614a55565b92505050949350505050565b600073ffffffffffffffffffffffffffffffffffffffff168573ffffffffffffffffffffffffffffffffffffffff1614156111f1576040517f08c379a00000000000000000000000000000000000000000000000000000000081526004016111e890615708565b60405180910390fd5b6000600260008773ffffffffffffffffffffffffffffffffffffffff1673ffffffffffffffffffffffffffffffffffffffff168152602001908152602001600020600101805461124090615b52565b90501415611283576040517f08c379a000000000000000000000000000000000000000000000000000000000815260040161127a90615708565b60405180910390fd5b60006112918a8a8a8a611391565b90506112b18187878787876005611cfa909695949392919063ffffffff16565b50505050505050505050565b6060600260008373ffffffffffffffffffffffffffffffffffffffff1673ffffffffffffffffffffffffffffffffffffffff168152602001908152602001600020600101805461130c90615b52565b80601f016020809104026020016040519081016040528092919081815260200182805461133890615b52565b80156113855780601f1061135a57610100808354040283529160200191611385565b820191906000526020600020905b81548152906001019060200180831161136857829003601f168201915b50505050509050919050565b6000806040518060400160405280601c81526020017f19457468657265756d205369676e6564204d6573736167653a0a3332000000008152509050600081876040516020016113e19291906154b6565b6040516020818303038152906040528051906020012090506001818787876040516000815260200160405260405161141c94939291906155fe565b6020604051602081039080840390855afa15801561143e573d6000803e3d6000fd5b5050506020604051035192505050949350505050565b8260000160008373ffffffffffffffffffffffffffffffffffffffff1673ffffffffffffffffffffffffffffffffffffffff168152602001908152602001600020816040516114a391906154de565b9081526020016040518091039020600080820160006101000a81549073ffffffffffffffffffffffffffffffffffffffff02191690556001820160006114e9919061463a565b6002820160006114f9919061463a565b600382016000611509919061463a565b600482016000611519919061463a565b505060005b8360010160008473ffffffffffffffffffffffffffffffffffffffff1673ffffffffffffffffffffffffffffffffffffffff168152602001908152602001600020805490508110156116e3578160405160200161157b91906154de565b604051602081830303815290604052805190602001208460010160008573ffffffffffffffffffffffffffffffffffffffff1673ffffffffffffffffffffffffffffffffffffffff168152602001908152602001600020828154811061160a577f4e487b7100000000000000000000000000000000000000000000000000000000600052603260045260246000fd5b9060005260206000200160405160200161162491906154f5565b6040516020818303038152906040528051906020012014156116d0578360010160008473ffffffffffffffffffffffffffffffffffffffff1673ffffffffffffffffffffffffffffffffffffffff16815260200190815260200160002081815481106116b9577f4e487b7100000000000000000000000000000000000000000000000000000000600052603260045260246000fd5b9060005260206000200160006116cf919061463a565b5b80806116db90615b84565b91505061151e565b50505050565b606060008260010160003373ffffffffffffffffffffffffffffffffffffffff1673ffffffffffffffffffffffffffffffffffffffff1681526020019081526020016000208054905067ffffffffffffffff811115611771577f4e487b7100000000000000000000000000000000000000000000000000000000600052604160045260246000fd5b6040519080825280602002602001820160405280156117aa57816020015b61179761467a565b81526020019060019003908161178f5790505b50905060005b8360010160003373ffffffffffffffffffffffffffffffffffffffff1673ffffffffffffffffffffffffffffffffffffffff16815260200190815260200160002080549050811015611bdb578360000160003373ffffffffffffffffffffffffffffffffffffffff1673ffffffffffffffffffffffffffffffffffffffff1681526020019081526020016000208460010160003373ffffffffffffffffffffffffffffffffffffffff1673ffffffffffffffffffffffffffffffffffffffff16815260200190815260200160002082815481106118b6577f4e487b7100000000000000000000000000000000000000000000000000000000600052603260045260246000fd5b906000526020600020016040516118cd91906154f5565b90815260200160405180910390206040518060a00160405290816000820160009054906101000a900473ffffffffffffffffffffffffffffffffffffffff1673ffffffffffffffffffffffffffffffffffffffff1673ffffffffffffffffffffffffffffffffffffffff16815260200160018201805461194c90615b52565b80601f016020809104026020016040519081016040528092919081815260200182805461197890615b52565b80156119c55780601f1061199a576101008083540402835291602001916119c5565b820191906000526020600020905b8154815290600101906020018083116119a857829003601f168201915b505050505081526020016002820180546119de90615b52565b80601f0160208091040260200160405190810160405280929190818152602001828054611a0a90615b52565b8015611a575780601f10611a2c57610100808354040283529160200191611a57565b820191906000526020600020905b815481529060010190602001808311611a3a57829003601f168201915b50505050508152602001600382018054611a7090615b52565b80601f0160208091040260200160405190810160405280929190818152602001828054611a9c90615b52565b8015611ae95780601f10611abe57610100808354040283529160200191611ae9565b820191906000526020600020905b815481529060010190602001808311611acc57829003601f168201915b50505050508152602001600482018054611b0290615b52565b80601f0160208091040260200160405190810160405280929190818152602001828054611b2e90615b52565b8015611b7b5780601f10611b5057610100808354040283529160200191611b7b565b820191906000526020600020905b815481529060010190602001808311611b5e57829003601f168201915b505050505081525050828281518110611bbd577f4e487b7100000000000000000000000000000000000000000000000000000000600052603260045260246000fd5b60200260200101819052508080611bd390615b84565b9150506117b0565b5080915050919050565b6000606060006040518060400160405280601c81526020017f19457468657265756d205369676e6564204d6573736167653a0a333200000000815250905060008188604051602001611c389291906154b6565b604051602081830303815290604052805190602001209050600080611c748360001c601b8b611c679190615a89565b8a60001c8a60001c611fcb565b915091506001838a8a8a60405160008152602001604052604051611c9b94939291906155fe565b6020604051602081039080840390855afa158015611cbd573d6000803e3d6000fd5b505050602060405103518282604051602001611cda92919061550c565b604051602081830303815290604052955095505050505094509492505050565b600073ffffffffffffffffffffffffffffffffffffffff168760000160008773ffffffffffffffffffffffffffffffffffffffff1673ffffffffffffffffffffffffffffffffffffffff16815260200190815260200160002085604051611d6191906154de565b908152602001604051809103902060000160009054906101000a900473ffffffffffffffffffffffffffffffffffffffff1673ffffffffffffffffffffffffffffffffffffffff1614611de9576040517f08c379a0000000000000000000000000000000000000000000000000000000008152600401611de090615768565b60405180910390fd5b60006040518060a001604052808873ffffffffffffffffffffffffffffffffffffffff168152602001868152602001858152602001848152602001838152509050808860000160008873ffffffffffffffffffffffffffffffffffffffff1673ffffffffffffffffffffffffffffffffffffffff16815260200190815260200160002086604051611e7a91906154de565b908152602001604051809103902060008201518160000160006101000a81548173ffffffffffffffffffffffffffffffffffffffff021916908373ffffffffffffffffffffffffffffffffffffffff1602179055506020820151816001019080519060200190611eeb9291906146bf565b506040820151816002019080519060200190611f089291906146bf565b506060820151816003019080519060200190611f259291906146bf565b506080820151816004019080519060200190611f429291906146bf565b509050508760010160008773ffffffffffffffffffffffffffffffffffffffff1673ffffffffffffffffffffffffffffffffffffffff16815260200190815260200160002085908060018154018082558091505060019003906000526020600020016000909190919091509080519060200190611fc09291906146bf565b505050505050505050565b60008060007ffffffffffffffffffffffffffffffffffffffffffffffffffffffffefffffc2f80612025577f4e487b7100000000000000000000000000000000000000000000000000000000600052601260045260246000fd5b60018760ff16901c60ff167ffffffffffffffffffffffffffffffffffffffffffffffffffffffffefffffc2f61205b91906159fb565b860890507ffffffffffffffffffffffffffffffffffffffffffffffffffffffffefffffc2f8111806120ac57507ffffffffffffffffffffffffffffffffebaaedce6af48a03bbfd25e8cd036414184115b806120d657507ffffffffffffffffffffffffffffffffebaaedce6af48a03bbfd25e8cd036414185115b806120e15750600084145b806120ec5750600085145b806120fa575060018660ff16115b1561210c576000809250925050612504565b6000612138867ffffffffffffffffffffffffffffffffebaaedce6af48a03bbfd25e8cd036414161250d565b905060007ffffffffffffffffffffffffffffffffffffffffffffffffffffffffefffffc2f80612191577f4e487b7100000000000000000000000000000000000000000000000000000000600052601260045260246000fd5b7ffffffffffffffffffffffffffffffffffffffffffffffffffffffffefffffc2f806121e6577f4e487b7100000000000000000000000000000000000000000000000000000000600052601260045260246000fd5b60077ffffffffffffffffffffffffffffffffffffffffffffffffffffffffefffffc2f8061223d577f4e487b7100000000000000000000000000000000000000000000000000000000600052601260045260246000fd5b60008709087ffffffffffffffffffffffffffffffffffffffffffffffffffffffffefffffc2f80612297577f4e487b7100000000000000000000000000000000000000000000000000000000600052601260045260246000fd5b7ffffffffffffffffffffffffffffffffffffffffffffffffffffffffefffffc2f806122ec577f4e487b7100000000000000000000000000000000000000000000000000000000600052601260045260246000fd5b868709860908905061233681600460017ffffffffffffffffffffffffffffffffffffffffffffffffffffffffefffffc2f6123279190615974565b61233191906159ca565b612645565b9050600080600160028b60ff168561234e9190615974565b6123589190615974565b161461238f57817ffffffffffffffffffffffffffffffffffffffffffffffffffffffffefffffc2f61238a9190615a55565b612391565b815b905060008060006124677ffffffffffffffffffffffffffffffffebaaedce6af48a03bbfd25e8cd0364141806123f0577f4e487b7100000000000000000000000000000000000000000000000000000000600052601260045260246000fd5b8e7ffffffffffffffffffffffffffffffffebaaedce6af48a03bbfd25e8cd036414161241c9190615a55565b88097f79be667ef9dcbbac55a06295ce870b07029bfcdb2dce28d959f2815b16f817987f483ada7726a3c4655da4fbfc0e1108a8fd17b448a68554199c47d08ffb10d4b860016127fb565b92509250925060008060006124d67ffffffffffffffffffffffffffffffffebaaedce6af48a03bbfd25e8cd0364141806124ca577f4e487b7100000000000000000000000000000000000000000000000000000000600052601260045260246000fd5b8e8b098b8960016127fb565b9250925092506000806124ed888888888888612896565b9150915081819d509d505050505050505050505050505b94509492505050565b600080831415801561251f5750818314155b801561252c575060008214155b61256b576040517f08c379a0000000000000000000000000000000000000000000000000000000008152600401612562906157a8565b60405180910390fd5b60008060019050600084905060005b6000871461263857868261258e91906159ca565b90508286806125c6577f4e487b7100000000000000000000000000000000000000000000000000000000600052601260045260246000fd5b87806125fb577f4e487b7100000000000000000000000000000000000000000000000000000000600052601260045260246000fd5b858409886126099190615a55565b8608809450819550505086878261262091906159fb565b8361262b9190615a55565b809850819350505061257a565b8394505050505092915050565b60008083141561265857600090506127f5565b600082141561266a57600190506127f5565b60006001905060007f800000000000000000000000000000000000000000000000000000000000000090505b60008111156127ef577ffffffffffffffffffffffffffffffffffffffffffffffffffffffffefffffc2f8185161515860a7ffffffffffffffffffffffffffffffffffffffffffffffffffffffffefffffc2f8485090991507ffffffffffffffffffffffffffffffffffffffffffffffffffffffffefffffc2f6002820485161515860a7ffffffffffffffffffffffffffffffffffffffffffffffffffffffffefffffc2f8485090991507ffffffffffffffffffffffffffffffffffffffffffffffffffffffffefffffc2f6004820485161515860a7ffffffffffffffffffffffffffffffffffffffffffffffffffffffffefffffc2f8485090991507ffffffffffffffffffffffffffffffffffffffffffffffffffffffffefffffc2f6008820485161515860a7ffffffffffffffffffffffffffffffffffffffffffffffffffffffffefffffc2f848509099150601081049050612696565b81925050505b92915050565b6000806000808714156128165785858592509250925061288c565b60008790506000806000600190505b6000841461287e5760006001851614612853576128468383838d8d8d61296a565b8093508194508295505050505b60028461286091906159ca565b935061286d8a8a8a613cb6565b809a50819b50829c50505050612825565b828282965096509650505050505b9450945094915050565b6000806000806000878b14156129315760007ffffffffffffffffffffffffffffffffffffffffffffffffffffffffefffffc2f806128fd577f4e487b7100000000000000000000000000000000000000000000000000000000600052601260045260246000fd5b888c081415612915576000809450945050505061295f565b6129208b8b8b613cb6565b80935081945082955050505061294c565b61293f8b8b8b8b8b8b61296a565b8093508194508295505050505b612957838383614406565b945094505050505b965096945050505050565b6000806000808914801561297e5750600088145b1561299157858585925092509250613caa565b6000861480156129a15750600085145b156129b457888888925092509250613caa565b6129bc614745565b7ffffffffffffffffffffffffffffffffffffffffffffffffffffffffefffffc2f80612a11577f4e487b7100000000000000000000000000000000000000000000000000000000600052601260045260246000fd5b88890981600060048110612a4e577f4e487b7100000000000000000000000000000000000000000000000000000000600052603260045260246000fd5b6020020181815250507ffffffffffffffffffffffffffffffffffffffffffffffffffffffffefffffc2f80612aac577f4e487b7100000000000000000000000000000000000000000000000000000000600052601260045260246000fd5b81600060048110612ae6577f4e487b7100000000000000000000000000000000000000000000000000000000600052603260045260246000fd5b6020020151890981600160048110612b27577f4e487b7100000000000000000000000000000000000000000000000000000000600052603260045260246000fd5b6020020181815250507ffffffffffffffffffffffffffffffffffffffffffffffffffffffffefffffc2f80612b85577f4e487b7100000000000000000000000000000000000000000000000000000000600052601260045260246000fd5b85860981600260048110612bc2577f4e487b7100000000000000000000000000000000000000000000000000000000600052603260045260246000fd5b6020020181815250507ffffffffffffffffffffffffffffffffffffffffffffffffffffffffefffffc2f80612c20577f4e487b7100000000000000000000000000000000000000000000000000000000600052601260045260246000fd5b81600260048110612c5a577f4e487b7100000000000000000000000000000000000000000000000000000000600052603260045260246000fd5b6020020151860981600360048110612c9b577f4e487b7100000000000000000000000000000000000000000000000000000000600052603260045260246000fd5b60200201818152505060405180608001604052807ffffffffffffffffffffffffffffffffffffffffffffffffffffffffefffffc2f80612d04577f4e487b7100000000000000000000000000000000000000000000000000000000600052601260045260246000fd5b83600260048110612d3e577f4e487b7100000000000000000000000000000000000000000000000000000000600052603260045260246000fd5b60200201518d0981526020017ffffffffffffffffffffffffffffffffffffffffffffffffffffffffefffffc2f80612d9f577f4e487b7100000000000000000000000000000000000000000000000000000000600052601260045260246000fd5b83600360048110612dd9577f4e487b7100000000000000000000000000000000000000000000000000000000600052603260045260246000fd5b60200201518c0981526020017ffffffffffffffffffffffffffffffffffffffffffffffffffffffffefffffc2f80612e3a577f4e487b7100000000000000000000000000000000000000000000000000000000600052601260045260246000fd5b83600060048110612e74577f4e487b7100000000000000000000000000000000000000000000000000000000600052603260045260246000fd5b60200201518a0981526020017ffffffffffffffffffffffffffffffffffffffffffffffffffffffffefffffc2f80612ed5577f4e487b7100000000000000000000000000000000000000000000000000000000600052601260045260246000fd5b83600160048110612f0f577f4e487b7100000000000000000000000000000000000000000000000000000000600052603260045260246000fd5b60200201518909815250905080600260048110612f55577f4e487b7100000000000000000000000000000000000000000000000000000000600052603260045260246000fd5b602002015181600060048110612f94577f4e487b7100000000000000000000000000000000000000000000000000000000600052603260045260246000fd5b6020020151141580613022575080600360048110612fdb577f4e487b7100000000000000000000000000000000000000000000000000000000600052603260045260246000fd5b60200201518160016004811061301a577f4e487b7100000000000000000000000000000000000000000000000000000000600052603260045260246000fd5b602002015114155b613061576040517f08c379a000000000000000000000000000000000000000000000000000000000815260040161305890615748565b60405180910390fd5b613069614745565b7ffffffffffffffffffffffffffffffffffffffffffffffffffffffffefffffc2f806130be577f4e487b7100000000000000000000000000000000000000000000000000000000600052601260045260246000fd5b826000600481106130f8577f4e487b7100000000000000000000000000000000000000000000000000000000600052603260045260246000fd5b60200201517ffffffffffffffffffffffffffffffffffffffffffffffffffffffffefffffc2f6131289190615a55565b83600260048110613162577f4e487b7100000000000000000000000000000000000000000000000000000000600052603260045260246000fd5b602002015108816000600481106131a2577f4e487b7100000000000000000000000000000000000000000000000000000000600052603260045260246000fd5b6020020181815250507ffffffffffffffffffffffffffffffffffffffffffffffffffffffffefffffc2f80613200577f4e487b7100000000000000000000000000000000000000000000000000000000600052601260045260246000fd5b8260016004811061323a577f4e487b7100000000000000000000000000000000000000000000000000000000600052603260045260246000fd5b60200201517ffffffffffffffffffffffffffffffffffffffffffffffffffffffffefffffc2f61326a9190615a55565b836003600481106132a4577f4e487b7100000000000000000000000000000000000000000000000000000000600052603260045260246000fd5b602002015108816001600481106132e4577f4e487b7100000000000000000000000000000000000000000000000000000000600052603260045260246000fd5b6020020181815250507ffffffffffffffffffffffffffffffffffffffffffffffffffffffffefffffc2f80613342577f4e487b7100000000000000000000000000000000000000000000000000000000600052601260045260246000fd5b8160006004811061337c577f4e487b7100000000000000000000000000000000000000000000000000000000600052603260045260246000fd5b6020020151826000600481106133bb577f4e487b7100000000000000000000000000000000000000000000000000000000600052603260045260246000fd5b602002015109816002600481106133fb577f4e487b7100000000000000000000000000000000000000000000000000000000600052603260045260246000fd5b6020020181815250507ffffffffffffffffffffffffffffffffffffffffffffffffffffffffefffffc2f80613459577f4e487b7100000000000000000000000000000000000000000000000000000000600052601260045260246000fd5b81600060048110613493577f4e487b7100000000000000000000000000000000000000000000000000000000600052603260045260246000fd5b6020020151826002600481106134d2577f4e487b7100000000000000000000000000000000000000000000000000000000600052603260045260246000fd5b60200201510981600360048110613512577f4e487b7100000000000000000000000000000000000000000000000000000000600052603260045260246000fd5b60200201818152505060007ffffffffffffffffffffffffffffffffffffffffffffffffffffffffefffffc2f80613572577f4e487b7100000000000000000000000000000000000000000000000000000000600052601260045260246000fd5b826003600481106135ac577f4e487b7100000000000000000000000000000000000000000000000000000000600052603260045260246000fd5b60200201517ffffffffffffffffffffffffffffffffffffffffffffffffffffffffefffffc2f6135dc9190615a55565b7ffffffffffffffffffffffffffffffffffffffffffffffffffffffffefffffc2f80613631577f4e487b7100000000000000000000000000000000000000000000000000000000600052601260045260246000fd5b8460016004811061366b577f4e487b7100000000000000000000000000000000000000000000000000000000600052603260045260246000fd5b6020020151856001600481106136aa577f4e487b7100000000000000000000000000000000000000000000000000000000600052603260045260246000fd5b6020020151090890507ffffffffffffffffffffffffffffffffffffffffffffffffffffffffefffffc2f80613708577f4e487b7100000000000000000000000000000000000000000000000000000000600052601260045260246000fd5b7ffffffffffffffffffffffffffffffffffffffffffffffffffffffffefffffc2f8061375d577f4e487b7100000000000000000000000000000000000000000000000000000000600052601260045260246000fd5b7ffffffffffffffffffffffffffffffffffffffffffffffffffffffffefffffc2f806137b2577f4e487b7100000000000000000000000000000000000000000000000000000000600052601260045260246000fd5b846002600481106137ec577f4e487b7100000000000000000000000000000000000000000000000000000000600052603260045260246000fd5b60200201518660006004811061382b577f4e487b7100000000000000000000000000000000000000000000000000000000600052603260045260246000fd5b6020020151096002097ffffffffffffffffffffffffffffffffffffffffffffffffffffffffefffffc2f61385f9190615a55565b8208905060007ffffffffffffffffffffffffffffffffffffffffffffffffffffffffefffffc2f806138ba577f4e487b7100000000000000000000000000000000000000000000000000000000600052601260045260246000fd5b7ffffffffffffffffffffffffffffffffffffffffffffffffffffffffefffffc2f8061390f577f4e487b7100000000000000000000000000000000000000000000000000000000600052601260045260246000fd5b837ffffffffffffffffffffffffffffffffffffffffffffffffffffffffefffffc2f61393b9190615a55565b7ffffffffffffffffffffffffffffffffffffffffffffffffffffffffefffffc2f80613990577f4e487b7100000000000000000000000000000000000000000000000000000000600052601260045260246000fd5b866002600481106139ca577f4e487b7100000000000000000000000000000000000000000000000000000000600052603260045260246000fd5b602002015188600060048110613a09577f4e487b7100000000000000000000000000000000000000000000000000000000600052603260045260246000fd5b6020020151090884600160048110613a4a577f4e487b7100000000000000000000000000000000000000000000000000000000600052603260045260246000fd5b60200201510990507ffffffffffffffffffffffffffffffffffffffffffffffffffffffffefffffc2f80613aa7577f4e487b7100000000000000000000000000000000000000000000000000000000600052601260045260246000fd5b7ffffffffffffffffffffffffffffffffffffffffffffffffffffffffefffffc2f80613afc577f4e487b7100000000000000000000000000000000000000000000000000000000600052601260045260246000fd5b84600360048110613b36577f4e487b7100000000000000000000000000000000000000000000000000000000600052603260045260246000fd5b602002015186600160048110613b75577f4e487b7100000000000000000000000000000000000000000000000000000000600052603260045260246000fd5b6020020151097ffffffffffffffffffffffffffffffffffffffffffffffffffffffffefffffc2f613ba69190615a55565b8208905060007ffffffffffffffffffffffffffffffffffffffffffffffffffffffffefffffc2f80613c01577f4e487b7100000000000000000000000000000000000000000000000000000000600052601260045260246000fd5b7ffffffffffffffffffffffffffffffffffffffffffffffffffffffffefffffc2f80613c56577f4e487b7100000000000000000000000000000000000000000000000000000000600052601260045260246000fd5b8a8e0985600060048110613c93577f4e487b7100000000000000000000000000000000000000000000000000000000600052603260045260246000fd5b602002015109905082828297509750975050505050505b96509650969350505050565b600080600080841415613cd1578585859250925092506143fd565b60007ffffffffffffffffffffffffffffffffffffffffffffffffffffffffefffffc2f80613d28577f4e487b7100000000000000000000000000000000000000000000000000000000600052601260045260246000fd5b878809905060007ffffffffffffffffffffffffffffffffffffffffffffffffffffffffefffffc2f80613d84577f4e487b7100000000000000000000000000000000000000000000000000000000600052601260045260246000fd5b878809905060007ffffffffffffffffffffffffffffffffffffffffffffffffffffffffefffffc2f80613de0577f4e487b7100000000000000000000000000000000000000000000000000000000600052601260045260246000fd5b878809905060007ffffffffffffffffffffffffffffffffffffffffffffffffffffffffefffffc2f80613e3c577f4e487b7100000000000000000000000000000000000000000000000000000000600052601260045260246000fd5b7ffffffffffffffffffffffffffffffffffffffffffffffffffffffffefffffc2f80613e91577f4e487b7100000000000000000000000000000000000000000000000000000000600052601260045260246000fd5b848c09600409905060007ffffffffffffffffffffffffffffffffffffffffffffffffffffffffefffffc2f80613ef0577f4e487b7100000000000000000000000000000000000000000000000000000000600052601260045260246000fd5b7ffffffffffffffffffffffffffffffffffffffffffffffffffffffffefffffc2f80613f45577f4e487b7100000000000000000000000000000000000000000000000000000000600052601260045260246000fd5b7ffffffffffffffffffffffffffffffffffffffffffffffffffffffffefffffc2f80613f9a577f4e487b7100000000000000000000000000000000000000000000000000000000600052601260045260246000fd5b8586096000097ffffffffffffffffffffffffffffffffffffffffffffffffffffffffefffffc2f80613ff5577f4e487b7100000000000000000000000000000000000000000000000000000000600052601260045260246000fd5b876003090890507ffffffffffffffffffffffffffffffffffffffffffffffffffffffffefffffc2f80614051577f4e487b7100000000000000000000000000000000000000000000000000000000600052601260045260246000fd5b7ffffffffffffffffffffffffffffffffffffffffffffffffffffffffefffffc2f806140a6577f4e487b7100000000000000000000000000000000000000000000000000000000600052601260045260246000fd5b8384087ffffffffffffffffffffffffffffffffffffffffffffffffffffffffefffffc2f6140d49190615a55565b7ffffffffffffffffffffffffffffffffffffffffffffffffffffffffefffffc2f80614129577f4e487b7100000000000000000000000000000000000000000000000000000000600052601260045260246000fd5b8384090894507ffffffffffffffffffffffffffffffffffffffffffffffffffffffffefffffc2f80614184577f4e487b7100000000000000000000000000000000000000000000000000000000600052601260045260246000fd5b7ffffffffffffffffffffffffffffffffffffffffffffffffffffffffefffffc2f806141d9577f4e487b7100000000000000000000000000000000000000000000000000000000600052601260045260246000fd5b7ffffffffffffffffffffffffffffffffffffffffffffffffffffffffefffffc2f8061422e577f4e487b7100000000000000000000000000000000000000000000000000000000600052601260045260246000fd5b8687096008097ffffffffffffffffffffffffffffffffffffffffffffffffffffffffefffffc2f61425f9190615a55565b7ffffffffffffffffffffffffffffffffffffffffffffffffffffffffefffffc2f806142b4577f4e487b7100000000000000000000000000000000000000000000000000000000600052601260045260246000fd5b7ffffffffffffffffffffffffffffffffffffffffffffffffffffffffefffffc2f80614309577f4e487b7100000000000000000000000000000000000000000000000000000000600052601260045260246000fd5b887ffffffffffffffffffffffffffffffffffffffffffffffffffffffffefffffc2f6143359190615a55565b860884090893507ffffffffffffffffffffffffffffffffffffffffffffffffffffffffefffffc2f80614391577f4e487b7100000000000000000000000000000000000000000000000000000000600052601260045260246000fd5b7ffffffffffffffffffffffffffffffffffffffffffffffffffffffffefffffc2f806143e6577f4e487b7100000000000000000000000000000000000000000000000000000000600052601260045260246000fd5b8a8c09600209925084848497509750975050505050505b93509350939050565b6000806000614435847ffffffffffffffffffffffffffffffffffffffffffffffffffffffffefffffc2f61250d565b905060007ffffffffffffffffffffffffffffffffffffffffffffffffffffffffefffffc2f8061448e577f4e487b7100000000000000000000000000000000000000000000000000000000600052601260045260246000fd5b828309905060007ffffffffffffffffffffffffffffffffffffffffffffffffffffffffefffffc2f806144ea577f4e487b7100000000000000000000000000000000000000000000000000000000600052601260045260246000fd5b828909905060007ffffffffffffffffffffffffffffffffffffffffffffffffffffffffefffffc2f80614546577f4e487b7100000000000000000000000000000000000000000000000000000000600052601260045260246000fd5b7ffffffffffffffffffffffffffffffffffffffffffffffffffffffffefffffc2f8061459b577f4e487b7100000000000000000000000000000000000000000000000000000000600052601260045260246000fd5b8486098909905081819550955050505050935093915050565b8280546145c090615b52565b90600052602060002090601f0160209004810192826145e25760008555614629565b82601f106145fb57805160ff1916838001178555614629565b82800160010185558215614629579182015b8281111561462857825182559160200191906001019061460d565b5b5090506146369190614767565b5090565b50805461464690615b52565b6000825580601f106146585750614677565b601f0160209004906000526020600020908101906146769190614767565b5b50565b6040518060a00160405280600073ffffffffffffffffffffffffffffffffffffffff168152602001606081526020016060815260200160608152602001606081525090565b8280546146cb90615b52565b90600052602060002090601f0160209004810192826146ed5760008555614734565b82601f1061470657805160ff1916838001178555614734565b82800160010185558215614734579182015b82811115614733578251825591602001919060010190614718565b5b5090506147419190614767565b5090565b6040518060800160405280600490602082028036833780820191505090505090565b5b80821115614780576000816000905550600101614768565b5090565b6000614797614792846157f9565b6157c8565b9050808382526020820190508260005b858110156147d757815185016147bd888261491a565b8452602084019350602083019250506001810190506147a7565b5050509392505050565b60006147f46147ef84615825565b6157c8565b90508281526020810184848401111561480c57600080fd5b614817848285615b10565b509392505050565b600061483261482d84615825565b6157c8565b90508281526020810184848401111561484a57600080fd5b614855848285615b1f565b509392505050565b60008135905061486c81615cae565b92915050565b60008151905061488181615cae565b92915050565b600082601f83011261489857600080fd5b81516148a8848260208601614784565b91505092915050565b6000813590506148c081615cc5565b92915050565b600082601f8301126148d757600080fd5b81356148e78482602086016147e1565b91505092915050565b600082601f83011261490157600080fd5b815161491184826020860161481f565b91505092915050565b60006080828403121561492c57600080fd5b61493660806157c8565b9050600082015167ffffffffffffffff81111561495257600080fd5b61495e848285016148f0565b600083015250602082015167ffffffffffffffff81111561497e57600080fd5b61498a848285016148f0565b602083015250604082015167ffffffffffffffff8111156149aa57600080fd5b6149b6848285016148f0565b604083015250606082015167ffffffffffffffff8111156149d657600080fd5b6149e2848285016148f0565b60608301525092915050565b6000813590506149fd81615cdc565b92915050565b600060208284031215614a1557600080fd5b6000614a238482850161485d565b91505092915050565b600060208284031215614a3e57600080fd5b6000614a4c84828501614872565b91505092915050565b600060208284031215614a6757600080fd5b600082015167ffffffffffffffff811115614a8157600080fd5b614a8d84828501614887565b91505092915050565b60008060008060808587031215614aac57600080fd5b6000614aba878288016148b1565b9450506020614acb878288016149ee565b9350506040614adc878288016148b1565b9250506060614aed878288016148b1565b91505092959194509250565b60008060008060008060008060006101208a8c031215614b1857600080fd5b6000614b268c828d016148b1565b9950506020614b378c828d016149ee565b9850506040614b488c828d016148b1565b9750506060614b598c828d016148b1565b9650506080614b6a8c828d0161485d565b95505060a08a013567ffffffffffffffff811115614b8757600080fd5b614b938c828d016148c6565b94505060c08a013567ffffffffffffffff811115614bb057600080fd5b614bbc8c828d016148c6565b93505060e08a013567ffffffffffffffff811115614bd957600080fd5b614be58c828d016148c6565b9250506101008a013567ffffffffffffffff811115614c0357600080fd5b614c0f8c828d016148c6565b9150509295985092959850929598565b600080600080600060a08688031215614c3757600080fd5b6000614c45888289016148b1565b9550506020614c56888289016149ee565b9450506040614c67888289016148b1565b9350506060614c78888289016148b1565b925050608086013567ffffffffffffffff811115614c9557600080fd5b614ca1888289016148c6565b9150509295509295909350565b600080600080600060a08688031215614cc657600080fd5b600086013567ffffffffffffffff811115614ce057600080fd5b614cec888289016148c6565b9550506020614cfd888289016148b1565b9450506040614d0e888289016149ee565b9350506060614d1f888289016148b1565b9250506080614d30888289016148b1565b9150509295509295909350565b600080600080600080600080610100898b031215614d5a57600080fd5b600089013567ffffffffffffffff811115614d7457600080fd5b614d808b828c016148c6565b985050602089013567ffffffffffffffff811115614d9d57600080fd5b614da98b828c016148c6565b975050604089013567ffffffffffffffff811115614dc657600080fd5b614dd28b828c016148c6565b965050606089013567ffffffffffffffff811115614def57600080fd5b614dfb8b828c016148c6565b9550506080614e0c8b828c016148b1565b94505060a0614e1d8b828c016149ee565b93505060c0614e2e8b828c016148b1565b92505060e0614e3f8b828c016148b1565b9150509295985092959890939650565b6000614e5b8383614e8f565b60208301905092915050565b6000614e73838361538d565b905092915050565b6000614e878383615405565b905092915050565b614e9881615abd565b82525050565b614ea781615abd565b82525050565b6000614eb88261589a565b614ec281856158f8565b9350614ecd83615855565b8060005b83811015614efe578151614ee58882614e4f565b9750614ef0836158d1565b925050600181019050614ed1565b5085935050505092915050565b6000614f16826158a5565b614f208185615909565b935083602082028501614f3285615865565b8060005b85811015614f6e5784840389528151614f4f8582614e67565b9450614f5a836158de565b925060208a01995050600181019050614f36565b50829750879550505050505092915050565b6000614f8b826158b0565b614f95818561591a565b935083602082028501614fa785615875565b8060005b85811015614fe35784840389528151614fc48582614e7b565b9450614fcf836158eb565b925060208a01995050600181019050614fab565b50829750879550505050505092915050565b614ffe81615acf565b82525050565b61501561501082615acf565b615bcd565b82525050565b6000615026826158bb565b615030818561592b565b9350615040818560208601615b1f565b61504981615c9d565b840191505092915050565b600061505f826158bb565b615069818561593c565b9350615079818560208601615b1f565b80840191505092915050565b6000615090826158c6565b61509a8185615947565b93506150aa818560208601615b1f565b6150b381615c9d565b840191505092915050565b60006150c9826158c6565b6150d38185615958565b93506150e3818560208601615b1f565b6150ec81615c9d565b840191505092915050565b6000615102826158c6565b61510c8185615969565b935061511c818560208601615b1f565b80840191505092915050565b6000815461513581615b52565b61513f8186615969565b9450600182166000811461515a576001811461516b5761519e565b60ff1983168652818601935061519e565b61517485615885565b60005b8381101561519657815481890152600182019150602081019050615177565b838801955050505b50505092915050565b60006151b4600e83615958565b91507f646f6573206e6f742065786973740000000000000000000000000000000000006000830152602082019050919050565b60006151f4600683615958565b91507f45525236393100000000000000000000000000000000000000000000000000006000830152602082019050919050565b6000615234603a83615958565b91507f4f776e61626c65236f6e6c794f776e65724f7243726561746f723a2053454e4460008301527f45525f49535f4e4f545f4f574e45525f4f525f43524541544f520000000000006020830152604082019050919050565b600061529a601e83615958565b91507f557365206a6163446f75626c652066756e6374696f6e20696e737465616400006000830152602082019050919050565b60006152da600983615958565b91507f53524145786973747300000000000000000000000000000000000000000000006000830152602082019050919050565b600061531a600683615958565b91507f45525232313400000000000000000000000000000000000000000000000000006000830152602082019050919050565b600061535a600e83615958565b91507f496e76616c6964206e756d6265720000000000000000000000000000000000006000830152602082019050919050565b600060808301600083015184820360008601526153aa8282615085565b915050602083015184820360208601526153c48282615085565b915050604083015184820360408601526153de8282615085565b915050606083015184820360608601526153f88282615085565b9150508091505092915050565b600060a08301600083015161541d6000860182614e8f565b50602083015184820360208601526154358282615085565b9150506040830151848203604086015261544f8282615085565b915050606083015184820360608601526154698282615085565b915050608083015184820360808601526154838282615085565b9150508091505092915050565b6154a161549c82615af9565b615bd7565b82525050565b6154b081615b03565b82525050565b60006154c28285615054565b91506154ce8284615004565b6020820191508190509392505050565b60006154ea82846150f7565b915081905092915050565b60006155018284615128565b915081905092915050565b60006155188285615490565b6020820191506155288284615490565b6020820191508190509392505050565b600060208201905061554d6000830184614e9e565b92915050565b60006040820190506155686000830185614e9e565b818103602083015261557a81846150be565b90509392505050565b6000604082019050818103600083015261559d8185614ead565b905081810360208301526155b18184614ead565b90509392505050565b600060208201905081810360008301526155d48184614f0b565b905092915050565b600060208201905081810360008301526155f68184614f80565b905092915050565b60006080820190506156136000830187614ff5565b61562060208301866154a7565b61562d6040830185614ff5565b61563a6060830184614ff5565b95945050505050565b6000602082019050818103600083015261565d818461501b565b905092915050565b6000602082019050818103600083015261567f81846150be565b905092915050565b600060808201905081810360008301526156a181876150be565b905081810360208301526156b581866150be565b905081810360408301526156c981856150be565b905081810360608301526156dd81846150be565b905095945050505050565b60006020820190508181036000830152615701816151a7565b9050919050565b60006020820190508181036000830152615721816151e7565b9050919050565b6000602082019050818103600083015261574181615227565b9050919050565b600060208201905081810360008301526157618161528d565b9050919050565b60006020820190508181036000830152615781816152cd565b9050919050565b600060208201905081810360008301526157a18161530d565b9050919050565b600060208201905081810360008301526157c18161534d565b9050919050565b6000604051905081810181811067ffffffffffffffff821117156157ef576157ee615c6e565b5b8060405250919050565b600067ffffffffffffffff82111561581457615813615c6e565b5b602082029050602081019050919050565b600067ffffffffffffffff8211156158405761583f615c6e565b5b601f19601f8301169050602081019050919050565b6000819050602082019050919050565b6000819050602082019050919050565b6000819050602082019050919050565b60008190508160005260206000209050919050565b600081519050919050565b600081519050919050565b600081519050919050565b600081519050919050565b600081519050919050565b6000602082019050919050565b6000602082019050919050565b6000602082019050919050565b600082825260208201905092915050565b600082825260208201905092915050565b600082825260208201905092915050565b600082825260208201905092915050565b600081905092915050565b600082825260208201905092915050565b600082825260208201905092915050565b600081905092915050565b600061597f82615af9565b915061598a83615af9565b9250827fffffffffffffffffffffffffffffffffffffffffffffffffffffffffffffffff038211156159bf576159be615be1565b5b828201905092915050565b60006159d582615af9565b91506159e083615af9565b9250826159f0576159ef615c10565b5b828204905092915050565b6000615a0682615af9565b9150615a1183615af9565b9250817fffffffffffffffffffffffffffffffffffffffffffffffffffffffffffffffff0483118215151615615a4a57615a49615be1565b5b828202905092915050565b6000615a6082615af9565b9150615a6b83615af9565b925082821015615a7e57615a7d615be1565b5b828203905092915050565b6000615a9482615b03565b9150615a9f83615b03565b925082821015615ab257615ab1615be1565b5b828203905092915050565b6000615ac882615ad9565b9050919050565b6000819050919050565b600073ffffffffffffffffffffffffffffffffffffffff82169050919050565b6000819050919050565b600060ff82169050919050565b82818337600083830152505050565b60005b83811015615b3d578082015181840152602081019050615b22565b83811115615b4c576000848401525b50505050565b60006002820490506001821680615b6a57607f821691505b60208210811415615b7e57615b7d615c3f565b5b50919050565b6000615b8f82615af9565b91507fffffffffffffffffffffffffffffffffffffffffffffffffffffffffffffffff821415615bc257615bc1615be1565b5b600182019050919050565b6000819050919050565b6000819050919050565b7f4e487b7100000000000000000000000000000000000000000000000000000000600052601160045260246000fd5b7f4e487b7100000000000000000000000000000000000000000000000000000000600052601260045260246000fd5b7f4e487b7100000000000000000000000000000000000000000000000000000000600052602260045260246000fd5b7f4e487b7100000000000000000000000000000000000000000000000000000000600052604160045260246000fd5b6000601f19601f8301169050919050565b615cb781615abd565b8114615cc257600080fd5b50565b615cce81615acf565b8114615cd957600080fd5b50565b615ce581615b03565b8114615cf057600080fd5b5056fea264697066735822122038849d254ebe3221ebbc73526e76d511def3ab98937bcffb77fe8108f0dab77564736f6c63430008000033",
  "immutableReferences": {},
  "source": "// SPDX-License-Identifier: MIT\npragma solidity ^0.8.0;\npragma experimental ABIEncoderV2;\n\nimport \"./utils/Ownable.sol\";\nimport \"./utils/SigUtils.sol\";\nimport \"./utils/SECP256K1.sol\";\nimport \"./utils/ShareManager.sol\";\nimport \"./utils/File.sol\";\nimport \"./utils/UseDeployer.sol\";\nimport \"./utils/User.sol\";\nimport \"./interfaces/IVaultDeployer.sol\";\nimport \"./interfaces/IVault.sol\";\n\ncontract PeerSafeDeployer is Ownable {\n    mapping(address => User) users;\n    address[] keys;\n    address deployer;\n    using ShareManager for ShareRequests;\n    ShareRequests shareRequests;\n\n    constructor (address _deployer) Ownable(msg.sender, msg.sender) {\n        deployer = _deployer;\n    }\n\n    function getVault(address _vaultOwner) external view returns(address) {\n        IVault _v = users[_vaultOwner].vault;\n        require(address(_v) != address(0), \"does not exist\");\n        return address(_v);\n    }\n\n    function deploy(string memory _userName, bytes32 _hashedMessage, uint8 _v, bytes32 _r, bytes32 _s) external returns(address) {\n        (address signer, bytes memory pubKey) = SECP256K1.recoverSignerAndPubKey(_hashedMessage, _v, _r, _s);\n        IVault _vault = IVault(IVaultDeployer(deployer).deploy(signer, _userName));\n        users[signer] = User(_vault, pubKey);\n        keys.push(signer);\n        return address(_vault);\n    }\n\n    function createFile(string memory name, string memory fileType, string memory ipfsHash, string memory key, bytes32 _hashedMessage, uint8 _v, bytes32 _r, bytes32 _s) external {\n        address signer = SigUtils.recoverSigner(_hashedMessage, _v, _r, _s);\n        IVault _vault = users[signer].vault;\n        _vault.createFile(name, fileType, ipfsHash, key);\n    }\n\n    function getAllFiles(bytes32 _hashedMessage, uint8 _v, bytes32 _r, bytes32 _s) external view returns(File[] memory) {\n        address signer = SigUtils.recoverSigner(_hashedMessage, _v, _r, _s);\n        IVault _vault = users[signer].vault;\n        return _vault.getAllFiles();\n    }\n\n    function deleteFile(bytes32 _hashedMessage, uint8 _v, bytes32 _r, bytes32 _s, string memory ipfsHash) external {\n        address signer = SigUtils.recoverSigner(_hashedMessage, _v, _r, _s);\n        IVault _vault = users[signer].vault;\n        return _vault.deleteFile(ipfsHash);\n    }\n\n    function getPubKey(address _user) external view returns(bytes memory) {\n        return users[_user].pubKey;\n    }\n\n    function sendShareRequest(bytes32 _hashedMessage, uint8 _v, bytes32 _r, bytes32 _s, address _to, string memory _fileHash, string memory _keyHash, string memory _name, string memory _fileType) external {\n        require(_to != address(0), \"ERR691\");\n        require(users[_to].pubKey.length != 0, \"ERR691\");\n        address signer = SigUtils.recoverSigner(_hashedMessage, _v, _r, _s);\n        shareRequests.addShareRequest(signer, _to, _fileHash, _keyHash, _name, _fileType);\n    }\n\n    function getShareRequests() external view returns(ShareRequest[] memory) {\n        return shareRequests.getShareRequests();\n    }\n\n    function acceptShareRequest(bytes32 _hashedMessage, uint8 _v, bytes32 _r, bytes32 _s, string memory _fileHash) external {\n        address signer = SigUtils.recoverSigner(_hashedMessage, _v, _r, _s);\n        require(shareRequests._shareRequests[signer][_fileHash]._from != address(0), \"ERR214\");\n        require(users[signer].pubKey.length != 0, \"ERR691\");\n        IVault _vault = users[signer].vault;\n        ShareRequest memory _shareRequest = shareRequests._shareRequests[signer][_fileHash];\n        _vault.createFile(_shareRequest._name, _shareRequest._fileType, _shareRequest._fileHash, _shareRequest._keyHash);\n        shareRequests.deleteShareRequest(signer, _fileHash);\n    }\n\n    function rejectShareRequest(bytes32 _hashedMessage, uint8 _v, bytes32 _r, bytes32 _s, string memory _fileHash) external {\n        address signer = SigUtils.recoverSigner(_hashedMessage, _v, _r, _s);\n        shareRequests.deleteShareRequest(signer, _fileHash);\n    }\n\n    function adminAllVaults() external view onlyOwnerOrCreator returns(address[] memory, address[] memory) {\n        address[] memory _vaults;\n\n        for (uint i = 0; i < keys.length; i++) {\n            _vaults[i] = address(users[keys[i]].vault);\n        }\n\n        return (keys, _vaults);\n    }\n\n    // function adminMigrate(bytes32 _hashedMessage, uint8 _v, bytes32 _r, bytes32 _s, address[] memory _users, address[] memory _oldVaults) external onlyOwnerOrCreator{\n    //     require(_users.length == _oldVaults.length, 'length should be equal');\n\n    //     for (uint i = 0; i < _users.length; i++) {\n    //         IVault _newVault = IVault(UseDeployer.deployVault(deployer, owner, IVault(_oldVaults[i]).getUser()));\n    //         users[_users[i]] = _newVault;\n    //         _newVault.migrateFiles(_hashedMessage, _v, _r, _s, IVault(_oldVaults[i]).getAllFiles());\n    //     }\n    // }\n}",
  "sourcePath": "/Users/shubhaankar/github.com/peer-safe/contracts/contracts/PeerSafeDeployer.sol",
  "compiler": {
    "name": "solc",
    "version": "0.8.0+commit.c7dfd78e.Emscripten.clang"
  },
  "schemaVersion": "3.4.14",
  "updatedAt": "2023-06-17T03:00:29.808Z",
  "networkType": "ethereum",
  "devdoc": {
    "kind": "dev",
    "methods": {},
    "version": 1
  },
  "userdoc": {
    "kind": "user",
    "methods": {},
    "version": 1
  }
}