{
  "contractName": "PeerSafeDeployer",
  "abi": [
    {
      "inputs": [
        {
          "internalType": "address",
          "name": "_deployer",
          "type": "address"
        }
      ],
      "stateMutability": "nonpayable",
      "type": "constructor"
    },
    {
      "anonymous": false,
      "inputs": [
        {
          "indexed": true,
          "internalType": "address",
          "name": "previousOwner",
          "type": "address"
        },
        {
          "indexed": true,
          "internalType": "address",
          "name": "newOwner",
          "type": "address"
        }
      ],
      "name": "OwnershipTransferred",
      "type": "event"
    },
    {
      "inputs": [],
      "name": "getCreator",
      "outputs": [
        {
          "internalType": "address",
          "name": "",
          "type": "address"
        }
      ],
      "stateMutability": "view",
      "type": "function",
      "constant": true
    },
    {
      "inputs": [],
      "name": "getOwner",
      "outputs": [
        {
          "internalType": "address",
          "name": "",
          "type": "address"
        }
      ],
      "stateMutability": "view",
      "type": "function",
      "constant": true
    },
    {
      "inputs": [
        {
          "internalType": "address",
          "name": "_vaultOwner",
          "type": "address"
        }
      ],
      "name": "getVault",
      "outputs": [
        {
          "internalType": "address",
          "name": "",
          "type": "address"
        }
      ],
      "stateMutability": "view",
      "type": "function",
      "constant": true
    },
    {
      "inputs": [
        {
          "internalType": "string",
          "name": "_userName",
          "type": "string"
        },
        {
          "internalType": "bytes32",
          "name": "_hashedMessage",
          "type": "bytes32"
        },
        {
          "internalType": "uint8",
          "name": "_v",
          "type": "uint8"
        },
        {
          "internalType": "bytes32",
          "name": "_r",
          "type": "bytes32"
        },
        {
          "internalType": "bytes32",
          "name": "_s",
          "type": "bytes32"
        }
      ],
      "name": "deploy",
      "outputs": [
        {
          "internalType": "address",
          "name": "",
          "type": "address"
        }
      ],
      "stateMutability": "nonpayable",
      "type": "function"
    },
    {
      "inputs": [
        {
          "internalType": "string",
          "name": "name",
          "type": "string"
        },
        {
          "internalType": "string",
          "name": "fileType",
          "type": "string"
        },
        {
          "internalType": "string",
          "name": "ipfsHash",
          "type": "string"
        },
        {
          "internalType": "string",
          "name": "key",
          "type": "string"
        },
        {
          "internalType": "bytes32",
          "name": "_hashedMessage",
          "type": "bytes32"
        },
        {
          "internalType": "uint8",
          "name": "_v",
          "type": "uint8"
        },
        {
          "internalType": "bytes32",
          "name": "_r",
          "type": "bytes32"
        },
        {
          "internalType": "bytes32",
          "name": "_s",
          "type": "bytes32"
        }
      ],
      "name": "createFile",
      "outputs": [],
      "stateMutability": "nonpayable",
      "type": "function"
    },
    {
      "inputs": [
        {
          "internalType": "bytes32",
          "name": "_hashedMessage",
          "type": "bytes32"
        },
        {
          "internalType": "uint8",
          "name": "_v",
          "type": "uint8"
        },
        {
          "internalType": "bytes32",
          "name": "_r",
          "type": "bytes32"
        },
        {
          "internalType": "bytes32",
          "name": "_s",
          "type": "bytes32"
        }
      ],
      "name": "getAllFiles",
      "outputs": [
        {
          "components": [
            {
              "internalType": "string",
              "name": "_name",
              "type": "string"
            },
            {
              "internalType": "string",
              "name": "_fileType",
              "type": "string"
            },
            {
              "internalType": "string",
              "name": "_ipfsHash",
              "type": "string"
            },
            {
              "internalType": "string",
              "name": "_key",
              "type": "string"
            },
            {
              "internalType": "address",
              "name": "_sharedBy",
              "type": "address"
            }
          ],
          "internalType": "struct File[]",
          "name": "",
          "type": "tuple[]"
        }
      ],
      "stateMutability": "view",
      "type": "function",
      "constant": true
    },
    {
      "inputs": [
        {
          "internalType": "bytes32",
          "name": "_hashedMessage",
          "type": "bytes32"
        },
        {
          "internalType": "uint8",
          "name": "_v",
          "type": "uint8"
        },
        {
          "internalType": "bytes32",
          "name": "_r",
          "type": "bytes32"
        },
        {
          "internalType": "bytes32",
          "name": "_s",
          "type": "bytes32"
        },
        {
          "internalType": "string",
          "name": "ipfsHash",
          "type": "string"
        }
      ],
      "name": "deleteFile",
      "outputs": [],
      "stateMutability": "nonpayable",
      "type": "function"
    },
    {
      "inputs": [
        {
          "internalType": "address",
          "name": "_user",
          "type": "address"
        }
      ],
      "name": "getPubKey",
      "outputs": [
        {
          "internalType": "bytes",
          "name": "",
          "type": "bytes"
        }
      ],
      "stateMutability": "view",
      "type": "function",
      "constant": true
    },
    {
      "inputs": [
        {
          "internalType": "bytes32",
          "name": "_hashedMessage",
          "type": "bytes32"
        },
        {
          "internalType": "uint8",
          "name": "_v",
          "type": "uint8"
        },
        {
          "internalType": "bytes32",
          "name": "_r",
          "type": "bytes32"
        },
        {
          "internalType": "bytes32",
          "name": "_s",
          "type": "bytes32"
        },
        {
          "internalType": "address",
          "name": "_to",
          "type": "address"
        },
        {
          "internalType": "string",
          "name": "_fileHash",
          "type": "string"
        },
        {
          "internalType": "string",
          "name": "_keyHash",
          "type": "string"
        },
        {
          "internalType": "string",
          "name": "_name",
          "type": "string"
        },
        {
          "internalType": "string",
          "name": "_fileType",
          "type": "string"
        }
      ],
      "name": "sendShareRequest",
      "outputs": [],
      "stateMutability": "nonpayable",
      "type": "function"
    },
    {
      "inputs": [
        {
          "internalType": "bytes32",
          "name": "_hashedMessage",
          "type": "bytes32"
        },
        {
          "internalType": "uint8",
          "name": "_v",
          "type": "uint8"
        },
        {
          "internalType": "bytes32",
          "name": "_r",
          "type": "bytes32"
        },
        {
          "internalType": "bytes32",
          "name": "_s",
          "type": "bytes32"
        }
      ],
      "name": "getShareRequests",
      "outputs": [
        {
          "components": [
            {
              "internalType": "address",
              "name": "_from",
              "type": "address"
            },
            {
              "internalType": "string",
              "name": "_fileHash",
              "type": "string"
            },
            {
              "internalType": "string",
              "name": "_keyHash",
              "type": "string"
            },
            {
              "internalType": "string",
              "name": "_name",
              "type": "string"
            },
            {
              "internalType": "string",
              "name": "_fileType",
              "type": "string"
            }
          ],
          "internalType": "struct ShareRequest[]",
          "name": "",
          "type": "tuple[]"
        }
      ],
      "stateMutability": "view",
      "type": "function",
      "constant": true
    },
    {
      "inputs": [
        {
          "internalType": "bytes32",
          "name": "_hashedMessage",
          "type": "bytes32"
        },
        {
          "internalType": "uint8",
          "name": "_v",
          "type": "uint8"
        },
        {
          "internalType": "bytes32",
          "name": "_r",
          "type": "bytes32"
        },
        {
          "internalType": "bytes32",
          "name": "_s",
          "type": "bytes32"
        },
        {
          "internalType": "string",
          "name": "_fileHash",
          "type": "string"
        }
      ],
      "name": "acceptShareRequest",
      "outputs": [],
      "stateMutability": "nonpayable",
      "type": "function"
    },
    {
      "inputs": [
        {
          "internalType": "bytes32",
          "name": "_hashedMessage",
          "type": "bytes32"
        },
        {
          "internalType": "uint8",
          "name": "_v",
          "type": "uint8"
        },
        {
          "internalType": "bytes32",
          "name": "_r",
          "type": "bytes32"
        },
        {
          "internalType": "bytes32",
          "name": "_s",
          "type": "bytes32"
        },
        {
          "internalType": "string",
          "name": "_fileHash",
          "type": "string"
        }
      ],
      "name": "rejectShareRequest",
      "outputs": [],
      "stateMutability": "nonpayable",
      "type": "function"
    },
    {
      "inputs": [],
      "name": "adminAllVaults",
      "outputs": [
        {
          "internalType": "address[]",
          "name": "",
          "type": "address[]"
        },
        {
          "internalType": "address[]",
          "name": "",
          "type": "address[]"
        }
      ],
      "stateMutability": "view",
      "type": "function",
      "constant": true
    }
  ],
  "bytecode": "0x60806040523480156200001157600080fd5b506040516200606838038062006068833981810160405281019062000037919062000176565b3333806000806101000a81548173ffffffffffffffffffffffffffffffffffffffff021916908373ffffffffffffffffffffffffffffffffffffffff16021790555081600160006101000a81548173ffffffffffffffffffffffffffffffffffffffff021916908373ffffffffffffffffffffffffffffffffffffffff1602179055508073ffffffffffffffffffffffffffffffffffffffff16600073ffffffffffffffffffffffffffffffffffffffff167f8be0079c531659141344cd1fd0a4f28419497f9722a3daafe3b4186f6b6457e060405160405180910390a3505080600460006101000a81548173ffffffffffffffffffffffffffffffffffffffff021916908373ffffffffffffffffffffffffffffffffffffffff16021790555050620001f0565b6000815190506200017081620001d6565b92915050565b6000602082840312156200018957600080fd5b600062000199848285016200015f565b91505092915050565b6000620001af82620001b6565b9050919050565b600073ffffffffffffffffffffffffffffffffffffffff82169050919050565b620001e181620001a2565b8114620001ed57600080fd5b50565b615e6880620002006000396000f3fe608060405234801561001057600080fd5b50600436106100cf5760003560e01c8063893d20e81161008c578063d8b63c8a11610066578063d8b63c8a14610210578063e04e02831461022f578063e4f0c9161461025f578063fce9512a1461027b576100cf565b8063893d20e8146101a65780639d6944c2146101c4578063b1a81bd5146101f4576100cf565b80630eb9af38146100d45780630ee2cb1014610104578063146aa7f7146101225780632fd005c81461013e578063633072e41461016e5780636b11bc491461018a575b600080fd5b6100ee60048036038101906100e99190614ac0565b6102ab565b6040516100fb9190615608565b60405180910390f35b61010c61038c565b6040516101199190615608565b60405180910390f35b61013c60048036038101906101379190614cdc565b6103b6565b005b61015860048036038101906101539190614b53565b6104a1565b60405161016591906156ac565b60405180910390f35b61018860048036038101906101839190614cdc565b610542565b005b6101a4600480360381019061019f9190614cdc565b610570565b005b6101ae610b1c565b6040516101bb9190615608565b60405180910390f35b6101de60048036038101906101d99190614d6b565b610b45565b6040516101eb9190615608565b60405180910390f35b61020e60048036038101906102099190614dfa565b610d50565b005b610218610e44565b604051610226929190615653565b60405180910390f35b61024960048036038101906102449190614b53565b611121565b604051610256919061568a565b60405180910390f35b61027960048036038101906102749190614bb6565b611229565b005b61029560048036038101906102909190614ac0565b611365565b6040516102a29190615713565b60405180910390f35b600080600260008473ffffffffffffffffffffffffffffffffffffffff1673ffffffffffffffffffffffffffffffffffffffff16815260200190815260200160002060000160009054906101000a900473ffffffffffffffffffffffffffffffffffffffff169050600073ffffffffffffffffffffffffffffffffffffffff168173ffffffffffffffffffffffffffffffffffffffff161415610383576040517f08c379a000000000000000000000000000000000000000000000000000000000815260040161037a90615827565b60405180910390fd5b80915050919050565b6000600160009054906101000a900473ffffffffffffffffffffffffffffffffffffffff16905090565b60006103c486868686611439565b90506000600260008373ffffffffffffffffffffffffffffffffffffffff1673ffffffffffffffffffffffffffffffffffffffff16815260200190815260200160002060000160009054906101000a900473ffffffffffffffffffffffffffffffffffffffff1690508073ffffffffffffffffffffffffffffffffffffffff1663a9910054846040518263ffffffff1660e01b81526004016104669190615735565b600060405180830381600087803b15801561048057600080fd5b505af1158015610494573d6000803e3d6000fd5b5050505050505050505050565b606060006104b186868686611439565b9050600073ffffffffffffffffffffffffffffffffffffffff168173ffffffffffffffffffffffffffffffffffffffff161415610523576040517f08c379a000000000000000000000000000000000000000000000000000000000815260040161051a90615847565b60405180910390fd5b6105378160056114fc90919063ffffffff16565b915050949350505050565b600061055086868686611439565b9050610568818360056119f99092919063ffffffff16565b505050505050565b600061057e86868686611439565b9050600073ffffffffffffffffffffffffffffffffffffffff16600560000160008373ffffffffffffffffffffffffffffffffffffffff1673ffffffffffffffffffffffffffffffffffffffff168152602001908152602001600020836040516105e891906155ae565b908152602001604051809103902060000160009054906101000a900473ffffffffffffffffffffffffffffffffffffffff1673ffffffffffffffffffffffffffffffffffffffff161415610671576040517f08c379a0000000000000000000000000000000000000000000000000000000008152600401610668906158c7565b60405180910390fd5b6000600260008373ffffffffffffffffffffffffffffffffffffffff1673ffffffffffffffffffffffffffffffffffffffff16815260200190815260200160002060010180546106c090615c91565b90501415610703576040517f08c379a00000000000000000000000000000000000000000000000000000000081526004016106fa90615847565b60405180910390fd5b6000600260008373ffffffffffffffffffffffffffffffffffffffff1673ffffffffffffffffffffffffffffffffffffffff16815260200190815260200160002060000160009054906101000a900473ffffffffffffffffffffffffffffffffffffffff1690506000600560000160008473ffffffffffffffffffffffffffffffffffffffff1673ffffffffffffffffffffffffffffffffffffffff168152602001908152602001600020846040516107bc91906155ae565b90815260200160405180910390206040518060a00160405290816000820160009054906101000a900473ffffffffffffffffffffffffffffffffffffffff1673ffffffffffffffffffffffffffffffffffffffff1673ffffffffffffffffffffffffffffffffffffffff16815260200160018201805461083b90615c91565b80601f016020809104026020016040519081016040528092919081815260200182805461086790615c91565b80156108b45780601f10610889576101008083540402835291602001916108b4565b820191906000526020600020905b81548152906001019060200180831161089757829003601f168201915b505050505081526020016002820180546108cd90615c91565b80601f01602080910402602001604051908101604052809291908181526020018280546108f990615c91565b80156109465780601f1061091b57610100808354040283529160200191610946565b820191906000526020600020905b81548152906001019060200180831161092957829003601f168201915b5050505050815260200160038201805461095f90615c91565b80601f016020809104026020016040519081016040528092919081815260200182805461098b90615c91565b80156109d85780601f106109ad576101008083540402835291602001916109d8565b820191906000526020600020905b8154815290600101906020018083116109bb57829003601f168201915b505050505081526020016004820180546109f190615c91565b80601f0160208091040260200160405190810160405280929190818152602001828054610a1d90615c91565b8015610a6a5780601f10610a3f57610100808354040283529160200191610a6a565b820191906000526020600020905b815481529060010190602001808311610a4d57829003601f168201915b50505050508152505090508173ffffffffffffffffffffffffffffffffffffffff1663384e477d826060015183608001518460200151856040015186600001516040518663ffffffff1660e01b8152600401610aca9594939291906157b8565b600060405180830381600087803b158015610ae457600080fd5b505af1158015610af8573d6000803e3d6000fd5b50505050610b12838560056119f99092919063ffffffff16565b5050505050505050565b60008060009054906101000a900473ffffffffffffffffffffffffffffffffffffffff16905090565b6000806000610b5687878787611c8e565b915091506000600460009054906101000a900473ffffffffffffffffffffffffffffffffffffffff1673ffffffffffffffffffffffffffffffffffffffff1663918aaff5848b6040518363ffffffff1660e01b8152600401610bb9929190615623565b602060405180830381600087803b158015610bd357600080fd5b505af1158015610be7573d6000803e3d6000fd5b505050506040513d601f19601f82011682018060405250810190610c0b9190614ae9565b905060405180604001604052808273ffffffffffffffffffffffffffffffffffffffff16815260200183815250600260008573ffffffffffffffffffffffffffffffffffffffff1673ffffffffffffffffffffffffffffffffffffffff16815260200190815260200160002060008201518160000160006101000a81548173ffffffffffffffffffffffffffffffffffffffff021916908373ffffffffffffffffffffffffffffffffffffffff1602179055506020820151816001019080519060200190610cda92919061465d565b509050506003839080600181540180825580915050600190039060005260206000200160009091909190916101000a81548173ffffffffffffffffffffffffffffffffffffffff021916908373ffffffffffffffffffffffffffffffffffffffff16021790555080935050505095945050505050565b6000610d5e85858585611439565b90506000600260008373ffffffffffffffffffffffffffffffffffffffff1673ffffffffffffffffffffffffffffffffffffffff16815260200190815260200160002060000160009054906101000a900473ffffffffffffffffffffffffffffffffffffffff1690508073ffffffffffffffffffffffffffffffffffffffff1663d590e7ef8b8b8b8b6040518563ffffffff1660e01b8152600401610e069493929190615757565b600060405180830381600087803b158015610e2057600080fd5b505af1158015610e34573d6000803e3d6000fd5b5050505050505050505050505050565b60608060008054906101000a900473ffffffffffffffffffffffffffffffffffffffff1673ffffffffffffffffffffffffffffffffffffffff163373ffffffffffffffffffffffffffffffffffffffff161480610eee5750600160009054906101000a900473ffffffffffffffffffffffffffffffffffffffff1673ffffffffffffffffffffffffffffffffffffffff163373ffffffffffffffffffffffffffffffffffffffff16145b610f2d576040517f08c379a0000000000000000000000000000000000000000000000000000000008152600401610f2490615867565b60405180910390fd5b606060005b60038054905081101561108c576002600060038381548110610f7d577f4e487b7100000000000000000000000000000000000000000000000000000000600052603260045260246000fd5b9060005260206000200160009054906101000a900473ffffffffffffffffffffffffffffffffffffffff1673ffffffffffffffffffffffffffffffffffffffff1673ffffffffffffffffffffffffffffffffffffffff16815260200190815260200160002060000160009054906101000a900473ffffffffffffffffffffffffffffffffffffffff1682828151811061103f577f4e487b7100000000000000000000000000000000000000000000000000000000600052603260045260246000fd5b602002602001019073ffffffffffffffffffffffffffffffffffffffff16908173ffffffffffffffffffffffffffffffffffffffff1681525050808061108490615cc3565b915050610f32565b506003818180548060200260200160405190810160405280929190818152602001828054801561111157602002820191906000526020600020905b8160009054906101000a900473ffffffffffffffffffffffffffffffffffffffff1673ffffffffffffffffffffffffffffffffffffffff16815260200190600101908083116110c7575b5050505050915092509250509091565b6060600061113186868686611439565b90506000600260008373ffffffffffffffffffffffffffffffffffffffff1673ffffffffffffffffffffffffffffffffffffffff16815260200190815260200160002060000160009054906101000a900473ffffffffffffffffffffffffffffffffffffffff1690508073ffffffffffffffffffffffffffffffffffffffff1663ff24b5d56040518163ffffffff1660e01b815260040160006040518083038186803b1580156111e057600080fd5b505afa1580156111f4573d6000803e3d6000fd5b505050506040513d6000823e3d601f19601f8201168201806040525081019061121d9190614b12565b92505050949350505050565b600073ffffffffffffffffffffffffffffffffffffffff168573ffffffffffffffffffffffffffffffffffffffff161415611299576040517f08c379a000000000000000000000000000000000000000000000000000000000815260040161129090615847565b60405180910390fd5b6000600260008773ffffffffffffffffffffffffffffffffffffffff1673ffffffffffffffffffffffffffffffffffffffff16815260200190815260200160002060010180546112e890615c91565b9050141561132b576040517f08c379a000000000000000000000000000000000000000000000000000000000815260040161132290615847565b60405180910390fd5b60006113398a8a8a8a611439565b90506113598187878787876005611da3909695949392919063ffffffff16565b50505050505050505050565b6060600260008373ffffffffffffffffffffffffffffffffffffffff1673ffffffffffffffffffffffffffffffffffffffff16815260200190815260200160002060010180546113b490615c91565b80601f01602080910402602001604051908101604052809291908181526020018280546113e090615c91565b801561142d5780601f106114025761010080835404028352916020019161142d565b820191906000526020600020905b81548152906001019060200180831161141057829003601f168201915b50505050509050919050565b6000806040518060400160405280601c81526020017f19457468657265756d205369676e6564204d6573736167653a0a333200000000815250905060008187604051602001611489929190615586565b604051602081830303815290604052805190602001209050600181878787604051600081526020016040526040516114c494939291906156ce565b6020604051602081039080840390855afa1580156114e6573d6000803e3d6000fd5b5050506020604051035192505050949350505050565b606060008360010160008473ffffffffffffffffffffffffffffffffffffffff1673ffffffffffffffffffffffffffffffffffffffff1681526020019081526020016000208054905067ffffffffffffffff811115611584577f4e487b7100000000000000000000000000000000000000000000000000000000600052604160045260246000fd5b6040519080825280602002602001820160405280156115bd57816020015b6115aa6146e3565b8152602001906001900390816115a25790505b50905060005b8460010160008573ffffffffffffffffffffffffffffffffffffffff1673ffffffffffffffffffffffffffffffffffffffff168152602001908152602001600020805490508110156119ee578460000160008573ffffffffffffffffffffffffffffffffffffffff1673ffffffffffffffffffffffffffffffffffffffff1681526020019081526020016000208560010160008673ffffffffffffffffffffffffffffffffffffffff1673ffffffffffffffffffffffffffffffffffffffff16815260200190815260200160002082815481106116c9577f4e487b7100000000000000000000000000000000000000000000000000000000600052603260045260246000fd5b906000526020600020016040516116e091906155c5565b90815260200160405180910390206040518060a00160405290816000820160009054906101000a900473ffffffffffffffffffffffffffffffffffffffff1673ffffffffffffffffffffffffffffffffffffffff1673ffffffffffffffffffffffffffffffffffffffff16815260200160018201805461175f90615c91565b80601f016020809104026020016040519081016040528092919081815260200182805461178b90615c91565b80156117d85780601f106117ad576101008083540402835291602001916117d8565b820191906000526020600020905b8154815290600101906020018083116117bb57829003601f168201915b505050505081526020016002820180546117f190615c91565b80601f016020809104026020016040519081016040528092919081815260200182805461181d90615c91565b801561186a5780601f1061183f5761010080835404028352916020019161186a565b820191906000526020600020905b81548152906001019060200180831161184d57829003601f168201915b5050505050815260200160038201805461188390615c91565b80601f01602080910402602001604051908101604052809291908181526020018280546118af90615c91565b80156118fc5780601f106118d1576101008083540402835291602001916118fc565b820191906000526020600020905b8154815290600101906020018083116118df57829003601f168201915b5050505050815260200160048201805461191590615c91565b80601f016020809104026020016040519081016040528092919081815260200182805461194190615c91565b801561198e5780601f106119635761010080835404028352916020019161198e565b820191906000526020600020905b81548152906001019060200180831161197157829003601f168201915b5050505050815250508282815181106119d0577f4e487b7100000000000000000000000000000000000000000000000000000000600052603260045260246000fd5b602002602001018190525080806119e690615cc3565b9150506115c3565b508091505092915050565b8260000160008373ffffffffffffffffffffffffffffffffffffffff1673ffffffffffffffffffffffffffffffffffffffff16815260200190815260200160002081604051611a4891906155ae565b9081526020016040518091039020600080820160006101000a81549073ffffffffffffffffffffffffffffffffffffffff0219169055600182016000611a8e9190614728565b600282016000611a9e9190614728565b600382016000611aae9190614728565b600482016000611abe9190614728565b505060005b8360010160008473ffffffffffffffffffffffffffffffffffffffff1673ffffffffffffffffffffffffffffffffffffffff16815260200190815260200160002080549050811015611c885781604051602001611b2091906155ae565b604051602081830303815290604052805190602001208460010160008573ffffffffffffffffffffffffffffffffffffffff1673ffffffffffffffffffffffffffffffffffffffff1681526020019081526020016000208281548110611baf577f4e487b7100000000000000000000000000000000000000000000000000000000600052603260045260246000fd5b90600052602060002001604051602001611bc991906155c5565b604051602081830303815290604052805190602001201415611c75578360010160008473ffffffffffffffffffffffffffffffffffffffff1673ffffffffffffffffffffffffffffffffffffffff1681526020019081526020016000208181548110611c5e577f4e487b7100000000000000000000000000000000000000000000000000000000600052603260045260246000fd5b906000526020600020016000611c749190614728565b5b8080611c8090615cc3565b915050611ac3565b50505050565b6000606060006040518060400160405280601c81526020017f19457468657265756d205369676e6564204d6573736167653a0a333200000000815250905060008188604051602001611ce1929190615586565b604051602081830303815290604052805190602001209050600080611d1d8360001c601b8b611d109190615bc8565b8a60001c8a60001c612074565b915091506001838a8a8a60405160008152602001604052604051611d4494939291906156ce565b6020604051602081039080840390855afa158015611d66573d6000803e3d6000fd5b505050602060405103518282604051602001611d839291906155dc565b604051602081830303815290604052955095505050505094509492505050565b600073ffffffffffffffffffffffffffffffffffffffff168760000160008773ffffffffffffffffffffffffffffffffffffffff1673ffffffffffffffffffffffffffffffffffffffff16815260200190815260200160002085604051611e0a91906155ae565b908152602001604051809103902060000160009054906101000a900473ffffffffffffffffffffffffffffffffffffffff1673ffffffffffffffffffffffffffffffffffffffff1614611e92576040517f08c379a0000000000000000000000000000000000000000000000000000000008152600401611e89906158a7565b60405180910390fd5b60006040518060a001604052808873ffffffffffffffffffffffffffffffffffffffff168152602001868152602001858152602001848152602001838152509050808860000160008873ffffffffffffffffffffffffffffffffffffffff1673ffffffffffffffffffffffffffffffffffffffff16815260200190815260200160002086604051611f2391906155ae565b908152602001604051809103902060008201518160000160006101000a81548173ffffffffffffffffffffffffffffffffffffffff021916908373ffffffffffffffffffffffffffffffffffffffff1602179055506020820151816001019080519060200190611f94929190614768565b506040820151816002019080519060200190611fb1929190614768565b506060820151816003019080519060200190611fce929190614768565b506080820151816004019080519060200190611feb929190614768565b509050508760010160008773ffffffffffffffffffffffffffffffffffffffff1673ffffffffffffffffffffffffffffffffffffffff16815260200190815260200160002085908060018154018082558091505060019003906000526020600020016000909190919091509080519060200190612069929190614768565b505050505050505050565b60008060007ffffffffffffffffffffffffffffffffffffffffffffffffffffffffefffffc2f806120ce577f4e487b7100000000000000000000000000000000000000000000000000000000600052601260045260246000fd5b60018760ff16901c60ff167ffffffffffffffffffffffffffffffffffffffffffffffffffffffffefffffc2f6121049190615b3a565b860890507ffffffffffffffffffffffffffffffffffffffffffffffffffffffffefffffc2f81118061215557507ffffffffffffffffffffffffffffffffebaaedce6af48a03bbfd25e8cd036414184115b8061217f57507ffffffffffffffffffffffffffffffffebaaedce6af48a03bbfd25e8cd036414185115b8061218a5750600084145b806121955750600085145b806121a3575060018660ff16115b156121b55760008092509250506125ad565b60006121e1867ffffffffffffffffffffffffffffffffebaaedce6af48a03bbfd25e8cd03641416125b6565b905060007ffffffffffffffffffffffffffffffffffffffffffffffffffffffffefffffc2f8061223a577f4e487b7100000000000000000000000000000000000000000000000000000000600052601260045260246000fd5b7ffffffffffffffffffffffffffffffffffffffffffffffffffffffffefffffc2f8061228f577f4e487b7100000000000000000000000000000000000000000000000000000000600052601260045260246000fd5b60077ffffffffffffffffffffffffffffffffffffffffffffffffffffffffefffffc2f806122e6577f4e487b7100000000000000000000000000000000000000000000000000000000600052601260045260246000fd5b60008709087ffffffffffffffffffffffffffffffffffffffffffffffffffffffffefffffc2f80612340577f4e487b7100000000000000000000000000000000000000000000000000000000600052601260045260246000fd5b7ffffffffffffffffffffffffffffffffffffffffffffffffffffffffefffffc2f80612395577f4e487b7100000000000000000000000000000000000000000000000000000000600052601260045260246000fd5b86870986090890506123df81600460017ffffffffffffffffffffffffffffffffffffffffffffffffffffffffefffffc2f6123d09190615ab3565b6123da9190615b09565b6126ee565b9050600080600160028b60ff16856123f79190615ab3565b6124019190615ab3565b161461243857817ffffffffffffffffffffffffffffffffffffffffffffffffffffffffefffffc2f6124339190615b94565b61243a565b815b905060008060006125107ffffffffffffffffffffffffffffffffebaaedce6af48a03bbfd25e8cd036414180612499577f4e487b7100000000000000000000000000000000000000000000000000000000600052601260045260246000fd5b8e7ffffffffffffffffffffffffffffffffebaaedce6af48a03bbfd25e8cd03641416124c59190615b94565b88097f79be667ef9dcbbac55a06295ce870b07029bfcdb2dce28d959f2815b16f817987f483ada7726a3c4655da4fbfc0e1108a8fd17b448a68554199c47d08ffb10d4b860016128a4565b925092509250600080600061257f7ffffffffffffffffffffffffffffffffebaaedce6af48a03bbfd25e8cd036414180612573577f4e487b7100000000000000000000000000000000000000000000000000000000600052601260045260246000fd5b8e8b098b8960016128a4565b92509250925060008061259688888888888861293f565b9150915081819d509d505050505050505050505050505b94509492505050565b60008083141580156125c85750818314155b80156125d5575060008214155b612614576040517f08c379a000000000000000000000000000000000000000000000000000000000815260040161260b906158e7565b60405180910390fd5b60008060019050600084905060005b600087146126e15786826126379190615b09565b905082868061266f577f4e487b7100000000000000000000000000000000000000000000000000000000600052601260045260246000fd5b87806126a4577f4e487b7100000000000000000000000000000000000000000000000000000000600052601260045260246000fd5b858409886126b29190615b94565b860880945081955050508687826126c99190615b3a565b836126d49190615b94565b8098508193505050612623565b8394505050505092915050565b600080831415612701576000905061289e565b6000821415612713576001905061289e565b60006001905060007f800000000000000000000000000000000000000000000000000000000000000090505b6000811115612898577ffffffffffffffffffffffffffffffffffffffffffffffffffffffffefffffc2f8185161515860a7ffffffffffffffffffffffffffffffffffffffffffffffffffffffffefffffc2f8485090991507ffffffffffffffffffffffffffffffffffffffffffffffffffffffffefffffc2f6002820485161515860a7ffffffffffffffffffffffffffffffffffffffffffffffffffffffffefffffc2f8485090991507ffffffffffffffffffffffffffffffffffffffffffffffffffffffffefffffc2f6004820485161515860a7ffffffffffffffffffffffffffffffffffffffffffffffffffffffffefffffc2f8485090991507ffffffffffffffffffffffffffffffffffffffffffffffffffffffffefffffc2f6008820485161515860a7ffffffffffffffffffffffffffffffffffffffffffffffffffffffffefffffc2f84850909915060108104905061273f565b81925050505b92915050565b6000806000808714156128bf57858585925092509250612935565b60008790506000806000600190505b6000841461292757600060018516146128fc576128ef8383838d8d8d612a13565b8093508194508295505050505b6002846129099190615b09565b93506129168a8a8a613d5f565b809a50819b50829c505050506128ce565b828282965096509650505050505b9450945094915050565b6000806000806000878b14156129da5760007ffffffffffffffffffffffffffffffffffffffffffffffffffffffffefffffc2f806129a6577f4e487b7100000000000000000000000000000000000000000000000000000000600052601260045260246000fd5b888c0814156129be5760008094509450505050612a08565b6129c98b8b8b613d5f565b8093508194508295505050506129f5565b6129e88b8b8b8b8b8b612a13565b8093508194508295505050505b612a008383836144af565b945094505050505b965096945050505050565b60008060008089148015612a275750600088145b15612a3a57858585925092509250613d53565b600086148015612a4a5750600085145b15612a5d57888888925092509250613d53565b612a656147ee565b7ffffffffffffffffffffffffffffffffffffffffffffffffffffffffefffffc2f80612aba577f4e487b7100000000000000000000000000000000000000000000000000000000600052601260045260246000fd5b88890981600060048110612af7577f4e487b7100000000000000000000000000000000000000000000000000000000600052603260045260246000fd5b6020020181815250507ffffffffffffffffffffffffffffffffffffffffffffffffffffffffefffffc2f80612b55577f4e487b7100000000000000000000000000000000000000000000000000000000600052601260045260246000fd5b81600060048110612b8f577f4e487b7100000000000000000000000000000000000000000000000000000000600052603260045260246000fd5b6020020151890981600160048110612bd0577f4e487b7100000000000000000000000000000000000000000000000000000000600052603260045260246000fd5b6020020181815250507ffffffffffffffffffffffffffffffffffffffffffffffffffffffffefffffc2f80612c2e577f4e487b7100000000000000000000000000000000000000000000000000000000600052601260045260246000fd5b85860981600260048110612c6b577f4e487b7100000000000000000000000000000000000000000000000000000000600052603260045260246000fd5b6020020181815250507ffffffffffffffffffffffffffffffffffffffffffffffffffffffffefffffc2f80612cc9577f4e487b7100000000000000000000000000000000000000000000000000000000600052601260045260246000fd5b81600260048110612d03577f4e487b7100000000000000000000000000000000000000000000000000000000600052603260045260246000fd5b6020020151860981600360048110612d44577f4e487b7100000000000000000000000000000000000000000000000000000000600052603260045260246000fd5b60200201818152505060405180608001604052807ffffffffffffffffffffffffffffffffffffffffffffffffffffffffefffffc2f80612dad577f4e487b7100000000000000000000000000000000000000000000000000000000600052601260045260246000fd5b83600260048110612de7577f4e487b7100000000000000000000000000000000000000000000000000000000600052603260045260246000fd5b60200201518d0981526020017ffffffffffffffffffffffffffffffffffffffffffffffffffffffffefffffc2f80612e48577f4e487b7100000000000000000000000000000000000000000000000000000000600052601260045260246000fd5b83600360048110612e82577f4e487b7100000000000000000000000000000000000000000000000000000000600052603260045260246000fd5b60200201518c0981526020017ffffffffffffffffffffffffffffffffffffffffffffffffffffffffefffffc2f80612ee3577f4e487b7100000000000000000000000000000000000000000000000000000000600052601260045260246000fd5b83600060048110612f1d577f4e487b7100000000000000000000000000000000000000000000000000000000600052603260045260246000fd5b60200201518a0981526020017ffffffffffffffffffffffffffffffffffffffffffffffffffffffffefffffc2f80612f7e577f4e487b7100000000000000000000000000000000000000000000000000000000600052601260045260246000fd5b83600160048110612fb8577f4e487b7100000000000000000000000000000000000000000000000000000000600052603260045260246000fd5b60200201518909815250905080600260048110612ffe577f4e487b7100000000000000000000000000000000000000000000000000000000600052603260045260246000fd5b60200201518160006004811061303d577f4e487b7100000000000000000000000000000000000000000000000000000000600052603260045260246000fd5b60200201511415806130cb575080600360048110613084577f4e487b7100000000000000000000000000000000000000000000000000000000600052603260045260246000fd5b6020020151816001600481106130c3577f4e487b7100000000000000000000000000000000000000000000000000000000600052603260045260246000fd5b602002015114155b61310a576040517f08c379a000000000000000000000000000000000000000000000000000000000815260040161310190615887565b60405180910390fd5b6131126147ee565b7ffffffffffffffffffffffffffffffffffffffffffffffffffffffffefffffc2f80613167577f4e487b7100000000000000000000000000000000000000000000000000000000600052601260045260246000fd5b826000600481106131a1577f4e487b7100000000000000000000000000000000000000000000000000000000600052603260045260246000fd5b60200201517ffffffffffffffffffffffffffffffffffffffffffffffffffffffffefffffc2f6131d19190615b94565b8360026004811061320b577f4e487b7100000000000000000000000000000000000000000000000000000000600052603260045260246000fd5b6020020151088160006004811061324b577f4e487b7100000000000000000000000000000000000000000000000000000000600052603260045260246000fd5b6020020181815250507ffffffffffffffffffffffffffffffffffffffffffffffffffffffffefffffc2f806132a9577f4e487b7100000000000000000000000000000000000000000000000000000000600052601260045260246000fd5b826001600481106132e3577f4e487b7100000000000000000000000000000000000000000000000000000000600052603260045260246000fd5b60200201517ffffffffffffffffffffffffffffffffffffffffffffffffffffffffefffffc2f6133139190615b94565b8360036004811061334d577f4e487b7100000000000000000000000000000000000000000000000000000000600052603260045260246000fd5b6020020151088160016004811061338d577f4e487b7100000000000000000000000000000000000000000000000000000000600052603260045260246000fd5b6020020181815250507ffffffffffffffffffffffffffffffffffffffffffffffffffffffffefffffc2f806133eb577f4e487b7100000000000000000000000000000000000000000000000000000000600052601260045260246000fd5b81600060048110613425577f4e487b7100000000000000000000000000000000000000000000000000000000600052603260045260246000fd5b602002015182600060048110613464577f4e487b7100000000000000000000000000000000000000000000000000000000600052603260045260246000fd5b602002015109816002600481106134a4577f4e487b7100000000000000000000000000000000000000000000000000000000600052603260045260246000fd5b6020020181815250507ffffffffffffffffffffffffffffffffffffffffffffffffffffffffefffffc2f80613502577f4e487b7100000000000000000000000000000000000000000000000000000000600052601260045260246000fd5b8160006004811061353c577f4e487b7100000000000000000000000000000000000000000000000000000000600052603260045260246000fd5b60200201518260026004811061357b577f4e487b7100000000000000000000000000000000000000000000000000000000600052603260045260246000fd5b602002015109816003600481106135bb577f4e487b7100000000000000000000000000000000000000000000000000000000600052603260045260246000fd5b60200201818152505060007ffffffffffffffffffffffffffffffffffffffffffffffffffffffffefffffc2f8061361b577f4e487b7100000000000000000000000000000000000000000000000000000000600052601260045260246000fd5b82600360048110613655577f4e487b7100000000000000000000000000000000000000000000000000000000600052603260045260246000fd5b60200201517ffffffffffffffffffffffffffffffffffffffffffffffffffffffffefffffc2f6136859190615b94565b7ffffffffffffffffffffffffffffffffffffffffffffffffffffffffefffffc2f806136da577f4e487b7100000000000000000000000000000000000000000000000000000000600052601260045260246000fd5b84600160048110613714577f4e487b7100000000000000000000000000000000000000000000000000000000600052603260045260246000fd5b602002015185600160048110613753577f4e487b7100000000000000000000000000000000000000000000000000000000600052603260045260246000fd5b6020020151090890507ffffffffffffffffffffffffffffffffffffffffffffffffffffffffefffffc2f806137b1577f4e487b7100000000000000000000000000000000000000000000000000000000600052601260045260246000fd5b7ffffffffffffffffffffffffffffffffffffffffffffffffffffffffefffffc2f80613806577f4e487b7100000000000000000000000000000000000000000000000000000000600052601260045260246000fd5b7ffffffffffffffffffffffffffffffffffffffffffffffffffffffffefffffc2f8061385b577f4e487b7100000000000000000000000000000000000000000000000000000000600052601260045260246000fd5b84600260048110613895577f4e487b7100000000000000000000000000000000000000000000000000000000600052603260045260246000fd5b6020020151866000600481106138d4577f4e487b7100000000000000000000000000000000000000000000000000000000600052603260045260246000fd5b6020020151096002097ffffffffffffffffffffffffffffffffffffffffffffffffffffffffefffffc2f6139089190615b94565b8208905060007ffffffffffffffffffffffffffffffffffffffffffffffffffffffffefffffc2f80613963577f4e487b7100000000000000000000000000000000000000000000000000000000600052601260045260246000fd5b7ffffffffffffffffffffffffffffffffffffffffffffffffffffffffefffffc2f806139b8577f4e487b7100000000000000000000000000000000000000000000000000000000600052601260045260246000fd5b837ffffffffffffffffffffffffffffffffffffffffffffffffffffffffefffffc2f6139e49190615b94565b7ffffffffffffffffffffffffffffffffffffffffffffffffffffffffefffffc2f80613a39577f4e487b7100000000000000000000000000000000000000000000000000000000600052601260045260246000fd5b86600260048110613a73577f4e487b7100000000000000000000000000000000000000000000000000000000600052603260045260246000fd5b602002015188600060048110613ab2577f4e487b7100000000000000000000000000000000000000000000000000000000600052603260045260246000fd5b6020020151090884600160048110613af3577f4e487b7100000000000000000000000000000000000000000000000000000000600052603260045260246000fd5b60200201510990507ffffffffffffffffffffffffffffffffffffffffffffffffffffffffefffffc2f80613b50577f4e487b7100000000000000000000000000000000000000000000000000000000600052601260045260246000fd5b7ffffffffffffffffffffffffffffffffffffffffffffffffffffffffefffffc2f80613ba5577f4e487b7100000000000000000000000000000000000000000000000000000000600052601260045260246000fd5b84600360048110613bdf577f4e487b7100000000000000000000000000000000000000000000000000000000600052603260045260246000fd5b602002015186600160048110613c1e577f4e487b7100000000000000000000000000000000000000000000000000000000600052603260045260246000fd5b6020020151097ffffffffffffffffffffffffffffffffffffffffffffffffffffffffefffffc2f613c4f9190615b94565b8208905060007ffffffffffffffffffffffffffffffffffffffffffffffffffffffffefffffc2f80613caa577f4e487b7100000000000000000000000000000000000000000000000000000000600052601260045260246000fd5b7ffffffffffffffffffffffffffffffffffffffffffffffffffffffffefffffc2f80613cff577f4e487b7100000000000000000000000000000000000000000000000000000000600052601260045260246000fd5b8a8e0985600060048110613d3c577f4e487b7100000000000000000000000000000000000000000000000000000000600052603260045260246000fd5b602002015109905082828297509750975050505050505b96509650969350505050565b600080600080841415613d7a578585859250925092506144a6565b60007ffffffffffffffffffffffffffffffffffffffffffffffffffffffffefffffc2f80613dd1577f4e487b7100000000000000000000000000000000000000000000000000000000600052601260045260246000fd5b878809905060007ffffffffffffffffffffffffffffffffffffffffffffffffffffffffefffffc2f80613e2d577f4e487b7100000000000000000000000000000000000000000000000000000000600052601260045260246000fd5b878809905060007ffffffffffffffffffffffffffffffffffffffffffffffffffffffffefffffc2f80613e89577f4e487b7100000000000000000000000000000000000000000000000000000000600052601260045260246000fd5b878809905060007ffffffffffffffffffffffffffffffffffffffffffffffffffffffffefffffc2f80613ee5577f4e487b7100000000000000000000000000000000000000000000000000000000600052601260045260246000fd5b7ffffffffffffffffffffffffffffffffffffffffffffffffffffffffefffffc2f80613f3a577f4e487b7100000000000000000000000000000000000000000000000000000000600052601260045260246000fd5b848c09600409905060007ffffffffffffffffffffffffffffffffffffffffffffffffffffffffefffffc2f80613f99577f4e487b7100000000000000000000000000000000000000000000000000000000600052601260045260246000fd5b7ffffffffffffffffffffffffffffffffffffffffffffffffffffffffefffffc2f80613fee577f4e487b7100000000000000000000000000000000000000000000000000000000600052601260045260246000fd5b7ffffffffffffffffffffffffffffffffffffffffffffffffffffffffefffffc2f80614043577f4e487b7100000000000000000000000000000000000000000000000000000000600052601260045260246000fd5b8586096000097ffffffffffffffffffffffffffffffffffffffffffffffffffffffffefffffc2f8061409e577f4e487b7100000000000000000000000000000000000000000000000000000000600052601260045260246000fd5b876003090890507ffffffffffffffffffffffffffffffffffffffffffffffffffffffffefffffc2f806140fa577f4e487b7100000000000000000000000000000000000000000000000000000000600052601260045260246000fd5b7ffffffffffffffffffffffffffffffffffffffffffffffffffffffffefffffc2f8061414f577f4e487b7100000000000000000000000000000000000000000000000000000000600052601260045260246000fd5b8384087ffffffffffffffffffffffffffffffffffffffffffffffffffffffffefffffc2f61417d9190615b94565b7ffffffffffffffffffffffffffffffffffffffffffffffffffffffffefffffc2f806141d2577f4e487b7100000000000000000000000000000000000000000000000000000000600052601260045260246000fd5b8384090894507ffffffffffffffffffffffffffffffffffffffffffffffffffffffffefffffc2f8061422d577f4e487b7100000000000000000000000000000000000000000000000000000000600052601260045260246000fd5b7ffffffffffffffffffffffffffffffffffffffffffffffffffffffffefffffc2f80614282577f4e487b7100000000000000000000000000000000000000000000000000000000600052601260045260246000fd5b7ffffffffffffffffffffffffffffffffffffffffffffffffffffffffefffffc2f806142d7577f4e487b7100000000000000000000000000000000000000000000000000000000600052601260045260246000fd5b8687096008097ffffffffffffffffffffffffffffffffffffffffffffffffffffffffefffffc2f6143089190615b94565b7ffffffffffffffffffffffffffffffffffffffffffffffffffffffffefffffc2f8061435d577f4e487b7100000000000000000000000000000000000000000000000000000000600052601260045260246000fd5b7ffffffffffffffffffffffffffffffffffffffffffffffffffffffffefffffc2f806143b2577f4e487b7100000000000000000000000000000000000000000000000000000000600052601260045260246000fd5b887ffffffffffffffffffffffffffffffffffffffffffffffffffffffffefffffc2f6143de9190615b94565b860884090893507ffffffffffffffffffffffffffffffffffffffffffffffffffffffffefffffc2f8061443a577f4e487b7100000000000000000000000000000000000000000000000000000000600052601260045260246000fd5b7ffffffffffffffffffffffffffffffffffffffffffffffffffffffffefffffc2f8061448f577f4e487b7100000000000000000000000000000000000000000000000000000000600052601260045260246000fd5b8a8c09600209925084848497509750975050505050505b93509350939050565b60008060006144de847ffffffffffffffffffffffffffffffffffffffffffffffffffffffffefffffc2f6125b6565b905060007ffffffffffffffffffffffffffffffffffffffffffffffffffffffffefffffc2f80614537577f4e487b7100000000000000000000000000000000000000000000000000000000600052601260045260246000fd5b828309905060007ffffffffffffffffffffffffffffffffffffffffffffffffffffffffefffffc2f80614593577f4e487b7100000000000000000000000000000000000000000000000000000000600052601260045260246000fd5b828909905060007ffffffffffffffffffffffffffffffffffffffffffffffffffffffffefffffc2f806145ef577f4e487b7100000000000000000000000000000000000000000000000000000000600052601260045260246000fd5b7ffffffffffffffffffffffffffffffffffffffffffffffffffffffffefffffc2f80614644577f4e487b7100000000000000000000000000000000000000000000000000000000600052601260045260246000fd5b8486098909905081819550955050505050935093915050565b82805461466990615c91565b90600052602060002090601f01602090048101928261468b57600085556146d2565b82601f106146a457805160ff19168380011785556146d2565b828001600101855582156146d2579182015b828111156146d15782518255916020019190600101906146b6565b5b5090506146df9190614810565b5090565b6040518060a00160405280600073ffffffffffffffffffffffffffffffffffffffff168152602001606081526020016060815260200160608152602001606081525090565b50805461473490615c91565b6000825580601f106147465750614765565b601f0160209004906000526020600020908101906147649190614810565b5b50565b82805461477490615c91565b90600052602060002090601f01602090048101928261479657600085556147dd565b82601f106147af57805160ff19168380011785556147dd565b828001600101855582156147dd579182015b828111156147dc5782518255916020019190600101906147c1565b5b5090506147ea9190614810565b5090565b6040518060800160405280600490602082028036833780820191505090505090565b5b80821115614829576000816000905550600101614811565b5090565b600061484061483b84615938565b615907565b9050808382526020820190508260005b85811015614880578151850161486688826149c3565b845260208401935060208301925050600181019050614850565b5050509392505050565b600061489d61489884615964565b615907565b9050828152602081018484840111156148b557600080fd5b6148c0848285615c4f565b509392505050565b60006148db6148d684615964565b615907565b9050828152602081018484840111156148f357600080fd5b6148fe848285615c5e565b509392505050565b60008135905061491581615ded565b92915050565b60008151905061492a81615ded565b92915050565b600082601f83011261494157600080fd5b815161495184826020860161482d565b91505092915050565b60008135905061496981615e04565b92915050565b600082601f83011261498057600080fd5b813561499084826020860161488a565b91505092915050565b600082601f8301126149aa57600080fd5b81516149ba8482602086016148c8565b91505092915050565b600060a082840312156149d557600080fd5b6149df60a0615907565b9050600082015167ffffffffffffffff8111156149fb57600080fd5b614a0784828501614999565b600083015250602082015167ffffffffffffffff811115614a2757600080fd5b614a3384828501614999565b602083015250604082015167ffffffffffffffff811115614a5357600080fd5b614a5f84828501614999565b604083015250606082015167ffffffffffffffff811115614a7f57600080fd5b614a8b84828501614999565b6060830152506080614a9f8482850161491b565b60808301525092915050565b600081359050614aba81615e1b565b92915050565b600060208284031215614ad257600080fd5b6000614ae084828501614906565b91505092915050565b600060208284031215614afb57600080fd5b6000614b098482850161491b565b91505092915050565b600060208284031215614b2457600080fd5b600082015167ffffffffffffffff811115614b3e57600080fd5b614b4a84828501614930565b91505092915050565b60008060008060808587031215614b6957600080fd5b6000614b778782880161495a565b9450506020614b8887828801614aab565b9350506040614b998782880161495a565b9250506060614baa8782880161495a565b91505092959194509250565b60008060008060008060008060006101208a8c031215614bd557600080fd5b6000614be38c828d0161495a565b9950506020614bf48c828d01614aab565b9850506040614c058c828d0161495a565b9750506060614c168c828d0161495a565b9650506080614c278c828d01614906565b95505060a08a013567ffffffffffffffff811115614c4457600080fd5b614c508c828d0161496f565b94505060c08a013567ffffffffffffffff811115614c6d57600080fd5b614c798c828d0161496f565b93505060e08a013567ffffffffffffffff811115614c9657600080fd5b614ca28c828d0161496f565b9250506101008a013567ffffffffffffffff811115614cc057600080fd5b614ccc8c828d0161496f565b9150509295985092959850929598565b600080600080600060a08688031215614cf457600080fd5b6000614d028882890161495a565b9550506020614d1388828901614aab565b9450506040614d248882890161495a565b9350506060614d358882890161495a565b925050608086013567ffffffffffffffff811115614d5257600080fd5b614d5e8882890161496f565b9150509295509295909350565b600080600080600060a08688031215614d8357600080fd5b600086013567ffffffffffffffff811115614d9d57600080fd5b614da98882890161496f565b9550506020614dba8882890161495a565b9450506040614dcb88828901614aab565b9350506060614ddc8882890161495a565b9250506080614ded8882890161495a565b9150509295509295909350565b600080600080600080600080610100898b031215614e1757600080fd5b600089013567ffffffffffffffff811115614e3157600080fd5b614e3d8b828c0161496f565b985050602089013567ffffffffffffffff811115614e5a57600080fd5b614e668b828c0161496f565b975050604089013567ffffffffffffffff811115614e8357600080fd5b614e8f8b828c0161496f565b965050606089013567ffffffffffffffff811115614eac57600080fd5b614eb88b828c0161496f565b9550506080614ec98b828c0161495a565b94505060a0614eda8b828c01614aab565b93505060c0614eeb8b828c0161495a565b92505060e0614efc8b828c0161495a565b9150509295985092959890939650565b6000614f188383614f4c565b60208301905092915050565b6000614f30838361544a565b905092915050565b6000614f4483836154d5565b905092915050565b614f5581615bfc565b82525050565b614f6481615bfc565b82525050565b6000614f75826159d9565b614f7f8185615a37565b9350614f8a83615994565b8060005b83811015614fbb578151614fa28882614f0c565b9750614fad83615a10565b925050600181019050614f8e565b5085935050505092915050565b6000614fd3826159e4565b614fdd8185615a48565b935083602082028501614fef856159a4565b8060005b8581101561502b578484038952815161500c8582614f24565b945061501783615a1d565b925060208a01995050600181019050614ff3565b50829750879550505050505092915050565b6000615048826159ef565b6150528185615a59565b935083602082028501615064856159b4565b8060005b858110156150a057848403895281516150818582614f38565b945061508c83615a2a565b925060208a01995050600181019050615068565b50829750879550505050505092915050565b6150bb81615c0e565b82525050565b6150d26150cd82615c0e565b615d0c565b82525050565b60006150e3826159fa565b6150ed8185615a6a565b93506150fd818560208601615c5e565b61510681615ddc565b840191505092915050565b600061511c826159fa565b6151268185615a7b565b9350615136818560208601615c5e565b80840191505092915050565b600061514d82615a05565b6151578185615a86565b9350615167818560208601615c5e565b61517081615ddc565b840191505092915050565b600061518682615a05565b6151908185615a97565b93506151a0818560208601615c5e565b6151a981615ddc565b840191505092915050565b60006151bf82615a05565b6151c98185615aa8565b93506151d9818560208601615c5e565b80840191505092915050565b600081546151f281615c91565b6151fc8186615aa8565b9450600182166000811461521757600181146152285761525b565b60ff1983168652818601935061525b565b615231856159c4565b60005b8381101561525357815481890152600182019150602081019050615234565b838801955050505b50505092915050565b6000615271600e83615a97565b91507f646f6573206e6f742065786973740000000000000000000000000000000000006000830152602082019050919050565b60006152b1600683615a97565b91507f45525236393100000000000000000000000000000000000000000000000000006000830152602082019050919050565b60006152f1603a83615a97565b91507f4f776e61626c65236f6e6c794f776e65724f7243726561746f723a2053454e4460008301527f45525f49535f4e4f545f4f574e45525f4f525f43524541544f520000000000006020830152604082019050919050565b6000615357601e83615a97565b91507f557365206a6163446f75626c652066756e6374696f6e20696e737465616400006000830152602082019050919050565b6000615397600983615a97565b91507f53524145786973747300000000000000000000000000000000000000000000006000830152602082019050919050565b60006153d7600683615a97565b91507f45525232313400000000000000000000000000000000000000000000000000006000830152602082019050919050565b6000615417600e83615a97565b91507f496e76616c6964206e756d6265720000000000000000000000000000000000006000830152602082019050919050565b600060a08301600083015184820360008601526154678282615142565b915050602083015184820360208601526154818282615142565b9150506040830151848203604086015261549b8282615142565b915050606083015184820360608601526154b58282615142565b91505060808301516154ca6080860182614f4c565b508091505092915050565b600060a0830160008301516154ed6000860182614f4c565b50602083015184820360208601526155058282615142565b9150506040830151848203604086015261551f8282615142565b915050606083015184820360608601526155398282615142565b915050608083015184820360808601526155538282615142565b9150508091505092915050565b61557161556c82615c38565b615d16565b82525050565b61558081615c42565b82525050565b60006155928285615111565b915061559e82846150c1565b6020820191508190509392505050565b60006155ba82846151b4565b915081905092915050565b60006155d182846151e5565b915081905092915050565b60006155e88285615560565b6020820191506155f88284615560565b6020820191508190509392505050565b600060208201905061561d6000830184614f5b565b92915050565b60006040820190506156386000830185614f5b565b818103602083015261564a818461517b565b90509392505050565b6000604082019050818103600083015261566d8185614f6a565b905081810360208301526156818184614f6a565b90509392505050565b600060208201905081810360008301526156a48184614fc8565b905092915050565b600060208201905081810360008301526156c6818461503d565b905092915050565b60006080820190506156e360008301876150b2565b6156f06020830186615577565b6156fd60408301856150b2565b61570a60608301846150b2565b95945050505050565b6000602082019050818103600083015261572d81846150d8565b905092915050565b6000602082019050818103600083015261574f818461517b565b905092915050565b60006080820190508181036000830152615771818761517b565b90508181036020830152615785818661517b565b90508181036040830152615799818561517b565b905081810360608301526157ad818461517b565b905095945050505050565b600060a08201905081810360008301526157d2818861517b565b905081810360208301526157e6818761517b565b905081810360408301526157fa818661517b565b9050818103606083015261580e818561517b565b905061581d6080830184614f5b565b9695505050505050565b6000602082019050818103600083015261584081615264565b9050919050565b60006020820190508181036000830152615860816152a4565b9050919050565b60006020820190508181036000830152615880816152e4565b9050919050565b600060208201905081810360008301526158a08161534a565b9050919050565b600060208201905081810360008301526158c08161538a565b9050919050565b600060208201905081810360008301526158e0816153ca565b9050919050565b600060208201905081810360008301526159008161540a565b9050919050565b6000604051905081810181811067ffffffffffffffff8211171561592e5761592d615dad565b5b8060405250919050565b600067ffffffffffffffff82111561595357615952615dad565b5b602082029050602081019050919050565b600067ffffffffffffffff82111561597f5761597e615dad565b5b601f19601f8301169050602081019050919050565b6000819050602082019050919050565b6000819050602082019050919050565b6000819050602082019050919050565b60008190508160005260206000209050919050565b600081519050919050565b600081519050919050565b600081519050919050565b600081519050919050565b600081519050919050565b6000602082019050919050565b6000602082019050919050565b6000602082019050919050565b600082825260208201905092915050565b600082825260208201905092915050565b600082825260208201905092915050565b600082825260208201905092915050565b600081905092915050565b600082825260208201905092915050565b600082825260208201905092915050565b600081905092915050565b6000615abe82615c38565b9150615ac983615c38565b9250827fffffffffffffffffffffffffffffffffffffffffffffffffffffffffffffffff03821115615afe57615afd615d20565b5b828201905092915050565b6000615b1482615c38565b9150615b1f83615c38565b925082615b2f57615b2e615d4f565b5b828204905092915050565b6000615b4582615c38565b9150615b5083615c38565b9250817fffffffffffffffffffffffffffffffffffffffffffffffffffffffffffffffff0483118215151615615b8957615b88615d20565b5b828202905092915050565b6000615b9f82615c38565b9150615baa83615c38565b925082821015615bbd57615bbc615d20565b5b828203905092915050565b6000615bd382615c42565b9150615bde83615c42565b925082821015615bf157615bf0615d20565b5b828203905092915050565b6000615c0782615c18565b9050919050565b6000819050919050565b600073ffffffffffffffffffffffffffffffffffffffff82169050919050565b6000819050919050565b600060ff82169050919050565b82818337600083830152505050565b60005b83811015615c7c578082015181840152602081019050615c61565b83811115615c8b576000848401525b50505050565b60006002820490506001821680615ca957607f821691505b60208210811415615cbd57615cbc615d7e565b5b50919050565b6000615cce82615c38565b91507fffffffffffffffffffffffffffffffffffffffffffffffffffffffffffffffff821415615d0157615d00615d20565b5b600182019050919050565b6000819050919050565b6000819050919050565b7f4e487b7100000000000000000000000000000000000000000000000000000000600052601160045260246000fd5b7f4e487b7100000000000000000000000000000000000000000000000000000000600052601260045260246000fd5b7f4e487b7100000000000000000000000000000000000000000000000000000000600052602260045260246000fd5b7f4e487b7100000000000000000000000000000000000000000000000000000000600052604160045260246000fd5b6000601f19601f8301169050919050565b615df681615bfc565b8114615e0157600080fd5b50565b615e0d81615c0e565b8114615e1857600080fd5b50565b615e2481615c42565b8114615e2f57600080fd5b5056fea264697066735822122026fd8e77851c2fd2049fb7b77f95b1b47e78b2c2a6ffa1aeb6ea0aa8720d10a464736f6c63430008000033",
  "immutableReferences": {},
  "source": "// SPDX-License-Identifier: MIT\npragma solidity ^0.8.0;\npragma experimental ABIEncoderV2;\n\nimport \"./utils/Ownable.sol\";\nimport \"./utils/SigUtils.sol\";\nimport \"./utils/SECP256K1.sol\";\nimport \"./utils/ShareManager.sol\";\nimport \"./utils/File.sol\";\nimport \"./utils/UseDeployer.sol\";\nimport \"./utils/User.sol\";\nimport \"./interfaces/IVaultDeployer.sol\";\nimport \"./interfaces/IVault.sol\";\n\ncontract PeerSafeDeployer is Ownable {\n    mapping(address => User) users;\n    address[] keys;\n    address deployer;\n    using ShareManager for ShareRequests;\n    ShareRequests shareRequests;\n\n    constructor (address _deployer) Ownable(msg.sender, msg.sender) {\n        deployer = _deployer;\n    }\n\n    function getVault(address _vaultOwner) external view returns(address) {\n        IVault _v = users[_vaultOwner].vault;\n        require(address(_v) != address(0), \"does not exist\");\n        return address(_v);\n    }\n\n    function deploy(string memory _userName, bytes32 _hashedMessage, uint8 _v, bytes32 _r, bytes32 _s) external returns(address) {\n        (address signer, bytes memory pubKey) = SECP256K1.recoverSignerAndPubKey(_hashedMessage, _v, _r, _s);\n        IVault _vault = IVault(IVaultDeployer(deployer).deploy(signer, _userName));\n        users[signer] = User(_vault, pubKey);\n        keys.push(signer);\n        return address(_vault);\n    }\n\n    function createFile(string memory name, string memory fileType, string memory ipfsHash, string memory key, bytes32 _hashedMessage, uint8 _v, bytes32 _r, bytes32 _s) external {\n        address signer = SigUtils.recoverSigner(_hashedMessage, _v, _r, _s);\n        IVault _vault = users[signer].vault;\n        _vault.createFile(name, fileType, ipfsHash, key);\n    }\n\n    function getAllFiles(bytes32 _hashedMessage, uint8 _v, bytes32 _r, bytes32 _s) external view returns(File[] memory) {\n        address signer = SigUtils.recoverSigner(_hashedMessage, _v, _r, _s);\n        IVault _vault = users[signer].vault;\n        return _vault.getAllFiles();\n    }\n\n    function deleteFile(bytes32 _hashedMessage, uint8 _v, bytes32 _r, bytes32 _s, string memory ipfsHash) external {\n        address signer = SigUtils.recoverSigner(_hashedMessage, _v, _r, _s);\n        IVault _vault = users[signer].vault;\n        return _vault.deleteFile(ipfsHash);\n    }\n\n    function getPubKey(address _user) external view returns(bytes memory) {\n        return users[_user].pubKey;\n    }\n\n    function sendShareRequest(bytes32 _hashedMessage, uint8 _v, bytes32 _r, bytes32 _s, address _to, string memory _fileHash, string memory _keyHash, string memory _name, string memory _fileType) external {\n        require(_to != address(0), \"ERR691\");\n        require(users[_to].pubKey.length != 0, \"ERR691\");\n        address signer = SigUtils.recoverSigner(_hashedMessage, _v, _r, _s);\n        shareRequests.addShareRequest(signer, _to, _fileHash, _keyHash, _name, _fileType);\n    }\n\n    function getShareRequests(bytes32 _hashedMessage, uint8 _v, bytes32 _r, bytes32 _s) external view returns(ShareRequest[] memory) {\n        address signer = SigUtils.recoverSigner(_hashedMessage, _v, _r, _s);\n        require(signer != address(0), \"ERR691\");\n        return shareRequests.getShareRequests(signer);\n    }\n\n    function acceptShareRequest(bytes32 _hashedMessage, uint8 _v, bytes32 _r, bytes32 _s, string memory _fileHash) external {\n        address signer = SigUtils.recoverSigner(_hashedMessage, _v, _r, _s);\n        require(shareRequests._shareRequests[signer][_fileHash]._from != address(0), \"ERR214\");\n        require(users[signer].pubKey.length != 0, \"ERR691\");\n        IVault _vault = users[signer].vault;\n        ShareRequest memory _shareRequest = shareRequests._shareRequests[signer][_fileHash];\n        _vault.addSharedFile(_shareRequest._name, _shareRequest._fileType, _shareRequest._fileHash, _shareRequest._keyHash, _shareRequest._from);\n        shareRequests.deleteShareRequest(signer, _fileHash);\n    }\n\n    function rejectShareRequest(bytes32 _hashedMessage, uint8 _v, bytes32 _r, bytes32 _s, string memory _fileHash) external {\n        address signer = SigUtils.recoverSigner(_hashedMessage, _v, _r, _s);\n        shareRequests.deleteShareRequest(signer, _fileHash);\n    }\n\n    function adminAllVaults() external view onlyOwnerOrCreator returns(address[] memory, address[] memory) {\n        address[] memory _vaults;\n\n        for (uint i = 0; i < keys.length; i++) {\n            _vaults[i] = address(users[keys[i]].vault);\n        }\n\n        return (keys, _vaults);\n    }\n\n    // function adminMigrate(bytes32 _hashedMessage, uint8 _v, bytes32 _r, bytes32 _s, address[] memory _users, address[] memory _oldVaults) external onlyOwnerOrCreator{\n    //     require(_users.length == _oldVaults.length, 'length should be equal');\n\n    //     for (uint i = 0; i < _users.length; i++) {\n    //         IVault _newVault = IVault(UseDeployer.deployVault(deployer, owner, IVault(_oldVaults[i]).getUser()));\n    //         users[_users[i]] = _newVault;\n    //         _newVault.migrateFiles(_hashedMessage, _v, _r, _s, IVault(_oldVaults[i]).getAllFiles());\n    //     }\n    // }\n}",
  "sourcePath": "/Users/shubhaankar/github.com/peer-safe/contracts/contracts/PeerSafeDeployer.sol",
  "compiler": {
    "name": "solc",
    "version": "0.8.0+commit.c7dfd78e.Emscripten.clang"
  },
  "schemaVersion": "3.4.11",
  "updatedAt": "2023-07-18T13:49:53.298Z",
  "networkType": "ethereum",
  "devdoc": {
    "kind": "dev",
    "methods": {},
    "version": 1
  },
  "userdoc": {
    "kind": "user",
    "methods": {},
    "version": 1
  }
}