{
  "contractName": "PeerSafeDeployer",
  "abi": [
    {
      "inputs": [
        {
          "internalType": "address",
          "name": "_deployer",
          "type": "address"
        }
      ],
      "stateMutability": "nonpayable",
      "type": "constructor"
    },
    {
      "anonymous": false,
      "inputs": [
        {
          "indexed": true,
          "internalType": "address",
          "name": "previousOwner",
          "type": "address"
        },
        {
          "indexed": true,
          "internalType": "address",
          "name": "newOwner",
          "type": "address"
        }
      ],
      "name": "OwnershipTransferred",
      "type": "event"
    },
    {
      "inputs": [],
      "name": "getCreator",
      "outputs": [
        {
          "internalType": "address",
          "name": "",
          "type": "address"
        }
      ],
      "stateMutability": "view",
      "type": "function",
      "constant": true
    },
    {
      "inputs": [],
      "name": "getOwner",
      "outputs": [
        {
          "internalType": "address",
          "name": "",
          "type": "address"
        }
      ],
      "stateMutability": "view",
      "type": "function",
      "constant": true
    },
    {
      "inputs": [
        {
          "internalType": "address",
          "name": "_vaultOwner",
          "type": "address"
        }
      ],
      "name": "getVault",
      "outputs": [
        {
          "internalType": "address",
          "name": "",
          "type": "address"
        }
      ],
      "stateMutability": "view",
      "type": "function",
      "constant": true
    },
    {
      "inputs": [
        {
          "internalType": "string",
          "name": "_userName",
          "type": "string"
        },
        {
          "internalType": "bytes32",
          "name": "_hashedMessage",
          "type": "bytes32"
        },
        {
          "internalType": "uint8",
          "name": "_v",
          "type": "uint8"
        },
        {
          "internalType": "bytes32",
          "name": "_r",
          "type": "bytes32"
        },
        {
          "internalType": "bytes32",
          "name": "_s",
          "type": "bytes32"
        }
      ],
      "name": "deploy",
      "outputs": [
        {
          "internalType": "address",
          "name": "",
          "type": "address"
        }
      ],
      "stateMutability": "nonpayable",
      "type": "function"
    },
    {
      "inputs": [
        {
          "internalType": "string",
          "name": "name",
          "type": "string"
        },
        {
          "internalType": "string",
          "name": "fileType",
          "type": "string"
        },
        {
          "internalType": "string",
          "name": "ipfsHash",
          "type": "string"
        },
        {
          "internalType": "string",
          "name": "key",
          "type": "string"
        },
        {
          "internalType": "bytes32",
          "name": "_hashedMessage",
          "type": "bytes32"
        },
        {
          "internalType": "uint8",
          "name": "_v",
          "type": "uint8"
        },
        {
          "internalType": "bytes32",
          "name": "_r",
          "type": "bytes32"
        },
        {
          "internalType": "bytes32",
          "name": "_s",
          "type": "bytes32"
        }
      ],
      "name": "createFile",
      "outputs": [],
      "stateMutability": "nonpayable",
      "type": "function"
    },
    {
      "inputs": [
        {
          "internalType": "bytes32",
          "name": "_hashedMessage",
          "type": "bytes32"
        },
        {
          "internalType": "uint8",
          "name": "_v",
          "type": "uint8"
        },
        {
          "internalType": "bytes32",
          "name": "_r",
          "type": "bytes32"
        },
        {
          "internalType": "bytes32",
          "name": "_s",
          "type": "bytes32"
        }
      ],
      "name": "getAllFiles",
      "outputs": [
        {
          "components": [
            {
              "internalType": "string",
              "name": "_name",
              "type": "string"
            },
            {
              "internalType": "string",
              "name": "_fileType",
              "type": "string"
            },
            {
              "internalType": "string",
              "name": "_ipfsHash",
              "type": "string"
            },
            {
              "internalType": "string",
              "name": "_key",
              "type": "string"
            }
          ],
          "internalType": "struct File[]",
          "name": "",
          "type": "tuple[]"
        }
      ],
      "stateMutability": "view",
      "type": "function",
      "constant": true
    },
    {
      "inputs": [
        {
          "internalType": "bytes32",
          "name": "_hashedMessage",
          "type": "bytes32"
        },
        {
          "internalType": "uint8",
          "name": "_v",
          "type": "uint8"
        },
        {
          "internalType": "bytes32",
          "name": "_r",
          "type": "bytes32"
        },
        {
          "internalType": "bytes32",
          "name": "_s",
          "type": "bytes32"
        },
        {
          "internalType": "string",
          "name": "ipfsHash",
          "type": "string"
        }
      ],
      "name": "deleteFile",
      "outputs": [],
      "stateMutability": "nonpayable",
      "type": "function"
    },
    {
      "inputs": [
        {
          "internalType": "address",
          "name": "_user",
          "type": "address"
        }
      ],
      "name": "getPubKey",
      "outputs": [
        {
          "internalType": "bytes",
          "name": "",
          "type": "bytes"
        }
      ],
      "stateMutability": "view",
      "type": "function",
      "constant": true
    },
    {
      "inputs": [
        {
          "internalType": "bytes32",
          "name": "_hashedMessage",
          "type": "bytes32"
        },
        {
          "internalType": "uint8",
          "name": "_v",
          "type": "uint8"
        },
        {
          "internalType": "bytes32",
          "name": "_r",
          "type": "bytes32"
        },
        {
          "internalType": "bytes32",
          "name": "_s",
          "type": "bytes32"
        },
        {
          "internalType": "address",
          "name": "_to",
          "type": "address"
        },
        {
          "internalType": "string",
          "name": "_fileHash",
          "type": "string"
        },
        {
          "internalType": "string",
          "name": "_keyHash",
          "type": "string"
        },
        {
          "internalType": "string",
          "name": "_name",
          "type": "string"
        },
        {
          "internalType": "string",
          "name": "_fileType",
          "type": "string"
        }
      ],
      "name": "sendShareRequest",
      "outputs": [],
      "stateMutability": "nonpayable",
      "type": "function"
    },
    {
      "inputs": [],
      "name": "getShareRequests",
      "outputs": [
        {
          "components": [
            {
              "internalType": "address",
              "name": "_from",
              "type": "address"
            },
            {
              "internalType": "string",
              "name": "_fileHash",
              "type": "string"
            },
            {
              "internalType": "string",
              "name": "_keyHash",
              "type": "string"
            },
            {
              "internalType": "string",
              "name": "_name",
              "type": "string"
            },
            {
              "internalType": "string",
              "name": "_fileType",
              "type": "string"
            }
          ],
          "internalType": "struct ShareRequest[]",
          "name": "",
          "type": "tuple[]"
        }
      ],
      "stateMutability": "view",
      "type": "function",
      "constant": true
    },
    {
      "inputs": [
        {
          "internalType": "bytes32",
          "name": "_hashedMessage",
          "type": "bytes32"
        },
        {
          "internalType": "uint8",
          "name": "_v",
          "type": "uint8"
        },
        {
          "internalType": "bytes32",
          "name": "_r",
          "type": "bytes32"
        },
        {
          "internalType": "bytes32",
          "name": "_s",
          "type": "bytes32"
        },
        {
          "internalType": "string",
          "name": "_fileHash",
          "type": "string"
        }
      ],
      "name": "acceptShareRequest",
      "outputs": [],
      "stateMutability": "nonpayable",
      "type": "function"
    },
    {
      "inputs": [
        {
          "internalType": "bytes32",
          "name": "_hashedMessage",
          "type": "bytes32"
        },
        {
          "internalType": "uint8",
          "name": "_v",
          "type": "uint8"
        },
        {
          "internalType": "bytes32",
          "name": "_r",
          "type": "bytes32"
        },
        {
          "internalType": "bytes32",
          "name": "_s",
          "type": "bytes32"
        },
        {
          "internalType": "string",
          "name": "_fileHash",
          "type": "string"
        }
      ],
      "name": "rejectShareRequest",
      "outputs": [],
      "stateMutability": "nonpayable",
      "type": "function"
    },
    {
      "inputs": [],
      "name": "adminAllVaults",
      "outputs": [
        {
          "internalType": "address[]",
          "name": "",
          "type": "address[]"
        },
        {
          "internalType": "address[]",
          "name": "",
          "type": "address[]"
        }
      ],
      "stateMutability": "view",
      "type": "function",
      "constant": true
    }
  ],
  "bytecode": "0x60806040523480156200001157600080fd5b50604051620060ca380380620060ca833981810160405281019062000037919062000176565b3333806000806101000a81548173ffffffffffffffffffffffffffffffffffffffff021916908373ffffffffffffffffffffffffffffffffffffffff16021790555081600160006101000a81548173ffffffffffffffffffffffffffffffffffffffff021916908373ffffffffffffffffffffffffffffffffffffffff1602179055508073ffffffffffffffffffffffffffffffffffffffff16600073ffffffffffffffffffffffffffffffffffffffff167f8be0079c531659141344cd1fd0a4f28419497f9722a3daafe3b4186f6b6457e060405160405180910390a3505080600460006101000a81548173ffffffffffffffffffffffffffffffffffffffff021916908373ffffffffffffffffffffffffffffffffffffffff16021790555050620001f0565b6000815190506200017081620001d6565b92915050565b6000602082840312156200018957600080fd5b600062000199848285016200015f565b91505092915050565b6000620001af82620001b6565b9050919050565b600073ffffffffffffffffffffffffffffffffffffffff82169050919050565b620001e181620001a2565b8114620001ed57600080fd5b50565b615eca80620002006000396000f3fe608060405234801561001057600080fd5b50600436106100cf5760003560e01c8063893d20e81161008c578063d8b63c8a11610066578063d8b63c8a146101fe578063e04e02831461021d578063e4f0c9161461024d578063fce9512a14610269576100cf565b8063893d20e8146101945780639d6944c2146101b2578063b1a81bd5146101e2576100cf565b80630eb9af38146100d45780630ee2cb1014610104578063146aa7f714610122578063633072e41461013e5780636b11bc491461015a5780636e07636714610176575b600080fd5b6100ee60048036038101906100e99190614b04565b610299565b6040516100fb9190615690565b60405180910390f35b61010c61037a565b6040516101199190615690565b60405180910390f35b61013c60048036038101906101379190614d20565b6103a4565b005b61015860048036038101906101539190614d20565b61048f565b005b610174600480360381019061016f9190614d20565b6104bd565b005b61017e610a63565b60405161018b9190615734565b60405180910390f35b61019c610a74565b6040516101a99190615690565b60405180910390f35b6101cc60048036038101906101c79190614daf565b610a9d565b6040516101d99190615690565b60405180910390f35b6101fc60048036038101906101f79190614e3e565b610c46565b005b610206610d3a565b6040516102149291906156db565b60405180910390f35b61023760048036038101906102329190614b97565b611017565b6040516102449190615712565b60405180910390f35b61026760048036038101906102629190614bfa565b61111f565b005b610283600480360381019061027e9190614b04565b61125b565b604051610290919061579b565b60405180910390f35b600080600260008473ffffffffffffffffffffffffffffffffffffffff1673ffffffffffffffffffffffffffffffffffffffff16815260200190815260200160002060000160009054906101000a900473ffffffffffffffffffffffffffffffffffffffff169050600073ffffffffffffffffffffffffffffffffffffffff168173ffffffffffffffffffffffffffffffffffffffff161415610371576040517f08c379a000000000000000000000000000000000000000000000000000000000815260040161036890615860565b60405180910390fd5b80915050919050565b6000600160009054906101000a900473ffffffffffffffffffffffffffffffffffffffff16905090565b60006103b28686868661132f565b90506000600260008373ffffffffffffffffffffffffffffffffffffffff1673ffffffffffffffffffffffffffffffffffffffff16815260200190815260200160002060000160009054906101000a900473ffffffffffffffffffffffffffffffffffffffff1690508073ffffffffffffffffffffffffffffffffffffffff1663a9910054846040518263ffffffff1660e01b815260040161045491906157bd565b600060405180830381600087803b15801561046e57600080fd5b505af1158015610482573d6000803e3d6000fd5b5050505050505050505050565b600061049d8686868661132f565b90506104b5818360056113f29092919063ffffffff16565b505050505050565b60006104cb8686868661132f565b9050600073ffffffffffffffffffffffffffffffffffffffff16600560000160008373ffffffffffffffffffffffffffffffffffffffff1673ffffffffffffffffffffffffffffffffffffffff168152602001908152602001600020836040516105359190615636565b908152602001604051809103902060000160009054906101000a900473ffffffffffffffffffffffffffffffffffffffff1673ffffffffffffffffffffffffffffffffffffffff1614156105be576040517f08c379a00000000000000000000000000000000000000000000000000000000081526004016105b590615900565b60405180910390fd5b6000600260008373ffffffffffffffffffffffffffffffffffffffff1673ffffffffffffffffffffffffffffffffffffffff168152602001908152602001600020600101805461060d90615cdc565b90501415610650576040517f08c379a000000000000000000000000000000000000000000000000000000000815260040161064790615880565b60405180910390fd5b6000600260008373ffffffffffffffffffffffffffffffffffffffff1673ffffffffffffffffffffffffffffffffffffffff16815260200190815260200160002060000160009054906101000a900473ffffffffffffffffffffffffffffffffffffffff1690506000600560000160008473ffffffffffffffffffffffffffffffffffffffff1673ffffffffffffffffffffffffffffffffffffffff168152602001908152602001600020846040516107099190615636565b90815260200160405180910390206040518060a00160405290816000820160009054906101000a900473ffffffffffffffffffffffffffffffffffffffff1673ffffffffffffffffffffffffffffffffffffffff1673ffffffffffffffffffffffffffffffffffffffff16815260200160018201805461078890615cdc565b80601f01602080910402602001604051908101604052809291908181526020018280546107b490615cdc565b80156108015780601f106107d657610100808354040283529160200191610801565b820191906000526020600020905b8154815290600101906020018083116107e457829003601f168201915b5050505050815260200160028201805461081a90615cdc565b80601f016020809104026020016040519081016040528092919081815260200182805461084690615cdc565b80156108935780601f1061086857610100808354040283529160200191610893565b820191906000526020600020905b81548152906001019060200180831161087657829003601f168201915b505050505081526020016003820180546108ac90615cdc565b80601f01602080910402602001604051908101604052809291908181526020018280546108d890615cdc565b80156109255780601f106108fa57610100808354040283529160200191610925565b820191906000526020600020905b81548152906001019060200180831161090857829003601f168201915b5050505050815260200160048201805461093e90615cdc565b80601f016020809104026020016040519081016040528092919081815260200182805461096a90615cdc565b80156109b75780601f1061098c576101008083540402835291602001916109b7565b820191906000526020600020905b81548152906001019060200180831161099a57829003601f168201915b50505050508152505090508173ffffffffffffffffffffffffffffffffffffffff1663d590e7ef82606001518360800151846020015185604001516040518563ffffffff1660e01b8152600401610a1194939291906157df565b600060405180830381600087803b158015610a2b57600080fd5b505af1158015610a3f573d6000803e3d6000fd5b50505050610a59838560056113f29092919063ffffffff16565b5050505050505050565b6060610a6f6005611687565b905090565b60008060009054906101000a900473ffffffffffffffffffffffffffffffffffffffff16905090565b6000806000610aae87878787611b83565b915091506000610b01600460009054906101000a900473ffffffffffffffffffffffffffffffffffffffff1660008054906101000a900473ffffffffffffffffffffffffffffffffffffffff168b611c98565b905060405180604001604052808273ffffffffffffffffffffffffffffffffffffffff16815260200183815250600260008573ffffffffffffffffffffffffffffffffffffffff1673ffffffffffffffffffffffffffffffffffffffff16815260200190815260200160002060008201518160000160006101000a81548173ffffffffffffffffffffffffffffffffffffffff021916908373ffffffffffffffffffffffffffffffffffffffff1602179055506020820151816001019080519060200190610bd09291906146b5565b509050506003839080600181540180825580915050600190039060005260206000200160009091909190916101000a81548173ffffffffffffffffffffffffffffffffffffffff021916908373ffffffffffffffffffffffffffffffffffffffff16021790555080935050505095945050505050565b6000610c548585858561132f565b90506000600260008373ffffffffffffffffffffffffffffffffffffffff1673ffffffffffffffffffffffffffffffffffffffff16815260200190815260200160002060000160009054906101000a900473ffffffffffffffffffffffffffffffffffffffff1690508073ffffffffffffffffffffffffffffffffffffffff1663d590e7ef8b8b8b8b6040518563ffffffff1660e01b8152600401610cfc94939291906157df565b600060405180830381600087803b158015610d1657600080fd5b505af1158015610d2a573d6000803e3d6000fd5b5050505050505050505050505050565b60608060008054906101000a900473ffffffffffffffffffffffffffffffffffffffff1673ffffffffffffffffffffffffffffffffffffffff163373ffffffffffffffffffffffffffffffffffffffff161480610de45750600160009054906101000a900473ffffffffffffffffffffffffffffffffffffffff1673ffffffffffffffffffffffffffffffffffffffff163373ffffffffffffffffffffffffffffffffffffffff16145b610e23576040517f08c379a0000000000000000000000000000000000000000000000000000000008152600401610e1a906158a0565b60405180910390fd5b606060005b600380549050811015610f82576002600060038381548110610e73577f4e487b7100000000000000000000000000000000000000000000000000000000600052603260045260246000fd5b9060005260206000200160009054906101000a900473ffffffffffffffffffffffffffffffffffffffff1673ffffffffffffffffffffffffffffffffffffffff1673ffffffffffffffffffffffffffffffffffffffff16815260200190815260200160002060000160009054906101000a900473ffffffffffffffffffffffffffffffffffffffff16828281518110610f35577f4e487b7100000000000000000000000000000000000000000000000000000000600052603260045260246000fd5b602002602001019073ffffffffffffffffffffffffffffffffffffffff16908173ffffffffffffffffffffffffffffffffffffffff16815250508080610f7a90615d0e565b915050610e28565b506003818180548060200260200160405190810160405280929190818152602001828054801561100757602002820191906000526020600020905b8160009054906101000a900473ffffffffffffffffffffffffffffffffffffffff1673ffffffffffffffffffffffffffffffffffffffff1681526020019060010190808311610fbd575b5050505050915092509250509091565b606060006110278686868661132f565b90506000600260008373ffffffffffffffffffffffffffffffffffffffff1673ffffffffffffffffffffffffffffffffffffffff16815260200190815260200160002060000160009054906101000a900473ffffffffffffffffffffffffffffffffffffffff1690508073ffffffffffffffffffffffffffffffffffffffff1663ff24b5d56040518163ffffffff1660e01b815260040160006040518083038186803b1580156110d657600080fd5b505afa1580156110ea573d6000803e3d6000fd5b505050506040513d6000823e3d601f19601f820116820180604052508101906111139190614b56565b92505050949350505050565b600073ffffffffffffffffffffffffffffffffffffffff168573ffffffffffffffffffffffffffffffffffffffff16141561118f576040517f08c379a000000000000000000000000000000000000000000000000000000000815260040161118690615880565b60405180910390fd5b6000600260008773ffffffffffffffffffffffffffffffffffffffff1673ffffffffffffffffffffffffffffffffffffffff16815260200190815260200160002060010180546111de90615cdc565b90501415611221576040517f08c379a000000000000000000000000000000000000000000000000000000000815260040161121890615880565b60405180910390fd5b600061122f8a8a8a8a61132f565b905061124f8187878787876005611dfb909695949392919063ffffffff16565b50505050505050505050565b6060600260008373ffffffffffffffffffffffffffffffffffffffff1673ffffffffffffffffffffffffffffffffffffffff16815260200190815260200160002060010180546112aa90615cdc565b80601f01602080910402602001604051908101604052809291908181526020018280546112d690615cdc565b80156113235780601f106112f857610100808354040283529160200191611323565b820191906000526020600020905b81548152906001019060200180831161130657829003601f168201915b50505050509050919050565b6000806040518060400160405280601c81526020017f19457468657265756d205369676e6564204d6573736167653a0a33320000000081525090506000818760405160200161137f92919061560e565b604051602081830303815290604052805190602001209050600181878787604051600081526020016040526040516113ba9493929190615756565b6020604051602081039080840390855afa1580156113dc573d6000803e3d6000fd5b5050506020604051035192505050949350505050565b8260000160008373ffffffffffffffffffffffffffffffffffffffff1673ffffffffffffffffffffffffffffffffffffffff168152602001908152602001600020816040516114419190615636565b9081526020016040518091039020600080820160006101000a81549073ffffffffffffffffffffffffffffffffffffffff0219169055600182016000611487919061473b565b600282016000611497919061473b565b6003820160006114a7919061473b565b6004820160006114b7919061473b565b505060005b8360010160008473ffffffffffffffffffffffffffffffffffffffff1673ffffffffffffffffffffffffffffffffffffffff1681526020019081526020016000208054905081101561168157816040516020016115199190615636565b604051602081830303815290604052805190602001208460010160008573ffffffffffffffffffffffffffffffffffffffff1673ffffffffffffffffffffffffffffffffffffffff16815260200190815260200160002082815481106115a8577f4e487b7100000000000000000000000000000000000000000000000000000000600052603260045260246000fd5b906000526020600020016040516020016115c2919061564d565b60405160208183030381529060405280519060200120141561166e578360010160008473ffffffffffffffffffffffffffffffffffffffff1673ffffffffffffffffffffffffffffffffffffffff1681526020019081526020016000208181548110611657577f4e487b7100000000000000000000000000000000000000000000000000000000600052603260045260246000fd5b90600052602060002001600061166d919061473b565b5b808061167990615d0e565b9150506114bc565b50505050565b606060008260010160003373ffffffffffffffffffffffffffffffffffffffff1673ffffffffffffffffffffffffffffffffffffffff1681526020019081526020016000208054905067ffffffffffffffff81111561170f577f4e487b7100000000000000000000000000000000000000000000000000000000600052604160045260246000fd5b60405190808252806020026020018201604052801561174857816020015b61173561477b565b81526020019060019003908161172d5790505b50905060005b8360010160003373ffffffffffffffffffffffffffffffffffffffff1673ffffffffffffffffffffffffffffffffffffffff16815260200190815260200160002080549050811015611b79578360000160003373ffffffffffffffffffffffffffffffffffffffff1673ffffffffffffffffffffffffffffffffffffffff1681526020019081526020016000208460010160003373ffffffffffffffffffffffffffffffffffffffff1673ffffffffffffffffffffffffffffffffffffffff1681526020019081526020016000208281548110611854577f4e487b7100000000000000000000000000000000000000000000000000000000600052603260045260246000fd5b9060005260206000200160405161186b919061564d565b90815260200160405180910390206040518060a00160405290816000820160009054906101000a900473ffffffffffffffffffffffffffffffffffffffff1673ffffffffffffffffffffffffffffffffffffffff1673ffffffffffffffffffffffffffffffffffffffff1681526020016001820180546118ea90615cdc565b80601f016020809104026020016040519081016040528092919081815260200182805461191690615cdc565b80156119635780601f1061193857610100808354040283529160200191611963565b820191906000526020600020905b81548152906001019060200180831161194657829003601f168201915b5050505050815260200160028201805461197c90615cdc565b80601f01602080910402602001604051908101604052809291908181526020018280546119a890615cdc565b80156119f55780601f106119ca576101008083540402835291602001916119f5565b820191906000526020600020905b8154815290600101906020018083116119d857829003601f168201915b50505050508152602001600382018054611a0e90615cdc565b80601f0160208091040260200160405190810160405280929190818152602001828054611a3a90615cdc565b8015611a875780601f10611a5c57610100808354040283529160200191611a87565b820191906000526020600020905b815481529060010190602001808311611a6a57829003601f168201915b50505050508152602001600482018054611aa090615cdc565b80601f0160208091040260200160405190810160405280929190818152602001828054611acc90615cdc565b8015611b195780601f10611aee57610100808354040283529160200191611b19565b820191906000526020600020905b815481529060010190602001808311611afc57829003601f168201915b505050505081525050828281518110611b5b577f4e487b7100000000000000000000000000000000000000000000000000000000600052603260045260246000fd5b60200260200101819052508080611b7190615d0e565b91505061174e565b5080915050919050565b6000606060006040518060400160405280601c81526020017f19457468657265756d205369676e6564204d6573736167653a0a333200000000815250905060008188604051602001611bd692919061560e565b604051602081830303815290604052805190602001209050600080611c128360001c601b8b611c059190615c01565b8a60001c8a60001c6120cc565b915091506001838a8a8a60405160008152602001604052604051611c399493929190615756565b6020604051602081039080840390855afa158015611c5b573d6000803e3d6000fd5b505050602060405103518282604051602001611c78929190615664565b604051602081830303815290604052955095505050505094509492505050565b6000807ffa0bc4036094352f93884a583c426d38453d3bff04c42db3dd82b8e63c94be348484604051602401611ccf9291906156ab565b604051602081830303815290604052907bffffffffffffffffffffffffffffffffffffffffffffffffffffffff19166020820180517bffffffffffffffffffffffffffffffffffffffffffffffffffffffff838183161783525050505090506000808673ffffffffffffffffffffffffffffffffffffffff1683604051611d5691906155f7565b600060405180830381855af49150503d8060008114611d91576040519150601f19603f3d011682016040523d82523d6000602084013e611d96565b606091505b509150915081611ddb576040517f08c379a0000000000000000000000000000000000000000000000000000000008152600401611dd290615840565b60405180910390fd5b80806020019051810190611def9190614b2d565b93505050509392505050565b600073ffffffffffffffffffffffffffffffffffffffff168760000160008773ffffffffffffffffffffffffffffffffffffffff1673ffffffffffffffffffffffffffffffffffffffff16815260200190815260200160002085604051611e629190615636565b908152602001604051809103902060000160009054906101000a900473ffffffffffffffffffffffffffffffffffffffff1673ffffffffffffffffffffffffffffffffffffffff1614611eea576040517f08c379a0000000000000000000000000000000000000000000000000000000008152600401611ee1906158e0565b60405180910390fd5b60006040518060a001604052808873ffffffffffffffffffffffffffffffffffffffff168152602001868152602001858152602001848152602001838152509050808860000160008873ffffffffffffffffffffffffffffffffffffffff1673ffffffffffffffffffffffffffffffffffffffff16815260200190815260200160002086604051611f7b9190615636565b908152602001604051809103902060008201518160000160006101000a81548173ffffffffffffffffffffffffffffffffffffffff021916908373ffffffffffffffffffffffffffffffffffffffff1602179055506020820151816001019080519060200190611fec9291906147c0565b5060408201518160020190805190602001906120099291906147c0565b5060608201518160030190805190602001906120269291906147c0565b5060808201518160040190805190602001906120439291906147c0565b509050508760010160008773ffffffffffffffffffffffffffffffffffffffff1673ffffffffffffffffffffffffffffffffffffffff168152602001908152602001600020859080600181540180825580915050600190039060005260206000200160009091909190915090805190602001906120c19291906147c0565b505050505050505050565b60008060007ffffffffffffffffffffffffffffffffffffffffffffffffffffffffefffffc2f80612126577f4e487b7100000000000000000000000000000000000000000000000000000000600052601260045260246000fd5b60018760ff16901c60ff167ffffffffffffffffffffffffffffffffffffffffffffffffffffffffefffffc2f61215c9190615b73565b860890507ffffffffffffffffffffffffffffffffffffffffffffffffffffffffefffffc2f8111806121ad57507ffffffffffffffffffffffffffffffffebaaedce6af48a03bbfd25e8cd036414184115b806121d757507ffffffffffffffffffffffffffffffffebaaedce6af48a03bbfd25e8cd036414185115b806121e25750600084145b806121ed5750600085145b806121fb575060018660ff16115b1561220d576000809250925050612605565b6000612239867ffffffffffffffffffffffffffffffffebaaedce6af48a03bbfd25e8cd036414161260e565b905060007ffffffffffffffffffffffffffffffffffffffffffffffffffffffffefffffc2f80612292577f4e487b7100000000000000000000000000000000000000000000000000000000600052601260045260246000fd5b7ffffffffffffffffffffffffffffffffffffffffffffffffffffffffefffffc2f806122e7577f4e487b7100000000000000000000000000000000000000000000000000000000600052601260045260246000fd5b60077ffffffffffffffffffffffffffffffffffffffffffffffffffffffffefffffc2f8061233e577f4e487b7100000000000000000000000000000000000000000000000000000000600052601260045260246000fd5b60008709087ffffffffffffffffffffffffffffffffffffffffffffffffffffffffefffffc2f80612398577f4e487b7100000000000000000000000000000000000000000000000000000000600052601260045260246000fd5b7ffffffffffffffffffffffffffffffffffffffffffffffffffffffffefffffc2f806123ed577f4e487b7100000000000000000000000000000000000000000000000000000000600052601260045260246000fd5b868709860908905061243781600460017ffffffffffffffffffffffffffffffffffffffffffffffffffffffffefffffc2f6124289190615aec565b6124329190615b42565b612746565b9050600080600160028b60ff168561244f9190615aec565b6124599190615aec565b161461249057817ffffffffffffffffffffffffffffffffffffffffffffffffffffffffefffffc2f61248b9190615bcd565b612492565b815b905060008060006125687ffffffffffffffffffffffffffffffffebaaedce6af48a03bbfd25e8cd0364141806124f1577f4e487b7100000000000000000000000000000000000000000000000000000000600052601260045260246000fd5b8e7ffffffffffffffffffffffffffffffffebaaedce6af48a03bbfd25e8cd036414161251d9190615bcd565b88097f79be667ef9dcbbac55a06295ce870b07029bfcdb2dce28d959f2815b16f817987f483ada7726a3c4655da4fbfc0e1108a8fd17b448a68554199c47d08ffb10d4b860016128fc565b92509250925060008060006125d77ffffffffffffffffffffffffffffffffebaaedce6af48a03bbfd25e8cd0364141806125cb577f4e487b7100000000000000000000000000000000000000000000000000000000600052601260045260246000fd5b8e8b098b8960016128fc565b9250925092506000806125ee888888888888612997565b9150915081819d509d505050505050505050505050505b94509492505050565b60008083141580156126205750818314155b801561262d575060008214155b61266c576040517f08c379a000000000000000000000000000000000000000000000000000000000815260040161266390615920565b60405180910390fd5b60008060019050600084905060005b6000871461273957868261268f9190615b42565b90508286806126c7577f4e487b7100000000000000000000000000000000000000000000000000000000600052601260045260246000fd5b87806126fc577f4e487b7100000000000000000000000000000000000000000000000000000000600052601260045260246000fd5b8584098861270a9190615bcd565b860880945081955050508687826127219190615b73565b8361272c9190615bcd565b809850819350505061267b565b8394505050505092915050565b60008083141561275957600090506128f6565b600082141561276b57600190506128f6565b60006001905060007f800000000000000000000000000000000000000000000000000000000000000090505b60008111156128f0577ffffffffffffffffffffffffffffffffffffffffffffffffffffffffefffffc2f8185161515860a7ffffffffffffffffffffffffffffffffffffffffffffffffffffffffefffffc2f8485090991507ffffffffffffffffffffffffffffffffffffffffffffffffffffffffefffffc2f6002820485161515860a7ffffffffffffffffffffffffffffffffffffffffffffffffffffffffefffffc2f8485090991507ffffffffffffffffffffffffffffffffffffffffffffffffffffffffefffffc2f6004820485161515860a7ffffffffffffffffffffffffffffffffffffffffffffffffffffffffefffffc2f8485090991507ffffffffffffffffffffffffffffffffffffffffffffffffffffffffefffffc2f6008820485161515860a7ffffffffffffffffffffffffffffffffffffffffffffffffffffffffefffffc2f848509099150601081049050612797565b81925050505b92915050565b6000806000808714156129175785858592509250925061298d565b60008790506000806000600190505b6000841461297f5760006001851614612954576129478383838d8d8d612a6b565b8093508194508295505050505b6002846129619190615b42565b935061296e8a8a8a613db7565b809a50819b50829c50505050612926565b828282965096509650505050505b9450945094915050565b6000806000806000878b1415612a325760007ffffffffffffffffffffffffffffffffffffffffffffffffffffffffefffffc2f806129fe577f4e487b7100000000000000000000000000000000000000000000000000000000600052601260045260246000fd5b888c081415612a165760008094509450505050612a60565b612a218b8b8b613db7565b809350819450829550505050612a4d565b612a408b8b8b8b8b8b612a6b565b8093508194508295505050505b612a58838383614507565b945094505050505b965096945050505050565b60008060008089148015612a7f5750600088145b15612a9257858585925092509250613dab565b600086148015612aa25750600085145b15612ab557888888925092509250613dab565b612abd614846565b7ffffffffffffffffffffffffffffffffffffffffffffffffffffffffefffffc2f80612b12577f4e487b7100000000000000000000000000000000000000000000000000000000600052601260045260246000fd5b88890981600060048110612b4f577f4e487b7100000000000000000000000000000000000000000000000000000000600052603260045260246000fd5b6020020181815250507ffffffffffffffffffffffffffffffffffffffffffffffffffffffffefffffc2f80612bad577f4e487b7100000000000000000000000000000000000000000000000000000000600052601260045260246000fd5b81600060048110612be7577f4e487b7100000000000000000000000000000000000000000000000000000000600052603260045260246000fd5b6020020151890981600160048110612c28577f4e487b7100000000000000000000000000000000000000000000000000000000600052603260045260246000fd5b6020020181815250507ffffffffffffffffffffffffffffffffffffffffffffffffffffffffefffffc2f80612c86577f4e487b7100000000000000000000000000000000000000000000000000000000600052601260045260246000fd5b85860981600260048110612cc3577f4e487b7100000000000000000000000000000000000000000000000000000000600052603260045260246000fd5b6020020181815250507ffffffffffffffffffffffffffffffffffffffffffffffffffffffffefffffc2f80612d21577f4e487b7100000000000000000000000000000000000000000000000000000000600052601260045260246000fd5b81600260048110612d5b577f4e487b7100000000000000000000000000000000000000000000000000000000600052603260045260246000fd5b6020020151860981600360048110612d9c577f4e487b7100000000000000000000000000000000000000000000000000000000600052603260045260246000fd5b60200201818152505060405180608001604052807ffffffffffffffffffffffffffffffffffffffffffffffffffffffffefffffc2f80612e05577f4e487b7100000000000000000000000000000000000000000000000000000000600052601260045260246000fd5b83600260048110612e3f577f4e487b7100000000000000000000000000000000000000000000000000000000600052603260045260246000fd5b60200201518d0981526020017ffffffffffffffffffffffffffffffffffffffffffffffffffffffffefffffc2f80612ea0577f4e487b7100000000000000000000000000000000000000000000000000000000600052601260045260246000fd5b83600360048110612eda577f4e487b7100000000000000000000000000000000000000000000000000000000600052603260045260246000fd5b60200201518c0981526020017ffffffffffffffffffffffffffffffffffffffffffffffffffffffffefffffc2f80612f3b577f4e487b7100000000000000000000000000000000000000000000000000000000600052601260045260246000fd5b83600060048110612f75577f4e487b7100000000000000000000000000000000000000000000000000000000600052603260045260246000fd5b60200201518a0981526020017ffffffffffffffffffffffffffffffffffffffffffffffffffffffffefffffc2f80612fd6577f4e487b7100000000000000000000000000000000000000000000000000000000600052601260045260246000fd5b83600160048110613010577f4e487b7100000000000000000000000000000000000000000000000000000000600052603260045260246000fd5b60200201518909815250905080600260048110613056577f4e487b7100000000000000000000000000000000000000000000000000000000600052603260045260246000fd5b602002015181600060048110613095577f4e487b7100000000000000000000000000000000000000000000000000000000600052603260045260246000fd5b60200201511415806131235750806003600481106130dc577f4e487b7100000000000000000000000000000000000000000000000000000000600052603260045260246000fd5b60200201518160016004811061311b577f4e487b7100000000000000000000000000000000000000000000000000000000600052603260045260246000fd5b602002015114155b613162576040517f08c379a0000000000000000000000000000000000000000000000000000000008152600401613159906158c0565b60405180910390fd5b61316a614846565b7ffffffffffffffffffffffffffffffffffffffffffffffffffffffffefffffc2f806131bf577f4e487b7100000000000000000000000000000000000000000000000000000000600052601260045260246000fd5b826000600481106131f9577f4e487b7100000000000000000000000000000000000000000000000000000000600052603260045260246000fd5b60200201517ffffffffffffffffffffffffffffffffffffffffffffffffffffffffefffffc2f6132299190615bcd565b83600260048110613263577f4e487b7100000000000000000000000000000000000000000000000000000000600052603260045260246000fd5b602002015108816000600481106132a3577f4e487b7100000000000000000000000000000000000000000000000000000000600052603260045260246000fd5b6020020181815250507ffffffffffffffffffffffffffffffffffffffffffffffffffffffffefffffc2f80613301577f4e487b7100000000000000000000000000000000000000000000000000000000600052601260045260246000fd5b8260016004811061333b577f4e487b7100000000000000000000000000000000000000000000000000000000600052603260045260246000fd5b60200201517ffffffffffffffffffffffffffffffffffffffffffffffffffffffffefffffc2f61336b9190615bcd565b836003600481106133a5577f4e487b7100000000000000000000000000000000000000000000000000000000600052603260045260246000fd5b602002015108816001600481106133e5577f4e487b7100000000000000000000000000000000000000000000000000000000600052603260045260246000fd5b6020020181815250507ffffffffffffffffffffffffffffffffffffffffffffffffffffffffefffffc2f80613443577f4e487b7100000000000000000000000000000000000000000000000000000000600052601260045260246000fd5b8160006004811061347d577f4e487b7100000000000000000000000000000000000000000000000000000000600052603260045260246000fd5b6020020151826000600481106134bc577f4e487b7100000000000000000000000000000000000000000000000000000000600052603260045260246000fd5b602002015109816002600481106134fc577f4e487b7100000000000000000000000000000000000000000000000000000000600052603260045260246000fd5b6020020181815250507ffffffffffffffffffffffffffffffffffffffffffffffffffffffffefffffc2f8061355a577f4e487b7100000000000000000000000000000000000000000000000000000000600052601260045260246000fd5b81600060048110613594577f4e487b7100000000000000000000000000000000000000000000000000000000600052603260045260246000fd5b6020020151826002600481106135d3577f4e487b7100000000000000000000000000000000000000000000000000000000600052603260045260246000fd5b60200201510981600360048110613613577f4e487b7100000000000000000000000000000000000000000000000000000000600052603260045260246000fd5b60200201818152505060007ffffffffffffffffffffffffffffffffffffffffffffffffffffffffefffffc2f80613673577f4e487b7100000000000000000000000000000000000000000000000000000000600052601260045260246000fd5b826003600481106136ad577f4e487b7100000000000000000000000000000000000000000000000000000000600052603260045260246000fd5b60200201517ffffffffffffffffffffffffffffffffffffffffffffffffffffffffefffffc2f6136dd9190615bcd565b7ffffffffffffffffffffffffffffffffffffffffffffffffffffffffefffffc2f80613732577f4e487b7100000000000000000000000000000000000000000000000000000000600052601260045260246000fd5b8460016004811061376c577f4e487b7100000000000000000000000000000000000000000000000000000000600052603260045260246000fd5b6020020151856001600481106137ab577f4e487b7100000000000000000000000000000000000000000000000000000000600052603260045260246000fd5b6020020151090890507ffffffffffffffffffffffffffffffffffffffffffffffffffffffffefffffc2f80613809577f4e487b7100000000000000000000000000000000000000000000000000000000600052601260045260246000fd5b7ffffffffffffffffffffffffffffffffffffffffffffffffffffffffefffffc2f8061385e577f4e487b7100000000000000000000000000000000000000000000000000000000600052601260045260246000fd5b7ffffffffffffffffffffffffffffffffffffffffffffffffffffffffefffffc2f806138b3577f4e487b7100000000000000000000000000000000000000000000000000000000600052601260045260246000fd5b846002600481106138ed577f4e487b7100000000000000000000000000000000000000000000000000000000600052603260045260246000fd5b60200201518660006004811061392c577f4e487b7100000000000000000000000000000000000000000000000000000000600052603260045260246000fd5b6020020151096002097ffffffffffffffffffffffffffffffffffffffffffffffffffffffffefffffc2f6139609190615bcd565b8208905060007ffffffffffffffffffffffffffffffffffffffffffffffffffffffffefffffc2f806139bb577f4e487b7100000000000000000000000000000000000000000000000000000000600052601260045260246000fd5b7ffffffffffffffffffffffffffffffffffffffffffffffffffffffffefffffc2f80613a10577f4e487b7100000000000000000000000000000000000000000000000000000000600052601260045260246000fd5b837ffffffffffffffffffffffffffffffffffffffffffffffffffffffffefffffc2f613a3c9190615bcd565b7ffffffffffffffffffffffffffffffffffffffffffffffffffffffffefffffc2f80613a91577f4e487b7100000000000000000000000000000000000000000000000000000000600052601260045260246000fd5b86600260048110613acb577f4e487b7100000000000000000000000000000000000000000000000000000000600052603260045260246000fd5b602002015188600060048110613b0a577f4e487b7100000000000000000000000000000000000000000000000000000000600052603260045260246000fd5b6020020151090884600160048110613b4b577f4e487b7100000000000000000000000000000000000000000000000000000000600052603260045260246000fd5b60200201510990507ffffffffffffffffffffffffffffffffffffffffffffffffffffffffefffffc2f80613ba8577f4e487b7100000000000000000000000000000000000000000000000000000000600052601260045260246000fd5b7ffffffffffffffffffffffffffffffffffffffffffffffffffffffffefffffc2f80613bfd577f4e487b7100000000000000000000000000000000000000000000000000000000600052601260045260246000fd5b84600360048110613c37577f4e487b7100000000000000000000000000000000000000000000000000000000600052603260045260246000fd5b602002015186600160048110613c76577f4e487b7100000000000000000000000000000000000000000000000000000000600052603260045260246000fd5b6020020151097ffffffffffffffffffffffffffffffffffffffffffffffffffffffffefffffc2f613ca79190615bcd565b8208905060007ffffffffffffffffffffffffffffffffffffffffffffffffffffffffefffffc2f80613d02577f4e487b7100000000000000000000000000000000000000000000000000000000600052601260045260246000fd5b7ffffffffffffffffffffffffffffffffffffffffffffffffffffffffefffffc2f80613d57577f4e487b7100000000000000000000000000000000000000000000000000000000600052601260045260246000fd5b8a8e0985600060048110613d94577f4e487b7100000000000000000000000000000000000000000000000000000000600052603260045260246000fd5b602002015109905082828297509750975050505050505b96509650969350505050565b600080600080841415613dd2578585859250925092506144fe565b60007ffffffffffffffffffffffffffffffffffffffffffffffffffffffffefffffc2f80613e29577f4e487b7100000000000000000000000000000000000000000000000000000000600052601260045260246000fd5b878809905060007ffffffffffffffffffffffffffffffffffffffffffffffffffffffffefffffc2f80613e85577f4e487b7100000000000000000000000000000000000000000000000000000000600052601260045260246000fd5b878809905060007ffffffffffffffffffffffffffffffffffffffffffffffffffffffffefffffc2f80613ee1577f4e487b7100000000000000000000000000000000000000000000000000000000600052601260045260246000fd5b878809905060007ffffffffffffffffffffffffffffffffffffffffffffffffffffffffefffffc2f80613f3d577f4e487b7100000000000000000000000000000000000000000000000000000000600052601260045260246000fd5b7ffffffffffffffffffffffffffffffffffffffffffffffffffffffffefffffc2f80613f92577f4e487b7100000000000000000000000000000000000000000000000000000000600052601260045260246000fd5b848c09600409905060007ffffffffffffffffffffffffffffffffffffffffffffffffffffffffefffffc2f80613ff1577f4e487b7100000000000000000000000000000000000000000000000000000000600052601260045260246000fd5b7ffffffffffffffffffffffffffffffffffffffffffffffffffffffffefffffc2f80614046577f4e487b7100000000000000000000000000000000000000000000000000000000600052601260045260246000fd5b7ffffffffffffffffffffffffffffffffffffffffffffffffffffffffefffffc2f8061409b577f4e487b7100000000000000000000000000000000000000000000000000000000600052601260045260246000fd5b8586096000097ffffffffffffffffffffffffffffffffffffffffffffffffffffffffefffffc2f806140f6577f4e487b7100000000000000000000000000000000000000000000000000000000600052601260045260246000fd5b876003090890507ffffffffffffffffffffffffffffffffffffffffffffffffffffffffefffffc2f80614152577f4e487b7100000000000000000000000000000000000000000000000000000000600052601260045260246000fd5b7ffffffffffffffffffffffffffffffffffffffffffffffffffffffffefffffc2f806141a7577f4e487b7100000000000000000000000000000000000000000000000000000000600052601260045260246000fd5b8384087ffffffffffffffffffffffffffffffffffffffffffffffffffffffffefffffc2f6141d59190615bcd565b7ffffffffffffffffffffffffffffffffffffffffffffffffffffffffefffffc2f8061422a577f4e487b7100000000000000000000000000000000000000000000000000000000600052601260045260246000fd5b8384090894507ffffffffffffffffffffffffffffffffffffffffffffffffffffffffefffffc2f80614285577f4e487b7100000000000000000000000000000000000000000000000000000000600052601260045260246000fd5b7ffffffffffffffffffffffffffffffffffffffffffffffffffffffffefffffc2f806142da577f4e487b7100000000000000000000000000000000000000000000000000000000600052601260045260246000fd5b7ffffffffffffffffffffffffffffffffffffffffffffffffffffffffefffffc2f8061432f577f4e487b7100000000000000000000000000000000000000000000000000000000600052601260045260246000fd5b8687096008097ffffffffffffffffffffffffffffffffffffffffffffffffffffffffefffffc2f6143609190615bcd565b7ffffffffffffffffffffffffffffffffffffffffffffffffffffffffefffffc2f806143b5577f4e487b7100000000000000000000000000000000000000000000000000000000600052601260045260246000fd5b7ffffffffffffffffffffffffffffffffffffffffffffffffffffffffefffffc2f8061440a577f4e487b7100000000000000000000000000000000000000000000000000000000600052601260045260246000fd5b887ffffffffffffffffffffffffffffffffffffffffffffffffffffffffefffffc2f6144369190615bcd565b860884090893507ffffffffffffffffffffffffffffffffffffffffffffffffffffffffefffffc2f80614492577f4e487b7100000000000000000000000000000000000000000000000000000000600052601260045260246000fd5b7ffffffffffffffffffffffffffffffffffffffffffffffffffffffffefffffc2f806144e7577f4e487b7100000000000000000000000000000000000000000000000000000000600052601260045260246000fd5b8a8c09600209925084848497509750975050505050505b93509350939050565b6000806000614536847ffffffffffffffffffffffffffffffffffffffffffffffffffffffffefffffc2f61260e565b905060007ffffffffffffffffffffffffffffffffffffffffffffffffffffffffefffffc2f8061458f577f4e487b7100000000000000000000000000000000000000000000000000000000600052601260045260246000fd5b828309905060007ffffffffffffffffffffffffffffffffffffffffffffffffffffffffefffffc2f806145eb577f4e487b7100000000000000000000000000000000000000000000000000000000600052601260045260246000fd5b828909905060007ffffffffffffffffffffffffffffffffffffffffffffffffffffffffefffffc2f80614647577f4e487b7100000000000000000000000000000000000000000000000000000000600052601260045260246000fd5b7ffffffffffffffffffffffffffffffffffffffffffffffffffffffffefffffc2f8061469c577f4e487b7100000000000000000000000000000000000000000000000000000000600052601260045260246000fd5b8486098909905081819550955050505050935093915050565b8280546146c190615cdc565b90600052602060002090601f0160209004810192826146e3576000855561472a565b82601f106146fc57805160ff191683800117855561472a565b8280016001018555821561472a579182015b8281111561472957825182559160200191906001019061470e565b5b5090506147379190614868565b5090565b50805461474790615cdc565b6000825580601f106147595750614778565b601f0160209004906000526020600020908101906147779190614868565b5b50565b6040518060a00160405280600073ffffffffffffffffffffffffffffffffffffffff168152602001606081526020016060815260200160608152602001606081525090565b8280546147cc90615cdc565b90600052602060002090601f0160209004810192826147ee5760008555614835565b82601f1061480757805160ff1916838001178555614835565b82800160010185558215614835579182015b82811115614834578251825591602001919060010190614819565b5b5090506148429190614868565b5090565b6040518060800160405280600490602082028036833780820191505090505090565b5b80821115614881576000816000905550600101614869565b5090565b600061489861489384615971565b615940565b9050808382526020820190508260005b858110156148d857815185016148be8882614a1b565b8452602084019350602083019250506001810190506148a8565b5050509392505050565b60006148f56148f08461599d565b615940565b90508281526020810184848401111561490d57600080fd5b614918848285615c9a565b509392505050565b600061493361492e8461599d565b615940565b90508281526020810184848401111561494b57600080fd5b614956848285615ca9565b509392505050565b60008135905061496d81615e38565b92915050565b60008151905061498281615e4f565b92915050565b600082601f83011261499957600080fd5b81516149a9848260208601614885565b91505092915050565b6000813590506149c181615e66565b92915050565b600082601f8301126149d857600080fd5b81356149e88482602086016148e2565b91505092915050565b600082601f830112614a0257600080fd5b8151614a12848260208601614920565b91505092915050565b600060808284031215614a2d57600080fd5b614a376080615940565b9050600082015167ffffffffffffffff811115614a5357600080fd5b614a5f848285016149f1565b600083015250602082015167ffffffffffffffff811115614a7f57600080fd5b614a8b848285016149f1565b602083015250604082015167ffffffffffffffff811115614aab57600080fd5b614ab7848285016149f1565b604083015250606082015167ffffffffffffffff811115614ad757600080fd5b614ae3848285016149f1565b60608301525092915050565b600081359050614afe81615e7d565b92915050565b600060208284031215614b1657600080fd5b6000614b248482850161495e565b91505092915050565b600060208284031215614b3f57600080fd5b6000614b4d84828501614973565b91505092915050565b600060208284031215614b6857600080fd5b600082015167ffffffffffffffff811115614b8257600080fd5b614b8e84828501614988565b91505092915050565b60008060008060808587031215614bad57600080fd5b6000614bbb878288016149b2565b9450506020614bcc87828801614aef565b9350506040614bdd878288016149b2565b9250506060614bee878288016149b2565b91505092959194509250565b60008060008060008060008060006101208a8c031215614c1957600080fd5b6000614c278c828d016149b2565b9950506020614c388c828d01614aef565b9850506040614c498c828d016149b2565b9750506060614c5a8c828d016149b2565b9650506080614c6b8c828d0161495e565b95505060a08a013567ffffffffffffffff811115614c8857600080fd5b614c948c828d016149c7565b94505060c08a013567ffffffffffffffff811115614cb157600080fd5b614cbd8c828d016149c7565b93505060e08a013567ffffffffffffffff811115614cda57600080fd5b614ce68c828d016149c7565b9250506101008a013567ffffffffffffffff811115614d0457600080fd5b614d108c828d016149c7565b9150509295985092959850929598565b600080600080600060a08688031215614d3857600080fd5b6000614d46888289016149b2565b9550506020614d5788828901614aef565b9450506040614d68888289016149b2565b9350506060614d79888289016149b2565b925050608086013567ffffffffffffffff811115614d9657600080fd5b614da2888289016149c7565b9150509295509295909350565b600080600080600060a08688031215614dc757600080fd5b600086013567ffffffffffffffff811115614de157600080fd5b614ded888289016149c7565b9550506020614dfe888289016149b2565b9450506040614e0f88828901614aef565b9350506060614e20888289016149b2565b9250506080614e31888289016149b2565b9150509295509295909350565b600080600080600080600080610100898b031215614e5b57600080fd5b600089013567ffffffffffffffff811115614e7557600080fd5b614e818b828c016149c7565b985050602089013567ffffffffffffffff811115614e9e57600080fd5b614eaa8b828c016149c7565b975050604089013567ffffffffffffffff811115614ec757600080fd5b614ed38b828c016149c7565b965050606089013567ffffffffffffffff811115614ef057600080fd5b614efc8b828c016149c7565b9550506080614f0d8b828c016149b2565b94505060a0614f1e8b828c01614aef565b93505060c0614f2f8b828c016149b2565b92505060e0614f408b828c016149b2565b9150509295985092959890939650565b6000614f5c8383614f90565b60208301905092915050565b6000614f7483836154ce565b905092915050565b6000614f888383615546565b905092915050565b614f9981615c35565b82525050565b614fa881615c35565b82525050565b6000614fb982615a12565b614fc38185615a70565b9350614fce836159cd565b8060005b83811015614fff578151614fe68882614f50565b9750614ff183615a49565b925050600181019050614fd2565b5085935050505092915050565b600061501782615a1d565b6150218185615a81565b935083602082028501615033856159dd565b8060005b8581101561506f57848403895281516150508582614f68565b945061505b83615a56565b925060208a01995050600181019050615037565b50829750879550505050505092915050565b600061508c82615a28565b6150968185615a92565b9350836020820285016150a8856159ed565b8060005b858110156150e457848403895281516150c58582614f7c565b94506150d083615a63565b925060208a019950506001810190506150ac565b50829750879550505050505092915050565b6150ff81615c59565b82525050565b61511661511182615c59565b615d57565b82525050565b600061512782615a33565b6151318185615aa3565b9350615141818560208601615ca9565b61514a81615e27565b840191505092915050565b600061516082615a33565b61516a8185615ab4565b935061517a818560208601615ca9565b80840191505092915050565b600061519182615a3e565b61519b8185615abf565b93506151ab818560208601615ca9565b6151b481615e27565b840191505092915050565b60006151ca82615a3e565b6151d48185615ad0565b93506151e4818560208601615ca9565b6151ed81615e27565b840191505092915050565b600061520382615a3e565b61520d8185615ae1565b935061521d818560208601615ca9565b80840191505092915050565b6000815461523681615cdc565b6152408186615ae1565b9450600182166000811461525b576001811461526c5761529f565b60ff1983168652818601935061529f565b615275856159fd565b60005b8381101561529757815481890152600182019150602081019050615278565b838801955050505b50505092915050565b60006152b5600983615ad0565b91507f6465706c206661696c00000000000000000000000000000000000000000000006000830152602082019050919050565b60006152f5600e83615ad0565b91507f646f6573206e6f742065786973740000000000000000000000000000000000006000830152602082019050919050565b6000615335600683615ad0565b91507f45525236393100000000000000000000000000000000000000000000000000006000830152602082019050919050565b6000615375603a83615ad0565b91507f4f776e61626c65236f6e6c794f776e65724f7243726561746f723a2053454e4460008301527f45525f49535f4e4f545f4f574e45525f4f525f43524541544f520000000000006020830152604082019050919050565b60006153db601e83615ad0565b91507f557365206a6163446f75626c652066756e6374696f6e20696e737465616400006000830152602082019050919050565b600061541b600983615ad0565b91507f53524145786973747300000000000000000000000000000000000000000000006000830152602082019050919050565b600061545b600683615ad0565b91507f45525232313400000000000000000000000000000000000000000000000000006000830152602082019050919050565b600061549b600e83615ad0565b91507f496e76616c6964206e756d6265720000000000000000000000000000000000006000830152602082019050919050565b600060808301600083015184820360008601526154eb8282615186565b915050602083015184820360208601526155058282615186565b9150506040830151848203604086015261551f8282615186565b915050606083015184820360608601526155398282615186565b9150508091505092915050565b600060a08301600083015161555e6000860182614f90565b50602083015184820360208601526155768282615186565b915050604083015184820360408601526155908282615186565b915050606083015184820360608601526155aa8282615186565b915050608083015184820360808601526155c48282615186565b9150508091505092915050565b6155e26155dd82615c83565b615d61565b82525050565b6155f181615c8d565b82525050565b60006156038284615155565b915081905092915050565b600061561a8285615155565b91506156268284615105565b6020820191508190509392505050565b600061564282846151f8565b915081905092915050565b60006156598284615229565b915081905092915050565b600061567082856155d1565b60208201915061568082846155d1565b6020820191508190509392505050565b60006020820190506156a56000830184614f9f565b92915050565b60006040820190506156c06000830185614f9f565b81810360208301526156d281846151bf565b90509392505050565b600060408201905081810360008301526156f58185614fae565b905081810360208301526157098184614fae565b90509392505050565b6000602082019050818103600083015261572c818461500c565b905092915050565b6000602082019050818103600083015261574e8184615081565b905092915050565b600060808201905061576b60008301876150f6565b61577860208301866155e8565b61578560408301856150f6565b61579260608301846150f6565b95945050505050565b600060208201905081810360008301526157b5818461511c565b905092915050565b600060208201905081810360008301526157d781846151bf565b905092915050565b600060808201905081810360008301526157f981876151bf565b9050818103602083015261580d81866151bf565b9050818103604083015261582181856151bf565b9050818103606083015261583581846151bf565b905095945050505050565b60006020820190508181036000830152615859816152a8565b9050919050565b60006020820190508181036000830152615879816152e8565b9050919050565b6000602082019050818103600083015261589981615328565b9050919050565b600060208201905081810360008301526158b981615368565b9050919050565b600060208201905081810360008301526158d9816153ce565b9050919050565b600060208201905081810360008301526158f98161540e565b9050919050565b600060208201905081810360008301526159198161544e565b9050919050565b600060208201905081810360008301526159398161548e565b9050919050565b6000604051905081810181811067ffffffffffffffff8211171561596757615966615df8565b5b8060405250919050565b600067ffffffffffffffff82111561598c5761598b615df8565b5b602082029050602081019050919050565b600067ffffffffffffffff8211156159b8576159b7615df8565b5b601f19601f8301169050602081019050919050565b6000819050602082019050919050565b6000819050602082019050919050565b6000819050602082019050919050565b60008190508160005260206000209050919050565b600081519050919050565b600081519050919050565b600081519050919050565b600081519050919050565b600081519050919050565b6000602082019050919050565b6000602082019050919050565b6000602082019050919050565b600082825260208201905092915050565b600082825260208201905092915050565b600082825260208201905092915050565b600082825260208201905092915050565b600081905092915050565b600082825260208201905092915050565b600082825260208201905092915050565b600081905092915050565b6000615af782615c83565b9150615b0283615c83565b9250827fffffffffffffffffffffffffffffffffffffffffffffffffffffffffffffffff03821115615b3757615b36615d6b565b5b828201905092915050565b6000615b4d82615c83565b9150615b5883615c83565b925082615b6857615b67615d9a565b5b828204905092915050565b6000615b7e82615c83565b9150615b8983615c83565b9250817fffffffffffffffffffffffffffffffffffffffffffffffffffffffffffffffff0483118215151615615bc257615bc1615d6b565b5b828202905092915050565b6000615bd882615c83565b9150615be383615c83565b925082821015615bf657615bf5615d6b565b5b828203905092915050565b6000615c0c82615c8d565b9150615c1783615c8d565b925082821015615c2a57615c29615d6b565b5b828203905092915050565b6000615c4082615c63565b9050919050565b6000615c5282615c63565b9050919050565b6000819050919050565b600073ffffffffffffffffffffffffffffffffffffffff82169050919050565b6000819050919050565b600060ff82169050919050565b82818337600083830152505050565b60005b83811015615cc7578082015181840152602081019050615cac565b83811115615cd6576000848401525b50505050565b60006002820490506001821680615cf457607f821691505b60208210811415615d0857615d07615dc9565b5b50919050565b6000615d1982615c83565b91507fffffffffffffffffffffffffffffffffffffffffffffffffffffffffffffffff821415615d4c57615d4b615d6b565b5b600182019050919050565b6000819050919050565b6000819050919050565b7f4e487b7100000000000000000000000000000000000000000000000000000000600052601160045260246000fd5b7f4e487b7100000000000000000000000000000000000000000000000000000000600052601260045260246000fd5b7f4e487b7100000000000000000000000000000000000000000000000000000000600052602260045260246000fd5b7f4e487b7100000000000000000000000000000000000000000000000000000000600052604160045260246000fd5b6000601f19601f8301169050919050565b615e4181615c35565b8114615e4c57600080fd5b50565b615e5881615c47565b8114615e6357600080fd5b50565b615e6f81615c59565b8114615e7a57600080fd5b50565b615e8681615c8d565b8114615e9157600080fd5b5056fea2646970667358221220e1bc6b9ae00d3b3ed9f4e18fc57204bdfe9d0ac19e7ed267559675f74aa7014364736f6c63430008000033",
  "immutableReferences": {},
  "source": "// SPDX-License-Identifier: MIT\npragma solidity ^0.8.0;\npragma experimental ABIEncoderV2;\n\nimport \"./utils/Ownable.sol\";\nimport \"./utils/SigUtils.sol\";\nimport \"./utils/SECP256K1.sol\";\nimport \"./utils/ShareManager.sol\";\nimport \"./utils/File.sol\";\nimport \"./utils/UseDeployer.sol\";\nimport \"./utils/User.sol\";\nimport \"./interfaces/IVault.sol\";\n\ncontract PeerSafeDeployer is Ownable {\n    mapping(address => User) users;\n    address[] keys;\n    address deployer;\n    using ShareManager for ShareRequests;\n    ShareRequests shareRequests;\n\n    constructor (address _deployer) Ownable(msg.sender, msg.sender) {\n        deployer = _deployer;\n    }\n\n    function getVault(address _vaultOwner) external view returns(address) {\n        IVault _v = users[_vaultOwner].vault;\n        require(address(_v) != address(0), \"does not exist\");\n        return address(_v);\n    }\n\n    function deploy(string memory _userName, bytes32 _hashedMessage, uint8 _v, bytes32 _r, bytes32 _s) external returns(address) {\n        (address signer, bytes memory pubKey) = SECP256K1.recoverSignerAndPubKey(_hashedMessage, _v, _r, _s);(_hashedMessage, _v, _r, _s);\n        IVault _vault = IVault(UseDeployer.deployVault(deployer, owner, _userName));\n        users[signer] = User(_vault, pubKey);\n        keys.push(signer);\n        return address(_vault);\n    }\n\n    function createFile(string memory name, string memory fileType, string memory ipfsHash, string memory key, bytes32 _hashedMessage, uint8 _v, bytes32 _r, bytes32 _s) external {\n        address signer = SigUtils.recoverSigner(_hashedMessage, _v, _r, _s);\n        IVault _vault = users[signer].vault;\n        _vault.createFile(name, fileType, ipfsHash, key);\n    }\n\n    function getAllFiles(bytes32 _hashedMessage, uint8 _v, bytes32 _r, bytes32 _s) external view returns(File[] memory) {\n        address signer = SigUtils.recoverSigner(_hashedMessage, _v, _r, _s);\n        IVault _vault = users[signer].vault;\n        return _vault.getAllFiles();\n    }\n\n    function deleteFile(bytes32 _hashedMessage, uint8 _v, bytes32 _r, bytes32 _s, string memory ipfsHash) external {\n        address signer = SigUtils.recoverSigner(_hashedMessage, _v, _r, _s);\n        IVault _vault = users[signer].vault;\n        return _vault.deleteFile(ipfsHash);\n    }\n\n    function getPubKey(address _user) external view returns(bytes memory) {\n        return users[_user].pubKey;\n    }\n\n    function sendShareRequest(bytes32 _hashedMessage, uint8 _v, bytes32 _r, bytes32 _s, address _to, string memory _fileHash, string memory _keyHash, string memory _name, string memory _fileType) external {\n        require(_to != address(0), \"ERR691\");\n        require(users[_to].pubKey.length != 0, \"ERR691\");\n        address signer = SigUtils.recoverSigner(_hashedMessage, _v, _r, _s);\n        shareRequests.addShareRequest(signer, _to, _fileHash, _keyHash, _name, _fileType);\n    }\n\n    function getShareRequests() external view returns(ShareRequest[] memory) {\n        return shareRequests.getShareRequests();\n    }\n\n    function acceptShareRequest(bytes32 _hashedMessage, uint8 _v, bytes32 _r, bytes32 _s, string memory _fileHash) external {\n        address signer = SigUtils.recoverSigner(_hashedMessage, _v, _r, _s);\n        require(shareRequests._shareRequests[signer][_fileHash]._from != address(0), \"ERR214\");\n        require(users[signer].pubKey.length != 0, \"ERR691\");\n        IVault _vault = users[signer].vault;\n        ShareRequest memory _shareRequest = shareRequests._shareRequests[signer][_fileHash];\n        _vault.createFile(_shareRequest._name, _shareRequest._fileType, _shareRequest._fileHash, _shareRequest._keyHash);\n        shareRequests.deleteShareRequest(signer, _fileHash);\n    }\n\n    function rejectShareRequest(bytes32 _hashedMessage, uint8 _v, bytes32 _r, bytes32 _s, string memory _fileHash) external {\n        address signer = SigUtils.recoverSigner(_hashedMessage, _v, _r, _s);\n        shareRequests.deleteShareRequest(signer, _fileHash);\n    }\n\n    function adminAllVaults() external view onlyOwnerOrCreator returns(address[] memory, address[] memory) {\n        address[] memory _vaults;\n\n        for (uint i = 0; i < keys.length; i++) {\n            _vaults[i] = address(users[keys[i]].vault);\n        }\n\n        return (keys, _vaults);\n    }\n\n    // function adminMigrate(bytes32 _hashedMessage, uint8 _v, bytes32 _r, bytes32 _s, address[] memory _users, address[] memory _oldVaults) external onlyOwnerOrCreator{\n    //     require(_users.length == _oldVaults.length, 'length should be equal');\n\n    //     for (uint i = 0; i < _users.length; i++) {\n    //         IVault _newVault = IVault(UseDeployer.deployVault(deployer, owner, IVault(_oldVaults[i]).getUser()));\n    //         users[_users[i]] = _newVault;\n    //         _newVault.migrateFiles(_hashedMessage, _v, _r, _s, IVault(_oldVaults[i]).getAllFiles());\n    //     }\n    // }\n}",
  "sourcePath": "/Users/shubhaankar/github.com/peer-safe/contracts/contracts/PeerSafeDeployer.sol",
  "compiler": {
    "name": "solc",
    "version": "0.8.0+commit.c7dfd78e.Emscripten.clang"
  },
  "schemaVersion": "3.4.14",
  "updatedAt": "2023-06-17T02:24:41.686Z",
  "networkType": "ethereum",
  "devdoc": {
    "kind": "dev",
    "methods": {},
    "version": 1
  },
  "userdoc": {
    "kind": "user",
    "methods": {},
    "version": 1
  }
}