{
  "contractName": "SECP256K1",
  "abi": [
    {
      "inputs": [
        {
          "internalType": "uint256",
          "name": "digest",
          "type": "uint256"
        },
        {
          "internalType": "uint8",
          "name": "v",
          "type": "uint8"
        },
        {
          "internalType": "uint256",
          "name": "r",
          "type": "uint256"
        },
        {
          "internalType": "uint256",
          "name": "s",
          "type": "uint256"
        }
      ],
      "name": "recover",
      "outputs": [
        {
          "internalType": "uint256",
          "name": "",
          "type": "uint256"
        },
        {
          "internalType": "uint256",
          "name": "",
          "type": "uint256"
        }
      ],
      "stateMutability": "pure",
      "type": "function"
    }
  ],
  "bytecode": "0x6129fa610053600b82828239805160001a607314610046577f4e487b7100000000000000000000000000000000000000000000000000000000600052600060045260246000fd5b30600052607381538281f3fe73000000000000000000000000000000000000000030146080604052600436106100355760003560e01c80634828f4a21461003a575b600080fd5b610054600480360381019061004f91906126a0565b61006b565b6040516100629291906127d2565b60405180910390f35b60008060007ffffffffffffffffffffffffffffffffffffffffffffffffffffffffefffffc2f806100c5577f4e487b7100000000000000000000000000000000000000000000000000000000600052601260045260246000fd5b60018760ff16901c60ff167ffffffffffffffffffffffffffffffffffffffffffffffffffffffffefffffc2f6100fb9190612893565b860890507ffffffffffffffffffffffffffffffffffffffffffffffffffffffffefffffc2f81118061014c57507ffffffffffffffffffffffffffffffffebaaedce6af48a03bbfd25e8cd036414184115b8061017657507ffffffffffffffffffffffffffffffffebaaedce6af48a03bbfd25e8cd036414185115b806101815750600084145b8061018c5750600085145b8061019a575060018660ff16115b156101ac5760008092509250506105a4565b60006101d8867ffffffffffffffffffffffffffffffffebaaedce6af48a03bbfd25e8cd03641416105ad565b905060007ffffffffffffffffffffffffffffffffffffffffffffffffffffffffefffffc2f80610231577f4e487b7100000000000000000000000000000000000000000000000000000000600052601260045260246000fd5b7ffffffffffffffffffffffffffffffffffffffffffffffffffffffffefffffc2f80610286577f4e487b7100000000000000000000000000000000000000000000000000000000600052601260045260246000fd5b60077ffffffffffffffffffffffffffffffffffffffffffffffffffffffffefffffc2f806102dd577f4e487b7100000000000000000000000000000000000000000000000000000000600052601260045260246000fd5b60008709087ffffffffffffffffffffffffffffffffffffffffffffffffffffffffefffffc2f80610337577f4e487b7100000000000000000000000000000000000000000000000000000000600052601260045260246000fd5b7ffffffffffffffffffffffffffffffffffffffffffffffffffffffffefffffc2f8061038c577f4e487b7100000000000000000000000000000000000000000000000000000000600052601260045260246000fd5b86870986090890506103d681600460017ffffffffffffffffffffffffffffffffffffffffffffffffffffffffefffffc2f6103c7919061280c565b6103d19190612862565b6106e5565b9050600080600160028b60ff16856103ee919061280c565b6103f8919061280c565b161461042f57817ffffffffffffffffffffffffffffffffffffffffffffffffffffffffefffffc2f61042a91906128ed565b610431565b815b905060008060006105077ffffffffffffffffffffffffffffffffebaaedce6af48a03bbfd25e8cd036414180610490577f4e487b7100000000000000000000000000000000000000000000000000000000600052601260045260246000fd5b8e7ffffffffffffffffffffffffffffffffebaaedce6af48a03bbfd25e8cd03641416104bc91906128ed565b88097f79be667ef9dcbbac55a06295ce870b07029bfcdb2dce28d959f2815b16f817987f483ada7726a3c4655da4fbfc0e1108a8fd17b448a68554199c47d08ffb10d4b8600161089b565b92509250925060008060006105767ffffffffffffffffffffffffffffffffebaaedce6af48a03bbfd25e8cd03641418061056a577f4e487b7100000000000000000000000000000000000000000000000000000000600052601260045260246000fd5b8e8b098b89600161089b565b92509250925060008061058d888888888888610936565b9150915081819d509d505050505050505050505050505b94509492505050565b60008083141580156105bf5750818314155b80156105cc575060008214155b61060b576040517f08c379a0000000000000000000000000000000000000000000000000000000008152600401610602906127b2565b60405180910390fd5b60008060019050600084905060005b600087146106d857868261062e9190612862565b9050828680610666577f4e487b7100000000000000000000000000000000000000000000000000000000600052601260045260246000fd5b878061069b577f4e487b7100000000000000000000000000000000000000000000000000000000600052601260045260246000fd5b858409886106a991906128ed565b860880945081955050508687826106c09190612893565b836106cb91906128ed565b809850819350505061061a565b8394505050505092915050565b6000808314156106f85760009050610895565b600082141561070a5760019050610895565b60006001905060007f800000000000000000000000000000000000000000000000000000000000000090505b600081111561088f577ffffffffffffffffffffffffffffffffffffffffffffffffffffffffefffffc2f8185161515860a7ffffffffffffffffffffffffffffffffffffffffffffffffffffffffefffffc2f8485090991507ffffffffffffffffffffffffffffffffffffffffffffffffffffffffefffffc2f6002820485161515860a7ffffffffffffffffffffffffffffffffffffffffffffffffffffffffefffffc2f8485090991507ffffffffffffffffffffffffffffffffffffffffffffffffffffffffefffffc2f6004820485161515860a7ffffffffffffffffffffffffffffffffffffffffffffffffffffffffefffffc2f8485090991507ffffffffffffffffffffffffffffffffffffffffffffffffffffffffefffffc2f6008820485161515860a7ffffffffffffffffffffffffffffffffffffffffffffffffffffffffefffffc2f848509099150601081049050610736565b81925050505b92915050565b6000806000808714156108b65785858592509250925061092c565b60008790506000806000600190505b6000841461091e57600060018516146108f3576108e68383838d8d8d610a0a565b8093508194508295505050505b6002846109009190612862565b935061090d8a8a8a611d56565b809a50819b50829c505050506108c5565b828282965096509650505050505b9450945094915050565b6000806000806000878b14156109d15760007ffffffffffffffffffffffffffffffffffffffffffffffffffffffffefffffc2f8061099d577f4e487b7100000000000000000000000000000000000000000000000000000000600052601260045260246000fd5b888c0814156109b557600080945094505050506109ff565b6109c08b8b8b611d56565b8093508194508295505050506109ec565b6109df8b8b8b8b8b8b610a0a565b8093508194508295505050505b6109f78383836124a6565b945094505050505b965096945050505050565b60008060008089148015610a1e5750600088145b15610a3157858585925092509250611d4a565b600086148015610a415750600085145b15610a5457888888925092509250611d4a565b610a5c612654565b7ffffffffffffffffffffffffffffffffffffffffffffffffffffffffefffffc2f80610ab1577f4e487b7100000000000000000000000000000000000000000000000000000000600052601260045260246000fd5b88890981600060048110610aee577f4e487b7100000000000000000000000000000000000000000000000000000000600052603260045260246000fd5b6020020181815250507ffffffffffffffffffffffffffffffffffffffffffffffffffffffffefffffc2f80610b4c577f4e487b7100000000000000000000000000000000000000000000000000000000600052601260045260246000fd5b81600060048110610b86577f4e487b7100000000000000000000000000000000000000000000000000000000600052603260045260246000fd5b6020020151890981600160048110610bc7577f4e487b7100000000000000000000000000000000000000000000000000000000600052603260045260246000fd5b6020020181815250507ffffffffffffffffffffffffffffffffffffffffffffffffffffffffefffffc2f80610c25577f4e487b7100000000000000000000000000000000000000000000000000000000600052601260045260246000fd5b85860981600260048110610c62577f4e487b7100000000000000000000000000000000000000000000000000000000600052603260045260246000fd5b6020020181815250507ffffffffffffffffffffffffffffffffffffffffffffffffffffffffefffffc2f80610cc0577f4e487b7100000000000000000000000000000000000000000000000000000000600052601260045260246000fd5b81600260048110610cfa577f4e487b7100000000000000000000000000000000000000000000000000000000600052603260045260246000fd5b6020020151860981600360048110610d3b577f4e487b7100000000000000000000000000000000000000000000000000000000600052603260045260246000fd5b60200201818152505060405180608001604052807ffffffffffffffffffffffffffffffffffffffffffffffffffffffffefffffc2f80610da4577f4e487b7100000000000000000000000000000000000000000000000000000000600052601260045260246000fd5b83600260048110610dde577f4e487b7100000000000000000000000000000000000000000000000000000000600052603260045260246000fd5b60200201518d0981526020017ffffffffffffffffffffffffffffffffffffffffffffffffffffffffefffffc2f80610e3f577f4e487b7100000000000000000000000000000000000000000000000000000000600052601260045260246000fd5b83600360048110610e79577f4e487b7100000000000000000000000000000000000000000000000000000000600052603260045260246000fd5b60200201518c0981526020017ffffffffffffffffffffffffffffffffffffffffffffffffffffffffefffffc2f80610eda577f4e487b7100000000000000000000000000000000000000000000000000000000600052601260045260246000fd5b83600060048110610f14577f4e487b7100000000000000000000000000000000000000000000000000000000600052603260045260246000fd5b60200201518a0981526020017ffffffffffffffffffffffffffffffffffffffffffffffffffffffffefffffc2f80610f75577f4e487b7100000000000000000000000000000000000000000000000000000000600052601260045260246000fd5b83600160048110610faf577f4e487b7100000000000000000000000000000000000000000000000000000000600052603260045260246000fd5b60200201518909815250905080600260048110610ff5577f4e487b7100000000000000000000000000000000000000000000000000000000600052603260045260246000fd5b602002015181600060048110611034577f4e487b7100000000000000000000000000000000000000000000000000000000600052603260045260246000fd5b60200201511415806110c257508060036004811061107b577f4e487b7100000000000000000000000000000000000000000000000000000000600052603260045260246000fd5b6020020151816001600481106110ba577f4e487b7100000000000000000000000000000000000000000000000000000000600052603260045260246000fd5b602002015114155b611101576040517f08c379a00000000000000000000000000000000000000000000000000000000081526004016110f890612792565b60405180910390fd5b611109612654565b7ffffffffffffffffffffffffffffffffffffffffffffffffffffffffefffffc2f8061115e577f4e487b7100000000000000000000000000000000000000000000000000000000600052601260045260246000fd5b82600060048110611198577f4e487b7100000000000000000000000000000000000000000000000000000000600052603260045260246000fd5b60200201517ffffffffffffffffffffffffffffffffffffffffffffffffffffffffefffffc2f6111c891906128ed565b83600260048110611202577f4e487b7100000000000000000000000000000000000000000000000000000000600052603260045260246000fd5b60200201510881600060048110611242577f4e487b7100000000000000000000000000000000000000000000000000000000600052603260045260246000fd5b6020020181815250507ffffffffffffffffffffffffffffffffffffffffffffffffffffffffefffffc2f806112a0577f4e487b7100000000000000000000000000000000000000000000000000000000600052601260045260246000fd5b826001600481106112da577f4e487b7100000000000000000000000000000000000000000000000000000000600052603260045260246000fd5b60200201517ffffffffffffffffffffffffffffffffffffffffffffffffffffffffefffffc2f61130a91906128ed565b83600360048110611344577f4e487b7100000000000000000000000000000000000000000000000000000000600052603260045260246000fd5b60200201510881600160048110611384577f4e487b7100000000000000000000000000000000000000000000000000000000600052603260045260246000fd5b6020020181815250507ffffffffffffffffffffffffffffffffffffffffffffffffffffffffefffffc2f806113e2577f4e487b7100000000000000000000000000000000000000000000000000000000600052601260045260246000fd5b8160006004811061141c577f4e487b7100000000000000000000000000000000000000000000000000000000600052603260045260246000fd5b60200201518260006004811061145b577f4e487b7100000000000000000000000000000000000000000000000000000000600052603260045260246000fd5b6020020151098160026004811061149b577f4e487b7100000000000000000000000000000000000000000000000000000000600052603260045260246000fd5b6020020181815250507ffffffffffffffffffffffffffffffffffffffffffffffffffffffffefffffc2f806114f9577f4e487b7100000000000000000000000000000000000000000000000000000000600052601260045260246000fd5b81600060048110611533577f4e487b7100000000000000000000000000000000000000000000000000000000600052603260045260246000fd5b602002015182600260048110611572577f4e487b7100000000000000000000000000000000000000000000000000000000600052603260045260246000fd5b602002015109816003600481106115b2577f4e487b7100000000000000000000000000000000000000000000000000000000600052603260045260246000fd5b60200201818152505060007ffffffffffffffffffffffffffffffffffffffffffffffffffffffffefffffc2f80611612577f4e487b7100000000000000000000000000000000000000000000000000000000600052601260045260246000fd5b8260036004811061164c577f4e487b7100000000000000000000000000000000000000000000000000000000600052603260045260246000fd5b60200201517ffffffffffffffffffffffffffffffffffffffffffffffffffffffffefffffc2f61167c91906128ed565b7ffffffffffffffffffffffffffffffffffffffffffffffffffffffffefffffc2f806116d1577f4e487b7100000000000000000000000000000000000000000000000000000000600052601260045260246000fd5b8460016004811061170b577f4e487b7100000000000000000000000000000000000000000000000000000000600052603260045260246000fd5b60200201518560016004811061174a577f4e487b7100000000000000000000000000000000000000000000000000000000600052603260045260246000fd5b6020020151090890507ffffffffffffffffffffffffffffffffffffffffffffffffffffffffefffffc2f806117a8577f4e487b7100000000000000000000000000000000000000000000000000000000600052601260045260246000fd5b7ffffffffffffffffffffffffffffffffffffffffffffffffffffffffefffffc2f806117fd577f4e487b7100000000000000000000000000000000000000000000000000000000600052601260045260246000fd5b7ffffffffffffffffffffffffffffffffffffffffffffffffffffffffefffffc2f80611852577f4e487b7100000000000000000000000000000000000000000000000000000000600052601260045260246000fd5b8460026004811061188c577f4e487b7100000000000000000000000000000000000000000000000000000000600052603260045260246000fd5b6020020151866000600481106118cb577f4e487b7100000000000000000000000000000000000000000000000000000000600052603260045260246000fd5b6020020151096002097ffffffffffffffffffffffffffffffffffffffffffffffffffffffffefffffc2f6118ff91906128ed565b8208905060007ffffffffffffffffffffffffffffffffffffffffffffffffffffffffefffffc2f8061195a577f4e487b7100000000000000000000000000000000000000000000000000000000600052601260045260246000fd5b7ffffffffffffffffffffffffffffffffffffffffffffffffffffffffefffffc2f806119af577f4e487b7100000000000000000000000000000000000000000000000000000000600052601260045260246000fd5b837ffffffffffffffffffffffffffffffffffffffffffffffffffffffffefffffc2f6119db91906128ed565b7ffffffffffffffffffffffffffffffffffffffffffffffffffffffffefffffc2f80611a30577f4e487b7100000000000000000000000000000000000000000000000000000000600052601260045260246000fd5b86600260048110611a6a577f4e487b7100000000000000000000000000000000000000000000000000000000600052603260045260246000fd5b602002015188600060048110611aa9577f4e487b7100000000000000000000000000000000000000000000000000000000600052603260045260246000fd5b6020020151090884600160048110611aea577f4e487b7100000000000000000000000000000000000000000000000000000000600052603260045260246000fd5b60200201510990507ffffffffffffffffffffffffffffffffffffffffffffffffffffffffefffffc2f80611b47577f4e487b7100000000000000000000000000000000000000000000000000000000600052601260045260246000fd5b7ffffffffffffffffffffffffffffffffffffffffffffffffffffffffefffffc2f80611b9c577f4e487b7100000000000000000000000000000000000000000000000000000000600052601260045260246000fd5b84600360048110611bd6577f4e487b7100000000000000000000000000000000000000000000000000000000600052603260045260246000fd5b602002015186600160048110611c15577f4e487b7100000000000000000000000000000000000000000000000000000000600052603260045260246000fd5b6020020151097ffffffffffffffffffffffffffffffffffffffffffffffffffffffffefffffc2f611c4691906128ed565b8208905060007ffffffffffffffffffffffffffffffffffffffffffffffffffffffffefffffc2f80611ca1577f4e487b7100000000000000000000000000000000000000000000000000000000600052601260045260246000fd5b7ffffffffffffffffffffffffffffffffffffffffffffffffffffffffefffffc2f80611cf6577f4e487b7100000000000000000000000000000000000000000000000000000000600052601260045260246000fd5b8a8e0985600060048110611d33577f4e487b7100000000000000000000000000000000000000000000000000000000600052603260045260246000fd5b602002015109905082828297509750975050505050505b96509650969350505050565b600080600080841415611d715785858592509250925061249d565b60007ffffffffffffffffffffffffffffffffffffffffffffffffffffffffefffffc2f80611dc8577f4e487b7100000000000000000000000000000000000000000000000000000000600052601260045260246000fd5b878809905060007ffffffffffffffffffffffffffffffffffffffffffffffffffffffffefffffc2f80611e24577f4e487b7100000000000000000000000000000000000000000000000000000000600052601260045260246000fd5b878809905060007ffffffffffffffffffffffffffffffffffffffffffffffffffffffffefffffc2f80611e80577f4e487b7100000000000000000000000000000000000000000000000000000000600052601260045260246000fd5b878809905060007ffffffffffffffffffffffffffffffffffffffffffffffffffffffffefffffc2f80611edc577f4e487b7100000000000000000000000000000000000000000000000000000000600052601260045260246000fd5b7ffffffffffffffffffffffffffffffffffffffffffffffffffffffffefffffc2f80611f31577f4e487b7100000000000000000000000000000000000000000000000000000000600052601260045260246000fd5b848c09600409905060007ffffffffffffffffffffffffffffffffffffffffffffffffffffffffefffffc2f80611f90577f4e487b7100000000000000000000000000000000000000000000000000000000600052601260045260246000fd5b7ffffffffffffffffffffffffffffffffffffffffffffffffffffffffefffffc2f80611fe5577f4e487b7100000000000000000000000000000000000000000000000000000000600052601260045260246000fd5b7ffffffffffffffffffffffffffffffffffffffffffffffffffffffffefffffc2f8061203a577f4e487b7100000000000000000000000000000000000000000000000000000000600052601260045260246000fd5b8586096000097ffffffffffffffffffffffffffffffffffffffffffffffffffffffffefffffc2f80612095577f4e487b7100000000000000000000000000000000000000000000000000000000600052601260045260246000fd5b876003090890507ffffffffffffffffffffffffffffffffffffffffffffffffffffffffefffffc2f806120f1577f4e487b7100000000000000000000000000000000000000000000000000000000600052601260045260246000fd5b7ffffffffffffffffffffffffffffffffffffffffffffffffffffffffefffffc2f80612146577f4e487b7100000000000000000000000000000000000000000000000000000000600052601260045260246000fd5b8384087ffffffffffffffffffffffffffffffffffffffffffffffffffffffffefffffc2f61217491906128ed565b7ffffffffffffffffffffffffffffffffffffffffffffffffffffffffefffffc2f806121c9577f4e487b7100000000000000000000000000000000000000000000000000000000600052601260045260246000fd5b8384090894507ffffffffffffffffffffffffffffffffffffffffffffffffffffffffefffffc2f80612224577f4e487b7100000000000000000000000000000000000000000000000000000000600052601260045260246000fd5b7ffffffffffffffffffffffffffffffffffffffffffffffffffffffffefffffc2f80612279577f4e487b7100000000000000000000000000000000000000000000000000000000600052601260045260246000fd5b7ffffffffffffffffffffffffffffffffffffffffffffffffffffffffefffffc2f806122ce577f4e487b7100000000000000000000000000000000000000000000000000000000600052601260045260246000fd5b8687096008097ffffffffffffffffffffffffffffffffffffffffffffffffffffffffefffffc2f6122ff91906128ed565b7ffffffffffffffffffffffffffffffffffffffffffffffffffffffffefffffc2f80612354577f4e487b7100000000000000000000000000000000000000000000000000000000600052601260045260246000fd5b7ffffffffffffffffffffffffffffffffffffffffffffffffffffffffefffffc2f806123a9577f4e487b7100000000000000000000000000000000000000000000000000000000600052601260045260246000fd5b887ffffffffffffffffffffffffffffffffffffffffffffffffffffffffefffffc2f6123d591906128ed565b860884090893507ffffffffffffffffffffffffffffffffffffffffffffffffffffffffefffffc2f80612431577f4e487b7100000000000000000000000000000000000000000000000000000000600052601260045260246000fd5b7ffffffffffffffffffffffffffffffffffffffffffffffffffffffffefffffc2f80612486577f4e487b7100000000000000000000000000000000000000000000000000000000600052601260045260246000fd5b8a8c09600209925084848497509750975050505050505b93509350939050565b60008060006124d5847ffffffffffffffffffffffffffffffffffffffffffffffffffffffffefffffc2f6105ad565b905060007ffffffffffffffffffffffffffffffffffffffffffffffffffffffffefffffc2f8061252e577f4e487b7100000000000000000000000000000000000000000000000000000000600052601260045260246000fd5b828309905060007ffffffffffffffffffffffffffffffffffffffffffffffffffffffffefffffc2f8061258a577f4e487b7100000000000000000000000000000000000000000000000000000000600052601260045260246000fd5b828909905060007ffffffffffffffffffffffffffffffffffffffffffffffffffffffffefffffc2f806125e6577f4e487b7100000000000000000000000000000000000000000000000000000000600052601260045260246000fd5b7ffffffffffffffffffffffffffffffffffffffffffffffffffffffffefffffc2f8061263b577f4e487b7100000000000000000000000000000000000000000000000000000000600052601260045260246000fd5b8486098909905081819550955050505050935093915050565b6040518060800160405280600490602082028036833780820191505090505090565b60008135905061268581612996565b92915050565b60008135905061269a816129ad565b92915050565b600080600080608085870312156126b657600080fd5b60006126c487828801612676565b94505060206126d58782880161268b565b93505060406126e687828801612676565b92505060606126f787828801612676565b91505092959194509250565b6000612710601e836127fb565b91507f557365206a6163446f75626c652066756e6374696f6e20696e737465616400006000830152602082019050919050565b6000612750600e836127fb565b91507f496e76616c6964206e756d6265720000000000000000000000000000000000006000830152602082019050919050565b61278c81612921565b82525050565b600060208201905081810360008301526127ab81612703565b9050919050565b600060208201905081810360008301526127cb81612743565b9050919050565b60006040820190506127e76000830185612783565b6127f46020830184612783565b9392505050565b600082825260208201905092915050565b600061281782612921565b915061282283612921565b9250827fffffffffffffffffffffffffffffffffffffffffffffffffffffffffffffffff0382111561285757612856612938565b5b828201905092915050565b600061286d82612921565b915061287883612921565b92508261288857612887612967565b5b828204905092915050565b600061289e82612921565b91506128a983612921565b9250817fffffffffffffffffffffffffffffffffffffffffffffffffffffffffffffffff04831182151516156128e2576128e1612938565b5b828202905092915050565b60006128f882612921565b915061290383612921565b92508282101561291657612915612938565b5b828203905092915050565b6000819050919050565b600060ff82169050919050565b7f4e487b7100000000000000000000000000000000000000000000000000000000600052601160045260246000fd5b7f4e487b7100000000000000000000000000000000000000000000000000000000600052601260045260246000fd5b61299f81612921565b81146129aa57600080fd5b50565b6129b68161292b565b81146129c157600080fd5b5056fea26469706673582212202e7ec72de09cb3bab1750b322274a1a9231f140a8cbc6a5dde8a30feac4a097e64736f6c63430008000033",
  "immutableReferences": {},
  "source": "// SPDX-License-Identifier: MIT\npragma solidity ^0.8.0;\n\n/**\n * @title SECPK256K1 public key recovery Library\n * @dev Library providing arithmetic operations over signed `secpk256k1` signed message due to recover the signer public key EC point in `Solidity`.\n * @author cyphered.eth\n */\nlibrary SECP256K1 {\n    // Elliptic curve Constants\n    uint256 private constant U255_MAX_PLUS_1 =\n        57896044618658097711785492504343953926634992332820282019728792003956564819968;\n\n    // Curve Constants\n    uint256 private constant A = 0;\n    uint256 private constant B = 7;\n    uint256 private constant GX = 0x79BE667EF9DCBBAC55A06295CE870B07029BFCDB2DCE28D959F2815B16F81798;\n    uint256 private constant GY = 0x483ADA7726A3C4655DA4FBFC0E1108A8FD17B448A68554199C47D08FFB10D4B8;\n    uint256 private constant P = 0xFFFFFFFFFFFFFFFFFFFFFFFFFFFFFFFFFFFFFFFFFFFFFFFFFFFFFFFEFFFFFC2F;\n    uint256 private constant N = 0xFFFFFFFFFFFFFFFFFFFFFFFFFFFFFFFEBAAEDCE6AF48A03BBFD25E8CD0364141;\n\n    function recoverSignerAndPubKey(bytes32 _hashedMessage, uint8 _v, bytes32 _r, bytes32 _s) internal pure returns(address, bytes memory) {\n        bytes memory prefix = \"\\x19Ethereum Signed Message:\\n32\";\n        bytes32 prefixedHashMessage = keccak256(abi.encodePacked(prefix, _hashedMessage));\n        (uint256 x, uint256 y) = recover(uint256(prefixedHashMessage), _v - 27, uint256(_r), uint256(_s));\n        return (ecrecover(prefixedHashMessage, _v, _r, _s), abi.encodePacked(x, y));\n    }\n\n    /// @dev recovers signer public key point value.\n    /// @param digest hashed message\n    /// @param v recovery\n    /// @param r first 32 bytes of signature\n    /// @param v last 32 bytes of signature\n    /// @return (x, y) EC point\n    function recover(\n        uint256 digest,\n        uint8 v,\n        uint256 r,\n        uint256 s\n    ) public pure returns (uint256, uint256) {\n        uint256 x = addmod(r, P * (v >> 1), P);\n        if (x > P || s > N || r > N || s == 0 || r == 0 || v > 1) {\n            return (0, 0);\n        }\n        uint256 rInv = invMod(r, N);\n\n        uint256 y2 = addmod(mulmod(x, mulmod(x, x, P), P), addmod(mulmod(x, A, P), B, P), P);\n        y2 = expMod(y2, (P + 1) / 4);\n        uint256 y = ((y2 + v + 2) & 1 == 0) ? y2 : P - y2;\n\n        (uint256 qx, uint256 qy, uint256 qz) = jacMul(mulmod(rInv, N - digest, N), GX, GY, 1);\n        (uint256 qx2, uint256 qy2, uint256 qz2) = jacMul(mulmod(rInv, s, N), x, y, 1);\n        (uint256 qx3, uint256 qy3) = ecAdd(qx, qy, qz, qx2, qy2, qz2);\n\n        return (qx3, qy3);\n    }\n\n    /// @dev Modular exponentiation, b^e % P.\n    /// Source: https://github.com/witnet/elliptic-curve-solidity/blob/master/contracts/EllipticCurve.sol\n    /// Source: https://github.com/androlo/standard-contracts/blob/master/contracts/src/crypto/ECCMath.sol\n    /// @param _base base\n    /// @param _exp exponent\n    /// @return r such that r = b**e (mod P)\n    function expMod(uint256 _base, uint256 _exp) internal pure returns (uint256) {\n        if (_base == 0) return 0;\n        if (_exp == 0) return 1;\n\n        uint256 r = 1;\n        uint256 bit = U255_MAX_PLUS_1;\n        assembly {\n            for {\n\n            } gt(bit, 0) {\n\n            } {\n                r := mulmod(mulmod(r, r, P), exp(_base, iszero(iszero(and(_exp, bit)))), P)\n                r := mulmod(mulmod(r, r, P), exp(_base, iszero(iszero(and(_exp, div(bit, 2))))), P)\n                r := mulmod(mulmod(r, r, P), exp(_base, iszero(iszero(and(_exp, div(bit, 4))))), P)\n                r := mulmod(mulmod(r, r, P), exp(_base, iszero(iszero(and(_exp, div(bit, 8))))), P)\n                bit := div(bit, 16)\n            }\n        }\n\n        return r;\n    }\n\n    /// @dev Adds two points (x1, y1, z1) and (x2 y2, z2).\n    /// Source: https://github.com/witnet/elliptic-curve-solidity/blob/master/contracts/EllipticCurve.sol\n    /// @param _x1 coordinate x of P1\n    /// @param _y1 coordinate y of P1\n    /// @param _z1 coordinate z of P1\n    /// @param _x2 coordinate x of square\n    /// @param _y2 coordinate y of square\n    /// @param _z2 coordinate z of square\n    /// @return (qx, qy, qz) P1+square in Jacobian\n    function jacAdd(\n        uint256 _x1,\n        uint256 _y1,\n        uint256 _z1,\n        uint256 _x2,\n        uint256 _y2,\n        uint256 _z2\n    )\n        internal\n        pure\n        returns (\n            uint256,\n            uint256,\n            uint256\n        )\n    {\n        if (_x1 == 0 && _y1 == 0) return (_x2, _y2, _z2);\n        if (_x2 == 0 && _y2 == 0) return (_x1, _y1, _z1);\n\n        // We follow the equations described in https://pdfs.semanticscholar.org/5c64/29952e08025a9649c2b0ba32518e9a7fb5c2.pdf Section 5\n        uint256[4] memory zs; // z1^2, z1^3, z2^2, z2^3\n        zs[0] = mulmod(_z1, _z1, P);\n        zs[1] = mulmod(_z1, zs[0], P);\n        zs[2] = mulmod(_z2, _z2, P);\n        zs[3] = mulmod(_z2, zs[2], P);\n\n        // u1, s1, u2, s2\n        zs = [mulmod(_x1, zs[2], P), mulmod(_y1, zs[3], P), mulmod(_x2, zs[0], P), mulmod(_y2, zs[1], P)];\n\n        // In case of zs[0] == zs[2] && zs[1] == zs[3], double function should be used\n        require(zs[0] != zs[2] || zs[1] != zs[3], 'Use jacDouble function instead');\n\n        uint256[4] memory hr;\n        //h\n        hr[0] = addmod(zs[2], P - zs[0], P);\n        //r\n        hr[1] = addmod(zs[3], P - zs[1], P);\n        //h^2\n        hr[2] = mulmod(hr[0], hr[0], P);\n        // h^3\n        hr[3] = mulmod(hr[2], hr[0], P);\n        // qx = -h^3  -2u1h^2+r^2\n        uint256 qx = addmod(mulmod(hr[1], hr[1], P), P - hr[3], P);\n        qx = addmod(qx, P - mulmod(2, mulmod(zs[0], hr[2], P), P), P);\n        // qy = -s1*z1*h^3+r(u1*h^2 -x^3)\n        uint256 qy = mulmod(hr[1], addmod(mulmod(zs[0], hr[2], P), P - qx, P), P);\n        qy = addmod(qy, P - mulmod(zs[1], hr[3], P), P);\n        // qz = h*z1*z2\n        uint256 qz = mulmod(hr[0], mulmod(_z1, _z2, P), P);\n        return (qx, qy, qz);\n    }\n\n    /// @dev Multiply point (x, y, z) times d.\n    /// Source: https://github.com/witnet/elliptic-curve-solidity/blob/master/contracts/EllipticCurve.sol\n    /// @param _d scalar to multiply\n    /// @param _x coordinate x of P1\n    /// @param _y coordinate y of P1\n    /// @param _z coordinate z of P1\n    /// @return (qx, qy, qz) d*P1 in Jacobian\n    function jacMul(\n        uint256 _d,\n        uint256 _x,\n        uint256 _y,\n        uint256 _z\n    )\n        internal\n        pure\n        returns (\n            uint256,\n            uint256,\n            uint256\n        )\n    {\n        // Early return in case that `_d == 0`\n        if (_d == 0) {\n            return (_x, _y, _z);\n        }\n\n        uint256 remaining = _d;\n        uint256 qx = 0;\n        uint256 qy = 0;\n        uint256 qz = 1;\n\n        // Double and add algorithm\n        while (remaining != 0) {\n            if ((remaining & 1) != 0) {\n                (qx, qy, qz) = jacAdd(qx, qy, qz, _x, _y, _z);\n            }\n            remaining = remaining / 2;\n            (_x, _y, _z) = jacDouble(_x, _y, _z);\n        }\n        return (qx, qy, qz);\n    }\n\n    /// @dev Doubles a points (x, y, z).\n    /// Source: https://github.com/witnet/elliptic-curve-solidity/blob/master/contracts/EllipticCurve.sol\n    /// @param _x coordinate x of P1\n    /// @param _y coordinate y of P1\n    /// @param _z coordinate z of P1\n    /// @return (qx, qy, qz) 2P in Jacobian\n    function jacDouble(\n        uint256 _x,\n        uint256 _y,\n        uint256 _z\n    )\n        internal\n        pure\n        returns (\n            uint256,\n            uint256,\n            uint256\n        )\n    {\n        if (_z == 0) return (_x, _y, _z);\n\n        // We follow the equations described in https://pdfs.semanticscholar.org/5c64/29952e08025a9649c2b0ba32518e9a7fb5c2.pdf Section 5\n        // Note: there is a bug in the paper regarding the m parameter, M=3*(x1^2)+a*(z1^4)\n        // x, y, z at this point represent the squares of _x, _y, _z\n        uint256 x = mulmod(_x, _x, P); //x1^2\n        uint256 y = mulmod(_y, _y, P); //y1^2\n        uint256 z = mulmod(_z, _z, P); //z1^2\n\n        // s\n        uint256 s = mulmod(4, mulmod(_x, y, P), P);\n        // m\n        uint256 m = addmod(mulmod(3, x, P), mulmod(A, mulmod(z, z, P), P), P);\n\n        // x, y, z at this point will be reassigned and rather represent qx, qy, qz from the paper\n        // This allows to reduce the gas cost and stack footprint of the algorithm\n        // qx\n        x = addmod(mulmod(m, m, P), P - addmod(s, s, P), P);\n        // qy = -8*y1^4 + M(S-T)\n        y = addmod(mulmod(m, addmod(s, P - x, P), P), P - mulmod(8, mulmod(y, y, P), P), P);\n        // qz = 2*y1*z1\n        z = mulmod(2, mulmod(_y, _z, P), P);\n\n        return (x, y, z);\n    }\n\n    /// @dev Add two points (x1, y1) and (x2, y2) in affine coordinates.\n    /// Source: https://github.com/witnet/elliptic-curve-solidity/blob/master/contracts/EllipticCurve.sol\n    /// @param _x1 coordinate x of P1\n    /// @param _y1 coordinate y of P1\n    /// @param _x2 coordinate x of P2\n    /// @param _y2 coordinate y of P2\n    /// @return (qx, qy) = P1+P2 in affine coordinates\n    function ecAdd(\n        uint256 _x1,\n        uint256 _y1,\n        uint256 _z1,\n        uint256 _x2,\n        uint256 _y2,\n        uint256 _z2\n    ) internal pure returns (uint256, uint256) {\n        uint256 x = 0;\n        uint256 y = 0;\n        uint256 z = 0;\n\n        // Double if x1==x2 else add\n        if (_x1 == _x2) {\n            // y1 = -y2 mod p\n            if (addmod(_y1, _y2, P) == 0) {\n                return (0, 0);\n            } else {\n                // P1 = P2\n                (x, y, z) = jacDouble(_x1, _y1, _z1);\n            }\n        } else {\n            (x, y, z) = jacAdd(_x1, _y1, _z1, _x2, _y2, _z2);\n        }\n        // Get back to affine\n        return toAffine(x, y, z);\n    }\n\n    /// @dev Converts a point (x, y, z) expressed in Jacobian coordinates to affine coordinates (x', y', 1).\n    /// Source: https://github.com/witnet/elliptic-curve-solidity/blob/master/contracts/EllipticCurve.sol\n    /// @param _x coordinate x\n    /// @param _y coordinate y\n    /// @param _z coordinate z\n    /// @return (x', y') affine coordinates\n    function toAffine(\n        uint256 _x,\n        uint256 _y,\n        uint256 _z\n    ) internal pure returns (uint256, uint256) {\n        uint256 zInv = invMod(_z, P);\n        uint256 zInv2 = mulmod(zInv, zInv, P);\n        uint256 x2 = mulmod(_x, zInv2, P);\n        uint256 y2 = mulmod(_y, mulmod(zInv, zInv2, P), P);\n\n        return (x2, y2);\n    }\n\n    /// @dev Modular euclidean inverse of a number (mod p).\n    /// Source: https://github.com/witnet/elliptic-curve-solidity/blob/master/contracts/EllipticCurve.sol\n    /// @param _x The number\n    /// @param _pp The modulus\n    /// @return q such that x*q = 1 (mod _pp)\n    function invMod(uint256 _x, uint256 _pp) internal pure returns (uint256) {\n        require(_x != 0 && _x != _pp && _pp != 0, 'Invalid number');\n        uint256 q = 0;\n        uint256 newT = 1;\n        uint256 r = _pp;\n        uint256 t;\n        while (_x != 0) {\n            t = r / _x;\n            (q, newT) = (newT, addmod(q, (_pp - mulmod(t, newT, _pp)), _pp));\n            (r, _x) = (_x, r - t * _x);\n        }\n\n        return q;\n    }\n}",
  "sourcePath": "/Users/shubhaankar/github.com/peer-safe/contracts/contracts/utils/SECP256K1.sol",
  "compiler": {
    "name": "solc",
    "version": "0.8.0+commit.c7dfd78e.Emscripten.clang"
  },
  "schemaVersion": "3.4.14",
  "updatedAt": "2023-06-17T00:41:15.614Z",
  "devdoc": {
    "author": "cyphered.eth",
    "details": "Library providing arithmetic operations over signed `secpk256k1` signed message due to recover the signer public key EC point in `Solidity`.",
    "kind": "dev",
    "methods": {
      "recover(uint256,uint8,uint256,uint256)": {
        "details": "recovers signer public key point value.",
        "params": {
          "digest": "hashed message",
          "r": "first 32 bytes of signature",
          "v": "last 32 bytes of signature"
        },
        "returns": {
          "_0": "(x, y) EC point"
        }
      }
    },
    "title": "SECPK256K1 public key recovery Library",
    "version": 1
  },
  "userdoc": {
    "kind": "user",
    "methods": {},
    "version": 1
  }
}