{
  "contractName": "Vault",
  "abi": [
    {
      "inputs": [
        {
          "internalType": "address",
          "name": "_owner",
          "type": "address"
        },
        {
          "internalType": "string",
          "name": "_userName",
          "type": "string"
        }
      ],
      "stateMutability": "nonpayable",
      "type": "constructor"
    },
    {
      "anonymous": false,
      "inputs": [
        {
          "indexed": true,
          "internalType": "address",
          "name": "previousOwner",
          "type": "address"
        },
        {
          "indexed": true,
          "internalType": "address",
          "name": "newOwner",
          "type": "address"
        }
      ],
      "name": "OwnershipTransferred",
      "type": "event"
    },
    {
      "inputs": [],
      "name": "getCreator",
      "outputs": [
        {
          "internalType": "address",
          "name": "",
          "type": "address"
        }
      ],
      "stateMutability": "view",
      "type": "function"
    },
    {
      "inputs": [],
      "name": "getOwner",
      "outputs": [
        {
          "internalType": "address",
          "name": "",
          "type": "address"
        }
      ],
      "stateMutability": "view",
      "type": "function"
    },
    {
      "inputs": [],
      "name": "user",
      "outputs": [
        {
          "internalType": "string",
          "name": "",
          "type": "string"
        }
      ],
      "stateMutability": "view",
      "type": "function"
    },
    {
      "inputs": [],
      "name": "getAllFiles",
      "outputs": [
        {
          "components": [
            {
              "internalType": "string",
              "name": "_name",
              "type": "string"
            },
            {
              "internalType": "string",
              "name": "_fileType",
              "type": "string"
            },
            {
              "internalType": "string",
              "name": "_ipfsHash",
              "type": "string"
            },
            {
              "internalType": "string",
              "name": "_key",
              "type": "string"
            }
          ],
          "internalType": "struct File[]",
          "name": "",
          "type": "tuple[]"
        }
      ],
      "stateMutability": "view",
      "type": "function"
    },
    {
      "inputs": [
        {
          "internalType": "string",
          "name": "name",
          "type": "string"
        },
        {
          "internalType": "string",
          "name": "fileType",
          "type": "string"
        },
        {
          "internalType": "string",
          "name": "ipfsHash",
          "type": "string"
        },
        {
          "internalType": "string",
          "name": "key",
          "type": "string"
        }
      ],
      "name": "createFile",
      "outputs": [],
      "stateMutability": "nonpayable",
      "type": "function"
    },
    {
      "inputs": [
        {
          "internalType": "uint256",
          "name": "index",
          "type": "uint256"
        }
      ],
      "name": "deleteFile",
      "outputs": [],
      "stateMutability": "nonpayable",
      "type": "function"
    },
    {
      "inputs": [
        {
          "internalType": "bytes32",
          "name": "_hashedMessage",
          "type": "bytes32"
        },
        {
          "internalType": "uint8",
          "name": "_v",
          "type": "uint8"
        },
        {
          "internalType": "bytes32",
          "name": "_r",
          "type": "bytes32"
        },
        {
          "internalType": "bytes32",
          "name": "_s",
          "type": "bytes32"
        },
        {
          "components": [
            {
              "internalType": "string",
              "name": "_name",
              "type": "string"
            },
            {
              "internalType": "string",
              "name": "_fileType",
              "type": "string"
            },
            {
              "internalType": "string",
              "name": "_ipfsHash",
              "type": "string"
            },
            {
              "internalType": "string",
              "name": "_key",
              "type": "string"
            }
          ],
          "internalType": "struct File[]",
          "name": "_files",
          "type": "tuple[]"
        }
      ],
      "name": "migrateFiles",
      "outputs": [],
      "stateMutability": "nonpayable",
      "type": "function"
    }
  ],
  "bytecode": "0x60806040523480156200001157600080fd5b5060405162001ce338038062001ce3833981810160405281019062000037919062000271565b3382806000806101000a81548173ffffffffffffffffffffffffffffffffffffffff021916908373ffffffffffffffffffffffffffffffffffffffff16021790555081600160006101000a81548173ffffffffffffffffffffffffffffffffffffffff021916908373ffffffffffffffffffffffffffffffffffffffff1602179055508073ffffffffffffffffffffffffffffffffffffffff16600073ffffffffffffffffffffffffffffffffffffffff167f8be0079c531659141344cd1fd0a4f28419497f9722a3daafe3b4186f6b6457e060405160405180910390a3505080600290805190602001906200012f92919062000138565b5050506200044a565b82805462000146906200039c565b90600052602060002090601f0160209004810192826200016a5760008555620001b6565b82601f106200018557805160ff1916838001178555620001b6565b82800160010185558215620001b6579182015b82811115620001b557825182559160200191906001019062000198565b5b509050620001c59190620001c9565b5090565b5b80821115620001e4576000816000905550600101620001ca565b5090565b6000620001ff620001f984620002ff565b620002cb565b9050828152602081018484840111156200021857600080fd5b6200022584828562000366565b509392505050565b6000815190506200023e8162000430565b92915050565b600082601f8301126200025657600080fd5b815162000268848260208601620001e8565b91505092915050565b600080604083850312156200028557600080fd5b600062000295858286016200022d565b925050602083015167ffffffffffffffff811115620002b357600080fd5b620002c18582860162000244565b9150509250929050565b6000604051905081810181811067ffffffffffffffff82111715620002f557620002f462000401565b5b8060405250919050565b600067ffffffffffffffff8211156200031d576200031c62000401565b5b601f19601f8301169050602081019050919050565b60006200033f8262000346565b9050919050565b600073ffffffffffffffffffffffffffffffffffffffff82169050919050565b60005b838110156200038657808201518184015260208101905062000369565b8381111562000396576000848401525b50505050565b60006002820490506001821680620003b557607f821691505b60208210811415620003cc57620003cb620003d2565b5b50919050565b7f4e487b7100000000000000000000000000000000000000000000000000000000600052602260045260246000fd5b7f4e487b7100000000000000000000000000000000000000000000000000000000600052604160045260246000fd5b6200043b8162000332565b81146200044757600080fd5b50565b611889806200045a6000396000f3fe608060405234801561001057600080fd5b506004361061007d5760003560e01c8063893d20e81161005b578063893d20e8146100da578063c5b42006146100f8578063d590e7ef14610114578063ff24b5d5146101305761007d565b80630ee2cb10146100825780631dd09eb0146100a05780634f8632ba146100bc575b600080fd5b61008a61014e565b6040516100979190611415565b60405180910390f35b6100ba60048036038101906100b59190610fa4565b610178565b005b6100c4610378565b6040516100d19190611497565b60405180910390f35b6100e2610406565b6040516100ef9190611415565b60405180910390f35b610112600480360381019061010d91906110f6565b61042f565b005b61012e60048036038101906101299190611033565b610714565b005b6101386108c8565b6040516101459190611430565b60405180910390f35b6000600160009054906101000a900473ffffffffffffffffffffffffffffffffffffffff16905090565b600061018686868686610b6f565b905060008054906101000a900473ffffffffffffffffffffffffffffffffffffffff1673ffffffffffffffffffffffffffffffffffffffff168173ffffffffffffffffffffffffffffffffffffffff16148061022f5750600160009054906101000a900473ffffffffffffffffffffffffffffffffffffffff1673ffffffffffffffffffffffffffffffffffffffff168173ffffffffffffffffffffffffffffffffffffffff16145b61026e576040517f08c379a0000000000000000000000000000000000000000000000000000000008152600401610265906114d9565b60405180910390fd5b60005b825181101561036f5760038382815181106102b5577f4e487b7100000000000000000000000000000000000000000000000000000000600052603260045260246000fd5b602002602001015190806001815401808255809150506001900390600052602060002090600402016000909190919091506000820151816000019080519060200190610302929190610c32565b50602082015181600101908051906020019061031f929190610c32565b50604082015181600201908051906020019061033c929190610c32565b506060820151816003019080519060200190610359929190610c32565b50505080806103679061171d565b915050610271565b50505050505050565b60028054610385906116eb565b80601f01602080910402602001604051908101604052809291908181526020018280546103b1906116eb565b80156103fe5780601f106103d3576101008083540402835291602001916103fe565b820191906000526020600020905b8154815290600101906020018083116103e157829003601f168201915b505050505081565b60008060009054906101000a900473ffffffffffffffffffffffffffffffffffffffff16905090565b60008054906101000a900473ffffffffffffffffffffffffffffffffffffffff1673ffffffffffffffffffffffffffffffffffffffff163373ffffffffffffffffffffffffffffffffffffffff1614806104d65750600160009054906101000a900473ffffffffffffffffffffffffffffffffffffffff1673ffffffffffffffffffffffffffffffffffffffff163373ffffffffffffffffffffffffffffffffffffffff16145b610515576040517f08c379a000000000000000000000000000000000000000000000000000000000815260040161050c906114b9565b60405180910390fd5b600380549050811061055c576040517f08c379a0000000000000000000000000000000000000000000000000000000008152600401610553906114f9565b60405180910390fd5b600360016003805490506105709190611622565b815481106105a7577f4e487b7100000000000000000000000000000000000000000000000000000000600052603260045260246000fd5b9060005260206000209060040201600382815481106105ef577f4e487b7100000000000000000000000000000000000000000000000000000000600052603260045260246000fd5b90600052602060002090600402016000820181600001908054610611906116eb565b61061c929190610cb8565b506001820181600101908054610631906116eb565b61063c929190610cb8565b506002820181600201908054610651906116eb565b61065c929190610cb8565b506003820181600301908054610671906116eb565b61067c929190610cb8565b5090505060038054806106b8577f4e487b7100000000000000000000000000000000000000000000000000000000600052603160045260246000fd5b6001900381819060005260206000209060040201600080820160006106dd9190610d45565b6001820160006106ed9190610d45565b6002820160006106fd9190610d45565b60038201600061070d9190610d45565b5050905550565b60008054906101000a900473ffffffffffffffffffffffffffffffffffffffff1673ffffffffffffffffffffffffffffffffffffffff163373ffffffffffffffffffffffffffffffffffffffff1614806107bb5750600160009054906101000a900473ffffffffffffffffffffffffffffffffffffffff1673ffffffffffffffffffffffffffffffffffffffff163373ffffffffffffffffffffffffffffffffffffffff16145b6107fa576040517f08c379a00000000000000000000000000000000000000000000000000000000081526004016107f1906114b9565b60405180910390fd5b6000604051806080016040528086815260200185815260200184815260200183815250905060038190806001815401808255809150506001900390600052602060002090600402016000909190919091506000820151816000019080519060200190610867929190610c32565b506020820151816001019080519060200190610884929190610c32565b5060408201518160020190805190602001906108a1929190610c32565b5060608201518160030190805190602001906108be929190610c32565b5050505050505050565b60606003805480602002602001604051908101604052809291908181526020016000905b82821015610b66578382906000526020600020906004020160405180608001604052908160008201805461091f906116eb565b80601f016020809104026020016040519081016040528092919081815260200182805461094b906116eb565b80156109985780601f1061096d57610100808354040283529160200191610998565b820191906000526020600020905b81548152906001019060200180831161097b57829003601f168201915b505050505081526020016001820180546109b1906116eb565b80601f01602080910402602001604051908101604052809291908181526020018280546109dd906116eb565b8015610a2a5780601f106109ff57610100808354040283529160200191610a2a565b820191906000526020600020905b815481529060010190602001808311610a0d57829003601f168201915b50505050508152602001600282018054610a43906116eb565b80601f0160208091040260200160405190810160405280929190818152602001828054610a6f906116eb565b8015610abc5780601f10610a9157610100808354040283529160200191610abc565b820191906000526020600020905b815481529060010190602001808311610a9f57829003601f168201915b50505050508152602001600382018054610ad5906116eb565b80601f0160208091040260200160405190810160405280929190818152602001828054610b01906116eb565b8015610b4e5780601f10610b2357610100808354040283529160200191610b4e565b820191906000526020600020905b815481529060010190602001808311610b3157829003601f168201915b505050505081525050815260200190600101906108ec565b50505050905090565b6000806040518060400160405280601c81526020017f19457468657265756d205369676e6564204d6573736167653a0a333200000000815250905060008187604051602001610bbf9291906113ed565b60405160208183030381529060405280519060200120905060018187878760405160008152602001604052604051610bfa9493929190611452565b6020604051602081039080840390855afa158015610c1c573d6000803e3d6000fd5b5050506020604051035192505050949350505050565b828054610c3e906116eb565b90600052602060002090601f016020900481019282610c605760008555610ca7565b82601f10610c7957805160ff1916838001178555610ca7565b82800160010185558215610ca7579182015b82811115610ca6578251825591602001919060010190610c8b565b5b509050610cb49190610d85565b5090565b828054610cc4906116eb565b90600052602060002090601f016020900481019282610ce65760008555610d34565b82601f10610cf75780548555610d34565b82800160010185558215610d3457600052602060002091601f016020900482015b82811115610d33578254825591600101919060010190610d18565b5b509050610d419190610d85565b5090565b508054610d51906116eb565b6000825580601f10610d635750610d82565b601f016020900490600052602060002090810190610d819190610d85565b5b50565b5b80821115610d9e576000816000905550600101610d86565b5090565b6000610db5610db08461154a565b611519565b9050808382526020820190508260005b85811015610df55781358501610ddb8882610ea6565b845260208401935060208301925050600181019050610dc5565b5050509392505050565b6000610e12610e0d84611576565b611519565b905082815260208101848484011115610e2a57600080fd5b610e358482856116a9565b509392505050565b600082601f830112610e4e57600080fd5b8135610e5e848260208601610da2565b91505092915050565b600081359050610e768161180e565b92915050565b600082601f830112610e8d57600080fd5b8135610e9d848260208601610dff565b91505092915050565b600060808284031215610eb857600080fd5b610ec26080611519565b9050600082013567ffffffffffffffff811115610ede57600080fd5b610eea84828501610e7c565b600083015250602082013567ffffffffffffffff811115610f0a57600080fd5b610f1684828501610e7c565b602083015250604082013567ffffffffffffffff811115610f3657600080fd5b610f4284828501610e7c565b604083015250606082013567ffffffffffffffff811115610f6257600080fd5b610f6e84828501610e7c565b60608301525092915050565b600081359050610f8981611825565b92915050565b600081359050610f9e8161183c565b92915050565b600080600080600060a08688031215610fbc57600080fd5b6000610fca88828901610e67565b9550506020610fdb88828901610f8f565b9450506040610fec88828901610e67565b9350506060610ffd88828901610e67565b925050608086013567ffffffffffffffff81111561101a57600080fd5b61102688828901610e3d565b9150509295509295909350565b6000806000806080858703121561104957600080fd5b600085013567ffffffffffffffff81111561106357600080fd5b61106f87828801610e7c565b945050602085013567ffffffffffffffff81111561108c57600080fd5b61109887828801610e7c565b935050604085013567ffffffffffffffff8111156110b557600080fd5b6110c187828801610e7c565b925050606085013567ffffffffffffffff8111156110de57600080fd5b6110ea87828801610e7c565b91505092959194509250565b60006020828403121561110857600080fd5b600061111684828501610f7a565b91505092915050565b600061112b8383611366565b905092915050565b61113c81611656565b82525050565b600061114d826115b6565b61115781856115e4565b935083602082028501611169856115a6565b8060005b858110156111a55784840389528151611186858261111f565b9450611191836115d7565b925060208a0199505060018101905061116d565b50829750879550505050505092915050565b6111c081611668565b82525050565b6111d76111d282611668565b611766565b82525050565b60006111e8826115c1565b6111f281856115f5565b93506112028185602086016116b8565b80840191505092915050565b6000611219826115cc565b6112238185611600565b93506112338185602086016116b8565b61123c816117fd565b840191505092915050565b6000611252826115cc565b61125c8185611611565b935061126c8185602086016116b8565b611275816117fd565b840191505092915050565b600061128d603a83611611565b91507f4f776e61626c65236f6e6c794f776e65724f7243726561746f723a2053454e4460008301527f45525f49535f4e4f545f4f574e45525f4f525f43524541544f520000000000006020830152604082019050919050565b60006112f3601983611611565b91507f6e656974686572206f776e6572206e6f722063726561746f72000000000000006000830152602082019050919050565b6000611333601383611611565b91507f696e646578206f7574206f6620626f756e6473000000000000000000000000006000830152602082019050919050565b60006080830160008301518482036000860152611383828261120e565b9150506020830151848203602086015261139d828261120e565b915050604083015184820360408601526113b7828261120e565b915050606083015184820360608601526113d1828261120e565b9150508091505092915050565b6113e78161169c565b82525050565b60006113f982856111dd565b915061140582846111c6565b6020820191508190509392505050565b600060208201905061142a6000830184611133565b92915050565b6000602082019050818103600083015261144a8184611142565b905092915050565b600060808201905061146760008301876111b7565b61147460208301866113de565b61148160408301856111b7565b61148e60608301846111b7565b95945050505050565b600060208201905081810360008301526114b18184611247565b905092915050565b600060208201905081810360008301526114d281611280565b9050919050565b600060208201905081810360008301526114f2816112e6565b9050919050565b6000602082019050818103600083015261151281611326565b9050919050565b6000604051905081810181811067ffffffffffffffff821117156115405761153f6117ce565b5b8060405250919050565b600067ffffffffffffffff821115611565576115646117ce565b5b602082029050602081019050919050565b600067ffffffffffffffff821115611591576115906117ce565b5b601f19601f8301169050602081019050919050565b6000819050602082019050919050565b600081519050919050565b600081519050919050565b600081519050919050565b6000602082019050919050565b600082825260208201905092915050565b600081905092915050565b600082825260208201905092915050565b600082825260208201905092915050565b600061162d82611692565b915061163883611692565b92508282101561164b5761164a611770565b5b828203905092915050565b600061166182611672565b9050919050565b6000819050919050565b600073ffffffffffffffffffffffffffffffffffffffff82169050919050565b6000819050919050565b600060ff82169050919050565b82818337600083830152505050565b60005b838110156116d65780820151818401526020810190506116bb565b838111156116e5576000848401525b50505050565b6000600282049050600182168061170357607f821691505b602082108114156117175761171661179f565b5b50919050565b600061172882611692565b91507fffffffffffffffffffffffffffffffffffffffffffffffffffffffffffffffff82141561175b5761175a611770565b5b600182019050919050565b6000819050919050565b7f4e487b7100000000000000000000000000000000000000000000000000000000600052601160045260246000fd5b7f4e487b7100000000000000000000000000000000000000000000000000000000600052602260045260246000fd5b7f4e487b7100000000000000000000000000000000000000000000000000000000600052604160045260246000fd5b6000601f19601f8301169050919050565b61181781611668565b811461182257600080fd5b50565b61182e81611692565b811461183957600080fd5b50565b6118458161169c565b811461185057600080fd5b5056fea26469706673582212204b3ad8a43a6b52fbff4d35030e73aea121840dabecd793c7ef28bd971eb5692764736f6c63430008000033",
  "immutableReferences": {},
  "source": "// SPDX-License-Identifier: MIT\npragma solidity ^0.8.0;\npragma experimental ABIEncoderV2;\n\nimport \"./utils/Ownable.sol\";\nimport \"./utils/SigUtils.sol\";\n\n\nstruct File {\n    string _name;\n    string _fileType;\n    string _ipfsHash;\n    string _key;\n}\n\ncontract Vault is Ownable {\n    string public user;\n    File[] files;\n    constructor(address _owner, string memory _userName ) Ownable(msg.sender, _owner) {\n        user = _userName;\n    }\n\n    function getAllFiles() external view returns(File[] memory) {\n        return files;\n    }\n\n    function createFile(string memory name, string memory fileType, string memory ipfsHash, string memory key) external onlyOwnerOrCreator {\n        File memory f = File(\n           {\n            _name: name,\n            _fileType: fileType,\n            _ipfsHash: ipfsHash,\n            _key: key\n           }\n        );\n        files.push(f);\n    }\n\n    function deleteFile(uint256 index) external onlyOwnerOrCreator {\n        require( index < files.length, \"index out of bounds\" );\n        files[index] = files[files.length-1];\n        files.pop();\n    }\n\n    function migrateFiles(bytes32 _hashedMessage, uint8 _v, bytes32 _r, bytes32 _s, File[] memory _files) public{\n        address signer = SigUtils.recoverSigner(_hashedMessage, _v, _r, _s);\n        require(signer == owner || signer == creator, 'neither owner nor creator');\n        for (uint i = 0; i < _files.length; i++ ){\n            files.push(_files[i]);\n        }\n    }\n}",
  "sourcePath": "/Users/shubhaankar/github.com/peer-safe/contracts/contracts/Vault.sol",
  "compiler": {
    "name": "solc",
    "version": "0.8.0+commit.c7dfd78e.Emscripten.clang"
  },
  "schemaVersion": "3.4.14",
  "updatedAt": "2023-06-11T05:42:20.621Z",
  "devdoc": {
    "kind": "dev",
    "methods": {},
    "version": 1
  },
  "userdoc": {
    "kind": "user",
    "methods": {},
    "version": 1
  }
}