{
  "contractName": "Vault",
  "abi": [
    {
      "inputs": [
        {
          "internalType": "address",
          "name": "_owner",
          "type": "address"
        },
        {
          "internalType": "string",
          "name": "_userName",
          "type": "string"
        }
      ],
      "stateMutability": "nonpayable",
      "type": "constructor"
    },
    {
      "anonymous": false,
      "inputs": [],
      "name": "FileCreated",
      "type": "event"
    },
    {
      "anonymous": false,
      "inputs": [],
      "name": "FileDeleted",
      "type": "event"
    },
    {
      "anonymous": false,
      "inputs": [],
      "name": "FilesImported",
      "type": "event"
    },
    {
      "anonymous": false,
      "inputs": [
        {
          "indexed": true,
          "internalType": "address",
          "name": "previousOwner",
          "type": "address"
        },
        {
          "indexed": true,
          "internalType": "address",
          "name": "newOwner",
          "type": "address"
        }
      ],
      "name": "OwnershipTransferred",
      "type": "event"
    },
    {
      "inputs": [],
      "name": "getCreator",
      "outputs": [
        {
          "internalType": "address",
          "name": "",
          "type": "address"
        }
      ],
      "stateMutability": "view",
      "type": "function"
    },
    {
      "inputs": [],
      "name": "getOwner",
      "outputs": [
        {
          "internalType": "address",
          "name": "",
          "type": "address"
        }
      ],
      "stateMutability": "view",
      "type": "function"
    },
    {
      "inputs": [],
      "name": "user",
      "outputs": [
        {
          "internalType": "string",
          "name": "",
          "type": "string"
        }
      ],
      "stateMutability": "view",
      "type": "function"
    },
    {
      "inputs": [],
      "name": "getAllFiles",
      "outputs": [
        {
          "components": [
            {
              "internalType": "string",
              "name": "_name",
              "type": "string"
            },
            {
              "internalType": "string",
              "name": "_fileType",
              "type": "string"
            },
            {
              "internalType": "string",
              "name": "_ipfsHash",
              "type": "string"
            },
            {
              "internalType": "string",
              "name": "_key",
              "type": "string"
            }
          ],
          "internalType": "struct File[]",
          "name": "",
          "type": "tuple[]"
        }
      ],
      "stateMutability": "view",
      "type": "function"
    },
    {
      "inputs": [
        {
          "internalType": "string",
          "name": "name",
          "type": "string"
        },
        {
          "internalType": "string",
          "name": "fileType",
          "type": "string"
        },
        {
          "internalType": "string",
          "name": "ipfsHash",
          "type": "string"
        },
        {
          "internalType": "string",
          "name": "key",
          "type": "string"
        }
      ],
      "name": "createFile",
      "outputs": [],
      "stateMutability": "nonpayable",
      "type": "function"
    },
    {
      "inputs": [
        {
          "internalType": "string",
          "name": "ipfsHash",
          "type": "string"
        }
      ],
      "name": "deleteFile",
      "outputs": [],
      "stateMutability": "nonpayable",
      "type": "function"
    },
    {
      "inputs": [
        {
          "internalType": "bytes32",
          "name": "_hashedMessage",
          "type": "bytes32"
        },
        {
          "internalType": "uint8",
          "name": "_v",
          "type": "uint8"
        },
        {
          "internalType": "bytes32",
          "name": "_r",
          "type": "bytes32"
        },
        {
          "internalType": "bytes32",
          "name": "_s",
          "type": "bytes32"
        },
        {
          "components": [
            {
              "internalType": "string",
              "name": "_name",
              "type": "string"
            },
            {
              "internalType": "string",
              "name": "_fileType",
              "type": "string"
            },
            {
              "internalType": "string",
              "name": "_ipfsHash",
              "type": "string"
            },
            {
              "internalType": "string",
              "name": "_key",
              "type": "string"
            }
          ],
          "internalType": "struct File[]",
          "name": "_files",
          "type": "tuple[]"
        }
      ],
      "name": "migrateFiles",
      "outputs": [],
      "stateMutability": "nonpayable",
      "type": "function"
    }
  ],
  "bytecode": "0x60806040523480156200001157600080fd5b506040516200210d3803806200210d833981810160405281019062000037919062000271565b3382806000806101000a81548173ffffffffffffffffffffffffffffffffffffffff021916908373ffffffffffffffffffffffffffffffffffffffff16021790555081600160006101000a81548173ffffffffffffffffffffffffffffffffffffffff021916908373ffffffffffffffffffffffffffffffffffffffff1602179055508073ffffffffffffffffffffffffffffffffffffffff16600073ffffffffffffffffffffffffffffffffffffffff167f8be0079c531659141344cd1fd0a4f28419497f9722a3daafe3b4186f6b6457e060405160405180910390a3505080600290805190602001906200012f92919062000138565b5050506200044a565b82805462000146906200039c565b90600052602060002090601f0160209004810192826200016a5760008555620001b6565b82601f106200018557805160ff1916838001178555620001b6565b82800160010185558215620001b6579182015b82811115620001b557825182559160200191906001019062000198565b5b509050620001c59190620001c9565b5090565b5b80821115620001e4576000816000905550600101620001ca565b5090565b6000620001ff620001f984620002ff565b620002cb565b9050828152602081018484840111156200021857600080fd5b6200022584828562000366565b509392505050565b6000815190506200023e8162000430565b92915050565b600082601f8301126200025657600080fd5b815162000268848260208601620001e8565b91505092915050565b600080604083850312156200028557600080fd5b600062000295858286016200022d565b925050602083015167ffffffffffffffff811115620002b357600080fd5b620002c18582860162000244565b9150509250929050565b6000604051905081810181811067ffffffffffffffff82111715620002f557620002f462000401565b5b8060405250919050565b600067ffffffffffffffff8211156200031d576200031c62000401565b5b601f19601f8301169050602081019050919050565b60006200033f8262000346565b9050919050565b600073ffffffffffffffffffffffffffffffffffffffff82169050919050565b60005b838110156200038657808201518184015260208101905062000369565b8381111562000396576000848401525b50505050565b60006002820490506001821680620003b557607f821691505b60208210811415620003cc57620003cb620003d2565b5b50919050565b7f4e487b7100000000000000000000000000000000000000000000000000000000600052602260045260246000fd5b7f4e487b7100000000000000000000000000000000000000000000000000000000600052604160045260246000fd5b6200043b8162000332565b81146200044757600080fd5b50565b611cb3806200045a6000396000f3fe608060405234801561001057600080fd5b506004361061007d5760003560e01c8063893d20e81161005b578063893d20e8146100da578063a9910054146100f8578063d590e7ef14610114578063ff24b5d5146101305761007d565b80630ee2cb10146100825780631dd09eb0146100a05780634f8632ba146100bc575b600080fd5b61008a61014e565b6040516100979190611836565b60405180910390f35b6100ba60048036038101906100b591906112cf565b610178565b005b6100c461045c565b6040516100d191906118b8565b60405180910390f35b6100e26104ea565b6040516100ef9190611836565b60405180910390f35b610112600480360381019061010d919061135e565b610513565b005b61012e6004803603810190610129919061139f565b6108cf565b005b610138610adf565b6040516101459190611851565b60405180910390f35b6000600160009054906101000a900473ffffffffffffffffffffffffffffffffffffffff16905090565b600061018686868686610e87565b905060008054906101000a900473ffffffffffffffffffffffffffffffffffffffff1673ffffffffffffffffffffffffffffffffffffffff168173ffffffffffffffffffffffffffffffffffffffff16148061022f5750600160009054906101000a900473ffffffffffffffffffffffffffffffffffffffff1673ffffffffffffffffffffffffffffffffffffffff168173ffffffffffffffffffffffffffffffffffffffff16145b61026e576040517f08c379a0000000000000000000000000000000000000000000000000000000008152600401610265906118fa565b60405180910390fd5b60005b8251811015610427578281815181106102b3577f4e487b7100000000000000000000000000000000000000000000000000000000600052603260045260246000fd5b602002602001015160038483815181106102f6577f4e487b7100000000000000000000000000000000000000000000000000000000600052603260045260246000fd5b60200260200101516040015160405161030f9190611808565b90815260200160405180910390206000820151816000019080519060200190610339929190610f4a565b506020820151816001019080519060200190610356929190610f4a565b506040820151816002019080519060200190610373929190610f4a565b506060820151816003019080519060200190610390929190610f4a565b5090505060048382815181106103cf577f4e487b7100000000000000000000000000000000000000000000000000000000600052603260045260246000fd5b602002602001015160400151908060018154018082558091505060019003906000526020600020016000909190919091509080519060200190610413929190610f4a565b50808061041f90611b5e565b915050610271565b507f3a5d018c361f6b1d438d4861a2e1c553569f4037c740503810b84019d700cdae60405160405180910390a1505050505050565b6002805461046990611b2c565b80601f016020809104026020016040519081016040528092919081815260200182805461049590611b2c565b80156104e25780601f106104b7576101008083540402835291602001916104e2565b820191906000526020600020905b8154815290600101906020018083116104c557829003601f168201915b505050505081565b60008060009054906101000a900473ffffffffffffffffffffffffffffffffffffffff16905090565b60008054906101000a900473ffffffffffffffffffffffffffffffffffffffff1673ffffffffffffffffffffffffffffffffffffffff163373ffffffffffffffffffffffffffffffffffffffff1614806105ba5750600160009054906101000a900473ffffffffffffffffffffffffffffffffffffffff1673ffffffffffffffffffffffffffffffffffffffff163373ffffffffffffffffffffffffffffffffffffffff16145b6105f9576040517f08c379a00000000000000000000000000000000000000000000000000000000081526004016105f0906118da565b60405180910390fd5b600060038260405161060b9190611808565b908152602001604051809103902060020160405160200161062c919061181f565b604051602081830303815290604052511161067c576040517f08c379a00000000000000000000000000000000000000000000000000000000081526004016106739061191a565b60405180910390fd5b60038160405161068c9190611808565b9081526020016040518091039020600080820160006106ab9190610fd0565b6001820160006106bb9190610fd0565b6002820160006106cb9190610fd0565b6003820160006106db9190610fd0565b505060005b60048054905081101561089f57816040516020016106fe9190611808565b604051602081830303815290604052805190602001206004828154811061074e577f4e487b7100000000000000000000000000000000000000000000000000000000600052603260045260246000fd5b90600052602060002001604051602001610768919061181f565b60405160208183030381529060405280519060200120141561088c57600460016004805490506107989190611a63565b815481106107cf577f4e487b7100000000000000000000000000000000000000000000000000000000600052603260045260246000fd5b9060005260206000200160048281548110610813577f4e487b7100000000000000000000000000000000000000000000000000000000600052603260045260246000fd5b9060005260206000200190805461082990611b2c565b610834929190611010565b50600480548061086d577f4e487b7100000000000000000000000000000000000000000000000000000000600052603160045260246000fd5b6001900381819060005260206000200160006108899190610fd0565b90555b808061089790611b5e565b9150506106e0565b507f2cb62029f31e3c49468f31444e5229c1f9bc994db2905ec54efe95d4d92ce07f60405160405180910390a150565b60008054906101000a900473ffffffffffffffffffffffffffffffffffffffff1673ffffffffffffffffffffffffffffffffffffffff163373ffffffffffffffffffffffffffffffffffffffff1614806109765750600160009054906101000a900473ffffffffffffffffffffffffffffffffffffffff1673ffffffffffffffffffffffffffffffffffffffff163373ffffffffffffffffffffffffffffffffffffffff16145b6109b5576040517f08c379a00000000000000000000000000000000000000000000000000000000081526004016109ac906118da565b60405180910390fd5b60006040518060800160405280868152602001858152602001848152602001838152509050806003846040516109eb9190611808565b90815260200160405180910390206000820151816000019080519060200190610a15929190610f4a565b506020820151816001019080519060200190610a32929190610f4a565b506040820151816002019080519060200190610a4f929190610f4a565b506060820151816003019080519060200190610a6c929190610f4a565b50905050600483908060018154018082558091505060019003906000526020600020016000909190919091509080519060200190610aab929190610f4a565b507f588744e77a27a501dbb29b4c0887bc3d9baeac962c9d12031b299889cd7e7eb360405160405180910390a15050505050565b6060600060048054905067ffffffffffffffff811115610b28577f4e487b7100000000000000000000000000000000000000000000000000000000600052604160045260246000fd5b604051908082528060200260200182016040528015610b6157816020015b610b4e61109d565b815260200190600190039081610b465790505b50905060005b600480549050811015610e7f57600360048281548110610bb0577f4e487b7100000000000000000000000000000000000000000000000000000000600052603260045260246000fd5b90600052602060002001604051610bc7919061181f565b9081526020016040518091039020604051806080016040529081600082018054610bf090611b2c565b80601f0160208091040260200160405190810160405280929190818152602001828054610c1c90611b2c565b8015610c695780601f10610c3e57610100808354040283529160200191610c69565b820191906000526020600020905b815481529060010190602001808311610c4c57829003601f168201915b50505050508152602001600182018054610c8290611b2c565b80601f0160208091040260200160405190810160405280929190818152602001828054610cae90611b2c565b8015610cfb5780601f10610cd057610100808354040283529160200191610cfb565b820191906000526020600020905b815481529060010190602001808311610cde57829003601f168201915b50505050508152602001600282018054610d1490611b2c565b80601f0160208091040260200160405190810160405280929190818152602001828054610d4090611b2c565b8015610d8d5780601f10610d6257610100808354040283529160200191610d8d565b820191906000526020600020905b815481529060010190602001808311610d7057829003601f168201915b50505050508152602001600382018054610da690611b2c565b80601f0160208091040260200160405190810160405280929190818152602001828054610dd290611b2c565b8015610e1f5780601f10610df457610100808354040283529160200191610e1f565b820191906000526020600020905b815481529060010190602001808311610e0257829003601f168201915b505050505081525050828281518110610e61577f4e487b7100000000000000000000000000000000000000000000000000000000600052603260045260246000fd5b60200260200101819052508080610e7790611b5e565b915050610b67565b508091505090565b6000806040518060400160405280601c81526020017f19457468657265756d205369676e6564204d6573736167653a0a333200000000815250905060008187604051602001610ed79291906117e0565b60405160208183030381529060405280519060200120905060018187878760405160008152602001604052604051610f129493929190611873565b6020604051602081039080840390855afa158015610f34573d6000803e3d6000fd5b5050506020604051035192505050949350505050565b828054610f5690611b2c565b90600052602060002090601f016020900481019282610f785760008555610fbf565b82601f10610f9157805160ff1916838001178555610fbf565b82800160010185558215610fbf579182015b82811115610fbe578251825591602001919060010190610fa3565b5b509050610fcc91906110c5565b5090565b508054610fdc90611b2c565b6000825580601f10610fee575061100d565b601f01602090049060005260206000209081019061100c91906110c5565b5b50565b82805461101c90611b2c565b90600052602060002090601f01602090048101928261103e576000855561108c565b82601f1061104f578054855561108c565b8280016001018555821561108c57600052602060002091601f016020900482015b8281111561108b578254825591600101919060010190611070565b5b50905061109991906110c5565b5090565b6040518060800160405280606081526020016060815260200160608152602001606081525090565b5b808211156110de5760008160009055506001016110c6565b5090565b60006110f56110f08461196b565b61193a565b9050808382526020820190508260005b85811015611135578135850161111b88826111e6565b845260208401935060208301925050600181019050611105565b5050509392505050565b600061115261114d84611997565b61193a565b90508281526020810184848401111561116a57600080fd5b611175848285611aea565b509392505050565b600082601f83011261118e57600080fd5b813561119e8482602086016110e2565b91505092915050565b6000813590506111b681611c4f565b92915050565b600082601f8301126111cd57600080fd5b81356111dd84826020860161113f565b91505092915050565b6000608082840312156111f857600080fd5b611202608061193a565b9050600082013567ffffffffffffffff81111561121e57600080fd5b61122a848285016111bc565b600083015250602082013567ffffffffffffffff81111561124a57600080fd5b611256848285016111bc565b602083015250604082013567ffffffffffffffff81111561127657600080fd5b611282848285016111bc565b604083015250606082013567ffffffffffffffff8111156112a257600080fd5b6112ae848285016111bc565b60608301525092915050565b6000813590506112c981611c66565b92915050565b600080600080600060a086880312156112e757600080fd5b60006112f5888289016111a7565b9550506020611306888289016112ba565b9450506040611317888289016111a7565b9350506060611328888289016111a7565b925050608086013567ffffffffffffffff81111561134557600080fd5b6113518882890161117d565b9150509295509295909350565b60006020828403121561137057600080fd5b600082013567ffffffffffffffff81111561138a57600080fd5b611396848285016111bc565b91505092915050565b600080600080608085870312156113b557600080fd5b600085013567ffffffffffffffff8111156113cf57600080fd5b6113db878288016111bc565b945050602085013567ffffffffffffffff8111156113f857600080fd5b611404878288016111bc565b935050604085013567ffffffffffffffff81111561142157600080fd5b61142d878288016111bc565b925050606085013567ffffffffffffffff81111561144a57600080fd5b611456878288016111bc565b91505092959194509250565b600061146e8383611759565b905092915050565b61147f81611a97565b82525050565b6000611490826119ec565b61149a8185611a1a565b9350836020820285016114ac856119c7565b8060005b858110156114e857848403895281516114c98582611462565b94506114d483611a0d565b925060208a019950506001810190506114b0565b50829750879550505050505092915050565b61150381611aa9565b82525050565b61151a61151582611aa9565b611ba7565b82525050565b600061152b826119f7565b6115358185611a2b565b9350611545818560208601611af9565b80840191505092915050565b600061155c82611a02565b6115668185611a36565b9350611576818560208601611af9565b61157f81611c3e565b840191505092915050565b600061159582611a02565b61159f8185611a47565b93506115af818560208601611af9565b6115b881611c3e565b840191505092915050565b60006115ce82611a02565b6115d88185611a58565b93506115e8818560208601611af9565b80840191505092915050565b6000815461160181611b2c565b61160b8186611a58565b9450600182166000811461162657600181146116375761166a565b60ff1983168652818601935061166a565b611640856119d7565b60005b8381101561166257815481890152600182019150602081019050611643565b838801955050505b50505092915050565b6000611680603a83611a47565b91507f4f776e61626c65236f6e6c794f776e65724f7243726561746f723a2053454e4460008301527f45525f49535f4e4f545f4f574e45525f4f525f43524541544f520000000000006020830152604082019050919050565b60006116e6601983611a47565b91507f6e656974686572206f776e6572206e6f722063726561746f72000000000000006000830152602082019050919050565b6000611726601383611a47565b91507f696e646578206f7574206f6620626f756e6473000000000000000000000000006000830152602082019050919050565b600060808301600083015184820360008601526117768282611551565b915050602083015184820360208601526117908282611551565b915050604083015184820360408601526117aa8282611551565b915050606083015184820360608601526117c48282611551565b9150508091505092915050565b6117da81611add565b82525050565b60006117ec8285611520565b91506117f88284611509565b6020820191508190509392505050565b600061181482846115c3565b915081905092915050565b600061182b82846115f4565b915081905092915050565b600060208201905061184b6000830184611476565b92915050565b6000602082019050818103600083015261186b8184611485565b905092915050565b600060808201905061188860008301876114fa565b61189560208301866117d1565b6118a260408301856114fa565b6118af60608301846114fa565b95945050505050565b600060208201905081810360008301526118d2818461158a565b905092915050565b600060208201905081810360008301526118f381611673565b9050919050565b60006020820190508181036000830152611913816116d9565b9050919050565b6000602082019050818103600083015261193381611719565b9050919050565b6000604051905081810181811067ffffffffffffffff8211171561196157611960611c0f565b5b8060405250919050565b600067ffffffffffffffff82111561198657611985611c0f565b5b602082029050602081019050919050565b600067ffffffffffffffff8211156119b2576119b1611c0f565b5b601f19601f8301169050602081019050919050565b6000819050602082019050919050565b60008190508160005260206000209050919050565b600081519050919050565b600081519050919050565b600081519050919050565b6000602082019050919050565b600082825260208201905092915050565b600081905092915050565b600082825260208201905092915050565b600082825260208201905092915050565b600081905092915050565b6000611a6e82611ad3565b9150611a7983611ad3565b925082821015611a8c57611a8b611bb1565b5b828203905092915050565b6000611aa282611ab3565b9050919050565b6000819050919050565b600073ffffffffffffffffffffffffffffffffffffffff82169050919050565b6000819050919050565b600060ff82169050919050565b82818337600083830152505050565b60005b83811015611b17578082015181840152602081019050611afc565b83811115611b26576000848401525b50505050565b60006002820490506001821680611b4457607f821691505b60208210811415611b5857611b57611be0565b5b50919050565b6000611b6982611ad3565b91507fffffffffffffffffffffffffffffffffffffffffffffffffffffffffffffffff821415611b9c57611b9b611bb1565b5b600182019050919050565b6000819050919050565b7f4e487b7100000000000000000000000000000000000000000000000000000000600052601160045260246000fd5b7f4e487b7100000000000000000000000000000000000000000000000000000000600052602260045260246000fd5b7f4e487b7100000000000000000000000000000000000000000000000000000000600052604160045260246000fd5b6000601f19601f8301169050919050565b611c5881611aa9565b8114611c6357600080fd5b50565b611c6f81611add565b8114611c7a57600080fd5b5056fea26469706673582212206aa6c86d9d1d996dfc93798d20e87a756d2f274e10353cc515314c667ba69b6864736f6c63430008000033",
  "immutableReferences": {},
  "source": "// SPDX-License-Identifier: MIT\npragma solidity ^0.8.0;\npragma experimental ABIEncoderV2;\n\nimport \"./utils/Ownable.sol\";\nimport \"./utils/SigUtils.sol\";\n\n\nstruct File {\n    string _name;\n    string _fileType;\n    string _ipfsHash;\n    string _key;\n}\n\ncontract Vault is Ownable {\n    string public user;\n    mapping(string => File) files;\n    string[] filesKeys;\n    constructor(address _owner, string memory _userName ) Ownable(msg.sender, _owner) {\n        user = _userName;\n    }\n\n    function getAllFiles() external view returns(File[] memory) {\n        File[] memory _files = new File[](filesKeys.length);\n        for (uint i = 0; i < filesKeys.length; i++) {\n            _files[i] = files[filesKeys[i]];\n        }\n        return _files;\n    }\n\n    event FileCreated();\n    function createFile(string memory name, string memory fileType, string memory ipfsHash, string memory key) external onlyOwnerOrCreator {\n        File memory f = File(\n           {\n            _name: name,\n            _fileType: fileType,\n            _ipfsHash: ipfsHash,\n            _key: key\n           }\n        );\n        files[ipfsHash] = f;\n        filesKeys.push(ipfsHash);\n        emit FileCreated();\n    }\n\n    event FileDeleted();\n    function deleteFile(string memory ipfsHash) external onlyOwnerOrCreator {\n        require(abi.encodePacked(files[ipfsHash]._ipfsHash).length > 0, \"index out of bounds\" );\n        delete files[ipfsHash];\n        for (uint i = 0; i < filesKeys.length; i++) {\n            if (keccak256(abi.encodePacked(filesKeys[i])) == keccak256(abi.encodePacked(ipfsHash))) {\n                // delete filesKeys[i];\n                filesKeys[i] = filesKeys[filesKeys.length-1];\n                filesKeys.pop();\n            }\n        }\n        emit FileDeleted();\n    }\n\n    event FilesImported();\n    function migrateFiles(bytes32 _hashedMessage, uint8 _v, bytes32 _r, bytes32 _s, File[] memory _files) public{\n        address signer = SigUtils.recoverSigner(_hashedMessage, _v, _r, _s);\n        require(signer == owner || signer == creator, 'neither owner nor creator');\n        for (uint i = 0; i < _files.length; i++ ){\n            files[_files[i]._ipfsHash] = _files[i];\n            filesKeys.push(_files[i]._ipfsHash);\n        }\n        emit FilesImported();\n    }\n}",
  "sourcePath": "/Users/shubhaankar/github.com/peer-safe/contracts/contracts/Vault.sol",
  "compiler": {
    "name": "solc",
    "version": "0.8.0+commit.c7dfd78e.Emscripten.clang"
  },
  "schemaVersion": "3.4.14",
  "updatedAt": "2023-06-13T09:51:41.442Z",
  "devdoc": {
    "kind": "dev",
    "methods": {},
    "version": 1
  },
  "userdoc": {
    "kind": "user",
    "methods": {},
    "version": 1
  }
}