{
  "contractName": "Vault",
  "abi": [
    {
      "inputs": [
        {
          "internalType": "address",
          "name": "_creator",
          "type": "address"
        },
        {
          "internalType": "address",
          "name": "_owner",
          "type": "address"
        },
        {
          "internalType": "string",
          "name": "_userName",
          "type": "string"
        }
      ],
      "stateMutability": "nonpayable",
      "type": "constructor"
    },
    {
      "anonymous": false,
      "inputs": [],
      "name": "FileDeleted",
      "type": "event"
    },
    {
      "anonymous": false,
      "inputs": [
        {
          "indexed": true,
          "internalType": "address",
          "name": "previousOwner",
          "type": "address"
        },
        {
          "indexed": true,
          "internalType": "address",
          "name": "newOwner",
          "type": "address"
        }
      ],
      "name": "OwnershipTransferred",
      "type": "event"
    },
    {
      "inputs": [],
      "name": "getCreator",
      "outputs": [
        {
          "internalType": "address",
          "name": "",
          "type": "address"
        }
      ],
      "stateMutability": "view",
      "type": "function"
    },
    {
      "inputs": [],
      "name": "getOwner",
      "outputs": [
        {
          "internalType": "address",
          "name": "",
          "type": "address"
        }
      ],
      "stateMutability": "view",
      "type": "function"
    },
    {
      "inputs": [],
      "name": "user",
      "outputs": [
        {
          "internalType": "string",
          "name": "",
          "type": "string"
        }
      ],
      "stateMutability": "view",
      "type": "function"
    },
    {
      "inputs": [],
      "name": "getUser",
      "outputs": [
        {
          "internalType": "string",
          "name": "",
          "type": "string"
        }
      ],
      "stateMutability": "view",
      "type": "function"
    },
    {
      "inputs": [],
      "name": "getAllFiles",
      "outputs": [
        {
          "components": [
            {
              "internalType": "string",
              "name": "_name",
              "type": "string"
            },
            {
              "internalType": "string",
              "name": "_fileType",
              "type": "string"
            },
            {
              "internalType": "string",
              "name": "_ipfsHash",
              "type": "string"
            },
            {
              "internalType": "string",
              "name": "_key",
              "type": "string"
            },
            {
              "internalType": "address",
              "name": "_sharedBy",
              "type": "address"
            }
          ],
          "internalType": "struct File[]",
          "name": "",
          "type": "tuple[]"
        }
      ],
      "stateMutability": "view",
      "type": "function"
    },
    {
      "inputs": [
        {
          "internalType": "string",
          "name": "name",
          "type": "string"
        },
        {
          "internalType": "string",
          "name": "fileType",
          "type": "string"
        },
        {
          "internalType": "string",
          "name": "ipfsHash",
          "type": "string"
        },
        {
          "internalType": "string",
          "name": "key",
          "type": "string"
        }
      ],
      "name": "createFile",
      "outputs": [],
      "stateMutability": "nonpayable",
      "type": "function"
    },
    {
      "inputs": [
        {
          "internalType": "string",
          "name": "name",
          "type": "string"
        },
        {
          "internalType": "string",
          "name": "fileType",
          "type": "string"
        },
        {
          "internalType": "string",
          "name": "ipfsHash",
          "type": "string"
        },
        {
          "internalType": "string",
          "name": "key",
          "type": "string"
        },
        {
          "internalType": "address",
          "name": "sharedBy",
          "type": "address"
        }
      ],
      "name": "addSharedFile",
      "outputs": [],
      "stateMutability": "nonpayable",
      "type": "function"
    },
    {
      "inputs": [
        {
          "internalType": "string",
          "name": "ipfsHash",
          "type": "string"
        }
      ],
      "name": "deleteFile",
      "outputs": [],
      "stateMutability": "nonpayable",
      "type": "function"
    },
    {
      "inputs": [
        {
          "internalType": "bytes32",
          "name": "_hashedMessage",
          "type": "bytes32"
        },
        {
          "internalType": "uint8",
          "name": "_v",
          "type": "uint8"
        },
        {
          "internalType": "bytes32",
          "name": "_r",
          "type": "bytes32"
        },
        {
          "internalType": "bytes32",
          "name": "_s",
          "type": "bytes32"
        },
        {
          "components": [
            {
              "internalType": "string",
              "name": "_name",
              "type": "string"
            },
            {
              "internalType": "string",
              "name": "_fileType",
              "type": "string"
            },
            {
              "internalType": "string",
              "name": "_ipfsHash",
              "type": "string"
            },
            {
              "internalType": "string",
              "name": "_key",
              "type": "string"
            },
            {
              "internalType": "address",
              "name": "_sharedBy",
              "type": "address"
            }
          ],
          "internalType": "struct File[]",
          "name": "_files",
          "type": "tuple[]"
        }
      ],
      "name": "migrateFiles",
      "outputs": [],
      "stateMutability": "nonpayable",
      "type": "function"
    }
  ],
  "bytecode": "0x60806040523480156200001157600080fd5b50604051620027ba380380620027ba833981810160405281019062000037919062000272565b8282806000806101000a81548173ffffffffffffffffffffffffffffffffffffffff021916908373ffffffffffffffffffffffffffffffffffffffff16021790555081600160006101000a81548173ffffffffffffffffffffffffffffffffffffffff021916908373ffffffffffffffffffffffffffffffffffffffff1602179055508073ffffffffffffffffffffffffffffffffffffffff16600073ffffffffffffffffffffffffffffffffffffffff167f8be0079c531659141344cd1fd0a4f28419497f9722a3daafe3b4186f6b6457e060405160405180910390a3505080600290805190602001906200012f92919062000139565b5050505062000460565b8280546200014790620003b2565b90600052602060002090601f0160209004810192826200016b5760008555620001b7565b82601f106200018657805160ff1916838001178555620001b7565b82800160010185558215620001b7579182015b82811115620001b657825182559160200191906001019062000199565b5b509050620001c69190620001ca565b5090565b5b80821115620001e5576000816000905550600101620001cb565b5090565b600062000200620001fa8462000315565b620002e1565b9050828152602081018484840111156200021957600080fd5b620002268482856200037c565b509392505050565b6000815190506200023f8162000446565b92915050565b600082601f8301126200025757600080fd5b815162000269848260208601620001e9565b91505092915050565b6000806000606084860312156200028857600080fd5b600062000298868287016200022e565b9350506020620002ab868287016200022e565b925050604084015167ffffffffffffffff811115620002c957600080fd5b620002d78682870162000245565b9150509250925092565b6000604051905081810181811067ffffffffffffffff821117156200030b576200030a62000417565b5b8060405250919050565b600067ffffffffffffffff82111562000333576200033262000417565b5b601f19601f8301169050602081019050919050565b600062000355826200035c565b9050919050565b600073ffffffffffffffffffffffffffffffffffffffff82169050919050565b60005b838110156200039c5780820151818401526020810190506200037f565b83811115620003ac576000848401525b50505050565b60006002820490506001821680620003cb57607f821691505b60208210811415620003e257620003e1620003e8565b5b50919050565b7f4e487b7100000000000000000000000000000000000000000000000000000000600052602260045260246000fd5b7f4e487b7100000000000000000000000000000000000000000000000000000000600052604160045260246000fd5b620004518162000348565b81146200045d57600080fd5b50565b61234a80620004706000396000f3fe608060405234801561001057600080fd5b50600436106100935760003560e01c8063893d20e811610066578063893d20e81461010e578063a99100541461012c578063d590e7ef14610148578063ebd2251b14610164578063ff24b5d51461018057610093565b80630ee2cb1014610098578063384e477d146100b65780634f8632ba146100d2578063832880e7146100f0575b600080fd5b6100a061019e565b6040516100ad9190611e64565b60405180910390f35b6100d060048036038101906100cb9190611834565b6101c8565b005b6100da6102d1565b6040516100e79190611ee6565b60405180910390f35b6100f861035f565b6040516101059190611ee6565b60405180910390f35b6101166103f1565b6040516101239190611e64565b60405180910390f35b61014660048036038101906101419190611730565b61041a565b005b610162600480360381019061015d9190611771565b610517565b005b61017e600480360381019061017991906116a1565b610620565b005b61018861078a565b6040516101959190611e7f565b60405180910390f35b6000600160009054906101000a900473ffffffffffffffffffffffffffffffffffffffff16905090565b60008054906101000a900473ffffffffffffffffffffffffffffffffffffffff1673ffffffffffffffffffffffffffffffffffffffff163373ffffffffffffffffffffffffffffffffffffffff16148061026f5750600160009054906101000a900473ffffffffffffffffffffffffffffffffffffffff1673ffffffffffffffffffffffffffffffffffffffff163373ffffffffffffffffffffffffffffffffffffffff16145b6102ae576040517f08c379a00000000000000000000000000000000000000000000000000000000081526004016102a590611f08565b60405180910390fd5b6102ca8585858585600361079b9095949392919063ffffffff16565b5050505050565b600280546102de906121ac565b80601f016020809104026020016040519081016040528092919081815260200182805461030a906121ac565b80156103575780601f1061032c57610100808354040283529160200191610357565b820191906000526020600020905b81548152906001019060200180831161033a57829003601f168201915b505050505081565b60606002805461036e906121ac565b80601f016020809104026020016040519081016040528092919081815260200182805461039a906121ac565b80156103e75780601f106103bc576101008083540402835291602001916103e7565b820191906000526020600020905b8154815290600101906020018083116103ca57829003601f168201915b5050505050905090565b60008060009054906101000a900473ffffffffffffffffffffffffffffffffffffffff16905090565b60008054906101000a900473ffffffffffffffffffffffffffffffffffffffff1673ffffffffffffffffffffffffffffffffffffffff163373ffffffffffffffffffffffffffffffffffffffff1614806104c15750600160009054906101000a900473ffffffffffffffffffffffffffffffffffffffff1673ffffffffffffffffffffffffffffffffffffffff163373ffffffffffffffffffffffffffffffffffffffff16145b610500576040517f08c379a00000000000000000000000000000000000000000000000000000000081526004016104f790611f08565b60405180910390fd5b610514816003610afd90919063ffffffff16565b50565b60008054906101000a900473ffffffffffffffffffffffffffffffffffffffff1673ffffffffffffffffffffffffffffffffffffffff163373ffffffffffffffffffffffffffffffffffffffff1614806105be5750600160009054906101000a900473ffffffffffffffffffffffffffffffffffffffff1673ffffffffffffffffffffffffffffffffffffffff163373ffffffffffffffffffffffffffffffffffffffff16145b6105fd576040517f08c379a00000000000000000000000000000000000000000000000000000000081526004016105f490611f08565b60405180910390fd5b61061a848484846000600361079b9095949392919063ffffffff16565b50505050565b600061062e86868686610e0b565b905060008054906101000a900473ffffffffffffffffffffffffffffffffffffffff1673ffffffffffffffffffffffffffffffffffffffff168173ffffffffffffffffffffffffffffffffffffffff1614806106d75750600160009054906101000a900473ffffffffffffffffffffffffffffffffffffffff1673ffffffffffffffffffffffffffffffffffffffff168173ffffffffffffffffffffffffffffffffffffffff16145b610716576040517f08c379a000000000000000000000000000000000000000000000000000000000815260040161070d90611f28565b60405180910390fd5b600373__FileManager___________________________63167392159091846040518363ffffffff1660e01b8152600401610752929190611f68565b60006040518083038186803b15801561076a57600080fd5b505af415801561077e573d6000803e3d6000fd5b50505050505050505050565b60606107966003610ece565b905090565b60006040518060a001604052808781526020018681526020018581526020018481526020018373ffffffffffffffffffffffffffffffffffffffff1681525090508087600001856040516107ef9190611e36565b908152602001604051809103902060008201518160000190805190602001906108199291906112d6565b5060208201518160010190805190602001906108369291906112d6565b5060408201518160020190805190602001906108539291906112d6565b5060608201518160030190805190602001906108709291906112d6565b5060808201518160040160006101000a81548173ffffffffffffffffffffffffffffffffffffffff021916908373ffffffffffffffffffffffffffffffffffffffff16021790555090505060005b8760010180549050811015610a8957846040516020016108de9190611e36565b60405160208183030381529060405280519060200120886001018281548110610930577f4e487b7100000000000000000000000000000000000000000000000000000000600052603260045260246000fd5b9060005260206000200160405160200161094a9190611e4d565b604051602081830303815290604052805190602001201415610a7657876001016001896001018054905061097e91906120e3565b815481106109b5577f4e487b7100000000000000000000000000000000000000000000000000000000600052603260045260246000fd5b906000526020600020018860010182815481106109fb577f4e487b7100000000000000000000000000000000000000000000000000000000600052603260045260246000fd5b90600052602060002001908054610a11906121ac565b610a1c92919061135c565b5087600101805480610a57577f4e487b7100000000000000000000000000000000000000000000000000000000600052603160045260246000fd5b600190038181906000526020600020016000610a7391906113e9565b90555b8080610a81906121de565b9150506108be565b508660010184908060018154018082558091505060019003906000526020600020016000909190919091509080519060200190610ac79291906112d6565b507f588744e77a27a501dbb29b4c0887bc3d9baeac962c9d12031b299889cd7e7eb360405160405180910390a150505050505050565b60008260000182604051610b119190611e36565b9081526020016040518091039020600201604051602001610b329190611e4d565b6040516020818303038152906040525111610b82576040517f08c379a0000000000000000000000000000000000000000000000000000000008152600401610b7990611f48565b60405180910390fd5b8160000181604051610b949190611e36565b908152602001604051809103902060008082016000610bb391906113e9565b600182016000610bc391906113e9565b600282016000610bd391906113e9565b600382016000610be391906113e9565b6004820160006101000a81549073ffffffffffffffffffffffffffffffffffffffff0219169055505060005b8260010180549050811015610dda5781604051602001610c2f9190611e36565b60405160208183030381529060405280519060200120836001018281548110610c81577f4e487b7100000000000000000000000000000000000000000000000000000000600052603260045260246000fd5b90600052602060002001604051602001610c9b9190611e4d565b604051602081830303815290604052805190602001201415610dc7578260010160018460010180549050610ccf91906120e3565b81548110610d06577f4e487b7100000000000000000000000000000000000000000000000000000000600052603260045260246000fd5b90600052602060002001836001018281548110610d4c577f4e487b7100000000000000000000000000000000000000000000000000000000600052603260045260246000fd5b90600052602060002001908054610d62906121ac565b610d6d92919061135c565b5082600101805480610da8577f4e487b7100000000000000000000000000000000000000000000000000000000600052603160045260246000fd5b600190038181906000526020600020016000610dc491906113e9565b90555b8080610dd2906121de565b915050610c0f565b507f2cb62029f31e3c49468f31444e5229c1f9bc994db2905ec54efe95d4d92ce07f60405160405180910390a15050565b6000806040518060400160405280601c81526020017f19457468657265756d205369676e6564204d6573736167653a0a333200000000815250905060008187604051602001610e5b929190611e0e565b60405160208183030381529060405280519060200120905060018187878760405160008152602001604052604051610e969493929190611ea1565b6020604051602081039080840390855afa158015610eb8573d6000803e3d6000fd5b5050506020604051035192505050949350505050565b60606000826001018054905067ffffffffffffffff811115610f19577f4e487b7100000000000000000000000000000000000000000000000000000000600052604160045260246000fd5b604051908082528060200260200182016040528015610f5257816020015b610f3f611429565b815260200190600190039081610f375790505b50905060005b83600101805490508110156112cc5783600001846001018281548110610fa7577f4e487b7100000000000000000000000000000000000000000000000000000000600052603260045260246000fd5b90600052602060002001604051610fbe9190611e4d565b90815260200160405180910390206040518060a0016040529081600082018054610fe7906121ac565b80601f0160208091040260200160405190810160405280929190818152602001828054611013906121ac565b80156110605780601f1061103557610100808354040283529160200191611060565b820191906000526020600020905b81548152906001019060200180831161104357829003601f168201915b50505050508152602001600182018054611079906121ac565b80601f01602080910402602001604051908101604052809291908181526020018280546110a5906121ac565b80156110f25780601f106110c7576101008083540402835291602001916110f2565b820191906000526020600020905b8154815290600101906020018083116110d557829003601f168201915b5050505050815260200160028201805461110b906121ac565b80601f0160208091040260200160405190810160405280929190818152602001828054611137906121ac565b80156111845780601f1061115957610100808354040283529160200191611184565b820191906000526020600020905b81548152906001019060200180831161116757829003601f168201915b5050505050815260200160038201805461119d906121ac565b80601f01602080910402602001604051908101604052809291908181526020018280546111c9906121ac565b80156112165780601f106111eb57610100808354040283529160200191611216565b820191906000526020600020905b8154815290600101906020018083116111f957829003601f168201915b505050505081526020016004820160009054906101000a900473ffffffffffffffffffffffffffffffffffffffff1673ffffffffffffffffffffffffffffffffffffffff1673ffffffffffffffffffffffffffffffffffffffff16815250508282815181106112ae577f4e487b7100000000000000000000000000000000000000000000000000000000600052603260045260246000fd5b602002602001018190525080806112c4906121de565b915050610f58565b5080915050919050565b8280546112e2906121ac565b90600052602060002090601f016020900481019282611304576000855561134b565b82601f1061131d57805160ff191683800117855561134b565b8280016001018555821561134b579182015b8281111561134a57825182559160200191906001019061132f565b5b509050611358919061146e565b5090565b828054611368906121ac565b90600052602060002090601f01602090048101928261138a57600085556113d8565b82601f1061139b57805485556113d8565b828001600101855582156113d857600052602060002091601f016020900482015b828111156113d75782548255916001019190600101906113bc565b5b5090506113e5919061146e565b5090565b5080546113f5906121ac565b6000825580601f106114075750611426565b601f016020900490600052602060002090810190611425919061146e565b5b50565b6040518060a0016040528060608152602001606081526020016060815260200160608152602001600073ffffffffffffffffffffffffffffffffffffffff1681525090565b5b8082111561148757600081600090555060010161146f565b5090565b600061149e61149984611fc9565b611f98565b9050808382526020820190508260005b858110156114de57813585016114c488826115a4565b8452602084019350602083019250506001810190506114ae565b5050509392505050565b60006114fb6114f684611ff5565b611f98565b90508281526020810184848401111561151357600080fd5b61151e84828561216a565b509392505050565b600081359050611535816122cf565b92915050565b600082601f83011261154c57600080fd5b813561155c84826020860161148b565b91505092915050565b600081359050611574816122e6565b92915050565b600082601f83011261158b57600080fd5b813561159b8482602086016114e8565b91505092915050565b600060a082840312156115b657600080fd5b6115c060a0611f98565b9050600082013567ffffffffffffffff8111156115dc57600080fd5b6115e88482850161157a565b600083015250602082013567ffffffffffffffff81111561160857600080fd5b6116148482850161157a565b602083015250604082013567ffffffffffffffff81111561163457600080fd5b6116408482850161157a565b604083015250606082013567ffffffffffffffff81111561166057600080fd5b61166c8482850161157a565b606083015250608061168084828501611526565b60808301525092915050565b60008135905061169b816122fd565b92915050565b600080600080600060a086880312156116b957600080fd5b60006116c788828901611565565b95505060206116d88882890161168c565b94505060406116e988828901611565565b93505060606116fa88828901611565565b925050608086013567ffffffffffffffff81111561171757600080fd5b6117238882890161153b565b9150509295509295909350565b60006020828403121561174257600080fd5b600082013567ffffffffffffffff81111561175c57600080fd5b6117688482850161157a565b91505092915050565b6000806000806080858703121561178757600080fd5b600085013567ffffffffffffffff8111156117a157600080fd5b6117ad8782880161157a565b945050602085013567ffffffffffffffff8111156117ca57600080fd5b6117d68782880161157a565b935050604085013567ffffffffffffffff8111156117f357600080fd5b6117ff8782880161157a565b925050606085013567ffffffffffffffff81111561181c57600080fd5b6118288782880161157a565b91505092959194509250565b600080600080600060a0868803121561184c57600080fd5b600086013567ffffffffffffffff81111561186657600080fd5b6118728882890161157a565b955050602086013567ffffffffffffffff81111561188f57600080fd5b61189b8882890161157a565b945050604086013567ffffffffffffffff8111156118b857600080fd5b6118c48882890161157a565b935050606086013567ffffffffffffffff8111156118e157600080fd5b6118ed8882890161157a565b92505060806118fe88828901611526565b9150509295509295909350565b60006119178383611ce2565b905092915050565b600061192b8383611d6d565b905092915050565b61193c81612117565b82525050565b61194b81612117565b82525050565b61195a81612117565b82525050565b600061196b8261204a565b6119758185612078565b93508360208202850161198785612025565b8060005b858110156119c357848403895281516119a4858261190b565b94506119af8361206b565b925060208a0199505060018101905061198b565b50829750879550505050505092915050565b60006119e08261204a565b6119ea8185612089565b9350836020820285016119fc85612025565b8060005b85811015611a385784840389528151611a19858261191f565b9450611a248361206b565b925060208a01995050600181019050611a00565b50829750879550505050505092915050565b611a5381612129565b82525050565b611a6a611a6582612129565b612227565b82525050565b6000611a7b82612055565b611a85818561209a565b9350611a95818560208601612179565b80840191505092915050565b6000611aac82612060565b611ab681856120a5565b9350611ac6818560208601612179565b611acf816122be565b840191505092915050565b6000611ae582612060565b611aef81856120b6565b9350611aff818560208601612179565b611b08816122be565b840191505092915050565b6000611b1e82612060565b611b2881856120c7565b9350611b38818560208601612179565b611b41816122be565b840191505092915050565b6000611b5782612060565b611b6181856120d8565b9350611b71818560208601612179565b80840191505092915050565b60008154611b8a816121ac565b611b9481866120d8565b94506001821660008114611baf5760018114611bc057611bf3565b60ff19831686528186019350611bf3565b611bc985612035565b60005b83811015611beb57815481890152600182019150602081019050611bcc565b838801955050505b50505092915050565b6000611c09603a836120b6565b91507f4f776e61626c65236f6e6c794f776e65724f7243726561746f723a2053454e4460008301527f45525f49535f4e4f545f4f574e45525f4f525f43524541544f520000000000006020830152604082019050919050565b6000611c6f6005836120b6565b91507f6e617574680000000000000000000000000000000000000000000000000000006000830152602082019050919050565b6000611caf6003836120b6565b91507f494f4200000000000000000000000000000000000000000000000000000000006000830152602082019050919050565b600060a0830160008301518482036000860152611cff8282611aa1565b91505060208301518482036020860152611d198282611aa1565b91505060408301518482036040860152611d338282611aa1565b91505060608301518482036060860152611d4d8282611aa1565b9150506080830151611d626080860182611933565b508091505092915050565b600060a0830160008301518482036000860152611d8a8282611b13565b91505060208301518482036020860152611da48282611b13565b91505060408301518482036040860152611dbe8282611b13565b91505060608301518482036060860152611dd88282611b13565b9150506080830151611ded6080860182611951565b508091505092915050565b8082525050565b611e088161215d565b82525050565b6000611e1a8285611a70565b9150611e268284611a59565b6020820191508190509392505050565b6000611e428284611b4c565b915081905092915050565b6000611e598284611b7d565b915081905092915050565b6000602082019050611e796000830184611942565b92915050565b60006020820190508181036000830152611e998184611960565b905092915050565b6000608082019050611eb66000830187611a4a565b611ec36020830186611dff565b611ed06040830185611a4a565b611edd6060830184611a4a565b95945050505050565b60006020820190508181036000830152611f008184611ada565b905092915050565b60006020820190508181036000830152611f2181611bfc565b9050919050565b60006020820190508181036000830152611f4181611c62565b9050919050565b60006020820190508181036000830152611f6181611ca2565b9050919050565b6000604082019050611f7d6000830185611df8565b8181036020830152611f8f81846119d5565b90509392505050565b6000604051905081810181811067ffffffffffffffff82111715611fbf57611fbe61228f565b5b8060405250919050565b600067ffffffffffffffff821115611fe457611fe361228f565b5b602082029050602081019050919050565b600067ffffffffffffffff8211156120105761200f61228f565b5b601f19601f8301169050602081019050919050565b6000819050602082019050919050565b60008190508160005260206000209050919050565b600081519050919050565b600081519050919050565b600081519050919050565b6000602082019050919050565b600082825260208201905092915050565b600082825260208201905092915050565b600081905092915050565b600082825260208201905092915050565b600082825260208201905092915050565b600082825260208201905092915050565b600081905092915050565b60006120ee82612153565b91506120f983612153565b92508282101561210c5761210b612231565b5b828203905092915050565b600061212282612133565b9050919050565b6000819050919050565b600073ffffffffffffffffffffffffffffffffffffffff82169050919050565b6000819050919050565b600060ff82169050919050565b82818337600083830152505050565b60005b8381101561219757808201518184015260208101905061217c565b838111156121a6576000848401525b50505050565b600060028204905060018216806121c457607f821691505b602082108114156121d8576121d7612260565b5b50919050565b60006121e982612153565b91507fffffffffffffffffffffffffffffffffffffffffffffffffffffffffffffffff82141561221c5761221b612231565b5b600182019050919050565b6000819050919050565b7f4e487b7100000000000000000000000000000000000000000000000000000000600052601160045260246000fd5b7f4e487b7100000000000000000000000000000000000000000000000000000000600052602260045260246000fd5b7f4e487b7100000000000000000000000000000000000000000000000000000000600052604160045260246000fd5b6000601f19601f8301169050919050565b6122d881612117565b81146122e357600080fd5b50565b6122ef81612129565b81146122fa57600080fd5b50565b6123068161215d565b811461231157600080fd5b5056fea2646970667358221220d74f207d0032b8846c9be26b378546009566824c88168997f5247fc68167a29d64736f6c63430008000033",
  "immutableReferences": {},
  "source": "// SPDX-License-Identifier: MIT\npragma solidity ^0.8.0;\npragma experimental ABIEncoderV2;\n\nimport \"./utils/Ownable.sol\";\nimport \"./utils/SigUtils.sol\";\nimport \"./utils/FileManager.sol\";\nimport \"./utils/File.sol\";\n\ncontract Vault is Ownable {\n    string public user;\n    using FileManager for Files;\n    Files files;\n\n    constructor(address _creator, address _owner, string memory _userName ) Ownable(_creator, _owner) {\n        user = _userName;\n    }\n\n    function getUser() external view returns(string memory) {\n        return user;\n    }\n\n    function getAllFiles() external view returns(File[] memory) {\n        return files.allFiles();\n    }\n\n    function createFile(string memory name, string memory fileType, string memory ipfsHash, string memory key) external onlyOwnerOrCreator {\n        files.addFile(name, fileType, ipfsHash, key, address(0));\n    }\n\n    function addSharedFile(string memory name, string memory fileType, string memory ipfsHash, string memory key, address sharedBy) external onlyOwnerOrCreator {\n        files.addFile(name, fileType, ipfsHash, key, sharedBy);\n    }\n\n    event FileDeleted();\n    function deleteFile(string memory ipfsHash) external onlyOwnerOrCreator {\n        files.deleteFile(ipfsHash);\n    }\n\n    function migrateFiles(bytes32 _hashedMessage, uint8 _v, bytes32 _r, bytes32 _s, File[] memory _files) public{\n        address signer = SigUtils.recoverSigner(_hashedMessage, _v, _r, _s);\n        require(signer == owner || signer == creator, 'nauth');\n        files.migrateFiles(_files);\n    }\n}",
  "sourcePath": "/Users/shubhaankar/github.com/peer-safe/contracts/contracts/Vault.sol",
  "compiler": {
    "name": "solc",
    "version": "0.8.0+commit.c7dfd78e.Emscripten.clang"
  },
  "schemaVersion": "3.4.11",
  "updatedAt": "2023-07-18T14:25:09.602Z",
  "devdoc": {
    "kind": "dev",
    "methods": {},
    "version": 1
  },
  "userdoc": {
    "kind": "user",
    "methods": {},
    "version": 1
  }
}