{
  "contractName": "VaultDeployer",
  "abi": [
    {
      "inputs": [
        {
          "internalType": "address",
          "name": "owner",
          "type": "address"
        },
        {
          "internalType": "string",
          "name": "userName",
          "type": "string"
        }
      ],
      "name": "deploy",
      "outputs": [
        {
          "internalType": "address",
          "name": "",
          "type": "address"
        }
      ],
      "stateMutability": "nonpayable",
      "type": "function"
    }
  ],
  "bytecode": "0x608060405234801561001057600080fd5b5061263f806100206000396000f3fe60806040523480156200001157600080fd5b50600436106200002e5760003560e01c8063918aaff51462000033575b600080fd5b6200005160048036038101906200004b919062000147565b62000069565b604051620000609190620001f3565b60405180910390f35b60003383836040516200007c90620000b0565b6200008a9392919062000210565b604051809103906000f080158015620000a7573d6000803e3d6000fd5b50905092915050565b61225f80620003ab83390190565b6000620000d5620000cf8462000288565b62000254565b905082815260208101848484011115620000ee57600080fd5b620000fb8482856200030b565b509392505050565b600081359050620001148162000390565b92915050565b600082601f8301126200012c57600080fd5b81356200013e848260208601620000be565b91505092915050565b600080604083850312156200015b57600080fd5b60006200016b8582860162000103565b925050602083013567ffffffffffffffff8111156200018957600080fd5b62000197858286016200011a565b9150509250929050565b620001ac81620002d7565b82525050565b6000620001bf82620002bb565b620001cb8185620002c6565b9350620001dd8185602086016200031a565b620001e8816200037f565b840191505092915050565b60006020820190506200020a6000830184620001a1565b92915050565b6000606082019050620002276000830186620001a1565b620002366020830185620001a1565b81810360408301526200024a8184620001b2565b9050949350505050565b6000604051905081810181811067ffffffffffffffff821117156200027e576200027d62000350565b5b8060405250919050565b600067ffffffffffffffff821115620002a657620002a562000350565b5b601f19601f8301169050602081019050919050565b600081519050919050565b600082825260208201905092915050565b6000620002e482620002eb565b9050919050565b600073ffffffffffffffffffffffffffffffffffffffff82169050919050565b82818337600083830152505050565b60005b838110156200033a5780820151818401526020810190506200031d565b838111156200034a576000848401525b50505050565b7f4e487b7100000000000000000000000000000000000000000000000000000000600052604160045260246000fd5b6000601f19601f8301169050919050565b6200039b81620002d7565b8114620003a757600080fd5b5056fe60806040523480156200001157600080fd5b506040516200225f3803806200225f833981810160405281019062000037919062000272565b8282806000806101000a81548173ffffffffffffffffffffffffffffffffffffffff021916908373ffffffffffffffffffffffffffffffffffffffff16021790555081600160006101000a81548173ffffffffffffffffffffffffffffffffffffffff021916908373ffffffffffffffffffffffffffffffffffffffff1602179055508073ffffffffffffffffffffffffffffffffffffffff16600073ffffffffffffffffffffffffffffffffffffffff167f8be0079c531659141344cd1fd0a4f28419497f9722a3daafe3b4186f6b6457e060405160405180910390a3505080600290805190602001906200012f92919062000139565b5050505062000460565b8280546200014790620003b2565b90600052602060002090601f0160209004810192826200016b5760008555620001b7565b82601f106200018657805160ff1916838001178555620001b7565b82800160010185558215620001b7579182015b82811115620001b657825182559160200191906001019062000199565b5b509050620001c69190620001ca565b5090565b5b80821115620001e5576000816000905550600101620001cb565b5090565b600062000200620001fa8462000315565b620002e1565b9050828152602081018484840111156200021957600080fd5b620002268482856200037c565b509392505050565b6000815190506200023f8162000446565b92915050565b600082601f8301126200025757600080fd5b815162000269848260208601620001e9565b91505092915050565b6000806000606084860312156200028857600080fd5b600062000298868287016200022e565b9350506020620002ab868287016200022e565b925050604084015167ffffffffffffffff811115620002c957600080fd5b620002d78682870162000245565b9150509250925092565b6000604051905081810181811067ffffffffffffffff821117156200030b576200030a62000417565b5b8060405250919050565b600067ffffffffffffffff82111562000333576200033262000417565b5b601f19601f8301169050602081019050919050565b600062000355826200035c565b9050919050565b600073ffffffffffffffffffffffffffffffffffffffff82169050919050565b60005b838110156200039c5780820151818401526020810190506200037f565b83811115620003ac576000848401525b50505050565b60006002820490506001821680620003cb57607f821691505b60208210811415620003e257620003e1620003e8565b5b50919050565b7f4e487b7100000000000000000000000000000000000000000000000000000000600052602260045260246000fd5b7f4e487b7100000000000000000000000000000000000000000000000000000000600052604160045260246000fd5b620004518162000348565b81146200045d57600080fd5b50565b611def80620004706000396000f3fe608060405234801561001057600080fd5b50600436106100885760003560e01c8063893d20e81161005b578063893d20e814610103578063a991005414610121578063d590e7ef1461013d578063ff24b5d51461015957610088565b80630ee2cb101461008d5780631dd09eb0146100ab5780634f8632ba146100c7578063832880e7146100e5575b600080fd5b610095610177565b6040516100a29190611920565b60405180910390f35b6100c560048036038101906100c09190611278565b6101a1565b005b6100cf61030b565b6040516100dc91906119a2565b60405180910390f35b6100ed610399565b6040516100fa91906119a2565b60405180910390f35b61010b61042b565b6040516101189190611920565b60405180910390f35b61013b60048036038101906101369190611307565b610454565b005b61015760048036038101906101529190611348565b610551565b005b610161610657565b60405161016e919061193b565b60405180910390f35b6000600160009054906101000a900473ffffffffffffffffffffffffffffffffffffffff16905090565b60006101af86868686610668565b905060008054906101000a900473ffffffffffffffffffffffffffffffffffffffff1673ffffffffffffffffffffffffffffffffffffffff168173ffffffffffffffffffffffffffffffffffffffff1614806102585750600160009054906101000a900473ffffffffffffffffffffffffffffffffffffffff1673ffffffffffffffffffffffffffffffffffffffff168173ffffffffffffffffffffffffffffffffffffffff16145b610297576040517f08c379a000000000000000000000000000000000000000000000000000000000815260040161028e906119e4565b60405180910390fd5b600373__FileManager___________________________63167392159091846040518363ffffffff1660e01b81526004016102d3929190611a24565b60006040518083038186803b1580156102eb57600080fd5b505af41580156102ff573d6000803e3d6000fd5b50505050505050505050565b6002805461031890611c68565b80601f016020809104026020016040519081016040528092919081815260200182805461034490611c68565b80156103915780601f1061036657610100808354040283529160200191610391565b820191906000526020600020905b81548152906001019060200180831161037457829003601f168201915b505050505081565b6060600280546103a890611c68565b80601f01602080910402602001604051908101604052809291908181526020018280546103d490611c68565b80156104215780601f106103f657610100808354040283529160200191610421565b820191906000526020600020905b81548152906001019060200180831161040457829003601f168201915b5050505050905090565b60008060009054906101000a900473ffffffffffffffffffffffffffffffffffffffff16905090565b60008054906101000a900473ffffffffffffffffffffffffffffffffffffffff1673ffffffffffffffffffffffffffffffffffffffff163373ffffffffffffffffffffffffffffffffffffffff1614806104fb5750600160009054906101000a900473ffffffffffffffffffffffffffffffffffffffff1673ffffffffffffffffffffffffffffffffffffffff163373ffffffffffffffffffffffffffffffffffffffff16145b61053a576040517f08c379a0000000000000000000000000000000000000000000000000000000008152600401610531906119c4565b60405180910390fd5b61054e81600361072b90919063ffffffff16565b50565b60008054906101000a900473ffffffffffffffffffffffffffffffffffffffff1673ffffffffffffffffffffffffffffffffffffffff163373ffffffffffffffffffffffffffffffffffffffff1614806105f85750600160009054906101000a900473ffffffffffffffffffffffffffffffffffffffff1673ffffffffffffffffffffffffffffffffffffffff163373ffffffffffffffffffffffffffffffffffffffff16145b610637576040517f08c379a000000000000000000000000000000000000000000000000000000000815260040161062e906119c4565b60405180910390fd5b610651848484846003610a1290949392919063ffffffff16565b50505050565b60606106636003610b41565b905090565b6000806040518060400160405280601c81526020017f19457468657265756d205369676e6564204d6573736167653a0a3332000000008152509050600081876040516020016106b89291906118ca565b604051602081830303815290604052805190602001209050600181878787604051600081526020016040526040516106f3949392919061195d565b6020604051602081039080840390855afa158015610715573d6000803e3d6000fd5b5050506020604051035192505050949350505050565b6000826000018260405161073f91906118f2565b90815260200160405180910390206002016040516020016107609190611909565b60405160208183030381529060405251116107b0576040517f08c379a00000000000000000000000000000000000000000000000000000000081526004016107a790611a04565b60405180910390fd5b81600001816040516107c291906118f2565b9081526020016040518091039020600080820160006107e19190610ef3565b6001820160006107f19190610ef3565b6002820160006108019190610ef3565b6003820160006108119190610ef3565b505060005b82600101805490508110156109e1578160405160200161083691906118f2565b60405160208183030381529060405280519060200120836001018281548110610888577f4e487b7100000000000000000000000000000000000000000000000000000000600052603260045260246000fd5b906000526020600020016040516020016108a29190611909565b6040516020818303038152906040528051906020012014156109ce5782600101600184600101805490506108d69190611b9f565b8154811061090d577f4e487b7100000000000000000000000000000000000000000000000000000000600052603260045260246000fd5b90600052602060002001836001018281548110610953577f4e487b7100000000000000000000000000000000000000000000000000000000600052603260045260246000fd5b9060005260206000200190805461096990611c68565b610974929190610f33565b50826001018054806109af577f4e487b7100000000000000000000000000000000000000000000000000000000600052603160045260246000fd5b6001900381819060005260206000200160006109cb9190610ef3565b90555b80806109d990611c9a565b915050610816565b507f2cb62029f31e3c49468f31444e5229c1f9bc994db2905ec54efe95d4d92ce07f60405160405180910390a15050565b60006040518060800160405280868152602001858152602001848152602001838152509050808660000184604051610a4a91906118f2565b90815260200160405180910390206000820151816000019080519060200190610a74929190610fc0565b506020820151816001019080519060200190610a91929190610fc0565b506040820151816002019080519060200190610aae929190610fc0565b506060820151816003019080519060200190610acb929190610fc0565b509050508560010183908060018154018082558091505060019003906000526020600020016000909190919091509080519060200190610b0c929190610fc0565b507f588744e77a27a501dbb29b4c0887bc3d9baeac962c9d12031b299889cd7e7eb360405160405180910390a1505050505050565b60606000826001018054905067ffffffffffffffff811115610b8c577f4e487b7100000000000000000000000000000000000000000000000000000000600052604160045260246000fd5b604051908082528060200260200182016040528015610bc557816020015b610bb2611046565b815260200190600190039081610baa5790505b50905060005b8360010180549050811015610ee95783600001846001018281548110610c1a577f4e487b7100000000000000000000000000000000000000000000000000000000600052603260045260246000fd5b90600052602060002001604051610c319190611909565b9081526020016040518091039020604051806080016040529081600082018054610c5a90611c68565b80601f0160208091040260200160405190810160405280929190818152602001828054610c8690611c68565b8015610cd35780601f10610ca857610100808354040283529160200191610cd3565b820191906000526020600020905b815481529060010190602001808311610cb657829003601f168201915b50505050508152602001600182018054610cec90611c68565b80601f0160208091040260200160405190810160405280929190818152602001828054610d1890611c68565b8015610d655780601f10610d3a57610100808354040283529160200191610d65565b820191906000526020600020905b815481529060010190602001808311610d4857829003601f168201915b50505050508152602001600282018054610d7e90611c68565b80601f0160208091040260200160405190810160405280929190818152602001828054610daa90611c68565b8015610df75780601f10610dcc57610100808354040283529160200191610df7565b820191906000526020600020905b815481529060010190602001808311610dda57829003601f168201915b50505050508152602001600382018054610e1090611c68565b80601f0160208091040260200160405190810160405280929190818152602001828054610e3c90611c68565b8015610e895780601f10610e5e57610100808354040283529160200191610e89565b820191906000526020600020905b815481529060010190602001808311610e6c57829003601f168201915b505050505081525050828281518110610ecb577f4e487b7100000000000000000000000000000000000000000000000000000000600052603260045260246000fd5b60200260200101819052508080610ee190611c9a565b915050610bcb565b5080915050919050565b508054610eff90611c68565b6000825580601f10610f115750610f30565b601f016020900490600052602060002090810190610f2f919061106e565b5b50565b828054610f3f90611c68565b90600052602060002090601f016020900481019282610f615760008555610faf565b82601f10610f725780548555610faf565b82800160010185558215610faf57600052602060002091601f016020900482015b82811115610fae578254825591600101919060010190610f93565b5b509050610fbc919061106e565b5090565b828054610fcc90611c68565b90600052602060002090601f016020900481019282610fee5760008555611035565b82601f1061100757805160ff1916838001178555611035565b82800160010185558215611035579182015b82811115611034578251825591602001919060010190611019565b5b509050611042919061106e565b5090565b6040518060800160405280606081526020016060815260200160608152602001606081525090565b5b8082111561108757600081600090555060010161106f565b5090565b600061109e61109984611a85565b611a54565b9050808382526020820190508260005b858110156110de57813585016110c4888261118f565b8452602084019350602083019250506001810190506110ae565b5050509392505050565b60006110fb6110f684611ab1565b611a54565b90508281526020810184848401111561111357600080fd5b61111e848285611c26565b509392505050565b600082601f83011261113757600080fd5b813561114784826020860161108b565b91505092915050565b60008135905061115f81611d8b565b92915050565b600082601f83011261117657600080fd5b81356111868482602086016110e8565b91505092915050565b6000608082840312156111a157600080fd5b6111ab6080611a54565b9050600082013567ffffffffffffffff8111156111c757600080fd5b6111d384828501611165565b600083015250602082013567ffffffffffffffff8111156111f357600080fd5b6111ff84828501611165565b602083015250604082013567ffffffffffffffff81111561121f57600080fd5b61122b84828501611165565b604083015250606082013567ffffffffffffffff81111561124b57600080fd5b61125784828501611165565b60608301525092915050565b60008135905061127281611da2565b92915050565b600080600080600060a0868803121561129057600080fd5b600061129e88828901611150565b95505060206112af88828901611263565b94505060406112c088828901611150565b93505060606112d188828901611150565b925050608086013567ffffffffffffffff8111156112ee57600080fd5b6112fa88828901611126565b9150509295509295909350565b60006020828403121561131957600080fd5b600082013567ffffffffffffffff81111561133357600080fd5b61133f84828501611165565b91505092915050565b6000806000806080858703121561135e57600080fd5b600085013567ffffffffffffffff81111561137857600080fd5b61138487828801611165565b945050602085013567ffffffffffffffff8111156113a157600080fd5b6113ad87828801611165565b935050604085013567ffffffffffffffff8111156113ca57600080fd5b6113d687828801611165565b925050606085013567ffffffffffffffff8111156113f357600080fd5b6113ff87828801611165565b91505092959194509250565b600061141783836117c4565b905092915050565b600061142b838361183c565b905092915050565b61143c81611bd3565b82525050565b600061144d82611b06565b6114578185611b34565b93508360208202850161146985611ae1565b8060005b858110156114a55784840389528151611486858261140b565b945061149183611b27565b925060208a0199505060018101905061146d565b50829750879550505050505092915050565b60006114c282611b06565b6114cc8185611b45565b9350836020820285016114de85611ae1565b8060005b8581101561151a57848403895281516114fb858261141f565b945061150683611b27565b925060208a019950506001810190506114e2565b50829750879550505050505092915050565b61153581611be5565b82525050565b61154c61154782611be5565b611ce3565b82525050565b600061155d82611b11565b6115678185611b56565b9350611577818560208601611c35565b80840191505092915050565b600061158e82611b1c565b6115988185611b61565b93506115a8818560208601611c35565b6115b181611d7a565b840191505092915050565b60006115c782611b1c565b6115d18185611b72565b93506115e1818560208601611c35565b6115ea81611d7a565b840191505092915050565b600061160082611b1c565b61160a8185611b83565b935061161a818560208601611c35565b61162381611d7a565b840191505092915050565b600061163982611b1c565b6116438185611b94565b9350611653818560208601611c35565b80840191505092915050565b6000815461166c81611c68565b6116768186611b94565b9450600182166000811461169157600181146116a2576116d5565b60ff198316865281860193506116d5565b6116ab85611af1565b60005b838110156116cd578154818901526001820191506020810190506116ae565b838801955050505b50505092915050565b60006116eb603a83611b72565b91507f4f776e61626c65236f6e6c794f776e65724f7243726561746f723a2053454e4460008301527f45525f49535f4e4f545f4f574e45525f4f525f43524541544f520000000000006020830152604082019050919050565b6000611751600583611b72565b91507f6e617574680000000000000000000000000000000000000000000000000000006000830152602082019050919050565b6000611791600383611b72565b91507f494f4200000000000000000000000000000000000000000000000000000000006000830152602082019050919050565b600060808301600083015184820360008601526117e18282611583565b915050602083015184820360208601526117fb8282611583565b915050604083015184820360408601526118158282611583565b9150506060830151848203606086015261182f8282611583565b9150508091505092915050565b6000608083016000830151848203600086015261185982826115f5565b9150506020830151848203602086015261187382826115f5565b9150506040830151848203604086015261188d82826115f5565b915050606083015184820360608601526118a782826115f5565b9150508091505092915050565b8082525050565b6118c481611c19565b82525050565b60006118d68285611552565b91506118e2828461153b565b6020820191508190509392505050565b60006118fe828461162e565b915081905092915050565b6000611915828461165f565b915081905092915050565b60006020820190506119356000830184611433565b92915050565b600060208201905081810360008301526119558184611442565b905092915050565b6000608082019050611972600083018761152c565b61197f60208301866118bb565b61198c604083018561152c565b611999606083018461152c565b95945050505050565b600060208201905081810360008301526119bc81846115bc565b905092915050565b600060208201905081810360008301526119dd816116de565b9050919050565b600060208201905081810360008301526119fd81611744565b9050919050565b60006020820190508181036000830152611a1d81611784565b9050919050565b6000604082019050611a3960008301856118b4565b8181036020830152611a4b81846114b7565b90509392505050565b6000604051905081810181811067ffffffffffffffff82111715611a7b57611a7a611d4b565b5b8060405250919050565b600067ffffffffffffffff821115611aa057611a9f611d4b565b5b602082029050602081019050919050565b600067ffffffffffffffff821115611acc57611acb611d4b565b5b601f19601f8301169050602081019050919050565b6000819050602082019050919050565b60008190508160005260206000209050919050565b600081519050919050565b600081519050919050565b600081519050919050565b6000602082019050919050565b600082825260208201905092915050565b600082825260208201905092915050565b600081905092915050565b600082825260208201905092915050565b600082825260208201905092915050565b600082825260208201905092915050565b600081905092915050565b6000611baa82611c0f565b9150611bb583611c0f565b925082821015611bc857611bc7611ced565b5b828203905092915050565b6000611bde82611bef565b9050919050565b6000819050919050565b600073ffffffffffffffffffffffffffffffffffffffff82169050919050565b6000819050919050565b600060ff82169050919050565b82818337600083830152505050565b60005b83811015611c53578082015181840152602081019050611c38565b83811115611c62576000848401525b50505050565b60006002820490506001821680611c8057607f821691505b60208210811415611c9457611c93611d1c565b5b50919050565b6000611ca582611c0f565b91507fffffffffffffffffffffffffffffffffffffffffffffffffffffffffffffffff821415611cd857611cd7611ced565b5b600182019050919050565b6000819050919050565b7f4e487b7100000000000000000000000000000000000000000000000000000000600052601160045260246000fd5b7f4e487b7100000000000000000000000000000000000000000000000000000000600052602260045260246000fd5b7f4e487b7100000000000000000000000000000000000000000000000000000000600052604160045260246000fd5b6000601f19601f8301169050919050565b611d9481611be5565b8114611d9f57600080fd5b50565b611dab81611c19565b8114611db657600080fd5b5056fea2646970667358221220cdc8e0d4e1fc946c4a78664e04d7862e1aa04d596494093c2f6d1b9f9568012064736f6c63430008000033a264697066735822122099106e903bb352d4607af60332ec5693e3f9935a84ce5f336c564adc191b0a6764736f6c63430008000033",
  "immutableReferences": {},
  "source": "// SPDX-License-Identifier: MIT\npragma solidity ^0.8.0;\n\nimport \"./Vault.sol\";\n\ncontract VaultDeployer {\n    function deploy(address owner, string memory userName) external returns(address){\n        return address(new Vault(msg.sender, owner, userName));\n    }\n}",
  "sourcePath": "/Users/shubhaankar/github.com/peer-safe/contracts/contracts/VaultDeployer.sol",
  "compiler": {
    "name": "solc",
    "version": "0.8.0+commit.c7dfd78e.Emscripten.clang"
  },
  "schemaVersion": "3.4.14",
  "updatedAt": "2023-06-17T03:00:29.816Z",
  "networkType": "ethereum",
  "devdoc": {
    "kind": "dev",
    "methods": {},
    "version": 1
  },
  "userdoc": {
    "kind": "user",
    "methods": {},
    "version": 1
  }
}