{
  "contractName": "Vault",
  "abi": [
    {
      "inputs": [
        {
          "internalType": "address",
          "name": "_owner",
          "type": "address"
        },
        {
          "internalType": "string",
          "name": "_userName",
          "type": "string"
        }
      ],
      "stateMutability": "nonpayable",
      "type": "constructor"
    },
    {
      "anonymous": false,
      "inputs": [
        {
          "indexed": true,
          "internalType": "address",
          "name": "previousOwner",
          "type": "address"
        },
        {
          "indexed": true,
          "internalType": "address",
          "name": "newOwner",
          "type": "address"
        }
      ],
      "name": "OwnershipTransferred",
      "type": "event"
    },
    {
      "inputs": [],
      "name": "getCreator",
      "outputs": [
        {
          "internalType": "address",
          "name": "",
          "type": "address"
        }
      ],
      "stateMutability": "view",
      "type": "function"
    },
    {
      "inputs": [],
      "name": "getOwner",
      "outputs": [
        {
          "internalType": "address",
          "name": "",
          "type": "address"
        }
      ],
      "stateMutability": "view",
      "type": "function"
    },
    {
      "inputs": [],
      "name": "user",
      "outputs": [
        {
          "internalType": "string",
          "name": "",
          "type": "string"
        }
      ],
      "stateMutability": "view",
      "type": "function"
    },
    {
      "inputs": [],
      "name": "getAllFiles",
      "outputs": [
        {
          "components": [
            {
              "internalType": "string",
              "name": "_name",
              "type": "string"
            },
            {
              "internalType": "string",
              "name": "_fileType",
              "type": "string"
            },
            {
              "internalType": "string",
              "name": "_ipfsHash",
              "type": "string"
            },
            {
              "internalType": "string",
              "name": "_key",
              "type": "string"
            }
          ],
          "internalType": "struct File[]",
          "name": "",
          "type": "tuple[]"
        }
      ],
      "stateMutability": "view",
      "type": "function"
    },
    {
      "inputs": [
        {
          "internalType": "string",
          "name": "name",
          "type": "string"
        },
        {
          "internalType": "string",
          "name": "fileType",
          "type": "string"
        },
        {
          "internalType": "string",
          "name": "ipfsHash",
          "type": "string"
        },
        {
          "internalType": "string",
          "name": "key",
          "type": "string"
        }
      ],
      "name": "createFile",
      "outputs": [],
      "stateMutability": "nonpayable",
      "type": "function"
    },
    {
      "inputs": [
        {
          "internalType": "uint256",
          "name": "index",
          "type": "uint256"
        }
      ],
      "name": "deleteFile",
      "outputs": [],
      "stateMutability": "nonpayable",
      "type": "function"
    },
    {
      "inputs": [
        {
          "internalType": "bytes32",
          "name": "_hashedMessage",
          "type": "bytes32"
        },
        {
          "internalType": "uint8",
          "name": "_v",
          "type": "uint8"
        },
        {
          "internalType": "bytes32",
          "name": "_r",
          "type": "bytes32"
        },
        {
          "internalType": "bytes32",
          "name": "_s",
          "type": "bytes32"
        },
        {
          "components": [
            {
              "internalType": "string",
              "name": "_name",
              "type": "string"
            },
            {
              "internalType": "string",
              "name": "_fileType",
              "type": "string"
            },
            {
              "internalType": "string",
              "name": "_ipfsHash",
              "type": "string"
            },
            {
              "internalType": "string",
              "name": "_key",
              "type": "string"
            }
          ],
          "internalType": "struct File[]",
          "name": "_files",
          "type": "tuple[]"
        }
      ],
      "name": "migrateFiles",
      "outputs": [],
      "stateMutability": "nonpayable",
      "type": "function"
    }
  ],
  "bytecode": "0x60806040523480156200001157600080fd5b5060405162001c4e38038062001c4e833981810160405281019062000037919062000271565b3382806000806101000a81548173ffffffffffffffffffffffffffffffffffffffff021916908373ffffffffffffffffffffffffffffffffffffffff16021790555081600160006101000a81548173ffffffffffffffffffffffffffffffffffffffff021916908373ffffffffffffffffffffffffffffffffffffffff1602179055508073ffffffffffffffffffffffffffffffffffffffff16600073ffffffffffffffffffffffffffffffffffffffff167f8be0079c531659141344cd1fd0a4f28419497f9722a3daafe3b4186f6b6457e060405160405180910390a3505080600290805190602001906200012f92919062000138565b5050506200044a565b82805462000146906200039c565b90600052602060002090601f0160209004810192826200016a5760008555620001b6565b82601f106200018557805160ff1916838001178555620001b6565b82800160010185558215620001b6579182015b82811115620001b557825182559160200191906001019062000198565b5b509050620001c59190620001c9565b5090565b5b80821115620001e4576000816000905550600101620001ca565b5090565b6000620001ff620001f984620002ff565b620002cb565b9050828152602081018484840111156200021857600080fd5b6200022584828562000366565b509392505050565b6000815190506200023e8162000430565b92915050565b600082601f8301126200025657600080fd5b815162000268848260208601620001e8565b91505092915050565b600080604083850312156200028557600080fd5b600062000295858286016200022d565b925050602083015167ffffffffffffffff811115620002b357600080fd5b620002c18582860162000244565b9150509250929050565b6000604051905081810181811067ffffffffffffffff82111715620002f557620002f462000401565b5b8060405250919050565b600067ffffffffffffffff8211156200031d576200031c62000401565b5b601f19601f8301169050602081019050919050565b60006200033f8262000346565b9050919050565b600073ffffffffffffffffffffffffffffffffffffffff82169050919050565b60005b838110156200038657808201518184015260208101905062000369565b8381111562000396576000848401525b50505050565b60006002820490506001821680620003b557607f821691505b60208210811415620003cc57620003cb620003d2565b5b50919050565b7f4e487b7100000000000000000000000000000000000000000000000000000000600052602260045260246000fd5b7f4e487b7100000000000000000000000000000000000000000000000000000000600052604160045260246000fd5b6200043b8162000332565b81146200044757600080fd5b50565b6117f4806200045a6000396000f3fe608060405234801561001057600080fd5b506004361061007d5760003560e01c8063893d20e81161005b578063893d20e8146100da578063c5b42006146100f8578063d590e7ef14610114578063ff24b5d5146101305761007d565b80630ee2cb10146100825780631dd09eb0146100a05780634f8632ba146100bc575b600080fd5b61008a61014e565b60405161009791906113a0565b60405180910390f35b6100ba60048036038101906100b59190610f6f565b610178565b005b6100c4610378565b6040516100d19190611422565b60405180910390f35b6100e2610406565b6040516100ef91906113a0565b60405180910390f35b610112600480360381019061010d91906110c1565b61042f565b005b61012e60048036038101906101299190610ffe565b6106df565b005b610138610893565b60405161014591906113bb565b60405180910390f35b6000600160009054906101000a900473ffffffffffffffffffffffffffffffffffffffff16905090565b600061018686868686610b3a565b905060008054906101000a900473ffffffffffffffffffffffffffffffffffffffff1673ffffffffffffffffffffffffffffffffffffffff168173ffffffffffffffffffffffffffffffffffffffff16148061022f5750600160009054906101000a900473ffffffffffffffffffffffffffffffffffffffff1673ffffffffffffffffffffffffffffffffffffffff168173ffffffffffffffffffffffffffffffffffffffff16145b61026e576040517f08c379a000000000000000000000000000000000000000000000000000000000815260040161026590611464565b60405180910390fd5b60005b825181101561036f5760038382815181106102b5577f4e487b7100000000000000000000000000000000000000000000000000000000600052603260045260246000fd5b602002602001015190806001815401808255809150506001900390600052602060002090600402016000909190919091506000820151816000019080519060200190610302929190610bfd565b50602082015181600101908051906020019061031f929190610bfd565b50604082015181600201908051906020019061033c929190610bfd565b506060820151816003019080519060200190610359929190610bfd565b505050808061036790611688565b915050610271565b50505050505050565b6002805461038590611656565b80601f01602080910402602001604051908101604052809291908181526020018280546103b190611656565b80156103fe5780601f106103d3576101008083540402835291602001916103fe565b820191906000526020600020905b8154815290600101906020018083116103e157829003601f168201915b505050505081565b60008060009054906101000a900473ffffffffffffffffffffffffffffffffffffffff16905090565b60008054906101000a900473ffffffffffffffffffffffffffffffffffffffff1673ffffffffffffffffffffffffffffffffffffffff163373ffffffffffffffffffffffffffffffffffffffff1614806104d65750600160009054906101000a900473ffffffffffffffffffffffffffffffffffffffff1673ffffffffffffffffffffffffffffffffffffffff163373ffffffffffffffffffffffffffffffffffffffff16145b610515576040517f08c379a000000000000000000000000000000000000000000000000000000000815260040161050c90611444565b60405180910390fd5b60038054905081101561052757600080fd5b6003600160038054905061053b919061158d565b81548110610572577f4e487b7100000000000000000000000000000000000000000000000000000000600052603260045260246000fd5b9060005260206000209060040201600382815481106105ba577f4e487b7100000000000000000000000000000000000000000000000000000000600052603260045260246000fd5b906000526020600020906004020160008201816000019080546105dc90611656565b6105e7929190610c83565b5060018201816001019080546105fc90611656565b610607929190610c83565b50600282018160020190805461061c90611656565b610627929190610c83565b50600382018160030190805461063c90611656565b610647929190610c83565b509050506003805480610683577f4e487b7100000000000000000000000000000000000000000000000000000000600052603160045260246000fd5b6001900381819060005260206000209060040201600080820160006106a89190610d10565b6001820160006106b89190610d10565b6002820160006106c89190610d10565b6003820160006106d89190610d10565b5050905550565b60008054906101000a900473ffffffffffffffffffffffffffffffffffffffff1673ffffffffffffffffffffffffffffffffffffffff163373ffffffffffffffffffffffffffffffffffffffff1614806107865750600160009054906101000a900473ffffffffffffffffffffffffffffffffffffffff1673ffffffffffffffffffffffffffffffffffffffff163373ffffffffffffffffffffffffffffffffffffffff16145b6107c5576040517f08c379a00000000000000000000000000000000000000000000000000000000081526004016107bc90611444565b60405180910390fd5b6000604051806080016040528086815260200185815260200184815260200183815250905060038190806001815401808255809150506001900390600052602060002090600402016000909190919091506000820151816000019080519060200190610832929190610bfd565b50602082015181600101908051906020019061084f929190610bfd565b50604082015181600201908051906020019061086c929190610bfd565b506060820151816003019080519060200190610889929190610bfd565b5050505050505050565b60606003805480602002602001604051908101604052809291908181526020016000905b82821015610b3157838290600052602060002090600402016040518060800160405290816000820180546108ea90611656565b80601f016020809104026020016040519081016040528092919081815260200182805461091690611656565b80156109635780601f1061093857610100808354040283529160200191610963565b820191906000526020600020905b81548152906001019060200180831161094657829003601f168201915b5050505050815260200160018201805461097c90611656565b80601f01602080910402602001604051908101604052809291908181526020018280546109a890611656565b80156109f55780601f106109ca576101008083540402835291602001916109f5565b820191906000526020600020905b8154815290600101906020018083116109d857829003601f168201915b50505050508152602001600282018054610a0e90611656565b80601f0160208091040260200160405190810160405280929190818152602001828054610a3a90611656565b8015610a875780601f10610a5c57610100808354040283529160200191610a87565b820191906000526020600020905b815481529060010190602001808311610a6a57829003601f168201915b50505050508152602001600382018054610aa090611656565b80601f0160208091040260200160405190810160405280929190818152602001828054610acc90611656565b8015610b195780601f10610aee57610100808354040283529160200191610b19565b820191906000526020600020905b815481529060010190602001808311610afc57829003601f168201915b505050505081525050815260200190600101906108b7565b50505050905090565b6000806040518060400160405280601c81526020017f19457468657265756d205369676e6564204d6573736167653a0a333200000000815250905060008187604051602001610b8a929190611378565b60405160208183030381529060405280519060200120905060018187878760405160008152602001604052604051610bc594939291906113dd565b6020604051602081039080840390855afa158015610be7573d6000803e3d6000fd5b5050506020604051035192505050949350505050565b828054610c0990611656565b90600052602060002090601f016020900481019282610c2b5760008555610c72565b82601f10610c4457805160ff1916838001178555610c72565b82800160010185558215610c72579182015b82811115610c71578251825591602001919060010190610c56565b5b509050610c7f9190610d50565b5090565b828054610c8f90611656565b90600052602060002090601f016020900481019282610cb15760008555610cff565b82601f10610cc25780548555610cff565b82800160010185558215610cff57600052602060002091601f016020900482015b82811115610cfe578254825591600101919060010190610ce3565b5b509050610d0c9190610d50565b5090565b508054610d1c90611656565b6000825580601f10610d2e5750610d4d565b601f016020900490600052602060002090810190610d4c9190610d50565b5b50565b5b80821115610d69576000816000905550600101610d51565b5090565b6000610d80610d7b846114b5565b611484565b9050808382526020820190508260005b85811015610dc05781358501610da68882610e71565b845260208401935060208301925050600181019050610d90565b5050509392505050565b6000610ddd610dd8846114e1565b611484565b905082815260208101848484011115610df557600080fd5b610e00848285611614565b509392505050565b600082601f830112610e1957600080fd5b8135610e29848260208601610d6d565b91505092915050565b600081359050610e4181611779565b92915050565b600082601f830112610e5857600080fd5b8135610e68848260208601610dca565b91505092915050565b600060808284031215610e8357600080fd5b610e8d6080611484565b9050600082013567ffffffffffffffff811115610ea957600080fd5b610eb584828501610e47565b600083015250602082013567ffffffffffffffff811115610ed557600080fd5b610ee184828501610e47565b602083015250604082013567ffffffffffffffff811115610f0157600080fd5b610f0d84828501610e47565b604083015250606082013567ffffffffffffffff811115610f2d57600080fd5b610f3984828501610e47565b60608301525092915050565b600081359050610f5481611790565b92915050565b600081359050610f69816117a7565b92915050565b600080600080600060a08688031215610f8757600080fd5b6000610f9588828901610e32565b9550506020610fa688828901610f5a565b9450506040610fb788828901610e32565b9350506060610fc888828901610e32565b925050608086013567ffffffffffffffff811115610fe557600080fd5b610ff188828901610e08565b9150509295509295909350565b6000806000806080858703121561101457600080fd5b600085013567ffffffffffffffff81111561102e57600080fd5b61103a87828801610e47565b945050602085013567ffffffffffffffff81111561105757600080fd5b61106387828801610e47565b935050604085013567ffffffffffffffff81111561108057600080fd5b61108c87828801610e47565b925050606085013567ffffffffffffffff8111156110a957600080fd5b6110b587828801610e47565b91505092959194509250565b6000602082840312156110d357600080fd5b60006110e184828501610f45565b91505092915050565b60006110f683836112f1565b905092915050565b611107816115c1565b82525050565b600061111882611521565b611122818561154f565b93508360208202850161113485611511565b8060005b85811015611170578484038952815161115185826110ea565b945061115c83611542565b925060208a01995050600181019050611138565b50829750879550505050505092915050565b61118b816115d3565b82525050565b6111a261119d826115d3565b6116d1565b82525050565b60006111b38261152c565b6111bd8185611560565b93506111cd818560208601611623565b80840191505092915050565b60006111e482611537565b6111ee818561156b565b93506111fe818560208601611623565b61120781611768565b840191505092915050565b600061121d82611537565b611227818561157c565b9350611237818560208601611623565b61124081611768565b840191505092915050565b6000611258603a8361157c565b91507f4f776e61626c65236f6e6c794f776e65724f7243726561746f723a2053454e4460008301527f45525f49535f4e4f545f4f574e45525f4f525f43524541544f520000000000006020830152604082019050919050565b60006112be60198361157c565b91507f6e656974686572206f776e6572206e6f722063726561746f72000000000000006000830152602082019050919050565b6000608083016000830151848203600086015261130e82826111d9565b9150506020830151848203602086015261132882826111d9565b9150506040830151848203604086015261134282826111d9565b9150506060830151848203606086015261135c82826111d9565b9150508091505092915050565b61137281611607565b82525050565b600061138482856111a8565b91506113908284611191565b6020820191508190509392505050565b60006020820190506113b560008301846110fe565b92915050565b600060208201905081810360008301526113d5818461110d565b905092915050565b60006080820190506113f26000830187611182565b6113ff6020830186611369565b61140c6040830185611182565b6114196060830184611182565b95945050505050565b6000602082019050818103600083015261143c8184611212565b905092915050565b6000602082019050818103600083015261145d8161124b565b9050919050565b6000602082019050818103600083015261147d816112b1565b9050919050565b6000604051905081810181811067ffffffffffffffff821117156114ab576114aa611739565b5b8060405250919050565b600067ffffffffffffffff8211156114d0576114cf611739565b5b602082029050602081019050919050565b600067ffffffffffffffff8211156114fc576114fb611739565b5b601f19601f8301169050602081019050919050565b6000819050602082019050919050565b600081519050919050565b600081519050919050565b600081519050919050565b6000602082019050919050565b600082825260208201905092915050565b600081905092915050565b600082825260208201905092915050565b600082825260208201905092915050565b6000611598826115fd565b91506115a3836115fd565b9250828210156115b6576115b56116db565b5b828203905092915050565b60006115cc826115dd565b9050919050565b6000819050919050565b600073ffffffffffffffffffffffffffffffffffffffff82169050919050565b6000819050919050565b600060ff82169050919050565b82818337600083830152505050565b60005b83811015611641578082015181840152602081019050611626565b83811115611650576000848401525b50505050565b6000600282049050600182168061166e57607f821691505b602082108114156116825761168161170a565b5b50919050565b6000611693826115fd565b91507fffffffffffffffffffffffffffffffffffffffffffffffffffffffffffffffff8214156116c6576116c56116db565b5b600182019050919050565b6000819050919050565b7f4e487b7100000000000000000000000000000000000000000000000000000000600052601160045260246000fd5b7f4e487b7100000000000000000000000000000000000000000000000000000000600052602260045260246000fd5b7f4e487b7100000000000000000000000000000000000000000000000000000000600052604160045260246000fd5b6000601f19601f8301169050919050565b611782816115d3565b811461178d57600080fd5b50565b611799816115fd565b81146117a457600080fd5b50565b6117b081611607565b81146117bb57600080fd5b5056fea2646970667358221220764dd59e3fb9b9f2caadfaff7cdd7f910ec779be4cb25a18047cbe44fada220264736f6c63430008000033",
  "immutableReferences": {},
  "source": "// SPDX-License-Identifier: MIT\npragma solidity ^0.8.0;\npragma experimental ABIEncoderV2;\n\nimport \"./utils/Ownable.sol\";\nimport \"./utils/SigUtils.sol\";\n\n\nstruct File {\n    string _name;\n    string _fileType;\n    string _ipfsHash;\n    string _key;\n}\n\ncontract Vault is Ownable {\n    string public user;\n    File[] files;\n    constructor(address _owner, string memory _userName ) Ownable(msg.sender, _owner) {\n        user = _userName;\n    }\n\n    function getAllFiles() external view returns(File[] memory) {\n        return files;\n    }\n\n    function createFile(string memory name, string memory fileType, string memory ipfsHash, string memory key) external onlyOwnerOrCreator {\n        File memory f = File(\n           {\n            _name: name,\n            _fileType: fileType,\n            _ipfsHash: ipfsHash,\n            _key: key\n           }\n        );\n        files.push(f);\n    }\n\n    function deleteFile(uint256 index) external onlyOwnerOrCreator {\n        require( index >= files.length );\n        files[index] = files[files.length-1];\n        files.pop();\n    }\n\n    function migrateFiles(bytes32 _hashedMessage, uint8 _v, bytes32 _r, bytes32 _s, File[] memory _files) public{\n        address signer = SigUtils.recoverSigner(_hashedMessage, _v, _r, _s);\n        require(signer == owner || signer == creator, 'neither owner nor creator');\n        for (uint i = 0; i < _files.length; i++ ){\n            files.push(_files[i]);\n        }\n    }\n}",
  "sourcePath": "/Users/shubhaankar/github.com/peer-safe/contracts/contracts/Vault.sol",
  "compiler": {
    "name": "solc",
    "version": "0.8.0+commit.c7dfd78e.Emscripten.clang"
  },
  "schemaVersion": "3.4.14",
  "updatedAt": "2023-06-10T06:50:24.311Z",
  "devdoc": {
    "kind": "dev",
    "methods": {},
    "version": 1
  },
  "userdoc": {
    "kind": "user",
    "methods": {},
    "version": 1
  }
}